{
  "contractName": "AccessControlEnumerableMock",
  "abi": [
    {
      "inputs": [],
      "stateMutability": "nonpayable",
      "type": "constructor"
    },
    {
      "anonymous": false,
      "inputs": [
        {
          "indexed": true,
          "internalType": "bytes32",
          "name": "role",
          "type": "bytes32"
        },
        {
          "indexed": true,
          "internalType": "bytes32",
          "name": "previousAdminRole",
          "type": "bytes32"
        },
        {
          "indexed": true,
          "internalType": "bytes32",
          "name": "newAdminRole",
          "type": "bytes32"
        }
      ],
      "name": "RoleAdminChanged",
      "type": "event"
    },
    {
      "anonymous": false,
      "inputs": [
        {
          "indexed": true,
          "internalType": "bytes32",
          "name": "role",
          "type": "bytes32"
        },
        {
          "indexed": true,
          "internalType": "address",
          "name": "account",
          "type": "address"
        },
        {
          "indexed": true,
          "internalType": "address",
          "name": "sender",
          "type": "address"
        }
      ],
      "name": "RoleGranted",
      "type": "event"
    },
    {
      "anonymous": false,
      "inputs": [
        {
          "indexed": true,
          "internalType": "bytes32",
          "name": "role",
          "type": "bytes32"
        },
        {
          "indexed": true,
          "internalType": "address",
          "name": "account",
          "type": "address"
        },
        {
          "indexed": true,
          "internalType": "address",
          "name": "sender",
          "type": "address"
        }
      ],
      "name": "RoleRevoked",
      "type": "event"
    },
    {
      "inputs": [],
      "name": "DEFAULT_ADMIN_ROLE",
      "outputs": [
        {
          "internalType": "bytes32",
          "name": "",
          "type": "bytes32"
        }
      ],
      "stateMutability": "view",
      "type": "function"
    },
    {
      "inputs": [
        {
          "internalType": "bytes32",
          "name": "role",
          "type": "bytes32"
        }
      ],
      "name": "getRoleAdmin",
      "outputs": [
        {
          "internalType": "bytes32",
          "name": "",
          "type": "bytes32"
        }
      ],
      "stateMutability": "view",
      "type": "function"
    },
    {
      "inputs": [
        {
          "internalType": "bytes32",
          "name": "role",
          "type": "bytes32"
        },
        {
          "internalType": "uint256",
          "name": "index",
          "type": "uint256"
        }
      ],
      "name": "getRoleMember",
      "outputs": [
        {
          "internalType": "address",
          "name": "",
          "type": "address"
        }
      ],
      "stateMutability": "view",
      "type": "function"
    },
    {
      "inputs": [
        {
          "internalType": "bytes32",
          "name": "role",
          "type": "bytes32"
        }
      ],
      "name": "getRoleMemberCount",
      "outputs": [
        {
          "internalType": "uint256",
          "name": "",
          "type": "uint256"
        }
      ],
      "stateMutability": "view",
      "type": "function"
    },
    {
      "inputs": [
        {
          "internalType": "bytes32",
          "name": "role",
          "type": "bytes32"
        },
        {
          "internalType": "address",
          "name": "account",
          "type": "address"
        }
      ],
      "name": "grantRole",
      "outputs": [],
      "stateMutability": "nonpayable",
      "type": "function"
    },
    {
      "inputs": [
        {
          "internalType": "bytes32",
          "name": "role",
          "type": "bytes32"
        },
        {
          "internalType": "address",
          "name": "account",
          "type": "address"
        }
      ],
      "name": "hasRole",
      "outputs": [
        {
          "internalType": "bool",
          "name": "",
          "type": "bool"
        }
      ],
      "stateMutability": "view",
      "type": "function"
    },
    {
      "inputs": [
        {
          "internalType": "bytes32",
          "name": "role",
          "type": "bytes32"
        },
        {
          "internalType": "address",
          "name": "account",
          "type": "address"
        }
      ],
      "name": "renounceRole",
      "outputs": [],
      "stateMutability": "nonpayable",
      "type": "function"
    },
    {
      "inputs": [
        {
          "internalType": "bytes32",
          "name": "role",
          "type": "bytes32"
        },
        {
          "internalType": "address",
          "name": "account",
          "type": "address"
        }
      ],
      "name": "revokeRole",
      "outputs": [],
      "stateMutability": "nonpayable",
      "type": "function"
    },
    {
      "inputs": [
        {
          "internalType": "bytes4",
          "name": "interfaceId",
          "type": "bytes4"
        }
      ],
      "name": "supportsInterface",
      "outputs": [
        {
          "internalType": "bool",
          "name": "",
          "type": "bool"
        }
      ],
      "stateMutability": "view",
      "type": "function"
    },
    {
      "inputs": [
        {
          "internalType": "bytes32",
          "name": "roleId",
          "type": "bytes32"
        },
        {
          "internalType": "bytes32",
          "name": "adminRoleId",
          "type": "bytes32"
        }
      ],
      "name": "setRoleAdmin",
      "outputs": [],
      "stateMutability": "nonpayable",
      "type": "function"
    },
    {
      "inputs": [
        {
          "internalType": "bytes32",
          "name": "roleId",
          "type": "bytes32"
        }
      ],
      "name": "senderProtected",
      "outputs": [],
      "stateMutability": "nonpayable",
      "type": "function"
    }
  ],
  "bytecode": "0x60806040523480156200001157600080fd5b50620000366000801b6200002a6200003c60201b60201c565b6200004460201b60201c565b620002d2565b600033905090565b6200005b82826200008c60201b620004651760201c565b620000878160016000858152602001908152602001600020620000a260201b620004731790919060201c565b505050565b6200009e8282620000da60201b60201c565b5050565b6000620000d2836000018373ffffffffffffffffffffffffffffffffffffffff1660001b620001cb60201b60201c565b905092915050565b620000ec82826200024560201b60201c565b620001c757600160008084815260200190815260200160002060000160008373ffffffffffffffffffffffffffffffffffffffff1673ffffffffffffffffffffffffffffffffffffffff16815260200190815260200160002060006101000a81548160ff0219169083151502179055506200016c6200003c60201b60201c565b73ffffffffffffffffffffffffffffffffffffffff168173ffffffffffffffffffffffffffffffffffffffff16837f2f8788117e7eff1d82e926ec794901d17c78024a50270940304540a733656f0d60405160405180910390a45b5050565b6000620001df8383620002af60201b60201c565b6200023a5782600001829080600181540180825580915050600190039060005260206000200160009091909190915055826000018054905083600101600084815260200190815260200160002081905550600190506200023f565b600090505b92915050565b600080600084815260200190815260200160002060000160008373ffffffffffffffffffffffffffffffffffffffff1673ffffffffffffffffffffffffffffffffffffffff16815260200190815260200160002060009054906101000a900460ff16905092915050565b600080836001016000848152602001908152602001600020541415905092915050565b61155780620002e26000396000f3fe608060405234801561001057600080fd5b50600436106100a95760003560e01c80634b9304a4116100715780634b9304a4146101625780639010d07c1461017e57806391d14854146101ae578063a217fddf146101de578063ca15c873146101fc578063d547741f1461022c576100a9565b806301ffc9a7146100ae5780631e4e0091146100de578063248a9ca3146100fa5780632f2ff15d1461012a57806336568abe14610146575b600080fd5b6100c860048036038101906100c39190610df8565b610248565b6040516100d59190610e40565b60405180910390f35b6100f860048036038101906100f39190610e91565b6102c2565b005b610114600480360381019061010f9190610ed1565b6102d0565b6040516101219190610f0d565b60405180910390f35b610144600480360381019061013f9190610f86565b6102ef565b005b610160600480360381019061015b9190610f86565b610323565b005b61017c60048036038101906101779190610ed1565b610357565b005b61019860048036038101906101939190610ffc565b61036d565b6040516101a5919061104b565b60405180910390f35b6101c860048036038101906101c39190610f86565b61039c565b6040516101d59190610e40565b60405180910390f35b6101e6610406565b6040516101f39190610f0d565b60405180910390f35b61021660048036038101906102119190610ed1565b61040d565b6040516102239190611075565b60405180910390f35b61024660048036038101906102419190610f86565b610431565b005b60007f5a05180f000000000000000000000000000000000000000000000000000000007bffffffffffffffffffffffffffffffffffffffffffffffffffffffff1916827bffffffffffffffffffffffffffffffffffffffffffffffffffffffff191614806102bb57506102ba826104a3565b5b9050919050565b6102cc828261051d565b5050565b6000806000838152602001908152602001600020600101549050919050565b6102f98282610578565b61031e816001600085815260200190815260200160002061047390919063ffffffff16565b505050565b61032d82826105a1565b610352816001600085815260200190815260200160002061062490919063ffffffff16565b505050565b8061036981610364610654565b61065c565b5050565b600061039482600160008681526020019081526020016000206106f990919063ffffffff16565b905092915050565b600080600084815260200190815260200160002060000160008373ffffffffffffffffffffffffffffffffffffffff1673ffffffffffffffffffffffffffffffffffffffff16815260200190815260200160002060009054906101000a900460ff16905092915050565b6000801b81565b600061042a60016000848152602001908152602001600020610713565b9050919050565b61043b8282610728565b610460816001600085815260200190815260200160002061062490919063ffffffff16565b505050565b61046f8282610751565b5050565b600061049b836000018373ffffffffffffffffffffffffffffffffffffffff1660001b610831565b905092915050565b60007f7965db0b000000000000000000000000000000000000000000000000000000007bffffffffffffffffffffffffffffffffffffffffffffffffffffffff1916827bffffffffffffffffffffffffffffffffffffffffffffffffffffffff191614806105165750610515826108a1565b5b9050919050565b6000610528836102d0565b905081600080858152602001908152602001600020600101819055508181847fbd79b86ffe0ab8e8776151514217cd7cacd52c909f66475c3af44e129f0b00ff60405160405180910390a4505050565b610581826102d0565b6105928161058d610654565b61065c565b61059c8383610751565b505050565b6105a9610654565b73ffffffffffffffffffffffffffffffffffffffff168173ffffffffffffffffffffffffffffffffffffffff1614610616576040517f08c379a000000000000000000000000000000000000000000000000000000000815260040161060d90611113565b60405180910390fd5b610620828261090b565b5050565b600061064c836000018373ffffffffffffffffffffffffffffffffffffffff1660001b6109ec565b905092915050565b600033905090565b610666828261039c565b6106f55761068b8173ffffffffffffffffffffffffffffffffffffffff166014610b00565b6106998360001c6020610b00565b6040516020016106aa929190611245565b6040516020818303038152906040526040517f08c379a00000000000000000000000000000000000000000000000000000000081526004016106ec91906112c9565b60405180910390fd5b5050565b60006107088360000183610d3c565b60001c905092915050565b600061072182600001610d67565b9050919050565b610731826102d0565b6107428161073d610654565b61065c565b61074c838361090b565b505050565b61075b828261039c565b61082d57600160008084815260200190815260200160002060000160008373ffffffffffffffffffffffffffffffffffffffff1673ffffffffffffffffffffffffffffffffffffffff16815260200190815260200160002060006101000a81548160ff0219169083151502179055506107d2610654565b73ffffffffffffffffffffffffffffffffffffffff168173ffffffffffffffffffffffffffffffffffffffff16837f2f8788117e7eff1d82e926ec794901d17c78024a50270940304540a733656f0d60405160405180910390a45b5050565b600061083d8383610d78565b61089657826000018290806001815401808255809150506001900390600052602060002001600090919091909150558260000180549050836001016000848152602001908152602001600020819055506001905061089b565b600090505b92915050565b60007f01ffc9a7000000000000000000000000000000000000000000000000000000007bffffffffffffffffffffffffffffffffffffffffffffffffffffffff1916827bffffffffffffffffffffffffffffffffffffffffffffffffffffffff1916149050919050565b610915828261039c565b156109e857600080600084815260200190815260200160002060000160008373ffffffffffffffffffffffffffffffffffffffff1673ffffffffffffffffffffffffffffffffffffffff16815260200190815260200160002060006101000a81548160ff02191690831515021790555061098d610654565b73ffffffffffffffffffffffffffffffffffffffff168173ffffffffffffffffffffffffffffffffffffffff16837ff6391f5c32d9c69d2a47ea670b442974b53935d1edc7fd64eb21e047a839171b60405160405180910390a45b5050565b60008083600101600084815260200190815260200160002054905060008114610af4576000600182610a1e919061131a565b9050600060018660000180549050610a36919061131a565b9050818114610aa5576000866000018281548110610a5757610a5661134e565b5b9060005260206000200154905080876000018481548110610a7b57610a7a61134e565b5b90600052602060002001819055508387600101600083815260200190815260200160002081905550505b85600001805480610ab957610ab861137d565b5b600190038181906000526020600020016000905590558560010160008681526020019081526020016000206000905560019350505050610afa565b60009150505b92915050565b606060006002836002610b1391906113ac565b610b1d9190611406565b67ffffffffffffffff811115610b3657610b3561145c565b5b6040519080825280601f01601f191660200182016040528015610b685781602001600182028036833780820191505090505b5090507f300000000000000000000000000000000000000000000000000000000000000081600081518110610ba057610b9f61134e565b5b60200101907effffffffffffffffffffffffffffffffffffffffffffffffffffffffffffff1916908160001a9053507f780000000000000000000000000000000000000000000000000000000000000081600181518110610c0457610c0361134e565b5b60200101907effffffffffffffffffffffffffffffffffffffffffffffffffffffffffffff1916908160001a90535060006001846002610c4491906113ac565b610c4e9190611406565b90505b6001811115610cee577f3031323334353637383961626364656600000000000000000000000000000000600f861660108110610c9057610c8f61134e565b5b1a60f81b828281518110610ca757610ca661134e565b5b60200101907effffffffffffffffffffffffffffffffffffffffffffffffffffffffffffff1916908160001a905350600485901c945080610ce79061148b565b9050610c51565b5060008414610d32576040517f08c379a0000000000000000000000000000000000000000000000000000000008152600401610d2990611501565b60405180910390fd5b8091505092915050565b6000826000018281548110610d5457610d5361134e565b5b9060005260206000200154905092915050565b600081600001805490509050919050565b600080836001016000848152602001908152602001600020541415905092915050565b600080fd5b60007fffffffff0000000000000000000000000000000000000000000000000000000082169050919050565b610dd581610da0565b8114610de057600080fd5b50565b600081359050610df281610dcc565b92915050565b600060208284031215610e0e57610e0d610d9b565b5b6000610e1c84828501610de3565b91505092915050565b60008115159050919050565b610e3a81610e25565b82525050565b6000602082019050610e556000830184610e31565b92915050565b6000819050919050565b610e6e81610e5b565b8114610e7957600080fd5b50565b600081359050610e8b81610e65565b92915050565b60008060408385031215610ea857610ea7610d9b565b5b6000610eb685828601610e7c565b9250506020610ec785828601610e7c565b9150509250929050565b600060208284031215610ee757610ee6610d9b565b5b6000610ef584828501610e7c565b91505092915050565b610f0781610e5b565b82525050565b6000602082019050610f226000830184610efe565b92915050565b600073ffffffffffffffffffffffffffffffffffffffff82169050919050565b6000610f5382610f28565b9050919050565b610f6381610f48565b8114610f6e57600080fd5b50565b600081359050610f8081610f5a565b92915050565b60008060408385031215610f9d57610f9c610d9b565b5b6000610fab85828601610e7c565b9250506020610fbc85828601610f71565b9150509250929050565b6000819050919050565b610fd981610fc6565b8114610fe457600080fd5b50565b600081359050610ff681610fd0565b92915050565b6000806040838503121561101357611012610d9b565b5b600061102185828601610e7c565b925050602061103285828601610fe7565b9150509250929050565b61104581610f48565b82525050565b6000602082019050611060600083018461103c565b92915050565b61106f81610fc6565b82525050565b600060208201905061108a6000830184611066565b92915050565b600082825260208201905092915050565b7f416363657373436f6e74726f6c3a2063616e206f6e6c792072656e6f756e636560008201527f20726f6c657320666f722073656c660000000000000000000000000000000000602082015250565b60006110fd602f83611090565b9150611108826110a1565b604082019050919050565b6000602082019050818103600083015261112c816110f0565b9050919050565b600081905092915050565b7f416363657373436f6e74726f6c3a206163636f756e7420000000000000000000600082015250565b6000611174601783611133565b915061117f8261113e565b601782019050919050565b600081519050919050565b60005b838110156111b3578082015181840152602081019050611198565b838111156111c2576000848401525b50505050565b60006111d38261118a565b6111dd8185611133565b93506111ed818560208601611195565b80840191505092915050565b7f206973206d697373696e6720726f6c6520000000000000000000000000000000600082015250565b600061122f601183611133565b915061123a826111f9565b601182019050919050565b600061125082611167565b915061125c82856111c8565b915061126782611222565b915061127382846111c8565b91508190509392505050565b6000601f19601f8301169050919050565b600061129b8261118a565b6112a58185611090565b93506112b5818560208601611195565b6112be8161127f565b840191505092915050565b600060208201905081810360008301526112e38184611290565b905092915050565b7f4e487b7100000000000000000000000000000000000000000000000000000000600052601160045260246000fd5b600061132582610fc6565b915061133083610fc6565b925082821015611343576113426112eb565b5b828203905092915050565b7f4e487b7100000000000000000000000000000000000000000000000000000000600052603260045260246000fd5b7f4e487b7100000000000000000000000000000000000000000000000000000000600052603160045260246000fd5b60006113b782610fc6565b91506113c283610fc6565b9250817fffffffffffffffffffffffffffffffffffffffffffffffffffffffffffffffff04831182151516156113fb576113fa6112eb565b5b828202905092915050565b600061141182610fc6565b915061141c83610fc6565b9250827fffffffffffffffffffffffffffffffffffffffffffffffffffffffffffffffff03821115611451576114506112eb565b5b828201905092915050565b7f4e487b7100000000000000000000000000000000000000000000000000000000600052604160045260246000fd5b600061149682610fc6565b915060008214156114aa576114a96112eb565b5b600182039050919050565b7f537472696e67733a20686578206c656e67746820696e73756666696369656e74600082015250565b60006114eb602083611090565b91506114f6826114b5565b602082019050919050565b6000602082019050818103600083015261151a816114de565b905091905056fea26469706673582212201fded0950e343924a6c1aeff047988cb30ccaf9c46c3cfc0a5b059d644dde16964736f6c63430008090033",
  "immutableReferences": {},
  "source": "// SPDX-License-Identifier: MIT\r\n\r\npragma solidity ^0.8.0;\r\n\r\nimport \"../access/AccessControlEnumerable.sol\";\r\n\r\ncontract AccessControlEnumerableMock is AccessControlEnumerable {\r\n    constructor() {\r\n        _setupRole(DEFAULT_ADMIN_ROLE, _msgSender());\r\n    }\r\n\r\n    function setRoleAdmin(bytes32 roleId, bytes32 adminRoleId) public {\r\n        _setRoleAdmin(roleId, adminRoleId);\r\n    }\r\n\r\n    function senderProtected(bytes32 roleId) public onlyRole(roleId) {}\r\n}\r\n",
  "sourcePath": "C:\\Climax\\NFT-marketplace\\contracts\\openzeppelin-solidity\\contracts\\mocks\\AccessControlEnumerableMock.sol",
  "compiler": {
    "name": "solc",
    "version": "0.8.9+commit.e5eed63a.Emscripten.clang"
  },
  "schemaVersion": "3.4.3",
  "updatedAt": "2021-10-26T11:45:25.309Z",
  "devdoc": {
    "kind": "dev",
    "methods": {
      "getRoleAdmin(bytes32)": {
        "details": "Returns the admin role that controls `role`. See {grantRole} and {revokeRole}. To change a role's admin, use {_setRoleAdmin}."
      },
      "getRoleMember(bytes32,uint256)": {
        "details": "Returns one of the accounts that have `role`. `index` must be a value between 0 and {getRoleMemberCount}, non-inclusive. Role bearers are not sorted in any particular way, and their ordering may change at any point. WARNING: When using {getRoleMember} and {getRoleMemberCount}, make sure you perform all queries on the same block. See the following https://forum.openzeppelin.com/t/iterating-over-elements-on-enumerableset-in-openzeppelin-contracts/2296[forum post] for more information."
      },
      "getRoleMemberCount(bytes32)": {
        "details": "Returns the number of accounts that have `role`. Can be used together with {getRoleMember} to enumerate all bearers of a role."
      },
      "grantRole(bytes32,address)": {
        "details": "Overload {grantRole} to track enumerable memberships"
      },
      "hasRole(bytes32,address)": {
        "details": "Returns `true` if `account` has been granted `role`."
      },
      "renounceRole(bytes32,address)": {
        "details": "Overload {renounceRole} to track enumerable memberships"
      },
      "revokeRole(bytes32,address)": {
        "details": "Overload {revokeRole} to track enumerable memberships"
      },
      "supportsInterface(bytes4)": {
        "details": "See {IERC165-supportsInterface}."
      }
    },
    "version": 1
  },
  "userdoc": {
    "kind": "user",
    "methods": {},
    "version": 1
  }
}