{
  "contractName": "BitMapMock",
  "abi": [
    {
      "inputs": [
        {
          "internalType": "uint256",
          "name": "index",
          "type": "uint256"
        }
      ],
      "name": "get",
      "outputs": [
        {
          "internalType": "bool",
          "name": "",
          "type": "bool"
        }
      ],
      "stateMutability": "view",
      "type": "function"
    },
    {
      "inputs": [
        {
          "internalType": "uint256",
          "name": "index",
          "type": "uint256"
        },
        {
          "internalType": "bool",
          "name": "value",
          "type": "bool"
        }
      ],
      "name": "setTo",
      "outputs": [],
      "stateMutability": "nonpayable",
      "type": "function"
    },
    {
      "inputs": [
        {
          "internalType": "uint256",
          "name": "index",
          "type": "uint256"
        }
      ],
      "name": "set",
      "outputs": [],
      "stateMutability": "nonpayable",
      "type": "function"
    },
    {
      "inputs": [
        {
          "internalType": "uint256",
          "name": "index",
          "type": "uint256"
        }
      ],
      "name": "unset",
      "outputs": [],
      "stateMutability": "nonpayable",
      "type": "function"
    }
  ],
  "bytecode": "0x608060405234801561001057600080fd5b50610358806100206000396000f3fe608060405234801561001057600080fd5b506004361061004c5760003560e01c8063088d22551461005157806360fe47b11461006d5780639507d39a14610089578063dcc9d43c146100b9575b600080fd5b61006b60048036038101906100669190610253565b6100d5565b005b61008760048036038101906100829190610253565b6100ec565b005b6100a3600480360381019061009e9190610253565b610103565b6040516100b0919061029b565b60405180910390f35b6100d360048036038101906100ce91906102e2565b610120565b005b6100e981600061013a90919063ffffffff16565b50565b61010081600061017990919063ffffffff16565b50565b60006101198260006101b790919063ffffffff16565b9050919050565b610136828260006101f39092919063ffffffff16565b5050565b6000600882901c9050600060ff83166001901b905080198460000160008481526020019081526020016000206000828254169250508190555050505050565b6000600882901c9050600060ff83166001901b9050808460000160008481526020019081526020016000206000828254179250508190555050505050565b600080600883901c9050600060ff84166001901b9050600081866000016000858152602001908152602001600020541614159250505092915050565b8015610208576102038383610179565b610213565b610212838361013a565b5b505050565b600080fd5b6000819050919050565b6102308161021d565b811461023b57600080fd5b50565b60008135905061024d81610227565b92915050565b60006020828403121561026957610268610218565b5b60006102778482850161023e565b91505092915050565b60008115159050919050565b61029581610280565b82525050565b60006020820190506102b0600083018461028c565b92915050565b6102bf81610280565b81146102ca57600080fd5b50565b6000813590506102dc816102b6565b92915050565b600080604083850312156102f9576102f8610218565b5b60006103078582860161023e565b9250506020610318858286016102cd565b915050925092905056fea2646970667358221220153fe4c363986b9241c754ddf51e7cffe229fc7bc101684e61c26bb0d361d09d64736f6c63430008090033",
  "immutableReferences": {},
  "source": "// SPDX-License-Identifier: MIT\r\n\r\npragma solidity ^0.8.0;\r\n\r\nimport \"../utils/structs/BitMaps.sol\";\r\n\r\ncontract BitMapMock {\r\n    using BitMaps for BitMaps.BitMap;\r\n\r\n    BitMaps.BitMap private _bitmap;\r\n\r\n    function get(uint256 index) public view returns (bool) {\r\n        return _bitmap.get(index);\r\n    }\r\n\r\n    function setTo(uint256 index, bool value) public {\r\n        _bitmap.setTo(index, value);\r\n    }\r\n\r\n    function set(uint256 index) public {\r\n        _bitmap.set(index);\r\n    }\r\n\r\n    function unset(uint256 index) public {\r\n        _bitmap.unset(index);\r\n    }\r\n}\r\n",
  "sourcePath": "C:\\Climax\\NFT-marketplace\\contracts\\openzeppelin-solidity\\contracts\\mocks\\BitmapMock.sol",
  "compiler": {
    "name": "solc",
    "version": "0.8.9+commit.e5eed63a.Emscripten.clang"
  },
  "schemaVersion": "3.4.3",
  "updatedAt": "2021-10-26T11:45:25.335Z",
  "devdoc": {
    "kind": "dev",
    "methods": {},
    "version": 1
  },
  "userdoc": {
    "kind": "user",
    "methods": {},
    "version": 1
  }
}