{
  "contractName": "DummyImplementation",
  "abi": [
    {
      "inputs": [],
      "name": "text",
      "outputs": [
        {
          "internalType": "string",
          "name": "",
          "type": "string"
        }
      ],
      "stateMutability": "view",
      "type": "function"
    },
    {
      "inputs": [],
      "name": "value",
      "outputs": [
        {
          "internalType": "uint256",
          "name": "",
          "type": "uint256"
        }
      ],
      "stateMutability": "view",
      "type": "function"
    },
    {
      "inputs": [
        {
          "internalType": "uint256",
          "name": "",
          "type": "uint256"
        }
      ],
      "name": "values",
      "outputs": [
        {
          "internalType": "uint256",
          "name": "",
          "type": "uint256"
        }
      ],
      "stateMutability": "view",
      "type": "function"
    },
    {
      "inputs": [],
      "name": "initializeNonPayable",
      "outputs": [],
      "stateMutability": "nonpayable",
      "type": "function"
    },
    {
      "inputs": [],
      "name": "initializePayable",
      "outputs": [],
      "stateMutability": "payable",
      "type": "function"
    },
    {
      "inputs": [
        {
          "internalType": "uint256",
          "name": "_value",
          "type": "uint256"
        }
      ],
      "name": "initializeNonPayableWithValue",
      "outputs": [],
      "stateMutability": "nonpayable",
      "type": "function"
    },
    {
      "inputs": [
        {
          "internalType": "uint256",
          "name": "_value",
          "type": "uint256"
        }
      ],
      "name": "initializePayableWithValue",
      "outputs": [],
      "stateMutability": "payable",
      "type": "function"
    },
    {
      "inputs": [
        {
          "internalType": "uint256",
          "name": "_value",
          "type": "uint256"
        },
        {
          "internalType": "string",
          "name": "_text",
          "type": "string"
        },
        {
          "internalType": "uint256[]",
          "name": "_values",
          "type": "uint256[]"
        }
      ],
      "name": "initialize",
      "outputs": [],
      "stateMutability": "nonpayable",
      "type": "function"
    },
    {
      "inputs": [],
      "name": "get",
      "outputs": [
        {
          "internalType": "bool",
          "name": "",
          "type": "bool"
        }
      ],
      "stateMutability": "pure",
      "type": "function"
    },
    {
      "inputs": [],
      "name": "version",
      "outputs": [
        {
          "internalType": "string",
          "name": "",
          "type": "string"
        }
      ],
      "stateMutability": "pure",
      "type": "function"
    },
    {
      "inputs": [],
      "name": "reverts",
      "outputs": [],
      "stateMutability": "pure",
      "type": "function"
    }
  ],
  "bytecode": "0x608060405234801561001057600080fd5b506109e0806100206000396000f3fe60806040526004361061009c5760003560e01c80635e383d21116100645780635e383d21146101505780636d4ce63c1461018d578063763e2831146101b85780639fba1f9a146101e1578063d31f8b6b146101eb578063e79f5bee146102145761009c565b80631f1bd692146100a1578063227367d5146100cc5780633bccbbc9146100e35780633fa4f245146100fa57806354fd4d5014610125575b600080fd5b3480156100ad57600080fd5b506100b6610230565b6040516100c3919061055c565b60405180910390f35b3480156100d857600080fd5b506100e16102be565b005b3480156100ef57600080fd5b506100f86102c8565b005b34801561010657600080fd5b5061010f61030b565b60405161011c9190610597565b60405180910390f35b34801561013157600080fd5b5061013a610311565b604051610147919061055c565b60405180910390f35b34801561015c57600080fd5b50610177600480360381019061017291906105f2565b61034e565b6040516101849190610597565b60405180910390f35b34801561019957600080fd5b506101a2610372565b6040516101af919061063a565b60405180910390f35b3480156101c457600080fd5b506101df60048036038101906101da91906105f2565b61037b565b005b6101e9610385565b005b3480156101f757600080fd5b50610212600480360381019061020d9190610852565b61038f565b005b61022e600480360381019061022991906105f2565b6103c9565b005b6001805461023d9061090c565b80601f01602080910402602001604051908101604052809291908181526020018280546102699061090c565b80156102b65780601f1061028b576101008083540402835291602001916102b6565b820191906000526020600020905b81548152906001019060200180831161029957829003601f168201915b505050505081565b600a600081905550565b6000610309576040517f08c379a00000000000000000000000000000000000000000000000000000000081526004016103009061098a565b60405180910390fd5b565b60005481565b60606040518060400160405280600281526020017f5631000000000000000000000000000000000000000000000000000000000000815250905090565b6002818154811061035e57600080fd5b906000526020600020016000915090505481565b60006001905090565b8060008190555050565b6064600081905550565b8260008190555081600190805190602001906103ac9291906103d3565b5080600290805190602001906103c3929190610459565b50505050565b8060008190555050565b8280546103df9061090c565b90600052602060002090601f0160209004810192826104015760008555610448565b82601f1061041a57805160ff1916838001178555610448565b82800160010185558215610448579182015b8281111561044757825182559160200191906001019061042c565b5b50905061045591906104a6565b5090565b828054828255906000526020600020908101928215610495579160200282015b82811115610494578251825591602001919060010190610479565b5b5090506104a291906104a6565b5090565b5b808211156104bf5760008160009055506001016104a7565b5090565b600081519050919050565b600082825260208201905092915050565b60005b838110156104fd5780820151818401526020810190506104e2565b8381111561050c576000848401525b50505050565b6000601f19601f8301169050919050565b600061052e826104c3565b61053881856104ce565b93506105488185602086016104df565b61055181610512565b840191505092915050565b600060208201905081810360008301526105768184610523565b905092915050565b6000819050919050565b6105918161057e565b82525050565b60006020820190506105ac6000830184610588565b92915050565b6000604051905090565b600080fd5b600080fd5b6105cf8161057e565b81146105da57600080fd5b50565b6000813590506105ec816105c6565b92915050565b600060208284031215610608576106076105bc565b5b6000610616848285016105dd565b91505092915050565b60008115159050919050565b6106348161061f565b82525050565b600060208201905061064f600083018461062b565b92915050565b600080fd5b600080fd5b7f4e487b7100000000000000000000000000000000000000000000000000000000600052604160045260246000fd5b61069782610512565b810181811067ffffffffffffffff821117156106b6576106b561065f565b5b80604052505050565b60006106c96105b2565b90506106d5828261068e565b919050565b600067ffffffffffffffff8211156106f5576106f461065f565b5b6106fe82610512565b9050602081019050919050565b82818337600083830152505050565b600061072d610728846106da565b6106bf565b9050828152602081018484840111156107495761074861065a565b5b61075484828561070b565b509392505050565b600082601f83011261077157610770610655565b5b813561078184826020860161071a565b91505092915050565b600067ffffffffffffffff8211156107a5576107a461065f565b5b602082029050602081019050919050565b600080fd5b60006107ce6107c98461078a565b6106bf565b905080838252602082019050602084028301858111156107f1576107f06107b6565b5b835b8181101561081a578061080688826105dd565b8452602084019350506020810190506107f3565b5050509392505050565b600082601f83011261083957610838610655565b5b81356108498482602086016107bb565b91505092915050565b60008060006060848603121561086b5761086a6105bc565b5b6000610879868287016105dd565b935050602084013567ffffffffffffffff81111561089a576108996105c1565b5b6108a68682870161075c565b925050604084013567ffffffffffffffff8111156108c7576108c66105c1565b5b6108d386828701610824565b9150509250925092565b7f4e487b7100000000000000000000000000000000000000000000000000000000600052602260045260246000fd5b6000600282049050600182168061092457607f821691505b60208210811415610938576109376108dd565b5b50919050565b7f44756d6d79496d706c656d656e746174696f6e20726576657274656400000000600082015250565b6000610974601c836104ce565b915061097f8261093e565b602082019050919050565b600060208201905081810360008301526109a381610967565b905091905056fea264697066735822122062b6e1775a76a816d08473cf5b525bd2de8b9653a5365659d4d4c103fdea541364736f6c63430008090033",
  "immutableReferences": {},
  "source": "// SPDX-License-Identifier: MIT\r\n\r\npragma solidity ^0.8.0;\r\n\r\nabstract contract Impl {\r\n    function version() public pure virtual returns (string memory);\r\n}\r\n\r\ncontract DummyImplementation {\r\n    uint256 public value;\r\n    string public text;\r\n    uint256[] public values;\r\n\r\n    function initializeNonPayable() public {\r\n        value = 10;\r\n    }\r\n\r\n    function initializePayable() public payable {\r\n        value = 100;\r\n    }\r\n\r\n    function initializeNonPayableWithValue(uint256 _value) public {\r\n        value = _value;\r\n    }\r\n\r\n    function initializePayableWithValue(uint256 _value) public payable {\r\n        value = _value;\r\n    }\r\n\r\n    function initialize(\r\n        uint256 _value,\r\n        string memory _text,\r\n        uint256[] memory _values\r\n    ) public {\r\n        value = _value;\r\n        text = _text;\r\n        values = _values;\r\n    }\r\n\r\n    function get() public pure returns (bool) {\r\n        return true;\r\n    }\r\n\r\n    function version() public pure virtual returns (string memory) {\r\n        return \"V1\";\r\n    }\r\n\r\n    function reverts() public pure {\r\n        require(false, \"DummyImplementation reverted\");\r\n    }\r\n}\r\n\r\ncontract DummyImplementationV2 is DummyImplementation {\r\n    function migrate(uint256 newVal) public payable {\r\n        value = newVal;\r\n    }\r\n\r\n    function version() public pure override returns (string memory) {\r\n        return \"V2\";\r\n    }\r\n}\r\n",
  "sourcePath": "C:\\Climax\\NFT-marketplace\\contracts\\openzeppelin-solidity\\contracts\\mocks\\DummyImplementation.sol",
  "compiler": {
    "name": "solc",
    "version": "0.8.9+commit.e5eed63a.Emscripten.clang"
  },
  "schemaVersion": "3.4.3",
  "updatedAt": "2021-10-26T11:45:25.372Z",
  "devdoc": {
    "kind": "dev",
    "methods": {},
    "version": 1
  },
  "userdoc": {
    "kind": "user",
    "methods": {},
    "version": 1
  }
}