{
  "contractName": "ECDSAMock",
  "abi": [
    {
      "inputs": [
        {
          "internalType": "bytes32",
          "name": "hash",
          "type": "bytes32"
        },
        {
          "internalType": "bytes",
          "name": "signature",
          "type": "bytes"
        }
      ],
      "name": "recover",
      "outputs": [
        {
          "internalType": "address",
          "name": "",
          "type": "address"
        }
      ],
      "stateMutability": "pure",
      "type": "function"
    },
    {
      "inputs": [
        {
          "internalType": "bytes32",
          "name": "hash",
          "type": "bytes32"
        },
        {
          "internalType": "uint8",
          "name": "v",
          "type": "uint8"
        },
        {
          "internalType": "bytes32",
          "name": "r",
          "type": "bytes32"
        },
        {
          "internalType": "bytes32",
          "name": "s",
          "type": "bytes32"
        }
      ],
      "name": "recover_v_r_s",
      "outputs": [
        {
          "internalType": "address",
          "name": "",
          "type": "address"
        }
      ],
      "stateMutability": "pure",
      "type": "function"
    },
    {
      "inputs": [
        {
          "internalType": "bytes32",
          "name": "hash",
          "type": "bytes32"
        },
        {
          "internalType": "bytes32",
          "name": "r",
          "type": "bytes32"
        },
        {
          "internalType": "bytes32",
          "name": "vs",
          "type": "bytes32"
        }
      ],
      "name": "recover_r_vs",
      "outputs": [
        {
          "internalType": "address",
          "name": "",
          "type": "address"
        }
      ],
      "stateMutability": "pure",
      "type": "function"
    },
    {
      "inputs": [
        {
          "internalType": "bytes32",
          "name": "hash",
          "type": "bytes32"
        }
      ],
      "name": "toEthSignedMessageHash",
      "outputs": [
        {
          "internalType": "bytes32",
          "name": "",
          "type": "bytes32"
        }
      ],
      "stateMutability": "pure",
      "type": "function"
    }
  ],
  "bytecode": "0x608060405234801561001057600080fd5b50610cd7806100206000396000f3fe608060405234801561001057600080fd5b506004361061004c5760003560e01c8063126442731461005157806319045a2514610081578063918a15cf146100b1578063a005410b146100e1575b600080fd5b61006b60048036038101906100669190610664565b610111565b604051610078919061070c565b60405180910390f35b61009b6004803603810190610096919061086d565b610134565b6040516100a8919061070c565b60405180910390f35b6100cb60048036038101906100c691906108c9565b610151565b6040516100d89190610905565b60405180910390f35b6100fb60048036038101906100f69190610920565b610163565b604051610108919061070c565b60405180910390f35b600061012a84848488610183909392919063ffffffff16565b9050949350505050565b600061014982846101ae90919063ffffffff16565b905092915050565b600061015c826101d5565b9050919050565b600061017a8383866102059092919063ffffffff16565b90509392505050565b60008060006101948787878761022e565b915091506101a18161033b565b8192505050949350505050565b60008060006101bd8585610510565b915091506101ca8161033b565b819250505092915050565b6000816040516020016101e891906109eb565b604051602081830303815290604052805190602001209050919050565b6000806000610215868686610593565b915091506102228161033b565b81925050509392505050565b6000807f7fffffffffffffffffffffffffffffff5d576e7357a4501ddfe92f46681b20a08360001c1115610269576000600391509150610332565b601b8560ff16141580156102815750601c8560ff1614155b15610293576000600491509150610332565b6000600187878787604051600081526020016040526040516102b89493929190610a20565b6020604051602081039080840390855afa1580156102da573d6000803e3d6000fd5b505050602060405103519050600073ffffffffffffffffffffffffffffffffffffffff168173ffffffffffffffffffffffffffffffffffffffff16141561032957600060019250925050610332565b80600092509250505b94509492505050565b6000600481111561034f5761034e610a65565b5b81600481111561036257610361610a65565b5b141561036d5761050d565b6001600481111561038157610380610a65565b5b81600481111561039457610393610a65565b5b14156103d5576040517f08c379a00000000000000000000000000000000000000000000000000000000081526004016103cc90610af1565b60405180910390fd5b600260048111156103e9576103e8610a65565b5b8160048111156103fc576103fb610a65565b5b141561043d576040517f08c379a000000000000000000000000000000000000000000000000000000000815260040161043490610b5d565b60405180910390fd5b6003600481111561045157610450610a65565b5b81600481111561046457610463610a65565b5b14156104a5576040517f08c379a000000000000000000000000000000000000000000000000000000000815260040161049c90610bef565b60405180910390fd5b6004808111156104b8576104b7610a65565b5b8160048111156104cb576104ca610a65565b5b141561050c576040517f08c379a000000000000000000000000000000000000000000000000000000000815260040161050390610c81565b60405180910390fd5b5b50565b6000806041835114156105525760008060006020860151925060408601519150606086015160001a90506105468782858561022e565b9450945050505061058c565b604083511415610583576000806020850151915060408501519050610578868383610593565b93509350505061058c565b60006002915091505b9250929050565b6000806000807f7fffffffffffffffffffffffffffffffffffffffffffffffffffffffffffffff85169150601b8560ff1c0190506105d38782888561022e565b935093505050935093915050565b6000604051905090565b600080fd5b600080fd5b6000819050919050565b610608816105f5565b811461061357600080fd5b50565b600081359050610625816105ff565b92915050565b600060ff82169050919050565b6106418161062b565b811461064c57600080fd5b50565b60008135905061065e81610638565b92915050565b6000806000806080858703121561067e5761067d6105eb565b5b600061068c87828801610616565b945050602061069d8782880161064f565b93505060406106ae87828801610616565b92505060606106bf87828801610616565b91505092959194509250565b600073ffffffffffffffffffffffffffffffffffffffff82169050919050565b60006106f6826106cb565b9050919050565b610706816106eb565b82525050565b600060208201905061072160008301846106fd565b92915050565b600080fd5b600080fd5b6000601f19601f8301169050919050565b7f4e487b7100000000000000000000000000000000000000000000000000000000600052604160045260246000fd5b61077a82610731565b810181811067ffffffffffffffff8211171561079957610798610742565b5b80604052505050565b60006107ac6105e1565b90506107b88282610771565b919050565b600067ffffffffffffffff8211156107d8576107d7610742565b5b6107e182610731565b9050602081019050919050565b82818337600083830152505050565b600061081061080b846107bd565b6107a2565b90508281526020810184848401111561082c5761082b61072c565b5b6108378482856107ee565b509392505050565b600082601f83011261085457610853610727565b5b81356108648482602086016107fd565b91505092915050565b60008060408385031215610884576108836105eb565b5b600061089285828601610616565b925050602083013567ffffffffffffffff8111156108b3576108b26105f0565b5b6108bf8582860161083f565b9150509250929050565b6000602082840312156108df576108de6105eb565b5b60006108ed84828501610616565b91505092915050565b6108ff816105f5565b82525050565b600060208201905061091a60008301846108f6565b92915050565b600080600060608486031215610939576109386105eb565b5b600061094786828701610616565b935050602061095886828701610616565b925050604061096986828701610616565b9150509250925092565b600081905092915050565b7f19457468657265756d205369676e6564204d6573736167653a0a333200000000600082015250565b60006109b4601c83610973565b91506109bf8261097e565b601c82019050919050565b6000819050919050565b6109e56109e0826105f5565b6109ca565b82525050565b60006109f6826109a7565b9150610a0282846109d4565b60208201915081905092915050565b610a1a8161062b565b82525050565b6000608082019050610a3560008301876108f6565b610a426020830186610a11565b610a4f60408301856108f6565b610a5c60608301846108f6565b95945050505050565b7f4e487b7100000000000000000000000000000000000000000000000000000000600052602160045260246000fd5b600082825260208201905092915050565b7f45434453413a20696e76616c6964207369676e61747572650000000000000000600082015250565b6000610adb601883610a94565b9150610ae682610aa5565b602082019050919050565b60006020820190508181036000830152610b0a81610ace565b9050919050565b7f45434453413a20696e76616c6964207369676e6174757265206c656e67746800600082015250565b6000610b47601f83610a94565b9150610b5282610b11565b602082019050919050565b60006020820190508181036000830152610b7681610b3a565b9050919050565b7f45434453413a20696e76616c6964207369676e6174757265202773272076616c60008201527f7565000000000000000000000000000000000000000000000000000000000000602082015250565b6000610bd9602283610a94565b9150610be482610b7d565b604082019050919050565b60006020820190508181036000830152610c0881610bcc565b9050919050565b7f45434453413a20696e76616c6964207369676e6174757265202776272076616c60008201527f7565000000000000000000000000000000000000000000000000000000000000602082015250565b6000610c6b602283610a94565b9150610c7682610c0f565b604082019050919050565b60006020820190508181036000830152610c9a81610c5e565b905091905056fea264697066735822122094bd1ba6510ef4625f3644702dfe835ccc06c807b8b8f02be33fc8234b191d9c64736f6c63430008090033",
  "immutableReferences": {},
  "source": "// SPDX-License-Identifier: MIT\r\n\r\npragma solidity ^0.8.0;\r\n\r\nimport \"../utils/cryptography/ECDSA.sol\";\r\n\r\ncontract ECDSAMock {\r\n    using ECDSA for bytes32;\r\n\r\n    function recover(bytes32 hash, bytes memory signature) public pure returns (address) {\r\n        return hash.recover(signature);\r\n    }\r\n\r\n    // solhint-disable-next-line func-name-mixedcase\r\n    function recover_v_r_s(\r\n        bytes32 hash,\r\n        uint8 v,\r\n        bytes32 r,\r\n        bytes32 s\r\n    ) public pure returns (address) {\r\n        return hash.recover(v, r, s);\r\n    }\r\n\r\n    // solhint-disable-next-line func-name-mixedcase\r\n    function recover_r_vs(\r\n        bytes32 hash,\r\n        bytes32 r,\r\n        bytes32 vs\r\n    ) public pure returns (address) {\r\n        return hash.recover(r, vs);\r\n    }\r\n\r\n    function toEthSignedMessageHash(bytes32 hash) public pure returns (bytes32) {\r\n        return hash.toEthSignedMessageHash();\r\n    }\r\n}\r\n",
  "sourcePath": "C:\\Climax\\NFT-marketplace\\contracts\\openzeppelin-solidity\\contracts\\mocks\\ECDSAMock.sol",
  "compiler": {
    "name": "solc",
    "version": "0.8.9+commit.e5eed63a.Emscripten.clang"
  },
  "schemaVersion": "3.4.3",
  "updatedAt": "2021-10-26T11:45:25.389Z",
  "devdoc": {
    "kind": "dev",
    "methods": {},
    "version": 1
  },
  "userdoc": {
    "kind": "user",
    "methods": {},
    "version": 1
  }
}