{
  "contractName": "EIP712External",
  "abi": [
    {
      "inputs": [
        {
          "internalType": "string",
          "name": "name",
          "type": "string"
        },
        {
          "internalType": "string",
          "name": "version",
          "type": "string"
        }
      ],
      "stateMutability": "nonpayable",
      "type": "constructor"
    },
    {
      "inputs": [],
      "name": "domainSeparator",
      "outputs": [
        {
          "internalType": "bytes32",
          "name": "",
          "type": "bytes32"
        }
      ],
      "stateMutability": "view",
      "type": "function"
    },
    {
      "inputs": [
        {
          "internalType": "bytes",
          "name": "signature",
          "type": "bytes"
        },
        {
          "internalType": "address",
          "name": "signer",
          "type": "address"
        },
        {
          "internalType": "address",
          "name": "mailTo",
          "type": "address"
        },
        {
          "internalType": "string",
          "name": "mailContents",
          "type": "string"
        }
      ],
      "name": "verify",
      "outputs": [],
      "stateMutability": "view",
      "type": "function"
    },
    {
      "inputs": [],
      "name": "getChainId",
      "outputs": [
        {
          "internalType": "uint256",
          "name": "",
          "type": "uint256"
        }
      ],
      "stateMutability": "view",
      "type": "function"
    }
  ],
  "bytecode": "0x6101206040523480156200001257600080fd5b506040516200123a3803806200123a833981810160405281019062000038919062000298565b818160008280519060200120905060008280519060200120905060007f8b73c3c69bb8fe3d512ecc4cf759cc79239f7b179b0ffacaa9a75d522b39400f90508260c081815250508160e081815250504660a08181525050620000a2818484620000bf60201b60201c565b6080818152505080610100818152505050505050505050620003f5565b60008383834630604051602001620000dc95949392919062000398565b6040516020818303038152906040528051906020012090509392505050565b6000604051905090565b600080fd5b600080fd5b600080fd5b600080fd5b6000601f19601f8301169050919050565b7f4e487b7100000000000000000000000000000000000000000000000000000000600052604160045260246000fd5b620001648262000119565b810181811067ffffffffffffffff821117156200018657620001856200012a565b5b80604052505050565b60006200019b620000fb565b9050620001a9828262000159565b919050565b600067ffffffffffffffff821115620001cc57620001cb6200012a565b5b620001d78262000119565b9050602081019050919050565b60005b8381101562000204578082015181840152602081019050620001e7565b8381111562000214576000848401525b50505050565b6000620002316200022b84620001ae565b6200018f565b90508281526020810184848401111562000250576200024f62000114565b5b6200025d848285620001e4565b509392505050565b600082601f8301126200027d576200027c6200010f565b5b81516200028f8482602086016200021a565b91505092915050565b60008060408385031215620002b257620002b162000105565b5b600083015167ffffffffffffffff811115620002d357620002d26200010a565b5b620002e18582860162000265565b925050602083015167ffffffffffffffff8111156200030557620003046200010a565b5b620003138582860162000265565b9150509250929050565b6000819050919050565b62000332816200031d565b82525050565b6000819050919050565b6200034d8162000338565b82525050565b600073ffffffffffffffffffffffffffffffffffffffff82169050919050565b6000620003808262000353565b9050919050565b620003928162000373565b82525050565b600060a082019050620003af600083018862000327565b620003be602083018762000327565b620003cd604083018662000327565b620003dc606083018562000342565b620003eb608083018462000387565b9695505050505050565b60805160a05160c05160e05161010051610e006200043a60003960006101f90152600061023b0152600061021a015260006101a6015260006101ce0152610e006000f3fe608060405234801561001057600080fd5b50600436106100415760003560e01c806308c6e079146100465780633408e47014610062578063f698da2514610080575b600080fd5b610060600480360381019061005b91906108de565b61009e565b005b61006a61014a565b6040516100779190610996565b60405180910390f35b610088610152565b60405161009591906109ca565b60405180910390f35b60006100fa7f847fc9da8ec3c72cae85ca691245eaeb0a4a1e74f77c3a919c43afda231d39ba8484805190602001206040516020016100df939291906109f4565b60405160208183030381529060405280519060200120610161565b90506000610108828761017b565b90508473ffffffffffffffffffffffffffffffffffffffff168173ffffffffffffffffffffffffffffffffffffffff161461014257600080fd5b505050505050565b600046905090565b600061015c6101a2565b905090565b600061017461016e6101a2565b83610265565b9050919050565b600080600061018a8585610298565b915091506101978161031b565b819250505092915050565b60007f00000000000000000000000000000000000000000000000000000000000000004614156101f4577f00000000000000000000000000000000000000000000000000000000000000009050610262565b61025f7f00000000000000000000000000000000000000000000000000000000000000007f00000000000000000000000000000000000000000000000000000000000000007f00000000000000000000000000000000000000000000000000000000000000006104f0565b90505b90565b6000828260405160200161027a929190610aa3565b60405160208183030381529060405280519060200120905092915050565b6000806041835114156102da5760008060006020860151925060408601519150606086015160001a90506102ce8782858561052a565b94509450505050610314565b60408351141561030b576000806020850151915060408501519050610300868383610637565b935093505050610314565b60006002915091505b9250929050565b6000600481111561032f5761032e610ada565b5b81600481111561034257610341610ada565b5b141561034d576104ed565b6001600481111561036157610360610ada565b5b81600481111561037457610373610ada565b5b14156103b5576040517f08c379a00000000000000000000000000000000000000000000000000000000081526004016103ac90610b66565b60405180910390fd5b600260048111156103c9576103c8610ada565b5b8160048111156103dc576103db610ada565b5b141561041d576040517f08c379a000000000000000000000000000000000000000000000000000000000815260040161041490610bd2565b60405180910390fd5b6003600481111561043157610430610ada565b5b81600481111561044457610443610ada565b5b1415610485576040517f08c379a000000000000000000000000000000000000000000000000000000000815260040161047c90610c64565b60405180910390fd5b60048081111561049857610497610ada565b5b8160048111156104ab576104aa610ada565b5b14156104ec576040517f08c379a00000000000000000000000000000000000000000000000000000000081526004016104e390610cf6565b60405180910390fd5b5b50565b6000838383463060405160200161050b959493929190610d16565b6040516020818303038152906040528051906020012090509392505050565b6000807f7fffffffffffffffffffffffffffffff5d576e7357a4501ddfe92f46681b20a08360001c111561056557600060039150915061062e565b601b8560ff161415801561057d5750601c8560ff1614155b1561058f57600060049150915061062e565b6000600187878787604051600081526020016040526040516105b49493929190610d85565b6020604051602081039080840390855afa1580156105d6573d6000803e3d6000fd5b505050602060405103519050600073ffffffffffffffffffffffffffffffffffffffff168173ffffffffffffffffffffffffffffffffffffffff1614156106255760006001925092505061062e565b80600092509250505b94509492505050565b6000806000807f7fffffffffffffffffffffffffffffffffffffffffffffffffffffffffffffff85169150601b8560ff1c0190506106778782888561052a565b935093505050935093915050565b6000604051905090565b600080fd5b600080fd5b600080fd5b600080fd5b6000601f19601f8301169050919050565b7f4e487b7100000000000000000000000000000000000000000000000000000000600052604160045260246000fd5b6106ec826106a3565b810181811067ffffffffffffffff8211171561070b5761070a6106b4565b5b80604052505050565b600061071e610685565b905061072a82826106e3565b919050565b600067ffffffffffffffff82111561074a576107496106b4565b5b610753826106a3565b9050602081019050919050565b82818337600083830152505050565b600061078261077d8461072f565b610714565b90508281526020810184848401111561079e5761079d61069e565b5b6107a9848285610760565b509392505050565b600082601f8301126107c6576107c5610699565b5b81356107d684826020860161076f565b91505092915050565b600073ffffffffffffffffffffffffffffffffffffffff82169050919050565b600061080a826107df565b9050919050565b61081a816107ff565b811461082557600080fd5b50565b60008135905061083781610811565b92915050565b600067ffffffffffffffff821115610858576108576106b4565b5b610861826106a3565b9050602081019050919050565b600061088161087c8461083d565b610714565b90508281526020810184848401111561089d5761089c61069e565b5b6108a8848285610760565b509392505050565b600082601f8301126108c5576108c4610699565b5b81356108d584826020860161086e565b91505092915050565b600080600080608085870312156108f8576108f761068f565b5b600085013567ffffffffffffffff81111561091657610915610694565b5b610922878288016107b1565b945050602061093387828801610828565b935050604061094487828801610828565b925050606085013567ffffffffffffffff81111561096557610964610694565b5b610971878288016108b0565b91505092959194509250565b6000819050919050565b6109908161097d565b82525050565b60006020820190506109ab6000830184610987565b92915050565b6000819050919050565b6109c4816109b1565b82525050565b60006020820190506109df60008301846109bb565b92915050565b6109ee816107ff565b82525050565b6000606082019050610a0960008301866109bb565b610a1660208301856109e5565b610a2360408301846109bb565b949350505050565b600081905092915050565b7f1901000000000000000000000000000000000000000000000000000000000000600082015250565b6000610a6c600283610a2b565b9150610a7782610a36565b600282019050919050565b6000819050919050565b610a9d610a98826109b1565b610a82565b82525050565b6000610aae82610a5f565b9150610aba8285610a8c565b602082019150610aca8284610a8c565b6020820191508190509392505050565b7f4e487b7100000000000000000000000000000000000000000000000000000000600052602160045260246000fd5b600082825260208201905092915050565b7f45434453413a20696e76616c6964207369676e61747572650000000000000000600082015250565b6000610b50601883610b09565b9150610b5b82610b1a565b602082019050919050565b60006020820190508181036000830152610b7f81610b43565b9050919050565b7f45434453413a20696e76616c6964207369676e6174757265206c656e67746800600082015250565b6000610bbc601f83610b09565b9150610bc782610b86565b602082019050919050565b60006020820190508181036000830152610beb81610baf565b9050919050565b7f45434453413a20696e76616c6964207369676e6174757265202773272076616c60008201527f7565000000000000000000000000000000000000000000000000000000000000602082015250565b6000610c4e602283610b09565b9150610c5982610bf2565b604082019050919050565b60006020820190508181036000830152610c7d81610c41565b9050919050565b7f45434453413a20696e76616c6964207369676e6174757265202776272076616c60008201527f7565000000000000000000000000000000000000000000000000000000000000602082015250565b6000610ce0602283610b09565b9150610ceb82610c84565b604082019050919050565b60006020820190508181036000830152610d0f81610cd3565b9050919050565b600060a082019050610d2b60008301886109bb565b610d3860208301876109bb565b610d4560408301866109bb565b610d526060830185610987565b610d5f60808301846109e5565b9695505050505050565b600060ff82169050919050565b610d7f81610d69565b82525050565b6000608082019050610d9a60008301876109bb565b610da76020830186610d76565b610db460408301856109bb565b610dc160608301846109bb565b9594505050505056fea2646970667358221220973a6fc750b1a70c907f2899901019bb50c1ee7bbde6b686ea1f94cc1b4c7c0764736f6c63430008090033",
  "immutableReferences": {
    "26329": [
      {
        "length": 32,
        "start": 462
      }
    ],
    "26331": [
      {
        "length": 32,
        "start": 422
      }
    ],
    "26333": [
      {
        "length": 32,
        "start": 538
      }
    ],
    "26335": [
      {
        "length": 32,
        "start": 571
      }
    ],
    "26337": [
      {
        "length": 32,
        "start": 505
      }
    ]
  },
  "source": "// SPDX-License-Identifier: MIT\r\n\r\npragma solidity ^0.8.0;\r\n\r\nimport \"../utils/cryptography/draft-EIP712.sol\";\r\nimport \"../utils/cryptography/ECDSA.sol\";\r\n\r\ncontract EIP712External is EIP712 {\r\n    constructor(string memory name, string memory version) EIP712(name, version) {}\r\n\r\n    function domainSeparator() external view returns (bytes32) {\r\n        return _domainSeparatorV4();\r\n    }\r\n\r\n    function verify(\r\n        bytes memory signature,\r\n        address signer,\r\n        address mailTo,\r\n        string memory mailContents\r\n    ) external view {\r\n        bytes32 digest = _hashTypedDataV4(\r\n            keccak256(abi.encode(keccak256(\"Mail(address to,string contents)\"), mailTo, keccak256(bytes(mailContents))))\r\n        );\r\n        address recoveredSigner = ECDSA.recover(digest, signature);\r\n        require(recoveredSigner == signer);\r\n    }\r\n\r\n    function getChainId() external view returns (uint256) {\r\n        return block.chainid;\r\n    }\r\n}\r\n",
  "sourcePath": "C:\\Climax\\NFT-marketplace\\contracts\\openzeppelin-solidity\\contracts\\mocks\\EIP712External.sol",
  "compiler": {
    "name": "solc",
    "version": "0.8.9+commit.e5eed63a.Emscripten.clang"
  },
  "schemaVersion": "3.4.3",
  "updatedAt": "2021-10-26T11:45:25.395Z",
  "devdoc": {
    "kind": "dev",
    "methods": {},
    "version": 1
  },
  "userdoc": {
    "kind": "user",
    "methods": {},
    "version": 1
  }
}