{
  "contractName": "ERC1155BurnableMock",
  "abi": [
    {
      "inputs": [
        {
          "internalType": "string",
          "name": "uri",
          "type": "string"
        }
      ],
      "stateMutability": "nonpayable",
      "type": "constructor"
    },
    {
      "anonymous": false,
      "inputs": [
        {
          "indexed": true,
          "internalType": "address",
          "name": "account",
          "type": "address"
        },
        {
          "indexed": true,
          "internalType": "address",
          "name": "operator",
          "type": "address"
        },
        {
          "indexed": false,
          "internalType": "bool",
          "name": "approved",
          "type": "bool"
        }
      ],
      "name": "ApprovalForAll",
      "type": "event"
    },
    {
      "anonymous": false,
      "inputs": [
        {
          "indexed": true,
          "internalType": "address",
          "name": "operator",
          "type": "address"
        },
        {
          "indexed": true,
          "internalType": "address",
          "name": "from",
          "type": "address"
        },
        {
          "indexed": true,
          "internalType": "address",
          "name": "to",
          "type": "address"
        },
        {
          "indexed": false,
          "internalType": "uint256[]",
          "name": "ids",
          "type": "uint256[]"
        },
        {
          "indexed": false,
          "internalType": "uint256[]",
          "name": "values",
          "type": "uint256[]"
        }
      ],
      "name": "TransferBatch",
      "type": "event"
    },
    {
      "anonymous": false,
      "inputs": [
        {
          "indexed": true,
          "internalType": "address",
          "name": "operator",
          "type": "address"
        },
        {
          "indexed": true,
          "internalType": "address",
          "name": "from",
          "type": "address"
        },
        {
          "indexed": true,
          "internalType": "address",
          "name": "to",
          "type": "address"
        },
        {
          "indexed": false,
          "internalType": "uint256",
          "name": "id",
          "type": "uint256"
        },
        {
          "indexed": false,
          "internalType": "uint256",
          "name": "value",
          "type": "uint256"
        }
      ],
      "name": "TransferSingle",
      "type": "event"
    },
    {
      "anonymous": false,
      "inputs": [
        {
          "indexed": false,
          "internalType": "string",
          "name": "value",
          "type": "string"
        },
        {
          "indexed": true,
          "internalType": "uint256",
          "name": "id",
          "type": "uint256"
        }
      ],
      "name": "URI",
      "type": "event"
    },
    {
      "inputs": [
        {
          "internalType": "address",
          "name": "account",
          "type": "address"
        },
        {
          "internalType": "uint256",
          "name": "id",
          "type": "uint256"
        }
      ],
      "name": "balanceOf",
      "outputs": [
        {
          "internalType": "uint256",
          "name": "",
          "type": "uint256"
        }
      ],
      "stateMutability": "view",
      "type": "function"
    },
    {
      "inputs": [
        {
          "internalType": "address[]",
          "name": "accounts",
          "type": "address[]"
        },
        {
          "internalType": "uint256[]",
          "name": "ids",
          "type": "uint256[]"
        }
      ],
      "name": "balanceOfBatch",
      "outputs": [
        {
          "internalType": "uint256[]",
          "name": "",
          "type": "uint256[]"
        }
      ],
      "stateMutability": "view",
      "type": "function"
    },
    {
      "inputs": [
        {
          "internalType": "address",
          "name": "account",
          "type": "address"
        },
        {
          "internalType": "uint256",
          "name": "id",
          "type": "uint256"
        },
        {
          "internalType": "uint256",
          "name": "value",
          "type": "uint256"
        }
      ],
      "name": "burn",
      "outputs": [],
      "stateMutability": "nonpayable",
      "type": "function"
    },
    {
      "inputs": [
        {
          "internalType": "address",
          "name": "account",
          "type": "address"
        },
        {
          "internalType": "uint256[]",
          "name": "ids",
          "type": "uint256[]"
        },
        {
          "internalType": "uint256[]",
          "name": "values",
          "type": "uint256[]"
        }
      ],
      "name": "burnBatch",
      "outputs": [],
      "stateMutability": "nonpayable",
      "type": "function"
    },
    {
      "inputs": [
        {
          "internalType": "address",
          "name": "account",
          "type": "address"
        },
        {
          "internalType": "address",
          "name": "operator",
          "type": "address"
        }
      ],
      "name": "isApprovedForAll",
      "outputs": [
        {
          "internalType": "bool",
          "name": "",
          "type": "bool"
        }
      ],
      "stateMutability": "view",
      "type": "function"
    },
    {
      "inputs": [
        {
          "internalType": "address",
          "name": "from",
          "type": "address"
        },
        {
          "internalType": "address",
          "name": "to",
          "type": "address"
        },
        {
          "internalType": "uint256[]",
          "name": "ids",
          "type": "uint256[]"
        },
        {
          "internalType": "uint256[]",
          "name": "amounts",
          "type": "uint256[]"
        },
        {
          "internalType": "bytes",
          "name": "data",
          "type": "bytes"
        }
      ],
      "name": "safeBatchTransferFrom",
      "outputs": [],
      "stateMutability": "nonpayable",
      "type": "function"
    },
    {
      "inputs": [
        {
          "internalType": "address",
          "name": "from",
          "type": "address"
        },
        {
          "internalType": "address",
          "name": "to",
          "type": "address"
        },
        {
          "internalType": "uint256",
          "name": "id",
          "type": "uint256"
        },
        {
          "internalType": "uint256",
          "name": "amount",
          "type": "uint256"
        },
        {
          "internalType": "bytes",
          "name": "data",
          "type": "bytes"
        }
      ],
      "name": "safeTransferFrom",
      "outputs": [],
      "stateMutability": "nonpayable",
      "type": "function"
    },
    {
      "inputs": [
        {
          "internalType": "address",
          "name": "operator",
          "type": "address"
        },
        {
          "internalType": "bool",
          "name": "approved",
          "type": "bool"
        }
      ],
      "name": "setApprovalForAll",
      "outputs": [],
      "stateMutability": "nonpayable",
      "type": "function"
    },
    {
      "inputs": [
        {
          "internalType": "bytes4",
          "name": "interfaceId",
          "type": "bytes4"
        }
      ],
      "name": "supportsInterface",
      "outputs": [
        {
          "internalType": "bool",
          "name": "",
          "type": "bool"
        }
      ],
      "stateMutability": "view",
      "type": "function"
    },
    {
      "inputs": [
        {
          "internalType": "uint256",
          "name": "",
          "type": "uint256"
        }
      ],
      "name": "uri",
      "outputs": [
        {
          "internalType": "string",
          "name": "",
          "type": "string"
        }
      ],
      "stateMutability": "view",
      "type": "function"
    },
    {
      "inputs": [
        {
          "internalType": "address",
          "name": "to",
          "type": "address"
        },
        {
          "internalType": "uint256",
          "name": "id",
          "type": "uint256"
        },
        {
          "internalType": "uint256",
          "name": "value",
          "type": "uint256"
        },
        {
          "internalType": "bytes",
          "name": "data",
          "type": "bytes"
        }
      ],
      "name": "mint",
      "outputs": [],
      "stateMutability": "nonpayable",
      "type": "function"
    }
  ],
  "bytecode": "0x60806040523480156200001157600080fd5b506040516200345a3803806200345a8339818101604052810190620000379190620002ba565b8062000049816200005160201b60201c565b505062000370565b8060029080519060200190620000699291906200006d565b5050565b8280546200007b906200033a565b90600052602060002090601f0160209004810192826200009f5760008555620000eb565b82601f10620000ba57805160ff1916838001178555620000eb565b82800160010185558215620000eb579182015b82811115620000ea578251825591602001919060010190620000cd565b5b509050620000fa9190620000fe565b5090565b5b8082111562000119576000816000905550600101620000ff565b5090565b6000604051905090565b600080fd5b600080fd5b600080fd5b600080fd5b6000601f19601f8301169050919050565b7f4e487b7100000000000000000000000000000000000000000000000000000000600052604160045260246000fd5b62000186826200013b565b810181811067ffffffffffffffff82111715620001a857620001a76200014c565b5b80604052505050565b6000620001bd6200011d565b9050620001cb82826200017b565b919050565b600067ffffffffffffffff821115620001ee57620001ed6200014c565b5b620001f9826200013b565b9050602081019050919050565b60005b838110156200022657808201518184015260208101905062000209565b8381111562000236576000848401525b50505050565b6000620002536200024d84620001d0565b620001b1565b90508281526020810184848401111562000272576200027162000136565b5b6200027f84828562000206565b509392505050565b600082601f8301126200029f576200029e62000131565b5b8151620002b18482602086016200023c565b91505092915050565b600060208284031215620002d357620002d262000127565b5b600082015167ffffffffffffffff811115620002f457620002f36200012c565b5b620003028482850162000287565b91505092915050565b7f4e487b7100000000000000000000000000000000000000000000000000000000600052602260045260246000fd5b600060028204905060018216806200035357607f821691505b602082108114156200036a57620003696200030b565b5b50919050565b6130da80620003806000396000f3fe608060405234801561001057600080fd5b50600436106100a85760003560e01c80636b20c454116100715780636b20c45414610189578063731133e9146101a5578063a22cb465146101c1578063e985e9c5146101dd578063f242432a1461020d578063f5298aca14610229576100a8565b8062fdd58e146100ad57806301ffc9a7146100dd5780630e89341c1461010d5780632eb2c2d61461013d5780634e1273f414610159575b600080fd5b6100c760048036038101906100c29190611bb7565b610245565b6040516100d49190611c06565b60405180910390f35b6100f760048036038101906100f29190611c79565b61030e565b6040516101049190611cc1565b60405180910390f35b61012760048036038101906101229190611cdc565b6103f0565b6040516101349190611da2565b60405180910390f35b61015760048036038101906101529190611fc1565b610484565b005b610173600480360381019061016e9190612153565b610525565b6040516101809190612289565b60405180910390f35b6101a3600480360381019061019e91906122ab565b61063e565b005b6101bf60048036038101906101ba9190612336565b6106db565b005b6101db60048036038101906101d691906123e5565b6106ed565b005b6101f760048036038101906101f29190612425565b61086e565b6040516102049190611cc1565b60405180910390f35b61022760048036038101906102229190612465565b610902565b005b610243600480360381019061023e91906124fc565b6109a3565b005b60008073ffffffffffffffffffffffffffffffffffffffff168373ffffffffffffffffffffffffffffffffffffffff1614156102b6576040517f08c379a00000000000000000000000000000000000000000000000000000000081526004016102ad906125c1565b60405180910390fd5b60008083815260200190815260200160002060008473ffffffffffffffffffffffffffffffffffffffff1673ffffffffffffffffffffffffffffffffffffffff16815260200190815260200160002054905092915050565b60007fd9b67a26000000000000000000000000000000000000000000000000000000007bffffffffffffffffffffffffffffffffffffffffffffffffffffffff1916827bffffffffffffffffffffffffffffffffffffffffffffffffffffffff191614806103d957507f0e89341c000000000000000000000000000000000000000000000000000000007bffffffffffffffffffffffffffffffffffffffffffffffffffffffff1916827bffffffffffffffffffffffffffffffffffffffffffffffffffffffff1916145b806103e957506103e882610a40565b5b9050919050565b6060600280546103ff90612610565b80601f016020809104026020016040519081016040528092919081815260200182805461042b90612610565b80156104785780601f1061044d57610100808354040283529160200191610478565b820191906000526020600020905b81548152906001019060200180831161045b57829003601f168201915b50505050509050919050565b61048c610aaa565b73ffffffffffffffffffffffffffffffffffffffff168573ffffffffffffffffffffffffffffffffffffffff1614806104d257506104d1856104cc610aaa565b61086e565b5b610511576040517f08c379a0000000000000000000000000000000000000000000000000000000008152600401610508906126b4565b60405180910390fd5b61051e8585858585610ab2565b5050505050565b6060815183511461056b576040517f08c379a000000000000000000000000000000000000000000000000000000000815260040161056290612746565b60405180910390fd5b6000835167ffffffffffffffff81111561058857610587611dc9565b5b6040519080825280602002602001820160405280156105b65781602001602082028036833780820191505090505b50905060005b8451811015610633576106038582815181106105db576105da612766565b5b60200260200101518583815181106105f6576105f5612766565b5b6020026020010151610245565b82828151811061061657610615612766565b5b6020026020010181815250508061062c906127c4565b90506105bc565b508091505092915050565b610646610aaa565b73ffffffffffffffffffffffffffffffffffffffff168373ffffffffffffffffffffffffffffffffffffffff16148061068c575061068b83610686610aaa565b61086e565b5b6106cb576040517f08c379a00000000000000000000000000000000000000000000000000000000081526004016106c29061287f565b60405180910390fd5b6106d6838383610dc6565b505050565b6106e784848484611077565b50505050565b8173ffffffffffffffffffffffffffffffffffffffff1661070c610aaa565b73ffffffffffffffffffffffffffffffffffffffff161415610763576040517f08c379a000000000000000000000000000000000000000000000000000000000815260040161075a90612911565b60405180910390fd5b8060016000610770610aaa565b73ffffffffffffffffffffffffffffffffffffffff1673ffffffffffffffffffffffffffffffffffffffff16815260200190815260200160002060008473ffffffffffffffffffffffffffffffffffffffff1673ffffffffffffffffffffffffffffffffffffffff16815260200190815260200160002060006101000a81548160ff0219169083151502179055508173ffffffffffffffffffffffffffffffffffffffff1661081d610aaa565b73ffffffffffffffffffffffffffffffffffffffff167f17307eab39ab6107e8899845ad3d59bd9653f200f220920489ca2b5937696c31836040516108629190611cc1565b60405180910390a35050565b6000600160008473ffffffffffffffffffffffffffffffffffffffff1673ffffffffffffffffffffffffffffffffffffffff16815260200190815260200160002060008373ffffffffffffffffffffffffffffffffffffffff1673ffffffffffffffffffffffffffffffffffffffff16815260200190815260200160002060009054906101000a900460ff16905092915050565b61090a610aaa565b73ffffffffffffffffffffffffffffffffffffffff168573ffffffffffffffffffffffffffffffffffffffff161480610950575061094f8561094a610aaa565b61086e565b5b61098f576040517f08c379a00000000000000000000000000000000000000000000000000000000081526004016109869061287f565b60405180910390fd5b61099c858585858561120d565b5050505050565b6109ab610aaa565b73ffffffffffffffffffffffffffffffffffffffff168373ffffffffffffffffffffffffffffffffffffffff1614806109f157506109f0836109eb610aaa565b61086e565b5b610a30576040517f08c379a0000000000000000000000000000000000000000000000000000000008152600401610a279061287f565b60405180910390fd5b610a3b83838361148f565b505050565b60007f01ffc9a7000000000000000000000000000000000000000000000000000000007bffffffffffffffffffffffffffffffffffffffffffffffffffffffff1916827bffffffffffffffffffffffffffffffffffffffffffffffffffffffff1916149050919050565b600033905090565b8151835114610af6576040517f08c379a0000000000000000000000000000000000000000000000000000000008152600401610aed906129a3565b60405180910390fd5b600073ffffffffffffffffffffffffffffffffffffffff168473ffffffffffffffffffffffffffffffffffffffff161415610b66576040517f08c379a0000000000000000000000000000000000000000000000000000000008152600401610b5d90612a35565b60405180910390fd5b6000610b70610aaa565b9050610b808187878787876116ac565b60005b8451811015610d31576000858281518110610ba157610ba0612766565b5b602002602001015190506000858381518110610bc057610bbf612766565b5b60200260200101519050600080600084815260200190815260200160002060008b73ffffffffffffffffffffffffffffffffffffffff1673ffffffffffffffffffffffffffffffffffffffff16815260200190815260200160002054905081811015610c61576040517f08c379a0000000000000000000000000000000000000000000000000000000008152600401610c5890612ac7565b60405180910390fd5b81810360008085815260200190815260200160002060008c73ffffffffffffffffffffffffffffffffffffffff1673ffffffffffffffffffffffffffffffffffffffff168152602001908152602001600020819055508160008085815260200190815260200160002060008b73ffffffffffffffffffffffffffffffffffffffff1673ffffffffffffffffffffffffffffffffffffffff1681526020019081526020016000206000828254610d169190612ae7565b9250508190555050505080610d2a906127c4565b9050610b83565b508473ffffffffffffffffffffffffffffffffffffffff168673ffffffffffffffffffffffffffffffffffffffff168273ffffffffffffffffffffffffffffffffffffffff167f4a39dc06d4c0dbc64b70af90fd698a233a518aa5d07e595d983b8c0526c8f7fb8787604051610da8929190612b3d565b60405180910390a4610dbe8187878787876116b4565b505050505050565b600073ffffffffffffffffffffffffffffffffffffffff168373ffffffffffffffffffffffffffffffffffffffff161415610e36576040517f08c379a0000000000000000000000000000000000000000000000000000000008152600401610e2d90612be6565b60405180910390fd5b8051825114610e7a576040517f08c379a0000000000000000000000000000000000000000000000000000000008152600401610e71906129a3565b60405180910390fd5b6000610e84610aaa565b9050610ea4818560008686604051806020016040528060008152506116ac565b60005b8351811015610ff1576000848281518110610ec557610ec4612766565b5b602002602001015190506000848381518110610ee457610ee3612766565b5b60200260200101519050600080600084815260200190815260200160002060008973ffffffffffffffffffffffffffffffffffffffff1673ffffffffffffffffffffffffffffffffffffffff16815260200190815260200160002054905081811015610f85576040517f08c379a0000000000000000000000000000000000000000000000000000000008152600401610f7c90612c78565b60405180910390fd5b81810360008085815260200190815260200160002060008a73ffffffffffffffffffffffffffffffffffffffff1673ffffffffffffffffffffffffffffffffffffffff168152602001908152602001600020819055505050508080610fe9906127c4565b915050610ea7565b50600073ffffffffffffffffffffffffffffffffffffffff168473ffffffffffffffffffffffffffffffffffffffff168273ffffffffffffffffffffffffffffffffffffffff167f4a39dc06d4c0dbc64b70af90fd698a233a518aa5d07e595d983b8c0526c8f7fb8686604051611069929190612b3d565b60405180910390a450505050565b600073ffffffffffffffffffffffffffffffffffffffff168473ffffffffffffffffffffffffffffffffffffffff1614156110e7576040517f08c379a00000000000000000000000000000000000000000000000000000000081526004016110de90612d0a565b60405180910390fd5b60006110f1610aaa565b9050611112816000876111038861189b565b61110c8861189b565b876116ac565b8260008086815260200190815260200160002060008773ffffffffffffffffffffffffffffffffffffffff1673ffffffffffffffffffffffffffffffffffffffff16815260200190815260200160002060008282546111719190612ae7565b925050819055508473ffffffffffffffffffffffffffffffffffffffff16600073ffffffffffffffffffffffffffffffffffffffff168273ffffffffffffffffffffffffffffffffffffffff167fc3d58168c5ae7397731d063d5bbf3d657854427343f4c083240f7aacaa2d0f6287876040516111ef929190612d2a565b60405180910390a461120681600087878787611915565b5050505050565b600073ffffffffffffffffffffffffffffffffffffffff168473ffffffffffffffffffffffffffffffffffffffff16141561127d576040517f08c379a000000000000000000000000000000000000000000000000000000000815260040161127490612a35565b60405180910390fd5b6000611287610aaa565b90506112a78187876112988861189b565b6112a18861189b565b876116ac565b600080600086815260200190815260200160002060008873ffffffffffffffffffffffffffffffffffffffff1673ffffffffffffffffffffffffffffffffffffffff1681526020019081526020016000205490508381101561133e576040517f08c379a000000000000000000000000000000000000000000000000000000000815260040161133590612ac7565b60405180910390fd5b83810360008087815260200190815260200160002060008973ffffffffffffffffffffffffffffffffffffffff1673ffffffffffffffffffffffffffffffffffffffff168152602001908152602001600020819055508360008087815260200190815260200160002060008873ffffffffffffffffffffffffffffffffffffffff1673ffffffffffffffffffffffffffffffffffffffff16815260200190815260200160002060008282546113f39190612ae7565b925050819055508573ffffffffffffffffffffffffffffffffffffffff168773ffffffffffffffffffffffffffffffffffffffff168373ffffffffffffffffffffffffffffffffffffffff167fc3d58168c5ae7397731d063d5bbf3d657854427343f4c083240f7aacaa2d0f628888604051611470929190612d2a565b60405180910390a4611486828888888888611915565b50505050505050565b600073ffffffffffffffffffffffffffffffffffffffff168373ffffffffffffffffffffffffffffffffffffffff1614156114ff576040517f08c379a00000000000000000000000000000000000000000000000000000000081526004016114f690612be6565b60405180910390fd5b6000611509610aaa565b90506115398185600061151b8761189b565b6115248761189b565b604051806020016040528060008152506116ac565b600080600085815260200190815260200160002060008673ffffffffffffffffffffffffffffffffffffffff1673ffffffffffffffffffffffffffffffffffffffff168152602001908152602001600020549050828110156115d0576040517f08c379a00000000000000000000000000000000000000000000000000000000081526004016115c790612c78565b60405180910390fd5b82810360008086815260200190815260200160002060008773ffffffffffffffffffffffffffffffffffffffff1673ffffffffffffffffffffffffffffffffffffffff16815260200190815260200160002081905550600073ffffffffffffffffffffffffffffffffffffffff168573ffffffffffffffffffffffffffffffffffffffff168373ffffffffffffffffffffffffffffffffffffffff167fc3d58168c5ae7397731d063d5bbf3d657854427343f4c083240f7aacaa2d0f62878760405161169d929190612d2a565b60405180910390a45050505050565b505050505050565b6116d38473ffffffffffffffffffffffffffffffffffffffff16611afc565b15611893578373ffffffffffffffffffffffffffffffffffffffff1663bc197c8187878686866040518663ffffffff1660e01b8152600401611719959493929190612db7565b602060405180830381600087803b15801561173357600080fd5b505af192505050801561176457506040513d601f19601f820116820180604052508101906117619190612e34565b60015b61180a57611770612e6e565b806308c379a014156117cd5750611785612e90565b8061179057506117cf565b806040517f08c379a00000000000000000000000000000000000000000000000000000000081526004016117c49190611da2565b60405180910390fd5b505b6040517f08c379a000000000000000000000000000000000000000000000000000000000815260040161180190612f98565b60405180910390fd5b63bc197c8160e01b7bffffffffffffffffffffffffffffffffffffffffffffffffffffffff1916817bffffffffffffffffffffffffffffffffffffffffffffffffffffffff191614611891576040517f08c379a00000000000000000000000000000000000000000000000000000000081526004016118889061302a565b60405180910390fd5b505b505050505050565b60606000600167ffffffffffffffff8111156118ba576118b9611dc9565b5b6040519080825280602002602001820160405280156118e85781602001602082028036833780820191505090505b5090508281600081518110611900576118ff612766565b5b60200260200101818152505080915050919050565b6119348473ffffffffffffffffffffffffffffffffffffffff16611afc565b15611af4578373ffffffffffffffffffffffffffffffffffffffff1663f23a6e6187878686866040518663ffffffff1660e01b815260040161197a95949392919061304a565b602060405180830381600087803b15801561199457600080fd5b505af19250505080156119c557506040513d601f19601f820116820180604052508101906119c29190612e34565b60015b611a6b576119d1612e6e565b806308c379a01415611a2e57506119e6612e90565b806119f15750611a30565b806040517f08c379a0000000000000000000000000000000000000000000000000000000008152600401611a259190611da2565b60405180910390fd5b505b6040517f08c379a0000000000000000000000000000000000000000000000000000000008152600401611a6290612f98565b60405180910390fd5b63f23a6e6160e01b7bffffffffffffffffffffffffffffffffffffffffffffffffffffffff1916817bffffffffffffffffffffffffffffffffffffffffffffffffffffffff191614611af2576040517f08c379a0000000000000000000000000000000000000000000000000000000008152600401611ae99061302a565b60405180910390fd5b505b505050505050565b600080823b905060008111915050919050565b6000604051905090565b600080fd5b600080fd5b600073ffffffffffffffffffffffffffffffffffffffff82169050919050565b6000611b4e82611b23565b9050919050565b611b5e81611b43565b8114611b6957600080fd5b50565b600081359050611b7b81611b55565b92915050565b6000819050919050565b611b9481611b81565b8114611b9f57600080fd5b50565b600081359050611bb181611b8b565b92915050565b60008060408385031215611bce57611bcd611b19565b5b6000611bdc85828601611b6c565b9250506020611bed85828601611ba2565b9150509250929050565b611c0081611b81565b82525050565b6000602082019050611c1b6000830184611bf7565b92915050565b60007fffffffff0000000000000000000000000000000000000000000000000000000082169050919050565b611c5681611c21565b8114611c6157600080fd5b50565b600081359050611c7381611c4d565b92915050565b600060208284031215611c8f57611c8e611b19565b5b6000611c9d84828501611c64565b91505092915050565b60008115159050919050565b611cbb81611ca6565b82525050565b6000602082019050611cd66000830184611cb2565b92915050565b600060208284031215611cf257611cf1611b19565b5b6000611d0084828501611ba2565b91505092915050565b600081519050919050565b600082825260208201905092915050565b60005b83811015611d43578082015181840152602081019050611d28565b83811115611d52576000848401525b50505050565b6000601f19601f8301169050919050565b6000611d7482611d09565b611d7e8185611d14565b9350611d8e818560208601611d25565b611d9781611d58565b840191505092915050565b60006020820190508181036000830152611dbc8184611d69565b905092915050565b600080fd5b7f4e487b7100000000000000000000000000000000000000000000000000000000600052604160045260246000fd5b611e0182611d58565b810181811067ffffffffffffffff82111715611e2057611e1f611dc9565b5b80604052505050565b6000611e33611b0f565b9050611e3f8282611df8565b919050565b600067ffffffffffffffff821115611e5f57611e5e611dc9565b5b602082029050602081019050919050565b600080fd5b6000611e88611e8384611e44565b611e29565b90508083825260208201905060208402830185811115611eab57611eaa611e70565b5b835b81811015611ed45780611ec08882611ba2565b845260208401935050602081019050611ead565b5050509392505050565b600082601f830112611ef357611ef2611dc4565b5b8135611f03848260208601611e75565b91505092915050565b600080fd5b600067ffffffffffffffff821115611f2c57611f2b611dc9565b5b611f3582611d58565b9050602081019050919050565b82818337600083830152505050565b6000611f64611f5f84611f11565b611e29565b905082815260208101848484011115611f8057611f7f611f0c565b5b611f8b848285611f42565b509392505050565b600082601f830112611fa857611fa7611dc4565b5b8135611fb8848260208601611f51565b91505092915050565b600080600080600060a08688031215611fdd57611fdc611b19565b5b6000611feb88828901611b6c565b9550506020611ffc88828901611b6c565b945050604086013567ffffffffffffffff81111561201d5761201c611b1e565b5b61202988828901611ede565b935050606086013567ffffffffffffffff81111561204a57612049611b1e565b5b61205688828901611ede565b925050608086013567ffffffffffffffff81111561207757612076611b1e565b5b61208388828901611f93565b9150509295509295909350565b600067ffffffffffffffff8211156120ab576120aa611dc9565b5b602082029050602081019050919050565b60006120cf6120ca84612090565b611e29565b905080838252602082019050602084028301858111156120f2576120f1611e70565b5b835b8181101561211b57806121078882611b6c565b8452602084019350506020810190506120f4565b5050509392505050565b600082601f83011261213a57612139611dc4565b5b813561214a8482602086016120bc565b91505092915050565b6000806040838503121561216a57612169611b19565b5b600083013567ffffffffffffffff81111561218857612187611b1e565b5b61219485828601612125565b925050602083013567ffffffffffffffff8111156121b5576121b4611b1e565b5b6121c185828601611ede565b9150509250929050565b600081519050919050565b600082825260208201905092915050565b6000819050602082019050919050565b61220081611b81565b82525050565b600061221283836121f7565b60208301905092915050565b6000602082019050919050565b6000612236826121cb565b61224081856121d6565b935061224b836121e7565b8060005b8381101561227c5781516122638882612206565b975061226e8361221e565b92505060018101905061224f565b5085935050505092915050565b600060208201905081810360008301526122a3818461222b565b905092915050565b6000806000606084860312156122c4576122c3611b19565b5b60006122d286828701611b6c565b935050602084013567ffffffffffffffff8111156122f3576122f2611b1e565b5b6122ff86828701611ede565b925050604084013567ffffffffffffffff8111156123205761231f611b1e565b5b61232c86828701611ede565b9150509250925092565b600080600080608085870312156123505761234f611b19565b5b600061235e87828801611b6c565b945050602061236f87828801611ba2565b935050604061238087828801611ba2565b925050606085013567ffffffffffffffff8111156123a1576123a0611b1e565b5b6123ad87828801611f93565b91505092959194509250565b6123c281611ca6565b81146123cd57600080fd5b50565b6000813590506123df816123b9565b92915050565b600080604083850312156123fc576123fb611b19565b5b600061240a85828601611b6c565b925050602061241b858286016123d0565b9150509250929050565b6000806040838503121561243c5761243b611b19565b5b600061244a85828601611b6c565b925050602061245b85828601611b6c565b9150509250929050565b600080600080600060a0868803121561248157612480611b19565b5b600061248f88828901611b6c565b95505060206124a088828901611b6c565b94505060406124b188828901611ba2565b93505060606124c288828901611ba2565b925050608086013567ffffffffffffffff8111156124e3576124e2611b1e565b5b6124ef88828901611f93565b9150509295509295909350565b60008060006060848603121561251557612514611b19565b5b600061252386828701611b6c565b935050602061253486828701611ba2565b925050604061254586828701611ba2565b9150509250925092565b7f455243313135353a2062616c616e636520717565727920666f7220746865207a60008201527f65726f2061646472657373000000000000000000000000000000000000000000602082015250565b60006125ab602b83611d14565b91506125b68261254f565b604082019050919050565b600060208201905081810360008301526125da8161259e565b9050919050565b7f4e487b7100000000000000000000000000000000000000000000000000000000600052602260045260246000fd5b6000600282049050600182168061262857607f821691505b6020821081141561263c5761263b6125e1565b5b50919050565b7f455243313135353a207472616e736665722063616c6c6572206973206e6f742060008201527f6f776e6572206e6f7220617070726f7665640000000000000000000000000000602082015250565b600061269e603283611d14565b91506126a982612642565b604082019050919050565b600060208201905081810360008301526126cd81612691565b9050919050565b7f455243313135353a206163636f756e747320616e6420696473206c656e67746860008201527f206d69736d617463680000000000000000000000000000000000000000000000602082015250565b6000612730602983611d14565b915061273b826126d4565b604082019050919050565b6000602082019050818103600083015261275f81612723565b9050919050565b7f4e487b7100000000000000000000000000000000000000000000000000000000600052603260045260246000fd5b7f4e487b7100000000000000000000000000000000000000000000000000000000600052601160045260246000fd5b60006127cf82611b81565b91507fffffffffffffffffffffffffffffffffffffffffffffffffffffffffffffffff82141561280257612801612795565b5b600182019050919050565b7f455243313135353a2063616c6c6572206973206e6f74206f776e6572206e6f7260008201527f20617070726f7665640000000000000000000000000000000000000000000000602082015250565b6000612869602983611d14565b91506128748261280d565b604082019050919050565b600060208201905081810360008301526128988161285c565b9050919050565b7f455243313135353a2073657474696e6720617070726f76616c2073746174757360008201527f20666f722073656c660000000000000000000000000000000000000000000000602082015250565b60006128fb602983611d14565b91506129068261289f565b604082019050919050565b6000602082019050818103600083015261292a816128ee565b9050919050565b7f455243313135353a2069647320616e6420616d6f756e7473206c656e6774682060008201527f6d69736d61746368000000000000000000000000000000000000000000000000602082015250565b600061298d602883611d14565b915061299882612931565b604082019050919050565b600060208201905081810360008301526129bc81612980565b9050919050565b7f455243313135353a207472616e7366657220746f20746865207a65726f20616460008201527f6472657373000000000000000000000000000000000000000000000000000000602082015250565b6000612a1f602583611d14565b9150612a2a826129c3565b604082019050919050565b60006020820190508181036000830152612a4e81612a12565b9050919050565b7f455243313135353a20696e73756666696369656e742062616c616e636520666f60008201527f72207472616e7366657200000000000000000000000000000000000000000000602082015250565b6000612ab1602a83611d14565b9150612abc82612a55565b604082019050919050565b60006020820190508181036000830152612ae081612aa4565b9050919050565b6000612af282611b81565b9150612afd83611b81565b9250827fffffffffffffffffffffffffffffffffffffffffffffffffffffffffffffffff03821115612b3257612b31612795565b5b828201905092915050565b60006040820190508181036000830152612b57818561222b565b90508181036020830152612b6b818461222b565b90509392505050565b7f455243313135353a206275726e2066726f6d20746865207a65726f206164647260008201527f6573730000000000000000000000000000000000000000000000000000000000602082015250565b6000612bd0602383611d14565b9150612bdb82612b74565b604082019050919050565b60006020820190508181036000830152612bff81612bc3565b9050919050565b7f455243313135353a206275726e20616d6f756e7420657863656564732062616c60008201527f616e636500000000000000000000000000000000000000000000000000000000602082015250565b6000612c62602483611d14565b9150612c6d82612c06565b604082019050919050565b60006020820190508181036000830152612c9181612c55565b9050919050565b7f455243313135353a206d696e7420746f20746865207a65726f2061646472657360008201527f7300000000000000000000000000000000000000000000000000000000000000602082015250565b6000612cf4602183611d14565b9150612cff82612c98565b604082019050919050565b60006020820190508181036000830152612d2381612ce7565b9050919050565b6000604082019050612d3f6000830185611bf7565b612d4c6020830184611bf7565b9392505050565b612d5c81611b43565b82525050565b600081519050919050565b600082825260208201905092915050565b6000612d8982612d62565b612d938185612d6d565b9350612da3818560208601611d25565b612dac81611d58565b840191505092915050565b600060a082019050612dcc6000830188612d53565b612dd96020830187612d53565b8181036040830152612deb818661222b565b90508181036060830152612dff818561222b565b90508181036080830152612e138184612d7e565b90509695505050505050565b600081519050612e2e81611c4d565b92915050565b600060208284031215612e4a57612e49611b19565b5b6000612e5884828501612e1f565b91505092915050565b60008160e01c9050919050565b600060033d1115612e8d5760046000803e612e8a600051612e61565b90505b90565b600060443d1015612ea057612f23565b612ea8611b0f565b60043d036004823e80513d602482011167ffffffffffffffff82111715612ed0575050612f23565b808201805167ffffffffffffffff811115612eee5750505050612f23565b80602083010160043d038501811115612f0b575050505050612f23565b612f1a82602001850186611df8565b82955050505050505b90565b7f455243313135353a207472616e7366657220746f206e6f6e204552433131353560008201527f526563656976657220696d706c656d656e746572000000000000000000000000602082015250565b6000612f82603483611d14565b9150612f8d82612f26565b604082019050919050565b60006020820190508181036000830152612fb181612f75565b9050919050565b7f455243313135353a204552433131353552656365697665722072656a6563746560008201527f6420746f6b656e73000000000000000000000000000000000000000000000000602082015250565b6000613014602883611d14565b915061301f82612fb8565b604082019050919050565b6000602082019050818103600083015261304381613007565b9050919050565b600060a08201905061305f6000830188612d53565b61306c6020830187612d53565b6130796040830186611bf7565b6130866060830185611bf7565b81810360808301526130988184612d7e565b9050969550505050505056fea26469706673582212202bf058c94d41a3cd3faab88f72bd2dbe30ed14ed5227827fe0e9933fbde7f76f64736f6c63430008090033",
  "immutableReferences": {},
  "source": "// SPDX-License-Identifier: MIT\r\n\r\npragma solidity ^0.8.0;\r\n\r\nimport \"../token/ERC1155/extensions/ERC1155Burnable.sol\";\r\n\r\ncontract ERC1155BurnableMock is ERC1155Burnable {\r\n    constructor(string memory uri) ERC1155(uri) {}\r\n\r\n    function mint(\r\n        address to,\r\n        uint256 id,\r\n        uint256 value,\r\n        bytes memory data\r\n    ) public {\r\n        _mint(to, id, value, data);\r\n    }\r\n}\r\n",
  "sourcePath": "C:\\Climax\\NFT-marketplace\\contracts\\openzeppelin-solidity\\contracts\\mocks\\ERC1155BurnableMock.sol",
  "compiler": {
    "name": "solc",
    "version": "0.8.9+commit.e5eed63a.Emscripten.clang"
  },
  "schemaVersion": "3.4.3",
  "updatedAt": "2021-10-26T11:45:25.402Z",
  "devdoc": {
    "kind": "dev",
    "methods": {
      "balanceOf(address,uint256)": {
        "details": "See {IERC1155-balanceOf}. Requirements: - `account` cannot be the zero address."
      },
      "balanceOfBatch(address[],uint256[])": {
        "details": "See {IERC1155-balanceOfBatch}. Requirements: - `accounts` and `ids` must have the same length."
      },
      "isApprovedForAll(address,address)": {
        "details": "See {IERC1155-isApprovedForAll}."
      },
      "safeBatchTransferFrom(address,address,uint256[],uint256[],bytes)": {
        "details": "See {IERC1155-safeBatchTransferFrom}."
      },
      "safeTransferFrom(address,address,uint256,uint256,bytes)": {
        "details": "See {IERC1155-safeTransferFrom}."
      },
      "setApprovalForAll(address,bool)": {
        "details": "See {IERC1155-setApprovalForAll}."
      },
      "supportsInterface(bytes4)": {
        "details": "See {IERC165-supportsInterface}."
      },
      "uri(uint256)": {
        "details": "See {IERC1155MetadataURI-uri}. This implementation returns the same URI for *all* token types. It relies on the token type ID substitution mechanism https://eips.ethereum.org/EIPS/eip-1155#metadata[defined in the EIP]. Clients calling this function must replace the `\\{id\\}` substring with the actual token type ID."
      }
    },
    "version": 1
  },
  "userdoc": {
    "kind": "user",
    "methods": {},
    "version": 1
  }
}