{
  "contractName": "ERC1271WalletMock",
  "abi": [
    {
      "inputs": [
        {
          "internalType": "address",
          "name": "originalOwner",
          "type": "address"
        }
      ],
      "stateMutability": "nonpayable",
      "type": "constructor"
    },
    {
      "anonymous": false,
      "inputs": [
        {
          "indexed": true,
          "internalType": "address",
          "name": "previousOwner",
          "type": "address"
        },
        {
          "indexed": true,
          "internalType": "address",
          "name": "newOwner",
          "type": "address"
        }
      ],
      "name": "OwnershipTransferred",
      "type": "event"
    },
    {
      "inputs": [],
      "name": "owner",
      "outputs": [
        {
          "internalType": "address",
          "name": "",
          "type": "address"
        }
      ],
      "stateMutability": "view",
      "type": "function"
    },
    {
      "inputs": [],
      "name": "renounceOwnership",
      "outputs": [],
      "stateMutability": "nonpayable",
      "type": "function"
    },
    {
      "inputs": [
        {
          "internalType": "address",
          "name": "newOwner",
          "type": "address"
        }
      ],
      "name": "transferOwnership",
      "outputs": [],
      "stateMutability": "nonpayable",
      "type": "function"
    },
    {
      "inputs": [
        {
          "internalType": "bytes32",
          "name": "hash",
          "type": "bytes32"
        },
        {
          "internalType": "bytes",
          "name": "signature",
          "type": "bytes"
        }
      ],
      "name": "isValidSignature",
      "outputs": [
        {
          "internalType": "bytes4",
          "name": "magicValue",
          "type": "bytes4"
        }
      ],
      "stateMutability": "view",
      "type": "function"
    }
  ],
  "bytecode": "0x60806040523480156200001157600080fd5b506040516200128c3803806200128c8339818101604052810190620000379190620002e4565b620000576200004b6200006f60201b60201c565b6200007760201b60201c565b62000068816200013b60201b60201c565b5062000431565b600033905090565b60008060009054906101000a900473ffffffffffffffffffffffffffffffffffffffff169050816000806101000a81548173ffffffffffffffffffffffffffffffffffffffff021916908373ffffffffffffffffffffffffffffffffffffffff1602179055508173ffffffffffffffffffffffffffffffffffffffff168173ffffffffffffffffffffffffffffffffffffffff167f8be0079c531659141344cd1fd0a4f28419497f9722a3daafe3b4186f6b6457e060405160405180910390a35050565b6200014b6200006f60201b60201c565b73ffffffffffffffffffffffffffffffffffffffff16620001716200025160201b60201c565b73ffffffffffffffffffffffffffffffffffffffff1614620001ca576040517f08c379a0000000000000000000000000000000000000000000000000000000008152600401620001c19062000377565b60405180910390fd5b600073ffffffffffffffffffffffffffffffffffffffff168173ffffffffffffffffffffffffffffffffffffffff1614156200023d576040517f08c379a000000000000000000000000000000000000000000000000000000000815260040162000234906200040f565b60405180910390fd5b6200024e816200007760201b60201c565b50565b60008060009054906101000a900473ffffffffffffffffffffffffffffffffffffffff16905090565b600080fd5b600073ffffffffffffffffffffffffffffffffffffffff82169050919050565b6000620002ac826200027f565b9050919050565b620002be816200029f565b8114620002ca57600080fd5b50565b600081519050620002de81620002b3565b92915050565b600060208284031215620002fd57620002fc6200027a565b5b60006200030d84828501620002cd565b91505092915050565b600082825260208201905092915050565b7f4f776e61626c653a2063616c6c6572206973206e6f7420746865206f776e6572600082015250565b60006200035f60208362000316565b91506200036c8262000327565b602082019050919050565b60006020820190508181036000830152620003928162000350565b9050919050565b7f4f776e61626c653a206e6577206f776e657220697320746865207a65726f206160008201527f6464726573730000000000000000000000000000000000000000000000000000602082015250565b6000620003f760268362000316565b9150620004048262000399565b604082019050919050565b600060208201905081810360008301526200042a81620003e8565b9050919050565b610e4b80620004416000396000f3fe608060405234801561001057600080fd5b506004361061004c5760003560e01c80631626ba7e14610051578063715018a6146100815780638da5cb5b1461008b578063f2fde38b146100a9575b600080fd5b61006b60048036038101906100669190610904565b6100c5565b604051610078919061099b565b60405180910390f35b610089610125565b005b6100936101ad565b6040516100a091906109f7565b60405180910390f35b6100c360048036038101906100be9190610a3e565b6101d6565b005b60006100cf6101ad565b73ffffffffffffffffffffffffffffffffffffffff166100ef84846102ce565b73ffffffffffffffffffffffffffffffffffffffff161461011457600060e01b61011d565b631626ba7e60e01b5b905092915050565b61012d6102f5565b73ffffffffffffffffffffffffffffffffffffffff1661014b6101ad565b73ffffffffffffffffffffffffffffffffffffffff16146101a1576040517f08c379a000000000000000000000000000000000000000000000000000000000815260040161019890610ac8565b60405180910390fd5b6101ab60006102fd565b565b60008060009054906101000a900473ffffffffffffffffffffffffffffffffffffffff16905090565b6101de6102f5565b73ffffffffffffffffffffffffffffffffffffffff166101fc6101ad565b73ffffffffffffffffffffffffffffffffffffffff1614610252576040517f08c379a000000000000000000000000000000000000000000000000000000000815260040161024990610ac8565b60405180910390fd5b600073ffffffffffffffffffffffffffffffffffffffff168173ffffffffffffffffffffffffffffffffffffffff1614156102c2576040517f08c379a00000000000000000000000000000000000000000000000000000000081526004016102b990610b5a565b60405180910390fd5b6102cb816102fd565b50565b60008060006102dd85856103c1565b915091506102ea81610444565b819250505092915050565b600033905090565b60008060009054906101000a900473ffffffffffffffffffffffffffffffffffffffff169050816000806101000a81548173ffffffffffffffffffffffffffffffffffffffff021916908373ffffffffffffffffffffffffffffffffffffffff1602179055508173ffffffffffffffffffffffffffffffffffffffff168173ffffffffffffffffffffffffffffffffffffffff167f8be0079c531659141344cd1fd0a4f28419497f9722a3daafe3b4186f6b6457e060405160405180910390a35050565b6000806041835114156104035760008060006020860151925060408601519150606086015160001a90506103f787828585610619565b9450945050505061043d565b604083511415610434576000806020850151915060408501519050610429868383610726565b93509350505061043d565b60006002915091505b9250929050565b6000600481111561045857610457610b7a565b5b81600481111561046b5761046a610b7a565b5b141561047657610616565b6001600481111561048a57610489610b7a565b5b81600481111561049d5761049c610b7a565b5b14156104de576040517f08c379a00000000000000000000000000000000000000000000000000000000081526004016104d590610bf5565b60405180910390fd5b600260048111156104f2576104f1610b7a565b5b81600481111561050557610504610b7a565b5b1415610546576040517f08c379a000000000000000000000000000000000000000000000000000000000815260040161053d90610c61565b60405180910390fd5b6003600481111561055a57610559610b7a565b5b81600481111561056d5761056c610b7a565b5b14156105ae576040517f08c379a00000000000000000000000000000000000000000000000000000000081526004016105a590610cf3565b60405180910390fd5b6004808111156105c1576105c0610b7a565b5b8160048111156105d4576105d3610b7a565b5b1415610615576040517f08c379a000000000000000000000000000000000000000000000000000000000815260040161060c90610d85565b60405180910390fd5b5b50565b6000807f7fffffffffffffffffffffffffffffff5d576e7357a4501ddfe92f46681b20a08360001c111561065457600060039150915061071d565b601b8560ff161415801561066c5750601c8560ff1614155b1561067e57600060049150915061071d565b6000600187878787604051600081526020016040526040516106a39493929190610dd0565b6020604051602081039080840390855afa1580156106c5573d6000803e3d6000fd5b505050602060405103519050600073ffffffffffffffffffffffffffffffffffffffff168173ffffffffffffffffffffffffffffffffffffffff1614156107145760006001925092505061071d565b80600092509250505b94509492505050565b6000806000807f7fffffffffffffffffffffffffffffffffffffffffffffffffffffffffffffff85169150601b8560ff1c01905061076687828885610619565b935093505050935093915050565b6000604051905090565b600080fd5b600080fd5b6000819050919050565b61079b81610788565b81146107a657600080fd5b50565b6000813590506107b881610792565b92915050565b600080fd5b600080fd5b6000601f19601f8301169050919050565b7f4e487b7100000000000000000000000000000000000000000000000000000000600052604160045260246000fd5b610811826107c8565b810181811067ffffffffffffffff821117156108305761082f6107d9565b5b80604052505050565b6000610843610774565b905061084f8282610808565b919050565b600067ffffffffffffffff82111561086f5761086e6107d9565b5b610878826107c8565b9050602081019050919050565b82818337600083830152505050565b60006108a76108a284610854565b610839565b9050828152602081018484840111156108c3576108c26107c3565b5b6108ce848285610885565b509392505050565b600082601f8301126108eb576108ea6107be565b5b81356108fb848260208601610894565b91505092915050565b6000806040838503121561091b5761091a61077e565b5b6000610929858286016107a9565b925050602083013567ffffffffffffffff81111561094a57610949610783565b5b610956858286016108d6565b9150509250929050565b60007fffffffff0000000000000000000000000000000000000000000000000000000082169050919050565b61099581610960565b82525050565b60006020820190506109b0600083018461098c565b92915050565b600073ffffffffffffffffffffffffffffffffffffffff82169050919050565b60006109e1826109b6565b9050919050565b6109f1816109d6565b82525050565b6000602082019050610a0c60008301846109e8565b92915050565b610a1b816109d6565b8114610a2657600080fd5b50565b600081359050610a3881610a12565b92915050565b600060208284031215610a5457610a5361077e565b5b6000610a6284828501610a29565b91505092915050565b600082825260208201905092915050565b7f4f776e61626c653a2063616c6c6572206973206e6f7420746865206f776e6572600082015250565b6000610ab2602083610a6b565b9150610abd82610a7c565b602082019050919050565b60006020820190508181036000830152610ae181610aa5565b9050919050565b7f4f776e61626c653a206e6577206f776e657220697320746865207a65726f206160008201527f6464726573730000000000000000000000000000000000000000000000000000602082015250565b6000610b44602683610a6b565b9150610b4f82610ae8565b604082019050919050565b60006020820190508181036000830152610b7381610b37565b9050919050565b7f4e487b7100000000000000000000000000000000000000000000000000000000600052602160045260246000fd5b7f45434453413a20696e76616c6964207369676e61747572650000000000000000600082015250565b6000610bdf601883610a6b565b9150610bea82610ba9565b602082019050919050565b60006020820190508181036000830152610c0e81610bd2565b9050919050565b7f45434453413a20696e76616c6964207369676e6174757265206c656e67746800600082015250565b6000610c4b601f83610a6b565b9150610c5682610c15565b602082019050919050565b60006020820190508181036000830152610c7a81610c3e565b9050919050565b7f45434453413a20696e76616c6964207369676e6174757265202773272076616c60008201527f7565000000000000000000000000000000000000000000000000000000000000602082015250565b6000610cdd602283610a6b565b9150610ce882610c81565b604082019050919050565b60006020820190508181036000830152610d0c81610cd0565b9050919050565b7f45434453413a20696e76616c6964207369676e6174757265202776272076616c60008201527f7565000000000000000000000000000000000000000000000000000000000000602082015250565b6000610d6f602283610a6b565b9150610d7a82610d13565b604082019050919050565b60006020820190508181036000830152610d9e81610d62565b9050919050565b610dae81610788565b82525050565b600060ff82169050919050565b610dca81610db4565b82525050565b6000608082019050610de56000830187610da5565b610df26020830186610dc1565b610dff6040830185610da5565b610e0c6060830184610da5565b9594505050505056fea2646970667358221220810bc27c67f7324cf3695fc1b102bb26dda99174fe4dafabc556d7adefed881364736f6c63430008090033",
  "immutableReferences": {},
  "source": "// SPDX-License-Identifier: MIT\r\n\r\npragma solidity ^0.8.0;\r\n\r\nimport \"../access/Ownable.sol\";\r\nimport \"../interfaces/IERC1271.sol\";\r\nimport \"../utils/cryptography/ECDSA.sol\";\r\n\r\ncontract ERC1271WalletMock is Ownable, IERC1271 {\r\n    constructor(address originalOwner) {\r\n        transferOwnership(originalOwner);\r\n    }\r\n\r\n    function isValidSignature(bytes32 hash, bytes memory signature) public view override returns (bytes4 magicValue) {\r\n        return ECDSA.recover(hash, signature) == owner() ? this.isValidSignature.selector : bytes4(0);\r\n    }\r\n}\r\n",
  "sourcePath": "C:\\Climax\\NFT-marketplace\\contracts\\openzeppelin-solidity\\contracts\\mocks\\ERC1271WalletMock.sol",
  "compiler": {
    "name": "solc",
    "version": "0.8.9+commit.e5eed63a.Emscripten.clang"
  },
  "schemaVersion": "3.4.3",
  "updatedAt": "2021-10-26T11:45:25.463Z",
  "devdoc": {
    "kind": "dev",
    "methods": {
      "isValidSignature(bytes32,bytes)": {
        "details": "Should return whether the signature provided is valid for the provided data",
        "params": {
          "hash": "Hash of the data to be signed",
          "signature": "Signature byte array associated with _data"
        }
      },
      "owner()": {
        "details": "Returns the address of the current owner."
      },
      "renounceOwnership()": {
        "details": "Leaves the contract without owner. It will not be possible to call `onlyOwner` functions anymore. Can only be called by the current owner. NOTE: Renouncing ownership will leave the contract without an owner, thereby removing any functionality that is only available to the owner."
      },
      "transferOwnership(address)": {
        "details": "Transfers ownership of the contract to a new account (`newOwner`). Can only be called by the current owner."
      }
    },
    "version": 1
  },
  "userdoc": {
    "kind": "user",
    "methods": {},
    "version": 1
  }
}