{
  "contractName": "ERC165InterfacesSupported",
  "abi": [
    {
      "inputs": [
        {
          "internalType": "bytes4[]",
          "name": "interfaceIds",
          "type": "bytes4[]"
        }
      ],
      "stateMutability": "nonpayable",
      "type": "constructor"
    },
    {
      "inputs": [],
      "name": "INTERFACE_ID_ERC165",
      "outputs": [
        {
          "internalType": "bytes4",
          "name": "",
          "type": "bytes4"
        }
      ],
      "stateMutability": "view",
      "type": "function"
    },
    {
      "inputs": [
        {
          "internalType": "bytes4",
          "name": "interfaceId",
          "type": "bytes4"
        }
      ],
      "name": "supportsInterface",
      "outputs": [
        {
          "internalType": "bool",
          "name": "",
          "type": "bool"
        }
      ],
      "stateMutability": "view",
      "type": "function"
    }
  ],
  "bytecode": "0x608060405234801561001057600080fd5b506040516106f83803806106f883398181016040528101906100329190610331565b6100486301ffc9a760e01b61009760201b60201c565b60005b81518110156100905761007d82828151811061006a5761006961037a565b5b602002602001015161009760201b60201c565b8080610088906103e2565b91505061004b565b50506104ce565b63ffffffff60e01b817bffffffffffffffffffffffffffffffffffffffffffffffffffffffff19161415610100576040517f08c379a00000000000000000000000000000000000000000000000000000000081526004016100f7906104ae565b60405180910390fd5b6001600080837bffffffffffffffffffffffffffffffffffffffffffffffffffffffff19167bffffffffffffffffffffffffffffffffffffffffffffffffffffffff1916815260200190815260200160002060006101000a81548160ff02191690831515021790555050565b6000604051905090565b600080fd5b600080fd5b600080fd5b6000601f19601f8301169050919050565b7f4e487b7100000000000000000000000000000000000000000000000000000000600052604160045260246000fd5b6101ce82610185565b810181811067ffffffffffffffff821117156101ed576101ec610196565b5b80604052505050565b600061020061016c565b905061020c82826101c5565b919050565b600067ffffffffffffffff82111561022c5761022b610196565b5b602082029050602081019050919050565b600080fd5b60007fffffffff0000000000000000000000000000000000000000000000000000000082169050919050565b61027781610242565b811461028257600080fd5b50565b6000815190506102948161026e565b92915050565b60006102ad6102a884610211565b6101f6565b905080838252602082019050602084028301858111156102d0576102cf61023d565b5b835b818110156102f957806102e58882610285565b8452602084019350506020810190506102d2565b5050509392505050565b600082601f83011261031857610317610180565b5b815161032884826020860161029a565b91505092915050565b60006020828403121561034757610346610176565b5b600082015167ffffffffffffffff8111156103655761036461017b565b5b61037184828501610303565b91505092915050565b7f4e487b7100000000000000000000000000000000000000000000000000000000600052603260045260246000fd5b7f4e487b7100000000000000000000000000000000000000000000000000000000600052601160045260246000fd5b6000819050919050565b60006103ed826103d8565b91507fffffffffffffffffffffffffffffffffffffffffffffffffffffffffffffffff8214156104205761041f6103a9565b5b600182019050919050565b600082825260208201905092915050565b7f455243313635496e7465726661636573537570706f727465643a20696e76616c60008201527f696420696e746572666163652069640000000000000000000000000000000000602082015250565b6000610498602f8361042b565b91506104a38261043c565b604082019050919050565b600060208201905081810360008301526104c78161048b565b9050919050565b61021b806104dd6000396000f3fe608060405234801561001057600080fd5b50600436106100365760003560e01c806301ffc9a71461003b57806334d7006c1461006b575b600080fd5b61005560048036038101906100509190610158565b610089565b60405161006291906101a0565b60405180910390f35b6100736100f0565b60405161008091906101ca565b60405180910390f35b6000806000837bffffffffffffffffffffffffffffffffffffffffffffffffffffffff19167bffffffffffffffffffffffffffffffffffffffffffffffffffffffff1916815260200190815260200160002060009054906101000a900460ff169050919050565b6301ffc9a760e01b81565b600080fd5b60007fffffffff0000000000000000000000000000000000000000000000000000000082169050919050565b61013581610100565b811461014057600080fd5b50565b6000813590506101528161012c565b92915050565b60006020828403121561016e5761016d6100fb565b5b600061017c84828501610143565b91505092915050565b60008115159050919050565b61019a81610185565b82525050565b60006020820190506101b56000830184610191565b92915050565b6101c481610100565b82525050565b60006020820190506101df60008301846101bb565b9291505056fea264697066735822122068aca39e01e98fc729a4f6c6d30d9247a535d97164e7316658f073373d30f1af64736f6c63430008090033",
  "immutableReferences": {},
  "source": "// SPDX-License-Identifier: MIT\r\n\r\npragma solidity ^0.8.0;\r\n\r\nimport \"../../utils/introspection/IERC165.sol\";\r\n\r\n/**\r\n * https://eips.ethereum.org/EIPS/eip-214#specification\r\n * From the specification:\r\n * > Any attempts to make state-changing operations inside an execution instance with STATIC set to true will instead\r\n * throw an exception.\r\n * > These operations include [...], LOG0, LOG1, LOG2, [...]\r\n *\r\n * therefore, because this contract is staticcall'd we need to not emit events (which is how solidity-coverage works)\r\n * solidity-coverage ignores the /mocks folder, so we duplicate its implementation here to avoid instrumenting it\r\n */\r\ncontract SupportsInterfaceWithLookupMock is IERC165 {\r\n    /*\r\n     * bytes4(keccak256('supportsInterface(bytes4)')) == 0x01ffc9a7\r\n     */\r\n    bytes4 public constant INTERFACE_ID_ERC165 = 0x01ffc9a7;\r\n\r\n    /**\r\n     * @dev A mapping of interface id to whether or not it's supported.\r\n     */\r\n    mapping(bytes4 => bool) private _supportedInterfaces;\r\n\r\n    /**\r\n     * @dev A contract implementing SupportsInterfaceWithLookup\r\n     * implement ERC165 itself.\r\n     */\r\n    constructor() {\r\n        _registerInterface(INTERFACE_ID_ERC165);\r\n    }\r\n\r\n    /**\r\n     * @dev Implement supportsInterface(bytes4) using a lookup table.\r\n     */\r\n    function supportsInterface(bytes4 interfaceId) public view override returns (bool) {\r\n        return _supportedInterfaces[interfaceId];\r\n    }\r\n\r\n    /**\r\n     * @dev Private method for registering an interface.\r\n     */\r\n    function _registerInterface(bytes4 interfaceId) internal {\r\n        require(interfaceId != 0xffffffff, \"ERC165InterfacesSupported: invalid interface id\");\r\n        _supportedInterfaces[interfaceId] = true;\r\n    }\r\n}\r\n\r\ncontract ERC165InterfacesSupported is SupportsInterfaceWithLookupMock {\r\n    constructor(bytes4[] memory interfaceIds) {\r\n        for (uint256 i = 0; i < interfaceIds.length; i++) {\r\n            _registerInterface(interfaceIds[i]);\r\n        }\r\n    }\r\n}\r\n",
  "sourcePath": "C:\\Climax\\NFT-marketplace\\contracts\\openzeppelin-solidity\\contracts\\mocks\\ERC165\\ERC165InterfacesSupported.sol",
  "compiler": {
    "name": "solc",
    "version": "0.8.9+commit.e5eed63a.Emscripten.clang"
  },
  "schemaVersion": "3.4.3",
  "updatedAt": "2021-10-26T11:45:25.469Z",
  "devdoc": {
    "kind": "dev",
    "methods": {
      "supportsInterface(bytes4)": {
        "details": "Implement supportsInterface(bytes4) using a lookup table."
      }
    },
    "version": 1
  },
  "userdoc": {
    "kind": "user",
    "methods": {},
    "version": 1
  }
}