{
  "contractName": "ERC1155SupplyMock",
  "abi": [
    {
      "inputs": [
        {
          "internalType": "string",
          "name": "uri",
          "type": "string"
        }
      ],
      "stateMutability": "nonpayable",
      "type": "constructor"
    },
    {
      "anonymous": false,
      "inputs": [
        {
          "indexed": true,
          "internalType": "address",
          "name": "account",
          "type": "address"
        },
        {
          "indexed": true,
          "internalType": "address",
          "name": "operator",
          "type": "address"
        },
        {
          "indexed": false,
          "internalType": "bool",
          "name": "approved",
          "type": "bool"
        }
      ],
      "name": "ApprovalForAll",
      "type": "event"
    },
    {
      "anonymous": false,
      "inputs": [
        {
          "indexed": true,
          "internalType": "address",
          "name": "operator",
          "type": "address"
        },
        {
          "indexed": true,
          "internalType": "address",
          "name": "from",
          "type": "address"
        },
        {
          "indexed": true,
          "internalType": "address",
          "name": "to",
          "type": "address"
        },
        {
          "indexed": false,
          "internalType": "uint256[]",
          "name": "ids",
          "type": "uint256[]"
        },
        {
          "indexed": false,
          "internalType": "uint256[]",
          "name": "values",
          "type": "uint256[]"
        }
      ],
      "name": "TransferBatch",
      "type": "event"
    },
    {
      "anonymous": false,
      "inputs": [
        {
          "indexed": true,
          "internalType": "address",
          "name": "operator",
          "type": "address"
        },
        {
          "indexed": true,
          "internalType": "address",
          "name": "from",
          "type": "address"
        },
        {
          "indexed": true,
          "internalType": "address",
          "name": "to",
          "type": "address"
        },
        {
          "indexed": false,
          "internalType": "uint256",
          "name": "id",
          "type": "uint256"
        },
        {
          "indexed": false,
          "internalType": "uint256",
          "name": "value",
          "type": "uint256"
        }
      ],
      "name": "TransferSingle",
      "type": "event"
    },
    {
      "anonymous": false,
      "inputs": [
        {
          "indexed": false,
          "internalType": "string",
          "name": "value",
          "type": "string"
        },
        {
          "indexed": true,
          "internalType": "uint256",
          "name": "id",
          "type": "uint256"
        }
      ],
      "name": "URI",
      "type": "event"
    },
    {
      "inputs": [
        {
          "internalType": "address",
          "name": "account",
          "type": "address"
        },
        {
          "internalType": "uint256",
          "name": "id",
          "type": "uint256"
        }
      ],
      "name": "balanceOf",
      "outputs": [
        {
          "internalType": "uint256",
          "name": "",
          "type": "uint256"
        }
      ],
      "stateMutability": "view",
      "type": "function"
    },
    {
      "inputs": [
        {
          "internalType": "address[]",
          "name": "accounts",
          "type": "address[]"
        },
        {
          "internalType": "uint256[]",
          "name": "ids",
          "type": "uint256[]"
        }
      ],
      "name": "balanceOfBatch",
      "outputs": [
        {
          "internalType": "uint256[]",
          "name": "",
          "type": "uint256[]"
        }
      ],
      "stateMutability": "view",
      "type": "function"
    },
    {
      "inputs": [
        {
          "internalType": "address",
          "name": "owner",
          "type": "address"
        },
        {
          "internalType": "uint256",
          "name": "id",
          "type": "uint256"
        },
        {
          "internalType": "uint256",
          "name": "value",
          "type": "uint256"
        }
      ],
      "name": "burn",
      "outputs": [],
      "stateMutability": "nonpayable",
      "type": "function"
    },
    {
      "inputs": [
        {
          "internalType": "address",
          "name": "owner",
          "type": "address"
        },
        {
          "internalType": "uint256[]",
          "name": "ids",
          "type": "uint256[]"
        },
        {
          "internalType": "uint256[]",
          "name": "values",
          "type": "uint256[]"
        }
      ],
      "name": "burnBatch",
      "outputs": [],
      "stateMutability": "nonpayable",
      "type": "function"
    },
    {
      "inputs": [
        {
          "internalType": "uint256",
          "name": "id",
          "type": "uint256"
        }
      ],
      "name": "exists",
      "outputs": [
        {
          "internalType": "bool",
          "name": "",
          "type": "bool"
        }
      ],
      "stateMutability": "view",
      "type": "function"
    },
    {
      "inputs": [
        {
          "internalType": "address",
          "name": "account",
          "type": "address"
        },
        {
          "internalType": "address",
          "name": "operator",
          "type": "address"
        }
      ],
      "name": "isApprovedForAll",
      "outputs": [
        {
          "internalType": "bool",
          "name": "",
          "type": "bool"
        }
      ],
      "stateMutability": "view",
      "type": "function"
    },
    {
      "inputs": [
        {
          "internalType": "address",
          "name": "to",
          "type": "address"
        },
        {
          "internalType": "uint256",
          "name": "id",
          "type": "uint256"
        },
        {
          "internalType": "uint256",
          "name": "value",
          "type": "uint256"
        },
        {
          "internalType": "bytes",
          "name": "data",
          "type": "bytes"
        }
      ],
      "name": "mint",
      "outputs": [],
      "stateMutability": "nonpayable",
      "type": "function"
    },
    {
      "inputs": [
        {
          "internalType": "address",
          "name": "to",
          "type": "address"
        },
        {
          "internalType": "uint256[]",
          "name": "ids",
          "type": "uint256[]"
        },
        {
          "internalType": "uint256[]",
          "name": "values",
          "type": "uint256[]"
        },
        {
          "internalType": "bytes",
          "name": "data",
          "type": "bytes"
        }
      ],
      "name": "mintBatch",
      "outputs": [],
      "stateMutability": "nonpayable",
      "type": "function"
    },
    {
      "inputs": [
        {
          "internalType": "address",
          "name": "from",
          "type": "address"
        },
        {
          "internalType": "address",
          "name": "to",
          "type": "address"
        },
        {
          "internalType": "uint256[]",
          "name": "ids",
          "type": "uint256[]"
        },
        {
          "internalType": "uint256[]",
          "name": "amounts",
          "type": "uint256[]"
        },
        {
          "internalType": "bytes",
          "name": "data",
          "type": "bytes"
        }
      ],
      "name": "safeBatchTransferFrom",
      "outputs": [],
      "stateMutability": "nonpayable",
      "type": "function"
    },
    {
      "inputs": [
        {
          "internalType": "address",
          "name": "from",
          "type": "address"
        },
        {
          "internalType": "address",
          "name": "to",
          "type": "address"
        },
        {
          "internalType": "uint256",
          "name": "id",
          "type": "uint256"
        },
        {
          "internalType": "uint256",
          "name": "amount",
          "type": "uint256"
        },
        {
          "internalType": "bytes",
          "name": "data",
          "type": "bytes"
        }
      ],
      "name": "safeTransferFrom",
      "outputs": [],
      "stateMutability": "nonpayable",
      "type": "function"
    },
    {
      "inputs": [
        {
          "internalType": "address",
          "name": "operator",
          "type": "address"
        },
        {
          "internalType": "bool",
          "name": "approved",
          "type": "bool"
        }
      ],
      "name": "setApprovalForAll",
      "outputs": [],
      "stateMutability": "nonpayable",
      "type": "function"
    },
    {
      "inputs": [
        {
          "internalType": "string",
          "name": "newuri",
          "type": "string"
        }
      ],
      "name": "setURI",
      "outputs": [],
      "stateMutability": "nonpayable",
      "type": "function"
    },
    {
      "inputs": [
        {
          "internalType": "bytes4",
          "name": "interfaceId",
          "type": "bytes4"
        }
      ],
      "name": "supportsInterface",
      "outputs": [
        {
          "internalType": "bool",
          "name": "",
          "type": "bool"
        }
      ],
      "stateMutability": "view",
      "type": "function"
    },
    {
      "inputs": [
        {
          "internalType": "uint256",
          "name": "id",
          "type": "uint256"
        }
      ],
      "name": "totalSupply",
      "outputs": [
        {
          "internalType": "uint256",
          "name": "",
          "type": "uint256"
        }
      ],
      "stateMutability": "view",
      "type": "function"
    },
    {
      "inputs": [
        {
          "internalType": "uint256",
          "name": "",
          "type": "uint256"
        }
      ],
      "name": "uri",
      "outputs": [
        {
          "internalType": "string",
          "name": "",
          "type": "string"
        }
      ],
      "stateMutability": "view",
      "type": "function"
    }
  ],
  "bytecode": "0x60806040523480156200001157600080fd5b5060405162003afd38038062003afd8339818101604052810190620000379190620002bc565b80806200004a816200005360201b60201c565b50505062000372565b80600290805190602001906200006b9291906200006f565b5050565b8280546200007d906200033c565b90600052602060002090601f016020900481019282620000a15760008555620000ed565b82601f10620000bc57805160ff1916838001178555620000ed565b82800160010185558215620000ed579182015b82811115620000ec578251825591602001919060010190620000cf565b5b509050620000fc919062000100565b5090565b5b808211156200011b57600081600090555060010162000101565b5090565b6000604051905090565b600080fd5b600080fd5b600080fd5b600080fd5b6000601f19601f8301169050919050565b7f4e487b7100000000000000000000000000000000000000000000000000000000600052604160045260246000fd5b62000188826200013d565b810181811067ffffffffffffffff82111715620001aa57620001a96200014e565b5b80604052505050565b6000620001bf6200011f565b9050620001cd82826200017d565b919050565b600067ffffffffffffffff821115620001f057620001ef6200014e565b5b620001fb826200013d565b9050602081019050919050565b60005b83811015620002285780820151818401526020810190506200020b565b8381111562000238576000848401525b50505050565b6000620002556200024f84620001d2565b620001b3565b90508281526020810184848401111562000274576200027362000138565b5b6200028184828562000208565b509392505050565b600082601f830112620002a157620002a062000133565b5b8151620002b38482602086016200023e565b91505092915050565b600060208284031215620002d557620002d462000129565b5b600082015167ffffffffffffffff811115620002f657620002f56200012e565b5b620003048482850162000289565b91505092915050565b7f4e487b7100000000000000000000000000000000000000000000000000000000600052602260045260246000fd5b600060028204905060018216806200035557607f821691505b602082108114156200036c576200036b6200030d565b5b50919050565b61377b80620003826000396000f3fe608060405234801561001057600080fd5b50600436106100f45760003560e01c80634f558e7911610097578063bd85b03911610066578063bd85b03914610291578063e985e9c5146102c1578063f242432a146102f1578063f5298aca1461030d576100f4565b80634f558e791461020d5780636b20c4541461023d578063731133e914610259578063a22cb46514610275576100f4565b80630e89341c116100d35780630e89341c146101755780631f7fdffa146101a55780632eb2c2d6146101c15780634e1273f4146101dd576100f4565b8062fdd58e146100f957806301ffc9a71461012957806302fe530514610159575b600080fd5b610113600480360381019061010e919061207f565b610329565b60405161012091906120ce565b60405180910390f35b610143600480360381019061013e9190612141565b6103f2565b6040516101509190612189565b60405180910390f35b610173600480360381019061016e91906122ea565b6104d4565b005b61018f600480360381019061018a9190612333565b6104e0565b60405161019c91906123e8565b60405180910390f35b6101bf60048036038101906101ba9190612573565b610574565b005b6101db60048036038101906101d6919061262e565b610586565b005b6101f760048036038101906101f291906127c0565b610627565b60405161020491906128f6565b60405180910390f35b61022760048036038101906102229190612333565b610740565b6040516102349190612189565b60405180910390f35b61025760048036038101906102529190612918565b610754565b005b610273600480360381019061026e91906129a3565b610764565b005b61028f600480360381019061028a9190612a52565b610776565b005b6102ab60048036038101906102a69190612333565b6108f7565b6040516102b891906120ce565b60405180910390f35b6102db60048036038101906102d69190612a92565b610914565b6040516102e89190612189565b60405180910390f35b61030b60048036038101906103069190612ad2565b6109a8565b005b61032760048036038101906103229190612b69565b610a49565b005b60008073ffffffffffffffffffffffffffffffffffffffff168373ffffffffffffffffffffffffffffffffffffffff16141561039a576040517f08c379a000000000000000000000000000000000000000000000000000000000815260040161039190612c2e565b60405180910390fd5b60008083815260200190815260200160002060008473ffffffffffffffffffffffffffffffffffffffff1673ffffffffffffffffffffffffffffffffffffffff16815260200190815260200160002054905092915050565b60007fd9b67a26000000000000000000000000000000000000000000000000000000007bffffffffffffffffffffffffffffffffffffffffffffffffffffffff1916827bffffffffffffffffffffffffffffffffffffffffffffffffffffffff191614806104bd57507f0e89341c000000000000000000000000000000000000000000000000000000007bffffffffffffffffffffffffffffffffffffffffffffffffffffffff1916827bffffffffffffffffffffffffffffffffffffffffffffffffffffffff1916145b806104cd57506104cc82610a59565b5b9050919050565b6104dd81610ac3565b50565b6060600280546104ef90612c7d565b80601f016020809104026020016040519081016040528092919081815260200182805461051b90612c7d565b80156105685780601f1061053d57610100808354040283529160200191610568565b820191906000526020600020905b81548152906001019060200180831161054b57829003601f168201915b50505050509050919050565b61058084848484610add565b50505050565b61058e610aef565b73ffffffffffffffffffffffffffffffffffffffff168573ffffffffffffffffffffffffffffffffffffffff1614806105d457506105d3856105ce610aef565b610914565b5b610613576040517f08c379a000000000000000000000000000000000000000000000000000000000815260040161060a90612d21565b60405180910390fd5b6106208585858585610af7565b5050505050565b6060815183511461066d576040517f08c379a000000000000000000000000000000000000000000000000000000000815260040161066490612db3565b60405180910390fd5b6000835167ffffffffffffffff81111561068a576106896121bf565b5b6040519080825280602002602001820160405280156106b85781602001602082028036833780820191505090505b50905060005b8451811015610735576107058582815181106106dd576106dc612dd3565b5b60200260200101518583815181106106f8576106f7612dd3565b5b6020026020010151610329565b82828151811061071857610717612dd3565b5b6020026020010181815250508061072e90612e31565b90506106be565b508091505092915050565b60008061074c836108f7565b119050919050565b61075f838383610e0b565b505050565b61077084848484610e1b565b50505050565b8173ffffffffffffffffffffffffffffffffffffffff16610795610aef565b73ffffffffffffffffffffffffffffffffffffffff1614156107ec576040517f08c379a00000000000000000000000000000000000000000000000000000000081526004016107e390612eec565b60405180910390fd5b80600160006107f9610aef565b73ffffffffffffffffffffffffffffffffffffffff1673ffffffffffffffffffffffffffffffffffffffff16815260200190815260200160002060008473ffffffffffffffffffffffffffffffffffffffff1673ffffffffffffffffffffffffffffffffffffffff16815260200190815260200160002060006101000a81548160ff0219169083151502179055508173ffffffffffffffffffffffffffffffffffffffff166108a6610aef565b73ffffffffffffffffffffffffffffffffffffffff167f17307eab39ab6107e8899845ad3d59bd9653f200f220920489ca2b5937696c31836040516108eb9190612189565b60405180910390a35050565b600060036000838152602001908152602001600020549050919050565b6000600160008473ffffffffffffffffffffffffffffffffffffffff1673ffffffffffffffffffffffffffffffffffffffff16815260200190815260200160002060008373ffffffffffffffffffffffffffffffffffffffff1673ffffffffffffffffffffffffffffffffffffffff16815260200190815260200160002060009054906101000a900460ff16905092915050565b6109b0610aef565b73ffffffffffffffffffffffffffffffffffffffff168573ffffffffffffffffffffffffffffffffffffffff1614806109f657506109f5856109f0610aef565b610914565b5b610a35576040517f08c379a0000000000000000000000000000000000000000000000000000000008152600401610a2c90612f7e565b60405180910390fd5b610a428585858585610e2d565b5050505050565b610a548383836110af565b505050565b60007f01ffc9a7000000000000000000000000000000000000000000000000000000007bffffffffffffffffffffffffffffffffffffffffffffffffffffffff1916827bffffffffffffffffffffffffffffffffffffffffffffffffffffffff1916149050919050565b8060029080519060200190610ad9929190611f34565b5050565b610ae9848484846110bf565b50505050565b600033905090565b8151835114610b3b576040517f08c379a0000000000000000000000000000000000000000000000000000000008152600401610b3290613010565b60405180910390fd5b600073ffffffffffffffffffffffffffffffffffffffff168473ffffffffffffffffffffffffffffffffffffffff161415610bab576040517f08c379a0000000000000000000000000000000000000000000000000000000008152600401610ba2906130a2565b60405180910390fd5b6000610bb5610aef565b9050610bc581878787878761114d565b60005b8451811015610d76576000858281518110610be657610be5612dd3565b5b602002602001015190506000858381518110610c0557610c04612dd3565b5b60200260200101519050600080600084815260200190815260200160002060008b73ffffffffffffffffffffffffffffffffffffffff1673ffffffffffffffffffffffffffffffffffffffff16815260200190815260200160002054905081811015610ca6576040517f08c379a0000000000000000000000000000000000000000000000000000000008152600401610c9d90613134565b60405180910390fd5b81810360008085815260200190815260200160002060008c73ffffffffffffffffffffffffffffffffffffffff1673ffffffffffffffffffffffffffffffffffffffff168152602001908152602001600020819055508160008085815260200190815260200160002060008b73ffffffffffffffffffffffffffffffffffffffff1673ffffffffffffffffffffffffffffffffffffffff1681526020019081526020016000206000828254610d5b9190613154565b9250508190555050505080610d6f90612e31565b9050610bc8565b508473ffffffffffffffffffffffffffffffffffffffff168673ffffffffffffffffffffffffffffffffffffffff168273ffffffffffffffffffffffffffffffffffffffff167f4a39dc06d4c0dbc64b70af90fd698a233a518aa5d07e595d983b8c0526c8f7fb8787604051610ded9291906131aa565b60405180910390a4610e03818787878787611155565b505050505050565b610e1683838361133c565b505050565b610e27848484846113c8565b50505050565b600073ffffffffffffffffffffffffffffffffffffffff168473ffffffffffffffffffffffffffffffffffffffff161415610e9d576040517f08c379a0000000000000000000000000000000000000000000000000000000008152600401610e94906130a2565b60405180910390fd5b6000610ea7610aef565b9050610ec7818787610eb888611404565b610ec188611404565b8761114d565b600080600086815260200190815260200160002060008873ffffffffffffffffffffffffffffffffffffffff1673ffffffffffffffffffffffffffffffffffffffff16815260200190815260200160002054905083811015610f5e576040517f08c379a0000000000000000000000000000000000000000000000000000000008152600401610f5590613134565b60405180910390fd5b83810360008087815260200190815260200160002060008973ffffffffffffffffffffffffffffffffffffffff1673ffffffffffffffffffffffffffffffffffffffff168152602001908152602001600020819055508360008087815260200190815260200160002060008873ffffffffffffffffffffffffffffffffffffffff1673ffffffffffffffffffffffffffffffffffffffff16815260200190815260200160002060008282546110139190613154565b925050819055508573ffffffffffffffffffffffffffffffffffffffff168773ffffffffffffffffffffffffffffffffffffffff168373ffffffffffffffffffffffffffffffffffffffff167fc3d58168c5ae7397731d063d5bbf3d657854427343f4c083240f7aacaa2d0f6288886040516110909291906131e1565b60405180910390a46110a682888888888861147e565b50505050505050565b6110ba838383611665565b505050565b6110cb8484848461169f565b60005b8351811015611146578281815181106110ea576110e9612dd3565b5b60200260200101516003600086848151811061110957611108612dd3565b5b60200260200101518152602001908152602001600020600082825461112e9190613154565b925050819055508061113f90612e31565b90506110ce565b5050505050565b505050505050565b6111748473ffffffffffffffffffffffffffffffffffffffff166118bd565b15611334578373ffffffffffffffffffffffffffffffffffffffff1663bc197c8187878686866040518663ffffffff1660e01b81526004016111ba95949392919061326e565b602060405180830381600087803b1580156111d457600080fd5b505af192505050801561120557506040513d601f19601f8201168201806040525081019061120291906132eb565b60015b6112ab57611211613325565b806308c379a0141561126e5750611226613347565b806112315750611270565b806040517f08c379a000000000000000000000000000000000000000000000000000000000815260040161126591906123e8565b60405180910390fd5b505b6040517f08c379a00000000000000000000000000000000000000000000000000000000081526004016112a29061344f565b60405180910390fd5b63bc197c8160e01b7bffffffffffffffffffffffffffffffffffffffffffffffffffffffff1916817bffffffffffffffffffffffffffffffffffffffffffffffffffffffff191614611332576040517f08c379a0000000000000000000000000000000000000000000000000000000008152600401611329906134e1565b60405180910390fd5b505b505050505050565b6113478383836118d0565b60005b82518110156113c25781818151811061136657611365612dd3565b5b60200260200101516003600085848151811061138557611384612dd3565b5b6020026020010151815260200190815260200160002060008282546113aa9190613501565b92505081905550806113bb90612e31565b905061134a565b50505050565b6113d484848484611b81565b816003600085815260200190815260200160002060008282546113f79190613154565b9250508190555050505050565b60606000600167ffffffffffffffff811115611423576114226121bf565b5b6040519080825280602002602001820160405280156114515781602001602082028036833780820191505090505b509050828160008151811061146957611468612dd3565b5b60200260200101818152505080915050919050565b61149d8473ffffffffffffffffffffffffffffffffffffffff166118bd565b1561165d578373ffffffffffffffffffffffffffffffffffffffff1663f23a6e6187878686866040518663ffffffff1660e01b81526004016114e3959493929190613535565b602060405180830381600087803b1580156114fd57600080fd5b505af192505050801561152e57506040513d601f19601f8201168201806040525081019061152b91906132eb565b60015b6115d45761153a613325565b806308c379a01415611597575061154f613347565b8061155a5750611599565b806040517f08c379a000000000000000000000000000000000000000000000000000000000815260040161158e91906123e8565b60405180910390fd5b505b6040517f08c379a00000000000000000000000000000000000000000000000000000000081526004016115cb9061344f565b60405180910390fd5b63f23a6e6160e01b7bffffffffffffffffffffffffffffffffffffffffffffffffffffffff1916817bffffffffffffffffffffffffffffffffffffffffffffffffffffffff19161461165b576040517f08c379a0000000000000000000000000000000000000000000000000000000008152600401611652906134e1565b60405180910390fd5b505b505050505050565b611670838383611d17565b806003600084815260200190815260200160002060008282546116939190613501565b92505081905550505050565b600073ffffffffffffffffffffffffffffffffffffffff168473ffffffffffffffffffffffffffffffffffffffff16141561170f576040517f08c379a000000000000000000000000000000000000000000000000000000000815260040161170690613601565b60405180910390fd5b8151835114611753576040517f08c379a000000000000000000000000000000000000000000000000000000000815260040161174a90613010565b60405180910390fd5b600061175d610aef565b905061176e8160008787878761114d565b60005b84518110156118275783818151811061178d5761178c612dd3565b5b60200260200101516000808784815181106117ab576117aa612dd3565b5b6020026020010151815260200190815260200160002060008873ffffffffffffffffffffffffffffffffffffffff1673ffffffffffffffffffffffffffffffffffffffff168152602001908152602001600020600082825461180d9190613154565b92505081905550808061181f90612e31565b915050611771565b508473ffffffffffffffffffffffffffffffffffffffff16600073ffffffffffffffffffffffffffffffffffffffff168273ffffffffffffffffffffffffffffffffffffffff167f4a39dc06d4c0dbc64b70af90fd698a233a518aa5d07e595d983b8c0526c8f7fb878760405161189f9291906131aa565b60405180910390a46118b681600087878787611155565b5050505050565b600080823b905060008111915050919050565b600073ffffffffffffffffffffffffffffffffffffffff168373ffffffffffffffffffffffffffffffffffffffff161415611940576040517f08c379a000000000000000000000000000000000000000000000000000000000815260040161193790613693565b60405180910390fd5b8051825114611984576040517f08c379a000000000000000000000000000000000000000000000000000000000815260040161197b90613010565b60405180910390fd5b600061198e610aef565b90506119ae8185600086866040518060200160405280600081525061114d565b60005b8351811015611afb5760008482815181106119cf576119ce612dd3565b5b6020026020010151905060008483815181106119ee576119ed612dd3565b5b60200260200101519050600080600084815260200190815260200160002060008973ffffffffffffffffffffffffffffffffffffffff1673ffffffffffffffffffffffffffffffffffffffff16815260200190815260200160002054905081811015611a8f576040517f08c379a0000000000000000000000000000000000000000000000000000000008152600401611a8690613725565b60405180910390fd5b81810360008085815260200190815260200160002060008a73ffffffffffffffffffffffffffffffffffffffff1673ffffffffffffffffffffffffffffffffffffffff168152602001908152602001600020819055505050508080611af390612e31565b9150506119b1565b50600073ffffffffffffffffffffffffffffffffffffffff168473ffffffffffffffffffffffffffffffffffffffff168273ffffffffffffffffffffffffffffffffffffffff167f4a39dc06d4c0dbc64b70af90fd698a233a518aa5d07e595d983b8c0526c8f7fb8686604051611b739291906131aa565b60405180910390a450505050565b600073ffffffffffffffffffffffffffffffffffffffff168473ffffffffffffffffffffffffffffffffffffffff161415611bf1576040517f08c379a0000000000000000000000000000000000000000000000000000000008152600401611be890613601565b60405180910390fd5b6000611bfb610aef565b9050611c1c81600087611c0d88611404565b611c1688611404565b8761114d565b8260008086815260200190815260200160002060008773ffffffffffffffffffffffffffffffffffffffff1673ffffffffffffffffffffffffffffffffffffffff1681526020019081526020016000206000828254611c7b9190613154565b925050819055508473ffffffffffffffffffffffffffffffffffffffff16600073ffffffffffffffffffffffffffffffffffffffff168273ffffffffffffffffffffffffffffffffffffffff167fc3d58168c5ae7397731d063d5bbf3d657854427343f4c083240f7aacaa2d0f628787604051611cf99291906131e1565b60405180910390a4611d108160008787878761147e565b5050505050565b600073ffffffffffffffffffffffffffffffffffffffff168373ffffffffffffffffffffffffffffffffffffffff161415611d87576040517f08c379a0000000000000000000000000000000000000000000000000000000008152600401611d7e90613693565b60405180910390fd5b6000611d91610aef565b9050611dc181856000611da387611404565b611dac87611404565b6040518060200160405280600081525061114d565b600080600085815260200190815260200160002060008673ffffffffffffffffffffffffffffffffffffffff1673ffffffffffffffffffffffffffffffffffffffff16815260200190815260200160002054905082811015611e58576040517f08c379a0000000000000000000000000000000000000000000000000000000008152600401611e4f90613725565b60405180910390fd5b82810360008086815260200190815260200160002060008773ffffffffffffffffffffffffffffffffffffffff1673ffffffffffffffffffffffffffffffffffffffff16815260200190815260200160002081905550600073ffffffffffffffffffffffffffffffffffffffff168573ffffffffffffffffffffffffffffffffffffffff168373ffffffffffffffffffffffffffffffffffffffff167fc3d58168c5ae7397731d063d5bbf3d657854427343f4c083240f7aacaa2d0f628787604051611f259291906131e1565b60405180910390a45050505050565b828054611f4090612c7d565b90600052602060002090601f016020900481019282611f625760008555611fa9565b82601f10611f7b57805160ff1916838001178555611fa9565b82800160010185558215611fa9579182015b82811115611fa8578251825591602001919060010190611f8d565b5b509050611fb69190611fba565b5090565b5b80821115611fd3576000816000905550600101611fbb565b5090565b6000604051905090565b600080fd5b600080fd5b600073ffffffffffffffffffffffffffffffffffffffff82169050919050565b600061201682611feb565b9050919050565b6120268161200b565b811461203157600080fd5b50565b6000813590506120438161201d565b92915050565b6000819050919050565b61205c81612049565b811461206757600080fd5b50565b60008135905061207981612053565b92915050565b6000806040838503121561209657612095611fe1565b5b60006120a485828601612034565b92505060206120b58582860161206a565b9150509250929050565b6120c881612049565b82525050565b60006020820190506120e360008301846120bf565b92915050565b60007fffffffff0000000000000000000000000000000000000000000000000000000082169050919050565b61211e816120e9565b811461212957600080fd5b50565b60008135905061213b81612115565b92915050565b60006020828403121561215757612156611fe1565b5b60006121658482850161212c565b91505092915050565b60008115159050919050565b6121838161216e565b82525050565b600060208201905061219e600083018461217a565b92915050565b600080fd5b600080fd5b6000601f19601f8301169050919050565b7f4e487b7100000000000000000000000000000000000000000000000000000000600052604160045260246000fd5b6121f7826121ae565b810181811067ffffffffffffffff82111715612216576122156121bf565b5b80604052505050565b6000612229611fd7565b905061223582826121ee565b919050565b600067ffffffffffffffff821115612255576122546121bf565b5b61225e826121ae565b9050602081019050919050565b82818337600083830152505050565b600061228d6122888461223a565b61221f565b9050828152602081018484840111156122a9576122a86121a9565b5b6122b484828561226b565b509392505050565b600082601f8301126122d1576122d06121a4565b5b81356122e184826020860161227a565b91505092915050565b600060208284031215612300576122ff611fe1565b5b600082013567ffffffffffffffff81111561231e5761231d611fe6565b5b61232a848285016122bc565b91505092915050565b60006020828403121561234957612348611fe1565b5b60006123578482850161206a565b91505092915050565b600081519050919050565b600082825260208201905092915050565b60005b8381101561239a57808201518184015260208101905061237f565b838111156123a9576000848401525b50505050565b60006123ba82612360565b6123c4818561236b565b93506123d481856020860161237c565b6123dd816121ae565b840191505092915050565b6000602082019050818103600083015261240281846123af565b905092915050565b600067ffffffffffffffff821115612425576124246121bf565b5b602082029050602081019050919050565b600080fd5b600061244e6124498461240a565b61221f565b9050808382526020820190506020840283018581111561247157612470612436565b5b835b8181101561249a5780612486888261206a565b845260208401935050602081019050612473565b5050509392505050565b600082601f8301126124b9576124b86121a4565b5b81356124c984826020860161243b565b91505092915050565b600067ffffffffffffffff8211156124ed576124ec6121bf565b5b6124f6826121ae565b9050602081019050919050565b6000612516612511846124d2565b61221f565b905082815260208101848484011115612532576125316121a9565b5b61253d84828561226b565b509392505050565b600082601f83011261255a576125596121a4565b5b813561256a848260208601612503565b91505092915050565b6000806000806080858703121561258d5761258c611fe1565b5b600061259b87828801612034565b945050602085013567ffffffffffffffff8111156125bc576125bb611fe6565b5b6125c8878288016124a4565b935050604085013567ffffffffffffffff8111156125e9576125e8611fe6565b5b6125f5878288016124a4565b925050606085013567ffffffffffffffff81111561261657612615611fe6565b5b61262287828801612545565b91505092959194509250565b600080600080600060a0868803121561264a57612649611fe1565b5b600061265888828901612034565b955050602061266988828901612034565b945050604086013567ffffffffffffffff81111561268a57612689611fe6565b5b612696888289016124a4565b935050606086013567ffffffffffffffff8111156126b7576126b6611fe6565b5b6126c3888289016124a4565b925050608086013567ffffffffffffffff8111156126e4576126e3611fe6565b5b6126f088828901612545565b9150509295509295909350565b600067ffffffffffffffff821115612718576127176121bf565b5b602082029050602081019050919050565b600061273c612737846126fd565b61221f565b9050808382526020820190506020840283018581111561275f5761275e612436565b5b835b8181101561278857806127748882612034565b845260208401935050602081019050612761565b5050509392505050565b600082601f8301126127a7576127a66121a4565b5b81356127b7848260208601612729565b91505092915050565b600080604083850312156127d7576127d6611fe1565b5b600083013567ffffffffffffffff8111156127f5576127f4611fe6565b5b61280185828601612792565b925050602083013567ffffffffffffffff81111561282257612821611fe6565b5b61282e858286016124a4565b9150509250929050565b600081519050919050565b600082825260208201905092915050565b6000819050602082019050919050565b61286d81612049565b82525050565b600061287f8383612864565b60208301905092915050565b6000602082019050919050565b60006128a382612838565b6128ad8185612843565b93506128b883612854565b8060005b838110156128e95781516128d08882612873565b97506128db8361288b565b9250506001810190506128bc565b5085935050505092915050565b600060208201905081810360008301526129108184612898565b905092915050565b60008060006060848603121561293157612930611fe1565b5b600061293f86828701612034565b935050602084013567ffffffffffffffff8111156129605761295f611fe6565b5b61296c868287016124a4565b925050604084013567ffffffffffffffff81111561298d5761298c611fe6565b5b612999868287016124a4565b9150509250925092565b600080600080608085870312156129bd576129bc611fe1565b5b60006129cb87828801612034565b94505060206129dc8782880161206a565b93505060406129ed8782880161206a565b925050606085013567ffffffffffffffff811115612a0e57612a0d611fe6565b5b612a1a87828801612545565b91505092959194509250565b612a2f8161216e565b8114612a3a57600080fd5b50565b600081359050612a4c81612a26565b92915050565b60008060408385031215612a6957612a68611fe1565b5b6000612a7785828601612034565b9250506020612a8885828601612a3d565b9150509250929050565b60008060408385031215612aa957612aa8611fe1565b5b6000612ab785828601612034565b9250506020612ac885828601612034565b9150509250929050565b600080600080600060a08688031215612aee57612aed611fe1565b5b6000612afc88828901612034565b9550506020612b0d88828901612034565b9450506040612b1e8882890161206a565b9350506060612b2f8882890161206a565b925050608086013567ffffffffffffffff811115612b5057612b4f611fe6565b5b612b5c88828901612545565b9150509295509295909350565b600080600060608486031215612b8257612b81611fe1565b5b6000612b9086828701612034565b9350506020612ba18682870161206a565b9250506040612bb28682870161206a565b9150509250925092565b7f455243313135353a2062616c616e636520717565727920666f7220746865207a60008201527f65726f2061646472657373000000000000000000000000000000000000000000602082015250565b6000612c18602b8361236b565b9150612c2382612bbc565b604082019050919050565b60006020820190508181036000830152612c4781612c0b565b9050919050565b7f4e487b7100000000000000000000000000000000000000000000000000000000600052602260045260246000fd5b60006002820490506001821680612c9557607f821691505b60208210811415612ca957612ca8612c4e565b5b50919050565b7f455243313135353a207472616e736665722063616c6c6572206973206e6f742060008201527f6f776e6572206e6f7220617070726f7665640000000000000000000000000000602082015250565b6000612d0b60328361236b565b9150612d1682612caf565b604082019050919050565b60006020820190508181036000830152612d3a81612cfe565b9050919050565b7f455243313135353a206163636f756e747320616e6420696473206c656e67746860008201527f206d69736d617463680000000000000000000000000000000000000000000000602082015250565b6000612d9d60298361236b565b9150612da882612d41565b604082019050919050565b60006020820190508181036000830152612dcc81612d90565b9050919050565b7f4e487b7100000000000000000000000000000000000000000000000000000000600052603260045260246000fd5b7f4e487b7100000000000000000000000000000000000000000000000000000000600052601160045260246000fd5b6000612e3c82612049565b91507fffffffffffffffffffffffffffffffffffffffffffffffffffffffffffffffff821415612e6f57612e6e612e02565b5b600182019050919050565b7f455243313135353a2073657474696e6720617070726f76616c2073746174757360008201527f20666f722073656c660000000000000000000000000000000000000000000000602082015250565b6000612ed660298361236b565b9150612ee182612e7a565b604082019050919050565b60006020820190508181036000830152612f0581612ec9565b9050919050565b7f455243313135353a2063616c6c6572206973206e6f74206f776e6572206e6f7260008201527f20617070726f7665640000000000000000000000000000000000000000000000602082015250565b6000612f6860298361236b565b9150612f7382612f0c565b604082019050919050565b60006020820190508181036000830152612f9781612f5b565b9050919050565b7f455243313135353a2069647320616e6420616d6f756e7473206c656e6774682060008201527f6d69736d61746368000000000000000000000000000000000000000000000000602082015250565b6000612ffa60288361236b565b915061300582612f9e565b604082019050919050565b6000602082019050818103600083015261302981612fed565b9050919050565b7f455243313135353a207472616e7366657220746f20746865207a65726f20616460008201527f6472657373000000000000000000000000000000000000000000000000000000602082015250565b600061308c60258361236b565b915061309782613030565b604082019050919050565b600060208201905081810360008301526130bb8161307f565b9050919050565b7f455243313135353a20696e73756666696369656e742062616c616e636520666f60008201527f72207472616e7366657200000000000000000000000000000000000000000000602082015250565b600061311e602a8361236b565b9150613129826130c2565b604082019050919050565b6000602082019050818103600083015261314d81613111565b9050919050565b600061315f82612049565b915061316a83612049565b9250827fffffffffffffffffffffffffffffffffffffffffffffffffffffffffffffffff0382111561319f5761319e612e02565b5b828201905092915050565b600060408201905081810360008301526131c48185612898565b905081810360208301526131d88184612898565b90509392505050565b60006040820190506131f660008301856120bf565b61320360208301846120bf565b9392505050565b6132138161200b565b82525050565b600081519050919050565b600082825260208201905092915050565b600061324082613219565b61324a8185613224565b935061325a81856020860161237c565b613263816121ae565b840191505092915050565b600060a082019050613283600083018861320a565b613290602083018761320a565b81810360408301526132a28186612898565b905081810360608301526132b68185612898565b905081810360808301526132ca8184613235565b90509695505050505050565b6000815190506132e581612115565b92915050565b60006020828403121561330157613300611fe1565b5b600061330f848285016132d6565b91505092915050565b60008160e01c9050919050565b600060033d11156133445760046000803e613341600051613318565b90505b90565b600060443d1015613357576133da565b61335f611fd7565b60043d036004823e80513d602482011167ffffffffffffffff821117156133875750506133da565b808201805167ffffffffffffffff8111156133a557505050506133da565b80602083010160043d0385018111156133c25750505050506133da565b6133d1826020018501866121ee565b82955050505050505b90565b7f455243313135353a207472616e7366657220746f206e6f6e204552433131353560008201527f526563656976657220696d706c656d656e746572000000000000000000000000602082015250565b600061343960348361236b565b9150613444826133dd565b604082019050919050565b600060208201905081810360008301526134688161342c565b9050919050565b7f455243313135353a204552433131353552656365697665722072656a6563746560008201527f6420746f6b656e73000000000000000000000000000000000000000000000000602082015250565b60006134cb60288361236b565b91506134d68261346f565b604082019050919050565b600060208201905081810360008301526134fa816134be565b9050919050565b600061350c82612049565b915061351783612049565b92508282101561352a57613529612e02565b5b828203905092915050565b600060a08201905061354a600083018861320a565b613557602083018761320a565b61356460408301866120bf565b61357160608301856120bf565b81810360808301526135838184613235565b90509695505050505050565b7f455243313135353a206d696e7420746f20746865207a65726f2061646472657360008201527f7300000000000000000000000000000000000000000000000000000000000000602082015250565b60006135eb60218361236b565b91506135f68261358f565b604082019050919050565b6000602082019050818103600083015261361a816135de565b9050919050565b7f455243313135353a206275726e2066726f6d20746865207a65726f206164647260008201527f6573730000000000000000000000000000000000000000000000000000000000602082015250565b600061367d60238361236b565b915061368882613621565b604082019050919050565b600060208201905081810360008301526136ac81613670565b9050919050565b7f455243313135353a206275726e20616d6f756e7420657863656564732062616c60008201527f616e636500000000000000000000000000000000000000000000000000000000602082015250565b600061370f60248361236b565b915061371a826136b3565b604082019050919050565b6000602082019050818103600083015261373e81613702565b905091905056fea2646970667358221220f0c2138a5011b62ed02840f054b28ee2b330dce51e5d06497afab5e326ab329b64736f6c63430008090033",
  "immutableReferences": {},
  "source": "// SPDX-License-Identifier: MIT\r\n\r\npragma solidity ^0.8.0;\r\n\r\nimport \"./ERC1155Mock.sol\";\r\nimport \"../token/ERC1155/extensions/ERC1155Supply.sol\";\r\n\r\ncontract ERC1155SupplyMock is ERC1155Mock, ERC1155Supply {\r\n    constructor(string memory uri) ERC1155Mock(uri) {}\r\n\r\n    function _mint(\r\n        address account,\r\n        uint256 id,\r\n        uint256 amount,\r\n        bytes memory data\r\n    ) internal virtual override(ERC1155, ERC1155Supply) {\r\n        super._mint(account, id, amount, data);\r\n    }\r\n\r\n    function _mintBatch(\r\n        address to,\r\n        uint256[] memory ids,\r\n        uint256[] memory amounts,\r\n        bytes memory data\r\n    ) internal virtual override(ERC1155, ERC1155Supply) {\r\n        super._mintBatch(to, ids, amounts, data);\r\n    }\r\n\r\n    function _burn(\r\n        address account,\r\n        uint256 id,\r\n        uint256 amount\r\n    ) internal virtual override(ERC1155, ERC1155Supply) {\r\n        super._burn(account, id, amount);\r\n    }\r\n\r\n    function _burnBatch(\r\n        address account,\r\n        uint256[] memory ids,\r\n        uint256[] memory amounts\r\n    ) internal virtual override(ERC1155, ERC1155Supply) {\r\n        super._burnBatch(account, ids, amounts);\r\n    }\r\n}\r\n",
  "sourcePath": "C:\\Climax\\NFT-marketplace\\contracts\\openzeppelin-solidity\\contracts\\mocks\\ERC1155SupplyMock.sol",
  "compiler": {
    "name": "solc",
    "version": "0.8.9+commit.e5eed63a.Emscripten.clang"
  },
  "schemaVersion": "3.4.3",
  "updatedAt": "2021-10-26T11:45:25.449Z",
  "devdoc": {
    "kind": "dev",
    "methods": {
      "balanceOf(address,uint256)": {
        "details": "See {IERC1155-balanceOf}. Requirements: - `account` cannot be the zero address."
      },
      "balanceOfBatch(address[],uint256[])": {
        "details": "See {IERC1155-balanceOfBatch}. Requirements: - `accounts` and `ids` must have the same length."
      },
      "exists(uint256)": {
        "details": "Indicates weither any token exist with a given id, or not."
      },
      "isApprovedForAll(address,address)": {
        "details": "See {IERC1155-isApprovedForAll}."
      },
      "safeBatchTransferFrom(address,address,uint256[],uint256[],bytes)": {
        "details": "See {IERC1155-safeBatchTransferFrom}."
      },
      "safeTransferFrom(address,address,uint256,uint256,bytes)": {
        "details": "See {IERC1155-safeTransferFrom}."
      },
      "setApprovalForAll(address,bool)": {
        "details": "See {IERC1155-setApprovalForAll}."
      },
      "supportsInterface(bytes4)": {
        "details": "See {IERC165-supportsInterface}."
      },
      "totalSupply(uint256)": {
        "details": "Total amount of tokens in with a given id."
      },
      "uri(uint256)": {
        "details": "See {IERC1155MetadataURI-uri}. This implementation returns the same URI for *all* token types. It relies on the token type ID substitution mechanism https://eips.ethereum.org/EIPS/eip-1155#metadata[defined in the EIP]. Clients calling this function must replace the `\\{id\\}` substring with the actual token type ID."
      }
    },
    "version": 1
  },
  "userdoc": {
    "kind": "user",
    "methods": {},
    "version": 1
  }
}