{
  "contractName": "ERC20VotesCompMock",
  "abi": [
    {
      "inputs": [
        {
          "internalType": "string",
          "name": "name",
          "type": "string"
        },
        {
          "internalType": "string",
          "name": "symbol",
          "type": "string"
        }
      ],
      "stateMutability": "nonpayable",
      "type": "constructor"
    },
    {
      "anonymous": false,
      "inputs": [
        {
          "indexed": true,
          "internalType": "address",
          "name": "owner",
          "type": "address"
        },
        {
          "indexed": true,
          "internalType": "address",
          "name": "spender",
          "type": "address"
        },
        {
          "indexed": false,
          "internalType": "uint256",
          "name": "value",
          "type": "uint256"
        }
      ],
      "name": "Approval",
      "type": "event"
    },
    {
      "anonymous": false,
      "inputs": [
        {
          "indexed": true,
          "internalType": "address",
          "name": "delegator",
          "type": "address"
        },
        {
          "indexed": true,
          "internalType": "address",
          "name": "fromDelegate",
          "type": "address"
        },
        {
          "indexed": true,
          "internalType": "address",
          "name": "toDelegate",
          "type": "address"
        }
      ],
      "name": "DelegateChanged",
      "type": "event"
    },
    {
      "anonymous": false,
      "inputs": [
        {
          "indexed": true,
          "internalType": "address",
          "name": "delegate",
          "type": "address"
        },
        {
          "indexed": false,
          "internalType": "uint256",
          "name": "previousBalance",
          "type": "uint256"
        },
        {
          "indexed": false,
          "internalType": "uint256",
          "name": "newBalance",
          "type": "uint256"
        }
      ],
      "name": "DelegateVotesChanged",
      "type": "event"
    },
    {
      "anonymous": false,
      "inputs": [
        {
          "indexed": true,
          "internalType": "address",
          "name": "from",
          "type": "address"
        },
        {
          "indexed": true,
          "internalType": "address",
          "name": "to",
          "type": "address"
        },
        {
          "indexed": false,
          "internalType": "uint256",
          "name": "value",
          "type": "uint256"
        }
      ],
      "name": "Transfer",
      "type": "event"
    },
    {
      "inputs": [],
      "name": "DOMAIN_SEPARATOR",
      "outputs": [
        {
          "internalType": "bytes32",
          "name": "",
          "type": "bytes32"
        }
      ],
      "stateMutability": "view",
      "type": "function"
    },
    {
      "inputs": [
        {
          "internalType": "address",
          "name": "owner",
          "type": "address"
        },
        {
          "internalType": "address",
          "name": "spender",
          "type": "address"
        }
      ],
      "name": "allowance",
      "outputs": [
        {
          "internalType": "uint256",
          "name": "",
          "type": "uint256"
        }
      ],
      "stateMutability": "view",
      "type": "function"
    },
    {
      "inputs": [
        {
          "internalType": "address",
          "name": "spender",
          "type": "address"
        },
        {
          "internalType": "uint256",
          "name": "amount",
          "type": "uint256"
        }
      ],
      "name": "approve",
      "outputs": [
        {
          "internalType": "bool",
          "name": "",
          "type": "bool"
        }
      ],
      "stateMutability": "nonpayable",
      "type": "function"
    },
    {
      "inputs": [
        {
          "internalType": "address",
          "name": "account",
          "type": "address"
        }
      ],
      "name": "balanceOf",
      "outputs": [
        {
          "internalType": "uint256",
          "name": "",
          "type": "uint256"
        }
      ],
      "stateMutability": "view",
      "type": "function"
    },
    {
      "inputs": [
        {
          "internalType": "address",
          "name": "account",
          "type": "address"
        },
        {
          "internalType": "uint32",
          "name": "pos",
          "type": "uint32"
        }
      ],
      "name": "checkpoints",
      "outputs": [
        {
          "components": [
            {
              "internalType": "uint32",
              "name": "fromBlock",
              "type": "uint32"
            },
            {
              "internalType": "uint224",
              "name": "votes",
              "type": "uint224"
            }
          ],
          "internalType": "struct ERC20Votes.Checkpoint",
          "name": "",
          "type": "tuple"
        }
      ],
      "stateMutability": "view",
      "type": "function"
    },
    {
      "inputs": [],
      "name": "decimals",
      "outputs": [
        {
          "internalType": "uint8",
          "name": "",
          "type": "uint8"
        }
      ],
      "stateMutability": "view",
      "type": "function"
    },
    {
      "inputs": [
        {
          "internalType": "address",
          "name": "spender",
          "type": "address"
        },
        {
          "internalType": "uint256",
          "name": "subtractedValue",
          "type": "uint256"
        }
      ],
      "name": "decreaseAllowance",
      "outputs": [
        {
          "internalType": "bool",
          "name": "",
          "type": "bool"
        }
      ],
      "stateMutability": "nonpayable",
      "type": "function"
    },
    {
      "inputs": [
        {
          "internalType": "address",
          "name": "delegatee",
          "type": "address"
        }
      ],
      "name": "delegate",
      "outputs": [],
      "stateMutability": "nonpayable",
      "type": "function"
    },
    {
      "inputs": [
        {
          "internalType": "address",
          "name": "delegatee",
          "type": "address"
        },
        {
          "internalType": "uint256",
          "name": "nonce",
          "type": "uint256"
        },
        {
          "internalType": "uint256",
          "name": "expiry",
          "type": "uint256"
        },
        {
          "internalType": "uint8",
          "name": "v",
          "type": "uint8"
        },
        {
          "internalType": "bytes32",
          "name": "r",
          "type": "bytes32"
        },
        {
          "internalType": "bytes32",
          "name": "s",
          "type": "bytes32"
        }
      ],
      "name": "delegateBySig",
      "outputs": [],
      "stateMutability": "nonpayable",
      "type": "function"
    },
    {
      "inputs": [
        {
          "internalType": "address",
          "name": "account",
          "type": "address"
        }
      ],
      "name": "delegates",
      "outputs": [
        {
          "internalType": "address",
          "name": "",
          "type": "address"
        }
      ],
      "stateMutability": "view",
      "type": "function"
    },
    {
      "inputs": [
        {
          "internalType": "address",
          "name": "account",
          "type": "address"
        }
      ],
      "name": "getCurrentVotes",
      "outputs": [
        {
          "internalType": "uint96",
          "name": "",
          "type": "uint96"
        }
      ],
      "stateMutability": "view",
      "type": "function"
    },
    {
      "inputs": [
        {
          "internalType": "uint256",
          "name": "blockNumber",
          "type": "uint256"
        }
      ],
      "name": "getPastTotalSupply",
      "outputs": [
        {
          "internalType": "uint256",
          "name": "",
          "type": "uint256"
        }
      ],
      "stateMutability": "view",
      "type": "function"
    },
    {
      "inputs": [
        {
          "internalType": "address",
          "name": "account",
          "type": "address"
        },
        {
          "internalType": "uint256",
          "name": "blockNumber",
          "type": "uint256"
        }
      ],
      "name": "getPastVotes",
      "outputs": [
        {
          "internalType": "uint256",
          "name": "",
          "type": "uint256"
        }
      ],
      "stateMutability": "view",
      "type": "function"
    },
    {
      "inputs": [
        {
          "internalType": "address",
          "name": "account",
          "type": "address"
        },
        {
          "internalType": "uint256",
          "name": "blockNumber",
          "type": "uint256"
        }
      ],
      "name": "getPriorVotes",
      "outputs": [
        {
          "internalType": "uint96",
          "name": "",
          "type": "uint96"
        }
      ],
      "stateMutability": "view",
      "type": "function"
    },
    {
      "inputs": [
        {
          "internalType": "address",
          "name": "account",
          "type": "address"
        }
      ],
      "name": "getVotes",
      "outputs": [
        {
          "internalType": "uint256",
          "name": "",
          "type": "uint256"
        }
      ],
      "stateMutability": "view",
      "type": "function"
    },
    {
      "inputs": [
        {
          "internalType": "address",
          "name": "spender",
          "type": "address"
        },
        {
          "internalType": "uint256",
          "name": "addedValue",
          "type": "uint256"
        }
      ],
      "name": "increaseAllowance",
      "outputs": [
        {
          "internalType": "bool",
          "name": "",
          "type": "bool"
        }
      ],
      "stateMutability": "nonpayable",
      "type": "function"
    },
    {
      "inputs": [],
      "name": "name",
      "outputs": [
        {
          "internalType": "string",
          "name": "",
          "type": "string"
        }
      ],
      "stateMutability": "view",
      "type": "function"
    },
    {
      "inputs": [
        {
          "internalType": "address",
          "name": "owner",
          "type": "address"
        }
      ],
      "name": "nonces",
      "outputs": [
        {
          "internalType": "uint256",
          "name": "",
          "type": "uint256"
        }
      ],
      "stateMutability": "view",
      "type": "function"
    },
    {
      "inputs": [
        {
          "internalType": "address",
          "name": "account",
          "type": "address"
        }
      ],
      "name": "numCheckpoints",
      "outputs": [
        {
          "internalType": "uint32",
          "name": "",
          "type": "uint32"
        }
      ],
      "stateMutability": "view",
      "type": "function"
    },
    {
      "inputs": [
        {
          "internalType": "address",
          "name": "owner",
          "type": "address"
        },
        {
          "internalType": "address",
          "name": "spender",
          "type": "address"
        },
        {
          "internalType": "uint256",
          "name": "value",
          "type": "uint256"
        },
        {
          "internalType": "uint256",
          "name": "deadline",
          "type": "uint256"
        },
        {
          "internalType": "uint8",
          "name": "v",
          "type": "uint8"
        },
        {
          "internalType": "bytes32",
          "name": "r",
          "type": "bytes32"
        },
        {
          "internalType": "bytes32",
          "name": "s",
          "type": "bytes32"
        }
      ],
      "name": "permit",
      "outputs": [],
      "stateMutability": "nonpayable",
      "type": "function"
    },
    {
      "inputs": [],
      "name": "symbol",
      "outputs": [
        {
          "internalType": "string",
          "name": "",
          "type": "string"
        }
      ],
      "stateMutability": "view",
      "type": "function"
    },
    {
      "inputs": [],
      "name": "totalSupply",
      "outputs": [
        {
          "internalType": "uint256",
          "name": "",
          "type": "uint256"
        }
      ],
      "stateMutability": "view",
      "type": "function"
    },
    {
      "inputs": [
        {
          "internalType": "address",
          "name": "recipient",
          "type": "address"
        },
        {
          "internalType": "uint256",
          "name": "amount",
          "type": "uint256"
        }
      ],
      "name": "transfer",
      "outputs": [
        {
          "internalType": "bool",
          "name": "",
          "type": "bool"
        }
      ],
      "stateMutability": "nonpayable",
      "type": "function"
    },
    {
      "inputs": [
        {
          "internalType": "address",
          "name": "sender",
          "type": "address"
        },
        {
          "internalType": "address",
          "name": "recipient",
          "type": "address"
        },
        {
          "internalType": "uint256",
          "name": "amount",
          "type": "uint256"
        }
      ],
      "name": "transferFrom",
      "outputs": [
        {
          "internalType": "bool",
          "name": "",
          "type": "bool"
        }
      ],
      "stateMutability": "nonpayable",
      "type": "function"
    },
    {
      "inputs": [
        {
          "internalType": "address",
          "name": "account",
          "type": "address"
        },
        {
          "internalType": "uint256",
          "name": "amount",
          "type": "uint256"
        }
      ],
      "name": "mint",
      "outputs": [],
      "stateMutability": "nonpayable",
      "type": "function"
    },
    {
      "inputs": [
        {
          "internalType": "address",
          "name": "account",
          "type": "address"
        },
        {
          "internalType": "uint256",
          "name": "amount",
          "type": "uint256"
        }
      ],
      "name": "burn",
      "outputs": [],
      "stateMutability": "nonpayable",
      "type": "function"
    },
    {
      "inputs": [],
      "name": "getChainId",
      "outputs": [
        {
          "internalType": "uint256",
          "name": "",
          "type": "uint256"
        }
      ],
      "stateMutability": "view",
      "type": "function"
    }
  ],
  "bytecode": "0x6101406040527f6e71edae12b1b97f4d1f60370fef10105fa2faae0126114a169c64845d6126c9610120908152503480156200003a57600080fd5b50604051620043aa380380620043aa8339818101604052810190620000609190620003dd565b81806040518060400160405280600181526020017f310000000000000000000000000000000000000000000000000000000000000081525084848160039080519060200190620000b292919062000190565b508060049080519060200190620000cb92919062000190565b50505060008280519060200120905060008280519060200120905060007f8b73c3c69bb8fe3d512ecc4cf759cc79239f7b179b0ffacaa9a75d522b39400f90508260c081815250508160e081815250504660a08181525050620001368184846200015460201b60201c565b6080818152505080610100818152505050505050505050506200059f565b6000838383463060405160200162000171959493929190620004dd565b6040516020818303038152906040528051906020012090509392505050565b8280546200019e9062000569565b90600052602060002090601f016020900481019282620001c257600085556200020e565b82601f10620001dd57805160ff19168380011785556200020e565b828001600101855582156200020e579182015b828111156200020d578251825591602001919060010190620001f0565b5b5090506200021d919062000221565b5090565b5b808211156200023c57600081600090555060010162000222565b5090565b6000604051905090565b600080fd5b600080fd5b600080fd5b600080fd5b6000601f19601f8301169050919050565b7f4e487b7100000000000000000000000000000000000000000000000000000000600052604160045260246000fd5b620002a9826200025e565b810181811067ffffffffffffffff82111715620002cb57620002ca6200026f565b5b80604052505050565b6000620002e062000240565b9050620002ee82826200029e565b919050565b600067ffffffffffffffff8211156200031157620003106200026f565b5b6200031c826200025e565b9050602081019050919050565b60005b83811015620003495780820151818401526020810190506200032c565b8381111562000359576000848401525b50505050565b6000620003766200037084620002f3565b620002d4565b90508281526020810184848401111562000395576200039462000259565b5b620003a284828562000329565b509392505050565b600082601f830112620003c257620003c162000254565b5b8151620003d48482602086016200035f565b91505092915050565b60008060408385031215620003f757620003f66200024a565b5b600083015167ffffffffffffffff8111156200041857620004176200024f565b5b6200042685828601620003aa565b925050602083015167ffffffffffffffff8111156200044a57620004496200024f565b5b6200045885828601620003aa565b9150509250929050565b6000819050919050565b620004778162000462565b82525050565b6000819050919050565b62000492816200047d565b82525050565b600073ffffffffffffffffffffffffffffffffffffffff82169050919050565b6000620004c58262000498565b9050919050565b620004d781620004b8565b82525050565b600060a082019050620004f460008301886200046c565b6200050360208301876200046c565b6200051260408301866200046c565b62000521606083018562000487565b620005306080830184620004cc565b9695505050505050565b7f4e487b7100000000000000000000000000000000000000000000000000000000600052602260045260246000fd5b600060028204905060018216806200058257607f821691505b602082108114156200059957620005986200053a565b5b50919050565b60805160a05160c05160e0516101005161012051613dbb620005ef6000396000610f08015260006116450152600061168701526000611666015260006115f20152600061161a0152613dbb6000f3fe608060405234801561001057600080fd5b50600436106101a95760003560e01c806370a08231116100f9578063a457c2d711610097578063c3cda52011610071578063c3cda52014610556578063d505accf14610572578063dd62ed3e1461058e578063f1127ed8146105be576101a9565b8063a457c2d7146104c6578063a9059cbb146104f6578063b4b5ea5714610526576101a9565b80638e539e8c116100d35780638e539e8c1461042c57806395d89b411461045c5780639ab24eb01461047a5780639dc29fac146104aa576101a9565b806370a082311461039c578063782d6fe1146103cc5780637ecebe00146103fc576101a9565b80633644e5151161016657806340c10f191161014057806340c10f1914610304578063587cde1e146103205780635c19a95c146103505780636fcfff451461036c576101a9565b80633644e5151461028657806339509351146102a45780633a46b1a8146102d4576101a9565b806306fdde03146101ae578063095ea7b3146101cc57806318160ddd146101fc57806323b872dd1461021a578063313ce5671461024a5780633408e47014610268575b600080fd5b6101b66105ee565b6040516101c391906127cd565b60405180910390f35b6101e660048036038101906101e19190612888565b610680565b6040516101f391906128e3565b60405180910390f35b61020461069e565b604051610211919061290d565b60405180910390f35b610234600480360381019061022f9190612928565b6106a8565b60405161024191906128e3565b60405180910390f35b6102526107a0565b60405161025f9190612997565b60405180910390f35b6102706107a9565b60405161027d919061290d565b60405180910390f35b61028e6107b1565b60405161029b91906129cb565b60405180910390f35b6102be60048036038101906102b99190612888565b6107c0565b6040516102cb91906128e3565b60405180910390f35b6102ee60048036038101906102e99190612888565b61086c565b6040516102fb919061290d565b60405180910390f35b61031e60048036038101906103199190612888565b610900565b005b61033a600480360381019061033591906129e6565b61090e565b6040516103479190612a22565b60405180910390f35b61036a600480360381019061036591906129e6565b610977565b005b610386600480360381019061038191906129e6565b61098b565b6040516103939190612a5c565b60405180910390f35b6103b660048036038101906103b191906129e6565b6109df565b6040516103c3919061290d565b60405180910390f35b6103e660048036038101906103e19190612888565b610a27565b6040516103f39190612a9e565b60405180910390f35b610416600480360381019061041191906129e6565b610a43565b604051610423919061290d565b60405180910390f35b61044660048036038101906104419190612ab9565b610a93565b604051610453919061290d565b60405180910390f35b610464610ae9565b60405161047191906127cd565b60405180910390f35b610494600480360381019061048f91906129e6565b610b7b565b6040516104a1919061290d565b60405180910390f35b6104c460048036038101906104bf9190612888565b610c8c565b005b6104e060048036038101906104db9190612888565b610c9a565b6040516104ed91906128e3565b60405180910390f35b610510600480360381019061050b9190612888565b610d85565b60405161051d91906128e3565b60405180910390f35b610540600480360381019061053b91906129e6565b610da3565b60405161054d9190612a9e565b60405180910390f35b610570600480360381019061056b9190612b3e565b610dbd565b005b61058c60048036038101906105879190612bcb565b610ec1565b005b6105a860048036038101906105a39190612c6d565b611003565b6040516105b5919061290d565b60405180910390f35b6105d860048036038101906105d39190612cd9565b61108a565b6040516105e59190612d8e565b60405180910390f35b6060600380546105fd90612dd8565b80601f016020809104026020016040519081016040528092919081815260200182805461062990612dd8565b80156106765780601f1061064b57610100808354040283529160200191610676565b820191906000526020600020905b81548152906001019060200180831161065957829003601f168201915b5050505050905090565b600061069461068d61119a565b84846111a2565b6001905092915050565b6000600254905090565b60006106b584848461136d565b6000600160008673ffffffffffffffffffffffffffffffffffffffff1673ffffffffffffffffffffffffffffffffffffffff168152602001908152602001600020600061070061119a565b73ffffffffffffffffffffffffffffffffffffffff1673ffffffffffffffffffffffffffffffffffffffff16815260200190815260200160002054905082811015610780576040517f08c379a000000000000000000000000000000000000000000000000000000000815260040161077790612e7c565b60405180910390fd5b6107948561078c61119a565b8584036111a2565b60019150509392505050565b60006012905090565b600046905090565b60006107bb6115ee565b905090565b60006108626107cd61119a565b8484600160006107db61119a565b73ffffffffffffffffffffffffffffffffffffffff1673ffffffffffffffffffffffffffffffffffffffff16815260200190815260200160002060008873ffffffffffffffffffffffffffffffffffffffff1673ffffffffffffffffffffffffffffffffffffffff1681526020019081526020016000205461085d9190612ecb565b6111a2565b6001905092915050565b60004382106108b0576040517f08c379a00000000000000000000000000000000000000000000000000000000081526004016108a790612f6d565b60405180910390fd5b6108f8600760008573ffffffffffffffffffffffffffffffffffffffff1673ffffffffffffffffffffffffffffffffffffffff168152602001908152602001600020836116b1565b905092915050565b61090a82826117bd565b5050565b6000600660008373ffffffffffffffffffffffffffffffffffffffff1673ffffffffffffffffffffffffffffffffffffffff16815260200190815260200160002060009054906101000a900473ffffffffffffffffffffffffffffffffffffffff169050919050565b61098861098261119a565b8261184a565b50565b60006109d8600760008473ffffffffffffffffffffffffffffffffffffffff1673ffffffffffffffffffffffffffffffffffffffff16815260200190815260200160002080549050611964565b9050919050565b60008060008373ffffffffffffffffffffffffffffffffffffffff1673ffffffffffffffffffffffffffffffffffffffff168152602001908152602001600020549050919050565b6000610a3b610a36848461086c565b6119b7565b905092915050565b6000610a8c600560008473ffffffffffffffffffffffffffffffffffffffff1673ffffffffffffffffffffffffffffffffffffffff168152602001908152602001600020611a12565b9050919050565b6000438210610ad7576040517f08c379a0000000000000000000000000000000000000000000000000000000008152600401610ace90612f6d565b60405180910390fd5b610ae26008836116b1565b9050919050565b606060048054610af890612dd8565b80601f0160208091040260200160405190810160405280929190818152602001828054610b2490612dd8565b8015610b715780601f10610b4657610100808354040283529160200191610b71565b820191906000526020600020905b815481529060010190602001808311610b5457829003601f168201915b5050505050905090565b600080600760008473ffffffffffffffffffffffffffffffffffffffff1673ffffffffffffffffffffffffffffffffffffffff16815260200190815260200160002080549050905060008114610c6357600760008473ffffffffffffffffffffffffffffffffffffffff1673ffffffffffffffffffffffffffffffffffffffff168152602001908152602001600020600182610c179190612f8d565b81548110610c2857610c27612fc1565b5b9060005260206000200160000160049054906101000a90047bffffffffffffffffffffffffffffffffffffffffffffffffffffffff16610c66565b60005b7bffffffffffffffffffffffffffffffffffffffffffffffffffffffff16915050919050565b610c968282611a20565b5050565b60008060016000610ca961119a565b73ffffffffffffffffffffffffffffffffffffffff1673ffffffffffffffffffffffffffffffffffffffff16815260200190815260200160002060008573ffffffffffffffffffffffffffffffffffffffff1673ffffffffffffffffffffffffffffffffffffffff16815260200190815260200160002054905082811015610d66576040517f08c379a0000000000000000000000000000000000000000000000000000000008152600401610d5d90613062565b60405180910390fd5b610d7a610d7161119a565b858584036111a2565b600191505092915050565b6000610d99610d9261119a565b848461136d565b6001905092915050565b6000610db6610db183610b7b565b6119b7565b9050919050565b83421115610e00576040517f08c379a0000000000000000000000000000000000000000000000000000000008152600401610df7906130ce565b60405180910390fd5b6000610e62610e5a7fe48329057bfd03d55e49b547132e39cffd9c1820ad7b9d4c5307691425d15adf898989604051602001610e3f94939291906130ee565b60405160208183030381529060405280519060200120611a3e565b858585611a58565b9050610e6d81611a83565b8614610eae576040517f08c379a0000000000000000000000000000000000000000000000000000000008152600401610ea59061317f565b60405180910390fd5b610eb8818861184a565b50505050505050565b83421115610f04576040517f08c379a0000000000000000000000000000000000000000000000000000000008152600401610efb906131eb565b60405180910390fd5b60007f0000000000000000000000000000000000000000000000000000000000000000888888610f338c611a83565b89604051602001610f499695949392919061320b565b6040516020818303038152906040528051906020012090506000610f6c82611a3e565b90506000610f7c82878787611a58565b90508973ffffffffffffffffffffffffffffffffffffffff168173ffffffffffffffffffffffffffffffffffffffff1614610fec576040517f08c379a0000000000000000000000000000000000000000000000000000000008152600401610fe3906132b8565b60405180910390fd5b610ff78a8a8a6111a2565b50505050505050505050565b6000600160008473ffffffffffffffffffffffffffffffffffffffff1673ffffffffffffffffffffffffffffffffffffffff16815260200190815260200160002060008373ffffffffffffffffffffffffffffffffffffffff1673ffffffffffffffffffffffffffffffffffffffff16815260200190815260200160002054905092915050565b6110926126f6565b600760008473ffffffffffffffffffffffffffffffffffffffff1673ffffffffffffffffffffffffffffffffffffffff1681526020019081526020016000208263ffffffff16815481106110e9576110e8612fc1565b5b906000526020600020016040518060400160405290816000820160009054906101000a900463ffffffff1663ffffffff1663ffffffff1681526020016000820160049054906101000a90047bffffffffffffffffffffffffffffffffffffffffffffffffffffffff167bffffffffffffffffffffffffffffffffffffffffffffffffffffffff167bffffffffffffffffffffffffffffffffffffffffffffffffffffffff1681525050905092915050565b600033905090565b600073ffffffffffffffffffffffffffffffffffffffff168373ffffffffffffffffffffffffffffffffffffffff161415611212576040517f08c379a00000000000000000000000000000000000000000000000000000000081526004016112099061334a565b60405180910390fd5b600073ffffffffffffffffffffffffffffffffffffffff168273ffffffffffffffffffffffffffffffffffffffff161415611282576040517f08c379a0000000000000000000000000000000000000000000000000000000008152600401611279906133dc565b60405180910390fd5b80600160008573ffffffffffffffffffffffffffffffffffffffff1673ffffffffffffffffffffffffffffffffffffffff16815260200190815260200160002060008473ffffffffffffffffffffffffffffffffffffffff1673ffffffffffffffffffffffffffffffffffffffff168152602001908152602001600020819055508173ffffffffffffffffffffffffffffffffffffffff168373ffffffffffffffffffffffffffffffffffffffff167f8c5be1e5ebec7d5bd14f71427d1e84f3dd0314c0f7b2291e5b200ac8c7c3b92583604051611360919061290d565b60405180910390a3505050565b600073ffffffffffffffffffffffffffffffffffffffff168373ffffffffffffffffffffffffffffffffffffffff1614156113dd576040517f08c379a00000000000000000000000000000000000000000000000000000000081526004016113d49061346e565b60405180910390fd5b600073ffffffffffffffffffffffffffffffffffffffff168273ffffffffffffffffffffffffffffffffffffffff16141561144d576040517f08c379a000000000000000000000000000000000000000000000000000000000815260040161144490613500565b60405180910390fd5b611458838383611ae1565b60008060008573ffffffffffffffffffffffffffffffffffffffff1673ffffffffffffffffffffffffffffffffffffffff168152602001908152602001600020549050818110156114de576040517f08c379a00000000000000000000000000000000000000000000000000000000081526004016114d590613592565b60405180910390fd5b8181036000808673ffffffffffffffffffffffffffffffffffffffff1673ffffffffffffffffffffffffffffffffffffffff16815260200190815260200160002081905550816000808573ffffffffffffffffffffffffffffffffffffffff1673ffffffffffffffffffffffffffffffffffffffff16815260200190815260200160002060008282546115719190612ecb565b925050819055508273ffffffffffffffffffffffffffffffffffffffff168473ffffffffffffffffffffffffffffffffffffffff167fddf252ad1be2c89b69c2b068fc378daa952ba7f163c4a11628f55a4df523b3ef846040516115d5919061290d565b60405180910390a36115e8848484611ae6565b50505050565b60007f0000000000000000000000000000000000000000000000000000000000000000461415611640577f000000000000000000000000000000000000000000000000000000000000000090506116ae565b6116ab7f00000000000000000000000000000000000000000000000000000000000000007f00000000000000000000000000000000000000000000000000000000000000007f0000000000000000000000000000000000000000000000000000000000000000611b11565b90505b90565b6000808380549050905060005b818110156117305760006116d28284611b4b565b9050848682815481106116e8576116e7612fc1565b5b9060005260206000200160000160009054906101000a900463ffffffff1663ffffffff16111561171a5780925061172a565b6001816117279190612ecb565b91505b506116be565b6000821461179257846001836117469190612f8d565b8154811061175757611756612fc1565b5b9060005260206000200160000160049054906101000a90047bffffffffffffffffffffffffffffffffffffffffffffffffffffffff16611795565b60005b7bffffffffffffffffffffffffffffffffffffffffffffffffffffffff169250505092915050565b6117c78282611b71565b6117cf611cd1565b7bffffffffffffffffffffffffffffffffffffffffffffffffffffffff166117f561069e565b1115611836576040517f08c379a000000000000000000000000000000000000000000000000000000000815260040161182d90613624565b60405180910390fd5b6118446008611ce783611cfd565b50505050565b60006118558361090e565b90506000611862846109df565b905082600660008673ffffffffffffffffffffffffffffffffffffffff1673ffffffffffffffffffffffffffffffffffffffff16815260200190815260200160002060006101000a81548173ffffffffffffffffffffffffffffffffffffffff021916908373ffffffffffffffffffffffffffffffffffffffff1602179055508273ffffffffffffffffffffffffffffffffffffffff168273ffffffffffffffffffffffffffffffffffffffff168573ffffffffffffffffffffffffffffffffffffffff167f3134e8a2e6d97e929a7e54011ea5485d7d196dd5f0ba4d4ef95803e8e3fc257f60405160405180910390a461195e828483611f75565b50505050565b600063ffffffff80168211156119af576040517f08c379a00000000000000000000000000000000000000000000000000000000081526004016119a6906136b6565b60405180910390fd5b819050919050565b60006bffffffffffffffffffffffff8016821115611a0a576040517f08c379a0000000000000000000000000000000000000000000000000000000008152600401611a0190613748565b60405180910390fd5b819050919050565b600081600001549050919050565b611a2a828261216e565b611a38600861234583611cfd565b50505050565b6000611a51611a4b6115ee565b8361235b565b9050919050565b6000806000611a698787878761238e565b91509150611a768161249b565b8192505050949350505050565b600080600560008473ffffffffffffffffffffffffffffffffffffffff1673ffffffffffffffffffffffffffffffffffffffff1681526020019081526020016000209050611ad081611a12565b9150611adb81612670565b50919050565b505050565b611af1838383612686565b611b0c611afd8461090e565b611b068461090e565b83611f75565b505050565b60008383834630604051602001611b2c959493929190613768565b6040516020818303038152906040528051906020012090509392505050565b60006002828418611b5c91906137ea565b828416611b699190612ecb565b905092915050565b600073ffffffffffffffffffffffffffffffffffffffff168273ffffffffffffffffffffffffffffffffffffffff161415611be1576040517f08c379a0000000000000000000000000000000000000000000000000000000008152600401611bd890613867565b60405180910390fd5b611bed60008383611ae1565b8060026000828254611bff9190612ecb565b92505081905550806000808473ffffffffffffffffffffffffffffffffffffffff1673ffffffffffffffffffffffffffffffffffffffff1681526020019081526020016000206000828254611c549190612ecb565b925050819055508173ffffffffffffffffffffffffffffffffffffffff16600073ffffffffffffffffffffffffffffffffffffffff167fddf252ad1be2c89b69c2b068fc378daa952ba7f163c4a11628f55a4df523b3ef83604051611cb9919061290d565b60405180910390a3611ccd60008383611ae6565b5050565b60006bffffffffffffffffffffffff8016905090565b60008183611cf59190612ecb565b905092915050565b60008060008580549050905060008114611d6b5785600182611d1f9190612f8d565b81548110611d3057611d2f612fc1565b5b9060005260206000200160000160049054906101000a90047bffffffffffffffffffffffffffffffffffffffffffffffffffffffff16611d6e565b60005b7bffffffffffffffffffffffffffffffffffffffffffffffffffffffff169250611d9c83858763ffffffff16565b9150600081118015611def57504386600183611db89190612f8d565b81548110611dc957611dc8612fc1565b5b9060005260206000200160000160009054906101000a900463ffffffff1663ffffffff16145b15611e7c57611dfd8261268b565b86600183611e0b9190612f8d565b81548110611e1c57611e1b612fc1565b5b9060005260206000200160000160046101000a8154817bffffffffffffffffffffffffffffffffffffffffffffffffffffffff02191690837bffffffffffffffffffffffffffffffffffffffffffffffffffffffff160217905550611f6c565b856040518060400160405280611e9143611964565b63ffffffff168152602001611ea58561268b565b7bffffffffffffffffffffffffffffffffffffffffffffffffffffffff168152509080600181540180825580915050600190039060005260206000200160009091909190915060008201518160000160006101000a81548163ffffffff021916908363ffffffff16021790555060208201518160000160046101000a8154817bffffffffffffffffffffffffffffffffffffffffffffffffffffffff02191690837bffffffffffffffffffffffffffffffffffffffffffffffffffffffff16021790555050505b50935093915050565b8173ffffffffffffffffffffffffffffffffffffffff168373ffffffffffffffffffffffffffffffffffffffff1614158015611fb15750600081115b1561216957600073ffffffffffffffffffffffffffffffffffffffff168373ffffffffffffffffffffffffffffffffffffffff161461208f57600080612038600760008773ffffffffffffffffffffffffffffffffffffffff1673ffffffffffffffffffffffffffffffffffffffff16815260200190815260200160002061234585611cfd565b915091508473ffffffffffffffffffffffffffffffffffffffff167fdec2bacdd2f05b59de34da9b523dff8be42e5e38e818c82fdb0bae774387a7248383604051612084929190613887565b60405180910390a250505b600073ffffffffffffffffffffffffffffffffffffffff168273ffffffffffffffffffffffffffffffffffffffff161461216857600080612111600760008673ffffffffffffffffffffffffffffffffffffffff1673ffffffffffffffffffffffffffffffffffffffff168152602001908152602001600020611ce785611cfd565b915091508373ffffffffffffffffffffffffffffffffffffffff167fdec2bacdd2f05b59de34da9b523dff8be42e5e38e818c82fdb0bae774387a724838360405161215d929190613887565b60405180910390a250505b5b505050565b600073ffffffffffffffffffffffffffffffffffffffff168273ffffffffffffffffffffffffffffffffffffffff1614156121de576040517f08c379a00000000000000000000000000000000000000000000000000000000081526004016121d590613922565b60405180910390fd5b6121ea82600083611ae1565b60008060008473ffffffffffffffffffffffffffffffffffffffff1673ffffffffffffffffffffffffffffffffffffffff16815260200190815260200160002054905081811015612270576040517f08c379a0000000000000000000000000000000000000000000000000000000008152600401612267906139b4565b60405180910390fd5b8181036000808573ffffffffffffffffffffffffffffffffffffffff1673ffffffffffffffffffffffffffffffffffffffff1681526020019081526020016000208190555081600260008282546122c79190612f8d565b92505081905550600073ffffffffffffffffffffffffffffffffffffffff168373ffffffffffffffffffffffffffffffffffffffff167fddf252ad1be2c89b69c2b068fc378daa952ba7f163c4a11628f55a4df523b3ef8460405161232c919061290d565b60405180910390a361234083600084611ae6565b505050565b600081836123539190612f8d565b905092915050565b60008282604051602001612370929190613a4c565b60405160208183030381529060405280519060200120905092915050565b6000807f7fffffffffffffffffffffffffffffff5d576e7357a4501ddfe92f46681b20a08360001c11156123c9576000600391509150612492565b601b8560ff16141580156123e15750601c8560ff1614155b156123f3576000600491509150612492565b6000600187878787604051600081526020016040526040516124189493929190613a83565b6020604051602081039080840390855afa15801561243a573d6000803e3d6000fd5b505050602060405103519050600073ffffffffffffffffffffffffffffffffffffffff168173ffffffffffffffffffffffffffffffffffffffff16141561248957600060019250925050612492565b80600092509250505b94509492505050565b600060048111156124af576124ae613ac8565b5b8160048111156124c2576124c1613ac8565b5b14156124cd5761266d565b600160048111156124e1576124e0613ac8565b5b8160048111156124f4576124f3613ac8565b5b1415612535576040517f08c379a000000000000000000000000000000000000000000000000000000000815260040161252c90613b43565b60405180910390fd5b6002600481111561254957612548613ac8565b5b81600481111561255c5761255b613ac8565b5b141561259d576040517f08c379a000000000000000000000000000000000000000000000000000000000815260040161259490613baf565b60405180910390fd5b600360048111156125b1576125b0613ac8565b5b8160048111156125c4576125c3613ac8565b5b1415612605576040517f08c379a00000000000000000000000000000000000000000000000000000000081526004016125fc90613c41565b60405180910390fd5b60048081111561261857612617613ac8565b5b81600481111561262b5761262a613ac8565b5b141561266c576040517f08c379a000000000000000000000000000000000000000000000000000000000815260040161266390613cd3565b60405180910390fd5b5b50565b6001816000016000828254019250508190555050565b505050565b60007bffffffffffffffffffffffffffffffffffffffffffffffffffffffff80168211156126ee576040517f08c379a00000000000000000000000000000000000000000000000000000000081526004016126e590613d65565b60405180910390fd5b819050919050565b6040518060400160405280600063ffffffff16815260200160007bffffffffffffffffffffffffffffffffffffffffffffffffffffffff1681525090565b600081519050919050565b600082825260208201905092915050565b60005b8381101561276e578082015181840152602081019050612753565b8381111561277d576000848401525b50505050565b6000601f19601f8301169050919050565b600061279f82612734565b6127a9818561273f565b93506127b9818560208601612750565b6127c281612783565b840191505092915050565b600060208201905081810360008301526127e78184612794565b905092915050565b600080fd5b600073ffffffffffffffffffffffffffffffffffffffff82169050919050565b600061281f826127f4565b9050919050565b61282f81612814565b811461283a57600080fd5b50565b60008135905061284c81612826565b92915050565b6000819050919050565b61286581612852565b811461287057600080fd5b50565b6000813590506128828161285c565b92915050565b6000806040838503121561289f5761289e6127ef565b5b60006128ad8582860161283d565b92505060206128be85828601612873565b9150509250929050565b60008115159050919050565b6128dd816128c8565b82525050565b60006020820190506128f860008301846128d4565b92915050565b61290781612852565b82525050565b600060208201905061292260008301846128fe565b92915050565b600080600060608486031215612941576129406127ef565b5b600061294f8682870161283d565b93505060206129608682870161283d565b925050604061297186828701612873565b9150509250925092565b600060ff82169050919050565b6129918161297b565b82525050565b60006020820190506129ac6000830184612988565b92915050565b6000819050919050565b6129c5816129b2565b82525050565b60006020820190506129e060008301846129bc565b92915050565b6000602082840312156129fc576129fb6127ef565b5b6000612a0a8482850161283d565b91505092915050565b612a1c81612814565b82525050565b6000602082019050612a376000830184612a13565b92915050565b600063ffffffff82169050919050565b612a5681612a3d565b82525050565b6000602082019050612a716000830184612a4d565b92915050565b60006bffffffffffffffffffffffff82169050919050565b612a9881612a77565b82525050565b6000602082019050612ab36000830184612a8f565b92915050565b600060208284031215612acf57612ace6127ef565b5b6000612add84828501612873565b91505092915050565b612aef8161297b565b8114612afa57600080fd5b50565b600081359050612b0c81612ae6565b92915050565b612b1b816129b2565b8114612b2657600080fd5b50565b600081359050612b3881612b12565b92915050565b60008060008060008060c08789031215612b5b57612b5a6127ef565b5b6000612b6989828a0161283d565b9650506020612b7a89828a01612873565b9550506040612b8b89828a01612873565b9450506060612b9c89828a01612afd565b9350506080612bad89828a01612b29565b92505060a0612bbe89828a01612b29565b9150509295509295509295565b600080600080600080600060e0888a031215612bea57612be96127ef565b5b6000612bf88a828b0161283d565b9750506020612c098a828b0161283d565b9650506040612c1a8a828b01612873565b9550506060612c2b8a828b01612873565b9450506080612c3c8a828b01612afd565b93505060a0612c4d8a828b01612b29565b92505060c0612c5e8a828b01612b29565b91505092959891949750929550565b60008060408385031215612c8457612c836127ef565b5b6000612c928582860161283d565b9250506020612ca38582860161283d565b9150509250929050565b612cb681612a3d565b8114612cc157600080fd5b50565b600081359050612cd381612cad565b92915050565b60008060408385031215612cf057612cef6127ef565b5b6000612cfe8582860161283d565b9250506020612d0f85828601612cc4565b9150509250929050565b612d2281612a3d565b82525050565b60007bffffffffffffffffffffffffffffffffffffffffffffffffffffffff82169050919050565b612d5981612d28565b82525050565b604082016000820151612d756000850182612d19565b506020820151612d886020850182612d50565b50505050565b6000604082019050612da36000830184612d5f565b92915050565b7f4e487b7100000000000000000000000000000000000000000000000000000000600052602260045260246000fd5b60006002820490506001821680612df057607f821691505b60208210811415612e0457612e03612da9565b5b50919050565b7f45524332303a207472616e7366657220616d6f756e742065786365656473206160008201527f6c6c6f77616e6365000000000000000000000000000000000000000000000000602082015250565b6000612e6660288361273f565b9150612e7182612e0a565b604082019050919050565b60006020820190508181036000830152612e9581612e59565b9050919050565b7f4e487b7100000000000000000000000000000000000000000000000000000000600052601160045260246000fd5b6000612ed682612852565b9150612ee183612852565b9250827fffffffffffffffffffffffffffffffffffffffffffffffffffffffffffffffff03821115612f1657612f15612e9c565b5b828201905092915050565b7f4552433230566f7465733a20626c6f636b206e6f7420796574206d696e656400600082015250565b6000612f57601f8361273f565b9150612f6282612f21565b602082019050919050565b60006020820190508181036000830152612f8681612f4a565b9050919050565b6000612f9882612852565b9150612fa383612852565b925082821015612fb657612fb5612e9c565b5b828203905092915050565b7f4e487b7100000000000000000000000000000000000000000000000000000000600052603260045260246000fd5b7f45524332303a2064656372656173656420616c6c6f77616e63652062656c6f7760008201527f207a65726f000000000000000000000000000000000000000000000000000000602082015250565b600061304c60258361273f565b915061305782612ff0565b604082019050919050565b6000602082019050818103600083015261307b8161303f565b9050919050565b7f4552433230566f7465733a207369676e61747572652065787069726564000000600082015250565b60006130b8601d8361273f565b91506130c382613082565b602082019050919050565b600060208201905081810360008301526130e7816130ab565b9050919050565b600060808201905061310360008301876129bc565b6131106020830186612a13565b61311d60408301856128fe565b61312a60608301846128fe565b95945050505050565b7f4552433230566f7465733a20696e76616c6964206e6f6e636500000000000000600082015250565b600061316960198361273f565b915061317482613133565b602082019050919050565b600060208201905081810360008301526131988161315c565b9050919050565b7f45524332305065726d69743a206578706972656420646561646c696e65000000600082015250565b60006131d5601d8361273f565b91506131e08261319f565b602082019050919050565b60006020820190508181036000830152613204816131c8565b9050919050565b600060c08201905061322060008301896129bc565b61322d6020830188612a13565b61323a6040830187612a13565b61324760608301866128fe565b61325460808301856128fe565b61326160a08301846128fe565b979650505050505050565b7f45524332305065726d69743a20696e76616c6964207369676e61747572650000600082015250565b60006132a2601e8361273f565b91506132ad8261326c565b602082019050919050565b600060208201905081810360008301526132d181613295565b9050919050565b7f45524332303a20617070726f76652066726f6d20746865207a65726f2061646460008201527f7265737300000000000000000000000000000000000000000000000000000000602082015250565b600061333460248361273f565b915061333f826132d8565b604082019050919050565b6000602082019050818103600083015261336381613327565b9050919050565b7f45524332303a20617070726f766520746f20746865207a65726f20616464726560008201527f7373000000000000000000000000000000000000000000000000000000000000602082015250565b60006133c660228361273f565b91506133d18261336a565b604082019050919050565b600060208201905081810360008301526133f5816133b9565b9050919050565b7f45524332303a207472616e736665722066726f6d20746865207a65726f20616460008201527f6472657373000000000000000000000000000000000000000000000000000000602082015250565b600061345860258361273f565b9150613463826133fc565b604082019050919050565b600060208201905081810360008301526134878161344b565b9050919050565b7f45524332303a207472616e7366657220746f20746865207a65726f206164647260008201527f6573730000000000000000000000000000000000000000000000000000000000602082015250565b60006134ea60238361273f565b91506134f58261348e565b604082019050919050565b60006020820190508181036000830152613519816134dd565b9050919050565b7f45524332303a207472616e7366657220616d6f756e742065786365656473206260008201527f616c616e63650000000000000000000000000000000000000000000000000000602082015250565b600061357c60268361273f565b915061358782613520565b604082019050919050565b600060208201905081810360008301526135ab8161356f565b9050919050565b7f4552433230566f7465733a20746f74616c20737570706c79207269736b73206f60008201527f766572666c6f77696e6720766f74657300000000000000000000000000000000602082015250565b600061360e60308361273f565b9150613619826135b2565b604082019050919050565b6000602082019050818103600083015261363d81613601565b9050919050565b7f53616665436173743a2076616c756520646f65736e27742066697420696e203360008201527f3220626974730000000000000000000000000000000000000000000000000000602082015250565b60006136a060268361273f565b91506136ab82613644565b604082019050919050565b600060208201905081810360008301526136cf81613693565b9050919050565b7f53616665436173743a2076616c756520646f65736e27742066697420696e203960008201527f3620626974730000000000000000000000000000000000000000000000000000602082015250565b600061373260268361273f565b915061373d826136d6565b604082019050919050565b6000602082019050818103600083015261376181613725565b9050919050565b600060a08201905061377d60008301886129bc565b61378a60208301876129bc565b61379760408301866129bc565b6137a460608301856128fe565b6137b16080830184612a13565b9695505050505050565b7f4e487b7100000000000000000000000000000000000000000000000000000000600052601260045260246000fd5b60006137f582612852565b915061380083612852565b9250826138105761380f6137bb565b5b828204905092915050565b7f45524332303a206d696e7420746f20746865207a65726f206164647265737300600082015250565b6000613851601f8361273f565b915061385c8261381b565b602082019050919050565b6000602082019050818103600083015261388081613844565b9050919050565b600060408201905061389c60008301856128fe565b6138a960208301846128fe565b9392505050565b7f45524332303a206275726e2066726f6d20746865207a65726f2061646472657360008201527f7300000000000000000000000000000000000000000000000000000000000000602082015250565b600061390c60218361273f565b9150613917826138b0565b604082019050919050565b6000602082019050818103600083015261393b816138ff565b9050919050565b7f45524332303a206275726e20616d6f756e7420657863656564732062616c616e60008201527f6365000000000000000000000000000000000000000000000000000000000000602082015250565b600061399e60228361273f565b91506139a982613942565b604082019050919050565b600060208201905081810360008301526139cd81613991565b9050919050565b600081905092915050565b7f1901000000000000000000000000000000000000000000000000000000000000600082015250565b6000613a156002836139d4565b9150613a20826139df565b600282019050919050565b6000819050919050565b613a46613a41826129b2565b613a2b565b82525050565b6000613a5782613a08565b9150613a638285613a35565b602082019150613a738284613a35565b6020820191508190509392505050565b6000608082019050613a9860008301876129bc565b613aa56020830186612988565b613ab260408301856129bc565b613abf60608301846129bc565b95945050505050565b7f4e487b7100000000000000000000000000000000000000000000000000000000600052602160045260246000fd5b7f45434453413a20696e76616c6964207369676e61747572650000000000000000600082015250565b6000613b2d60188361273f565b9150613b3882613af7565b602082019050919050565b60006020820190508181036000830152613b5c81613b20565b9050919050565b7f45434453413a20696e76616c6964207369676e6174757265206c656e67746800600082015250565b6000613b99601f8361273f565b9150613ba482613b63565b602082019050919050565b60006020820190508181036000830152613bc881613b8c565b9050919050565b7f45434453413a20696e76616c6964207369676e6174757265202773272076616c60008201527f7565000000000000000000000000000000000000000000000000000000000000602082015250565b6000613c2b60228361273f565b9150613c3682613bcf565b604082019050919050565b60006020820190508181036000830152613c5a81613c1e565b9050919050565b7f45434453413a20696e76616c6964207369676e6174757265202776272076616c60008201527f7565000000000000000000000000000000000000000000000000000000000000602082015250565b6000613cbd60228361273f565b9150613cc882613c61565b604082019050919050565b60006020820190508181036000830152613cec81613cb0565b9050919050565b7f53616665436173743a2076616c756520646f65736e27742066697420696e203260008201527f3234206269747300000000000000000000000000000000000000000000000000602082015250565b6000613d4f60278361273f565b9150613d5a82613cf3565b604082019050919050565b60006020820190508181036000830152613d7e81613d42565b905091905056fea26469706673582212208dabc1d3988d51c2623c48ebf0742ec53f9a43df127045053805f69c79e2a92664736f6c63430008090033",
  "immutableReferences": {
    "20877": [
      {
        "length": 32,
        "start": 3848
      }
    ],
    "26329": [
      {
        "length": 32,
        "start": 5658
      }
    ],
    "26331": [
      {
        "length": 32,
        "start": 5618
      }
    ],
    "26333": [
      {
        "length": 32,
        "start": 5734
      }
    ],
    "26335": [
      {
        "length": 32,
        "start": 5767
      }
    ],
    "26337": [
      {
        "length": 32,
        "start": 5701
      }
    ]
  },
  "source": "// SPDX-License-Identifier: MIT\r\n\r\npragma solidity ^0.8.0;\r\n\r\nimport \"../token/ERC20/extensions/ERC20VotesComp.sol\";\r\n\r\ncontract ERC20VotesCompMock is ERC20VotesComp {\r\n    constructor(string memory name, string memory symbol) ERC20(name, symbol) ERC20Permit(name) {}\r\n\r\n    function mint(address account, uint256 amount) public {\r\n        _mint(account, amount);\r\n    }\r\n\r\n    function burn(address account, uint256 amount) public {\r\n        _burn(account, amount);\r\n    }\r\n\r\n    function getChainId() external view returns (uint256) {\r\n        return block.chainid;\r\n    }\r\n}\r\n",
  "sourcePath": "C:\\Climax\\NFT-marketplace\\contracts\\openzeppelin-solidity\\contracts\\mocks\\ERC20VotesCompMock.sol",
  "compiler": {
    "name": "solc",
    "version": "0.8.9+commit.e5eed63a.Emscripten.clang"
  },
  "schemaVersion": "3.4.3",
  "updatedAt": "2021-10-26T11:45:25.563Z",
  "devdoc": {
    "kind": "dev",
    "methods": {
      "DOMAIN_SEPARATOR()": {
        "details": "See {IERC20Permit-DOMAIN_SEPARATOR}."
      },
      "allowance(address,address)": {
        "details": "See {IERC20-allowance}."
      },
      "approve(address,uint256)": {
        "details": "See {IERC20-approve}. Requirements: - `spender` cannot be the zero address."
      },
      "balanceOf(address)": {
        "details": "See {IERC20-balanceOf}."
      },
      "checkpoints(address,uint32)": {
        "details": "Get the `pos`-th checkpoint for `account`."
      },
      "decimals()": {
        "details": "Returns the number of decimals used to get its user representation. For example, if `decimals` equals `2`, a balance of `505` tokens should be displayed to a user as `5.05` (`505 / 10 ** 2`). Tokens usually opt for a value of 18, imitating the relationship between Ether and Wei. This is the value {ERC20} uses, unless this function is overridden; NOTE: This information is only used for _display_ purposes: it in no way affects any of the arithmetic of the contract, including {IERC20-balanceOf} and {IERC20-transfer}."
      },
      "decreaseAllowance(address,uint256)": {
        "details": "Atomically decreases the allowance granted to `spender` by the caller. This is an alternative to {approve} that can be used as a mitigation for problems described in {IERC20-approve}. Emits an {Approval} event indicating the updated allowance. Requirements: - `spender` cannot be the zero address. - `spender` must have allowance for the caller of at least `subtractedValue`."
      },
      "delegate(address)": {
        "details": "Delegate votes from the sender to `delegatee`."
      },
      "delegateBySig(address,uint256,uint256,uint8,bytes32,bytes32)": {
        "details": "Delegates votes from signer to `delegatee`"
      },
      "delegates(address)": {
        "details": "Get the address `account` is currently delegating to."
      },
      "getCurrentVotes(address)": {
        "details": "Comp version of the {getVotes} accessor, with `uint96` return type."
      },
      "getPastTotalSupply(uint256)": {
        "details": "Retrieve the `totalSupply` at the end of `blockNumber`. Note, this value is the sum of all balances. It is but NOT the sum of all the delegated votes! Requirements: - `blockNumber` must have been already mined"
      },
      "getPastVotes(address,uint256)": {
        "details": "Retrieve the number of votes for `account` at the end of `blockNumber`. Requirements: - `blockNumber` must have been already mined"
      },
      "getPriorVotes(address,uint256)": {
        "details": "Comp version of the {getPastVotes} accessor, with `uint96` return type."
      },
      "getVotes(address)": {
        "details": "Gets the current votes balance for `account`"
      },
      "increaseAllowance(address,uint256)": {
        "details": "Atomically increases the allowance granted to `spender` by the caller. This is an alternative to {approve} that can be used as a mitigation for problems described in {IERC20-approve}. Emits an {Approval} event indicating the updated allowance. Requirements: - `spender` cannot be the zero address."
      },
      "name()": {
        "details": "Returns the name of the token."
      },
      "nonces(address)": {
        "details": "See {IERC20Permit-nonces}."
      },
      "numCheckpoints(address)": {
        "details": "Get number of checkpoints for `account`."
      },
      "permit(address,address,uint256,uint256,uint8,bytes32,bytes32)": {
        "details": "See {IERC20Permit-permit}."
      },
      "symbol()": {
        "details": "Returns the symbol of the token, usually a shorter version of the name."
      },
      "totalSupply()": {
        "details": "See {IERC20-totalSupply}."
      },
      "transfer(address,uint256)": {
        "details": "See {IERC20-transfer}. Requirements: - `recipient` cannot be the zero address. - the caller must have a balance of at least `amount`."
      },
      "transferFrom(address,address,uint256)": {
        "details": "See {IERC20-transferFrom}. Emits an {Approval} event indicating the updated allowance. This is not required by the EIP. See the note at the beginning of {ERC20}. Requirements: - `sender` and `recipient` cannot be the zero address. - `sender` must have a balance of at least `amount`. - the caller must have allowance for ``sender``'s tokens of at least `amount`."
      }
    },
    "version": 1
  },
  "userdoc": {
    "kind": "user",
    "methods": {},
    "version": 1
  }
}