{
  "contractName": "ERC20FlashMintMock",
  "abi": [
    {
      "inputs": [
        {
          "internalType": "string",
          "name": "name",
          "type": "string"
        },
        {
          "internalType": "string",
          "name": "symbol",
          "type": "string"
        },
        {
          "internalType": "address",
          "name": "initialAccount",
          "type": "address"
        },
        {
          "internalType": "uint256",
          "name": "initialBalance",
          "type": "uint256"
        }
      ],
      "stateMutability": "nonpayable",
      "type": "constructor"
    },
    {
      "anonymous": false,
      "inputs": [
        {
          "indexed": true,
          "internalType": "address",
          "name": "owner",
          "type": "address"
        },
        {
          "indexed": true,
          "internalType": "address",
          "name": "spender",
          "type": "address"
        },
        {
          "indexed": false,
          "internalType": "uint256",
          "name": "value",
          "type": "uint256"
        }
      ],
      "name": "Approval",
      "type": "event"
    },
    {
      "anonymous": false,
      "inputs": [
        {
          "indexed": true,
          "internalType": "address",
          "name": "from",
          "type": "address"
        },
        {
          "indexed": true,
          "internalType": "address",
          "name": "to",
          "type": "address"
        },
        {
          "indexed": false,
          "internalType": "uint256",
          "name": "value",
          "type": "uint256"
        }
      ],
      "name": "Transfer",
      "type": "event"
    },
    {
      "inputs": [
        {
          "internalType": "address",
          "name": "owner",
          "type": "address"
        },
        {
          "internalType": "address",
          "name": "spender",
          "type": "address"
        }
      ],
      "name": "allowance",
      "outputs": [
        {
          "internalType": "uint256",
          "name": "",
          "type": "uint256"
        }
      ],
      "stateMutability": "view",
      "type": "function"
    },
    {
      "inputs": [
        {
          "internalType": "address",
          "name": "spender",
          "type": "address"
        },
        {
          "internalType": "uint256",
          "name": "amount",
          "type": "uint256"
        }
      ],
      "name": "approve",
      "outputs": [
        {
          "internalType": "bool",
          "name": "",
          "type": "bool"
        }
      ],
      "stateMutability": "nonpayable",
      "type": "function"
    },
    {
      "inputs": [
        {
          "internalType": "address",
          "name": "account",
          "type": "address"
        }
      ],
      "name": "balanceOf",
      "outputs": [
        {
          "internalType": "uint256",
          "name": "",
          "type": "uint256"
        }
      ],
      "stateMutability": "view",
      "type": "function"
    },
    {
      "inputs": [],
      "name": "decimals",
      "outputs": [
        {
          "internalType": "uint8",
          "name": "",
          "type": "uint8"
        }
      ],
      "stateMutability": "view",
      "type": "function"
    },
    {
      "inputs": [
        {
          "internalType": "address",
          "name": "spender",
          "type": "address"
        },
        {
          "internalType": "uint256",
          "name": "subtractedValue",
          "type": "uint256"
        }
      ],
      "name": "decreaseAllowance",
      "outputs": [
        {
          "internalType": "bool",
          "name": "",
          "type": "bool"
        }
      ],
      "stateMutability": "nonpayable",
      "type": "function"
    },
    {
      "inputs": [
        {
          "internalType": "address",
          "name": "token",
          "type": "address"
        },
        {
          "internalType": "uint256",
          "name": "amount",
          "type": "uint256"
        }
      ],
      "name": "flashFee",
      "outputs": [
        {
          "internalType": "uint256",
          "name": "",
          "type": "uint256"
        }
      ],
      "stateMutability": "view",
      "type": "function"
    },
    {
      "inputs": [
        {
          "internalType": "contract IERC3156FlashBorrower",
          "name": "receiver",
          "type": "address"
        },
        {
          "internalType": "address",
          "name": "token",
          "type": "address"
        },
        {
          "internalType": "uint256",
          "name": "amount",
          "type": "uint256"
        },
        {
          "internalType": "bytes",
          "name": "data",
          "type": "bytes"
        }
      ],
      "name": "flashLoan",
      "outputs": [
        {
          "internalType": "bool",
          "name": "",
          "type": "bool"
        }
      ],
      "stateMutability": "nonpayable",
      "type": "function"
    },
    {
      "inputs": [
        {
          "internalType": "address",
          "name": "spender",
          "type": "address"
        },
        {
          "internalType": "uint256",
          "name": "addedValue",
          "type": "uint256"
        }
      ],
      "name": "increaseAllowance",
      "outputs": [
        {
          "internalType": "bool",
          "name": "",
          "type": "bool"
        }
      ],
      "stateMutability": "nonpayable",
      "type": "function"
    },
    {
      "inputs": [
        {
          "internalType": "address",
          "name": "token",
          "type": "address"
        }
      ],
      "name": "maxFlashLoan",
      "outputs": [
        {
          "internalType": "uint256",
          "name": "",
          "type": "uint256"
        }
      ],
      "stateMutability": "view",
      "type": "function"
    },
    {
      "inputs": [],
      "name": "name",
      "outputs": [
        {
          "internalType": "string",
          "name": "",
          "type": "string"
        }
      ],
      "stateMutability": "view",
      "type": "function"
    },
    {
      "inputs": [],
      "name": "symbol",
      "outputs": [
        {
          "internalType": "string",
          "name": "",
          "type": "string"
        }
      ],
      "stateMutability": "view",
      "type": "function"
    },
    {
      "inputs": [],
      "name": "totalSupply",
      "outputs": [
        {
          "internalType": "uint256",
          "name": "",
          "type": "uint256"
        }
      ],
      "stateMutability": "view",
      "type": "function"
    },
    {
      "inputs": [
        {
          "internalType": "address",
          "name": "recipient",
          "type": "address"
        },
        {
          "internalType": "uint256",
          "name": "amount",
          "type": "uint256"
        }
      ],
      "name": "transfer",
      "outputs": [
        {
          "internalType": "bool",
          "name": "",
          "type": "bool"
        }
      ],
      "stateMutability": "nonpayable",
      "type": "function"
    },
    {
      "inputs": [
        {
          "internalType": "address",
          "name": "sender",
          "type": "address"
        },
        {
          "internalType": "address",
          "name": "recipient",
          "type": "address"
        },
        {
          "internalType": "uint256",
          "name": "amount",
          "type": "uint256"
        }
      ],
      "name": "transferFrom",
      "outputs": [
        {
          "internalType": "bool",
          "name": "",
          "type": "bool"
        }
      ],
      "stateMutability": "nonpayable",
      "type": "function"
    }
  ],
  "bytecode": "0x60806040523480156200001157600080fd5b506040516200274d3803806200274d8339818101604052810190620000379190620004f9565b83838160039080519060200190620000519291906200020c565b5080600490805190602001906200006a9291906200020c565b5050506200007f82826200008960201b60201c565b505050506200074b565b600073ffffffffffffffffffffffffffffffffffffffff168273ffffffffffffffffffffffffffffffffffffffff161415620000fc576040517f08c379a0000000000000000000000000000000000000000000000000000000008152600401620000f3906200060a565b60405180910390fd5b62000110600083836200020260201b60201c565b80600260008282546200012491906200065b565b92505081905550806000808473ffffffffffffffffffffffffffffffffffffffff1673ffffffffffffffffffffffffffffffffffffffff16815260200190815260200160002060008282546200017b91906200065b565b925050819055508173ffffffffffffffffffffffffffffffffffffffff16600073ffffffffffffffffffffffffffffffffffffffff167fddf252ad1be2c89b69c2b068fc378daa952ba7f163c4a11628f55a4df523b3ef83604051620001e29190620006c9565b60405180910390a3620001fe600083836200020760201b60201c565b5050565b505050565b505050565b8280546200021a9062000715565b90600052602060002090601f0160209004810192826200023e57600085556200028a565b82601f106200025957805160ff19168380011785556200028a565b828001600101855582156200028a579182015b82811115620002895782518255916020019190600101906200026c565b5b5090506200029991906200029d565b5090565b5b80821115620002b85760008160009055506001016200029e565b5090565b6000604051905090565b600080fd5b600080fd5b600080fd5b600080fd5b6000601f19601f8301169050919050565b7f4e487b7100000000000000000000000000000000000000000000000000000000600052604160045260246000fd5b6200032582620002da565b810181811067ffffffffffffffff82111715620003475762000346620002eb565b5b80604052505050565b60006200035c620002bc565b90506200036a82826200031a565b919050565b600067ffffffffffffffff8211156200038d576200038c620002eb565b5b6200039882620002da565b9050602081019050919050565b60005b83811015620003c5578082015181840152602081019050620003a8565b83811115620003d5576000848401525b50505050565b6000620003f2620003ec846200036f565b62000350565b905082815260208101848484011115620004115762000410620002d5565b5b6200041e848285620003a5565b509392505050565b600082601f8301126200043e576200043d620002d0565b5b815162000450848260208601620003db565b91505092915050565b600073ffffffffffffffffffffffffffffffffffffffff82169050919050565b6000620004868262000459565b9050919050565b620004988162000479565b8114620004a457600080fd5b50565b600081519050620004b8816200048d565b92915050565b6000819050919050565b620004d381620004be565b8114620004df57600080fd5b50565b600081519050620004f381620004c8565b92915050565b60008060008060808587031215620005165762000515620002c6565b5b600085015167ffffffffffffffff811115620005375762000536620002cb565b5b620005458782880162000426565b945050602085015167ffffffffffffffff811115620005695762000568620002cb565b5b620005778782880162000426565b93505060406200058a87828801620004a7565b92505060606200059d87828801620004e2565b91505092959194509250565b600082825260208201905092915050565b7f45524332303a206d696e7420746f20746865207a65726f206164647265737300600082015250565b6000620005f2601f83620005a9565b9150620005ff82620005ba565b602082019050919050565b600060208201905081810360008301526200062581620005e3565b9050919050565b7f4e487b7100000000000000000000000000000000000000000000000000000000600052601160045260246000fd5b60006200066882620004be565b91506200067583620004be565b9250827fffffffffffffffffffffffffffffffffffffffffffffffffffffffffffffffff03821115620006ad57620006ac6200062c565b5b828201905092915050565b620006c381620004be565b82525050565b6000602082019050620006e06000830184620006b8565b92915050565b7f4e487b7100000000000000000000000000000000000000000000000000000000600052602260045260246000fd5b600060028204905060018216806200072e57607f821691505b60208210811415620007455762000744620006e6565b5b50919050565b611ff2806200075b6000396000f3fe608060405234801561001057600080fd5b50600436106100ea5760003560e01c8063613255ab1161008c578063a457c2d711610066578063a457c2d714610287578063a9059cbb146102b7578063d9d98ce4146102e7578063dd62ed3e14610317576100ea565b8063613255ab1461020957806370a082311461023957806395d89b4114610269576100ea565b806323b872dd116100c857806323b872dd1461015b578063313ce5671461018b57806339509351146101a95780635cffe9de146101d9576100ea565b806306fdde03146100ef578063095ea7b31461010d57806318160ddd1461013d575b600080fd5b6100f7610347565b60405161010491906112e7565b60405180910390f35b610127600480360381019061012291906113a7565b6103d9565b6040516101349190611402565b60405180910390f35b6101456103f7565b604051610152919061142c565b60405180910390f35b61017560048036038101906101709190611447565b610401565b6040516101829190611402565b60405180910390f35b6101936104f9565b6040516101a091906114b6565b60405180910390f35b6101c360048036038101906101be91906113a7565b610502565b6040516101d09190611402565b60405180910390f35b6101f360048036038101906101ee9190611574565b6105ae565b6040516102009190611402565b60405180910390f35b610223600480360381019061021e91906115fc565b61075e565b604051610230919061142c565b60405180910390f35b610253600480360381019061024e91906115fc565b6107d5565b604051610260919061142c565b60405180910390f35b61027161081d565b60405161027e91906112e7565b60405180910390f35b6102a1600480360381019061029c91906113a7565b6108af565b6040516102ae9190611402565b60405180910390f35b6102d160048036038101906102cc91906113a7565b61099a565b6040516102de9190611402565b60405180910390f35b61030160048036038101906102fc91906113a7565b6109b8565b60405161030e919061142c565b60405180910390f35b610331600480360381019061032c9190611629565b610a32565b60405161033e919061142c565b60405180910390f35b60606003805461035690611698565b80601f016020809104026020016040519081016040528092919081815260200182805461038290611698565b80156103cf5780601f106103a4576101008083540402835291602001916103cf565b820191906000526020600020905b8154815290600101906020018083116103b257829003601f168201915b5050505050905090565b60006103ed6103e6610ab9565b8484610ac1565b6001905092915050565b6000600254905090565b600061040e848484610c8c565b6000600160008673ffffffffffffffffffffffffffffffffffffffff1673ffffffffffffffffffffffffffffffffffffffff1681526020019081526020016000206000610459610ab9565b73ffffffffffffffffffffffffffffffffffffffff1673ffffffffffffffffffffffffffffffffffffffff168152602001908152602001600020549050828110156104d9576040517f08c379a00000000000000000000000000000000000000000000000000000000081526004016104d09061173c565b60405180910390fd5b6104ed856104e5610ab9565b858403610ac1565b60019150509392505050565b60006012905090565b60006105a461050f610ab9565b84846001600061051d610ab9565b73ffffffffffffffffffffffffffffffffffffffff1673ffffffffffffffffffffffffffffffffffffffff16815260200190815260200160002060008873ffffffffffffffffffffffffffffffffffffffff1673ffffffffffffffffffffffffffffffffffffffff1681526020019081526020016000205461059f919061178b565b610ac1565b6001905092915050565b6000806105bb86866109b8565b90506105c78786610f0d565b7f439148f0bbc682ca079e46d6e2c2f0c1e3b820f1a291b069d8882abf8cf18dd98773ffffffffffffffffffffffffffffffffffffffff166323e30c8b338989868a8a6040518763ffffffff1660e01b815260040161062b9695949392919061183d565b602060405180830381600087803b15801561064557600080fd5b505af1158015610659573d6000803e3d6000fd5b505050506040513d601f19601f8201168201806040525081019061067d91906118cf565b146106bd576040517f08c379a00000000000000000000000000000000000000000000000000000000081526004016106b49061196e565b60405180910390fd5b60006106c98830610a32565b905081866106d7919061178b565b811015610719576040517f08c379a000000000000000000000000000000000000000000000000000000000815260040161071090611a00565b60405180910390fd5b61073a883084898561072b9190611a20565b6107359190611a20565b610ac1565b61074f88838861074a919061178b565b61106d565b60019250505095945050505050565b60003073ffffffffffffffffffffffffffffffffffffffff168273ffffffffffffffffffffffffffffffffffffffff161461079a5760006107ce565b6107a26103f7565b7fffffffffffffffffffffffffffffffffffffffffffffffffffffffffffffffff6107cd9190611a20565b5b9050919050565b60008060008373ffffffffffffffffffffffffffffffffffffffff1673ffffffffffffffffffffffffffffffffffffffff168152602001908152602001600020549050919050565b60606004805461082c90611698565b80601f016020809104026020016040519081016040528092919081815260200182805461085890611698565b80156108a55780601f1061087a576101008083540402835291602001916108a5565b820191906000526020600020905b81548152906001019060200180831161088857829003601f168201915b5050505050905090565b600080600160006108be610ab9565b73ffffffffffffffffffffffffffffffffffffffff1673ffffffffffffffffffffffffffffffffffffffff16815260200190815260200160002060008573ffffffffffffffffffffffffffffffffffffffff1673ffffffffffffffffffffffffffffffffffffffff1681526020019081526020016000205490508281101561097b576040517f08c379a000000000000000000000000000000000000000000000000000000000815260040161097290611ac6565b60405180910390fd5b61098f610986610ab9565b85858403610ac1565b600191505092915050565b60006109ae6109a7610ab9565b8484610c8c565b6001905092915050565b60003073ffffffffffffffffffffffffffffffffffffffff168373ffffffffffffffffffffffffffffffffffffffff1614610a28576040517f08c379a0000000000000000000000000000000000000000000000000000000008152600401610a1f90611b32565b60405180910390fd5b6000905092915050565b6000600160008473ffffffffffffffffffffffffffffffffffffffff1673ffffffffffffffffffffffffffffffffffffffff16815260200190815260200160002060008373ffffffffffffffffffffffffffffffffffffffff1673ffffffffffffffffffffffffffffffffffffffff16815260200190815260200160002054905092915050565b600033905090565b600073ffffffffffffffffffffffffffffffffffffffff168373ffffffffffffffffffffffffffffffffffffffff161415610b31576040517f08c379a0000000000000000000000000000000000000000000000000000000008152600401610b2890611bc4565b60405180910390fd5b600073ffffffffffffffffffffffffffffffffffffffff168273ffffffffffffffffffffffffffffffffffffffff161415610ba1576040517f08c379a0000000000000000000000000000000000000000000000000000000008152600401610b9890611c56565b60405180910390fd5b80600160008573ffffffffffffffffffffffffffffffffffffffff1673ffffffffffffffffffffffffffffffffffffffff16815260200190815260200160002060008473ffffffffffffffffffffffffffffffffffffffff1673ffffffffffffffffffffffffffffffffffffffff168152602001908152602001600020819055508173ffffffffffffffffffffffffffffffffffffffff168373ffffffffffffffffffffffffffffffffffffffff167f8c5be1e5ebec7d5bd14f71427d1e84f3dd0314c0f7b2291e5b200ac8c7c3b92583604051610c7f919061142c565b60405180910390a3505050565b600073ffffffffffffffffffffffffffffffffffffffff168373ffffffffffffffffffffffffffffffffffffffff161415610cfc576040517f08c379a0000000000000000000000000000000000000000000000000000000008152600401610cf390611ce8565b60405180910390fd5b600073ffffffffffffffffffffffffffffffffffffffff168273ffffffffffffffffffffffffffffffffffffffff161415610d6c576040517f08c379a0000000000000000000000000000000000000000000000000000000008152600401610d6390611d7a565b60405180910390fd5b610d77838383611244565b60008060008573ffffffffffffffffffffffffffffffffffffffff1673ffffffffffffffffffffffffffffffffffffffff16815260200190815260200160002054905081811015610dfd576040517f08c379a0000000000000000000000000000000000000000000000000000000008152600401610df490611e0c565b60405180910390fd5b8181036000808673ffffffffffffffffffffffffffffffffffffffff1673ffffffffffffffffffffffffffffffffffffffff16815260200190815260200160002081905550816000808573ffffffffffffffffffffffffffffffffffffffff1673ffffffffffffffffffffffffffffffffffffffff1681526020019081526020016000206000828254610e90919061178b565b925050819055508273ffffffffffffffffffffffffffffffffffffffff168473ffffffffffffffffffffffffffffffffffffffff167fddf252ad1be2c89b69c2b068fc378daa952ba7f163c4a11628f55a4df523b3ef84604051610ef4919061142c565b60405180910390a3610f07848484611249565b50505050565b600073ffffffffffffffffffffffffffffffffffffffff168273ffffffffffffffffffffffffffffffffffffffff161415610f7d576040517f08c379a0000000000000000000000000000000000000000000000000000000008152600401610f7490611e78565b60405180910390fd5b610f8960008383611244565b8060026000828254610f9b919061178b565b92505081905550806000808473ffffffffffffffffffffffffffffffffffffffff1673ffffffffffffffffffffffffffffffffffffffff1681526020019081526020016000206000828254610ff0919061178b565b925050819055508173ffffffffffffffffffffffffffffffffffffffff16600073ffffffffffffffffffffffffffffffffffffffff167fddf252ad1be2c89b69c2b068fc378daa952ba7f163c4a11628f55a4df523b3ef83604051611055919061142c565b60405180910390a361106960008383611249565b5050565b600073ffffffffffffffffffffffffffffffffffffffff168273ffffffffffffffffffffffffffffffffffffffff1614156110dd576040517f08c379a00000000000000000000000000000000000000000000000000000000081526004016110d490611f0a565b60405180910390fd5b6110e982600083611244565b60008060008473ffffffffffffffffffffffffffffffffffffffff1673ffffffffffffffffffffffffffffffffffffffff1681526020019081526020016000205490508181101561116f576040517f08c379a000000000000000000000000000000000000000000000000000000000815260040161116690611f9c565b60405180910390fd5b8181036000808573ffffffffffffffffffffffffffffffffffffffff1673ffffffffffffffffffffffffffffffffffffffff1681526020019081526020016000208190555081600260008282546111c69190611a20565b92505081905550600073ffffffffffffffffffffffffffffffffffffffff168373ffffffffffffffffffffffffffffffffffffffff167fddf252ad1be2c89b69c2b068fc378daa952ba7f163c4a11628f55a4df523b3ef8460405161122b919061142c565b60405180910390a361123f83600084611249565b505050565b505050565b505050565b600081519050919050565b600082825260208201905092915050565b60005b8381101561128857808201518184015260208101905061126d565b83811115611297576000848401525b50505050565b6000601f19601f8301169050919050565b60006112b98261124e565b6112c38185611259565b93506112d381856020860161126a565b6112dc8161129d565b840191505092915050565b6000602082019050818103600083015261130181846112ae565b905092915050565b600080fd5b600080fd5b600073ffffffffffffffffffffffffffffffffffffffff82169050919050565b600061133e82611313565b9050919050565b61134e81611333565b811461135957600080fd5b50565b60008135905061136b81611345565b92915050565b6000819050919050565b61138481611371565b811461138f57600080fd5b50565b6000813590506113a18161137b565b92915050565b600080604083850312156113be576113bd611309565b5b60006113cc8582860161135c565b92505060206113dd85828601611392565b9150509250929050565b60008115159050919050565b6113fc816113e7565b82525050565b600060208201905061141760008301846113f3565b92915050565b61142681611371565b82525050565b6000602082019050611441600083018461141d565b92915050565b6000806000606084860312156114605761145f611309565b5b600061146e8682870161135c565b935050602061147f8682870161135c565b925050604061149086828701611392565b9150509250925092565b600060ff82169050919050565b6114b08161149a565b82525050565b60006020820190506114cb60008301846114a7565b92915050565b60006114dc82611333565b9050919050565b6114ec816114d1565b81146114f757600080fd5b50565b600081359050611509816114e3565b92915050565b600080fd5b600080fd5b600080fd5b60008083601f8401126115345761153361150f565b5b8235905067ffffffffffffffff81111561155157611550611514565b5b60208301915083600182028301111561156d5761156c611519565b5b9250929050565b6000806000806000608086880312156115905761158f611309565b5b600061159e888289016114fa565b95505060206115af8882890161135c565b94505060406115c088828901611392565b935050606086013567ffffffffffffffff8111156115e1576115e061130e565b5b6115ed8882890161151e565b92509250509295509295909350565b60006020828403121561161257611611611309565b5b60006116208482850161135c565b91505092915050565b600080604083850312156116405761163f611309565b5b600061164e8582860161135c565b925050602061165f8582860161135c565b9150509250929050565b7f4e487b7100000000000000000000000000000000000000000000000000000000600052602260045260246000fd5b600060028204905060018216806116b057607f821691505b602082108114156116c4576116c3611669565b5b50919050565b7f45524332303a207472616e7366657220616d6f756e742065786365656473206160008201527f6c6c6f77616e6365000000000000000000000000000000000000000000000000602082015250565b6000611726602883611259565b9150611731826116ca565b604082019050919050565b6000602082019050818103600083015261175581611719565b9050919050565b7f4e487b7100000000000000000000000000000000000000000000000000000000600052601160045260246000fd5b600061179682611371565b91506117a183611371565b9250827fffffffffffffffffffffffffffffffffffffffffffffffffffffffffffffffff038211156117d6576117d561175c565b5b828201905092915050565b6117ea81611333565b82525050565b600082825260208201905092915050565b82818337600083830152505050565b600061181c83856117f0565b9350611829838584611801565b6118328361129d565b840190509392505050565b600060a08201905061185260008301896117e1565b61185f60208301886117e1565b61186c604083018761141d565b611879606083018661141d565b818103608083015261188c818486611810565b9050979650505050505050565b6000819050919050565b6118ac81611899565b81146118b757600080fd5b50565b6000815190506118c9816118a3565b92915050565b6000602082840312156118e5576118e4611309565b5b60006118f3848285016118ba565b91505092915050565b7f4552433230466c6173684d696e743a20696e76616c69642072657475726e207660008201527f616c756500000000000000000000000000000000000000000000000000000000602082015250565b6000611958602483611259565b9150611963826118fc565b604082019050919050565b600060208201905081810360008301526119878161194b565b9050919050565b7f4552433230466c6173684d696e743a20616c6c6f77616e636520646f6573206e60008201527f6f7420616c6c6f7720726566756e640000000000000000000000000000000000602082015250565b60006119ea602f83611259565b91506119f58261198e565b604082019050919050565b60006020820190508181036000830152611a19816119dd565b9050919050565b6000611a2b82611371565b9150611a3683611371565b925082821015611a4957611a4861175c565b5b828203905092915050565b7f45524332303a2064656372656173656420616c6c6f77616e63652062656c6f7760008201527f207a65726f000000000000000000000000000000000000000000000000000000602082015250565b6000611ab0602583611259565b9150611abb82611a54565b604082019050919050565b60006020820190508181036000830152611adf81611aa3565b9050919050565b7f4552433230466c6173684d696e743a2077726f6e6720746f6b656e0000000000600082015250565b6000611b1c601b83611259565b9150611b2782611ae6565b602082019050919050565b60006020820190508181036000830152611b4b81611b0f565b9050919050565b7f45524332303a20617070726f76652066726f6d20746865207a65726f2061646460008201527f7265737300000000000000000000000000000000000000000000000000000000602082015250565b6000611bae602483611259565b9150611bb982611b52565b604082019050919050565b60006020820190508181036000830152611bdd81611ba1565b9050919050565b7f45524332303a20617070726f766520746f20746865207a65726f20616464726560008201527f7373000000000000000000000000000000000000000000000000000000000000602082015250565b6000611c40602283611259565b9150611c4b82611be4565b604082019050919050565b60006020820190508181036000830152611c6f81611c33565b9050919050565b7f45524332303a207472616e736665722066726f6d20746865207a65726f20616460008201527f6472657373000000000000000000000000000000000000000000000000000000602082015250565b6000611cd2602583611259565b9150611cdd82611c76565b604082019050919050565b60006020820190508181036000830152611d0181611cc5565b9050919050565b7f45524332303a207472616e7366657220746f20746865207a65726f206164647260008201527f6573730000000000000000000000000000000000000000000000000000000000602082015250565b6000611d64602383611259565b9150611d6f82611d08565b604082019050919050565b60006020820190508181036000830152611d9381611d57565b9050919050565b7f45524332303a207472616e7366657220616d6f756e742065786365656473206260008201527f616c616e63650000000000000000000000000000000000000000000000000000602082015250565b6000611df6602683611259565b9150611e0182611d9a565b604082019050919050565b60006020820190508181036000830152611e2581611de9565b9050919050565b7f45524332303a206d696e7420746f20746865207a65726f206164647265737300600082015250565b6000611e62601f83611259565b9150611e6d82611e2c565b602082019050919050565b60006020820190508181036000830152611e9181611e55565b9050919050565b7f45524332303a206275726e2066726f6d20746865207a65726f2061646472657360008201527f7300000000000000000000000000000000000000000000000000000000000000602082015250565b6000611ef4602183611259565b9150611eff82611e98565b604082019050919050565b60006020820190508181036000830152611f2381611ee7565b9050919050565b7f45524332303a206275726e20616d6f756e7420657863656564732062616c616e60008201527f6365000000000000000000000000000000000000000000000000000000000000602082015250565b6000611f86602283611259565b9150611f9182611f2a565b604082019050919050565b60006020820190508181036000830152611fb581611f79565b905091905056fea26469706673582212204ade61911f1502ba2c85fc5b9a65a4627328a7f148510395b5aa444b0df6ed1f64736f6c63430008090033",
  "immutableReferences": {},
  "source": "// SPDX-License-Identifier: MIT\r\n\r\npragma solidity ^0.8.0;\r\n\r\nimport \"../token/ERC20/extensions/ERC20FlashMint.sol\";\r\n\r\ncontract ERC20FlashMintMock is ERC20FlashMint {\r\n    constructor(\r\n        string memory name,\r\n        string memory symbol,\r\n        address initialAccount,\r\n        uint256 initialBalance\r\n    ) ERC20(name, symbol) {\r\n        _mint(initialAccount, initialBalance);\r\n    }\r\n}\r\n",
  "sourcePath": "C:\\Climax\\NFT-marketplace\\contracts\\openzeppelin-solidity\\contracts\\mocks\\ERC20FlashMintMock.sol",
  "compiler": {
    "name": "solc",
    "version": "0.8.9+commit.e5eed63a.Emscripten.clang"
  },
  "schemaVersion": "3.4.3",
  "updatedAt": "2021-10-26T11:45:25.519Z",
  "devdoc": {
    "kind": "dev",
    "methods": {
      "allowance(address,address)": {
        "details": "See {IERC20-allowance}."
      },
      "approve(address,uint256)": {
        "details": "See {IERC20-approve}. Requirements: - `spender` cannot be the zero address."
      },
      "balanceOf(address)": {
        "details": "See {IERC20-balanceOf}."
      },
      "decimals()": {
        "details": "Returns the number of decimals used to get its user representation. For example, if `decimals` equals `2`, a balance of `505` tokens should be displayed to a user as `5.05` (`505 / 10 ** 2`). Tokens usually opt for a value of 18, imitating the relationship between Ether and Wei. This is the value {ERC20} uses, unless this function is overridden; NOTE: This information is only used for _display_ purposes: it in no way affects any of the arithmetic of the contract, including {IERC20-balanceOf} and {IERC20-transfer}."
      },
      "decreaseAllowance(address,uint256)": {
        "details": "Atomically decreases the allowance granted to `spender` by the caller. This is an alternative to {approve} that can be used as a mitigation for problems described in {IERC20-approve}. Emits an {Approval} event indicating the updated allowance. Requirements: - `spender` cannot be the zero address. - `spender` must have allowance for the caller of at least `subtractedValue`."
      },
      "flashFee(address,uint256)": {
        "details": "Returns the fee applied when doing flash loans. By default this implementation has 0 fees. This function can be overloaded to make the flash loan mechanism deflationary.",
        "params": {
          "amount": "The amount of tokens to be loaned.",
          "token": "The token to be flash loaned."
        },
        "returns": {
          "_0": "The fees applied to the corresponding flash loan."
        }
      },
      "flashLoan(address,address,uint256,bytes)": {
        "details": "Performs a flash loan. New tokens are minted and sent to the `receiver`, who is required to implement the {IERC3156FlashBorrower} interface. By the end of the flash loan, the receiver is expected to own amount + fee tokens and have them approved back to the token contract itself so they can be burned.",
        "params": {
          "amount": "The amount of tokens to be loaned.",
          "data": "An arbitrary datafield that is passed to the receiver.",
          "receiver": "The receiver of the flash loan. Should implement the {IERC3156FlashBorrower.onFlashLoan} interface.",
          "token": "The token to be flash loaned. Only `address(this)` is supported."
        },
        "returns": {
          "_0": "`true` is the flash loan was successful."
        }
      },
      "increaseAllowance(address,uint256)": {
        "details": "Atomically increases the allowance granted to `spender` by the caller. This is an alternative to {approve} that can be used as a mitigation for problems described in {IERC20-approve}. Emits an {Approval} event indicating the updated allowance. Requirements: - `spender` cannot be the zero address."
      },
      "maxFlashLoan(address)": {
        "details": "Returns the maximum amount of tokens available for loan.",
        "params": {
          "token": "The address of the token that is requested."
        },
        "returns": {
          "_0": "The amont of token that can be loaned."
        }
      },
      "name()": {
        "details": "Returns the name of the token."
      },
      "symbol()": {
        "details": "Returns the symbol of the token, usually a shorter version of the name."
      },
      "totalSupply()": {
        "details": "See {IERC20-totalSupply}."
      },
      "transfer(address,uint256)": {
        "details": "See {IERC20-transfer}. Requirements: - `recipient` cannot be the zero address. - the caller must have a balance of at least `amount`."
      },
      "transferFrom(address,address,uint256)": {
        "details": "See {IERC20-transferFrom}. Emits an {Approval} event indicating the updated allowance. This is not required by the EIP. See the note at the beginning of {ERC20}. Requirements: - `sender` and `recipient` cannot be the zero address. - `sender` must have a balance of at least `amount`. - the caller must have allowance for ``sender``'s tokens of at least `amount`."
      }
    },
    "version": 1
  },
  "userdoc": {
    "kind": "user",
    "methods": {},
    "version": 1
  }
}