{
  "contractName": "ERC20PermitMock",
  "abi": [
    {
      "inputs": [
        {
          "internalType": "string",
          "name": "name",
          "type": "string"
        },
        {
          "internalType": "string",
          "name": "symbol",
          "type": "string"
        },
        {
          "internalType": "address",
          "name": "initialAccount",
          "type": "address"
        },
        {
          "internalType": "uint256",
          "name": "initialBalance",
          "type": "uint256"
        }
      ],
      "stateMutability": "payable",
      "type": "constructor"
    },
    {
      "anonymous": false,
      "inputs": [
        {
          "indexed": true,
          "internalType": "address",
          "name": "owner",
          "type": "address"
        },
        {
          "indexed": true,
          "internalType": "address",
          "name": "spender",
          "type": "address"
        },
        {
          "indexed": false,
          "internalType": "uint256",
          "name": "value",
          "type": "uint256"
        }
      ],
      "name": "Approval",
      "type": "event"
    },
    {
      "anonymous": false,
      "inputs": [
        {
          "indexed": true,
          "internalType": "address",
          "name": "from",
          "type": "address"
        },
        {
          "indexed": true,
          "internalType": "address",
          "name": "to",
          "type": "address"
        },
        {
          "indexed": false,
          "internalType": "uint256",
          "name": "value",
          "type": "uint256"
        }
      ],
      "name": "Transfer",
      "type": "event"
    },
    {
      "inputs": [],
      "name": "DOMAIN_SEPARATOR",
      "outputs": [
        {
          "internalType": "bytes32",
          "name": "",
          "type": "bytes32"
        }
      ],
      "stateMutability": "view",
      "type": "function"
    },
    {
      "inputs": [
        {
          "internalType": "address",
          "name": "owner",
          "type": "address"
        },
        {
          "internalType": "address",
          "name": "spender",
          "type": "address"
        }
      ],
      "name": "allowance",
      "outputs": [
        {
          "internalType": "uint256",
          "name": "",
          "type": "uint256"
        }
      ],
      "stateMutability": "view",
      "type": "function"
    },
    {
      "inputs": [
        {
          "internalType": "address",
          "name": "spender",
          "type": "address"
        },
        {
          "internalType": "uint256",
          "name": "amount",
          "type": "uint256"
        }
      ],
      "name": "approve",
      "outputs": [
        {
          "internalType": "bool",
          "name": "",
          "type": "bool"
        }
      ],
      "stateMutability": "nonpayable",
      "type": "function"
    },
    {
      "inputs": [
        {
          "internalType": "address",
          "name": "account",
          "type": "address"
        }
      ],
      "name": "balanceOf",
      "outputs": [
        {
          "internalType": "uint256",
          "name": "",
          "type": "uint256"
        }
      ],
      "stateMutability": "view",
      "type": "function"
    },
    {
      "inputs": [],
      "name": "decimals",
      "outputs": [
        {
          "internalType": "uint8",
          "name": "",
          "type": "uint8"
        }
      ],
      "stateMutability": "view",
      "type": "function"
    },
    {
      "inputs": [
        {
          "internalType": "address",
          "name": "spender",
          "type": "address"
        },
        {
          "internalType": "uint256",
          "name": "subtractedValue",
          "type": "uint256"
        }
      ],
      "name": "decreaseAllowance",
      "outputs": [
        {
          "internalType": "bool",
          "name": "",
          "type": "bool"
        }
      ],
      "stateMutability": "nonpayable",
      "type": "function"
    },
    {
      "inputs": [
        {
          "internalType": "address",
          "name": "spender",
          "type": "address"
        },
        {
          "internalType": "uint256",
          "name": "addedValue",
          "type": "uint256"
        }
      ],
      "name": "increaseAllowance",
      "outputs": [
        {
          "internalType": "bool",
          "name": "",
          "type": "bool"
        }
      ],
      "stateMutability": "nonpayable",
      "type": "function"
    },
    {
      "inputs": [],
      "name": "name",
      "outputs": [
        {
          "internalType": "string",
          "name": "",
          "type": "string"
        }
      ],
      "stateMutability": "view",
      "type": "function"
    },
    {
      "inputs": [
        {
          "internalType": "address",
          "name": "owner",
          "type": "address"
        }
      ],
      "name": "nonces",
      "outputs": [
        {
          "internalType": "uint256",
          "name": "",
          "type": "uint256"
        }
      ],
      "stateMutability": "view",
      "type": "function"
    },
    {
      "inputs": [
        {
          "internalType": "address",
          "name": "owner",
          "type": "address"
        },
        {
          "internalType": "address",
          "name": "spender",
          "type": "address"
        },
        {
          "internalType": "uint256",
          "name": "value",
          "type": "uint256"
        },
        {
          "internalType": "uint256",
          "name": "deadline",
          "type": "uint256"
        },
        {
          "internalType": "uint8",
          "name": "v",
          "type": "uint8"
        },
        {
          "internalType": "bytes32",
          "name": "r",
          "type": "bytes32"
        },
        {
          "internalType": "bytes32",
          "name": "s",
          "type": "bytes32"
        }
      ],
      "name": "permit",
      "outputs": [],
      "stateMutability": "nonpayable",
      "type": "function"
    },
    {
      "inputs": [],
      "name": "symbol",
      "outputs": [
        {
          "internalType": "string",
          "name": "",
          "type": "string"
        }
      ],
      "stateMutability": "view",
      "type": "function"
    },
    {
      "inputs": [],
      "name": "totalSupply",
      "outputs": [
        {
          "internalType": "uint256",
          "name": "",
          "type": "uint256"
        }
      ],
      "stateMutability": "view",
      "type": "function"
    },
    {
      "inputs": [
        {
          "internalType": "address",
          "name": "recipient",
          "type": "address"
        },
        {
          "internalType": "uint256",
          "name": "amount",
          "type": "uint256"
        }
      ],
      "name": "transfer",
      "outputs": [
        {
          "internalType": "bool",
          "name": "",
          "type": "bool"
        }
      ],
      "stateMutability": "nonpayable",
      "type": "function"
    },
    {
      "inputs": [
        {
          "internalType": "address",
          "name": "sender",
          "type": "address"
        },
        {
          "internalType": "address",
          "name": "recipient",
          "type": "address"
        },
        {
          "internalType": "uint256",
          "name": "amount",
          "type": "uint256"
        }
      ],
      "name": "transferFrom",
      "outputs": [
        {
          "internalType": "bool",
          "name": "",
          "type": "bool"
        }
      ],
      "stateMutability": "nonpayable",
      "type": "function"
    },
    {
      "inputs": [],
      "name": "getChainId",
      "outputs": [
        {
          "internalType": "uint256",
          "name": "",
          "type": "uint256"
        }
      ],
      "stateMutability": "view",
      "type": "function"
    }
  ],
  "bytecode": "0x6101406040527f6e71edae12b1b97f4d1f60370fef10105fa2faae0126114a169c64845d6126c96101209081525060405162002a1938038062002a19833981810160405281019062000052919062000606565b83806040518060400160405280600181526020017f310000000000000000000000000000000000000000000000000000000000000081525086868160039080519060200190620000a492919062000319565b508060049080519060200190620000bd92919062000319565b50505060008280519060200120905060008280519060200120905060007f8b73c3c69bb8fe3d512ecc4cf759cc79239f7b179b0ffacaa9a75d522b39400f90508260c081815250508160e081815250504660a08181525050620001288184846200015a60201b60201c565b608081815250508061010081815250505050505050506200015082826200019660201b60201c565b50505050620008e1565b6000838383463060405160200162000177959493929190620006f3565b6040516020818303038152906040528051906020012090509392505050565b600073ffffffffffffffffffffffffffffffffffffffff168273ffffffffffffffffffffffffffffffffffffffff16141562000209576040517f08c379a00000000000000000000000000000000000000000000000000000000081526004016200020090620007b1565b60405180910390fd5b6200021d600083836200030f60201b60201c565b806002600082825462000231919062000802565b92505081905550806000808473ffffffffffffffffffffffffffffffffffffffff1673ffffffffffffffffffffffffffffffffffffffff168152602001908152602001600020600082825462000288919062000802565b925050819055508173ffffffffffffffffffffffffffffffffffffffff16600073ffffffffffffffffffffffffffffffffffffffff167fddf252ad1be2c89b69c2b068fc378daa952ba7f163c4a11628f55a4df523b3ef83604051620002ef91906200085f565b60405180910390a36200030b600083836200031460201b60201c565b5050565b505050565b505050565b8280546200032790620008ab565b90600052602060002090601f0160209004810192826200034b576000855562000397565b82601f106200036657805160ff191683800117855562000397565b8280016001018555821562000397579182015b828111156200039657825182559160200191906001019062000379565b5b509050620003a69190620003aa565b5090565b5b80821115620003c5576000816000905550600101620003ab565b5090565b6000604051905090565b600080fd5b600080fd5b600080fd5b600080fd5b6000601f19601f8301169050919050565b7f4e487b7100000000000000000000000000000000000000000000000000000000600052604160045260246000fd5b6200043282620003e7565b810181811067ffffffffffffffff82111715620004545762000453620003f8565b5b80604052505050565b600062000469620003c9565b905062000477828262000427565b919050565b600067ffffffffffffffff8211156200049a5762000499620003f8565b5b620004a582620003e7565b9050602081019050919050565b60005b83811015620004d2578082015181840152602081019050620004b5565b83811115620004e2576000848401525b50505050565b6000620004ff620004f9846200047c565b6200045d565b9050828152602081018484840111156200051e576200051d620003e2565b5b6200052b848285620004b2565b509392505050565b600082601f8301126200054b576200054a620003dd565b5b81516200055d848260208601620004e8565b91505092915050565b600073ffffffffffffffffffffffffffffffffffffffff82169050919050565b6000620005938262000566565b9050919050565b620005a58162000586565b8114620005b157600080fd5b50565b600081519050620005c5816200059a565b92915050565b6000819050919050565b620005e081620005cb565b8114620005ec57600080fd5b50565b6000815190506200060081620005d5565b92915050565b60008060008060808587031215620006235762000622620003d3565b5b600085015167ffffffffffffffff811115620006445762000643620003d8565b5b620006528782880162000533565b945050602085015167ffffffffffffffff811115620006765762000675620003d8565b5b620006848782880162000533565b93505060406200069787828801620005b4565b9250506060620006aa87828801620005ef565b91505092959194509250565b6000819050919050565b620006cb81620006b6565b82525050565b620006dc81620005cb565b82525050565b620006ed8162000586565b82525050565b600060a0820190506200070a6000830188620006c0565b620007196020830187620006c0565b620007286040830186620006c0565b620007376060830185620006d1565b620007466080830184620006e2565b9695505050505050565b600082825260208201905092915050565b7f45524332303a206d696e7420746f20746865207a65726f206164647265737300600082015250565b600062000799601f8362000750565b9150620007a68262000761565b602082019050919050565b60006020820190508181036000830152620007cc816200078a565b9050919050565b7f4e487b7100000000000000000000000000000000000000000000000000000000600052601160045260246000fd5b60006200080f82620005cb565b91506200081c83620005cb565b9250827fffffffffffffffffffffffffffffffffffffffffffffffffffffffffffffffff03821115620008545762000853620007d3565b5b828201905092915050565b6000602082019050620008766000830184620006d1565b92915050565b7f4e487b7100000000000000000000000000000000000000000000000000000000600052602260045260246000fd5b60006002820490506001821680620008c457607f821691505b60208210811415620008db57620008da6200087c565b5b50919050565b60805160a05160c05160e05161010051610120516120e862000931600039600061084201526000610e6f01526000610eb101526000610e9001526000610e1c01526000610e4401526120e86000f3fe608060405234801561001057600080fd5b50600436106100f55760003560e01c80633950935111610097578063a457c2d711610066578063a457c2d71461029e578063a9059cbb146102ce578063d505accf146102fe578063dd62ed3e1461031a576100f5565b806339509351146101f057806370a08231146102205780637ecebe001461025057806395d89b4114610280576100f5565b806323b872dd116100d357806323b872dd14610166578063313ce567146101965780633408e470146101b45780633644e515146101d2576100f5565b806306fdde03146100fa578063095ea7b31461011857806318160ddd14610148575b600080fd5b61010261034a565b60405161010f9190611394565b60405180910390f35b610132600480360381019061012d919061144f565b6103dc565b60405161013f91906114aa565b60405180910390f35b6101506103fa565b60405161015d91906114d4565b60405180910390f35b610180600480360381019061017b91906114ef565b610404565b60405161018d91906114aa565b60405180910390f35b61019e6104fc565b6040516101ab919061155e565b60405180910390f35b6101bc610505565b6040516101c991906114d4565b60405180910390f35b6101da61050d565b6040516101e79190611592565b60405180910390f35b61020a6004803603810190610205919061144f565b61051c565b60405161021791906114aa565b60405180910390f35b61023a600480360381019061023591906115ad565b6105c8565b60405161024791906114d4565b60405180910390f35b61026a600480360381019061026591906115ad565b610610565b60405161027791906114d4565b60405180910390f35b610288610660565b6040516102959190611394565b60405180910390f35b6102b860048036038101906102b3919061144f565b6106f2565b6040516102c591906114aa565b60405180910390f35b6102e860048036038101906102e3919061144f565b6107dd565b6040516102f591906114aa565b60405180910390f35b61031860048036038101906103139190611632565b6107fb565b005b610334600480360381019061032f91906116d4565b61093d565b60405161034191906114d4565b60405180910390f35b60606003805461035990611743565b80601f016020809104026020016040519081016040528092919081815260200182805461038590611743565b80156103d25780601f106103a7576101008083540402835291602001916103d2565b820191906000526020600020905b8154815290600101906020018083116103b557829003601f168201915b5050505050905090565b60006103f06103e96109c4565b84846109cc565b6001905092915050565b6000600254905090565b6000610411848484610b97565b6000600160008673ffffffffffffffffffffffffffffffffffffffff1673ffffffffffffffffffffffffffffffffffffffff168152602001908152602001600020600061045c6109c4565b73ffffffffffffffffffffffffffffffffffffffff1673ffffffffffffffffffffffffffffffffffffffff168152602001908152602001600020549050828110156104dc576040517f08c379a00000000000000000000000000000000000000000000000000000000081526004016104d3906117e7565b60405180910390fd5b6104f0856104e86109c4565b8584036109cc565b60019150509392505050565b60006012905090565b600046905090565b6000610517610e18565b905090565b60006105be6105296109c4565b8484600160006105376109c4565b73ffffffffffffffffffffffffffffffffffffffff1673ffffffffffffffffffffffffffffffffffffffff16815260200190815260200160002060008873ffffffffffffffffffffffffffffffffffffffff1673ffffffffffffffffffffffffffffffffffffffff168152602001908152602001600020546105b99190611836565b6109cc565b6001905092915050565b60008060008373ffffffffffffffffffffffffffffffffffffffff1673ffffffffffffffffffffffffffffffffffffffff168152602001908152602001600020549050919050565b6000610659600560008473ffffffffffffffffffffffffffffffffffffffff1673ffffffffffffffffffffffffffffffffffffffff168152602001908152602001600020610edb565b9050919050565b60606004805461066f90611743565b80601f016020809104026020016040519081016040528092919081815260200182805461069b90611743565b80156106e85780601f106106bd576101008083540402835291602001916106e8565b820191906000526020600020905b8154815290600101906020018083116106cb57829003601f168201915b5050505050905090565b600080600160006107016109c4565b73ffffffffffffffffffffffffffffffffffffffff1673ffffffffffffffffffffffffffffffffffffffff16815260200190815260200160002060008573ffffffffffffffffffffffffffffffffffffffff1673ffffffffffffffffffffffffffffffffffffffff168152602001908152602001600020549050828110156107be576040517f08c379a00000000000000000000000000000000000000000000000000000000081526004016107b5906118fe565b60405180910390fd5b6107d26107c96109c4565b858584036109cc565b600191505092915050565b60006107f16107ea6109c4565b8484610b97565b6001905092915050565b8342111561083e576040517f08c379a00000000000000000000000000000000000000000000000000000000081526004016108359061196a565b60405180910390fd5b60007f000000000000000000000000000000000000000000000000000000000000000088888861086d8c610ee9565b8960405160200161088396959493929190611999565b60405160208183030381529060405280519060200120905060006108a682610f47565b905060006108b682878787610f61565b90508973ffffffffffffffffffffffffffffffffffffffff168173ffffffffffffffffffffffffffffffffffffffff1614610926576040517f08c379a000000000000000000000000000000000000000000000000000000000815260040161091d90611a46565b60405180910390fd5b6109318a8a8a6109cc565b50505050505050505050565b6000600160008473ffffffffffffffffffffffffffffffffffffffff1673ffffffffffffffffffffffffffffffffffffffff16815260200190815260200160002060008373ffffffffffffffffffffffffffffffffffffffff1673ffffffffffffffffffffffffffffffffffffffff16815260200190815260200160002054905092915050565b600033905090565b600073ffffffffffffffffffffffffffffffffffffffff168373ffffffffffffffffffffffffffffffffffffffff161415610a3c576040517f08c379a0000000000000000000000000000000000000000000000000000000008152600401610a3390611ad8565b60405180910390fd5b600073ffffffffffffffffffffffffffffffffffffffff168273ffffffffffffffffffffffffffffffffffffffff161415610aac576040517f08c379a0000000000000000000000000000000000000000000000000000000008152600401610aa390611b6a565b60405180910390fd5b80600160008573ffffffffffffffffffffffffffffffffffffffff1673ffffffffffffffffffffffffffffffffffffffff16815260200190815260200160002060008473ffffffffffffffffffffffffffffffffffffffff1673ffffffffffffffffffffffffffffffffffffffff168152602001908152602001600020819055508173ffffffffffffffffffffffffffffffffffffffff168373ffffffffffffffffffffffffffffffffffffffff167f8c5be1e5ebec7d5bd14f71427d1e84f3dd0314c0f7b2291e5b200ac8c7c3b92583604051610b8a91906114d4565b60405180910390a3505050565b600073ffffffffffffffffffffffffffffffffffffffff168373ffffffffffffffffffffffffffffffffffffffff161415610c07576040517f08c379a0000000000000000000000000000000000000000000000000000000008152600401610bfe90611bfc565b60405180910390fd5b600073ffffffffffffffffffffffffffffffffffffffff168273ffffffffffffffffffffffffffffffffffffffff161415610c77576040517f08c379a0000000000000000000000000000000000000000000000000000000008152600401610c6e90611c8e565b60405180910390fd5b610c82838383610f8c565b60008060008573ffffffffffffffffffffffffffffffffffffffff1673ffffffffffffffffffffffffffffffffffffffff16815260200190815260200160002054905081811015610d08576040517f08c379a0000000000000000000000000000000000000000000000000000000008152600401610cff90611d20565b60405180910390fd5b8181036000808673ffffffffffffffffffffffffffffffffffffffff1673ffffffffffffffffffffffffffffffffffffffff16815260200190815260200160002081905550816000808573ffffffffffffffffffffffffffffffffffffffff1673ffffffffffffffffffffffffffffffffffffffff1681526020019081526020016000206000828254610d9b9190611836565b925050819055508273ffffffffffffffffffffffffffffffffffffffff168473ffffffffffffffffffffffffffffffffffffffff167fddf252ad1be2c89b69c2b068fc378daa952ba7f163c4a11628f55a4df523b3ef84604051610dff91906114d4565b60405180910390a3610e12848484610f91565b50505050565b60007f0000000000000000000000000000000000000000000000000000000000000000461415610e6a577f00000000000000000000000000000000000000000000000000000000000000009050610ed8565b610ed57f00000000000000000000000000000000000000000000000000000000000000007f00000000000000000000000000000000000000000000000000000000000000007f0000000000000000000000000000000000000000000000000000000000000000610f96565b90505b90565b600081600001549050919050565b600080600560008473ffffffffffffffffffffffffffffffffffffffff1673ffffffffffffffffffffffffffffffffffffffff1681526020019081526020016000209050610f3681610edb565b9150610f4181610fd0565b50919050565b6000610f5a610f54610e18565b83610fe6565b9050919050565b6000806000610f7287878787611019565b91509150610f7f81611126565b8192505050949350505050565b505050565b505050565b60008383834630604051602001610fb1959493929190611d40565b6040516020818303038152906040528051906020012090509392505050565b6001816000016000828254019250508190555050565b60008282604051602001610ffb929190611e0b565b60405160208183030381529060405280519060200120905092915050565b6000807f7fffffffffffffffffffffffffffffff5d576e7357a4501ddfe92f46681b20a08360001c111561105457600060039150915061111d565b601b8560ff161415801561106c5750601c8560ff1614155b1561107e57600060049150915061111d565b6000600187878787604051600081526020016040526040516110a39493929190611e42565b6020604051602081039080840390855afa1580156110c5573d6000803e3d6000fd5b505050602060405103519050600073ffffffffffffffffffffffffffffffffffffffff168173ffffffffffffffffffffffffffffffffffffffff1614156111145760006001925092505061111d565b80600092509250505b94509492505050565b6000600481111561113a57611139611e87565b5b81600481111561114d5761114c611e87565b5b1415611158576112f8565b6001600481111561116c5761116b611e87565b5b81600481111561117f5761117e611e87565b5b14156111c0576040517f08c379a00000000000000000000000000000000000000000000000000000000081526004016111b790611f02565b60405180910390fd5b600260048111156111d4576111d3611e87565b5b8160048111156111e7576111e6611e87565b5b1415611228576040517f08c379a000000000000000000000000000000000000000000000000000000000815260040161121f90611f6e565b60405180910390fd5b6003600481111561123c5761123b611e87565b5b81600481111561124f5761124e611e87565b5b1415611290576040517f08c379a000000000000000000000000000000000000000000000000000000000815260040161128790612000565b60405180910390fd5b6004808111156112a3576112a2611e87565b5b8160048111156112b6576112b5611e87565b5b14156112f7576040517f08c379a00000000000000000000000000000000000000000000000000000000081526004016112ee90612092565b60405180910390fd5b5b50565b600081519050919050565b600082825260208201905092915050565b60005b8381101561133557808201518184015260208101905061131a565b83811115611344576000848401525b50505050565b6000601f19601f8301169050919050565b6000611366826112fb565b6113708185611306565b9350611380818560208601611317565b6113898161134a565b840191505092915050565b600060208201905081810360008301526113ae818461135b565b905092915050565b600080fd5b600073ffffffffffffffffffffffffffffffffffffffff82169050919050565b60006113e6826113bb565b9050919050565b6113f6816113db565b811461140157600080fd5b50565b600081359050611413816113ed565b92915050565b6000819050919050565b61142c81611419565b811461143757600080fd5b50565b60008135905061144981611423565b92915050565b60008060408385031215611466576114656113b6565b5b600061147485828601611404565b92505060206114858582860161143a565b9150509250929050565b60008115159050919050565b6114a48161148f565b82525050565b60006020820190506114bf600083018461149b565b92915050565b6114ce81611419565b82525050565b60006020820190506114e960008301846114c5565b92915050565b600080600060608486031215611508576115076113b6565b5b600061151686828701611404565b935050602061152786828701611404565b92505060406115388682870161143a565b9150509250925092565b600060ff82169050919050565b61155881611542565b82525050565b6000602082019050611573600083018461154f565b92915050565b6000819050919050565b61158c81611579565b82525050565b60006020820190506115a76000830184611583565b92915050565b6000602082840312156115c3576115c26113b6565b5b60006115d184828501611404565b91505092915050565b6115e381611542565b81146115ee57600080fd5b50565b600081359050611600816115da565b92915050565b61160f81611579565b811461161a57600080fd5b50565b60008135905061162c81611606565b92915050565b600080600080600080600060e0888a031215611651576116506113b6565b5b600061165f8a828b01611404565b97505060206116708a828b01611404565b96505060406116818a828b0161143a565b95505060606116928a828b0161143a565b94505060806116a38a828b016115f1565b93505060a06116b48a828b0161161d565b92505060c06116c58a828b0161161d565b91505092959891949750929550565b600080604083850312156116eb576116ea6113b6565b5b60006116f985828601611404565b925050602061170a85828601611404565b9150509250929050565b7f4e487b7100000000000000000000000000000000000000000000000000000000600052602260045260246000fd5b6000600282049050600182168061175b57607f821691505b6020821081141561176f5761176e611714565b5b50919050565b7f45524332303a207472616e7366657220616d6f756e742065786365656473206160008201527f6c6c6f77616e6365000000000000000000000000000000000000000000000000602082015250565b60006117d1602883611306565b91506117dc82611775565b604082019050919050565b60006020820190508181036000830152611800816117c4565b9050919050565b7f4e487b7100000000000000000000000000000000000000000000000000000000600052601160045260246000fd5b600061184182611419565b915061184c83611419565b9250827fffffffffffffffffffffffffffffffffffffffffffffffffffffffffffffffff0382111561188157611880611807565b5b828201905092915050565b7f45524332303a2064656372656173656420616c6c6f77616e63652062656c6f7760008201527f207a65726f000000000000000000000000000000000000000000000000000000602082015250565b60006118e8602583611306565b91506118f38261188c565b604082019050919050565b60006020820190508181036000830152611917816118db565b9050919050565b7f45524332305065726d69743a206578706972656420646561646c696e65000000600082015250565b6000611954601d83611306565b915061195f8261191e565b602082019050919050565b6000602082019050818103600083015261198381611947565b9050919050565b611993816113db565b82525050565b600060c0820190506119ae6000830189611583565b6119bb602083018861198a565b6119c8604083018761198a565b6119d560608301866114c5565b6119e260808301856114c5565b6119ef60a08301846114c5565b979650505050505050565b7f45524332305065726d69743a20696e76616c6964207369676e61747572650000600082015250565b6000611a30601e83611306565b9150611a3b826119fa565b602082019050919050565b60006020820190508181036000830152611a5f81611a23565b9050919050565b7f45524332303a20617070726f76652066726f6d20746865207a65726f2061646460008201527f7265737300000000000000000000000000000000000000000000000000000000602082015250565b6000611ac2602483611306565b9150611acd82611a66565b604082019050919050565b60006020820190508181036000830152611af181611ab5565b9050919050565b7f45524332303a20617070726f766520746f20746865207a65726f20616464726560008201527f7373000000000000000000000000000000000000000000000000000000000000602082015250565b6000611b54602283611306565b9150611b5f82611af8565b604082019050919050565b60006020820190508181036000830152611b8381611b47565b9050919050565b7f45524332303a207472616e736665722066726f6d20746865207a65726f20616460008201527f6472657373000000000000000000000000000000000000000000000000000000602082015250565b6000611be6602583611306565b9150611bf182611b8a565b604082019050919050565b60006020820190508181036000830152611c1581611bd9565b9050919050565b7f45524332303a207472616e7366657220746f20746865207a65726f206164647260008201527f6573730000000000000000000000000000000000000000000000000000000000602082015250565b6000611c78602383611306565b9150611c8382611c1c565b604082019050919050565b60006020820190508181036000830152611ca781611c6b565b9050919050565b7f45524332303a207472616e7366657220616d6f756e742065786365656473206260008201527f616c616e63650000000000000000000000000000000000000000000000000000602082015250565b6000611d0a602683611306565b9150611d1582611cae565b604082019050919050565b60006020820190508181036000830152611d3981611cfd565b9050919050565b600060a082019050611d556000830188611583565b611d626020830187611583565b611d6f6040830186611583565b611d7c60608301856114c5565b611d89608083018461198a565b9695505050505050565b600081905092915050565b7f1901000000000000000000000000000000000000000000000000000000000000600082015250565b6000611dd4600283611d93565b9150611ddf82611d9e565b600282019050919050565b6000819050919050565b611e05611e0082611579565b611dea565b82525050565b6000611e1682611dc7565b9150611e228285611df4565b602082019150611e328284611df4565b6020820191508190509392505050565b6000608082019050611e576000830187611583565b611e64602083018661154f565b611e716040830185611583565b611e7e6060830184611583565b95945050505050565b7f4e487b7100000000000000000000000000000000000000000000000000000000600052602160045260246000fd5b7f45434453413a20696e76616c6964207369676e61747572650000000000000000600082015250565b6000611eec601883611306565b9150611ef782611eb6565b602082019050919050565b60006020820190508181036000830152611f1b81611edf565b9050919050565b7f45434453413a20696e76616c6964207369676e6174757265206c656e67746800600082015250565b6000611f58601f83611306565b9150611f6382611f22565b602082019050919050565b60006020820190508181036000830152611f8781611f4b565b9050919050565b7f45434453413a20696e76616c6964207369676e6174757265202773272076616c60008201527f7565000000000000000000000000000000000000000000000000000000000000602082015250565b6000611fea602283611306565b9150611ff582611f8e565b604082019050919050565b6000602082019050818103600083015261201981611fdd565b9050919050565b7f45434453413a20696e76616c6964207369676e6174757265202776272076616c60008201527f7565000000000000000000000000000000000000000000000000000000000000602082015250565b600061207c602283611306565b915061208782612020565b604082019050919050565b600060208201905081810360008301526120ab8161206f565b905091905056fea26469706673582212203b3de89461f21949d6304e8ca8be48af4285c6fdb02b4c69828bba302354641564736f6c63430008090033",
  "immutableReferences": {
    "20877": [
      {
        "length": 32,
        "start": 2114
      }
    ],
    "26329": [
      {
        "length": 32,
        "start": 3652
      }
    ],
    "26331": [
      {
        "length": 32,
        "start": 3612
      }
    ],
    "26333": [
      {
        "length": 32,
        "start": 3728
      }
    ],
    "26335": [
      {
        "length": 32,
        "start": 3761
      }
    ],
    "26337": [
      {
        "length": 32,
        "start": 3695
      }
    ]
  },
  "source": "// SPDX-License-Identifier: MIT\r\n\r\npragma solidity ^0.8.0;\r\n\r\nimport \"../token/ERC20/extensions/draft-ERC20Permit.sol\";\r\n\r\ncontract ERC20PermitMock is ERC20Permit {\r\n    constructor(\r\n        string memory name,\r\n        string memory symbol,\r\n        address initialAccount,\r\n        uint256 initialBalance\r\n    ) payable ERC20(name, symbol) ERC20Permit(name) {\r\n        _mint(initialAccount, initialBalance);\r\n    }\r\n\r\n    function getChainId() external view returns (uint256) {\r\n        return block.chainid;\r\n    }\r\n}\r\n",
  "sourcePath": "C:\\Climax\\NFT-marketplace\\contracts\\openzeppelin-solidity\\contracts\\mocks\\ERC20PermitMock.sol",
  "compiler": {
    "name": "solc",
    "version": "0.8.9+commit.e5eed63a.Emscripten.clang"
  },
  "schemaVersion": "3.4.3",
  "updatedAt": "2021-10-26T11:45:25.545Z",
  "devdoc": {
    "kind": "dev",
    "methods": {
      "DOMAIN_SEPARATOR()": {
        "details": "See {IERC20Permit-DOMAIN_SEPARATOR}."
      },
      "allowance(address,address)": {
        "details": "See {IERC20-allowance}."
      },
      "approve(address,uint256)": {
        "details": "See {IERC20-approve}. Requirements: - `spender` cannot be the zero address."
      },
      "balanceOf(address)": {
        "details": "See {IERC20-balanceOf}."
      },
      "decimals()": {
        "details": "Returns the number of decimals used to get its user representation. For example, if `decimals` equals `2`, a balance of `505` tokens should be displayed to a user as `5.05` (`505 / 10 ** 2`). Tokens usually opt for a value of 18, imitating the relationship between Ether and Wei. This is the value {ERC20} uses, unless this function is overridden; NOTE: This information is only used for _display_ purposes: it in no way affects any of the arithmetic of the contract, including {IERC20-balanceOf} and {IERC20-transfer}."
      },
      "decreaseAllowance(address,uint256)": {
        "details": "Atomically decreases the allowance granted to `spender` by the caller. This is an alternative to {approve} that can be used as a mitigation for problems described in {IERC20-approve}. Emits an {Approval} event indicating the updated allowance. Requirements: - `spender` cannot be the zero address. - `spender` must have allowance for the caller of at least `subtractedValue`."
      },
      "increaseAllowance(address,uint256)": {
        "details": "Atomically increases the allowance granted to `spender` by the caller. This is an alternative to {approve} that can be used as a mitigation for problems described in {IERC20-approve}. Emits an {Approval} event indicating the updated allowance. Requirements: - `spender` cannot be the zero address."
      },
      "name()": {
        "details": "Returns the name of the token."
      },
      "nonces(address)": {
        "details": "See {IERC20Permit-nonces}."
      },
      "permit(address,address,uint256,uint256,uint8,bytes32,bytes32)": {
        "details": "See {IERC20Permit-permit}."
      },
      "symbol()": {
        "details": "Returns the symbol of the token, usually a shorter version of the name."
      },
      "totalSupply()": {
        "details": "See {IERC20-totalSupply}."
      },
      "transfer(address,uint256)": {
        "details": "See {IERC20-transfer}. Requirements: - `recipient` cannot be the zero address. - the caller must have a balance of at least `amount`."
      },
      "transferFrom(address,address,uint256)": {
        "details": "See {IERC20-transferFrom}. Emits an {Approval} event indicating the updated allowance. This is not required by the EIP. See the note at the beginning of {ERC20}. Requirements: - `sender` and `recipient` cannot be the zero address. - `sender` must have a balance of at least `amount`. - the caller must have allowance for ``sender``'s tokens of at least `amount`."
      }
    },
    "version": 1
  },
  "userdoc": {
    "kind": "user",
    "methods": {},
    "version": 1
  }
}