{
  "contractName": "ERC20PausableMock",
  "abi": [
    {
      "inputs": [
        {
          "internalType": "string",
          "name": "name",
          "type": "string"
        },
        {
          "internalType": "string",
          "name": "symbol",
          "type": "string"
        },
        {
          "internalType": "address",
          "name": "initialAccount",
          "type": "address"
        },
        {
          "internalType": "uint256",
          "name": "initialBalance",
          "type": "uint256"
        }
      ],
      "stateMutability": "nonpayable",
      "type": "constructor"
    },
    {
      "anonymous": false,
      "inputs": [
        {
          "indexed": true,
          "internalType": "address",
          "name": "owner",
          "type": "address"
        },
        {
          "indexed": true,
          "internalType": "address",
          "name": "spender",
          "type": "address"
        },
        {
          "indexed": false,
          "internalType": "uint256",
          "name": "value",
          "type": "uint256"
        }
      ],
      "name": "Approval",
      "type": "event"
    },
    {
      "anonymous": false,
      "inputs": [
        {
          "indexed": false,
          "internalType": "address",
          "name": "account",
          "type": "address"
        }
      ],
      "name": "Paused",
      "type": "event"
    },
    {
      "anonymous": false,
      "inputs": [
        {
          "indexed": true,
          "internalType": "address",
          "name": "from",
          "type": "address"
        },
        {
          "indexed": true,
          "internalType": "address",
          "name": "to",
          "type": "address"
        },
        {
          "indexed": false,
          "internalType": "uint256",
          "name": "value",
          "type": "uint256"
        }
      ],
      "name": "Transfer",
      "type": "event"
    },
    {
      "anonymous": false,
      "inputs": [
        {
          "indexed": false,
          "internalType": "address",
          "name": "account",
          "type": "address"
        }
      ],
      "name": "Unpaused",
      "type": "event"
    },
    {
      "inputs": [
        {
          "internalType": "address",
          "name": "owner",
          "type": "address"
        },
        {
          "internalType": "address",
          "name": "spender",
          "type": "address"
        }
      ],
      "name": "allowance",
      "outputs": [
        {
          "internalType": "uint256",
          "name": "",
          "type": "uint256"
        }
      ],
      "stateMutability": "view",
      "type": "function"
    },
    {
      "inputs": [
        {
          "internalType": "address",
          "name": "spender",
          "type": "address"
        },
        {
          "internalType": "uint256",
          "name": "amount",
          "type": "uint256"
        }
      ],
      "name": "approve",
      "outputs": [
        {
          "internalType": "bool",
          "name": "",
          "type": "bool"
        }
      ],
      "stateMutability": "nonpayable",
      "type": "function"
    },
    {
      "inputs": [
        {
          "internalType": "address",
          "name": "account",
          "type": "address"
        }
      ],
      "name": "balanceOf",
      "outputs": [
        {
          "internalType": "uint256",
          "name": "",
          "type": "uint256"
        }
      ],
      "stateMutability": "view",
      "type": "function"
    },
    {
      "inputs": [],
      "name": "decimals",
      "outputs": [
        {
          "internalType": "uint8",
          "name": "",
          "type": "uint8"
        }
      ],
      "stateMutability": "view",
      "type": "function"
    },
    {
      "inputs": [
        {
          "internalType": "address",
          "name": "spender",
          "type": "address"
        },
        {
          "internalType": "uint256",
          "name": "subtractedValue",
          "type": "uint256"
        }
      ],
      "name": "decreaseAllowance",
      "outputs": [
        {
          "internalType": "bool",
          "name": "",
          "type": "bool"
        }
      ],
      "stateMutability": "nonpayable",
      "type": "function"
    },
    {
      "inputs": [
        {
          "internalType": "address",
          "name": "spender",
          "type": "address"
        },
        {
          "internalType": "uint256",
          "name": "addedValue",
          "type": "uint256"
        }
      ],
      "name": "increaseAllowance",
      "outputs": [
        {
          "internalType": "bool",
          "name": "",
          "type": "bool"
        }
      ],
      "stateMutability": "nonpayable",
      "type": "function"
    },
    {
      "inputs": [],
      "name": "name",
      "outputs": [
        {
          "internalType": "string",
          "name": "",
          "type": "string"
        }
      ],
      "stateMutability": "view",
      "type": "function"
    },
    {
      "inputs": [],
      "name": "paused",
      "outputs": [
        {
          "internalType": "bool",
          "name": "",
          "type": "bool"
        }
      ],
      "stateMutability": "view",
      "type": "function"
    },
    {
      "inputs": [],
      "name": "symbol",
      "outputs": [
        {
          "internalType": "string",
          "name": "",
          "type": "string"
        }
      ],
      "stateMutability": "view",
      "type": "function"
    },
    {
      "inputs": [],
      "name": "totalSupply",
      "outputs": [
        {
          "internalType": "uint256",
          "name": "",
          "type": "uint256"
        }
      ],
      "stateMutability": "view",
      "type": "function"
    },
    {
      "inputs": [
        {
          "internalType": "address",
          "name": "recipient",
          "type": "address"
        },
        {
          "internalType": "uint256",
          "name": "amount",
          "type": "uint256"
        }
      ],
      "name": "transfer",
      "outputs": [
        {
          "internalType": "bool",
          "name": "",
          "type": "bool"
        }
      ],
      "stateMutability": "nonpayable",
      "type": "function"
    },
    {
      "inputs": [
        {
          "internalType": "address",
          "name": "sender",
          "type": "address"
        },
        {
          "internalType": "address",
          "name": "recipient",
          "type": "address"
        },
        {
          "internalType": "uint256",
          "name": "amount",
          "type": "uint256"
        }
      ],
      "name": "transferFrom",
      "outputs": [
        {
          "internalType": "bool",
          "name": "",
          "type": "bool"
        }
      ],
      "stateMutability": "nonpayable",
      "type": "function"
    },
    {
      "inputs": [],
      "name": "pause",
      "outputs": [],
      "stateMutability": "nonpayable",
      "type": "function"
    },
    {
      "inputs": [],
      "name": "unpause",
      "outputs": [],
      "stateMutability": "nonpayable",
      "type": "function"
    },
    {
      "inputs": [
        {
          "internalType": "address",
          "name": "to",
          "type": "address"
        },
        {
          "internalType": "uint256",
          "name": "amount",
          "type": "uint256"
        }
      ],
      "name": "mint",
      "outputs": [],
      "stateMutability": "nonpayable",
      "type": "function"
    },
    {
      "inputs": [
        {
          "internalType": "address",
          "name": "from",
          "type": "address"
        },
        {
          "internalType": "uint256",
          "name": "amount",
          "type": "uint256"
        }
      ],
      "name": "burn",
      "outputs": [],
      "stateMutability": "nonpayable",
      "type": "function"
    }
  ],
  "bytecode": "0x60806040523480156200001157600080fd5b50604051620025733803806200257383398181016040528101906200003791906200059b565b8383816003908051906020019062000051929190620002ae565b5080600490805190602001906200006a929190620002ae565b5050506000600560006101000a81548160ff0219169083151502179055506200009a8282620000a460201b60201c565b5050505062000885565b600073ffffffffffffffffffffffffffffffffffffffff168273ffffffffffffffffffffffffffffffffffffffff16141562000117576040517f08c379a00000000000000000000000000000000000000000000000000000000081526004016200010e90620006ac565b60405180910390fd5b6200012b600083836200021d60201b60201c565b80600260008282546200013f9190620006fd565b92505081905550806000808473ffffffffffffffffffffffffffffffffffffffff1673ffffffffffffffffffffffffffffffffffffffff1681526020019081526020016000206000828254620001969190620006fd565b925050819055508173ffffffffffffffffffffffffffffffffffffffff16600073ffffffffffffffffffffffffffffffffffffffff167fddf252ad1be2c89b69c2b068fc378daa952ba7f163c4a11628f55a4df523b3ef83604051620001fd91906200076b565b60405180910390a362000219600083836200028d60201b60201c565b5050565b620002358383836200029260201b6200084f1760201c565b620002456200029760201b60201c565b1562000288576040517f08c379a00000000000000000000000000000000000000000000000000000000081526004016200027f90620007fe565b60405180910390fd5b505050565b505050565b505050565b6000600560009054906101000a900460ff16905090565b828054620002bc906200084f565b90600052602060002090601f016020900481019282620002e057600085556200032c565b82601f10620002fb57805160ff19168380011785556200032c565b828001600101855582156200032c579182015b828111156200032b5782518255916020019190600101906200030e565b5b5090506200033b91906200033f565b5090565b5b808211156200035a57600081600090555060010162000340565b5090565b6000604051905090565b600080fd5b600080fd5b600080fd5b600080fd5b6000601f19601f8301169050919050565b7f4e487b7100000000000000000000000000000000000000000000000000000000600052604160045260246000fd5b620003c7826200037c565b810181811067ffffffffffffffff82111715620003e957620003e86200038d565b5b80604052505050565b6000620003fe6200035e565b90506200040c8282620003bc565b919050565b600067ffffffffffffffff8211156200042f576200042e6200038d565b5b6200043a826200037c565b9050602081019050919050565b60005b83811015620004675780820151818401526020810190506200044a565b8381111562000477576000848401525b50505050565b6000620004946200048e8462000411565b620003f2565b905082815260208101848484011115620004b357620004b262000377565b5b620004c084828562000447565b509392505050565b600082601f830112620004e057620004df62000372565b5b8151620004f28482602086016200047d565b91505092915050565b600073ffffffffffffffffffffffffffffffffffffffff82169050919050565b60006200052882620004fb565b9050919050565b6200053a816200051b565b81146200054657600080fd5b50565b6000815190506200055a816200052f565b92915050565b6000819050919050565b620005758162000560565b81146200058157600080fd5b50565b60008151905062000595816200056a565b92915050565b60008060008060808587031215620005b857620005b762000368565b5b600085015167ffffffffffffffff811115620005d957620005d86200036d565b5b620005e787828801620004c8565b945050602085015167ffffffffffffffff8111156200060b576200060a6200036d565b5b6200061987828801620004c8565b93505060406200062c8782880162000549565b92505060606200063f8782880162000584565b91505092959194509250565b600082825260208201905092915050565b7f45524332303a206d696e7420746f20746865207a65726f206164647265737300600082015250565b600062000694601f836200064b565b9150620006a1826200065c565b602082019050919050565b60006020820190508181036000830152620006c78162000685565b9050919050565b7f4e487b7100000000000000000000000000000000000000000000000000000000600052601160045260246000fd5b60006200070a8262000560565b9150620007178362000560565b9250827fffffffffffffffffffffffffffffffffffffffffffffffffffffffffffffffff038211156200074f576200074e620006ce565b5b828201905092915050565b620007658162000560565b82525050565b60006020820190506200078260008301846200075a565b92915050565b7f45524332305061757361626c653a20746f6b656e207472616e7366657220776860008201527f696c652070617573656400000000000000000000000000000000000000000000602082015250565b6000620007e6602a836200064b565b9150620007f38262000788565b604082019050919050565b600060208201905081810360008301526200081981620007d7565b9050919050565b7f4e487b7100000000000000000000000000000000000000000000000000000000600052602260045260246000fd5b600060028204905060018216806200086857607f821691505b602082108114156200087f576200087e62000820565b5b50919050565b611cde80620008956000396000f3fe608060405234801561001057600080fd5b50600436106101005760003560e01c80635c975abb116100975780639dc29fac116100665780639dc29fac1461028b578063a457c2d7146102a7578063a9059cbb146102d7578063dd62ed3e1461030757610100565b80635c975abb1461021557806370a08231146102335780638456cb591461026357806395d89b411461026d57610100565b8063313ce567116100d3578063313ce567146101a157806339509351146101bf5780633f4ba83a146101ef57806340c10f19146101f957610100565b806306fdde0314610105578063095ea7b31461012357806318160ddd1461015357806323b872dd14610171575b600080fd5b61010d610337565b60405161011a919061121a565b60405180910390f35b61013d600480360381019061013891906112d5565b6103c9565b60405161014a9190611330565b60405180910390f35b61015b6103e7565b604051610168919061135a565b60405180910390f35b61018b60048036038101906101869190611375565b6103f1565b6040516101989190611330565b60405180910390f35b6101a96104e9565b6040516101b691906113e4565b60405180910390f35b6101d960048036038101906101d491906112d5565b6104f2565b6040516101e69190611330565b60405180910390f35b6101f761059e565b005b610213600480360381019061020e91906112d5565b6105a8565b005b61021d6105b6565b60405161022a9190611330565b60405180910390f35b61024d600480360381019061024891906113ff565b6105cd565b60405161025a919061135a565b60405180910390f35b61026b610615565b005b61027561061f565b604051610282919061121a565b60405180910390f35b6102a560048036038101906102a091906112d5565b6106b1565b005b6102c160048036038101906102bc91906112d5565b6106bf565b6040516102ce9190611330565b60405180910390f35b6102f160048036038101906102ec91906112d5565b6107aa565b6040516102fe9190611330565b60405180910390f35b610321600480360381019061031c919061142c565b6107c8565b60405161032e919061135a565b60405180910390f35b6060600380546103469061149b565b80601f01602080910402602001604051908101604052809291908181526020018280546103729061149b565b80156103bf5780601f10610394576101008083540402835291602001916103bf565b820191906000526020600020905b8154815290600101906020018083116103a257829003601f168201915b5050505050905090565b60006103dd6103d6610854565b848461085c565b6001905092915050565b6000600254905090565b60006103fe848484610a27565b6000600160008673ffffffffffffffffffffffffffffffffffffffff1673ffffffffffffffffffffffffffffffffffffffff1681526020019081526020016000206000610449610854565b73ffffffffffffffffffffffffffffffffffffffff1673ffffffffffffffffffffffffffffffffffffffff168152602001908152602001600020549050828110156104c9576040517f08c379a00000000000000000000000000000000000000000000000000000000081526004016104c09061153f565b60405180910390fd5b6104dd856104d5610854565b85840361085c565b60019150509392505050565b60006012905090565b60006105946104ff610854565b84846001600061050d610854565b73ffffffffffffffffffffffffffffffffffffffff1673ffffffffffffffffffffffffffffffffffffffff16815260200190815260200160002060008873ffffffffffffffffffffffffffffffffffffffff1673ffffffffffffffffffffffffffffffffffffffff1681526020019081526020016000205461058f919061158e565b61085c565b6001905092915050565b6105a6610ca8565b565b6105b28282610d4a565b5050565b6000600560009054906101000a900460ff16905090565b60008060008373ffffffffffffffffffffffffffffffffffffffff1673ffffffffffffffffffffffffffffffffffffffff168152602001908152602001600020549050919050565b61061d610eaa565b565b60606004805461062e9061149b565b80601f016020809104026020016040519081016040528092919081815260200182805461065a9061149b565b80156106a75780601f1061067c576101008083540402835291602001916106a7565b820191906000526020600020905b81548152906001019060200180831161068a57829003601f168201915b5050505050905090565b6106bb8282610f4d565b5050565b600080600160006106ce610854565b73ffffffffffffffffffffffffffffffffffffffff1673ffffffffffffffffffffffffffffffffffffffff16815260200190815260200160002060008573ffffffffffffffffffffffffffffffffffffffff1673ffffffffffffffffffffffffffffffffffffffff1681526020019081526020016000205490508281101561078b576040517f08c379a000000000000000000000000000000000000000000000000000000000815260040161078290611656565b60405180910390fd5b61079f610796610854565b8585840361085c565b600191505092915050565b60006107be6107b7610854565b8484610a27565b6001905092915050565b6000600160008473ffffffffffffffffffffffffffffffffffffffff1673ffffffffffffffffffffffffffffffffffffffff16815260200190815260200160002060008373ffffffffffffffffffffffffffffffffffffffff1673ffffffffffffffffffffffffffffffffffffffff16815260200190815260200160002054905092915050565b505050565b600033905090565b600073ffffffffffffffffffffffffffffffffffffffff168373ffffffffffffffffffffffffffffffffffffffff1614156108cc576040517f08c379a00000000000000000000000000000000000000000000000000000000081526004016108c3906116e8565b60405180910390fd5b600073ffffffffffffffffffffffffffffffffffffffff168273ffffffffffffffffffffffffffffffffffffffff16141561093c576040517f08c379a00000000000000000000000000000000000000000000000000000000081526004016109339061177a565b60405180910390fd5b80600160008573ffffffffffffffffffffffffffffffffffffffff1673ffffffffffffffffffffffffffffffffffffffff16815260200190815260200160002060008473ffffffffffffffffffffffffffffffffffffffff1673ffffffffffffffffffffffffffffffffffffffff168152602001908152602001600020819055508173ffffffffffffffffffffffffffffffffffffffff168373ffffffffffffffffffffffffffffffffffffffff167f8c5be1e5ebec7d5bd14f71427d1e84f3dd0314c0f7b2291e5b200ac8c7c3b92583604051610a1a919061135a565b60405180910390a3505050565b600073ffffffffffffffffffffffffffffffffffffffff168373ffffffffffffffffffffffffffffffffffffffff161415610a97576040517f08c379a0000000000000000000000000000000000000000000000000000000008152600401610a8e9061180c565b60405180910390fd5b600073ffffffffffffffffffffffffffffffffffffffff168273ffffffffffffffffffffffffffffffffffffffff161415610b07576040517f08c379a0000000000000000000000000000000000000000000000000000000008152600401610afe9061189e565b60405180910390fd5b610b12838383611124565b60008060008573ffffffffffffffffffffffffffffffffffffffff1673ffffffffffffffffffffffffffffffffffffffff16815260200190815260200160002054905081811015610b98576040517f08c379a0000000000000000000000000000000000000000000000000000000008152600401610b8f90611930565b60405180910390fd5b8181036000808673ffffffffffffffffffffffffffffffffffffffff1673ffffffffffffffffffffffffffffffffffffffff16815260200190815260200160002081905550816000808573ffffffffffffffffffffffffffffffffffffffff1673ffffffffffffffffffffffffffffffffffffffff1681526020019081526020016000206000828254610c2b919061158e565b925050819055508273ffffffffffffffffffffffffffffffffffffffff168473ffffffffffffffffffffffffffffffffffffffff167fddf252ad1be2c89b69c2b068fc378daa952ba7f163c4a11628f55a4df523b3ef84604051610c8f919061135a565b60405180910390a3610ca284848461117c565b50505050565b610cb06105b6565b610cef576040517f08c379a0000000000000000000000000000000000000000000000000000000008152600401610ce69061199c565b60405180910390fd5b6000600560006101000a81548160ff0219169083151502179055507f5db9ee0a495bf2e6ff9c91a7834c1ba4fdd244a5e8aa4e537bd38aeae4b073aa610d33610854565b604051610d4091906119cb565b60405180910390a1565b600073ffffffffffffffffffffffffffffffffffffffff168273ffffffffffffffffffffffffffffffffffffffff161415610dba576040517f08c379a0000000000000000000000000000000000000000000000000000000008152600401610db190611a32565b60405180910390fd5b610dc660008383611124565b8060026000828254610dd8919061158e565b92505081905550806000808473ffffffffffffffffffffffffffffffffffffffff1673ffffffffffffffffffffffffffffffffffffffff1681526020019081526020016000206000828254610e2d919061158e565b925050819055508173ffffffffffffffffffffffffffffffffffffffff16600073ffffffffffffffffffffffffffffffffffffffff167fddf252ad1be2c89b69c2b068fc378daa952ba7f163c4a11628f55a4df523b3ef83604051610e92919061135a565b60405180910390a3610ea66000838361117c565b5050565b610eb26105b6565b15610ef2576040517f08c379a0000000000000000000000000000000000000000000000000000000008152600401610ee990611a9e565b60405180910390fd5b6001600560006101000a81548160ff0219169083151502179055507f62e78cea01bee320cd4e420270b5ea74000d11b0c9f74754ebdbfc544b05a258610f36610854565b604051610f4391906119cb565b60405180910390a1565b600073ffffffffffffffffffffffffffffffffffffffff168273ffffffffffffffffffffffffffffffffffffffff161415610fbd576040517f08c379a0000000000000000000000000000000000000000000000000000000008152600401610fb490611b30565b60405180910390fd5b610fc982600083611124565b60008060008473ffffffffffffffffffffffffffffffffffffffff1673ffffffffffffffffffffffffffffffffffffffff1681526020019081526020016000205490508181101561104f576040517f08c379a000000000000000000000000000000000000000000000000000000000815260040161104690611bc2565b60405180910390fd5b8181036000808573ffffffffffffffffffffffffffffffffffffffff1673ffffffffffffffffffffffffffffffffffffffff1681526020019081526020016000208190555081600260008282546110a69190611be2565b92505081905550600073ffffffffffffffffffffffffffffffffffffffff168373ffffffffffffffffffffffffffffffffffffffff167fddf252ad1be2c89b69c2b068fc378daa952ba7f163c4a11628f55a4df523b3ef8460405161110b919061135a565b60405180910390a361111f8360008461117c565b505050565b61112f83838361084f565b6111376105b6565b15611177576040517f08c379a000000000000000000000000000000000000000000000000000000000815260040161116e90611c88565b60405180910390fd5b505050565b505050565b600081519050919050565b600082825260208201905092915050565b60005b838110156111bb5780820151818401526020810190506111a0565b838111156111ca576000848401525b50505050565b6000601f19601f8301169050919050565b60006111ec82611181565b6111f6818561118c565b935061120681856020860161119d565b61120f816111d0565b840191505092915050565b6000602082019050818103600083015261123481846111e1565b905092915050565b600080fd5b600073ffffffffffffffffffffffffffffffffffffffff82169050919050565b600061126c82611241565b9050919050565b61127c81611261565b811461128757600080fd5b50565b60008135905061129981611273565b92915050565b6000819050919050565b6112b28161129f565b81146112bd57600080fd5b50565b6000813590506112cf816112a9565b92915050565b600080604083850312156112ec576112eb61123c565b5b60006112fa8582860161128a565b925050602061130b858286016112c0565b9150509250929050565b60008115159050919050565b61132a81611315565b82525050565b60006020820190506113456000830184611321565b92915050565b6113548161129f565b82525050565b600060208201905061136f600083018461134b565b92915050565b60008060006060848603121561138e5761138d61123c565b5b600061139c8682870161128a565b93505060206113ad8682870161128a565b92505060406113be868287016112c0565b9150509250925092565b600060ff82169050919050565b6113de816113c8565b82525050565b60006020820190506113f960008301846113d5565b92915050565b6000602082840312156114155761141461123c565b5b60006114238482850161128a565b91505092915050565b600080604083850312156114435761144261123c565b5b60006114518582860161128a565b92505060206114628582860161128a565b9150509250929050565b7f4e487b7100000000000000000000000000000000000000000000000000000000600052602260045260246000fd5b600060028204905060018216806114b357607f821691505b602082108114156114c7576114c661146c565b5b50919050565b7f45524332303a207472616e7366657220616d6f756e742065786365656473206160008201527f6c6c6f77616e6365000000000000000000000000000000000000000000000000602082015250565b600061152960288361118c565b9150611534826114cd565b604082019050919050565b600060208201905081810360008301526115588161151c565b9050919050565b7f4e487b7100000000000000000000000000000000000000000000000000000000600052601160045260246000fd5b60006115998261129f565b91506115a48361129f565b9250827fffffffffffffffffffffffffffffffffffffffffffffffffffffffffffffffff038211156115d9576115d861155f565b5b828201905092915050565b7f45524332303a2064656372656173656420616c6c6f77616e63652062656c6f7760008201527f207a65726f000000000000000000000000000000000000000000000000000000602082015250565b600061164060258361118c565b915061164b826115e4565b604082019050919050565b6000602082019050818103600083015261166f81611633565b9050919050565b7f45524332303a20617070726f76652066726f6d20746865207a65726f2061646460008201527f7265737300000000000000000000000000000000000000000000000000000000602082015250565b60006116d260248361118c565b91506116dd82611676565b604082019050919050565b60006020820190508181036000830152611701816116c5565b9050919050565b7f45524332303a20617070726f766520746f20746865207a65726f20616464726560008201527f7373000000000000000000000000000000000000000000000000000000000000602082015250565b600061176460228361118c565b915061176f82611708565b604082019050919050565b6000602082019050818103600083015261179381611757565b9050919050565b7f45524332303a207472616e736665722066726f6d20746865207a65726f20616460008201527f6472657373000000000000000000000000000000000000000000000000000000602082015250565b60006117f660258361118c565b91506118018261179a565b604082019050919050565b60006020820190508181036000830152611825816117e9565b9050919050565b7f45524332303a207472616e7366657220746f20746865207a65726f206164647260008201527f6573730000000000000000000000000000000000000000000000000000000000602082015250565b600061188860238361118c565b91506118938261182c565b604082019050919050565b600060208201905081810360008301526118b78161187b565b9050919050565b7f45524332303a207472616e7366657220616d6f756e742065786365656473206260008201527f616c616e63650000000000000000000000000000000000000000000000000000602082015250565b600061191a60268361118c565b9150611925826118be565b604082019050919050565b600060208201905081810360008301526119498161190d565b9050919050565b7f5061757361626c653a206e6f7420706175736564000000000000000000000000600082015250565b600061198660148361118c565b915061199182611950565b602082019050919050565b600060208201905081810360008301526119b581611979565b9050919050565b6119c581611261565b82525050565b60006020820190506119e060008301846119bc565b92915050565b7f45524332303a206d696e7420746f20746865207a65726f206164647265737300600082015250565b6000611a1c601f8361118c565b9150611a27826119e6565b602082019050919050565b60006020820190508181036000830152611a4b81611a0f565b9050919050565b7f5061757361626c653a2070617573656400000000000000000000000000000000600082015250565b6000611a8860108361118c565b9150611a9382611a52565b602082019050919050565b60006020820190508181036000830152611ab781611a7b565b9050919050565b7f45524332303a206275726e2066726f6d20746865207a65726f2061646472657360008201527f7300000000000000000000000000000000000000000000000000000000000000602082015250565b6000611b1a60218361118c565b9150611b2582611abe565b604082019050919050565b60006020820190508181036000830152611b4981611b0d565b9050919050565b7f45524332303a206275726e20616d6f756e7420657863656564732062616c616e60008201527f6365000000000000000000000000000000000000000000000000000000000000602082015250565b6000611bac60228361118c565b9150611bb782611b50565b604082019050919050565b60006020820190508181036000830152611bdb81611b9f565b9050919050565b6000611bed8261129f565b9150611bf88361129f565b925082821015611c0b57611c0a61155f565b5b828203905092915050565b7f45524332305061757361626c653a20746f6b656e207472616e7366657220776860008201527f696c652070617573656400000000000000000000000000000000000000000000602082015250565b6000611c72602a8361118c565b9150611c7d82611c16565b604082019050919050565b60006020820190508181036000830152611ca181611c65565b905091905056fea26469706673582212205d09dd631a99c3ac54d9f520ebdc8c3ec038ce497f8a9cd76af6cbf18d81433164736f6c63430008090033",
  "immutableReferences": {},
  "source": "// SPDX-License-Identifier: MIT\r\n\r\npragma solidity ^0.8.0;\r\n\r\nimport \"../token/ERC20/extensions/ERC20Pausable.sol\";\r\n\r\n// mock class using ERC20Pausable\r\ncontract ERC20PausableMock is ERC20Pausable {\r\n    constructor(\r\n        string memory name,\r\n        string memory symbol,\r\n        address initialAccount,\r\n        uint256 initialBalance\r\n    ) ERC20(name, symbol) {\r\n        _mint(initialAccount, initialBalance);\r\n    }\r\n\r\n    function pause() external {\r\n        _pause();\r\n    }\r\n\r\n    function unpause() external {\r\n        _unpause();\r\n    }\r\n\r\n    function mint(address to, uint256 amount) public {\r\n        _mint(to, amount);\r\n    }\r\n\r\n    function burn(address from, uint256 amount) public {\r\n        _burn(from, amount);\r\n    }\r\n}\r\n",
  "sourcePath": "C:\\Climax\\NFT-marketplace\\contracts\\openzeppelin-solidity\\contracts\\mocks\\ERC20PausableMock.sol",
  "compiler": {
    "name": "solc",
    "version": "0.8.9+commit.e5eed63a.Emscripten.clang"
  },
  "schemaVersion": "3.4.3",
  "updatedAt": "2021-10-26T11:45:25.536Z",
  "devdoc": {
    "kind": "dev",
    "methods": {
      "allowance(address,address)": {
        "details": "See {IERC20-allowance}."
      },
      "approve(address,uint256)": {
        "details": "See {IERC20-approve}. Requirements: - `spender` cannot be the zero address."
      },
      "balanceOf(address)": {
        "details": "See {IERC20-balanceOf}."
      },
      "decimals()": {
        "details": "Returns the number of decimals used to get its user representation. For example, if `decimals` equals `2`, a balance of `505` tokens should be displayed to a user as `5.05` (`505 / 10 ** 2`). Tokens usually opt for a value of 18, imitating the relationship between Ether and Wei. This is the value {ERC20} uses, unless this function is overridden; NOTE: This information is only used for _display_ purposes: it in no way affects any of the arithmetic of the contract, including {IERC20-balanceOf} and {IERC20-transfer}."
      },
      "decreaseAllowance(address,uint256)": {
        "details": "Atomically decreases the allowance granted to `spender` by the caller. This is an alternative to {approve} that can be used as a mitigation for problems described in {IERC20-approve}. Emits an {Approval} event indicating the updated allowance. Requirements: - `spender` cannot be the zero address. - `spender` must have allowance for the caller of at least `subtractedValue`."
      },
      "increaseAllowance(address,uint256)": {
        "details": "Atomically increases the allowance granted to `spender` by the caller. This is an alternative to {approve} that can be used as a mitigation for problems described in {IERC20-approve}. Emits an {Approval} event indicating the updated allowance. Requirements: - `spender` cannot be the zero address."
      },
      "name()": {
        "details": "Returns the name of the token."
      },
      "paused()": {
        "details": "Returns true if the contract is paused, and false otherwise."
      },
      "symbol()": {
        "details": "Returns the symbol of the token, usually a shorter version of the name."
      },
      "totalSupply()": {
        "details": "See {IERC20-totalSupply}."
      },
      "transfer(address,uint256)": {
        "details": "See {IERC20-transfer}. Requirements: - `recipient` cannot be the zero address. - the caller must have a balance of at least `amount`."
      },
      "transferFrom(address,address,uint256)": {
        "details": "See {IERC20-transferFrom}. Emits an {Approval} event indicating the updated allowance. This is not required by the EIP. See the note at the beginning of {ERC20}. Requirements: - `sender` and `recipient` cannot be the zero address. - `sender` must have a balance of at least `amount`. - the caller must have allowance for ``sender``'s tokens of at least `amount`."
      }
    },
    "version": 1
  },
  "userdoc": {
    "kind": "user",
    "methods": {},
    "version": 1
  }
}