{
  "contractName": "ERC721PausableMock",
  "abi": [
    {
      "inputs": [
        {
          "internalType": "string",
          "name": "name",
          "type": "string"
        },
        {
          "internalType": "string",
          "name": "symbol",
          "type": "string"
        }
      ],
      "stateMutability": "nonpayable",
      "type": "constructor"
    },
    {
      "anonymous": false,
      "inputs": [
        {
          "indexed": true,
          "internalType": "address",
          "name": "owner",
          "type": "address"
        },
        {
          "indexed": true,
          "internalType": "address",
          "name": "approved",
          "type": "address"
        },
        {
          "indexed": true,
          "internalType": "uint256",
          "name": "tokenId",
          "type": "uint256"
        }
      ],
      "name": "Approval",
      "type": "event"
    },
    {
      "anonymous": false,
      "inputs": [
        {
          "indexed": true,
          "internalType": "address",
          "name": "owner",
          "type": "address"
        },
        {
          "indexed": true,
          "internalType": "address",
          "name": "operator",
          "type": "address"
        },
        {
          "indexed": false,
          "internalType": "bool",
          "name": "approved",
          "type": "bool"
        }
      ],
      "name": "ApprovalForAll",
      "type": "event"
    },
    {
      "anonymous": false,
      "inputs": [
        {
          "indexed": false,
          "internalType": "address",
          "name": "account",
          "type": "address"
        }
      ],
      "name": "Paused",
      "type": "event"
    },
    {
      "anonymous": false,
      "inputs": [
        {
          "indexed": true,
          "internalType": "address",
          "name": "from",
          "type": "address"
        },
        {
          "indexed": true,
          "internalType": "address",
          "name": "to",
          "type": "address"
        },
        {
          "indexed": true,
          "internalType": "uint256",
          "name": "tokenId",
          "type": "uint256"
        }
      ],
      "name": "Transfer",
      "type": "event"
    },
    {
      "anonymous": false,
      "inputs": [
        {
          "indexed": false,
          "internalType": "address",
          "name": "account",
          "type": "address"
        }
      ],
      "name": "Unpaused",
      "type": "event"
    },
    {
      "inputs": [
        {
          "internalType": "address",
          "name": "to",
          "type": "address"
        },
        {
          "internalType": "uint256",
          "name": "tokenId",
          "type": "uint256"
        }
      ],
      "name": "approve",
      "outputs": [],
      "stateMutability": "nonpayable",
      "type": "function"
    },
    {
      "inputs": [
        {
          "internalType": "address",
          "name": "owner",
          "type": "address"
        }
      ],
      "name": "balanceOf",
      "outputs": [
        {
          "internalType": "uint256",
          "name": "",
          "type": "uint256"
        }
      ],
      "stateMutability": "view",
      "type": "function"
    },
    {
      "inputs": [
        {
          "internalType": "uint256",
          "name": "tokenId",
          "type": "uint256"
        }
      ],
      "name": "getApproved",
      "outputs": [
        {
          "internalType": "address",
          "name": "",
          "type": "address"
        }
      ],
      "stateMutability": "view",
      "type": "function"
    },
    {
      "inputs": [
        {
          "internalType": "address",
          "name": "owner",
          "type": "address"
        },
        {
          "internalType": "address",
          "name": "operator",
          "type": "address"
        }
      ],
      "name": "isApprovedForAll",
      "outputs": [
        {
          "internalType": "bool",
          "name": "",
          "type": "bool"
        }
      ],
      "stateMutability": "view",
      "type": "function"
    },
    {
      "inputs": [],
      "name": "name",
      "outputs": [
        {
          "internalType": "string",
          "name": "",
          "type": "string"
        }
      ],
      "stateMutability": "view",
      "type": "function"
    },
    {
      "inputs": [
        {
          "internalType": "uint256",
          "name": "tokenId",
          "type": "uint256"
        }
      ],
      "name": "ownerOf",
      "outputs": [
        {
          "internalType": "address",
          "name": "",
          "type": "address"
        }
      ],
      "stateMutability": "view",
      "type": "function"
    },
    {
      "inputs": [],
      "name": "paused",
      "outputs": [
        {
          "internalType": "bool",
          "name": "",
          "type": "bool"
        }
      ],
      "stateMutability": "view",
      "type": "function"
    },
    {
      "inputs": [
        {
          "internalType": "address",
          "name": "from",
          "type": "address"
        },
        {
          "internalType": "address",
          "name": "to",
          "type": "address"
        },
        {
          "internalType": "uint256",
          "name": "tokenId",
          "type": "uint256"
        }
      ],
      "name": "safeTransferFrom",
      "outputs": [],
      "stateMutability": "nonpayable",
      "type": "function"
    },
    {
      "inputs": [
        {
          "internalType": "address",
          "name": "from",
          "type": "address"
        },
        {
          "internalType": "address",
          "name": "to",
          "type": "address"
        },
        {
          "internalType": "uint256",
          "name": "tokenId",
          "type": "uint256"
        },
        {
          "internalType": "bytes",
          "name": "_data",
          "type": "bytes"
        }
      ],
      "name": "safeTransferFrom",
      "outputs": [],
      "stateMutability": "nonpayable",
      "type": "function"
    },
    {
      "inputs": [
        {
          "internalType": "address",
          "name": "operator",
          "type": "address"
        },
        {
          "internalType": "bool",
          "name": "approved",
          "type": "bool"
        }
      ],
      "name": "setApprovalForAll",
      "outputs": [],
      "stateMutability": "nonpayable",
      "type": "function"
    },
    {
      "inputs": [
        {
          "internalType": "bytes4",
          "name": "interfaceId",
          "type": "bytes4"
        }
      ],
      "name": "supportsInterface",
      "outputs": [
        {
          "internalType": "bool",
          "name": "",
          "type": "bool"
        }
      ],
      "stateMutability": "view",
      "type": "function"
    },
    {
      "inputs": [],
      "name": "symbol",
      "outputs": [
        {
          "internalType": "string",
          "name": "",
          "type": "string"
        }
      ],
      "stateMutability": "view",
      "type": "function"
    },
    {
      "inputs": [
        {
          "internalType": "uint256",
          "name": "tokenId",
          "type": "uint256"
        }
      ],
      "name": "tokenURI",
      "outputs": [
        {
          "internalType": "string",
          "name": "",
          "type": "string"
        }
      ],
      "stateMutability": "view",
      "type": "function"
    },
    {
      "inputs": [
        {
          "internalType": "address",
          "name": "from",
          "type": "address"
        },
        {
          "internalType": "address",
          "name": "to",
          "type": "address"
        },
        {
          "internalType": "uint256",
          "name": "tokenId",
          "type": "uint256"
        }
      ],
      "name": "transferFrom",
      "outputs": [],
      "stateMutability": "nonpayable",
      "type": "function"
    },
    {
      "inputs": [],
      "name": "pause",
      "outputs": [],
      "stateMutability": "nonpayable",
      "type": "function"
    },
    {
      "inputs": [],
      "name": "unpause",
      "outputs": [],
      "stateMutability": "nonpayable",
      "type": "function"
    },
    {
      "inputs": [
        {
          "internalType": "uint256",
          "name": "tokenId",
          "type": "uint256"
        }
      ],
      "name": "exists",
      "outputs": [
        {
          "internalType": "bool",
          "name": "",
          "type": "bool"
        }
      ],
      "stateMutability": "view",
      "type": "function"
    },
    {
      "inputs": [
        {
          "internalType": "address",
          "name": "to",
          "type": "address"
        },
        {
          "internalType": "uint256",
          "name": "tokenId",
          "type": "uint256"
        }
      ],
      "name": "mint",
      "outputs": [],
      "stateMutability": "nonpayable",
      "type": "function"
    },
    {
      "inputs": [
        {
          "internalType": "address",
          "name": "to",
          "type": "address"
        },
        {
          "internalType": "uint256",
          "name": "tokenId",
          "type": "uint256"
        },
        {
          "internalType": "bytes",
          "name": "_data",
          "type": "bytes"
        }
      ],
      "name": "safeMint",
      "outputs": [],
      "stateMutability": "nonpayable",
      "type": "function"
    },
    {
      "inputs": [
        {
          "internalType": "address",
          "name": "to",
          "type": "address"
        },
        {
          "internalType": "uint256",
          "name": "tokenId",
          "type": "uint256"
        }
      ],
      "name": "safeMint",
      "outputs": [],
      "stateMutability": "nonpayable",
      "type": "function"
    },
    {
      "inputs": [
        {
          "internalType": "uint256",
          "name": "tokenId",
          "type": "uint256"
        }
      ],
      "name": "burn",
      "outputs": [],
      "stateMutability": "nonpayable",
      "type": "function"
    }
  ],
  "bytecode": "0x60806040523480156200001157600080fd5b50604051620030f8380380620030f88339818101604052810190620000379190620002dd565b818181600090805190602001906200005192919062000090565b5080600190805190602001906200006a92919062000090565b5050506000600660006101000a81548160ff0219169083151502179055505050620003c7565b8280546200009e9062000391565b90600052602060002090601f016020900481019282620000c257600085556200010e565b82601f10620000dd57805160ff19168380011785556200010e565b828001600101855582156200010e579182015b828111156200010d578251825591602001919060010190620000f0565b5b5090506200011d919062000121565b5090565b5b808211156200013c57600081600090555060010162000122565b5090565b6000604051905090565b600080fd5b600080fd5b600080fd5b600080fd5b6000601f19601f8301169050919050565b7f4e487b7100000000000000000000000000000000000000000000000000000000600052604160045260246000fd5b620001a9826200015e565b810181811067ffffffffffffffff82111715620001cb57620001ca6200016f565b5b80604052505050565b6000620001e062000140565b9050620001ee82826200019e565b919050565b600067ffffffffffffffff8211156200021157620002106200016f565b5b6200021c826200015e565b9050602081019050919050565b60005b83811015620002495780820151818401526020810190506200022c565b8381111562000259576000848401525b50505050565b6000620002766200027084620001f3565b620001d4565b90508281526020810184848401111562000295576200029462000159565b5b620002a284828562000229565b509392505050565b600082601f830112620002c257620002c162000154565b5b8151620002d48482602086016200025f565b91505092915050565b60008060408385031215620002f757620002f66200014a565b5b600083015167ffffffffffffffff8111156200031857620003176200014f565b5b6200032685828601620002aa565b925050602083015167ffffffffffffffff8111156200034a57620003496200014f565b5b6200035885828601620002aa565b9150509250929050565b7f4e487b7100000000000000000000000000000000000000000000000000000000600052602260045260246000fd5b60006002820490506001821680620003aa57607f821691505b60208210811415620003c157620003c062000362565b5b50919050565b612d2180620003d76000396000f3fe608060405234801561001057600080fd5b50600436106101375760003560e01c80635c975abb116100b857806395d89b411161007c57806395d89b4114610324578063a144819414610342578063a22cb4651461035e578063b88d4fde1461037a578063c87b56dd14610396578063e985e9c5146103c657610137565b80635c975abb146102805780636352211e1461029e57806370a08231146102ce5780638456cb59146102fe5780638832e6e31461030857610137565b80633f4ba83a116100ff5780633f4ba83a146101f257806340c10f19146101fc57806342842e0e1461021857806342966c68146102345780634f558e791461025057610137565b806301ffc9a71461013c57806306fdde031461016c578063081812fc1461018a578063095ea7b3146101ba57806323b872dd146101d6575b600080fd5b61015660048036038101906101519190611acb565b6103f6565b6040516101639190611b13565b60405180910390f35b6101746104d8565b6040516101819190611bc7565b60405180910390f35b6101a4600480360381019061019f9190611c1f565b61056a565b6040516101b19190611c8d565b60405180910390f35b6101d460048036038101906101cf9190611cd4565b6105ef565b005b6101f060048036038101906101eb9190611d14565b610707565b005b6101fa610767565b005b61021660048036038101906102119190611cd4565b610771565b005b610232600480360381019061022d9190611d14565b61077f565b005b61024e60048036038101906102499190611c1f565b61079f565b005b61026a60048036038101906102659190611c1f565b6107ab565b6040516102779190611b13565b60405180910390f35b6102886107bd565b6040516102959190611b13565b60405180910390f35b6102b860048036038101906102b39190611c1f565b6107d4565b6040516102c59190611c8d565b60405180910390f35b6102e860048036038101906102e39190611d67565b610886565b6040516102f59190611da3565b60405180910390f35b61030661093e565b005b610322600480360381019061031d9190611ef3565b610948565b005b61032c610958565b6040516103399190611bc7565b60405180910390f35b61035c60048036038101906103579190611cd4565b6109ea565b005b61037860048036038101906103739190611f8e565b6109f8565b005b610394600480360381019061038f9190611fce565b610b79565b005b6103b060048036038101906103ab9190611c1f565b610bdb565b6040516103bd9190611bc7565b60405180910390f35b6103e060048036038101906103db9190612051565b610c82565b6040516103ed9190611b13565b60405180910390f35b60007f80ac58cd000000000000000000000000000000000000000000000000000000007bffffffffffffffffffffffffffffffffffffffffffffffffffffffff1916827bffffffffffffffffffffffffffffffffffffffffffffffffffffffff191614806104c157507f5b5e139f000000000000000000000000000000000000000000000000000000007bffffffffffffffffffffffffffffffffffffffffffffffffffffffff1916827bffffffffffffffffffffffffffffffffffffffffffffffffffffffff1916145b806104d157506104d082610d16565b5b9050919050565b6060600080546104e7906120c0565b80601f0160208091040260200160405190810160405280929190818152602001828054610513906120c0565b80156105605780601f1061053557610100808354040283529160200191610560565b820191906000526020600020905b81548152906001019060200180831161054357829003601f168201915b5050505050905090565b600061057582610d80565b6105b4576040517f08c379a00000000000000000000000000000000000000000000000000000000081526004016105ab90612164565b60405180910390fd5b6004600083815260200190815260200160002060009054906101000a900473ffffffffffffffffffffffffffffffffffffffff169050919050565b60006105fa826107d4565b90508073ffffffffffffffffffffffffffffffffffffffff168373ffffffffffffffffffffffffffffffffffffffff16141561066b576040517f08c379a0000000000000000000000000000000000000000000000000000000008152600401610662906121f6565b60405180910390fd5b8073ffffffffffffffffffffffffffffffffffffffff1661068a610dec565b73ffffffffffffffffffffffffffffffffffffffff1614806106b957506106b8816106b3610dec565b610c82565b5b6106f8576040517f08c379a00000000000000000000000000000000000000000000000000000000081526004016106ef90612288565b60405180910390fd5b6107028383610df4565b505050565b610718610712610dec565b82610ead565b610757576040517f08c379a000000000000000000000000000000000000000000000000000000000815260040161074e9061231a565b60405180910390fd5b610762838383610f8b565b505050565b61076f6111e7565b565b61077b8282611289565b5050565b61079a83838360405180602001604052806000815250610b79565b505050565b6107a881611457565b50565b60006107b682610d80565b9050919050565b6000600660009054906101000a900460ff16905090565b6000806002600084815260200190815260200160002060009054906101000a900473ffffffffffffffffffffffffffffffffffffffff169050600073ffffffffffffffffffffffffffffffffffffffff168173ffffffffffffffffffffffffffffffffffffffff16141561087d576040517f08c379a0000000000000000000000000000000000000000000000000000000008152600401610874906123ac565b60405180910390fd5b80915050919050565b60008073ffffffffffffffffffffffffffffffffffffffff168273ffffffffffffffffffffffffffffffffffffffff1614156108f7576040517f08c379a00000000000000000000000000000000000000000000000000000000081526004016108ee9061243e565b60405180910390fd5b600360008373ffffffffffffffffffffffffffffffffffffffff1673ffffffffffffffffffffffffffffffffffffffff168152602001908152602001600020549050919050565b610946611568565b565b61095383838361160b565b505050565b606060018054610967906120c0565b80601f0160208091040260200160405190810160405280929190818152602001828054610993906120c0565b80156109e05780601f106109b5576101008083540402835291602001916109e0565b820191906000526020600020905b8154815290600101906020018083116109c357829003601f168201915b5050505050905090565b6109f48282611666565b5050565b610a00610dec565b73ffffffffffffffffffffffffffffffffffffffff168273ffffffffffffffffffffffffffffffffffffffff161415610a6e576040517f08c379a0000000000000000000000000000000000000000000000000000000008152600401610a65906124aa565b60405180910390fd5b8060056000610a7b610dec565b73ffffffffffffffffffffffffffffffffffffffff1673ffffffffffffffffffffffffffffffffffffffff16815260200190815260200160002060008473ffffffffffffffffffffffffffffffffffffffff1673ffffffffffffffffffffffffffffffffffffffff16815260200190815260200160002060006101000a81548160ff0219169083151502179055508173ffffffffffffffffffffffffffffffffffffffff16610b28610dec565b73ffffffffffffffffffffffffffffffffffffffff167f17307eab39ab6107e8899845ad3d59bd9653f200f220920489ca2b5937696c3183604051610b6d9190611b13565b60405180910390a35050565b610b8a610b84610dec565b83610ead565b610bc9576040517f08c379a0000000000000000000000000000000000000000000000000000000008152600401610bc09061231a565b60405180910390fd5b610bd584848484611684565b50505050565b6060610be682610d80565b610c25576040517f08c379a0000000000000000000000000000000000000000000000000000000008152600401610c1c9061253c565b60405180910390fd5b6000610c2f6116e0565b90506000815111610c4f5760405180602001604052806000815250610c7a565b80610c59846116f7565b604051602001610c6a929190612598565b6040516020818303038152906040525b915050919050565b6000600560008473ffffffffffffffffffffffffffffffffffffffff1673ffffffffffffffffffffffffffffffffffffffff16815260200190815260200160002060008373ffffffffffffffffffffffffffffffffffffffff1673ffffffffffffffffffffffffffffffffffffffff16815260200190815260200160002060009054906101000a900460ff16905092915050565b60007f01ffc9a7000000000000000000000000000000000000000000000000000000007bffffffffffffffffffffffffffffffffffffffffffffffffffffffff1916827bffffffffffffffffffffffffffffffffffffffffffffffffffffffff1916149050919050565b60008073ffffffffffffffffffffffffffffffffffffffff166002600084815260200190815260200160002060009054906101000a900473ffffffffffffffffffffffffffffffffffffffff1673ffffffffffffffffffffffffffffffffffffffff1614159050919050565b600033905090565b816004600083815260200190815260200160002060006101000a81548173ffffffffffffffffffffffffffffffffffffffff021916908373ffffffffffffffffffffffffffffffffffffffff160217905550808273ffffffffffffffffffffffffffffffffffffffff16610e67836107d4565b73ffffffffffffffffffffffffffffffffffffffff167f8c5be1e5ebec7d5bd14f71427d1e84f3dd0314c0f7b2291e5b200ac8c7c3b92560405160405180910390a45050565b6000610eb882610d80565b610ef7576040517f08c379a0000000000000000000000000000000000000000000000000000000008152600401610eee9061262e565b60405180910390fd5b6000610f02836107d4565b90508073ffffffffffffffffffffffffffffffffffffffff168473ffffffffffffffffffffffffffffffffffffffff161480610f7157508373ffffffffffffffffffffffffffffffffffffffff16610f598461056a565b73ffffffffffffffffffffffffffffffffffffffff16145b80610f825750610f818185610c82565b5b91505092915050565b8273ffffffffffffffffffffffffffffffffffffffff16610fab826107d4565b73ffffffffffffffffffffffffffffffffffffffff1614611001576040517f08c379a0000000000000000000000000000000000000000000000000000000008152600401610ff8906126c0565b60405180910390fd5b600073ffffffffffffffffffffffffffffffffffffffff168273ffffffffffffffffffffffffffffffffffffffff161415611071576040517f08c379a000000000000000000000000000000000000000000000000000000000815260040161106890612752565b60405180910390fd5b61107c838383611858565b611087600082610df4565b6001600360008573ffffffffffffffffffffffffffffffffffffffff1673ffffffffffffffffffffffffffffffffffffffff16815260200190815260200160002060008282546110d791906127a1565b925050819055506001600360008473ffffffffffffffffffffffffffffffffffffffff1673ffffffffffffffffffffffffffffffffffffffff168152602001908152602001600020600082825461112e91906127d5565b92505081905550816002600083815260200190815260200160002060006101000a81548173ffffffffffffffffffffffffffffffffffffffff021916908373ffffffffffffffffffffffffffffffffffffffff160217905550808273ffffffffffffffffffffffffffffffffffffffff168473ffffffffffffffffffffffffffffffffffffffff167fddf252ad1be2c89b69c2b068fc378daa952ba7f163c4a11628f55a4df523b3ef60405160405180910390a4505050565b6111ef6107bd565b61122e576040517f08c379a000000000000000000000000000000000000000000000000000000000815260040161122590612877565b60405180910390fd5b6000600660006101000a81548160ff0219169083151502179055507f5db9ee0a495bf2e6ff9c91a7834c1ba4fdd244a5e8aa4e537bd38aeae4b073aa611272610dec565b60405161127f9190611c8d565b60405180910390a1565b600073ffffffffffffffffffffffffffffffffffffffff168273ffffffffffffffffffffffffffffffffffffffff1614156112f9576040517f08c379a00000000000000000000000000000000000000000000000000000000081526004016112f0906128e3565b60405180910390fd5b61130281610d80565b15611342576040517f08c379a00000000000000000000000000000000000000000000000000000000081526004016113399061294f565b60405180910390fd5b61134e60008383611858565b6001600360008473ffffffffffffffffffffffffffffffffffffffff1673ffffffffffffffffffffffffffffffffffffffff168152602001908152602001600020600082825461139e91906127d5565b92505081905550816002600083815260200190815260200160002060006101000a81548173ffffffffffffffffffffffffffffffffffffffff021916908373ffffffffffffffffffffffffffffffffffffffff160217905550808273ffffffffffffffffffffffffffffffffffffffff16600073ffffffffffffffffffffffffffffffffffffffff167fddf252ad1be2c89b69c2b068fc378daa952ba7f163c4a11628f55a4df523b3ef60405160405180910390a45050565b6000611462826107d4565b905061147081600084611858565b61147b600083610df4565b6001600360008373ffffffffffffffffffffffffffffffffffffffff1673ffffffffffffffffffffffffffffffffffffffff16815260200190815260200160002060008282546114cb91906127a1565b925050819055506002600083815260200190815260200160002060006101000a81549073ffffffffffffffffffffffffffffffffffffffff021916905581600073ffffffffffffffffffffffffffffffffffffffff168273ffffffffffffffffffffffffffffffffffffffff167fddf252ad1be2c89b69c2b068fc378daa952ba7f163c4a11628f55a4df523b3ef60405160405180910390a45050565b6115706107bd565b156115b0576040517f08c379a00000000000000000000000000000000000000000000000000000000081526004016115a7906129bb565b60405180910390fd5b6001600660006101000a81548160ff0219169083151502179055507f62e78cea01bee320cd4e420270b5ea74000d11b0c9f74754ebdbfc544b05a2586115f4610dec565b6040516116019190611c8d565b60405180910390a1565b6116158383611289565b61162260008484846118b0565b611661576040517f08c379a000000000000000000000000000000000000000000000000000000000815260040161165890612a4d565b60405180910390fd5b505050565b61168082826040518060200160405280600081525061160b565b5050565b61168f848484610f8b565b61169b848484846118b0565b6116da576040517f08c379a00000000000000000000000000000000000000000000000000000000081526004016116d190612a4d565b60405180910390fd5b50505050565b606060405180602001604052806000815250905090565b6060600082141561173f576040518060400160405280600181526020017f30000000000000000000000000000000000000000000000000000000000000008152509050611853565b600082905060005b6000821461177157808061175a90612a6d565b915050600a8261176a9190612ae5565b9150611747565b60008167ffffffffffffffff81111561178d5761178c611dc8565b5b6040519080825280601f01601f1916602001820160405280156117bf5781602001600182028036833780820191505090505b5090505b6000851461184c576001826117d891906127a1565b9150600a856117e79190612b16565b60306117f391906127d5565b60f81b81838151811061180957611808612b47565b5b60200101907effffffffffffffffffffffffffffffffffffffffffffffffffffffffffffff1916908160001a905350600a856118459190612ae5565b94506117c3565b8093505050505b919050565b611863838383611a47565b61186b6107bd565b156118ab576040517f08c379a00000000000000000000000000000000000000000000000000000000081526004016118a290612be8565b60405180910390fd5b505050565b60006118d18473ffffffffffffffffffffffffffffffffffffffff16611a4c565b15611a3a578373ffffffffffffffffffffffffffffffffffffffff1663150b7a026118fa610dec565b8786866040518563ffffffff1660e01b815260040161191c9493929190612c5d565b602060405180830381600087803b15801561193657600080fd5b505af192505050801561196757506040513d601f19601f820116820180604052508101906119649190612cbe565b60015b6119ea573d8060008114611997576040519150601f19603f3d011682016040523d82523d6000602084013e61199c565b606091505b506000815114156119e2576040517f08c379a00000000000000000000000000000000000000000000000000000000081526004016119d990612a4d565b60405180910390fd5b805181602001fd5b63150b7a0260e01b7bffffffffffffffffffffffffffffffffffffffffffffffffffffffff1916817bffffffffffffffffffffffffffffffffffffffffffffffffffffffff191614915050611a3f565b600190505b949350505050565b505050565b600080823b905060008111915050919050565b6000604051905090565b600080fd5b600080fd5b60007fffffffff0000000000000000000000000000000000000000000000000000000082169050919050565b611aa881611a73565b8114611ab357600080fd5b50565b600081359050611ac581611a9f565b92915050565b600060208284031215611ae157611ae0611a69565b5b6000611aef84828501611ab6565b91505092915050565b60008115159050919050565b611b0d81611af8565b82525050565b6000602082019050611b286000830184611b04565b92915050565b600081519050919050565b600082825260208201905092915050565b60005b83811015611b68578082015181840152602081019050611b4d565b83811115611b77576000848401525b50505050565b6000601f19601f8301169050919050565b6000611b9982611b2e565b611ba38185611b39565b9350611bb3818560208601611b4a565b611bbc81611b7d565b840191505092915050565b60006020820190508181036000830152611be18184611b8e565b905092915050565b6000819050919050565b611bfc81611be9565b8114611c0757600080fd5b50565b600081359050611c1981611bf3565b92915050565b600060208284031215611c3557611c34611a69565b5b6000611c4384828501611c0a565b91505092915050565b600073ffffffffffffffffffffffffffffffffffffffff82169050919050565b6000611c7782611c4c565b9050919050565b611c8781611c6c565b82525050565b6000602082019050611ca26000830184611c7e565b92915050565b611cb181611c6c565b8114611cbc57600080fd5b50565b600081359050611cce81611ca8565b92915050565b60008060408385031215611ceb57611cea611a69565b5b6000611cf985828601611cbf565b9250506020611d0a85828601611c0a565b9150509250929050565b600080600060608486031215611d2d57611d2c611a69565b5b6000611d3b86828701611cbf565b9350506020611d4c86828701611cbf565b9250506040611d5d86828701611c0a565b9150509250925092565b600060208284031215611d7d57611d7c611a69565b5b6000611d8b84828501611cbf565b91505092915050565b611d9d81611be9565b82525050565b6000602082019050611db86000830184611d94565b92915050565b600080fd5b600080fd5b7f4e487b7100000000000000000000000000000000000000000000000000000000600052604160045260246000fd5b611e0082611b7d565b810181811067ffffffffffffffff82111715611e1f57611e1e611dc8565b5b80604052505050565b6000611e32611a5f565b9050611e3e8282611df7565b919050565b600067ffffffffffffffff821115611e5e57611e5d611dc8565b5b611e6782611b7d565b9050602081019050919050565b82818337600083830152505050565b6000611e96611e9184611e43565b611e28565b905082815260208101848484011115611eb257611eb1611dc3565b5b611ebd848285611e74565b509392505050565b600082601f830112611eda57611ed9611dbe565b5b8135611eea848260208601611e83565b91505092915050565b600080600060608486031215611f0c57611f0b611a69565b5b6000611f1a86828701611cbf565b9350506020611f2b86828701611c0a565b925050604084013567ffffffffffffffff811115611f4c57611f4b611a6e565b5b611f5886828701611ec5565b9150509250925092565b611f6b81611af8565b8114611f7657600080fd5b50565b600081359050611f8881611f62565b92915050565b60008060408385031215611fa557611fa4611a69565b5b6000611fb385828601611cbf565b9250506020611fc485828601611f79565b9150509250929050565b60008060008060808587031215611fe857611fe7611a69565b5b6000611ff687828801611cbf565b945050602061200787828801611cbf565b935050604061201887828801611c0a565b925050606085013567ffffffffffffffff81111561203957612038611a6e565b5b61204587828801611ec5565b91505092959194509250565b6000806040838503121561206857612067611a69565b5b600061207685828601611cbf565b925050602061208785828601611cbf565b9150509250929050565b7f4e487b7100000000000000000000000000000000000000000000000000000000600052602260045260246000fd5b600060028204905060018216806120d857607f821691505b602082108114156120ec576120eb612091565b5b50919050565b7f4552433732313a20617070726f76656420717565727920666f72206e6f6e657860008201527f697374656e7420746f6b656e0000000000000000000000000000000000000000602082015250565b600061214e602c83611b39565b9150612159826120f2565b604082019050919050565b6000602082019050818103600083015261217d81612141565b9050919050565b7f4552433732313a20617070726f76616c20746f2063757272656e74206f776e6560008201527f7200000000000000000000000000000000000000000000000000000000000000602082015250565b60006121e0602183611b39565b91506121eb82612184565b604082019050919050565b6000602082019050818103600083015261220f816121d3565b9050919050565b7f4552433732313a20617070726f76652063616c6c6572206973206e6f74206f7760008201527f6e6572206e6f7220617070726f76656420666f7220616c6c0000000000000000602082015250565b6000612272603883611b39565b915061227d82612216565b604082019050919050565b600060208201905081810360008301526122a181612265565b9050919050565b7f4552433732313a207472616e736665722063616c6c6572206973206e6f74206f60008201527f776e6572206e6f7220617070726f766564000000000000000000000000000000602082015250565b6000612304603183611b39565b915061230f826122a8565b604082019050919050565b60006020820190508181036000830152612333816122f7565b9050919050565b7f4552433732313a206f776e657220717565727920666f72206e6f6e657869737460008201527f656e7420746f6b656e0000000000000000000000000000000000000000000000602082015250565b6000612396602983611b39565b91506123a18261233a565b604082019050919050565b600060208201905081810360008301526123c581612389565b9050919050565b7f4552433732313a2062616c616e636520717565727920666f7220746865207a6560008201527f726f206164647265737300000000000000000000000000000000000000000000602082015250565b6000612428602a83611b39565b9150612433826123cc565b604082019050919050565b600060208201905081810360008301526124578161241b565b9050919050565b7f4552433732313a20617070726f766520746f2063616c6c657200000000000000600082015250565b6000612494601983611b39565b915061249f8261245e565b602082019050919050565b600060208201905081810360008301526124c381612487565b9050919050565b7f4552433732314d657461646174613a2055524920717565727920666f72206e6f60008201527f6e6578697374656e7420746f6b656e0000000000000000000000000000000000602082015250565b6000612526602f83611b39565b9150612531826124ca565b604082019050919050565b6000602082019050818103600083015261255581612519565b9050919050565b600081905092915050565b600061257282611b2e565b61257c818561255c565b935061258c818560208601611b4a565b80840191505092915050565b60006125a48285612567565b91506125b08284612567565b91508190509392505050565b7f4552433732313a206f70657261746f7220717565727920666f72206e6f6e657860008201527f697374656e7420746f6b656e0000000000000000000000000000000000000000602082015250565b6000612618602c83611b39565b9150612623826125bc565b604082019050919050565b600060208201905081810360008301526126478161260b565b9050919050565b7f4552433732313a207472616e73666572206f6620746f6b656e2074686174206960008201527f73206e6f74206f776e0000000000000000000000000000000000000000000000602082015250565b60006126aa602983611b39565b91506126b58261264e565b604082019050919050565b600060208201905081810360008301526126d98161269d565b9050919050565b7f4552433732313a207472616e7366657220746f20746865207a65726f2061646460008201527f7265737300000000000000000000000000000000000000000000000000000000602082015250565b600061273c602483611b39565b9150612747826126e0565b604082019050919050565b6000602082019050818103600083015261276b8161272f565b9050919050565b7f4e487b7100000000000000000000000000000000000000000000000000000000600052601160045260246000fd5b60006127ac82611be9565b91506127b783611be9565b9250828210156127ca576127c9612772565b5b828203905092915050565b60006127e082611be9565b91506127eb83611be9565b9250827fffffffffffffffffffffffffffffffffffffffffffffffffffffffffffffffff038211156128205761281f612772565b5b828201905092915050565b7f5061757361626c653a206e6f7420706175736564000000000000000000000000600082015250565b6000612861601483611b39565b915061286c8261282b565b602082019050919050565b6000602082019050818103600083015261289081612854565b9050919050565b7f4552433732313a206d696e7420746f20746865207a65726f2061646472657373600082015250565b60006128cd602083611b39565b91506128d882612897565b602082019050919050565b600060208201905081810360008301526128fc816128c0565b9050919050565b7f4552433732313a20746f6b656e20616c7265616479206d696e74656400000000600082015250565b6000612939601c83611b39565b915061294482612903565b602082019050919050565b600060208201905081810360008301526129688161292c565b9050919050565b7f5061757361626c653a2070617573656400000000000000000000000000000000600082015250565b60006129a5601083611b39565b91506129b08261296f565b602082019050919050565b600060208201905081810360008301526129d481612998565b9050919050565b7f4552433732313a207472616e7366657220746f206e6f6e20455243373231526560008201527f63656976657220696d706c656d656e7465720000000000000000000000000000602082015250565b6000612a37603283611b39565b9150612a42826129db565b604082019050919050565b60006020820190508181036000830152612a6681612a2a565b9050919050565b6000612a7882611be9565b91507fffffffffffffffffffffffffffffffffffffffffffffffffffffffffffffffff821415612aab57612aaa612772565b5b600182019050919050565b7f4e487b7100000000000000000000000000000000000000000000000000000000600052601260045260246000fd5b6000612af082611be9565b9150612afb83611be9565b925082612b0b57612b0a612ab6565b5b828204905092915050565b6000612b2182611be9565b9150612b2c83611be9565b925082612b3c57612b3b612ab6565b5b828206905092915050565b7f4e487b7100000000000000000000000000000000000000000000000000000000600052603260045260246000fd5b7f4552433732315061757361626c653a20746f6b656e207472616e73666572207760008201527f68696c6520706175736564000000000000000000000000000000000000000000602082015250565b6000612bd2602b83611b39565b9150612bdd82612b76565b604082019050919050565b60006020820190508181036000830152612c0181612bc5565b9050919050565b600081519050919050565b600082825260208201905092915050565b6000612c2f82612c08565b612c398185612c13565b9350612c49818560208601611b4a565b612c5281611b7d565b840191505092915050565b6000608082019050612c726000830187611c7e565b612c7f6020830186611c7e565b612c8c6040830185611d94565b8181036060830152612c9e8184612c24565b905095945050505050565b600081519050612cb881611a9f565b92915050565b600060208284031215612cd457612cd3611a69565b5b6000612ce284828501612ca9565b9150509291505056fea2646970667358221220f88a46a1433eac44ff7d092fea3b9fb36742d4e69cfc2717076556150eef686764736f6c63430008090033",
  "immutableReferences": {},
  "source": "// SPDX-License-Identifier: MIT\r\n\r\npragma solidity ^0.8.0;\r\n\r\nimport \"../token/ERC721/extensions/ERC721Pausable.sol\";\r\n\r\n/**\r\n * @title ERC721PausableMock\r\n * This mock just provides a public mint, burn and exists functions for testing purposes\r\n */\r\ncontract ERC721PausableMock is ERC721Pausable {\r\n    constructor(string memory name, string memory symbol) ERC721(name, symbol) {}\r\n\r\n    function pause() external {\r\n        _pause();\r\n    }\r\n\r\n    function unpause() external {\r\n        _unpause();\r\n    }\r\n\r\n    function exists(uint256 tokenId) public view returns (bool) {\r\n        return _exists(tokenId);\r\n    }\r\n\r\n    function mint(address to, uint256 tokenId) public {\r\n        _mint(to, tokenId);\r\n    }\r\n\r\n    function safeMint(address to, uint256 tokenId) public {\r\n        _safeMint(to, tokenId);\r\n    }\r\n\r\n    function safeMint(\r\n        address to,\r\n        uint256 tokenId,\r\n        bytes memory _data\r\n    ) public {\r\n        _safeMint(to, tokenId, _data);\r\n    }\r\n\r\n    function burn(uint256 tokenId) public {\r\n        _burn(tokenId);\r\n    }\r\n}\r\n",
  "sourcePath": "C:\\Climax\\NFT-marketplace\\contracts\\openzeppelin-solidity\\contracts\\mocks\\ERC721PausableMock.sol",
  "compiler": {
    "name": "solc",
    "version": "0.8.9+commit.e5eed63a.Emscripten.clang"
  },
  "schemaVersion": "3.4.3",
  "updatedAt": "2021-10-26T11:45:25.641Z",
  "devdoc": {
    "kind": "dev",
    "methods": {
      "approve(address,uint256)": {
        "details": "See {IERC721-approve}."
      },
      "balanceOf(address)": {
        "details": "See {IERC721-balanceOf}."
      },
      "getApproved(uint256)": {
        "details": "See {IERC721-getApproved}."
      },
      "isApprovedForAll(address,address)": {
        "details": "See {IERC721-isApprovedForAll}."
      },
      "name()": {
        "details": "See {IERC721Metadata-name}."
      },
      "ownerOf(uint256)": {
        "details": "See {IERC721-ownerOf}."
      },
      "paused()": {
        "details": "Returns true if the contract is paused, and false otherwise."
      },
      "safeTransferFrom(address,address,uint256)": {
        "details": "See {IERC721-safeTransferFrom}."
      },
      "safeTransferFrom(address,address,uint256,bytes)": {
        "details": "See {IERC721-safeTransferFrom}."
      },
      "setApprovalForAll(address,bool)": {
        "details": "See {IERC721-setApprovalForAll}."
      },
      "supportsInterface(bytes4)": {
        "details": "See {IERC165-supportsInterface}."
      },
      "symbol()": {
        "details": "See {IERC721Metadata-symbol}."
      },
      "tokenURI(uint256)": {
        "details": "See {IERC721Metadata-tokenURI}."
      },
      "transferFrom(address,address,uint256)": {
        "details": "See {IERC721-transferFrom}."
      }
    },
    "title": "ERC721PausableMock This mock just provides a public mint, burn and exists functions for testing purposes",
    "version": 1
  },
  "userdoc": {
    "kind": "user",
    "methods": {},
    "version": 1
  }
}