{
  "contractName": "ERC721URIStorageMock",
  "abi": [
    {
      "inputs": [
        {
          "internalType": "string",
          "name": "name",
          "type": "string"
        },
        {
          "internalType": "string",
          "name": "symbol",
          "type": "string"
        }
      ],
      "stateMutability": "nonpayable",
      "type": "constructor"
    },
    {
      "anonymous": false,
      "inputs": [
        {
          "indexed": true,
          "internalType": "address",
          "name": "owner",
          "type": "address"
        },
        {
          "indexed": true,
          "internalType": "address",
          "name": "approved",
          "type": "address"
        },
        {
          "indexed": true,
          "internalType": "uint256",
          "name": "tokenId",
          "type": "uint256"
        }
      ],
      "name": "Approval",
      "type": "event"
    },
    {
      "anonymous": false,
      "inputs": [
        {
          "indexed": true,
          "internalType": "address",
          "name": "owner",
          "type": "address"
        },
        {
          "indexed": true,
          "internalType": "address",
          "name": "operator",
          "type": "address"
        },
        {
          "indexed": false,
          "internalType": "bool",
          "name": "approved",
          "type": "bool"
        }
      ],
      "name": "ApprovalForAll",
      "type": "event"
    },
    {
      "anonymous": false,
      "inputs": [
        {
          "indexed": true,
          "internalType": "address",
          "name": "from",
          "type": "address"
        },
        {
          "indexed": true,
          "internalType": "address",
          "name": "to",
          "type": "address"
        },
        {
          "indexed": true,
          "internalType": "uint256",
          "name": "tokenId",
          "type": "uint256"
        }
      ],
      "name": "Transfer",
      "type": "event"
    },
    {
      "inputs": [
        {
          "internalType": "address",
          "name": "to",
          "type": "address"
        },
        {
          "internalType": "uint256",
          "name": "tokenId",
          "type": "uint256"
        }
      ],
      "name": "approve",
      "outputs": [],
      "stateMutability": "nonpayable",
      "type": "function"
    },
    {
      "inputs": [
        {
          "internalType": "address",
          "name": "owner",
          "type": "address"
        }
      ],
      "name": "balanceOf",
      "outputs": [
        {
          "internalType": "uint256",
          "name": "",
          "type": "uint256"
        }
      ],
      "stateMutability": "view",
      "type": "function"
    },
    {
      "inputs": [
        {
          "internalType": "uint256",
          "name": "tokenId",
          "type": "uint256"
        }
      ],
      "name": "getApproved",
      "outputs": [
        {
          "internalType": "address",
          "name": "",
          "type": "address"
        }
      ],
      "stateMutability": "view",
      "type": "function"
    },
    {
      "inputs": [
        {
          "internalType": "address",
          "name": "owner",
          "type": "address"
        },
        {
          "internalType": "address",
          "name": "operator",
          "type": "address"
        }
      ],
      "name": "isApprovedForAll",
      "outputs": [
        {
          "internalType": "bool",
          "name": "",
          "type": "bool"
        }
      ],
      "stateMutability": "view",
      "type": "function"
    },
    {
      "inputs": [],
      "name": "name",
      "outputs": [
        {
          "internalType": "string",
          "name": "",
          "type": "string"
        }
      ],
      "stateMutability": "view",
      "type": "function"
    },
    {
      "inputs": [
        {
          "internalType": "uint256",
          "name": "tokenId",
          "type": "uint256"
        }
      ],
      "name": "ownerOf",
      "outputs": [
        {
          "internalType": "address",
          "name": "",
          "type": "address"
        }
      ],
      "stateMutability": "view",
      "type": "function"
    },
    {
      "inputs": [
        {
          "internalType": "address",
          "name": "from",
          "type": "address"
        },
        {
          "internalType": "address",
          "name": "to",
          "type": "address"
        },
        {
          "internalType": "uint256",
          "name": "tokenId",
          "type": "uint256"
        }
      ],
      "name": "safeTransferFrom",
      "outputs": [],
      "stateMutability": "nonpayable",
      "type": "function"
    },
    {
      "inputs": [
        {
          "internalType": "address",
          "name": "from",
          "type": "address"
        },
        {
          "internalType": "address",
          "name": "to",
          "type": "address"
        },
        {
          "internalType": "uint256",
          "name": "tokenId",
          "type": "uint256"
        },
        {
          "internalType": "bytes",
          "name": "_data",
          "type": "bytes"
        }
      ],
      "name": "safeTransferFrom",
      "outputs": [],
      "stateMutability": "nonpayable",
      "type": "function"
    },
    {
      "inputs": [
        {
          "internalType": "address",
          "name": "operator",
          "type": "address"
        },
        {
          "internalType": "bool",
          "name": "approved",
          "type": "bool"
        }
      ],
      "name": "setApprovalForAll",
      "outputs": [],
      "stateMutability": "nonpayable",
      "type": "function"
    },
    {
      "inputs": [
        {
          "internalType": "bytes4",
          "name": "interfaceId",
          "type": "bytes4"
        }
      ],
      "name": "supportsInterface",
      "outputs": [
        {
          "internalType": "bool",
          "name": "",
          "type": "bool"
        }
      ],
      "stateMutability": "view",
      "type": "function"
    },
    {
      "inputs": [],
      "name": "symbol",
      "outputs": [
        {
          "internalType": "string",
          "name": "",
          "type": "string"
        }
      ],
      "stateMutability": "view",
      "type": "function"
    },
    {
      "inputs": [
        {
          "internalType": "uint256",
          "name": "tokenId",
          "type": "uint256"
        }
      ],
      "name": "tokenURI",
      "outputs": [
        {
          "internalType": "string",
          "name": "",
          "type": "string"
        }
      ],
      "stateMutability": "view",
      "type": "function"
    },
    {
      "inputs": [
        {
          "internalType": "address",
          "name": "from",
          "type": "address"
        },
        {
          "internalType": "address",
          "name": "to",
          "type": "address"
        },
        {
          "internalType": "uint256",
          "name": "tokenId",
          "type": "uint256"
        }
      ],
      "name": "transferFrom",
      "outputs": [],
      "stateMutability": "nonpayable",
      "type": "function"
    },
    {
      "inputs": [
        {
          "internalType": "string",
          "name": "newBaseTokenURI",
          "type": "string"
        }
      ],
      "name": "setBaseURI",
      "outputs": [],
      "stateMutability": "nonpayable",
      "type": "function"
    },
    {
      "inputs": [],
      "name": "baseURI",
      "outputs": [
        {
          "internalType": "string",
          "name": "",
          "type": "string"
        }
      ],
      "stateMutability": "view",
      "type": "function"
    },
    {
      "inputs": [
        {
          "internalType": "uint256",
          "name": "tokenId",
          "type": "uint256"
        },
        {
          "internalType": "string",
          "name": "_tokenURI",
          "type": "string"
        }
      ],
      "name": "setTokenURI",
      "outputs": [],
      "stateMutability": "nonpayable",
      "type": "function"
    },
    {
      "inputs": [
        {
          "internalType": "uint256",
          "name": "tokenId",
          "type": "uint256"
        }
      ],
      "name": "exists",
      "outputs": [
        {
          "internalType": "bool",
          "name": "",
          "type": "bool"
        }
      ],
      "stateMutability": "view",
      "type": "function"
    },
    {
      "inputs": [
        {
          "internalType": "address",
          "name": "to",
          "type": "address"
        },
        {
          "internalType": "uint256",
          "name": "tokenId",
          "type": "uint256"
        }
      ],
      "name": "mint",
      "outputs": [],
      "stateMutability": "nonpayable",
      "type": "function"
    },
    {
      "inputs": [
        {
          "internalType": "address",
          "name": "to",
          "type": "address"
        },
        {
          "internalType": "uint256",
          "name": "tokenId",
          "type": "uint256"
        },
        {
          "internalType": "bytes",
          "name": "_data",
          "type": "bytes"
        }
      ],
      "name": "safeMint",
      "outputs": [],
      "stateMutability": "nonpayable",
      "type": "function"
    },
    {
      "inputs": [
        {
          "internalType": "address",
          "name": "to",
          "type": "address"
        },
        {
          "internalType": "uint256",
          "name": "tokenId",
          "type": "uint256"
        }
      ],
      "name": "safeMint",
      "outputs": [],
      "stateMutability": "nonpayable",
      "type": "function"
    },
    {
      "inputs": [
        {
          "internalType": "uint256",
          "name": "tokenId",
          "type": "uint256"
        }
      ],
      "name": "burn",
      "outputs": [],
      "stateMutability": "nonpayable",
      "type": "function"
    }
  ],
  "bytecode": "0x60806040523480156200001157600080fd5b50604051620034cd380380620034cd8339818101604052810190620000379190620002c2565b818181600090805190602001906200005192919062000075565b5080600190805190602001906200006a92919062000075565b5050505050620003ac565b828054620000839062000376565b90600052602060002090601f016020900481019282620000a75760008555620000f3565b82601f10620000c257805160ff1916838001178555620000f3565b82800160010185558215620000f3579182015b82811115620000f2578251825591602001919060010190620000d5565b5b50905062000102919062000106565b5090565b5b808211156200012157600081600090555060010162000107565b5090565b6000604051905090565b600080fd5b600080fd5b600080fd5b600080fd5b6000601f19601f8301169050919050565b7f4e487b7100000000000000000000000000000000000000000000000000000000600052604160045260246000fd5b6200018e8262000143565b810181811067ffffffffffffffff82111715620001b057620001af62000154565b5b80604052505050565b6000620001c562000125565b9050620001d3828262000183565b919050565b600067ffffffffffffffff821115620001f657620001f562000154565b5b620002018262000143565b9050602081019050919050565b60005b838110156200022e57808201518184015260208101905062000211565b838111156200023e576000848401525b50505050565b60006200025b6200025584620001d8565b620001b9565b9050828152602081018484840111156200027a57620002796200013e565b5b620002878482856200020e565b509392505050565b600082601f830112620002a757620002a662000139565b5b8151620002b984826020860162000244565b91505092915050565b60008060408385031215620002dc57620002db6200012f565b5b600083015167ffffffffffffffff811115620002fd57620002fc62000134565b5b6200030b858286016200028f565b925050602083015167ffffffffffffffff8111156200032f576200032e62000134565b5b6200033d858286016200028f565b9150509250929050565b7f4e487b7100000000000000000000000000000000000000000000000000000000600052602260045260246000fd5b600060028204905060018216806200038f57607f821691505b60208210811415620003a657620003a562000347565b5b50919050565b61311180620003bc6000396000f3fe608060405234801561001057600080fd5b50600436106101375760003560e01c806355f804b3116100b857806395d89b411161007c57806395d89b4114610348578063a144819414610366578063a22cb46514610382578063b88d4fde1461039e578063c87b56dd146103ba578063e985e9c5146103ea57610137565b806355f804b3146102925780636352211e146102ae5780636c0360eb146102de57806370a08231146102fc5780638832e6e31461032c57610137565b806323b872dd116100ff57806323b872dd146101f257806340c10f191461020e57806342842e0e1461022a57806342966c68146102465780634f558e791461026257610137565b806301ffc9a71461013c57806306fdde031461016c578063081812fc1461018a578063095ea7b3146101ba578063162094c4146101d6575b600080fd5b61015660048036038101906101519190611d57565b61041a565b6040516101639190611d9f565b60405180910390f35b6101746104fc565b6040516101819190611e53565b60405180910390f35b6101a4600480360381019061019f9190611eab565b61058e565b6040516101b19190611f19565b60405180910390f35b6101d460048036038101906101cf9190611f60565b610613565b005b6101f060048036038101906101eb91906120d5565b61072b565b005b61020c60048036038101906102079190612131565b610739565b005b61022860048036038101906102239190611f60565b610799565b005b610244600480360381019061023f9190612131565b6107a7565b005b610260600480360381019061025b9190611eab565b6107c7565b005b61027c60048036038101906102779190611eab565b6107d3565b6040516102899190611d9f565b60405180910390f35b6102ac60048036038101906102a791906121e4565b6107e5565b005b6102c860048036038101906102c39190611eab565b6107fb565b6040516102d59190611f19565b60405180910390f35b6102e66108ad565b6040516102f39190611e53565b60405180910390f35b61031660048036038101906103119190612231565b6108bc565b604051610323919061226d565b60405180910390f35b61034660048036038101906103419190612329565b610974565b005b610350610984565b60405161035d9190611e53565b60405180910390f35b610380600480360381019061037b9190611f60565b610a16565b005b61039c600480360381019061039791906123c4565b610a24565b005b6103b860048036038101906103b39190612404565b610ba5565b005b6103d460048036038101906103cf9190611eab565b610c07565b6040516103e19190611e53565b60405180910390f35b61040460048036038101906103ff9190612487565b610d59565b6040516104119190611d9f565b60405180910390f35b60007f80ac58cd000000000000000000000000000000000000000000000000000000007bffffffffffffffffffffffffffffffffffffffffffffffffffffffff1916827bffffffffffffffffffffffffffffffffffffffffffffffffffffffff191614806104e557507f5b5e139f000000000000000000000000000000000000000000000000000000007bffffffffffffffffffffffffffffffffffffffffffffffffffffffff1916827bffffffffffffffffffffffffffffffffffffffffffffffffffffffff1916145b806104f557506104f482610ded565b5b9050919050565b60606000805461050b906124f6565b80601f0160208091040260200160405190810160405280929190818152602001828054610537906124f6565b80156105845780601f1061055957610100808354040283529160200191610584565b820191906000526020600020905b81548152906001019060200180831161056757829003601f168201915b5050505050905090565b600061059982610e57565b6105d8576040517f08c379a00000000000000000000000000000000000000000000000000000000081526004016105cf9061259a565b60405180910390fd5b6004600083815260200190815260200160002060009054906101000a900473ffffffffffffffffffffffffffffffffffffffff169050919050565b600061061e826107fb565b90508073ffffffffffffffffffffffffffffffffffffffff168373ffffffffffffffffffffffffffffffffffffffff16141561068f576040517f08c379a00000000000000000000000000000000000000000000000000000000081526004016106869061262c565b60405180910390fd5b8073ffffffffffffffffffffffffffffffffffffffff166106ae610ec3565b73ffffffffffffffffffffffffffffffffffffffff1614806106dd57506106dc816106d7610ec3565b610d59565b5b61071c576040517f08c379a0000000000000000000000000000000000000000000000000000000008152600401610713906126be565b60405180910390fd5b6107268383610ecb565b505050565b6107358282610f84565b5050565b61074a610744610ec3565b82610ff8565b610789576040517f08c379a000000000000000000000000000000000000000000000000000000000815260040161078090612750565b60405180910390fd5b6107948383836110d6565b505050565b6107a38282611332565b5050565b6107c283838360405180602001604052806000815250610ba5565b505050565b6107d081611500565b50565b60006107de82610e57565b9050919050565b8181600791906107f6929190611b82565b505050565b6000806002600084815260200190815260200160002060009054906101000a900473ffffffffffffffffffffffffffffffffffffffff169050600073ffffffffffffffffffffffffffffffffffffffff168173ffffffffffffffffffffffffffffffffffffffff1614156108a4576040517f08c379a000000000000000000000000000000000000000000000000000000000815260040161089b906127e2565b60405180910390fd5b80915050919050565b60606108b7611553565b905090565b60008073ffffffffffffffffffffffffffffffffffffffff168273ffffffffffffffffffffffffffffffffffffffff16141561092d576040517f08c379a000000000000000000000000000000000000000000000000000000000815260040161092490612874565b60405180910390fd5b600360008373ffffffffffffffffffffffffffffffffffffffff1673ffffffffffffffffffffffffffffffffffffffff168152602001908152602001600020549050919050565b61097f8383836115e5565b505050565b606060018054610993906124f6565b80601f01602080910402602001604051908101604052809291908181526020018280546109bf906124f6565b8015610a0c5780601f106109e157610100808354040283529160200191610a0c565b820191906000526020600020905b8154815290600101906020018083116109ef57829003601f168201915b5050505050905090565b610a208282611640565b5050565b610a2c610ec3565b73ffffffffffffffffffffffffffffffffffffffff168273ffffffffffffffffffffffffffffffffffffffff161415610a9a576040517f08c379a0000000000000000000000000000000000000000000000000000000008152600401610a91906128e0565b60405180910390fd5b8060056000610aa7610ec3565b73ffffffffffffffffffffffffffffffffffffffff1673ffffffffffffffffffffffffffffffffffffffff16815260200190815260200160002060008473ffffffffffffffffffffffffffffffffffffffff1673ffffffffffffffffffffffffffffffffffffffff16815260200190815260200160002060006101000a81548160ff0219169083151502179055508173ffffffffffffffffffffffffffffffffffffffff16610b54610ec3565b73ffffffffffffffffffffffffffffffffffffffff167f17307eab39ab6107e8899845ad3d59bd9653f200f220920489ca2b5937696c3183604051610b999190611d9f565b60405180910390a35050565b610bb6610bb0610ec3565b83610ff8565b610bf5576040517f08c379a0000000000000000000000000000000000000000000000000000000008152600401610bec90612750565b60405180910390fd5b610c018484848461165e565b50505050565b6060610c1282610e57565b610c51576040517f08c379a0000000000000000000000000000000000000000000000000000000008152600401610c4890612972565b60405180910390fd5b6000600660008481526020019081526020016000208054610c71906124f6565b80601f0160208091040260200160405190810160405280929190818152602001828054610c9d906124f6565b8015610cea5780601f10610cbf57610100808354040283529160200191610cea565b820191906000526020600020905b815481529060010190602001808311610ccd57829003601f168201915b505050505090506000610cfb611553565b9050600081511415610d11578192505050610d54565b600082511115610d46578082604051602001610d2e9291906129ce565b60405160208183030381529060405292505050610d54565b610d4f846116ba565b925050505b919050565b6000600560008473ffffffffffffffffffffffffffffffffffffffff1673ffffffffffffffffffffffffffffffffffffffff16815260200190815260200160002060008373ffffffffffffffffffffffffffffffffffffffff1673ffffffffffffffffffffffffffffffffffffffff16815260200190815260200160002060009054906101000a900460ff16905092915050565b60007f01ffc9a7000000000000000000000000000000000000000000000000000000007bffffffffffffffffffffffffffffffffffffffffffffffffffffffff1916827bffffffffffffffffffffffffffffffffffffffffffffffffffffffff1916149050919050565b60008073ffffffffffffffffffffffffffffffffffffffff166002600084815260200190815260200160002060009054906101000a900473ffffffffffffffffffffffffffffffffffffffff1673ffffffffffffffffffffffffffffffffffffffff1614159050919050565b600033905090565b816004600083815260200190815260200160002060006101000a81548173ffffffffffffffffffffffffffffffffffffffff021916908373ffffffffffffffffffffffffffffffffffffffff160217905550808273ffffffffffffffffffffffffffffffffffffffff16610f3e836107fb565b73ffffffffffffffffffffffffffffffffffffffff167f8c5be1e5ebec7d5bd14f71427d1e84f3dd0314c0f7b2291e5b200ac8c7c3b92560405160405180910390a45050565b610f8d82610e57565b610fcc576040517f08c379a0000000000000000000000000000000000000000000000000000000008152600401610fc390612a64565b60405180910390fd5b80600660008481526020019081526020016000209080519060200190610ff3929190611c08565b505050565b600061100382610e57565b611042576040517f08c379a000000000000000000000000000000000000000000000000000000000815260040161103990612af6565b60405180910390fd5b600061104d836107fb565b90508073ffffffffffffffffffffffffffffffffffffffff168473ffffffffffffffffffffffffffffffffffffffff1614806110bc57508373ffffffffffffffffffffffffffffffffffffffff166110a48461058e565b73ffffffffffffffffffffffffffffffffffffffff16145b806110cd57506110cc8185610d59565b5b91505092915050565b8273ffffffffffffffffffffffffffffffffffffffff166110f6826107fb565b73ffffffffffffffffffffffffffffffffffffffff161461114c576040517f08c379a000000000000000000000000000000000000000000000000000000000815260040161114390612b88565b60405180910390fd5b600073ffffffffffffffffffffffffffffffffffffffff168273ffffffffffffffffffffffffffffffffffffffff1614156111bc576040517f08c379a00000000000000000000000000000000000000000000000000000000081526004016111b390612c1a565b60405180910390fd5b6111c7838383611761565b6111d2600082610ecb565b6001600360008573ffffffffffffffffffffffffffffffffffffffff1673ffffffffffffffffffffffffffffffffffffffff16815260200190815260200160002060008282546112229190612c69565b925050819055506001600360008473ffffffffffffffffffffffffffffffffffffffff1673ffffffffffffffffffffffffffffffffffffffff16815260200190815260200160002060008282546112799190612c9d565b92505081905550816002600083815260200190815260200160002060006101000a81548173ffffffffffffffffffffffffffffffffffffffff021916908373ffffffffffffffffffffffffffffffffffffffff160217905550808273ffffffffffffffffffffffffffffffffffffffff168473ffffffffffffffffffffffffffffffffffffffff167fddf252ad1be2c89b69c2b068fc378daa952ba7f163c4a11628f55a4df523b3ef60405160405180910390a4505050565b600073ffffffffffffffffffffffffffffffffffffffff168273ffffffffffffffffffffffffffffffffffffffff1614156113a2576040517f08c379a000000000000000000000000000000000000000000000000000000000815260040161139990612d3f565b60405180910390fd5b6113ab81610e57565b156113eb576040517f08c379a00000000000000000000000000000000000000000000000000000000081526004016113e290612dab565b60405180910390fd5b6113f760008383611761565b6001600360008473ffffffffffffffffffffffffffffffffffffffff1673ffffffffffffffffffffffffffffffffffffffff16815260200190815260200160002060008282546114479190612c9d565b92505081905550816002600083815260200190815260200160002060006101000a81548173ffffffffffffffffffffffffffffffffffffffff021916908373ffffffffffffffffffffffffffffffffffffffff160217905550808273ffffffffffffffffffffffffffffffffffffffff16600073ffffffffffffffffffffffffffffffffffffffff167fddf252ad1be2c89b69c2b068fc378daa952ba7f163c4a11628f55a4df523b3ef60405160405180910390a45050565b61150981611766565b6000600660008381526020019081526020016000208054611529906124f6565b9050146115505760066000828152602001908152602001600020600061154f9190611c8e565b5b50565b606060078054611562906124f6565b80601f016020809104026020016040519081016040528092919081815260200182805461158e906124f6565b80156115db5780601f106115b0576101008083540402835291602001916115db565b820191906000526020600020905b8154815290600101906020018083116115be57829003601f168201915b5050505050905090565b6115ef8383611332565b6115fc6000848484611877565b61163b576040517f08c379a000000000000000000000000000000000000000000000000000000000815260040161163290612e3d565b60405180910390fd5b505050565b61165a8282604051806020016040528060008152506115e5565b5050565b6116698484846110d6565b61167584848484611877565b6116b4576040517f08c379a00000000000000000000000000000000000000000000000000000000081526004016116ab90612e3d565b60405180910390fd5b50505050565b60606116c582610e57565b611704576040517f08c379a00000000000000000000000000000000000000000000000000000000081526004016116fb90612ecf565b60405180910390fd5b600061170e611553565b9050600081511161172e5760405180602001604052806000815250611759565b8061173884611a0e565b6040516020016117499291906129ce565b6040516020818303038152906040525b915050919050565b505050565b6000611771826107fb565b905061177f81600084611761565b61178a600083610ecb565b6001600360008373ffffffffffffffffffffffffffffffffffffffff1673ffffffffffffffffffffffffffffffffffffffff16815260200190815260200160002060008282546117da9190612c69565b925050819055506002600083815260200190815260200160002060006101000a81549073ffffffffffffffffffffffffffffffffffffffff021916905581600073ffffffffffffffffffffffffffffffffffffffff168273ffffffffffffffffffffffffffffffffffffffff167fddf252ad1be2c89b69c2b068fc378daa952ba7f163c4a11628f55a4df523b3ef60405160405180910390a45050565b60006118988473ffffffffffffffffffffffffffffffffffffffff16611b6f565b15611a01578373ffffffffffffffffffffffffffffffffffffffff1663150b7a026118c1610ec3565b8786866040518563ffffffff1660e01b81526004016118e39493929190612f44565b602060405180830381600087803b1580156118fd57600080fd5b505af192505050801561192e57506040513d601f19601f8201168201806040525081019061192b9190612fa5565b60015b6119b1573d806000811461195e576040519150601f19603f3d011682016040523d82523d6000602084013e611963565b606091505b506000815114156119a9576040517f08c379a00000000000000000000000000000000000000000000000000000000081526004016119a090612e3d565b60405180910390fd5b805181602001fd5b63150b7a0260e01b7bffffffffffffffffffffffffffffffffffffffffffffffffffffffff1916817bffffffffffffffffffffffffffffffffffffffffffffffffffffffff191614915050611a06565b600190505b949350505050565b60606000821415611a56576040518060400160405280600181526020017f30000000000000000000000000000000000000000000000000000000000000008152509050611b6a565b600082905060005b60008214611a88578080611a7190612fd2565b915050600a82611a81919061304a565b9150611a5e565b60008167ffffffffffffffff811115611aa457611aa3611faa565b5b6040519080825280601f01601f191660200182016040528015611ad65781602001600182028036833780820191505090505b5090505b60008514611b6357600182611aef9190612c69565b9150600a85611afe919061307b565b6030611b0a9190612c9d565b60f81b818381518110611b2057611b1f6130ac565b5b60200101907effffffffffffffffffffffffffffffffffffffffffffffffffffffffffffff1916908160001a905350600a85611b5c919061304a565b9450611ada565b8093505050505b919050565b600080823b905060008111915050919050565b828054611b8e906124f6565b90600052602060002090601f016020900481019282611bb05760008555611bf7565b82601f10611bc957803560ff1916838001178555611bf7565b82800160010185558215611bf7579182015b82811115611bf6578235825591602001919060010190611bdb565b5b509050611c049190611cce565b5090565b828054611c14906124f6565b90600052602060002090601f016020900481019282611c365760008555611c7d565b82601f10611c4f57805160ff1916838001178555611c7d565b82800160010185558215611c7d579182015b82811115611c7c578251825591602001919060010190611c61565b5b509050611c8a9190611cce565b5090565b508054611c9a906124f6565b6000825580601f10611cac5750611ccb565b601f016020900490600052602060002090810190611cca9190611cce565b5b50565b5b80821115611ce7576000816000905550600101611ccf565b5090565b6000604051905090565b600080fd5b600080fd5b60007fffffffff0000000000000000000000000000000000000000000000000000000082169050919050565b611d3481611cff565b8114611d3f57600080fd5b50565b600081359050611d5181611d2b565b92915050565b600060208284031215611d6d57611d6c611cf5565b5b6000611d7b84828501611d42565b91505092915050565b60008115159050919050565b611d9981611d84565b82525050565b6000602082019050611db46000830184611d90565b92915050565b600081519050919050565b600082825260208201905092915050565b60005b83811015611df4578082015181840152602081019050611dd9565b83811115611e03576000848401525b50505050565b6000601f19601f8301169050919050565b6000611e2582611dba565b611e2f8185611dc5565b9350611e3f818560208601611dd6565b611e4881611e09565b840191505092915050565b60006020820190508181036000830152611e6d8184611e1a565b905092915050565b6000819050919050565b611e8881611e75565b8114611e9357600080fd5b50565b600081359050611ea581611e7f565b92915050565b600060208284031215611ec157611ec0611cf5565b5b6000611ecf84828501611e96565b91505092915050565b600073ffffffffffffffffffffffffffffffffffffffff82169050919050565b6000611f0382611ed8565b9050919050565b611f1381611ef8565b82525050565b6000602082019050611f2e6000830184611f0a565b92915050565b611f3d81611ef8565b8114611f4857600080fd5b50565b600081359050611f5a81611f34565b92915050565b60008060408385031215611f7757611f76611cf5565b5b6000611f8585828601611f4b565b9250506020611f9685828601611e96565b9150509250929050565b600080fd5b600080fd5b7f4e487b7100000000000000000000000000000000000000000000000000000000600052604160045260246000fd5b611fe282611e09565b810181811067ffffffffffffffff8211171561200157612000611faa565b5b80604052505050565b6000612014611ceb565b90506120208282611fd9565b919050565b600067ffffffffffffffff8211156120405761203f611faa565b5b61204982611e09565b9050602081019050919050565b82818337600083830152505050565b600061207861207384612025565b61200a565b90508281526020810184848401111561209457612093611fa5565b5b61209f848285612056565b509392505050565b600082601f8301126120bc576120bb611fa0565b5b81356120cc848260208601612065565b91505092915050565b600080604083850312156120ec576120eb611cf5565b5b60006120fa85828601611e96565b925050602083013567ffffffffffffffff81111561211b5761211a611cfa565b5b612127858286016120a7565b9150509250929050565b60008060006060848603121561214a57612149611cf5565b5b600061215886828701611f4b565b935050602061216986828701611f4b565b925050604061217a86828701611e96565b9150509250925092565b600080fd5b600080fd5b60008083601f8401126121a4576121a3611fa0565b5b8235905067ffffffffffffffff8111156121c1576121c0612184565b5b6020830191508360018202830111156121dd576121dc612189565b5b9250929050565b600080602083850312156121fb576121fa611cf5565b5b600083013567ffffffffffffffff81111561221957612218611cfa565b5b6122258582860161218e565b92509250509250929050565b60006020828403121561224757612246611cf5565b5b600061225584828501611f4b565b91505092915050565b61226781611e75565b82525050565b6000602082019050612282600083018461225e565b92915050565b600067ffffffffffffffff8211156122a3576122a2611faa565b5b6122ac82611e09565b9050602081019050919050565b60006122cc6122c784612288565b61200a565b9050828152602081018484840111156122e8576122e7611fa5565b5b6122f3848285612056565b509392505050565b600082601f8301126123105761230f611fa0565b5b81356123208482602086016122b9565b91505092915050565b60008060006060848603121561234257612341611cf5565b5b600061235086828701611f4b565b935050602061236186828701611e96565b925050604084013567ffffffffffffffff81111561238257612381611cfa565b5b61238e868287016122fb565b9150509250925092565b6123a181611d84565b81146123ac57600080fd5b50565b6000813590506123be81612398565b92915050565b600080604083850312156123db576123da611cf5565b5b60006123e985828601611f4b565b92505060206123fa858286016123af565b9150509250929050565b6000806000806080858703121561241e5761241d611cf5565b5b600061242c87828801611f4b565b945050602061243d87828801611f4b565b935050604061244e87828801611e96565b925050606085013567ffffffffffffffff81111561246f5761246e611cfa565b5b61247b878288016122fb565b91505092959194509250565b6000806040838503121561249e5761249d611cf5565b5b60006124ac85828601611f4b565b92505060206124bd85828601611f4b565b9150509250929050565b7f4e487b7100000000000000000000000000000000000000000000000000000000600052602260045260246000fd5b6000600282049050600182168061250e57607f821691505b60208210811415612522576125216124c7565b5b50919050565b7f4552433732313a20617070726f76656420717565727920666f72206e6f6e657860008201527f697374656e7420746f6b656e0000000000000000000000000000000000000000602082015250565b6000612584602c83611dc5565b915061258f82612528565b604082019050919050565b600060208201905081810360008301526125b381612577565b9050919050565b7f4552433732313a20617070726f76616c20746f2063757272656e74206f776e6560008201527f7200000000000000000000000000000000000000000000000000000000000000602082015250565b6000612616602183611dc5565b9150612621826125ba565b604082019050919050565b6000602082019050818103600083015261264581612609565b9050919050565b7f4552433732313a20617070726f76652063616c6c6572206973206e6f74206f7760008201527f6e6572206e6f7220617070726f76656420666f7220616c6c0000000000000000602082015250565b60006126a8603883611dc5565b91506126b38261264c565b604082019050919050565b600060208201905081810360008301526126d78161269b565b9050919050565b7f4552433732313a207472616e736665722063616c6c6572206973206e6f74206f60008201527f776e6572206e6f7220617070726f766564000000000000000000000000000000602082015250565b600061273a603183611dc5565b9150612745826126de565b604082019050919050565b600060208201905081810360008301526127698161272d565b9050919050565b7f4552433732313a206f776e657220717565727920666f72206e6f6e657869737460008201527f656e7420746f6b656e0000000000000000000000000000000000000000000000602082015250565b60006127cc602983611dc5565b91506127d782612770565b604082019050919050565b600060208201905081810360008301526127fb816127bf565b9050919050565b7f4552433732313a2062616c616e636520717565727920666f7220746865207a6560008201527f726f206164647265737300000000000000000000000000000000000000000000602082015250565b600061285e602a83611dc5565b915061286982612802565b604082019050919050565b6000602082019050818103600083015261288d81612851565b9050919050565b7f4552433732313a20617070726f766520746f2063616c6c657200000000000000600082015250565b60006128ca601983611dc5565b91506128d582612894565b602082019050919050565b600060208201905081810360008301526128f9816128bd565b9050919050565b7f45524337323155524953746f726167653a2055524920717565727920666f722060008201527f6e6f6e6578697374656e7420746f6b656e000000000000000000000000000000602082015250565b600061295c603183611dc5565b915061296782612900565b604082019050919050565b6000602082019050818103600083015261298b8161294f565b9050919050565b600081905092915050565b60006129a882611dba565b6129b28185612992565b93506129c2818560208601611dd6565b80840191505092915050565b60006129da828561299d565b91506129e6828461299d565b91508190509392505050565b7f45524337323155524953746f726167653a2055524920736574206f66206e6f6e60008201527f6578697374656e7420746f6b656e000000000000000000000000000000000000602082015250565b6000612a4e602e83611dc5565b9150612a59826129f2565b604082019050919050565b60006020820190508181036000830152612a7d81612a41565b9050919050565b7f4552433732313a206f70657261746f7220717565727920666f72206e6f6e657860008201527f697374656e7420746f6b656e0000000000000000000000000000000000000000602082015250565b6000612ae0602c83611dc5565b9150612aeb82612a84565b604082019050919050565b60006020820190508181036000830152612b0f81612ad3565b9050919050565b7f4552433732313a207472616e73666572206f6620746f6b656e2074686174206960008201527f73206e6f74206f776e0000000000000000000000000000000000000000000000602082015250565b6000612b72602983611dc5565b9150612b7d82612b16565b604082019050919050565b60006020820190508181036000830152612ba181612b65565b9050919050565b7f4552433732313a207472616e7366657220746f20746865207a65726f2061646460008201527f7265737300000000000000000000000000000000000000000000000000000000602082015250565b6000612c04602483611dc5565b9150612c0f82612ba8565b604082019050919050565b60006020820190508181036000830152612c3381612bf7565b9050919050565b7f4e487b7100000000000000000000000000000000000000000000000000000000600052601160045260246000fd5b6000612c7482611e75565b9150612c7f83611e75565b925082821015612c9257612c91612c3a565b5b828203905092915050565b6000612ca882611e75565b9150612cb383611e75565b9250827fffffffffffffffffffffffffffffffffffffffffffffffffffffffffffffffff03821115612ce857612ce7612c3a565b5b828201905092915050565b7f4552433732313a206d696e7420746f20746865207a65726f2061646472657373600082015250565b6000612d29602083611dc5565b9150612d3482612cf3565b602082019050919050565b60006020820190508181036000830152612d5881612d1c565b9050919050565b7f4552433732313a20746f6b656e20616c7265616479206d696e74656400000000600082015250565b6000612d95601c83611dc5565b9150612da082612d5f565b602082019050919050565b60006020820190508181036000830152612dc481612d88565b9050919050565b7f4552433732313a207472616e7366657220746f206e6f6e20455243373231526560008201527f63656976657220696d706c656d656e7465720000000000000000000000000000602082015250565b6000612e27603283611dc5565b9150612e3282612dcb565b604082019050919050565b60006020820190508181036000830152612e5681612e1a565b9050919050565b7f4552433732314d657461646174613a2055524920717565727920666f72206e6f60008201527f6e6578697374656e7420746f6b656e0000000000000000000000000000000000602082015250565b6000612eb9602f83611dc5565b9150612ec482612e5d565b604082019050919050565b60006020820190508181036000830152612ee881612eac565b9050919050565b600081519050919050565b600082825260208201905092915050565b6000612f1682612eef565b612f208185612efa565b9350612f30818560208601611dd6565b612f3981611e09565b840191505092915050565b6000608082019050612f596000830187611f0a565b612f666020830186611f0a565b612f73604083018561225e565b8181036060830152612f858184612f0b565b905095945050505050565b600081519050612f9f81611d2b565b92915050565b600060208284031215612fbb57612fba611cf5565b5b6000612fc984828501612f90565b91505092915050565b6000612fdd82611e75565b91507fffffffffffffffffffffffffffffffffffffffffffffffffffffffffffffffff8214156130105761300f612c3a565b5b600182019050919050565b7f4e487b7100000000000000000000000000000000000000000000000000000000600052601260045260246000fd5b600061305582611e75565b915061306083611e75565b9250826130705761306f61301b565b5b828204905092915050565b600061308682611e75565b915061309183611e75565b9250826130a1576130a061301b565b5b828206905092915050565b7f4e487b7100000000000000000000000000000000000000000000000000000000600052603260045260246000fdfea2646970667358221220437ddc475351be3efff854b77a1483e0fab059fac0085693c7f363625b59a9ee64736f6c63430008090033",
  "immutableReferences": {},
  "source": "// SPDX-License-Identifier: MIT\r\n\r\npragma solidity ^0.8.0;\r\n\r\nimport \"../token/ERC721/extensions/ERC721URIStorage.sol\";\r\n\r\n/**\r\n * @title ERC721Mock\r\n * This mock just provides a public safeMint, mint, and burn functions for testing purposes\r\n */\r\ncontract ERC721URIStorageMock is ERC721URIStorage {\r\n    string private _baseTokenURI;\r\n\r\n    constructor(string memory name, string memory symbol) ERC721(name, symbol) {}\r\n\r\n    function _baseURI() internal view virtual override returns (string memory) {\r\n        return _baseTokenURI;\r\n    }\r\n\r\n    function setBaseURI(string calldata newBaseTokenURI) public {\r\n        _baseTokenURI = newBaseTokenURI;\r\n    }\r\n\r\n    function baseURI() public view returns (string memory) {\r\n        return _baseURI();\r\n    }\r\n\r\n    function setTokenURI(uint256 tokenId, string memory _tokenURI) public {\r\n        _setTokenURI(tokenId, _tokenURI);\r\n    }\r\n\r\n    function exists(uint256 tokenId) public view returns (bool) {\r\n        return _exists(tokenId);\r\n    }\r\n\r\n    function mint(address to, uint256 tokenId) public {\r\n        _mint(to, tokenId);\r\n    }\r\n\r\n    function safeMint(address to, uint256 tokenId) public {\r\n        _safeMint(to, tokenId);\r\n    }\r\n\r\n    function safeMint(\r\n        address to,\r\n        uint256 tokenId,\r\n        bytes memory _data\r\n    ) public {\r\n        _safeMint(to, tokenId, _data);\r\n    }\r\n\r\n    function burn(uint256 tokenId) public {\r\n        _burn(tokenId);\r\n    }\r\n}\r\n",
  "sourcePath": "C:\\Climax\\NFT-marketplace\\contracts\\openzeppelin-solidity\\contracts\\mocks\\ERC721URIStorageMock.sol",
  "compiler": {
    "name": "solc",
    "version": "0.8.9+commit.e5eed63a.Emscripten.clang"
  },
  "schemaVersion": "3.4.3",
  "updatedAt": "2021-10-26T11:45:25.658Z",
  "devdoc": {
    "kind": "dev",
    "methods": {
      "approve(address,uint256)": {
        "details": "See {IERC721-approve}."
      },
      "balanceOf(address)": {
        "details": "See {IERC721-balanceOf}."
      },
      "getApproved(uint256)": {
        "details": "See {IERC721-getApproved}."
      },
      "isApprovedForAll(address,address)": {
        "details": "See {IERC721-isApprovedForAll}."
      },
      "name()": {
        "details": "See {IERC721Metadata-name}."
      },
      "ownerOf(uint256)": {
        "details": "See {IERC721-ownerOf}."
      },
      "safeTransferFrom(address,address,uint256)": {
        "details": "See {IERC721-safeTransferFrom}."
      },
      "safeTransferFrom(address,address,uint256,bytes)": {
        "details": "See {IERC721-safeTransferFrom}."
      },
      "setApprovalForAll(address,bool)": {
        "details": "See {IERC721-setApprovalForAll}."
      },
      "supportsInterface(bytes4)": {
        "details": "See {IERC165-supportsInterface}."
      },
      "symbol()": {
        "details": "See {IERC721Metadata-symbol}."
      },
      "tokenURI(uint256)": {
        "details": "See {IERC721Metadata-tokenURI}."
      },
      "transferFrom(address,address,uint256)": {
        "details": "See {IERC721-transferFrom}."
      }
    },
    "title": "ERC721Mock This mock just provides a public safeMint, mint, and burn functions for testing purposes",
    "version": 1
  },
  "userdoc": {
    "kind": "user",
    "methods": {},
    "version": 1
  }
}