{
  "contractName": "ERC721Mock",
  "abi": [
    {
      "inputs": [
        {
          "internalType": "string",
          "name": "name",
          "type": "string"
        },
        {
          "internalType": "string",
          "name": "symbol",
          "type": "string"
        }
      ],
      "stateMutability": "nonpayable",
      "type": "constructor"
    },
    {
      "anonymous": false,
      "inputs": [
        {
          "indexed": true,
          "internalType": "address",
          "name": "owner",
          "type": "address"
        },
        {
          "indexed": true,
          "internalType": "address",
          "name": "approved",
          "type": "address"
        },
        {
          "indexed": true,
          "internalType": "uint256",
          "name": "tokenId",
          "type": "uint256"
        }
      ],
      "name": "Approval",
      "type": "event"
    },
    {
      "anonymous": false,
      "inputs": [
        {
          "indexed": true,
          "internalType": "address",
          "name": "owner",
          "type": "address"
        },
        {
          "indexed": true,
          "internalType": "address",
          "name": "operator",
          "type": "address"
        },
        {
          "indexed": false,
          "internalType": "bool",
          "name": "approved",
          "type": "bool"
        }
      ],
      "name": "ApprovalForAll",
      "type": "event"
    },
    {
      "anonymous": false,
      "inputs": [
        {
          "indexed": true,
          "internalType": "address",
          "name": "from",
          "type": "address"
        },
        {
          "indexed": true,
          "internalType": "address",
          "name": "to",
          "type": "address"
        },
        {
          "indexed": true,
          "internalType": "uint256",
          "name": "tokenId",
          "type": "uint256"
        }
      ],
      "name": "Transfer",
      "type": "event"
    },
    {
      "inputs": [
        {
          "internalType": "address",
          "name": "to",
          "type": "address"
        },
        {
          "internalType": "uint256",
          "name": "tokenId",
          "type": "uint256"
        }
      ],
      "name": "approve",
      "outputs": [],
      "stateMutability": "nonpayable",
      "type": "function"
    },
    {
      "inputs": [
        {
          "internalType": "address",
          "name": "owner",
          "type": "address"
        }
      ],
      "name": "balanceOf",
      "outputs": [
        {
          "internalType": "uint256",
          "name": "",
          "type": "uint256"
        }
      ],
      "stateMutability": "view",
      "type": "function"
    },
    {
      "inputs": [
        {
          "internalType": "uint256",
          "name": "tokenId",
          "type": "uint256"
        }
      ],
      "name": "getApproved",
      "outputs": [
        {
          "internalType": "address",
          "name": "",
          "type": "address"
        }
      ],
      "stateMutability": "view",
      "type": "function"
    },
    {
      "inputs": [
        {
          "internalType": "address",
          "name": "owner",
          "type": "address"
        },
        {
          "internalType": "address",
          "name": "operator",
          "type": "address"
        }
      ],
      "name": "isApprovedForAll",
      "outputs": [
        {
          "internalType": "bool",
          "name": "",
          "type": "bool"
        }
      ],
      "stateMutability": "view",
      "type": "function"
    },
    {
      "inputs": [],
      "name": "name",
      "outputs": [
        {
          "internalType": "string",
          "name": "",
          "type": "string"
        }
      ],
      "stateMutability": "view",
      "type": "function"
    },
    {
      "inputs": [
        {
          "internalType": "uint256",
          "name": "tokenId",
          "type": "uint256"
        }
      ],
      "name": "ownerOf",
      "outputs": [
        {
          "internalType": "address",
          "name": "",
          "type": "address"
        }
      ],
      "stateMutability": "view",
      "type": "function"
    },
    {
      "inputs": [
        {
          "internalType": "address",
          "name": "from",
          "type": "address"
        },
        {
          "internalType": "address",
          "name": "to",
          "type": "address"
        },
        {
          "internalType": "uint256",
          "name": "tokenId",
          "type": "uint256"
        }
      ],
      "name": "safeTransferFrom",
      "outputs": [],
      "stateMutability": "nonpayable",
      "type": "function"
    },
    {
      "inputs": [
        {
          "internalType": "address",
          "name": "from",
          "type": "address"
        },
        {
          "internalType": "address",
          "name": "to",
          "type": "address"
        },
        {
          "internalType": "uint256",
          "name": "tokenId",
          "type": "uint256"
        },
        {
          "internalType": "bytes",
          "name": "_data",
          "type": "bytes"
        }
      ],
      "name": "safeTransferFrom",
      "outputs": [],
      "stateMutability": "nonpayable",
      "type": "function"
    },
    {
      "inputs": [
        {
          "internalType": "address",
          "name": "operator",
          "type": "address"
        },
        {
          "internalType": "bool",
          "name": "approved",
          "type": "bool"
        }
      ],
      "name": "setApprovalForAll",
      "outputs": [],
      "stateMutability": "nonpayable",
      "type": "function"
    },
    {
      "inputs": [
        {
          "internalType": "bytes4",
          "name": "interfaceId",
          "type": "bytes4"
        }
      ],
      "name": "supportsInterface",
      "outputs": [
        {
          "internalType": "bool",
          "name": "",
          "type": "bool"
        }
      ],
      "stateMutability": "view",
      "type": "function"
    },
    {
      "inputs": [],
      "name": "symbol",
      "outputs": [
        {
          "internalType": "string",
          "name": "",
          "type": "string"
        }
      ],
      "stateMutability": "view",
      "type": "function"
    },
    {
      "inputs": [
        {
          "internalType": "uint256",
          "name": "tokenId",
          "type": "uint256"
        }
      ],
      "name": "tokenURI",
      "outputs": [
        {
          "internalType": "string",
          "name": "",
          "type": "string"
        }
      ],
      "stateMutability": "view",
      "type": "function"
    },
    {
      "inputs": [
        {
          "internalType": "address",
          "name": "from",
          "type": "address"
        },
        {
          "internalType": "address",
          "name": "to",
          "type": "address"
        },
        {
          "internalType": "uint256",
          "name": "tokenId",
          "type": "uint256"
        }
      ],
      "name": "transferFrom",
      "outputs": [],
      "stateMutability": "nonpayable",
      "type": "function"
    },
    {
      "inputs": [],
      "name": "baseURI",
      "outputs": [
        {
          "internalType": "string",
          "name": "",
          "type": "string"
        }
      ],
      "stateMutability": "view",
      "type": "function"
    },
    {
      "inputs": [
        {
          "internalType": "uint256",
          "name": "tokenId",
          "type": "uint256"
        }
      ],
      "name": "exists",
      "outputs": [
        {
          "internalType": "bool",
          "name": "",
          "type": "bool"
        }
      ],
      "stateMutability": "view",
      "type": "function"
    },
    {
      "inputs": [
        {
          "internalType": "address",
          "name": "to",
          "type": "address"
        },
        {
          "internalType": "uint256",
          "name": "tokenId",
          "type": "uint256"
        }
      ],
      "name": "mint",
      "outputs": [],
      "stateMutability": "nonpayable",
      "type": "function"
    },
    {
      "inputs": [
        {
          "internalType": "address",
          "name": "to",
          "type": "address"
        },
        {
          "internalType": "uint256",
          "name": "tokenId",
          "type": "uint256"
        },
        {
          "internalType": "bytes",
          "name": "_data",
          "type": "bytes"
        }
      ],
      "name": "safeMint",
      "outputs": [],
      "stateMutability": "nonpayable",
      "type": "function"
    },
    {
      "inputs": [
        {
          "internalType": "address",
          "name": "to",
          "type": "address"
        },
        {
          "internalType": "uint256",
          "name": "tokenId",
          "type": "uint256"
        }
      ],
      "name": "safeMint",
      "outputs": [],
      "stateMutability": "nonpayable",
      "type": "function"
    },
    {
      "inputs": [
        {
          "internalType": "uint256",
          "name": "tokenId",
          "type": "uint256"
        }
      ],
      "name": "burn",
      "outputs": [],
      "stateMutability": "nonpayable",
      "type": "function"
    }
  ],
  "bytecode": "0x60806040523480156200001157600080fd5b5060405162002d9038038062002d908339818101604052810190620000379190620002c2565b818181600090805190602001906200005192919062000075565b5080600190805190602001906200006a92919062000075565b5050505050620003ac565b828054620000839062000376565b90600052602060002090601f016020900481019282620000a75760008555620000f3565b82601f10620000c257805160ff1916838001178555620000f3565b82800160010185558215620000f3579182015b82811115620000f2578251825591602001919060010190620000d5565b5b50905062000102919062000106565b5090565b5b808211156200012157600081600090555060010162000107565b5090565b6000604051905090565b600080fd5b600080fd5b600080fd5b600080fd5b6000601f19601f8301169050919050565b7f4e487b7100000000000000000000000000000000000000000000000000000000600052604160045260246000fd5b6200018e8262000143565b810181811067ffffffffffffffff82111715620001b057620001af62000154565b5b80604052505050565b6000620001c562000125565b9050620001d3828262000183565b919050565b600067ffffffffffffffff821115620001f657620001f562000154565b5b620002018262000143565b9050602081019050919050565b60005b838110156200022e57808201518184015260208101905062000211565b838111156200023e576000848401525b50505050565b60006200025b6200025584620001d8565b620001b9565b9050828152602081018484840111156200027a57620002796200013e565b5b620002878482856200020e565b509392505050565b600082601f830112620002a757620002a662000139565b5b8151620002b984826020860162000244565b91505092915050565b60008060408385031215620002dc57620002db6200012f565b5b600083015167ffffffffffffffff811115620002fd57620002fc62000134565b5b6200030b858286016200028f565b925050602083015167ffffffffffffffff8111156200032f576200032e62000134565b5b6200033d858286016200028f565b9150509250929050565b7f4e487b7100000000000000000000000000000000000000000000000000000000600052602260045260246000fd5b600060028204905060018216806200038f57607f821691505b60208210811415620003a657620003a562000347565b5b50919050565b6129d480620003bc6000396000f3fe608060405234801561001057600080fd5b50600436106101215760003560e01c80636352211e116100ad578063a144819411610071578063a144819414610318578063a22cb46514610334578063b88d4fde14610350578063c87b56dd1461036c578063e985e9c51461039c57610121565b80636352211e146102605780636c0360eb1461029057806370a08231146102ae5780638832e6e3146102de57806395d89b41146102fa57610121565b806323b872dd116100f457806323b872dd146101c057806340c10f19146101dc57806342842e0e146101f857806342966c68146102145780634f558e791461023057610121565b806301ffc9a71461012657806306fdde0314610156578063081812fc14610174578063095ea7b3146101a4575b600080fd5b610140600480360381019061013b91906118e8565b6103cc565b60405161014d9190611930565b60405180910390f35b61015e6104ae565b60405161016b91906119e4565b60405180910390f35b61018e60048036038101906101899190611a3c565b610540565b60405161019b9190611aaa565b60405180910390f35b6101be60048036038101906101b99190611af1565b6105c5565b005b6101da60048036038101906101d59190611b31565b6106dd565b005b6101f660048036038101906101f19190611af1565b61073d565b005b610212600480360381019061020d9190611b31565b61074b565b005b61022e60048036038101906102299190611a3c565b61076b565b005b61024a60048036038101906102459190611a3c565b610777565b6040516102579190611930565b60405180910390f35b61027a60048036038101906102759190611a3c565b610789565b6040516102879190611aaa565b60405180910390f35b61029861083b565b6040516102a591906119e4565b60405180910390f35b6102c860048036038101906102c39190611b84565b61084a565b6040516102d59190611bc0565b60405180910390f35b6102f860048036038101906102f39190611d10565b610902565b005b610302610912565b60405161030f91906119e4565b60405180910390f35b610332600480360381019061032d9190611af1565b6109a4565b005b61034e60048036038101906103499190611dab565b6109b2565b005b61036a60048036038101906103659190611deb565b610b33565b005b61038660048036038101906103819190611a3c565b610b95565b60405161039391906119e4565b60405180910390f35b6103b660048036038101906103b19190611e6e565b610c3c565b6040516103c39190611930565b60405180910390f35b60007f80ac58cd000000000000000000000000000000000000000000000000000000007bffffffffffffffffffffffffffffffffffffffffffffffffffffffff1916827bffffffffffffffffffffffffffffffffffffffffffffffffffffffff1916148061049757507f5b5e139f000000000000000000000000000000000000000000000000000000007bffffffffffffffffffffffffffffffffffffffffffffffffffffffff1916827bffffffffffffffffffffffffffffffffffffffffffffffffffffffff1916145b806104a757506104a682610cd0565b5b9050919050565b6060600080546104bd90611edd565b80601f01602080910402602001604051908101604052809291908181526020018280546104e990611edd565b80156105365780601f1061050b57610100808354040283529160200191610536565b820191906000526020600020905b81548152906001019060200180831161051957829003601f168201915b5050505050905090565b600061054b82610d3a565b61058a576040517f08c379a000000000000000000000000000000000000000000000000000000000815260040161058190611f81565b60405180910390fd5b6004600083815260200190815260200160002060009054906101000a900473ffffffffffffffffffffffffffffffffffffffff169050919050565b60006105d082610789565b90508073ffffffffffffffffffffffffffffffffffffffff168373ffffffffffffffffffffffffffffffffffffffff161415610641576040517f08c379a000000000000000000000000000000000000000000000000000000000815260040161063890612013565b60405180910390fd5b8073ffffffffffffffffffffffffffffffffffffffff16610660610da6565b73ffffffffffffffffffffffffffffffffffffffff16148061068f575061068e81610689610da6565b610c3c565b5b6106ce576040517f08c379a00000000000000000000000000000000000000000000000000000000081526004016106c5906120a5565b60405180910390fd5b6106d88383610dae565b505050565b6106ee6106e8610da6565b82610e67565b61072d576040517f08c379a000000000000000000000000000000000000000000000000000000000815260040161072490612137565b60405180910390fd5b610738838383610f45565b505050565b61074782826111a1565b5050565b61076683838360405180602001604052806000815250610b33565b505050565b6107748161136f565b50565b600061078282610d3a565b9050919050565b6000806002600084815260200190815260200160002060009054906101000a900473ffffffffffffffffffffffffffffffffffffffff169050600073ffffffffffffffffffffffffffffffffffffffff168173ffffffffffffffffffffffffffffffffffffffff161415610832576040517f08c379a0000000000000000000000000000000000000000000000000000000008152600401610829906121c9565b60405180910390fd5b80915050919050565b6060610845611480565b905090565b60008073ffffffffffffffffffffffffffffffffffffffff168273ffffffffffffffffffffffffffffffffffffffff1614156108bb576040517f08c379a00000000000000000000000000000000000000000000000000000000081526004016108b29061225b565b60405180910390fd5b600360008373ffffffffffffffffffffffffffffffffffffffff1673ffffffffffffffffffffffffffffffffffffffff168152602001908152602001600020549050919050565b61090d838383611497565b505050565b60606001805461092190611edd565b80601f016020809104026020016040519081016040528092919081815260200182805461094d90611edd565b801561099a5780601f1061096f5761010080835404028352916020019161099a565b820191906000526020600020905b81548152906001019060200180831161097d57829003601f168201915b5050505050905090565b6109ae82826114f2565b5050565b6109ba610da6565b73ffffffffffffffffffffffffffffffffffffffff168273ffffffffffffffffffffffffffffffffffffffff161415610a28576040517f08c379a0000000000000000000000000000000000000000000000000000000008152600401610a1f906122c7565b60405180910390fd5b8060056000610a35610da6565b73ffffffffffffffffffffffffffffffffffffffff1673ffffffffffffffffffffffffffffffffffffffff16815260200190815260200160002060008473ffffffffffffffffffffffffffffffffffffffff1673ffffffffffffffffffffffffffffffffffffffff16815260200190815260200160002060006101000a81548160ff0219169083151502179055508173ffffffffffffffffffffffffffffffffffffffff16610ae2610da6565b73ffffffffffffffffffffffffffffffffffffffff167f17307eab39ab6107e8899845ad3d59bd9653f200f220920489ca2b5937696c3183604051610b279190611930565b60405180910390a35050565b610b44610b3e610da6565b83610e67565b610b83576040517f08c379a0000000000000000000000000000000000000000000000000000000008152600401610b7a90612137565b60405180910390fd5b610b8f84848484611510565b50505050565b6060610ba082610d3a565b610bdf576040517f08c379a0000000000000000000000000000000000000000000000000000000008152600401610bd690612359565b60405180910390fd5b6000610be9611480565b90506000815111610c095760405180602001604052806000815250610c34565b80610c138461156c565b604051602001610c249291906123b5565b6040516020818303038152906040525b915050919050565b6000600560008473ffffffffffffffffffffffffffffffffffffffff1673ffffffffffffffffffffffffffffffffffffffff16815260200190815260200160002060008373ffffffffffffffffffffffffffffffffffffffff1673ffffffffffffffffffffffffffffffffffffffff16815260200190815260200160002060009054906101000a900460ff16905092915050565b60007f01ffc9a7000000000000000000000000000000000000000000000000000000007bffffffffffffffffffffffffffffffffffffffffffffffffffffffff1916827bffffffffffffffffffffffffffffffffffffffffffffffffffffffff1916149050919050565b60008073ffffffffffffffffffffffffffffffffffffffff166002600084815260200190815260200160002060009054906101000a900473ffffffffffffffffffffffffffffffffffffffff1673ffffffffffffffffffffffffffffffffffffffff1614159050919050565b600033905090565b816004600083815260200190815260200160002060006101000a81548173ffffffffffffffffffffffffffffffffffffffff021916908373ffffffffffffffffffffffffffffffffffffffff160217905550808273ffffffffffffffffffffffffffffffffffffffff16610e2183610789565b73ffffffffffffffffffffffffffffffffffffffff167f8c5be1e5ebec7d5bd14f71427d1e84f3dd0314c0f7b2291e5b200ac8c7c3b92560405160405180910390a45050565b6000610e7282610d3a565b610eb1576040517f08c379a0000000000000000000000000000000000000000000000000000000008152600401610ea89061244b565b60405180910390fd5b6000610ebc83610789565b90508073ffffffffffffffffffffffffffffffffffffffff168473ffffffffffffffffffffffffffffffffffffffff161480610f2b57508373ffffffffffffffffffffffffffffffffffffffff16610f1384610540565b73ffffffffffffffffffffffffffffffffffffffff16145b80610f3c5750610f3b8185610c3c565b5b91505092915050565b8273ffffffffffffffffffffffffffffffffffffffff16610f6582610789565b73ffffffffffffffffffffffffffffffffffffffff1614610fbb576040517f08c379a0000000000000000000000000000000000000000000000000000000008152600401610fb2906124dd565b60405180910390fd5b600073ffffffffffffffffffffffffffffffffffffffff168273ffffffffffffffffffffffffffffffffffffffff16141561102b576040517f08c379a00000000000000000000000000000000000000000000000000000000081526004016110229061256f565b60405180910390fd5b6110368383836116cd565b611041600082610dae565b6001600360008573ffffffffffffffffffffffffffffffffffffffff1673ffffffffffffffffffffffffffffffffffffffff168152602001908152602001600020600082825461109191906125be565b925050819055506001600360008473ffffffffffffffffffffffffffffffffffffffff1673ffffffffffffffffffffffffffffffffffffffff16815260200190815260200160002060008282546110e891906125f2565b92505081905550816002600083815260200190815260200160002060006101000a81548173ffffffffffffffffffffffffffffffffffffffff021916908373ffffffffffffffffffffffffffffffffffffffff160217905550808273ffffffffffffffffffffffffffffffffffffffff168473ffffffffffffffffffffffffffffffffffffffff167fddf252ad1be2c89b69c2b068fc378daa952ba7f163c4a11628f55a4df523b3ef60405160405180910390a4505050565b600073ffffffffffffffffffffffffffffffffffffffff168273ffffffffffffffffffffffffffffffffffffffff161415611211576040517f08c379a000000000000000000000000000000000000000000000000000000000815260040161120890612694565b60405180910390fd5b61121a81610d3a565b1561125a576040517f08c379a000000000000000000000000000000000000000000000000000000000815260040161125190612700565b60405180910390fd5b611266600083836116cd565b6001600360008473ffffffffffffffffffffffffffffffffffffffff1673ffffffffffffffffffffffffffffffffffffffff16815260200190815260200160002060008282546112b691906125f2565b92505081905550816002600083815260200190815260200160002060006101000a81548173ffffffffffffffffffffffffffffffffffffffff021916908373ffffffffffffffffffffffffffffffffffffffff160217905550808273ffffffffffffffffffffffffffffffffffffffff16600073ffffffffffffffffffffffffffffffffffffffff167fddf252ad1be2c89b69c2b068fc378daa952ba7f163c4a11628f55a4df523b3ef60405160405180910390a45050565b600061137a82610789565b9050611388816000846116cd565b611393600083610dae565b6001600360008373ffffffffffffffffffffffffffffffffffffffff1673ffffffffffffffffffffffffffffffffffffffff16815260200190815260200160002060008282546113e391906125be565b925050819055506002600083815260200190815260200160002060006101000a81549073ffffffffffffffffffffffffffffffffffffffff021916905581600073ffffffffffffffffffffffffffffffffffffffff168273ffffffffffffffffffffffffffffffffffffffff167fddf252ad1be2c89b69c2b068fc378daa952ba7f163c4a11628f55a4df523b3ef60405160405180910390a45050565b606060405180602001604052806000815250905090565b6114a183836111a1565b6114ae60008484846116d2565b6114ed576040517f08c379a00000000000000000000000000000000000000000000000000000000081526004016114e490612792565b60405180910390fd5b505050565b61150c828260405180602001604052806000815250611497565b5050565b61151b848484610f45565b611527848484846116d2565b611566576040517f08c379a000000000000000000000000000000000000000000000000000000000815260040161155d90612792565b60405180910390fd5b50505050565b606060008214156115b4576040518060400160405280600181526020017f300000000000000000000000000000000000000000000000000000000000000081525090506116c8565b600082905060005b600082146115e65780806115cf906127b2565b915050600a826115df919061282a565b91506115bc565b60008167ffffffffffffffff81111561160257611601611be5565b5b6040519080825280601f01601f1916602001820160405280156116345781602001600182028036833780820191505090505b5090505b600085146116c15760018261164d91906125be565b9150600a8561165c919061285b565b603061166891906125f2565b60f81b81838151811061167e5761167d61288c565b5b60200101907effffffffffffffffffffffffffffffffffffffffffffffffffffffffffffff1916908160001a905350600a856116ba919061282a565b9450611638565b8093505050505b919050565b505050565b60006116f38473ffffffffffffffffffffffffffffffffffffffff16611869565b1561185c578373ffffffffffffffffffffffffffffffffffffffff1663150b7a0261171c610da6565b8786866040518563ffffffff1660e01b815260040161173e9493929190612910565b602060405180830381600087803b15801561175857600080fd5b505af192505050801561178957506040513d601f19601f820116820180604052508101906117869190612971565b60015b61180c573d80600081146117b9576040519150601f19603f3d011682016040523d82523d6000602084013e6117be565b606091505b50600081511415611804576040517f08c379a00000000000000000000000000000000000000000000000000000000081526004016117fb90612792565b60405180910390fd5b805181602001fd5b63150b7a0260e01b7bffffffffffffffffffffffffffffffffffffffffffffffffffffffff1916817bffffffffffffffffffffffffffffffffffffffffffffffffffffffff191614915050611861565b600190505b949350505050565b600080823b905060008111915050919050565b6000604051905090565b600080fd5b600080fd5b60007fffffffff0000000000000000000000000000000000000000000000000000000082169050919050565b6118c581611890565b81146118d057600080fd5b50565b6000813590506118e2816118bc565b92915050565b6000602082840312156118fe576118fd611886565b5b600061190c848285016118d3565b91505092915050565b60008115159050919050565b61192a81611915565b82525050565b60006020820190506119456000830184611921565b92915050565b600081519050919050565b600082825260208201905092915050565b60005b8381101561198557808201518184015260208101905061196a565b83811115611994576000848401525b50505050565b6000601f19601f8301169050919050565b60006119b68261194b565b6119c08185611956565b93506119d0818560208601611967565b6119d98161199a565b840191505092915050565b600060208201905081810360008301526119fe81846119ab565b905092915050565b6000819050919050565b611a1981611a06565b8114611a2457600080fd5b50565b600081359050611a3681611a10565b92915050565b600060208284031215611a5257611a51611886565b5b6000611a6084828501611a27565b91505092915050565b600073ffffffffffffffffffffffffffffffffffffffff82169050919050565b6000611a9482611a69565b9050919050565b611aa481611a89565b82525050565b6000602082019050611abf6000830184611a9b565b92915050565b611ace81611a89565b8114611ad957600080fd5b50565b600081359050611aeb81611ac5565b92915050565b60008060408385031215611b0857611b07611886565b5b6000611b1685828601611adc565b9250506020611b2785828601611a27565b9150509250929050565b600080600060608486031215611b4a57611b49611886565b5b6000611b5886828701611adc565b9350506020611b6986828701611adc565b9250506040611b7a86828701611a27565b9150509250925092565b600060208284031215611b9a57611b99611886565b5b6000611ba884828501611adc565b91505092915050565b611bba81611a06565b82525050565b6000602082019050611bd56000830184611bb1565b92915050565b600080fd5b600080fd5b7f4e487b7100000000000000000000000000000000000000000000000000000000600052604160045260246000fd5b611c1d8261199a565b810181811067ffffffffffffffff82111715611c3c57611c3b611be5565b5b80604052505050565b6000611c4f61187c565b9050611c5b8282611c14565b919050565b600067ffffffffffffffff821115611c7b57611c7a611be5565b5b611c848261199a565b9050602081019050919050565b82818337600083830152505050565b6000611cb3611cae84611c60565b611c45565b905082815260208101848484011115611ccf57611cce611be0565b5b611cda848285611c91565b509392505050565b600082601f830112611cf757611cf6611bdb565b5b8135611d07848260208601611ca0565b91505092915050565b600080600060608486031215611d2957611d28611886565b5b6000611d3786828701611adc565b9350506020611d4886828701611a27565b925050604084013567ffffffffffffffff811115611d6957611d6861188b565b5b611d7586828701611ce2565b9150509250925092565b611d8881611915565b8114611d9357600080fd5b50565b600081359050611da581611d7f565b92915050565b60008060408385031215611dc257611dc1611886565b5b6000611dd085828601611adc565b9250506020611de185828601611d96565b9150509250929050565b60008060008060808587031215611e0557611e04611886565b5b6000611e1387828801611adc565b9450506020611e2487828801611adc565b9350506040611e3587828801611a27565b925050606085013567ffffffffffffffff811115611e5657611e5561188b565b5b611e6287828801611ce2565b91505092959194509250565b60008060408385031215611e8557611e84611886565b5b6000611e9385828601611adc565b9250506020611ea485828601611adc565b9150509250929050565b7f4e487b7100000000000000000000000000000000000000000000000000000000600052602260045260246000fd5b60006002820490506001821680611ef557607f821691505b60208210811415611f0957611f08611eae565b5b50919050565b7f4552433732313a20617070726f76656420717565727920666f72206e6f6e657860008201527f697374656e7420746f6b656e0000000000000000000000000000000000000000602082015250565b6000611f6b602c83611956565b9150611f7682611f0f565b604082019050919050565b60006020820190508181036000830152611f9a81611f5e565b9050919050565b7f4552433732313a20617070726f76616c20746f2063757272656e74206f776e6560008201527f7200000000000000000000000000000000000000000000000000000000000000602082015250565b6000611ffd602183611956565b915061200882611fa1565b604082019050919050565b6000602082019050818103600083015261202c81611ff0565b9050919050565b7f4552433732313a20617070726f76652063616c6c6572206973206e6f74206f7760008201527f6e6572206e6f7220617070726f76656420666f7220616c6c0000000000000000602082015250565b600061208f603883611956565b915061209a82612033565b604082019050919050565b600060208201905081810360008301526120be81612082565b9050919050565b7f4552433732313a207472616e736665722063616c6c6572206973206e6f74206f60008201527f776e6572206e6f7220617070726f766564000000000000000000000000000000602082015250565b6000612121603183611956565b915061212c826120c5565b604082019050919050565b6000602082019050818103600083015261215081612114565b9050919050565b7f4552433732313a206f776e657220717565727920666f72206e6f6e657869737460008201527f656e7420746f6b656e0000000000000000000000000000000000000000000000602082015250565b60006121b3602983611956565b91506121be82612157565b604082019050919050565b600060208201905081810360008301526121e2816121a6565b9050919050565b7f4552433732313a2062616c616e636520717565727920666f7220746865207a6560008201527f726f206164647265737300000000000000000000000000000000000000000000602082015250565b6000612245602a83611956565b9150612250826121e9565b604082019050919050565b6000602082019050818103600083015261227481612238565b9050919050565b7f4552433732313a20617070726f766520746f2063616c6c657200000000000000600082015250565b60006122b1601983611956565b91506122bc8261227b565b602082019050919050565b600060208201905081810360008301526122e0816122a4565b9050919050565b7f4552433732314d657461646174613a2055524920717565727920666f72206e6f60008201527f6e6578697374656e7420746f6b656e0000000000000000000000000000000000602082015250565b6000612343602f83611956565b915061234e826122e7565b604082019050919050565b6000602082019050818103600083015261237281612336565b9050919050565b600081905092915050565b600061238f8261194b565b6123998185612379565b93506123a9818560208601611967565b80840191505092915050565b60006123c18285612384565b91506123cd8284612384565b91508190509392505050565b7f4552433732313a206f70657261746f7220717565727920666f72206e6f6e657860008201527f697374656e7420746f6b656e0000000000000000000000000000000000000000602082015250565b6000612435602c83611956565b9150612440826123d9565b604082019050919050565b6000602082019050818103600083015261246481612428565b9050919050565b7f4552433732313a207472616e73666572206f6620746f6b656e2074686174206960008201527f73206e6f74206f776e0000000000000000000000000000000000000000000000602082015250565b60006124c7602983611956565b91506124d28261246b565b604082019050919050565b600060208201905081810360008301526124f6816124ba565b9050919050565b7f4552433732313a207472616e7366657220746f20746865207a65726f2061646460008201527f7265737300000000000000000000000000000000000000000000000000000000602082015250565b6000612559602483611956565b9150612564826124fd565b604082019050919050565b600060208201905081810360008301526125888161254c565b9050919050565b7f4e487b7100000000000000000000000000000000000000000000000000000000600052601160045260246000fd5b60006125c982611a06565b91506125d483611a06565b9250828210156125e7576125e661258f565b5b828203905092915050565b60006125fd82611a06565b915061260883611a06565b9250827fffffffffffffffffffffffffffffffffffffffffffffffffffffffffffffffff0382111561263d5761263c61258f565b5b828201905092915050565b7f4552433732313a206d696e7420746f20746865207a65726f2061646472657373600082015250565b600061267e602083611956565b915061268982612648565b602082019050919050565b600060208201905081810360008301526126ad81612671565b9050919050565b7f4552433732313a20746f6b656e20616c7265616479206d696e74656400000000600082015250565b60006126ea601c83611956565b91506126f5826126b4565b602082019050919050565b60006020820190508181036000830152612719816126dd565b9050919050565b7f4552433732313a207472616e7366657220746f206e6f6e20455243373231526560008201527f63656976657220696d706c656d656e7465720000000000000000000000000000602082015250565b600061277c603283611956565b915061278782612720565b604082019050919050565b600060208201905081810360008301526127ab8161276f565b9050919050565b60006127bd82611a06565b91507fffffffffffffffffffffffffffffffffffffffffffffffffffffffffffffffff8214156127f0576127ef61258f565b5b600182019050919050565b7f4e487b7100000000000000000000000000000000000000000000000000000000600052601260045260246000fd5b600061283582611a06565b915061284083611a06565b9250826128505761284f6127fb565b5b828204905092915050565b600061286682611a06565b915061287183611a06565b925082612881576128806127fb565b5b828206905092915050565b7f4e487b7100000000000000000000000000000000000000000000000000000000600052603260045260246000fd5b600081519050919050565b600082825260208201905092915050565b60006128e2826128bb565b6128ec81856128c6565b93506128fc818560208601611967565b6129058161199a565b840191505092915050565b60006080820190506129256000830187611a9b565b6129326020830186611a9b565b61293f6040830185611bb1565b818103606083015261295181846128d7565b905095945050505050565b60008151905061296b816118bc565b92915050565b60006020828403121561298757612986611886565b5b60006129958482850161295c565b9150509291505056fea264697066735822122009c356a7f403d3041f527101e6825de8c2fe37f2d1588ddbbc573df50f2df3f464736f6c63430008090033",
  "immutableReferences": {},
  "source": "// SPDX-License-Identifier: MIT\r\n\r\npragma solidity ^0.8.0;\r\n\r\nimport \"../token/ERC721/ERC721.sol\";\r\n\r\n/**\r\n * @title ERC721Mock\r\n * This mock just provides a public safeMint, mint, and burn functions for testing purposes\r\n */\r\ncontract ERC721Mock is ERC721 {\r\n    constructor(string memory name, string memory symbol) ERC721(name, symbol) {}\r\n\r\n    function baseURI() public view returns (string memory) {\r\n        return _baseURI();\r\n    }\r\n\r\n    function exists(uint256 tokenId) public view returns (bool) {\r\n        return _exists(tokenId);\r\n    }\r\n\r\n    function mint(address to, uint256 tokenId) public {\r\n        _mint(to, tokenId);\r\n    }\r\n\r\n    function safeMint(address to, uint256 tokenId) public {\r\n        _safeMint(to, tokenId);\r\n    }\r\n\r\n    function safeMint(\r\n        address to,\r\n        uint256 tokenId,\r\n        bytes memory _data\r\n    ) public {\r\n        _safeMint(to, tokenId, _data);\r\n    }\r\n\r\n    function burn(uint256 tokenId) public {\r\n        _burn(tokenId);\r\n    }\r\n}\r\n",
  "sourcePath": "C:\\Climax\\NFT-marketplace\\contracts\\openzeppelin-solidity\\contracts\\mocks\\ERC721Mock.sol",
  "compiler": {
    "name": "solc",
    "version": "0.8.9+commit.e5eed63a.Emscripten.clang"
  },
  "schemaVersion": "3.4.3",
  "updatedAt": "2021-10-26T11:45:25.631Z",
  "devdoc": {
    "kind": "dev",
    "methods": {
      "approve(address,uint256)": {
        "details": "See {IERC721-approve}."
      },
      "balanceOf(address)": {
        "details": "See {IERC721-balanceOf}."
      },
      "getApproved(uint256)": {
        "details": "See {IERC721-getApproved}."
      },
      "isApprovedForAll(address,address)": {
        "details": "See {IERC721-isApprovedForAll}."
      },
      "name()": {
        "details": "See {IERC721Metadata-name}."
      },
      "ownerOf(uint256)": {
        "details": "See {IERC721-ownerOf}."
      },
      "safeTransferFrom(address,address,uint256)": {
        "details": "See {IERC721-safeTransferFrom}."
      },
      "safeTransferFrom(address,address,uint256,bytes)": {
        "details": "See {IERC721-safeTransferFrom}."
      },
      "setApprovalForAll(address,bool)": {
        "details": "See {IERC721-setApprovalForAll}."
      },
      "supportsInterface(bytes4)": {
        "details": "See {IERC165-supportsInterface}."
      },
      "symbol()": {
        "details": "See {IERC721Metadata-symbol}."
      },
      "tokenURI(uint256)": {
        "details": "See {IERC721Metadata-tokenURI}."
      },
      "transferFrom(address,address,uint256)": {
        "details": "See {IERC721-transferFrom}."
      }
    },
    "title": "ERC721Mock This mock just provides a public safeMint, mint, and burn functions for testing purposes",
    "version": 1
  },
  "userdoc": {
    "kind": "user",
    "methods": {},
    "version": 1
  }
}