{
  "contractName": "EtherReceiverMock",
  "abi": [
    {
      "stateMutability": "payable",
      "type": "receive"
    },
    {
      "inputs": [
        {
          "internalType": "bool",
          "name": "acceptEther",
          "type": "bool"
        }
      ],
      "name": "setAcceptEther",
      "outputs": [],
      "stateMutability": "nonpayable",
      "type": "function"
    }
  ],
  "bytecode": "0x608060405234801561001057600080fd5b50610116806100206000396000f3fe608060405260043610601f5760003560e01c80634fea120c14604057603b565b36603b5760008054906101000a900460ff16603957600080fd5b005b600080fd5b348015604b57600080fd5b5060626004803603810190605e919060b8565b6064565b005b806000806101000a81548160ff02191690831515021790555050565b600080fd5b60008115159050919050565b6098816085565b811460a257600080fd5b50565b60008135905060b2816091565b92915050565b60006020828403121560cb5760ca6080565b5b600060d78482850160a5565b9150509291505056fea2646970667358221220aa5d1ce76bf03cc05a215b1d5f0e267d4677a155b5fad239668c2069f230ae9064736f6c63430008090033",
  "immutableReferences": {},
  "source": "// SPDX-License-Identifier: MIT\r\n\r\npragma solidity ^0.8.0;\r\n\r\ncontract EtherReceiverMock {\r\n    bool private _acceptEther;\r\n\r\n    function setAcceptEther(bool acceptEther) public {\r\n        _acceptEther = acceptEther;\r\n    }\r\n\r\n    receive() external payable {\r\n        if (!_acceptEther) {\r\n            revert();\r\n        }\r\n    }\r\n}\r\n",
  "sourcePath": "C:\\Climax\\NFT-marketplace\\contracts\\openzeppelin-solidity\\contracts\\mocks\\EtherReceiverMock.sol",
  "compiler": {
    "name": "solc",
    "version": "0.8.9+commit.e5eed63a.Emscripten.clang"
  },
  "schemaVersion": "3.4.3",
  "updatedAt": "2021-10-26T11:45:25.720Z",
  "devdoc": {
    "kind": "dev",
    "methods": {},
    "version": 1
  },
  "userdoc": {
    "kind": "user",
    "methods": {},
    "version": 1
  }
}