{
  "contractName": "GovernorCompatibilityBravoMock",
  "abi": [
    {
      "inputs": [
        {
          "internalType": "string",
          "name": "name_",
          "type": "string"
        },
        {
          "internalType": "contract ERC20VotesComp",
          "name": "token_",
          "type": "address"
        },
        {
          "internalType": "uint256",
          "name": "votingDelay_",
          "type": "uint256"
        },
        {
          "internalType": "uint256",
          "name": "votingPeriod_",
          "type": "uint256"
        },
        {
          "internalType": "uint256",
          "name": "proposalThreshold_",
          "type": "uint256"
        },
        {
          "internalType": "contract ICompoundTimelock",
          "name": "timelock_",
          "type": "address"
        }
      ],
      "stateMutability": "nonpayable",
      "type": "constructor"
    },
    {
      "anonymous": false,
      "inputs": [
        {
          "indexed": false,
          "internalType": "uint256",
          "name": "proposalId",
          "type": "uint256"
        }
      ],
      "name": "ProposalCanceled",
      "type": "event"
    },
    {
      "anonymous": false,
      "inputs": [
        {
          "indexed": false,
          "internalType": "uint256",
          "name": "proposalId",
          "type": "uint256"
        },
        {
          "indexed": false,
          "internalType": "address",
          "name": "proposer",
          "type": "address"
        },
        {
          "indexed": false,
          "internalType": "address[]",
          "name": "targets",
          "type": "address[]"
        },
        {
          "indexed": false,
          "internalType": "uint256[]",
          "name": "values",
          "type": "uint256[]"
        },
        {
          "indexed": false,
          "internalType": "string[]",
          "name": "signatures",
          "type": "string[]"
        },
        {
          "indexed": false,
          "internalType": "bytes[]",
          "name": "calldatas",
          "type": "bytes[]"
        },
        {
          "indexed": false,
          "internalType": "uint256",
          "name": "startBlock",
          "type": "uint256"
        },
        {
          "indexed": false,
          "internalType": "uint256",
          "name": "endBlock",
          "type": "uint256"
        },
        {
          "indexed": false,
          "internalType": "string",
          "name": "description",
          "type": "string"
        }
      ],
      "name": "ProposalCreated",
      "type": "event"
    },
    {
      "anonymous": false,
      "inputs": [
        {
          "indexed": false,
          "internalType": "uint256",
          "name": "proposalId",
          "type": "uint256"
        }
      ],
      "name": "ProposalExecuted",
      "type": "event"
    },
    {
      "anonymous": false,
      "inputs": [
        {
          "indexed": false,
          "internalType": "uint256",
          "name": "proposalId",
          "type": "uint256"
        },
        {
          "indexed": false,
          "internalType": "uint256",
          "name": "eta",
          "type": "uint256"
        }
      ],
      "name": "ProposalQueued",
      "type": "event"
    },
    {
      "anonymous": false,
      "inputs": [
        {
          "indexed": false,
          "internalType": "address",
          "name": "oldTimelock",
          "type": "address"
        },
        {
          "indexed": false,
          "internalType": "address",
          "name": "newTimelock",
          "type": "address"
        }
      ],
      "name": "TimelockChange",
      "type": "event"
    },
    {
      "anonymous": false,
      "inputs": [
        {
          "indexed": true,
          "internalType": "address",
          "name": "voter",
          "type": "address"
        },
        {
          "indexed": false,
          "internalType": "uint256",
          "name": "proposalId",
          "type": "uint256"
        },
        {
          "indexed": false,
          "internalType": "uint8",
          "name": "support",
          "type": "uint8"
        },
        {
          "indexed": false,
          "internalType": "uint256",
          "name": "weight",
          "type": "uint256"
        },
        {
          "indexed": false,
          "internalType": "string",
          "name": "reason",
          "type": "string"
        }
      ],
      "name": "VoteCast",
      "type": "event"
    },
    {
      "inputs": [],
      "name": "BALLOT_TYPEHASH",
      "outputs": [
        {
          "internalType": "bytes32",
          "name": "",
          "type": "bytes32"
        }
      ],
      "stateMutability": "view",
      "type": "function"
    },
    {
      "inputs": [],
      "name": "COUNTING_MODE",
      "outputs": [
        {
          "internalType": "string",
          "name": "",
          "type": "string"
        }
      ],
      "stateMutability": "pure",
      "type": "function"
    },
    {
      "inputs": [],
      "name": "__acceptAdmin",
      "outputs": [],
      "stateMutability": "nonpayable",
      "type": "function"
    },
    {
      "inputs": [
        {
          "internalType": "uint256",
          "name": "proposalId",
          "type": "uint256"
        },
        {
          "internalType": "uint8",
          "name": "support",
          "type": "uint8"
        }
      ],
      "name": "castVote",
      "outputs": [
        {
          "internalType": "uint256",
          "name": "",
          "type": "uint256"
        }
      ],
      "stateMutability": "nonpayable",
      "type": "function"
    },
    {
      "inputs": [
        {
          "internalType": "uint256",
          "name": "proposalId",
          "type": "uint256"
        },
        {
          "internalType": "uint8",
          "name": "support",
          "type": "uint8"
        },
        {
          "internalType": "uint8",
          "name": "v",
          "type": "uint8"
        },
        {
          "internalType": "bytes32",
          "name": "r",
          "type": "bytes32"
        },
        {
          "internalType": "bytes32",
          "name": "s",
          "type": "bytes32"
        }
      ],
      "name": "castVoteBySig",
      "outputs": [
        {
          "internalType": "uint256",
          "name": "",
          "type": "uint256"
        }
      ],
      "stateMutability": "nonpayable",
      "type": "function"
    },
    {
      "inputs": [
        {
          "internalType": "uint256",
          "name": "proposalId",
          "type": "uint256"
        },
        {
          "internalType": "uint8",
          "name": "support",
          "type": "uint8"
        },
        {
          "internalType": "string",
          "name": "reason",
          "type": "string"
        }
      ],
      "name": "castVoteWithReason",
      "outputs": [
        {
          "internalType": "uint256",
          "name": "",
          "type": "uint256"
        }
      ],
      "stateMutability": "nonpayable",
      "type": "function"
    },
    {
      "inputs": [
        {
          "internalType": "uint256",
          "name": "proposalId",
          "type": "uint256"
        }
      ],
      "name": "getActions",
      "outputs": [
        {
          "internalType": "address[]",
          "name": "targets",
          "type": "address[]"
        },
        {
          "internalType": "uint256[]",
          "name": "values",
          "type": "uint256[]"
        },
        {
          "internalType": "string[]",
          "name": "signatures",
          "type": "string[]"
        },
        {
          "internalType": "bytes[]",
          "name": "calldatas",
          "type": "bytes[]"
        }
      ],
      "stateMutability": "view",
      "type": "function"
    },
    {
      "inputs": [
        {
          "internalType": "uint256",
          "name": "proposalId",
          "type": "uint256"
        },
        {
          "internalType": "address",
          "name": "voter",
          "type": "address"
        }
      ],
      "name": "getReceipt",
      "outputs": [
        {
          "components": [
            {
              "internalType": "bool",
              "name": "hasVoted",
              "type": "bool"
            },
            {
              "internalType": "uint8",
              "name": "support",
              "type": "uint8"
            },
            {
              "internalType": "uint96",
              "name": "votes",
              "type": "uint96"
            }
          ],
          "internalType": "struct IGovernorCompatibilityBravo.Receipt",
          "name": "",
          "type": "tuple"
        }
      ],
      "stateMutability": "view",
      "type": "function"
    },
    {
      "inputs": [
        {
          "internalType": "uint256",
          "name": "proposalId",
          "type": "uint256"
        },
        {
          "internalType": "address",
          "name": "account",
          "type": "address"
        }
      ],
      "name": "hasVoted",
      "outputs": [
        {
          "internalType": "bool",
          "name": "",
          "type": "bool"
        }
      ],
      "stateMutability": "view",
      "type": "function"
    },
    {
      "inputs": [
        {
          "internalType": "address[]",
          "name": "targets",
          "type": "address[]"
        },
        {
          "internalType": "uint256[]",
          "name": "values",
          "type": "uint256[]"
        },
        {
          "internalType": "bytes[]",
          "name": "calldatas",
          "type": "bytes[]"
        },
        {
          "internalType": "bytes32",
          "name": "descriptionHash",
          "type": "bytes32"
        }
      ],
      "name": "hashProposal",
      "outputs": [
        {
          "internalType": "uint256",
          "name": "",
          "type": "uint256"
        }
      ],
      "stateMutability": "pure",
      "type": "function"
    },
    {
      "inputs": [],
      "name": "name",
      "outputs": [
        {
          "internalType": "string",
          "name": "",
          "type": "string"
        }
      ],
      "stateMutability": "view",
      "type": "function"
    },
    {
      "inputs": [
        {
          "internalType": "uint256",
          "name": "proposalId",
          "type": "uint256"
        }
      ],
      "name": "proposalDeadline",
      "outputs": [
        {
          "internalType": "uint256",
          "name": "",
          "type": "uint256"
        }
      ],
      "stateMutability": "view",
      "type": "function"
    },
    {
      "inputs": [
        {
          "internalType": "uint256",
          "name": "proposalId",
          "type": "uint256"
        }
      ],
      "name": "proposalSnapshot",
      "outputs": [
        {
          "internalType": "uint256",
          "name": "",
          "type": "uint256"
        }
      ],
      "stateMutability": "view",
      "type": "function"
    },
    {
      "inputs": [
        {
          "internalType": "uint256",
          "name": "proposalId",
          "type": "uint256"
        }
      ],
      "name": "proposals",
      "outputs": [
        {
          "internalType": "uint256",
          "name": "id",
          "type": "uint256"
        },
        {
          "internalType": "address",
          "name": "proposer",
          "type": "address"
        },
        {
          "internalType": "uint256",
          "name": "eta",
          "type": "uint256"
        },
        {
          "internalType": "uint256",
          "name": "startBlock",
          "type": "uint256"
        },
        {
          "internalType": "uint256",
          "name": "endBlock",
          "type": "uint256"
        },
        {
          "internalType": "uint256",
          "name": "forVotes",
          "type": "uint256"
        },
        {
          "internalType": "uint256",
          "name": "againstVotes",
          "type": "uint256"
        },
        {
          "internalType": "uint256",
          "name": "abstainVotes",
          "type": "uint256"
        },
        {
          "internalType": "bool",
          "name": "canceled",
          "type": "bool"
        },
        {
          "internalType": "bool",
          "name": "executed",
          "type": "bool"
        }
      ],
      "stateMutability": "view",
      "type": "function"
    },
    {
      "inputs": [],
      "name": "quorumVotes",
      "outputs": [
        {
          "internalType": "uint256",
          "name": "",
          "type": "uint256"
        }
      ],
      "stateMutability": "view",
      "type": "function"
    },
    {
      "inputs": [],
      "name": "timelock",
      "outputs": [
        {
          "internalType": "address",
          "name": "",
          "type": "address"
        }
      ],
      "stateMutability": "view",
      "type": "function"
    },
    {
      "inputs": [],
      "name": "token",
      "outputs": [
        {
          "internalType": "contract ERC20VotesComp",
          "name": "",
          "type": "address"
        }
      ],
      "stateMutability": "view",
      "type": "function"
    },
    {
      "inputs": [
        {
          "internalType": "contract ICompoundTimelock",
          "name": "newTimelock",
          "type": "address"
        }
      ],
      "name": "updateTimelock",
      "outputs": [],
      "stateMutability": "nonpayable",
      "type": "function"
    },
    {
      "inputs": [],
      "name": "version",
      "outputs": [
        {
          "internalType": "string",
          "name": "",
          "type": "string"
        }
      ],
      "stateMutability": "view",
      "type": "function"
    },
    {
      "stateMutability": "payable",
      "type": "receive"
    },
    {
      "inputs": [
        {
          "internalType": "bytes4",
          "name": "interfaceId",
          "type": "bytes4"
        }
      ],
      "name": "supportsInterface",
      "outputs": [
        {
          "internalType": "bool",
          "name": "",
          "type": "bool"
        }
      ],
      "stateMutability": "view",
      "type": "function"
    },
    {
      "inputs": [],
      "name": "votingDelay",
      "outputs": [
        {
          "internalType": "uint256",
          "name": "",
          "type": "uint256"
        }
      ],
      "stateMutability": "view",
      "type": "function"
    },
    {
      "inputs": [],
      "name": "votingPeriod",
      "outputs": [
        {
          "internalType": "uint256",
          "name": "",
          "type": "uint256"
        }
      ],
      "stateMutability": "view",
      "type": "function"
    },
    {
      "inputs": [],
      "name": "proposalThreshold",
      "outputs": [
        {
          "internalType": "uint256",
          "name": "",
          "type": "uint256"
        }
      ],
      "stateMutability": "view",
      "type": "function"
    },
    {
      "inputs": [
        {
          "internalType": "uint256",
          "name": "",
          "type": "uint256"
        }
      ],
      "name": "quorum",
      "outputs": [
        {
          "internalType": "uint256",
          "name": "",
          "type": "uint256"
        }
      ],
      "stateMutability": "pure",
      "type": "function"
    },
    {
      "inputs": [
        {
          "internalType": "uint256",
          "name": "proposalId",
          "type": "uint256"
        }
      ],
      "name": "state",
      "outputs": [
        {
          "internalType": "enum IGovernor.ProposalState",
          "name": "",
          "type": "uint8"
        }
      ],
      "stateMutability": "view",
      "type": "function"
    },
    {
      "inputs": [
        {
          "internalType": "uint256",
          "name": "proposalId",
          "type": "uint256"
        }
      ],
      "name": "proposalEta",
      "outputs": [
        {
          "internalType": "uint256",
          "name": "",
          "type": "uint256"
        }
      ],
      "stateMutability": "view",
      "type": "function"
    },
    {
      "inputs": [
        {
          "internalType": "address[]",
          "name": "targets",
          "type": "address[]"
        },
        {
          "internalType": "uint256[]",
          "name": "values",
          "type": "uint256[]"
        },
        {
          "internalType": "bytes[]",
          "name": "calldatas",
          "type": "bytes[]"
        },
        {
          "internalType": "string",
          "name": "description",
          "type": "string"
        }
      ],
      "name": "propose",
      "outputs": [
        {
          "internalType": "uint256",
          "name": "",
          "type": "uint256"
        }
      ],
      "stateMutability": "nonpayable",
      "type": "function"
    },
    {
      "inputs": [
        {
          "internalType": "address[]",
          "name": "targets",
          "type": "address[]"
        },
        {
          "internalType": "uint256[]",
          "name": "values",
          "type": "uint256[]"
        },
        {
          "internalType": "string[]",
          "name": "signatures",
          "type": "string[]"
        },
        {
          "internalType": "bytes[]",
          "name": "calldatas",
          "type": "bytes[]"
        },
        {
          "internalType": "string",
          "name": "description",
          "type": "string"
        }
      ],
      "name": "propose",
      "outputs": [
        {
          "internalType": "uint256",
          "name": "",
          "type": "uint256"
        }
      ],
      "stateMutability": "nonpayable",
      "type": "function"
    },
    {
      "inputs": [
        {
          "internalType": "address[]",
          "name": "targets",
          "type": "address[]"
        },
        {
          "internalType": "uint256[]",
          "name": "values",
          "type": "uint256[]"
        },
        {
          "internalType": "bytes[]",
          "name": "calldatas",
          "type": "bytes[]"
        },
        {
          "internalType": "bytes32",
          "name": "salt",
          "type": "bytes32"
        }
      ],
      "name": "queue",
      "outputs": [
        {
          "internalType": "uint256",
          "name": "",
          "type": "uint256"
        }
      ],
      "stateMutability": "nonpayable",
      "type": "function"
    },
    {
      "inputs": [
        {
          "internalType": "uint256",
          "name": "proposalId",
          "type": "uint256"
        }
      ],
      "name": "queue",
      "outputs": [],
      "stateMutability": "nonpayable",
      "type": "function"
    },
    {
      "inputs": [
        {
          "internalType": "address[]",
          "name": "targets",
          "type": "address[]"
        },
        {
          "internalType": "uint256[]",
          "name": "values",
          "type": "uint256[]"
        },
        {
          "internalType": "bytes[]",
          "name": "calldatas",
          "type": "bytes[]"
        },
        {
          "internalType": "bytes32",
          "name": "salt",
          "type": "bytes32"
        }
      ],
      "name": "execute",
      "outputs": [
        {
          "internalType": "uint256",
          "name": "",
          "type": "uint256"
        }
      ],
      "stateMutability": "payable",
      "type": "function"
    },
    {
      "inputs": [
        {
          "internalType": "uint256",
          "name": "proposalId",
          "type": "uint256"
        }
      ],
      "name": "execute",
      "outputs": [],
      "stateMutability": "payable",
      "type": "function"
    },
    {
      "inputs": [
        {
          "internalType": "uint256",
          "name": "proposalId",
          "type": "uint256"
        }
      ],
      "name": "cancel",
      "outputs": [],
      "stateMutability": "nonpayable",
      "type": "function"
    },
    {
      "inputs": [
        {
          "internalType": "address[]",
          "name": "targets",
          "type": "address[]"
        },
        {
          "internalType": "uint256[]",
          "name": "values",
          "type": "uint256[]"
        },
        {
          "internalType": "bytes[]",
          "name": "calldatas",
          "type": "bytes[]"
        },
        {
          "internalType": "bytes32",
          "name": "salt",
          "type": "bytes32"
        }
      ],
      "name": "cancel",
      "outputs": [
        {
          "internalType": "uint256",
          "name": "proposalId",
          "type": "uint256"
        }
      ],
      "stateMutability": "nonpayable",
      "type": "function"
    },
    {
      "inputs": [
        {
          "internalType": "address",
          "name": "account",
          "type": "address"
        },
        {
          "internalType": "uint256",
          "name": "blockNumber",
          "type": "uint256"
        }
      ],
      "name": "getVotes",
      "outputs": [
        {
          "internalType": "uint256",
          "name": "",
          "type": "uint256"
        }
      ],
      "stateMutability": "view",
      "type": "function"
    }
  ],
  "bytecode": "0x6101a06040523480156200001257600080fd5b50604051620073af380380620073af8339818101604052810190620000389190620005c6565b848187806200004c6200015260201b60201c565b60008280519060200120905060008280519060200120905060007f8b73c3c69bb8fe3d512ecc4cf759cc79239f7b179b0ffacaa9a75d522b39400f90508260c081815250508160e081815250504660a08181525050620000b48184846200018f60201b60201c565b6080818152505080610100818152505050505050508060009080519060200190620000e19291906200026c565b5050620000f481620001cb60201b60201c565b508073ffffffffffffffffffffffffffffffffffffffff166101208173ffffffffffffffffffffffffffffffffffffffff168152505050836101408181525050826101608181525050816101808181525050505050505050620007ad565b60606040518060400160405280600181526020017f3100000000000000000000000000000000000000000000000000000000000000815250905090565b60008383834630604051602001620001ac959493929190620006be565b6040516020818303038152906040528051906020012090509392505050565b7f08f74ea46ef7894f65eabfb5e6e695de773a000b47c529ab559178069b226401600360009054906101000a900473ffffffffffffffffffffffffffffffffffffffff1682604051620002209291906200071b565b60405180910390a180600360006101000a81548173ffffffffffffffffffffffffffffffffffffffff021916908373ffffffffffffffffffffffffffffffffffffffff16021790555050565b8280546200027a9062000777565b90600052602060002090601f0160209004810192826200029e5760008555620002ea565b82601f10620002b957805160ff1916838001178555620002ea565b82800160010185558215620002ea579182015b82811115620002e9578251825591602001919060010190620002cc565b5b509050620002f99190620002fd565b5090565b5b8082111562000318576000816000905550600101620002fe565b5090565b6000604051905090565b600080fd5b600080fd5b600080fd5b600080fd5b6000601f19601f8301169050919050565b7f4e487b7100000000000000000000000000000000000000000000000000000000600052604160045260246000fd5b62000385826200033a565b810181811067ffffffffffffffff82111715620003a757620003a66200034b565b5b80604052505050565b6000620003bc6200031c565b9050620003ca82826200037a565b919050565b600067ffffffffffffffff821115620003ed57620003ec6200034b565b5b620003f8826200033a565b9050602081019050919050565b60005b838110156200042557808201518184015260208101905062000408565b8381111562000435576000848401525b50505050565b6000620004526200044c84620003cf565b620003b0565b90508281526020810184848401111562000471576200047062000335565b5b6200047e84828562000405565b509392505050565b600082601f8301126200049e576200049d62000330565b5b8151620004b08482602086016200043b565b91505092915050565b600073ffffffffffffffffffffffffffffffffffffffff82169050919050565b6000620004e682620004b9565b9050919050565b6000620004fa82620004d9565b9050919050565b6200050c81620004ed565b81146200051857600080fd5b50565b6000815190506200052c8162000501565b92915050565b6000819050919050565b620005478162000532565b81146200055357600080fd5b50565b60008151905062000567816200053c565b92915050565b60006200057a82620004b9565b9050919050565b60006200058e826200056d565b9050919050565b620005a08162000581565b8114620005ac57600080fd5b50565b600081519050620005c08162000595565b92915050565b60008060008060008060c08789031215620005e657620005e562000326565b5b600087015167ffffffffffffffff8111156200060757620006066200032b565b5b6200061589828a0162000486565b96505060206200062889828a016200051b565b95505060406200063b89828a0162000556565b94505060606200064e89828a0162000556565b93505060806200066189828a0162000556565b92505060a06200067489828a01620005af565b9150509295509295509295565b6000819050919050565b620006968162000681565b82525050565b620006a78162000532565b82525050565b620006b881620004d9565b82525050565b600060a082019050620006d560008301886200068b565b620006e460208301876200068b565b620006f360408301866200068b565b6200070260608301856200069c565b620007116080830184620006ad565b9695505050505050565b6000604082019050620007326000830185620006ad565b620007416020830184620006ad565b9392505050565b7f4e487b7100000000000000000000000000000000000000000000000000000000600052602260045260246000fd5b600060028204905060018216806200079057607f821691505b60208210811415620007a757620007a662000748565b5b50919050565b60805160a05160c05160e0516101005161012051610140516101605161018051616b8a62000825600039600061152701526000610a8c01526000610ebd015260008181611af10152612ae501526000612d0f01526000612d5101526000612d3001526000612cbc01526000612ce40152616b8a6000f3fe6080604052600436106102085760003560e01c80637b3c71d311610118578063da95691a116100a0578063e23a9a521161006f578063e23a9a5214610874578063eb9019d4146108b1578063f8ce560a146108ee578063fc0c546a1461092b578063fe0d94c1146109565761024e565b8063da95691a146107b8578063dd4e2ba5146107f5578063ddf0b00914610820578063deaaa7cc146108495761024e565b8063b58131b0116100e7578063b58131b0146106d1578063b9a61961146106fc578063c01f9e3714610713578063c59057e414610750578063d33219b41461078d5761024e565b80637b3c71d3146105f15780637d5e81e21461062e578063a890c9101461066b578063ab58fb8e146106945761024e565b8063328dd9821161019b57806340e58ee51161016a57806340e58ee5146104e6578063438596321461050f578063452115d61461054c57806354fd4d501461058957806356781388146105b45761024e565b8063328dd982146104015780633932abb1146104415780633bccf4fd1461046c5780633e4f49e6146104a95761024e565b8063160cbed7116101d7578063160cbed71461032c57806324bc1a64146103695780632656227d146103945780632d63f693146103c45761024e565b8063013cf08b1461025357806301ffc9a71461029957806302a251a3146102d657806306fdde03146103015761024e565b3661024e573073ffffffffffffffffffffffffffffffffffffffff1661022c610972565b73ffffffffffffffffffffffffffffffffffffffff161461024c57600080fd5b005b600080fd5b34801561025f57600080fd5b5061027a6004803603810190610275919061432d565b610981565b6040516102909a999897969594939291906143c5565b60405180910390f35b3480156102a557600080fd5b506102c060048036038101906102bb91906144b9565b610a76565b6040516102cd91906144e6565b60405180910390f35b3480156102e257600080fd5b506102eb610a88565b6040516102f89190614501565b60405180910390f35b34801561030d57600080fd5b50610316610ab0565b60405161032391906145b5565b60405180910390f35b34801561033857600080fd5b50610353600480360381019061034e91906149da565b610b42565b6040516103609190614501565b60405180910390f35b34801561037557600080fd5b5061037e610b5a565b60405161038b9190614501565b60405180910390f35b6103ae60048036038101906103a991906149da565b610b76565b6040516103bb9190614501565b60405180910390f35b3480156103d057600080fd5b506103eb60048036038101906103e6919061432d565b610b8e565b6040516103f89190614501565b60405180910390f35b34801561040d57600080fd5b506104286004803603810190610423919061432d565b610bfc565b6040516104389493929190614e34565b60405180910390f35b34801561044d57600080fd5b50610456610eb9565b6040516104639190614501565b60405180910390f35b34801561047857600080fd5b50610493600480360381019061048e9190614ece565b610ee1565b6040516104a09190614501565b60405180910390f35b3480156104b557600080fd5b506104d060048036038101906104cb919061432d565b610f6b565b6040516104dd9190614fc0565b60405180910390f35b3480156104f257600080fd5b5061050d6004803603810190610508919061432d565b610f7d565b005b34801561051b57600080fd5b5061053660048036038101906105319190614fdb565b611315565b60405161054391906144e6565b60405180910390f35b34801561055857600080fd5b50610573600480360381019061056e91906149da565b611383565b6040516105809190614501565b60405180910390f35b34801561059557600080fd5b5061059e61139b565b6040516105ab91906145b5565b60405180910390f35b3480156105c057600080fd5b506105db60048036038101906105d6919061501b565b6113d8565b6040516105e89190614501565b60405180910390f35b3480156105fd57600080fd5b50610618600480360381019061061391906150b6565b611409565b6040516106259190614501565b60405180910390f35b34801561063a57600080fd5b50610655600480360381019061065091906151cb565b611471565b6040516106629190614501565b60405180910390f35b34801561067757600080fd5b50610692600480360381019061068d91906152f2565b611489565b005b3480156106a057600080fd5b506106bb60048036038101906106b6919061432d565b611511565b6040516106c89190614501565b60405180910390f35b3480156106dd57600080fd5b506106e6611523565b6040516106f39190614501565b60405180910390f35b34801561070857600080fd5b5061071161154b565b005b34801561071f57600080fd5b5061073a6004803603810190610735919061432d565b6115cf565b6040516107479190614501565b60405180910390f35b34801561075c57600080fd5b50610777600480360381019061077291906149da565b61163d565b6040516107849190614501565b60405180910390f35b34801561079957600080fd5b506107a2611679565b6040516107af919061531f565b60405180910390f35b3480156107c457600080fd5b506107df60048036038101906107da919061541b565b6116a3565b6040516107ec9190614501565b60405180910390f35b34801561080157600080fd5b5061080a6116da565b60405161081791906145b5565b60405180910390f35b34801561082c57600080fd5b506108476004803603810190610842919061432d565b611717565b005b34801561085557600080fd5b5061085e6119cc565b60405161086b9190615531565b60405180910390f35b34801561088057600080fd5b5061089b60048036038101906108969190614fdb565b6119f0565b6040516108a891906155d3565b60405180910390f35b3480156108bd57600080fd5b506108d860048036038101906108d391906155ee565b611ad4565b6040516108e59190614501565b60405180910390f35b3480156108fa57600080fd5b506109156004803603810190610910919061432d565b611ae8565b6040516109229190614501565b60405180910390f35b34801561093757600080fd5b50610940611aef565b60405161094d919061568d565b60405180910390f35b610970600480360381019061096b919061432d565b611b13565b005b600061097c611dc8565b905090565b6000806000806000806000806000808a995061099c8b611511565b97506109a78b610b8e565b96506109b28b6115cf565b95506000600260008d815260200190815260200160002090508060000160009054906101000a900473ffffffffffffffffffffffffffffffffffffffff1699508060050154955080600601549450806007015493506000610a128d610f6b565b905060026007811115610a2857610a27614f49565b5b816007811115610a3b57610a3a614f49565b5b149350600780811115610a5157610a50614f49565b5b816007811115610a6457610a63614f49565b5b14925050509193959799509193959799565b6000610a8182611df2565b9050919050565b60007f0000000000000000000000000000000000000000000000000000000000000000905090565b606060008054610abf906156d7565b80601f0160208091040260200160405190810160405280929190818152602001828054610aeb906156d7565b8015610b385780601f10610b0d57610100808354040283529160200191610b38565b820191906000526020600020905b815481529060010190602001808311610b1b57829003601f168201915b5050505050905090565b6000610b5085858585611e6c565b9050949350505050565b6000610b71600143610b6c9190615738565b611ae8565b905090565b6000610b8485858585612296565b9050949350505050565b6000610beb600160008481526020019081526020016000206000016040518060200160405290816000820160009054906101000a900467ffffffffffffffff1667ffffffffffffffff1667ffffffffffffffff16815250506123c9565b67ffffffffffffffff169050919050565b60608060608060006002600087815260200190815260200160002090508060010181600201826003018360040183805480602002602001604051908101604052809291908181526020018280548015610caa57602002820191906000526020600020905b8160009054906101000a900473ffffffffffffffffffffffffffffffffffffffff1673ffffffffffffffffffffffffffffffffffffffff1681526020019060010190808311610c60575b5050505050935082805480602002602001604051908101604052809291908181526020018280548015610cfc57602002820191906000526020600020905b815481526020019060010190808311610ce8575b5050505050925081805480602002602001604051908101604052809291908181526020016000905b82821015610dd0578382906000526020600020018054610d43906156d7565b80601f0160208091040260200160405190810160405280929190818152602001828054610d6f906156d7565b8015610dbc5780601f10610d9157610100808354040283529160200191610dbc565b820191906000526020600020905b815481529060010190602001808311610d9f57829003601f168201915b505050505081526020019060010190610d24565b50505050915080805480602002602001604051908101604052809291908181526020016000905b82821015610ea3578382906000526020600020018054610e16906156d7565b80601f0160208091040260200160405190810160405280929190818152602001828054610e42906156d7565b8015610e8f5780601f10610e6457610100808354040283529160200191610e8f565b820191906000526020600020905b815481529060010190602001808311610e7257829003601f168201915b505050505081526020019060010190610df7565b5050505090509450945094509450509193509193565b60007f0000000000000000000000000000000000000000000000000000000000000000905090565b600080610f42610f3a7f150214d74d59b7d1e90c73fc22ef3d991dd0a76b046543d4d80ab92d2a50328f8989604051602001610f1f9392919061577b565b604051602081830303815290604052805190602001206123d7565b8686866123f1565b9050610f5f8782886040518060200160405280600081525061241c565b91505095945050505050565b6000610f7682612570565b9050919050565b60006002600083815260200190815260200160002090508060000160009054906101000a900473ffffffffffffffffffffffffffffffffffffffff1673ffffffffffffffffffffffffffffffffffffffff16610fd761269b565b73ffffffffffffffffffffffffffffffffffffffff1614806110385750610ffc611523565b6110368260000160009054906101000a900473ffffffffffffffffffffffffffffffffffffffff166001436110319190615738565b611ad4565b105b611077576040517f08c379a000000000000000000000000000000000000000000000000000000000815260040161106e90615824565b60405180910390fd5b611310816001018054806020026020016040519081016040528092919081815260200182805480156110fe57602002820191906000526020600020905b8160009054906101000a900473ffffffffffffffffffffffffffffffffffffffff1673ffffffffffffffffffffffffffffffffffffffff16815260200190600101908083116110b4575b50505050508260020180548060200260200160405190810160405280929190818152602001828054801561115157602002820191906000526020600020905b81548152602001906001019080831161113d575b505050505061130684600301805480602002602001604051908101604052809291908181526020016000905b8282101561122957838290600052602060002001805461119c906156d7565b80601f01602080910402602001604051908101604052809291908181526020018280546111c8906156d7565b80156112155780601f106111ea57610100808354040283529160200191611215565b820191906000526020600020905b8154815290600101906020018083116111f857829003601f168201915b50505050508152602001906001019061117d565b5050505085600401805480602002602001604051908101604052809291908181526020016000905b828210156112fd578382906000526020600020018054611270906156d7565b80601f016020809104026020016040519081016040528092919081815260200182805461129c906156d7565b80156112e95780601f106112be576101008083540402835291602001916112e9565b820191906000526020600020905b8154815290600101906020018083116112cc57829003601f168201915b505050505081526020019060010190611251565b505050506126a3565b846009015461283a565b505050565b60006002600084815260200190815260200160002060080160008373ffffffffffffffffffffffffffffffffffffffff1673ffffffffffffffffffffffffffffffffffffffff16815260200190815260200160002060000160009054906101000a900460ff16905092915050565b60006113918585858561283a565b9050949350505050565b60606040518060400160405280600181526020017f3100000000000000000000000000000000000000000000000000000000000000815250905090565b6000806113e361269b565b90506114008482856040518060200160405280600081525061241c565b91505092915050565b60008061141461269b565b905061146686828787878080601f016020809104026020016040519081016040528093929190818152602001838380828437600081840152601f19601f8201169050808301925050505050505061241c565b915050949350505050565b600061147f85858585612852565b9050949350505050565b611491610972565b73ffffffffffffffffffffffffffffffffffffffff166114af61269b565b73ffffffffffffffffffffffffffffffffffffffff1614611505576040517f08c379a00000000000000000000000000000000000000000000000000000000081526004016114fc90615890565b60405180910390fd5b61150e816128cd565b50565b600061151c8261296c565b9050919050565b60007f0000000000000000000000000000000000000000000000000000000000000000905090565b600360009054906101000a900473ffffffffffffffffffffffffffffffffffffffff1673ffffffffffffffffffffffffffffffffffffffff16630e18b6816040518163ffffffff1660e01b8152600401600060405180830381600087803b1580156115b557600080fd5b505af11580156115c9573d6000803e3d6000fd5b50505050565b600061162c600160008481526020019081526020016000206001016040518060200160405290816000820160009054906101000a900467ffffffffffffffff1667ffffffffffffffff1667ffffffffffffffff16815250506123c9565b67ffffffffffffffff169050919050565b60008484848460405160200161165694939291906158b0565b6040516020818303038152906040528051906020012060001c9050949350505050565b6000600360009054906101000a900473ffffffffffffffffffffffffffffffffffffffff16905090565b60006116ba6116b061269b565b87878787876129da565b6116cf86866116c987876126a3565b85611471565b905095945050505050565b60606040518060400160405280601a81526020017f737570706f72743d627261766f2671756f72756d3d627261766f000000000000815250905090565b60006002600083815260200190815260200160002090506119c7816001018054806020026020016040519081016040528092919081815260200182805480156117b557602002820191906000526020600020905b8160009054906101000a900473ffffffffffffffffffffffffffffffffffffffff1673ffffffffffffffffffffffffffffffffffffffff168152602001906001019080831161176b575b50505050508260020180548060200260200160405190810160405280929190818152602001828054801561180857602002820191906000526020600020905b8154815260200190600101908083116117f4575b50505050506119bd84600301805480602002602001604051908101604052809291908181526020016000905b828210156118e0578382906000526020600020018054611853906156d7565b80601f016020809104026020016040519081016040528092919081815260200182805461187f906156d7565b80156118cc5780601f106118a1576101008083540402835291602001916118cc565b820191906000526020600020905b8154815290600101906020018083116118af57829003601f168201915b505050505081526020019060010190611834565b5050505085600401805480602002602001604051908101604052809291908181526020016000905b828210156119b4578382906000526020600020018054611927906156d7565b80601f0160208091040260200160405190810160405280929190818152602001828054611953906156d7565b80156119a05780601f10611975576101008083540402835291602001916119a0565b820191906000526020600020905b81548152906001019060200180831161198357829003601f168201915b505050505081526020019060010190611908565b505050506126a3565b8460090154610b42565b505050565b7f150214d74d59b7d1e90c73fc22ef3d991dd0a76b046543d4d80ab92d2a50328f81565b6119f8613f27565b6002600084815260200190815260200160002060080160008373ffffffffffffffffffffffffffffffffffffffff1673ffffffffffffffffffffffffffffffffffffffff1681526020019081526020016000206040518060600160405290816000820160009054906101000a900460ff161515151581526020016000820160019054906101000a900460ff1660ff1660ff1681526020016000820160029054906101000a90046bffffffffffffffffffffffff166bffffffffffffffffffffffff166bffffffffffffffffffffffff1681525050905092915050565b6000611ae08383612ae1565b905092915050565b6000919050565b7f000000000000000000000000000000000000000000000000000000000000000081565b6000600260008381526020019081526020016000209050611dc381600101805480602002602001604051908101604052809291908181526020018280548015611bb157602002820191906000526020600020905b8160009054906101000a900473ffffffffffffffffffffffffffffffffffffffff1673ffffffffffffffffffffffffffffffffffffffff1681526020019060010190808311611b67575b505050505082600201805480602002602001604051908101604052809291908181526020018280548015611c0457602002820191906000526020600020905b815481526020019060010190808311611bf0575b5050505050611db984600301805480602002602001604051908101604052809291908181526020016000905b82821015611cdc578382906000526020600020018054611c4f906156d7565b80601f0160208091040260200160405190810160405280929190818152602001828054611c7b906156d7565b8015611cc85780601f10611c9d57610100808354040283529160200191611cc8565b820191906000526020600020905b815481529060010190602001808311611cab57829003601f168201915b505050505081526020019060010190611c30565b5050505085600401805480602002602001604051908101604052809291908181526020016000905b82821015611db0578382906000526020600020018054611d23906156d7565b80601f0160208091040260200160405190810160405280929190818152602001828054611d4f906156d7565b8015611d9c5780601f10611d7157610100808354040283529160200191611d9c565b820191906000526020600020905b815481529060010190602001808311611d7f57829003601f168201915b505050505081526020019060010190611d04565b505050506126a3565b8460090154610b76565b505050565b6000600360009054906101000a900473ffffffffffffffffffffffffffffffffffffffff16905090565b60007f6e665ced000000000000000000000000000000000000000000000000000000007bffffffffffffffffffffffffffffffffffffffffffffffffffffffff1916827bffffffffffffffffffffffffffffffffffffffffffffffffffffffff19161480611e655750611e6482612ba4565b5b9050919050565b600080611e7b8686868661163d565b905060046007811115611e9157611e90614f49565b5b611e9a82610f6b565b6007811115611eac57611eab614f49565b5b14611eec576040517f08c379a0000000000000000000000000000000000000000000000000000000008152600401611ee39061597c565b60405180910390fd5b6000600360009054906101000a900473ffffffffffffffffffffffffffffffffffffffff1673ffffffffffffffffffffffffffffffffffffffff16636a42b8f86040518163ffffffff1660e01b815260040160206040518083038186803b158015611f5657600080fd5b505afa158015611f6a573d6000803e3d6000fd5b505050506040513d601f19601f82011682018060405250810190611f8e91906159b1565b42611f9991906159de565b9050611fcb611fa782612c1e565b60046000858152602001908152602001600020600001612c7590919063ffffffff16565b60005b875181101561224f57600360009054906101000a900473ffffffffffffffffffffffffffffffffffffffff1673ffffffffffffffffffffffffffffffffffffffff1663f2b0653789838151811061202857612027615a34565b5b602002602001015189848151811061204357612042615a34565b5b602002602001015189858151811061205e5761205d615a34565b5b60200260200101518660405160200161207a9493929190615ad3565b604051602081830303815290604052805190602001206040518263ffffffff1660e01b81526004016120ac9190615531565b60206040518083038186803b1580156120c457600080fd5b505afa1580156120d8573d6000803e3d6000fd5b505050506040513d601f19601f820116820180604052508101906120fc9190615b5e565b1561213c576040517f08c379a000000000000000000000000000000000000000000000000000000000815260040161213390615c23565b60405180910390fd5b600360009054906101000a900473ffffffffffffffffffffffffffffffffffffffff1673ffffffffffffffffffffffffffffffffffffffff16633a66f90189838151811061218d5761218c615a34565b5b60200260200101518984815181106121a8576121a7615a34565b5b60200260200101518985815181106121c3576121c2615a34565b5b6020026020010151866040518563ffffffff1660e01b81526004016121eb9493929190615ad3565b602060405180830381600087803b15801561220557600080fd5b505af1158015612219573d6000803e3d6000fd5b505050506040513d601f19601f8201168201806040525081019061223d9190615c58565b508061224890615c85565b9050611fce565b507f9a2e42fd6722813d69113e7d0079d3d940171428df7373df9c7f7617cfda28928282604051612281929190615cce565b60405180910390a18192505050949350505050565b6000806122a58686868661163d565b905060006122b282610f6b565b9050600460078111156122c8576122c7614f49565b5b8160078111156122db576122da614f49565b5b148061230b5750600560078111156122f6576122f5614f49565b5b81600781111561230957612308614f49565b5b145b61234a576040517f08c379a00000000000000000000000000000000000000000000000000000000081526004016123419061597c565b60405180910390fd5b600180600084815260200190815260200160002060020160006101000a81548160ff0219169083151502179055507f712ae1383f79ac853f8d882153778e0260ef8f03b504e2866e0593e04d2b291f826040516123a79190614501565b60405180910390a16123bc8288888888612ca4565b8192505050949350505050565b600081600001519050919050565b60006123ea6123e4612cb8565b83612d7b565b9050919050565b600080600061240287878787612dae565b9150915061240f81612ebb565b8192505050949350505050565b6000806001600087815260200190815260200160002090506001600781111561244857612447614f49565b5b61245187610f6b565b600781111561246357612462614f49565b5b146124a3576040517f08c379a000000000000000000000000000000000000000000000000000000000815260040161249a90615d69565b60405180910390fd5b6000612501866124f2846000016040518060200160405290816000820160009054906101000a900467ffffffffffffffff1667ffffffffffffffff1667ffffffffffffffff16815250506123c9565b67ffffffffffffffff16611ad4565b905061250f87878784613090565b8573ffffffffffffffffffffffffffffffffffffffff167fb8e138887d0aa13bab447e82de9d5c1777041ecd21ca36ba824ff1e6c07ddda48887848860405161255b9493929190615d89565b60405180910390a28092505050949350505050565b60008061257c836132ba565b90506004600781111561259257612591614f49565b5b8160078111156125a5576125a4614f49565b5b146125b35780915050612696565b60006125be84611511565b905060008114156125d3578192505050612696565b600360009054906101000a900473ffffffffffffffffffffffffffffffffffffffff1673ffffffffffffffffffffffffffffffffffffffff1663c1a287e26040518163ffffffff1660e01b815260040160206040518083038186803b15801561263b57600080fd5b505afa15801561264f573d6000803e3d6000fd5b505050506040513d601f19601f8201168201806040525081019061267391906159b1565b8161267e91906159de565b421061268f57600692505050612696565b6005925050505b919050565b600033905090565b60606000825167ffffffffffffffff8111156126c2576126c16145dc565b5b6040519080825280602002602001820160405280156126f557816020015b60608152602001906001900390816126e05790505b50905060005b845181101561282f57600085828151811061271957612718615a34565b5b602002602001015151146127e45784818151811061273a57612739615a34565b5b602002602001015184828151811061275557612754615a34565b5b602002602001015160405160240161276d9190615dd5565b6040516020818303038152906040529060405161278a9190615e33565b60405180910390207bffffffffffffffffffffffffffffffffffffffffffffffffffffffff19166020820180517bffffffffffffffffffffffffffffffffffffffffffffffffffffffff8381831617835250505050612800565b8381815181106127f7576127f6615a34565b5b60200260200101515b82828151811061281357612812615a34565b5b60200260200101819052508061282890615c85565b90506126fb565b508091505092915050565b600061284885858585613481565b9050949350505050565b60006128b761285f61269b565b8686865167ffffffffffffffff81111561287c5761287b6145dc565b5b6040519080825280602002602001820160405280156128af57816020015b606081526020019060019003908161289a5790505b5087876129da565b6128c3858585856135d3565b9050949350505050565b7f08f74ea46ef7894f65eabfb5e6e695de773a000b47c529ab559178069b226401600360009054906101000a900473ffffffffffffffffffffffffffffffffffffffff1682604051612920929190615e4a565b60405180910390a180600360006101000a81548173ffffffffffffffffffffffffffffffffffffffff021916908373ffffffffffffffffffffffffffffffffffffffff16021790555050565b60006129c9600460008481526020019081526020016000206000016040518060200160405290816000820160009054906101000a900467ffffffffffffffff1667ffffffffffffffff1667ffffffffffffffff168152505061364a565b67ffffffffffffffff169050919050565b60008180519060200120905060006129fd87876129f788886126a3565b8561163d565b905060006002600083815260200190815260200160002090506000801b81600901541415612ad657888160000160006101000a81548173ffffffffffffffffffffffffffffffffffffffff021916908373ffffffffffffffffffffffffffffffffffffffff16021790555087816001019080519060200190612a80929190613f5b565b5086816002019080519060200190612a99929190613fe5565b5085816003019080519060200190612ab2929190614032565b5084816004019080519060200190612acb929190614092565b508281600901819055505b505050505050505050565b60007f000000000000000000000000000000000000000000000000000000000000000073ffffffffffffffffffffffffffffffffffffffff1663782d6fe184846040518363ffffffff1660e01b8152600401612b3e929190615e73565b60206040518083038186803b158015612b5657600080fd5b505afa158015612b6a573d6000803e3d6000fd5b505050506040513d601f19601f82011682018060405250810190612b8e9190615ec8565b6bffffffffffffffffffffffff16905092915050565b60007fbf26d897000000000000000000000000000000000000000000000000000000007bffffffffffffffffffffffffffffffffffffffffffffffffffffffff1916827bffffffffffffffffffffffffffffffffffffffffffffffffffffffff19161480612c175750612c1682613658565b5b9050919050565b600067ffffffffffffffff8016821115612c6d576040517f08c379a0000000000000000000000000000000000000000000000000000000008152600401612c6490615f67565b60405180910390fd5b819050919050565b808260000160006101000a81548167ffffffffffffffff021916908367ffffffffffffffff1602179055505050565b612cb185858585856136c2565b5050505050565b60007f0000000000000000000000000000000000000000000000000000000000000000461415612d0a577f00000000000000000000000000000000000000000000000000000000000000009050612d78565b612d757f00000000000000000000000000000000000000000000000000000000000000007f00000000000000000000000000000000000000000000000000000000000000007f000000000000000000000000000000000000000000000000000000000000000061386b565b90505b90565b60008282604051602001612d90929190615ff4565b60405160208183030381529060405280519060200120905092915050565b6000807f7fffffffffffffffffffffffffffffff5d576e7357a4501ddfe92f46681b20a08360001c1115612de9576000600391509150612eb2565b601b8560ff1614158015612e015750601c8560ff1614155b15612e13576000600491509150612eb2565b600060018787878760405160008152602001604052604051612e38949392919061602b565b6020604051602081039080840390855afa158015612e5a573d6000803e3d6000fd5b505050602060405103519050600073ffffffffffffffffffffffffffffffffffffffff168173ffffffffffffffffffffffffffffffffffffffff161415612ea957600060019250925050612eb2565b80600092509250505b94509492505050565b60006004811115612ecf57612ece614f49565b5b816004811115612ee257612ee1614f49565b5b1415612eed5761308d565b60016004811115612f0157612f00614f49565b5b816004811115612f1457612f13614f49565b5b1415612f55576040517f08c379a0000000000000000000000000000000000000000000000000000000008152600401612f4c906160bc565b60405180910390fd5b60026004811115612f6957612f68614f49565b5b816004811115612f7c57612f7b614f49565b5b1415612fbd576040517f08c379a0000000000000000000000000000000000000000000000000000000008152600401612fb490616128565b60405180910390fd5b60036004811115612fd157612fd0614f49565b5b816004811115612fe457612fe3614f49565b5b1415613025576040517f08c379a000000000000000000000000000000000000000000000000000000000815260040161301c906161ba565b60405180910390fd5b60048081111561303857613037614f49565b5b81600481111561304b5761304a614f49565b5b141561308c576040517f08c379a00000000000000000000000000000000000000000000000000000000081526004016130839061624c565b60405180910390fd5b5b50565b600060026000868152602001908152602001600020905060008160080160008673ffffffffffffffffffffffffffffffffffffffff1673ffffffffffffffffffffffffffffffffffffffff16815260200190815260200160002090508060000160009054906101000a900460ff161561313e576040517f08c379a0000000000000000000000000000000000000000000000000000000008152600401613135906162de565b60405180910390fd5b60018160000160006101000a81548160ff021916908315150217905550838160000160016101000a81548160ff021916908360ff160217905550613181836138a5565b8160000160026101000a8154816bffffffffffffffffffffffff02191690836bffffffffffffffffffffffff160217905550600060028111156131c7576131c6614f49565b5b60ff168460ff1614156131f457828260060160008282546131e891906159de565b925050819055506132b2565b6001600281111561320857613207614f49565b5b60ff168460ff161415613235578282600501600082825461322991906159de565b925050819055506132b1565b60028081111561324857613247614f49565b5b60ff168460ff161415613275578282600701600082825461326991906159de565b925050819055506132b0565b6040517f08c379a00000000000000000000000000000000000000000000000000000000081526004016132a790616370565b60405180910390fd5b5b5b505050505050565b60008060016000848152602001908152602001600020604051806080016040529081600082016040518060200160405290816000820160009054906101000a900467ffffffffffffffff1667ffffffffffffffff1667ffffffffffffffff16815250508152602001600182016040518060200160405290816000820160009054906101000a900467ffffffffffffffff1667ffffffffffffffff1667ffffffffffffffff168152505081526020016002820160009054906101000a900460ff161515151581526020016002820160019054906101000a900460ff16151515158152505090508060400151156133b357600791505061347c565b8060600151156133c757600291505061347c565b6133d48160000151613900565b156133e357600091505061347c565b6133f08160200151613900565b156133ff57600191505061347c565b61340c816020015161391a565b156134415761341a83613946565b801561342b575061342a8361397d565b5b613436576003613439565b60045b91505061347c565b6040517f08c379a0000000000000000000000000000000000000000000000000000000008152600401613473906163dc565b60405180910390fd5b919050565b600080613490868686866139a8565b9050600061349d82611511565b905060008111156135c65760005b87518110156135a657600360009054906101000a900473ffffffffffffffffffffffffffffffffffffffff1673ffffffffffffffffffffffffffffffffffffffff1663591fcdfe89838151811061350557613504615a34565b5b60200260200101518984815181106135205761351f615a34565b5b602002602001015189858151811061353b5761353a615a34565b5b6020026020010151866040518563ffffffff1660e01b81526004016135639493929190615ad3565b600060405180830381600087803b15801561357d57600080fd5b505af1158015613591573d6000803e3d6000fd5b505050508061359f90615c85565b90506134ab565b506135c560046000848152602001908152602001600020600001613b01565b5b8192505050949350505050565b60006135dd611523565b6135f3336001436135ee9190615738565b611ad4565b1015613634576040517f08c379a000000000000000000000000000000000000000000000000000000000815260040161362b90616494565b60405180910390fd5b61364085858585613b30565b9050949350505050565b600081600001519050919050565b60007f01ffc9a7000000000000000000000000000000000000000000000000000000007bffffffffffffffffffffffffffffffffffffffffffffffffffffffff1916827bffffffffffffffffffffffffffffffffffffffffffffffffffffffff1916149050919050565b60006136cd86611511565b905060008111613712576040517f08c379a000000000000000000000000000000000000000000000000000000000815260040161370990616526565b60405180910390fd5b61373e600360009054906101000a900473ffffffffffffffffffffffffffffffffffffffff1634613dd0565b60005b855181101561386257600360009054906101000a900473ffffffffffffffffffffffffffffffffffffffff1673ffffffffffffffffffffffffffffffffffffffff16630825f38f87838151811061379b5761379a615a34565b5b60200260200101518784815181106137b6576137b5615a34565b5b60200260200101518785815181106137d1576137d0615a34565b5b6020026020010151866040518563ffffffff1660e01b81526004016137f99493929190615ad3565b600060405180830381600087803b15801561381357600080fd5b505af1158015613827573d6000803e3d6000fd5b505050506040513d6000823e3d601f19601f8201168201806040525081019061385091906165b6565b508061385b90615c85565b9050613741565b50505050505050565b600083838346306040516020016138869594939291906165ff565b6040516020818303038152906040528051906020012090509392505050565b60006bffffffffffffffffffffffff80168211156138f8576040517f08c379a00000000000000000000000000000000000000000000000000000000081526004016138ef906166c4565b60405180910390fd5b819050919050565b600043826000015167ffffffffffffffff16119050919050565b600061392582613ec4565b801561393f575043826000015167ffffffffffffffff1611155b9050919050565b600080600260008481526020019081526020016000209050806005015461397461396f85610b8e565b611ae8565b10915050919050565b6000806002600084815260200190815260200160002090508060060154816005015411915050919050565b6000806139b78686868661163d565b905060006139c482610f6b565b9050600260078111156139da576139d9614f49565b5b8160078111156139ed576139ec614f49565b5b14158015613a20575060066007811115613a0a57613a09614f49565b5b816007811115613a1d57613a1c614f49565b5b14155b8015613a505750600780811115613a3a57613a39614f49565b5b816007811115613a4d57613a4c614f49565b5b14155b613a8f576040517f08c379a0000000000000000000000000000000000000000000000000000000008152600401613a8690616730565b60405180910390fd5b600180600084815260200190815260200160002060020160016101000a81548160ff0219169083151502179055507f789cf55be980739dad1d0699b93b58e806b51c9d96619bfa8fe0a28abaa7b30c82604051613aec9190614501565b60405180910390a18192505050949350505050565b60008160000160006101000a81548167ffffffffffffffff021916908367ffffffffffffffff16021790555050565b600080613b46868686868051906020012061163d565b90508451865114613b8c576040517f08c379a0000000000000000000000000000000000000000000000000000000008152600401613b83906167c2565b60405180910390fd5b8351865114613bd0576040517f08c379a0000000000000000000000000000000000000000000000000000000008152600401613bc7906167c2565b60405180910390fd5b6000865111613c14576040517f08c379a0000000000000000000000000000000000000000000000000000000008152600401613c0b9061682e565b60405180910390fd5b6000600160008381526020019081526020016000209050613c74816000016040518060200160405290816000820160009054906101000a900467ffffffffffffffff1667ffffffffffffffff1667ffffffffffffffff1681525050613ede565b613cb3576040517f08c379a0000000000000000000000000000000000000000000000000000000008152600401613caa906168c0565b60405180910390fd5b6000613cc5613cc0610eb9565b612c1e565b613cce43612c1e565b613cd891906168f4565b90506000613cec613ce7610a88565b612c1e565b82613cf791906168f4565b9050613d0f8284600001613ef890919063ffffffff16565b613d258184600101613ef890919063ffffffff16565b7f7d84a6263ae0d98d3329bd7b46bb4e8d6f98cd35a7adb45c274c8b7fd5ebd5e084613d4f61269b565b8b8b8d5167ffffffffffffffff811115613d6c57613d6b6145dc565b5b604051908082528060200260200182016040528015613d9f57816020015b6060815260200190600190039081613d8a5790505b508c88888e604051613db999989796959493929190616963565b60405180910390a183945050505050949350505050565b80471015613e13576040517f08c379a0000000000000000000000000000000000000000000000000000000008152600401613e0a90616a5f565b60405180910390fd5b60008273ffffffffffffffffffffffffffffffffffffffff1682604051613e3990616aad565b60006040518083038185875af1925050503d8060008114613e76576040519150601f19603f3d011682016040523d82523d6000602084013e613e7b565b606091505b5050905080613ebf576040517f08c379a0000000000000000000000000000000000000000000000000000000008152600401613eb690616b34565b60405180910390fd5b505050565b600080826000015167ffffffffffffffff16119050919050565b600080826000015167ffffffffffffffff16149050919050565b808260000160006101000a81548167ffffffffffffffff021916908367ffffffffffffffff1602179055505050565b6040518060600160405280600015158152602001600060ff16815260200160006bffffffffffffffffffffffff1681525090565b828054828255906000526020600020908101928215613fd4579160200282015b82811115613fd35782518260006101000a81548173ffffffffffffffffffffffffffffffffffffffff021916908373ffffffffffffffffffffffffffffffffffffffff16021790555091602001919060010190613f7b565b5b509050613fe191906140f2565b5090565b828054828255906000526020600020908101928215614021579160200282015b82811115614020578251825591602001919060010190614005565b5b50905061402e91906140f2565b5090565b828054828255906000526020600020908101928215614081579160200282015b8281111561408057825182908051906020019061407092919061410f565b5091602001919060010190614052565b5b50905061408e9190614195565b5090565b8280548282559060005260206000209081019282156140e1579160200282015b828111156140e05782518290805190602001906140d09291906141b9565b50916020019190600101906140b2565b5b5090506140ee919061423f565b5090565b5b8082111561410b5760008160009055506001016140f3565b5090565b82805461411b906156d7565b90600052602060002090601f01602090048101928261413d5760008555614184565b82601f1061415657805160ff1916838001178555614184565b82800160010185558215614184579182015b82811115614183578251825591602001919060010190614168565b5b50905061419191906140f2565b5090565b5b808211156141b557600081816141ac9190614263565b50600101614196565b5090565b8280546141c5906156d7565b90600052602060002090601f0160209004810192826141e7576000855561422e565b82601f1061420057805160ff191683800117855561422e565b8280016001018555821561422e579182015b8281111561422d578251825591602001919060010190614212565b5b50905061423b91906140f2565b5090565b5b8082111561425f576000818161425691906142a3565b50600101614240565b5090565b50805461426f906156d7565b6000825580601f1061428157506142a0565b601f01602090049060005260206000209081019061429f91906140f2565b5b50565b5080546142af906156d7565b6000825580601f106142c157506142e0565b601f0160209004906000526020600020908101906142df91906140f2565b5b50565b6000604051905090565b600080fd5b600080fd5b6000819050919050565b61430a816142f7565b811461431557600080fd5b50565b60008135905061432781614301565b92915050565b600060208284031215614343576143426142ed565b5b600061435184828501614318565b91505092915050565b614363816142f7565b82525050565b600073ffffffffffffffffffffffffffffffffffffffff82169050919050565b600061439482614369565b9050919050565b6143a481614389565b82525050565b60008115159050919050565b6143bf816143aa565b82525050565b6000610140820190506143db600083018d61435a565b6143e8602083018c61439b565b6143f5604083018b61435a565b614402606083018a61435a565b61440f608083018961435a565b61441c60a083018861435a565b61442960c083018761435a565b61443660e083018661435a565b6144446101008301856143b6565b6144526101208301846143b6565b9b9a5050505050505050505050565b60007fffffffff0000000000000000000000000000000000000000000000000000000082169050919050565b61449681614461565b81146144a157600080fd5b50565b6000813590506144b38161448d565b92915050565b6000602082840312156144cf576144ce6142ed565b5b60006144dd848285016144a4565b91505092915050565b60006020820190506144fb60008301846143b6565b92915050565b6000602082019050614516600083018461435a565b92915050565b600081519050919050565b600082825260208201905092915050565b60005b8381101561455657808201518184015260208101905061453b565b83811115614565576000848401525b50505050565b6000601f19601f8301169050919050565b60006145878261451c565b6145918185614527565b93506145a1818560208601614538565b6145aa8161456b565b840191505092915050565b600060208201905081810360008301526145cf818461457c565b905092915050565b600080fd5b7f4e487b7100000000000000000000000000000000000000000000000000000000600052604160045260246000fd5b6146148261456b565b810181811067ffffffffffffffff82111715614633576146326145dc565b5b80604052505050565b60006146466142e3565b9050614652828261460b565b919050565b600067ffffffffffffffff821115614672576146716145dc565b5b602082029050602081019050919050565b600080fd5b61469181614389565b811461469c57600080fd5b50565b6000813590506146ae81614688565b92915050565b60006146c76146c284614657565b61463c565b905080838252602082019050602084028301858111156146ea576146e9614683565b5b835b8181101561471357806146ff888261469f565b8452602084019350506020810190506146ec565b5050509392505050565b600082601f830112614732576147316145d7565b5b81356147428482602086016146b4565b91505092915050565b600067ffffffffffffffff821115614766576147656145dc565b5b602082029050602081019050919050565b600061478a6147858461474b565b61463c565b905080838252602082019050602084028301858111156147ad576147ac614683565b5b835b818110156147d657806147c28882614318565b8452602084019350506020810190506147af565b5050509392505050565b600082601f8301126147f5576147f46145d7565b5b8135614805848260208601614777565b91505092915050565b600067ffffffffffffffff821115614829576148286145dc565b5b602082029050602081019050919050565b600080fd5b600067ffffffffffffffff82111561485a576148596145dc565b5b6148638261456b565b9050602081019050919050565b82818337600083830152505050565b600061489261488d8461483f565b61463c565b9050828152602081018484840111156148ae576148ad61483a565b5b6148b9848285614870565b509392505050565b600082601f8301126148d6576148d56145d7565b5b81356148e684826020860161487f565b91505092915050565b60006149026148fd8461480e565b61463c565b9050808382526020820190506020840283018581111561492557614924614683565b5b835b8181101561496c57803567ffffffffffffffff81111561494a576149496145d7565b5b80860161495789826148c1565b85526020850194505050602081019050614927565b5050509392505050565b600082601f83011261498b5761498a6145d7565b5b813561499b8482602086016148ef565b91505092915050565b6000819050919050565b6149b7816149a4565b81146149c257600080fd5b50565b6000813590506149d4816149ae565b92915050565b600080600080608085870312156149f4576149f36142ed565b5b600085013567ffffffffffffffff811115614a1257614a116142f2565b5b614a1e8782880161471d565b945050602085013567ffffffffffffffff811115614a3f57614a3e6142f2565b5b614a4b878288016147e0565b935050604085013567ffffffffffffffff811115614a6c57614a6b6142f2565b5b614a7887828801614976565b9250506060614a89878288016149c5565b91505092959194509250565b600081519050919050565b600082825260208201905092915050565b6000819050602082019050919050565b614aca81614389565b82525050565b6000614adc8383614ac1565b60208301905092915050565b6000602082019050919050565b6000614b0082614a95565b614b0a8185614aa0565b9350614b1583614ab1565b8060005b83811015614b46578151614b2d8882614ad0565b9750614b3883614ae8565b925050600181019050614b19565b5085935050505092915050565b600081519050919050565b600082825260208201905092915050565b6000819050602082019050919050565b614b88816142f7565b82525050565b6000614b9a8383614b7f565b60208301905092915050565b6000602082019050919050565b6000614bbe82614b53565b614bc88185614b5e565b9350614bd383614b6f565b8060005b83811015614c04578151614beb8882614b8e565b9750614bf683614ba6565b925050600181019050614bd7565b5085935050505092915050565b600081519050919050565b600082825260208201905092915050565b6000819050602082019050919050565b600082825260208201905092915050565b6000614c598261451c565b614c638185614c3d565b9350614c73818560208601614538565b614c7c8161456b565b840191505092915050565b6000614c938383614c4e565b905092915050565b6000602082019050919050565b6000614cb382614c11565b614cbd8185614c1c565b935083602082028501614ccf85614c2d565b8060005b85811015614d0b5784840389528151614cec8582614c87565b9450614cf783614c9b565b925060208a01995050600181019050614cd3565b50829750879550505050505092915050565b600081519050919050565b600082825260208201905092915050565b6000819050602082019050919050565b600081519050919050565b600082825260208201905092915050565b6000614d7082614d49565b614d7a8185614d54565b9350614d8a818560208601614538565b614d938161456b565b840191505092915050565b6000614daa8383614d65565b905092915050565b6000602082019050919050565b6000614dca82614d1d565b614dd48185614d28565b935083602082028501614de685614d39565b8060005b85811015614e225784840389528151614e038582614d9e565b9450614e0e83614db2565b925060208a01995050600181019050614dea565b50829750879550505050505092915050565b60006080820190508181036000830152614e4e8187614af5565b90508181036020830152614e628186614bb3565b90508181036040830152614e768185614ca8565b90508181036060830152614e8a8184614dbf565b905095945050505050565b600060ff82169050919050565b614eab81614e95565b8114614eb657600080fd5b50565b600081359050614ec881614ea2565b92915050565b600080600080600060a08688031215614eea57614ee96142ed565b5b6000614ef888828901614318565b9550506020614f0988828901614eb9565b9450506040614f1a88828901614eb9565b9350506060614f2b888289016149c5565b9250506080614f3c888289016149c5565b9150509295509295909350565b7f4e487b7100000000000000000000000000000000000000000000000000000000600052602160045260246000fd5b60088110614f8957614f88614f49565b5b50565b6000819050614f9a82614f78565b919050565b6000614faa82614f8c565b9050919050565b614fba81614f9f565b82525050565b6000602082019050614fd56000830184614fb1565b92915050565b60008060408385031215614ff257614ff16142ed565b5b600061500085828601614318565b92505060206150118582860161469f565b9150509250929050565b60008060408385031215615032576150316142ed565b5b600061504085828601614318565b925050602061505185828601614eb9565b9150509250929050565b600080fd5b60008083601f840112615076576150756145d7565b5b8235905067ffffffffffffffff8111156150935761509261505b565b5b6020830191508360018202830111156150af576150ae614683565b5b9250929050565b600080600080606085870312156150d0576150cf6142ed565b5b60006150de87828801614318565b94505060206150ef87828801614eb9565b935050604085013567ffffffffffffffff8111156151105761510f6142f2565b5b61511c87828801615060565b925092505092959194509250565b600067ffffffffffffffff821115615145576151446145dc565b5b61514e8261456b565b9050602081019050919050565b600061516e6151698461512a565b61463c565b90508281526020810184848401111561518a5761518961483a565b5b615195848285614870565b509392505050565b600082601f8301126151b2576151b16145d7565b5b81356151c284826020860161515b565b91505092915050565b600080600080608085870312156151e5576151e46142ed565b5b600085013567ffffffffffffffff811115615203576152026142f2565b5b61520f8782880161471d565b945050602085013567ffffffffffffffff8111156152305761522f6142f2565b5b61523c878288016147e0565b935050604085013567ffffffffffffffff81111561525d5761525c6142f2565b5b61526987828801614976565b925050606085013567ffffffffffffffff81111561528a576152896142f2565b5b6152968782880161519d565b91505092959194509250565b60006152ad82614369565b9050919050565b60006152bf826152a2565b9050919050565b6152cf816152b4565b81146152da57600080fd5b50565b6000813590506152ec816152c6565b92915050565b600060208284031215615308576153076142ed565b5b6000615316848285016152dd565b91505092915050565b6000602082019050615334600083018461439b565b92915050565b600067ffffffffffffffff821115615355576153546145dc565b5b602082029050602081019050919050565b60006153796153748461533a565b61463c565b9050808382526020820190506020840283018581111561539c5761539b614683565b5b835b818110156153e357803567ffffffffffffffff8111156153c1576153c06145d7565b5b8086016153ce898261519d565b8552602085019450505060208101905061539e565b5050509392505050565b600082601f830112615402576154016145d7565b5b8135615412848260208601615366565b91505092915050565b600080600080600060a08688031215615437576154366142ed565b5b600086013567ffffffffffffffff811115615455576154546142f2565b5b6154618882890161471d565b955050602086013567ffffffffffffffff811115615482576154816142f2565b5b61548e888289016147e0565b945050604086013567ffffffffffffffff8111156154af576154ae6142f2565b5b6154bb888289016153ed565b935050606086013567ffffffffffffffff8111156154dc576154db6142f2565b5b6154e888828901614976565b925050608086013567ffffffffffffffff811115615509576155086142f2565b5b6155158882890161519d565b9150509295509295909350565b61552b816149a4565b82525050565b60006020820190506155466000830184615522565b92915050565b615555816143aa565b82525050565b61556481614e95565b82525050565b60006bffffffffffffffffffffffff82169050919050565b61558b8161556a565b82525050565b6060820160008201516155a7600085018261554c565b5060208201516155ba602085018261555b565b5060408201516155cd6040850182615582565b50505050565b60006060820190506155e86000830184615591565b92915050565b60008060408385031215615605576156046142ed565b5b60006156138582860161469f565b925050602061562485828601614318565b9150509250929050565b6000819050919050565b600061565361564e61564984614369565b61562e565b614369565b9050919050565b600061566582615638565b9050919050565b60006156778261565a565b9050919050565b6156878161566c565b82525050565b60006020820190506156a2600083018461567e565b92915050565b7f4e487b7100000000000000000000000000000000000000000000000000000000600052602260045260246000fd5b600060028204905060018216806156ef57607f821691505b60208210811415615703576157026156a8565b5b50919050565b7f4e487b7100000000000000000000000000000000000000000000000000000000600052601160045260246000fd5b6000615743826142f7565b915061574e836142f7565b92508282101561576157615760615709565b5b828203905092915050565b61577581614e95565b82525050565b60006060820190506157906000830186615522565b61579d602083018561435a565b6157aa604083018461576c565b949350505050565b7f476f7665726e6f72427261766f3a2070726f706f7365722061626f766520746860008201527f726573686f6c6400000000000000000000000000000000000000000000000000602082015250565b600061580e602783614527565b9150615819826157b2565b604082019050919050565b6000602082019050818103600083015261583d81615801565b9050919050565b7f476f7665726e6f723a206f6e6c79476f7665726e616e63650000000000000000600082015250565b600061587a601883614527565b915061588582615844565b602082019050919050565b600060208201905081810360008301526158a98161586d565b9050919050565b600060808201905081810360008301526158ca8187614af5565b905081810360208301526158de8186614bb3565b905081810360408301526158f28185614dbf565b90506159016060830184615522565b95945050505050565b7f476f7665726e6f723a2070726f706f73616c206e6f742073756363657373667560008201527f6c00000000000000000000000000000000000000000000000000000000000000602082015250565b6000615966602183614527565b91506159718261590a565b604082019050919050565b6000602082019050818103600083015261599581615959565b9050919050565b6000815190506159ab81614301565b92915050565b6000602082840312156159c7576159c66142ed565b5b60006159d58482850161599c565b91505092915050565b60006159e9826142f7565b91506159f4836142f7565b9250827fffffffffffffffffffffffffffffffffffffffffffffffffffffffffffffffff03821115615a2957615a28615709565b5b828201905092915050565b7f4e487b7100000000000000000000000000000000000000000000000000000000600052603260045260246000fd5b50565b6000615a73600083614527565b9150615a7e82615a63565b600082019050919050565b600082825260208201905092915050565b6000615aa582614d49565b615aaf8185615a89565b9350615abf818560208601614538565b615ac88161456b565b840191505092915050565b600060a082019050615ae8600083018761439b565b615af5602083018661435a565b8181036040830152615b0681615a66565b90508181036060830152615b1a8185615a9a565b9050615b29608083018461435a565b95945050505050565b615b3b816143aa565b8114615b4657600080fd5b50565b600081519050615b5881615b32565b92915050565b600060208284031215615b7457615b736142ed565b5b6000615b8284828501615b49565b91505092915050565b7f476f7665726e6f7254696d656c6f636b436f6d706f756e643a206964656e746960008201527f63616c2070726f706f73616c20616374696f6e20616c7265616479207175657560208201527f6564000000000000000000000000000000000000000000000000000000000000604082015250565b6000615c0d604283614527565b9150615c1882615b8b565b606082019050919050565b60006020820190508181036000830152615c3c81615c00565b9050919050565b600081519050615c52816149ae565b92915050565b600060208284031215615c6e57615c6d6142ed565b5b6000615c7c84828501615c43565b91505092915050565b6000615c90826142f7565b91507fffffffffffffffffffffffffffffffffffffffffffffffffffffffffffffffff821415615cc357615cc2615709565b5b600182019050919050565b6000604082019050615ce3600083018561435a565b615cf0602083018461435a565b9392505050565b7f476f7665726e6f723a20766f7465206e6f742063757272656e746c792061637460008201527f6976650000000000000000000000000000000000000000000000000000000000602082015250565b6000615d53602383614527565b9150615d5e82615cf7565b604082019050919050565b60006020820190508181036000830152615d8281615d46565b9050919050565b6000608082019050615d9e600083018761435a565b615dab602083018661576c565b615db8604083018561435a565b8181036060830152615dca818461457c565b905095945050505050565b60006020820190508181036000830152615def8184615a9a565b905092915050565b600081905092915050565b6000615e0d8261451c565b615e178185615df7565b9350615e27818560208601614538565b80840191505092915050565b6000615e3f8284615e02565b915081905092915050565b6000604082019050615e5f600083018561439b565b615e6c602083018461439b565b9392505050565b6000604082019050615e88600083018561439b565b615e95602083018461435a565b9392505050565b615ea58161556a565b8114615eb057600080fd5b50565b600081519050615ec281615e9c565b92915050565b600060208284031215615ede57615edd6142ed565b5b6000615eec84828501615eb3565b91505092915050565b7f53616665436173743a2076616c756520646f65736e27742066697420696e203660008201527f3420626974730000000000000000000000000000000000000000000000000000602082015250565b6000615f51602683614527565b9150615f5c82615ef5565b604082019050919050565b60006020820190508181036000830152615f8081615f44565b9050919050565b7f1901000000000000000000000000000000000000000000000000000000000000600082015250565b6000615fbd600283615df7565b9150615fc882615f87565b600282019050919050565b6000819050919050565b615fee615fe9826149a4565b615fd3565b82525050565b6000615fff82615fb0565b915061600b8285615fdd565b60208201915061601b8284615fdd565b6020820191508190509392505050565b60006080820190506160406000830187615522565b61604d602083018661576c565b61605a6040830185615522565b6160676060830184615522565b95945050505050565b7f45434453413a20696e76616c6964207369676e61747572650000000000000000600082015250565b60006160a6601883614527565b91506160b182616070565b602082019050919050565b600060208201905081810360008301526160d581616099565b9050919050565b7f45434453413a20696e76616c6964207369676e6174757265206c656e67746800600082015250565b6000616112601f83614527565b915061611d826160dc565b602082019050919050565b6000602082019050818103600083015261614181616105565b9050919050565b7f45434453413a20696e76616c6964207369676e6174757265202773272076616c60008201527f7565000000000000000000000000000000000000000000000000000000000000602082015250565b60006161a4602283614527565b91506161af82616148565b604082019050919050565b600060208201905081810360008301526161d381616197565b9050919050565b7f45434453413a20696e76616c6964207369676e6174757265202776272076616c60008201527f7565000000000000000000000000000000000000000000000000000000000000602082015250565b6000616236602283614527565b9150616241826161da565b604082019050919050565b6000602082019050818103600083015261626581616229565b9050919050565b7f476f7665726e6f72436f6d7061746962696c697479427261766f3a20766f746560008201527f20616c7265616479206361737400000000000000000000000000000000000000602082015250565b60006162c8602d83614527565b91506162d38261626c565b604082019050919050565b600060208201905081810360008301526162f7816162bb565b9050919050565b7f476f7665726e6f72436f6d7061746962696c697479427261766f3a20696e766160008201527f6c696420766f7465207479706500000000000000000000000000000000000000602082015250565b600061635a602d83614527565b9150616365826162fe565b604082019050919050565b600060208201905081810360008301526163898161634d565b9050919050565b7f476f7665726e6f723a20756e6b6e6f776e2070726f706f73616c206964000000600082015250565b60006163c6601d83614527565b91506163d182616390565b602082019050919050565b600060208201905081810360008301526163f5816163b9565b9050919050565b7f476f7665726e6f72436f6d7061746962696c697479427261766f3a2070726f7060008201527f6f73657220766f7465732062656c6f772070726f706f73616c2074687265736860208201527f6f6c640000000000000000000000000000000000000000000000000000000000604082015250565b600061647e604383614527565b9150616489826163fc565b606082019050919050565b600060208201905081810360008301526164ad81616471565b9050919050565b7f476f7665726e6f7254696d656c6f636b436f6d706f756e643a2070726f706f7360008201527f616c206e6f742079657420717565756564000000000000000000000000000000602082015250565b6000616510603183614527565b915061651b826164b4565b604082019050919050565b6000602082019050818103600083015261653f81616503565b9050919050565b60006165596165548461483f565b61463c565b9050828152602081018484840111156165755761657461483a565b5b616580848285614538565b509392505050565b600082601f83011261659d5761659c6145d7565b5b81516165ad848260208601616546565b91505092915050565b6000602082840312156165cc576165cb6142ed565b5b600082015167ffffffffffffffff8111156165ea576165e96142f2565b5b6165f684828501616588565b91505092915050565b600060a0820190506166146000830188615522565b6166216020830187615522565b61662e6040830186615522565b61663b606083018561435a565b616648608083018461439b565b9695505050505050565b7f53616665436173743a2076616c756520646f65736e27742066697420696e203960008201527f3620626974730000000000000000000000000000000000000000000000000000602082015250565b60006166ae602683614527565b91506166b982616652565b604082019050919050565b600060208201905081810360008301526166dd816166a1565b9050919050565b7f476f7665726e6f723a2070726f706f73616c206e6f7420616374697665000000600082015250565b600061671a601d83614527565b9150616725826166e4565b602082019050919050565b600060208201905081810360008301526167498161670d565b9050919050565b7f476f7665726e6f723a20696e76616c69642070726f706f73616c206c656e677460008201527f6800000000000000000000000000000000000000000000000000000000000000602082015250565b60006167ac602183614527565b91506167b782616750565b604082019050919050565b600060208201905081810360008301526167db8161679f565b9050919050565b7f476f7665726e6f723a20656d7074792070726f706f73616c0000000000000000600082015250565b6000616818601883614527565b9150616823826167e2565b602082019050919050565b600060208201905081810360008301526168478161680b565b9050919050565b7f476f7665726e6f723a2070726f706f73616c20616c726561647920657869737460008201527f7300000000000000000000000000000000000000000000000000000000000000602082015250565b60006168aa602183614527565b91506168b58261684e565b604082019050919050565b600060208201905081810360008301526168d98161689d565b9050919050565b600067ffffffffffffffff82169050919050565b60006168ff826168e0565b915061690a836168e0565b92508267ffffffffffffffff0382111561692757616926615709565b5b828201905092915050565b600061694d616948616943846168e0565b61562e565b6142f7565b9050919050565b61695d81616932565b82525050565b600061012082019050616979600083018c61435a565b616986602083018b61439b565b8181036040830152616998818a614af5565b905081810360608301526169ac8189614bb3565b905081810360808301526169c08188614ca8565b905081810360a08301526169d48187614dbf565b90506169e360c0830186616954565b6169f060e0830185616954565b818103610100830152616a03818461457c565b90509a9950505050505050505050565b7f416464726573733a20696e73756666696369656e742062616c616e6365000000600082015250565b6000616a49601d83614527565b9150616a5482616a13565b602082019050919050565b60006020820190508181036000830152616a7881616a3c565b9050919050565b600081905092915050565b6000616a97600083616a7f565b9150616aa282615a63565b600082019050919050565b6000616ab882616a8a565b9150819050919050565b7f416464726573733a20756e61626c6520746f2073656e642076616c75652c207260008201527f6563697069656e74206d61792068617665207265766572746564000000000000602082015250565b6000616b1e603a83614527565b9150616b2982616ac2565b604082019050919050565b60006020820190508181036000830152616b4d81616b11565b905091905056fea2646970667358221220d5934c1a91ec3c3a558d4233d8893645eca20b121e7e36f6fdb95278dc4aae7a64736f6c63430008090033",
  "immutableReferences": {
    "7122": [
      {
        "length": 32,
        "start": 6897
      },
      {
        "length": 32,
        "start": 10981
      }
    ],
    "11906": [
      {
        "length": 32,
        "start": 3773
      }
    ],
    "11908": [
      {
        "length": 32,
        "start": 2700
      }
    ],
    "11910": [
      {
        "length": 32,
        "start": 5415
      }
    ],
    "26329": [
      {
        "length": 32,
        "start": 11492
      }
    ],
    "26331": [
      {
        "length": 32,
        "start": 11452
      }
    ],
    "26333": [
      {
        "length": 32,
        "start": 11568
      }
    ],
    "26335": [
      {
        "length": 32,
        "start": 11601
      }
    ],
    "26337": [
      {
        "length": 32,
        "start": 11535
      }
    ]
  },
  "source": "// SPDX-License-Identifier: MIT\r\n\r\npragma solidity ^0.8.0;\r\n\r\nimport \"../governance/compatibility/GovernorCompatibilityBravo.sol\";\r\nimport \"../governance/extensions/GovernorVotesComp.sol\";\r\nimport \"../governance/extensions/GovernorTimelockCompound.sol\";\r\n\r\ncontract GovernorCompatibilityBravoMock is GovernorCompatibilityBravo, GovernorTimelockCompound, GovernorVotesComp {\r\n    uint256 immutable _votingDelay;\r\n    uint256 immutable _votingPeriod;\r\n    uint256 immutable _proposalThreshold;\r\n\r\n    constructor(\r\n        string memory name_,\r\n        ERC20VotesComp token_,\r\n        uint256 votingDelay_,\r\n        uint256 votingPeriod_,\r\n        uint256 proposalThreshold_,\r\n        ICompoundTimelock timelock_\r\n    ) Governor(name_) GovernorVotesComp(token_) GovernorTimelockCompound(timelock_) {\r\n        _votingDelay = votingDelay_;\r\n        _votingPeriod = votingPeriod_;\r\n        _proposalThreshold = proposalThreshold_;\r\n    }\r\n\r\n    function supportsInterface(bytes4 interfaceId)\r\n        public\r\n        view\r\n        virtual\r\n        override(IERC165, Governor, GovernorTimelockCompound)\r\n        returns (bool)\r\n    {\r\n        return super.supportsInterface(interfaceId);\r\n    }\r\n\r\n    function votingDelay() public view override returns (uint256) {\r\n        return _votingDelay;\r\n    }\r\n\r\n    function votingPeriod() public view override returns (uint256) {\r\n        return _votingPeriod;\r\n    }\r\n\r\n    function proposalThreshold() public view virtual override returns (uint256) {\r\n        return _proposalThreshold;\r\n    }\r\n\r\n    function quorum(uint256) public pure override returns (uint256) {\r\n        return 0;\r\n    }\r\n\r\n    function state(uint256 proposalId)\r\n        public\r\n        view\r\n        virtual\r\n        override(IGovernor, Governor, GovernorTimelockCompound)\r\n        returns (ProposalState)\r\n    {\r\n        return super.state(proposalId);\r\n    }\r\n\r\n    function proposalEta(uint256 proposalId)\r\n        public\r\n        view\r\n        virtual\r\n        override(IGovernorTimelock, GovernorTimelockCompound)\r\n        returns (uint256)\r\n    {\r\n        return super.proposalEta(proposalId);\r\n    }\r\n\r\n    function propose(\r\n        address[] memory targets,\r\n        uint256[] memory values,\r\n        bytes[] memory calldatas,\r\n        string memory description\r\n    ) public virtual override(IGovernor, Governor, GovernorCompatibilityBravo) returns (uint256) {\r\n        return super.propose(targets, values, calldatas, description);\r\n    }\r\n\r\n    function queue(\r\n        address[] memory targets,\r\n        uint256[] memory values,\r\n        bytes[] memory calldatas,\r\n        bytes32 salt\r\n    ) public virtual override(IGovernorTimelock, GovernorTimelockCompound) returns (uint256) {\r\n        return super.queue(targets, values, calldatas, salt);\r\n    }\r\n\r\n    function execute(\r\n        address[] memory targets,\r\n        uint256[] memory values,\r\n        bytes[] memory calldatas,\r\n        bytes32 salt\r\n    ) public payable virtual override(IGovernor, Governor) returns (uint256) {\r\n        return super.execute(targets, values, calldatas, salt);\r\n    }\r\n\r\n    function _execute(\r\n        uint256 proposalId,\r\n        address[] memory targets,\r\n        uint256[] memory values,\r\n        bytes[] memory calldatas,\r\n        bytes32 descriptionHash\r\n    ) internal virtual override(Governor, GovernorTimelockCompound) {\r\n        super._execute(proposalId, targets, values, calldatas, descriptionHash);\r\n    }\r\n\r\n    /**\r\n     * @notice WARNING: this is for mock purposes only. Ability to the _cancel function should be restricted for live\r\n     * deployments.\r\n     */\r\n    function cancel(\r\n        address[] memory targets,\r\n        uint256[] memory values,\r\n        bytes[] memory calldatas,\r\n        bytes32 salt\r\n    ) public returns (uint256 proposalId) {\r\n        return _cancel(targets, values, calldatas, salt);\r\n    }\r\n\r\n    function _cancel(\r\n        address[] memory targets,\r\n        uint256[] memory values,\r\n        bytes[] memory calldatas,\r\n        bytes32 salt\r\n    ) internal virtual override(Governor, GovernorTimelockCompound) returns (uint256 proposalId) {\r\n        return super._cancel(targets, values, calldatas, salt);\r\n    }\r\n\r\n    function getVotes(address account, uint256 blockNumber)\r\n        public\r\n        view\r\n        virtual\r\n        override(IGovernor, GovernorVotesComp)\r\n        returns (uint256)\r\n    {\r\n        return super.getVotes(account, blockNumber);\r\n    }\r\n\r\n    function _executor() internal view virtual override(Governor, GovernorTimelockCompound) returns (address) {\r\n        return super._executor();\r\n    }\r\n}\r\n",
  "sourcePath": "C:\\Climax\\NFT-marketplace\\contracts\\openzeppelin-solidity\\contracts\\mocks\\GovernorCompatibilityBravoMock.sol",
  "compiler": {
    "name": "solc",
    "version": "0.8.9+commit.e5eed63a.Emscripten.clang"
  },
  "schemaVersion": "3.4.3",
  "updatedAt": "2021-10-26T11:45:25.738Z",
  "devdoc": {
    "kind": "dev",
    "methods": {
      "COUNTING_MODE()": {
        "details": "A description of the possible `support` values for {castVote} and the way these votes are counted, meant to be consumed by UIs to show correct vote options and interpret the results. The string is a URL-encoded sequence of key-value pairs that each describe one aspect, for example `support=bravo&quorum=for,abstain`. There are 2 standard keys: `support` and `quorum`. - `support=bravo` refers to the vote options 0 = For, 1 = Against, 2 = Abstain, as in `GovernorBravo`. - `quorum=bravo` means that only For votes are counted towards quorum. - `quorum=for,abstain` means that both For and Abstain votes are counted towards quorum. NOTE: The string can be decoded by the standard https://developer.mozilla.org/en-US/docs/Web/API/URLSearchParams[`URLSearchParams`] JavaScript class."
      },
      "__acceptAdmin()": {
        "details": "Accept admin right over the timelock."
      },
      "cancel(uint256)": {
        "details": "Cancels a proposal only if sender is the proposer, or proposer delegates dropped below proposal threshold."
      },
      "castVote(uint256,uint8)": {
        "details": "See {IGovernor-castVote}."
      },
      "castVoteBySig(uint256,uint8,uint8,bytes32,bytes32)": {
        "details": "See {IGovernor-castVoteBySig}."
      },
      "castVoteWithReason(uint256,uint8,string)": {
        "details": "See {IGovernor-castVoteWithReason}."
      },
      "execute(uint256)": {
        "details": "See {IGovernorCompatibilityBravo-execute}."
      },
      "getActions(uint256)": {
        "details": "See {IGovernorCompatibilityBravo-getActions}."
      },
      "getReceipt(uint256,address)": {
        "details": "See {IGovernorCompatibilityBravo-getReceipt}."
      },
      "hasVoted(uint256,address)": {
        "details": "See {IGovernor-hasVoted}."
      },
      "hashProposal(address[],uint256[],bytes[],bytes32)": {
        "details": "See {IGovernor-hashProposal}. The proposal id is produced by hashing the RLC encoded `targets` array, the `values` array, the `calldatas` array and the descriptionHash (bytes32 which itself is the keccak256 hash of the description string). This proposal id can be produced from the proposal data which is part of the {ProposalCreated} event. It can even be computed in advance, before the proposal is submitted. Note that the chainId and the governor address are not part of the proposal id computation. Consequently, the same proposal (with same operation and same description) will have the same id if submitted on multiple governors accross multiple networks. This also means that in order to execute the same operation twice (on the same governor) the proposer will have to change the description in order to avoid proposal id conflicts."
      },
      "name()": {
        "details": "See {IGovernor-name}."
      },
      "proposalDeadline(uint256)": {
        "details": "See {IGovernor-proposalDeadline}."
      },
      "proposalSnapshot(uint256)": {
        "details": "See {IGovernor-proposalSnapshot}."
      },
      "proposalThreshold()": {
        "details": "Part of the Governor Bravo's interface: _\"The number of votes required in order for a voter to become a proposer\"_."
      },
      "proposals(uint256)": {
        "details": "See {IGovernorCompatibilityBravo-proposals}."
      },
      "propose(address[],uint256[],string[],bytes[],string)": {
        "details": "See {IGovernorCompatibilityBravo-propose}."
      },
      "queue(uint256)": {
        "details": "See {IGovernorCompatibilityBravo-queue}."
      },
      "quorumVotes()": {
        "details": "See {IGovernorCompatibilityBravo-quorumVotes}."
      },
      "timelock()": {
        "details": "Public accessor to check the address of the timelock"
      },
      "updateTimelock(address)": {
        "details": "Public endpoint to update the underlying timelock instance. Restricted to the timelock itself, so updates must be proposed, scheduled and executed using the {Governor} workflow. For security reason, the timelock must be handed over to another admin before setting up a new one. The two operations (hand over the timelock) and do the update can be batched in a single proposal. Note that if the timelock admin has been handed over in a previous operation, we refuse updates made through the timelock if admin of the timelock has already been accepted and the operation is executed outside the scope of governance."
      },
      "version()": {
        "details": "See {IGovernor-version}."
      },
      "votingDelay()": {
        "details": "delay, in number of block, between the proposal is created and the vote starts. This can be increassed to leave time for users to buy voting power, of delegate it, before the voting of a proposal starts."
      },
      "votingPeriod()": {
        "details": "delay, in number of blocks, between the vote start and vote ends. Note: the {votingDelay} can delay the start of the vote. This must be considered when setting the voting duration compared to the voting delay."
      }
    },
    "version": 1
  },
  "userdoc": {
    "kind": "user",
    "methods": {
      "COUNTING_MODE()": {
        "notice": "module:voting"
      },
      "cancel(address[],uint256[],bytes[],bytes32)": {
        "notice": "WARNING: this is for mock purposes only. Ability to the _cancel function should be restricted for live deployments."
      },
      "votingDelay()": {
        "notice": "module:user-config"
      },
      "votingPeriod()": {
        "notice": "module:user-config"
      }
    },
    "version": 1
  }
}