{
  "contractName": "GovernorTimelockControlMock",
  "abi": [
    {
      "inputs": [
        {
          "internalType": "string",
          "name": "name_",
          "type": "string"
        },
        {
          "internalType": "contract ERC20Votes",
          "name": "token_",
          "type": "address"
        },
        {
          "internalType": "uint256",
          "name": "votingDelay_",
          "type": "uint256"
        },
        {
          "internalType": "uint256",
          "name": "votingPeriod_",
          "type": "uint256"
        },
        {
          "internalType": "contract TimelockController",
          "name": "timelock_",
          "type": "address"
        },
        {
          "internalType": "uint256",
          "name": "quorumNumerator_",
          "type": "uint256"
        }
      ],
      "stateMutability": "nonpayable",
      "type": "constructor"
    },
    {
      "anonymous": false,
      "inputs": [
        {
          "indexed": false,
          "internalType": "uint256",
          "name": "proposalId",
          "type": "uint256"
        }
      ],
      "name": "ProposalCanceled",
      "type": "event"
    },
    {
      "anonymous": false,
      "inputs": [
        {
          "indexed": false,
          "internalType": "uint256",
          "name": "proposalId",
          "type": "uint256"
        },
        {
          "indexed": false,
          "internalType": "address",
          "name": "proposer",
          "type": "address"
        },
        {
          "indexed": false,
          "internalType": "address[]",
          "name": "targets",
          "type": "address[]"
        },
        {
          "indexed": false,
          "internalType": "uint256[]",
          "name": "values",
          "type": "uint256[]"
        },
        {
          "indexed": false,
          "internalType": "string[]",
          "name": "signatures",
          "type": "string[]"
        },
        {
          "indexed": false,
          "internalType": "bytes[]",
          "name": "calldatas",
          "type": "bytes[]"
        },
        {
          "indexed": false,
          "internalType": "uint256",
          "name": "startBlock",
          "type": "uint256"
        },
        {
          "indexed": false,
          "internalType": "uint256",
          "name": "endBlock",
          "type": "uint256"
        },
        {
          "indexed": false,
          "internalType": "string",
          "name": "description",
          "type": "string"
        }
      ],
      "name": "ProposalCreated",
      "type": "event"
    },
    {
      "anonymous": false,
      "inputs": [
        {
          "indexed": false,
          "internalType": "uint256",
          "name": "proposalId",
          "type": "uint256"
        }
      ],
      "name": "ProposalExecuted",
      "type": "event"
    },
    {
      "anonymous": false,
      "inputs": [
        {
          "indexed": false,
          "internalType": "uint256",
          "name": "proposalId",
          "type": "uint256"
        },
        {
          "indexed": false,
          "internalType": "uint256",
          "name": "eta",
          "type": "uint256"
        }
      ],
      "name": "ProposalQueued",
      "type": "event"
    },
    {
      "anonymous": false,
      "inputs": [
        {
          "indexed": false,
          "internalType": "uint256",
          "name": "oldQuorumNumerator",
          "type": "uint256"
        },
        {
          "indexed": false,
          "internalType": "uint256",
          "name": "newQuorumNumerator",
          "type": "uint256"
        }
      ],
      "name": "QuorumNumeratorUpdated",
      "type": "event"
    },
    {
      "anonymous": false,
      "inputs": [
        {
          "indexed": false,
          "internalType": "address",
          "name": "oldTimelock",
          "type": "address"
        },
        {
          "indexed": false,
          "internalType": "address",
          "name": "newTimelock",
          "type": "address"
        }
      ],
      "name": "TimelockChange",
      "type": "event"
    },
    {
      "anonymous": false,
      "inputs": [
        {
          "indexed": true,
          "internalType": "address",
          "name": "voter",
          "type": "address"
        },
        {
          "indexed": false,
          "internalType": "uint256",
          "name": "proposalId",
          "type": "uint256"
        },
        {
          "indexed": false,
          "internalType": "uint8",
          "name": "support",
          "type": "uint8"
        },
        {
          "indexed": false,
          "internalType": "uint256",
          "name": "weight",
          "type": "uint256"
        },
        {
          "indexed": false,
          "internalType": "string",
          "name": "reason",
          "type": "string"
        }
      ],
      "name": "VoteCast",
      "type": "event"
    },
    {
      "inputs": [],
      "name": "BALLOT_TYPEHASH",
      "outputs": [
        {
          "internalType": "bytes32",
          "name": "",
          "type": "bytes32"
        }
      ],
      "stateMutability": "view",
      "type": "function"
    },
    {
      "inputs": [],
      "name": "COUNTING_MODE",
      "outputs": [
        {
          "internalType": "string",
          "name": "",
          "type": "string"
        }
      ],
      "stateMutability": "pure",
      "type": "function"
    },
    {
      "inputs": [
        {
          "internalType": "uint256",
          "name": "proposalId",
          "type": "uint256"
        },
        {
          "internalType": "uint8",
          "name": "support",
          "type": "uint8"
        }
      ],
      "name": "castVote",
      "outputs": [
        {
          "internalType": "uint256",
          "name": "",
          "type": "uint256"
        }
      ],
      "stateMutability": "nonpayable",
      "type": "function"
    },
    {
      "inputs": [
        {
          "internalType": "uint256",
          "name": "proposalId",
          "type": "uint256"
        },
        {
          "internalType": "uint8",
          "name": "support",
          "type": "uint8"
        },
        {
          "internalType": "uint8",
          "name": "v",
          "type": "uint8"
        },
        {
          "internalType": "bytes32",
          "name": "r",
          "type": "bytes32"
        },
        {
          "internalType": "bytes32",
          "name": "s",
          "type": "bytes32"
        }
      ],
      "name": "castVoteBySig",
      "outputs": [
        {
          "internalType": "uint256",
          "name": "",
          "type": "uint256"
        }
      ],
      "stateMutability": "nonpayable",
      "type": "function"
    },
    {
      "inputs": [
        {
          "internalType": "uint256",
          "name": "proposalId",
          "type": "uint256"
        },
        {
          "internalType": "uint8",
          "name": "support",
          "type": "uint8"
        },
        {
          "internalType": "string",
          "name": "reason",
          "type": "string"
        }
      ],
      "name": "castVoteWithReason",
      "outputs": [
        {
          "internalType": "uint256",
          "name": "",
          "type": "uint256"
        }
      ],
      "stateMutability": "nonpayable",
      "type": "function"
    },
    {
      "inputs": [
        {
          "internalType": "address[]",
          "name": "targets",
          "type": "address[]"
        },
        {
          "internalType": "uint256[]",
          "name": "values",
          "type": "uint256[]"
        },
        {
          "internalType": "bytes[]",
          "name": "calldatas",
          "type": "bytes[]"
        },
        {
          "internalType": "bytes32",
          "name": "descriptionHash",
          "type": "bytes32"
        }
      ],
      "name": "execute",
      "outputs": [
        {
          "internalType": "uint256",
          "name": "",
          "type": "uint256"
        }
      ],
      "stateMutability": "payable",
      "type": "function"
    },
    {
      "inputs": [
        {
          "internalType": "uint256",
          "name": "proposalId",
          "type": "uint256"
        },
        {
          "internalType": "address",
          "name": "account",
          "type": "address"
        }
      ],
      "name": "hasVoted",
      "outputs": [
        {
          "internalType": "bool",
          "name": "",
          "type": "bool"
        }
      ],
      "stateMutability": "view",
      "type": "function"
    },
    {
      "inputs": [
        {
          "internalType": "address[]",
          "name": "targets",
          "type": "address[]"
        },
        {
          "internalType": "uint256[]",
          "name": "values",
          "type": "uint256[]"
        },
        {
          "internalType": "bytes[]",
          "name": "calldatas",
          "type": "bytes[]"
        },
        {
          "internalType": "bytes32",
          "name": "descriptionHash",
          "type": "bytes32"
        }
      ],
      "name": "hashProposal",
      "outputs": [
        {
          "internalType": "uint256",
          "name": "",
          "type": "uint256"
        }
      ],
      "stateMutability": "pure",
      "type": "function"
    },
    {
      "inputs": [],
      "name": "name",
      "outputs": [
        {
          "internalType": "string",
          "name": "",
          "type": "string"
        }
      ],
      "stateMutability": "view",
      "type": "function"
    },
    {
      "inputs": [
        {
          "internalType": "uint256",
          "name": "proposalId",
          "type": "uint256"
        }
      ],
      "name": "proposalDeadline",
      "outputs": [
        {
          "internalType": "uint256",
          "name": "",
          "type": "uint256"
        }
      ],
      "stateMutability": "view",
      "type": "function"
    },
    {
      "inputs": [
        {
          "internalType": "uint256",
          "name": "proposalId",
          "type": "uint256"
        }
      ],
      "name": "proposalEta",
      "outputs": [
        {
          "internalType": "uint256",
          "name": "",
          "type": "uint256"
        }
      ],
      "stateMutability": "view",
      "type": "function"
    },
    {
      "inputs": [
        {
          "internalType": "uint256",
          "name": "proposalId",
          "type": "uint256"
        }
      ],
      "name": "proposalSnapshot",
      "outputs": [
        {
          "internalType": "uint256",
          "name": "",
          "type": "uint256"
        }
      ],
      "stateMutability": "view",
      "type": "function"
    },
    {
      "inputs": [
        {
          "internalType": "uint256",
          "name": "proposalId",
          "type": "uint256"
        }
      ],
      "name": "proposalVotes",
      "outputs": [
        {
          "internalType": "uint256",
          "name": "againstVotes",
          "type": "uint256"
        },
        {
          "internalType": "uint256",
          "name": "forVotes",
          "type": "uint256"
        },
        {
          "internalType": "uint256",
          "name": "abstainVotes",
          "type": "uint256"
        }
      ],
      "stateMutability": "view",
      "type": "function"
    },
    {
      "inputs": [
        {
          "internalType": "address[]",
          "name": "targets",
          "type": "address[]"
        },
        {
          "internalType": "uint256[]",
          "name": "values",
          "type": "uint256[]"
        },
        {
          "internalType": "bytes[]",
          "name": "calldatas",
          "type": "bytes[]"
        },
        {
          "internalType": "string",
          "name": "description",
          "type": "string"
        }
      ],
      "name": "propose",
      "outputs": [
        {
          "internalType": "uint256",
          "name": "",
          "type": "uint256"
        }
      ],
      "stateMutability": "nonpayable",
      "type": "function"
    },
    {
      "inputs": [
        {
          "internalType": "address[]",
          "name": "targets",
          "type": "address[]"
        },
        {
          "internalType": "uint256[]",
          "name": "values",
          "type": "uint256[]"
        },
        {
          "internalType": "bytes[]",
          "name": "calldatas",
          "type": "bytes[]"
        },
        {
          "internalType": "bytes32",
          "name": "descriptionHash",
          "type": "bytes32"
        }
      ],
      "name": "queue",
      "outputs": [
        {
          "internalType": "uint256",
          "name": "",
          "type": "uint256"
        }
      ],
      "stateMutability": "nonpayable",
      "type": "function"
    },
    {
      "inputs": [],
      "name": "quorumDenominator",
      "outputs": [
        {
          "internalType": "uint256",
          "name": "",
          "type": "uint256"
        }
      ],
      "stateMutability": "view",
      "type": "function"
    },
    {
      "inputs": [],
      "name": "quorumNumerator",
      "outputs": [
        {
          "internalType": "uint256",
          "name": "",
          "type": "uint256"
        }
      ],
      "stateMutability": "view",
      "type": "function"
    },
    {
      "inputs": [],
      "name": "timelock",
      "outputs": [
        {
          "internalType": "address",
          "name": "",
          "type": "address"
        }
      ],
      "stateMutability": "view",
      "type": "function"
    },
    {
      "inputs": [],
      "name": "token",
      "outputs": [
        {
          "internalType": "contract ERC20Votes",
          "name": "",
          "type": "address"
        }
      ],
      "stateMutability": "view",
      "type": "function"
    },
    {
      "inputs": [
        {
          "internalType": "uint256",
          "name": "newQuorumNumerator",
          "type": "uint256"
        }
      ],
      "name": "updateQuorumNumerator",
      "outputs": [],
      "stateMutability": "nonpayable",
      "type": "function"
    },
    {
      "inputs": [
        {
          "internalType": "contract TimelockController",
          "name": "newTimelock",
          "type": "address"
        }
      ],
      "name": "updateTimelock",
      "outputs": [],
      "stateMutability": "nonpayable",
      "type": "function"
    },
    {
      "inputs": [],
      "name": "version",
      "outputs": [
        {
          "internalType": "string",
          "name": "",
          "type": "string"
        }
      ],
      "stateMutability": "view",
      "type": "function"
    },
    {
      "stateMutability": "payable",
      "type": "receive"
    },
    {
      "inputs": [
        {
          "internalType": "bytes4",
          "name": "interfaceId",
          "type": "bytes4"
        }
      ],
      "name": "supportsInterface",
      "outputs": [
        {
          "internalType": "bool",
          "name": "",
          "type": "bool"
        }
      ],
      "stateMutability": "view",
      "type": "function"
    },
    {
      "inputs": [],
      "name": "votingDelay",
      "outputs": [
        {
          "internalType": "uint256",
          "name": "",
          "type": "uint256"
        }
      ],
      "stateMutability": "view",
      "type": "function"
    },
    {
      "inputs": [],
      "name": "votingPeriod",
      "outputs": [
        {
          "internalType": "uint256",
          "name": "",
          "type": "uint256"
        }
      ],
      "stateMutability": "view",
      "type": "function"
    },
    {
      "inputs": [
        {
          "internalType": "uint256",
          "name": "blockNumber",
          "type": "uint256"
        }
      ],
      "name": "quorum",
      "outputs": [
        {
          "internalType": "uint256",
          "name": "",
          "type": "uint256"
        }
      ],
      "stateMutability": "view",
      "type": "function"
    },
    {
      "inputs": [
        {
          "internalType": "address[]",
          "name": "targets",
          "type": "address[]"
        },
        {
          "internalType": "uint256[]",
          "name": "values",
          "type": "uint256[]"
        },
        {
          "internalType": "bytes[]",
          "name": "calldatas",
          "type": "bytes[]"
        },
        {
          "internalType": "bytes32",
          "name": "descriptionHash",
          "type": "bytes32"
        }
      ],
      "name": "cancel",
      "outputs": [
        {
          "internalType": "uint256",
          "name": "proposalId",
          "type": "uint256"
        }
      ],
      "stateMutability": "nonpayable",
      "type": "function"
    },
    {
      "inputs": [
        {
          "internalType": "uint256",
          "name": "proposalId",
          "type": "uint256"
        }
      ],
      "name": "state",
      "outputs": [
        {
          "internalType": "enum IGovernor.ProposalState",
          "name": "",
          "type": "uint8"
        }
      ],
      "stateMutability": "view",
      "type": "function"
    },
    {
      "inputs": [
        {
          "internalType": "address",
          "name": "account",
          "type": "address"
        },
        {
          "internalType": "uint256",
          "name": "blockNumber",
          "type": "uint256"
        }
      ],
      "name": "getVotes",
      "outputs": [
        {
          "internalType": "uint256",
          "name": "",
          "type": "uint256"
        }
      ],
      "stateMutability": "view",
      "type": "function"
    }
  ],
  "bytecode": "0x6101806040523480156200001257600080fd5b50604051620053d0380380620053d083398181016040528101906200003891906200067b565b80858388806200004d6200015c60201b60201c565b60008280519060200120905060008280519060200120905060007f8b73c3c69bb8fe3d512ecc4cf759cc79239f7b179b0ffacaa9a75d522b39400f90508260c081815250508160e081815250504660a08181525050620000b58184846200019960201b60201c565b6080818152505080610100818152505050505050508060009080519060200190620000e292919062000321565b5050620000f581620001d560201b60201c565b508073ffffffffffffffffffffffffffffffffffffffff166101208173ffffffffffffffffffffffffffffffffffffffff1681525050506200013d816200027660201b60201c565b508361014081815250508261016081815250505050505050506200095e565b60606040518060400160405280600181526020017f3100000000000000000000000000000000000000000000000000000000000000815250905090565b60008383834630604051602001620001b695949392919062000773565b6040516020818303038152906040528051906020012090509392505050565b7f08f74ea46ef7894f65eabfb5e6e695de773a000b47c529ab559178069b226401600260009054906101000a900473ffffffffffffffffffffffffffffffffffffffff16826040516200022a929190620007d0565b60405180910390a180600260006101000a81548173ffffffffffffffffffffffffffffffffffffffff021916908373ffffffffffffffffffffffffffffffffffffffff16021790555050565b620002866200031860201b60201c565b811115620002cb576040517f08c379a0000000000000000000000000000000000000000000000000000000008152600401620002c290620008aa565b60405180910390fd5b60006004549050816004819055507f0553476bf02ef2726e8ce5ced78d63e26e602e4a2257b1f559418e24b463399781836040516200030c929190620008cc565b60405180910390a15050565b60006064905090565b8280546200032f9062000928565b90600052602060002090601f0160209004810192826200035357600085556200039f565b82601f106200036e57805160ff19168380011785556200039f565b828001600101855582156200039f579182015b828111156200039e57825182559160200191906001019062000381565b5b509050620003ae9190620003b2565b5090565b5b80821115620003cd576000816000905550600101620003b3565b5090565b6000604051905090565b600080fd5b600080fd5b600080fd5b600080fd5b6000601f19601f8301169050919050565b7f4e487b7100000000000000000000000000000000000000000000000000000000600052604160045260246000fd5b6200043a82620003ef565b810181811067ffffffffffffffff821117156200045c576200045b62000400565b5b80604052505050565b600062000471620003d1565b90506200047f82826200042f565b919050565b600067ffffffffffffffff821115620004a257620004a162000400565b5b620004ad82620003ef565b9050602081019050919050565b60005b83811015620004da578082015181840152602081019050620004bd565b83811115620004ea576000848401525b50505050565b600062000507620005018462000484565b62000465565b905082815260208101848484011115620005265762000525620003ea565b5b62000533848285620004ba565b509392505050565b600082601f830112620005535762000552620003e5565b5b815162000565848260208601620004f0565b91505092915050565b600073ffffffffffffffffffffffffffffffffffffffff82169050919050565b60006200059b826200056e565b9050919050565b6000620005af826200058e565b9050919050565b620005c181620005a2565b8114620005cd57600080fd5b50565b600081519050620005e181620005b6565b92915050565b6000819050919050565b620005fc81620005e7565b81146200060857600080fd5b50565b6000815190506200061c81620005f1565b92915050565b60006200062f826200056e565b9050919050565b6000620006438262000622565b9050919050565b620006558162000636565b81146200066157600080fd5b50565b60008151905062000675816200064a565b92915050565b60008060008060008060c087890312156200069b576200069a620003db565b5b600087015167ffffffffffffffff811115620006bc57620006bb620003e0565b5b620006ca89828a016200053b565b9650506020620006dd89828a01620005d0565b9550506040620006f089828a016200060b565b94505060606200070389828a016200060b565b93505060806200071689828a0162000664565b92505060a06200072989828a016200060b565b9150509295509295509295565b6000819050919050565b6200074b8162000736565b82525050565b6200075c81620005e7565b82525050565b6200076d816200058e565b82525050565b600060a0820190506200078a600083018862000740565b62000799602083018762000740565b620007a8604083018662000740565b620007b7606083018562000751565b620007c6608083018462000762565b9695505050505050565b6000604082019050620007e7600083018562000762565b620007f6602083018462000762565b9392505050565b600082825260208201905092915050565b7f476f7665726e6f72566f74657351756f72756d4672616374696f6e3a2071756f60008201527f72756d4e756d657261746f72206f7665722071756f72756d44656e6f6d696e6160208201527f746f720000000000000000000000000000000000000000000000000000000000604082015250565b600062000892604383620007fd565b91506200089f826200080e565b606082019050919050565b60006020820190508181036000830152620008c58162000883565b9050919050565b6000604082019050620008e3600083018562000751565b620008f2602083018462000751565b9392505050565b7f4e487b7100000000000000000000000000000000000000000000000000000000600052602260045260246000fd5b600060028204905060018216806200094157607f821691505b60208210811415620009585762000957620008f9565b5b50919050565b60805160a05160c05160e051610100516101205161014051610160516149fe620009d2600039600061083801526000610df30152600081816115b801528181611b680152611c2d01526000611e5e01526000611ea001526000611e7f01526000611e0b01526000611e3301526149fe6000f3fe6080604052600436106101c65760003560e01c806356781388116100f7578063c01f9e3711610095578063deaaa7cc11610064578063deaaa7cc14610743578063eb9019d41461076e578063f8ce560a146107ab578063fc0c546a146107e85761020c565b8063c01f9e3714610673578063c59057e4146106b0578063d33219b4146106ed578063dd4e2ba5146107185761020c565b806397c3d334116100d157806397c3d334146105b7578063a7713a70146105e2578063a890c9101461060d578063ab58fb8e146106365761020c565b806356781388146105005780637b3c71d31461053d5780637d5e81e21461057a5761020c565b80633932abb111610164578063438596321161013e578063438596321461041c578063452115d614610459578063544ffc9c1461049657806354fd4d50146104d55761020c565b80633932abb1146103775780633bccf4fd146103a25780633e4f49e6146103df5761020c565b806306fdde03116101a057806306fdde03146102a2578063160cbed7146102cd5780632656227d1461030a5780632d63f6931461033a5761020c565b806301ffc9a71461021157806302a251a31461024e57806306f3f9e6146102795761020c565b3661020c573073ffffffffffffffffffffffffffffffffffffffff166101ea610813565b73ffffffffffffffffffffffffffffffffffffffff161461020a57600080fd5b005b600080fd5b34801561021d57600080fd5b50610238600480360381019061023391906129d9565b610822565b6040516102459190612a21565b60405180910390f35b34801561025a57600080fd5b50610263610834565b6040516102709190612a55565b60405180910390f35b34801561028557600080fd5b506102a0600480360381019061029b9190612a9c565b61085c565b005b3480156102ae57600080fd5b506102b76108e4565b6040516102c49190612b62565b60405180910390f35b3480156102d957600080fd5b506102f460048036038101906102ef9190612fb9565b610976565b6040516103019190612a55565b60405180910390f35b610324600480360381019061031f9190612fb9565b610c4e565b6040516103319190612a55565b60405180910390f35b34801561034657600080fd5b50610361600480360381019061035c9190612a9c565b610d81565b60405161036e9190612a55565b60405180910390f35b34801561038357600080fd5b5061038c610def565b6040516103999190612a55565b60405180910390f35b3480156103ae57600080fd5b506103c960048036038101906103c491906130ad565b610e17565b6040516103d69190612a55565b60405180910390f35b3480156103eb57600080fd5b5061040660048036038101906104019190612a9c565b610ea1565b604051610413919061319f565b60405180910390f35b34801561042857600080fd5b50610443600480360381019061043e91906131ba565b610eb3565b6040516104509190612a21565b60405180910390f35b34801561046557600080fd5b50610480600480360381019061047b9190612fb9565b610f1e565b60405161048d9190612a55565b60405180910390f35b3480156104a257600080fd5b506104bd60048036038101906104b89190612a9c565b610f36565b6040516104cc939291906131fa565b60405180910390f35b3480156104e157600080fd5b506104ea610f6e565b6040516104f79190612b62565b60405180910390f35b34801561050c57600080fd5b5061052760048036038101906105229190613231565b610fab565b6040516105349190612a55565b60405180910390f35b34801561054957600080fd5b50610564600480360381019061055f91906132cc565b610fdc565b6040516105719190612a55565b60405180910390f35b34801561058657600080fd5b506105a1600480360381019061059c91906133e1565b611044565b6040516105ae9190612a55565b60405180910390f35b3480156105c357600080fd5b506105cc6112e4565b6040516105d99190612a55565b60405180910390f35b3480156105ee57600080fd5b506105f76112ed565b6040516106049190612a55565b60405180910390f35b34801561061957600080fd5b50610634600480360381019061062f9190613508565b6112f7565b005b34801561064257600080fd5b5061065d60048036038101906106589190612a9c565b61137f565b60405161066a9190612a55565b60405180910390f35b34801561067f57600080fd5b5061069a60048036038101906106959190612a9c565b61145b565b6040516106a79190612a55565b60405180910390f35b3480156106bc57600080fd5b506106d760048036038101906106d29190612fb9565b6114c9565b6040516106e49190612a55565b60405180910390f35b3480156106f957600080fd5b50610702611505565b60405161070f9190613544565b60405180910390f35b34801561072457600080fd5b5061072d61152f565b60405161073a9190612b62565b60405180910390f35b34801561074f57600080fd5b5061075861156c565b604051610765919061356e565b60405180910390f35b34801561077a57600080fd5b5061079560048036038101906107909190613589565b611590565b6040516107a29190612a55565b60405180910390f35b3480156107b757600080fd5b506107d260048036038101906107cd9190612a9c565b6115a4565b6040516107df9190612a55565b60405180910390f35b3480156107f457600080fd5b506107fd6115b6565b60405161080a9190613628565b60405180910390f35b600061081d6115da565b905090565b600061082d82611604565b9050919050565b60007f0000000000000000000000000000000000000000000000000000000000000000905090565b610864610813565b73ffffffffffffffffffffffffffffffffffffffff1661088261167e565b73ffffffffffffffffffffffffffffffffffffffff16146108d8576040517f08c379a00000000000000000000000000000000000000000000000000000000081526004016108cf9061368f565b60405180910390fd5b6108e181611686565b50565b6060600080546108f3906136de565b80601f016020809104026020016040519081016040528092919081815260200182805461091f906136de565b801561096c5780601f106109415761010080835404028352916020019161096c565b820191906000526020600020905b81548152906001019060200180831161094f57829003601f168201915b5050505050905090565b600080610985868686866114c9565b90506004600781111561099b5761099a613128565b5b6109a482610ea1565b60078111156109b6576109b5613128565b5b146109f6576040517f08c379a00000000000000000000000000000000000000000000000000000000081526004016109ed90613782565b60405180910390fd5b6000600260009054906101000a900473ffffffffffffffffffffffffffffffffffffffff1673ffffffffffffffffffffffffffffffffffffffff1663f27a0c926040518163ffffffff1660e01b815260040160206040518083038186803b158015610a6057600080fd5b505afa158015610a74573d6000803e3d6000fd5b505050506040513d601f19601f82011682018060405250810190610a9891906137b7565b9050600260009054906101000a900473ffffffffffffffffffffffffffffffffffffffff1673ffffffffffffffffffffffffffffffffffffffff1663b1c5f4278888886000896040518663ffffffff1660e01b8152600401610afe959493929190613abf565b60206040518083038186803b158015610b1657600080fd5b505afa158015610b2a573d6000803e3d6000fd5b505050506040513d601f19601f82011682018060405250810190610b4e9190613b3c565b6003600084815260200190815260200160002081905550600260009054906101000a900473ffffffffffffffffffffffffffffffffffffffff1673ffffffffffffffffffffffffffffffffffffffff16638f2a0bb0888888600089876040518763ffffffff1660e01b8152600401610bcb96959493929190613b69565b600060405180830381600087803b158015610be557600080fd5b505af1158015610bf9573d6000803e3d6000fd5b505050507f9a2e42fd6722813d69113e7d0079d3d940171428df7373df9c7f7617cfda2892828242610c2b9190613c0e565b604051610c39929190613c64565b60405180910390a18192505050949350505050565b600080610c5d868686866114c9565b90506000610c6a82610ea1565b905060046007811115610c8057610c7f613128565b5b816007811115610c9357610c92613128565b5b1480610cc3575060056007811115610cae57610cad613128565b5b816007811115610cc157610cc0613128565b5b145b610d02576040517f08c379a0000000000000000000000000000000000000000000000000000000008152600401610cf990613782565b60405180910390fd5b600180600084815260200190815260200160002060020160006101000a81548160ff0219169083151502179055507f712ae1383f79ac853f8d882153778e0260ef8f03b504e2866e0593e04d2b291f82604051610d5f9190612a55565b60405180910390a1610d74828888888861171b565b8192505050949350505050565b6000610dde600160008481526020019081526020016000206000016040518060200160405290816000820160009054906101000a900467ffffffffffffffff1667ffffffffffffffff1667ffffffffffffffff168152505061172f565b67ffffffffffffffff169050919050565b60007f0000000000000000000000000000000000000000000000000000000000000000905090565b600080610e78610e707f150214d74d59b7d1e90c73fc22ef3d991dd0a76b046543d4d80ab92d2a50328f8989604051602001610e5593929190613c9c565b6040516020818303038152906040528051906020012061173d565b868686611757565b9050610e9587828860405180602001604052806000815250611782565b91505095945050505050565b6000610eac826118d6565b9050919050565b60006005600084815260200190815260200160002060030160008373ffffffffffffffffffffffffffffffffffffffff1673ffffffffffffffffffffffffffffffffffffffff16815260200190815260200160002060009054906101000a900460ff16905092915050565b6000610f2c85858585611a0d565b9050949350505050565b600080600080600560008681526020019081526020016000209050806000015481600101548260020154935093509350509193909250565b60606040518060400160405280600181526020017f3100000000000000000000000000000000000000000000000000000000000000815250905090565b600080610fb661167e565b9050610fd384828560405180602001604052806000815250611782565b91505092915050565b600080610fe761167e565b905061103986828787878080601f016020809104026020016040519081016040528093929190818152602001838380828437600081840152601f19601f82011690508083019250505050505050611782565b915050949350505050565b60008061105a86868686805190602001206114c9565b905084518651146110a0576040517f08c379a000000000000000000000000000000000000000000000000000000000815260040161109790613d45565b60405180910390fd5b83518651146110e4576040517f08c379a00000000000000000000000000000000000000000000000000000000081526004016110db90613d45565b60405180910390fd5b6000865111611128576040517f08c379a000000000000000000000000000000000000000000000000000000000815260040161111f90613db1565b60405180910390fd5b6000600160008381526020019081526020016000209050611188816000016040518060200160405290816000820160009054906101000a900467ffffffffffffffff1667ffffffffffffffff1667ffffffffffffffff1681525050611a25565b6111c7576040517f08c379a00000000000000000000000000000000000000000000000000000000081526004016111be90613e43565b60405180910390fd5b60006111d96111d4610def565b611a3f565b6111e243611a3f565b6111ec9190613e77565b905060006112006111fb610834565b611a3f565b8261120b9190613e77565b90506112238284600001611a9690919063ffffffff16565b6112398184600101611a9690919063ffffffff16565b7f7d84a6263ae0d98d3329bd7b46bb4e8d6f98cd35a7adb45c274c8b7fd5ebd5e08461126361167e565b8b8b8d5167ffffffffffffffff8111156112805761127f612b89565b5b6040519080825280602002602001820160405280156112b357816020015b606081526020019060019003908161129e5790505b508c88888e6040516112cd99989796959493929190613ff2565b60405180910390a183945050505050949350505050565b60006064905090565b6000600454905090565b6112ff610813565b73ffffffffffffffffffffffffffffffffffffffff1661131d61167e565b73ffffffffffffffffffffffffffffffffffffffff1614611373576040517f08c379a000000000000000000000000000000000000000000000000000000000815260040161136a9061368f565b60405180910390fd5b61137c81611ac5565b50565b600080600260009054906101000a900473ffffffffffffffffffffffffffffffffffffffff1673ffffffffffffffffffffffffffffffffffffffff1663d45c443560036000868152602001908152602001600020546040518263ffffffff1660e01b81526004016113f0919061356e565b60206040518083038186803b15801561140857600080fd5b505afa15801561141c573d6000803e3d6000fd5b505050506040513d601f19601f8201168201806040525081019061144091906137b7565b9050600181146114505780611453565b60005b915050919050565b60006114b8600160008481526020019081526020016000206001016040518060200160405290816000820160009054906101000a900467ffffffffffffffff1667ffffffffffffffff1667ffffffffffffffff168152505061172f565b67ffffffffffffffff169050919050565b6000848484846040516020016114e294939291906140a2565b6040516020818303038152906040528051906020012060001c9050949350505050565b6000600260009054906101000a900473ffffffffffffffffffffffffffffffffffffffff16905090565b60606040518060400160405280602081526020017f737570706f72743d627261766f2671756f72756d3d666f722c6162737461696e815250905090565b7f150214d74d59b7d1e90c73fc22ef3d991dd0a76b046543d4d80ab92d2a50328f81565b600061159c8383611b64565b905092915050565b60006115af82611c19565b9050919050565b7f000000000000000000000000000000000000000000000000000000000000000081565b6000600260009054906101000a900473ffffffffffffffffffffffffffffffffffffffff16905090565b60007f6e665ced000000000000000000000000000000000000000000000000000000007bffffffffffffffffffffffffffffffffffffffffffffffffffffffff1916827bffffffffffffffffffffffffffffffffffffffffffffffffffffffff19161480611677575061167682611cef565b5b9050919050565b600033905090565b61168e6112e4565b8111156116d0576040517f08c379a00000000000000000000000000000000000000000000000000000000081526004016116c790614194565b60405180910390fd5b60006004549050816004819055507f0553476bf02ef2726e8ce5ced78d63e26e602e4a2257b1f559418e24b4633997818360405161170f929190613c64565b60405180910390a15050565b6117288585858585611d69565b5050505050565b600081600001519050919050565b600061175061174a611e07565b83611eca565b9050919050565b600080600061176887878787611efd565b915091506117758161200a565b8192505050949350505050565b600080600160008781526020019081526020016000209050600160078111156117ae576117ad613128565b5b6117b787610ea1565b60078111156117c9576117c8613128565b5b14611809576040517f08c379a000000000000000000000000000000000000000000000000000000000815260040161180090614226565b60405180910390fd5b600061186786611858846000016040518060200160405290816000820160009054906101000a900467ffffffffffffffff1667ffffffffffffffff1667ffffffffffffffff168152505061172f565b67ffffffffffffffff16611590565b9050611875878787846121df565b8573ffffffffffffffffffffffffffffffffffffffff167fb8e138887d0aa13bab447e82de9d5c1777041ecd21ca36ba824ff1e6c07ddda4888784886040516118c19493929190614246565b60405180910390a28092505050949350505050565b6000806118e2836123e5565b9050600460078111156118f8576118f7613128565b5b81600781111561190b5761190a613128565b5b146119195780915050611a08565b6000600360008581526020019081526020016000205490506000801b811415611946578192505050611a08565b600260009054906101000a900473ffffffffffffffffffffffffffffffffffffffff1673ffffffffffffffffffffffffffffffffffffffff16632ab0f529826040518263ffffffff1660e01b81526004016119a1919061356e565b60206040518083038186803b1580156119b957600080fd5b505afa1580156119cd573d6000803e3d6000fd5b505050506040513d601f19601f820116820180604052508101906119f191906142be565b15611a0157600792505050611a08565b6005925050505b919050565b6000611a1b858585856125ac565b9050949350505050565b600080826000015167ffffffffffffffff16149050919050565b600067ffffffffffffffff8016821115611a8e576040517f08c379a0000000000000000000000000000000000000000000000000000000008152600401611a859061435d565b60405180910390fd5b819050919050565b808260000160006101000a81548167ffffffffffffffff021916908367ffffffffffffffff1602179055505050565b7f08f74ea46ef7894f65eabfb5e6e695de773a000b47c529ab559178069b226401600260009054906101000a900473ffffffffffffffffffffffffffffffffffffffff1682604051611b1892919061437d565b60405180910390a180600260006101000a81548173ffffffffffffffffffffffffffffffffffffffff021916908373ffffffffffffffffffffffffffffffffffffffff16021790555050565b60007f000000000000000000000000000000000000000000000000000000000000000073ffffffffffffffffffffffffffffffffffffffff16633a46b1a884846040518363ffffffff1660e01b8152600401611bc19291906143a6565b60206040518083038186803b158015611bd957600080fd5b505afa158015611bed573d6000803e3d6000fd5b505050506040513d601f19601f82011682018060405250810190611c1191906137b7565b905092915050565b6000611c236112e4565b611c2b6112ed565b7f000000000000000000000000000000000000000000000000000000000000000073ffffffffffffffffffffffffffffffffffffffff16638e539e8c856040518263ffffffff1660e01b8152600401611c849190612a55565b60206040518083038186803b158015611c9c57600080fd5b505afa158015611cb0573d6000803e3d6000fd5b505050506040513d601f19601f82011682018060405250810190611cd491906137b7565b611cde91906143cf565b611ce89190614458565b9050919050565b60007fbf26d897000000000000000000000000000000000000000000000000000000007bffffffffffffffffffffffffffffffffffffffffffffffffffffffff1916827bffffffffffffffffffffffffffffffffffffffffffffffffffffffff19161480611d625750611d618261269e565b5b9050919050565b600260009054906101000a900473ffffffffffffffffffffffffffffffffffffffff1673ffffffffffffffffffffffffffffffffffffffff1663e38335e5348686866000876040518763ffffffff1660e01b8152600401611dce959493929190613abf565b6000604051808303818588803b158015611de757600080fd5b505af1158015611dfb573d6000803e3d6000fd5b50505050505050505050565b60007f0000000000000000000000000000000000000000000000000000000000000000461415611e59577f00000000000000000000000000000000000000000000000000000000000000009050611ec7565b611ec47f00000000000000000000000000000000000000000000000000000000000000007f00000000000000000000000000000000000000000000000000000000000000007f0000000000000000000000000000000000000000000000000000000000000000612708565b90505b90565b60008282604051602001611edf929190614501565b60405160208183030381529060405280519060200120905092915050565b6000807f7fffffffffffffffffffffffffffffff5d576e7357a4501ddfe92f46681b20a08360001c1115611f38576000600391509150612001565b601b8560ff1614158015611f505750601c8560ff1614155b15611f62576000600491509150612001565b600060018787878760405160008152602001604052604051611f879493929190614538565b6020604051602081039080840390855afa158015611fa9573d6000803e3d6000fd5b505050602060405103519050600073ffffffffffffffffffffffffffffffffffffffff168173ffffffffffffffffffffffffffffffffffffffff161415611ff857600060019250925050612001565b80600092509250505b94509492505050565b6000600481111561201e5761201d613128565b5b81600481111561203157612030613128565b5b141561203c576121dc565b600160048111156120505761204f613128565b5b81600481111561206357612062613128565b5b14156120a4576040517f08c379a000000000000000000000000000000000000000000000000000000000815260040161209b906145c9565b60405180910390fd5b600260048111156120b8576120b7613128565b5b8160048111156120cb576120ca613128565b5b141561210c576040517f08c379a000000000000000000000000000000000000000000000000000000000815260040161210390614635565b60405180910390fd5b600360048111156121205761211f613128565b5b81600481111561213357612132613128565b5b1415612174576040517f08c379a000000000000000000000000000000000000000000000000000000000815260040161216b906146c7565b60405180910390fd5b60048081111561218757612186613128565b5b81600481111561219a57612199613128565b5b14156121db576040517f08c379a00000000000000000000000000000000000000000000000000000000081526004016121d290614759565b60405180910390fd5b5b50565b60006005600086815260200190815260200160002090508060030160008573ffffffffffffffffffffffffffffffffffffffff1673ffffffffffffffffffffffffffffffffffffffff16815260200190815260200160002060009054906101000a900460ff1615612285576040517f08c379a000000000000000000000000000000000000000000000000000000000815260040161227c906147eb565b60405180910390fd5b60018160030160008673ffffffffffffffffffffffffffffffffffffffff1673ffffffffffffffffffffffffffffffffffffffff16815260200190815260200160002060006101000a81548160ff021916908315150217905550600060028111156122f3576122f2613128565b5b60ff168360ff16141561232057818160000160008282546123149190613c0e565b925050819055506123de565b6001600281111561233457612333613128565b5b60ff168360ff16141561236157818160010160008282546123559190613c0e565b925050819055506123dd565b60028081111561237457612373613128565b5b60ff168360ff1614156123a157818160020160008282546123959190613c0e565b925050819055506123dc565b6040517f08c379a00000000000000000000000000000000000000000000000000000000081526004016123d39061487d565b60405180910390fd5b5b5b5050505050565b60008060016000848152602001908152602001600020604051806080016040529081600082016040518060200160405290816000820160009054906101000a900467ffffffffffffffff1667ffffffffffffffff1667ffffffffffffffff16815250508152602001600182016040518060200160405290816000820160009054906101000a900467ffffffffffffffff1667ffffffffffffffff1667ffffffffffffffff168152505081526020016002820160009054906101000a900460ff161515151581526020016002820160019054906101000a900460ff16151515158152505090508060400151156124de5760079150506125a7565b8060600151156124f25760029150506125a7565b6124ff8160000151612742565b1561250e5760009150506125a7565b61251b8160200151612742565b1561252a5760019150506125a7565b612537816020015161275c565b1561256c5761254583612788565b80156125565750612555836127cf565b5b612561576003612564565b60045b9150506125a7565b6040517f08c379a000000000000000000000000000000000000000000000000000000000815260040161259e906148e9565b60405180910390fd5b919050565b6000806125bb868686866127fa565b90506000801b60036000838152602001908152602001600020541461269257600260009054906101000a900473ffffffffffffffffffffffffffffffffffffffff1673ffffffffffffffffffffffffffffffffffffffff1663c4d252f560036000848152602001908152602001600020546040518263ffffffff1660e01b8152600401612648919061356e565b600060405180830381600087803b15801561266257600080fd5b505af1158015612676573d6000803e3d6000fd5b5050505060036000828152602001908152602001600020600090555b80915050949350505050565b60007f01ffc9a7000000000000000000000000000000000000000000000000000000007bffffffffffffffffffffffffffffffffffffffffffffffffffffffff1916827bffffffffffffffffffffffffffffffffffffffffffffffffffffffff1916149050919050565b60008383834630604051602001612723959493929190614909565b6040516020818303038152906040528051906020012090509392505050565b600043826000015167ffffffffffffffff16119050919050565b600061276782612953565b8015612781575043826000015167ffffffffffffffff1611155b9050919050565b600080600560008481526020019081526020016000209050806002015481600101546127b49190613c0e565b6127c56127c085610d81565b6115a4565b1115915050919050565b6000806005600084815260200190815260200160002090508060000154816001015411915050919050565b600080612809868686866114c9565b9050600061281682610ea1565b90506002600781111561282c5761282b613128565b5b81600781111561283f5761283e613128565b5b1415801561287257506006600781111561285c5761285b613128565b5b81600781111561286f5761286e613128565b5b14155b80156128a2575060078081111561288c5761288b613128565b5b81600781111561289f5761289e613128565b5b14155b6128e1576040517f08c379a00000000000000000000000000000000000000000000000000000000081526004016128d8906149a8565b60405180910390fd5b600180600084815260200190815260200160002060020160016101000a81548160ff0219169083151502179055507f789cf55be980739dad1d0699b93b58e806b51c9d96619bfa8fe0a28abaa7b30c8260405161293e9190612a55565b60405180910390a18192505050949350505050565b600080826000015167ffffffffffffffff16119050919050565b6000604051905090565b600080fd5b600080fd5b60007fffffffff0000000000000000000000000000000000000000000000000000000082169050919050565b6129b681612981565b81146129c157600080fd5b50565b6000813590506129d3816129ad565b92915050565b6000602082840312156129ef576129ee612977565b5b60006129fd848285016129c4565b91505092915050565b60008115159050919050565b612a1b81612a06565b82525050565b6000602082019050612a366000830184612a12565b92915050565b6000819050919050565b612a4f81612a3c565b82525050565b6000602082019050612a6a6000830184612a46565b92915050565b612a7981612a3c565b8114612a8457600080fd5b50565b600081359050612a9681612a70565b92915050565b600060208284031215612ab257612ab1612977565b5b6000612ac084828501612a87565b91505092915050565b600081519050919050565b600082825260208201905092915050565b60005b83811015612b03578082015181840152602081019050612ae8565b83811115612b12576000848401525b50505050565b6000601f19601f8301169050919050565b6000612b3482612ac9565b612b3e8185612ad4565b9350612b4e818560208601612ae5565b612b5781612b18565b840191505092915050565b60006020820190508181036000830152612b7c8184612b29565b905092915050565b600080fd5b7f4e487b7100000000000000000000000000000000000000000000000000000000600052604160045260246000fd5b612bc182612b18565b810181811067ffffffffffffffff82111715612be057612bdf612b89565b5b80604052505050565b6000612bf361296d565b9050612bff8282612bb8565b919050565b600067ffffffffffffffff821115612c1f57612c1e612b89565b5b602082029050602081019050919050565b600080fd5b600073ffffffffffffffffffffffffffffffffffffffff82169050919050565b6000612c6082612c35565b9050919050565b612c7081612c55565b8114612c7b57600080fd5b50565b600081359050612c8d81612c67565b92915050565b6000612ca6612ca184612c04565b612be9565b90508083825260208201905060208402830185811115612cc957612cc8612c30565b5b835b81811015612cf25780612cde8882612c7e565b845260208401935050602081019050612ccb565b5050509392505050565b600082601f830112612d1157612d10612b84565b5b8135612d21848260208601612c93565b91505092915050565b600067ffffffffffffffff821115612d4557612d44612b89565b5b602082029050602081019050919050565b6000612d69612d6484612d2a565b612be9565b90508083825260208201905060208402830185811115612d8c57612d8b612c30565b5b835b81811015612db55780612da18882612a87565b845260208401935050602081019050612d8e565b5050509392505050565b600082601f830112612dd457612dd3612b84565b5b8135612de4848260208601612d56565b91505092915050565b600067ffffffffffffffff821115612e0857612e07612b89565b5b602082029050602081019050919050565b600080fd5b600067ffffffffffffffff821115612e3957612e38612b89565b5b612e4282612b18565b9050602081019050919050565b82818337600083830152505050565b6000612e71612e6c84612e1e565b612be9565b905082815260208101848484011115612e8d57612e8c612e19565b5b612e98848285612e4f565b509392505050565b600082601f830112612eb557612eb4612b84565b5b8135612ec5848260208601612e5e565b91505092915050565b6000612ee1612edc84612ded565b612be9565b90508083825260208201905060208402830185811115612f0457612f03612c30565b5b835b81811015612f4b57803567ffffffffffffffff811115612f2957612f28612b84565b5b808601612f368982612ea0565b85526020850194505050602081019050612f06565b5050509392505050565b600082601f830112612f6a57612f69612b84565b5b8135612f7a848260208601612ece565b91505092915050565b6000819050919050565b612f9681612f83565b8114612fa157600080fd5b50565b600081359050612fb381612f8d565b92915050565b60008060008060808587031215612fd357612fd2612977565b5b600085013567ffffffffffffffff811115612ff157612ff061297c565b5b612ffd87828801612cfc565b945050602085013567ffffffffffffffff81111561301e5761301d61297c565b5b61302a87828801612dbf565b935050604085013567ffffffffffffffff81111561304b5761304a61297c565b5b61305787828801612f55565b925050606061306887828801612fa4565b91505092959194509250565b600060ff82169050919050565b61308a81613074565b811461309557600080fd5b50565b6000813590506130a781613081565b92915050565b600080600080600060a086880312156130c9576130c8612977565b5b60006130d788828901612a87565b95505060206130e888828901613098565b94505060406130f988828901613098565b935050606061310a88828901612fa4565b925050608061311b88828901612fa4565b9150509295509295909350565b7f4e487b7100000000000000000000000000000000000000000000000000000000600052602160045260246000fd5b6008811061316857613167613128565b5b50565b600081905061317982613157565b919050565b60006131898261316b565b9050919050565b6131998161317e565b82525050565b60006020820190506131b46000830184613190565b92915050565b600080604083850312156131d1576131d0612977565b5b60006131df85828601612a87565b92505060206131f085828601612c7e565b9150509250929050565b600060608201905061320f6000830186612a46565b61321c6020830185612a46565b6132296040830184612a46565b949350505050565b6000806040838503121561324857613247612977565b5b600061325685828601612a87565b925050602061326785828601613098565b9150509250929050565b600080fd5b60008083601f84011261328c5761328b612b84565b5b8235905067ffffffffffffffff8111156132a9576132a8613271565b5b6020830191508360018202830111156132c5576132c4612c30565b5b9250929050565b600080600080606085870312156132e6576132e5612977565b5b60006132f487828801612a87565b945050602061330587828801613098565b935050604085013567ffffffffffffffff8111156133265761332561297c565b5b61333287828801613276565b925092505092959194509250565b600067ffffffffffffffff82111561335b5761335a612b89565b5b61336482612b18565b9050602081019050919050565b600061338461337f84613340565b612be9565b9050828152602081018484840111156133a05761339f612e19565b5b6133ab848285612e4f565b509392505050565b600082601f8301126133c8576133c7612b84565b5b81356133d8848260208601613371565b91505092915050565b600080600080608085870312156133fb576133fa612977565b5b600085013567ffffffffffffffff8111156134195761341861297c565b5b61342587828801612cfc565b945050602085013567ffffffffffffffff8111156134465761344561297c565b5b61345287828801612dbf565b935050604085013567ffffffffffffffff8111156134735761347261297c565b5b61347f87828801612f55565b925050606085013567ffffffffffffffff8111156134a05761349f61297c565b5b6134ac878288016133b3565b91505092959194509250565b60006134c382612c35565b9050919050565b60006134d5826134b8565b9050919050565b6134e5816134ca565b81146134f057600080fd5b50565b600081359050613502816134dc565b92915050565b60006020828403121561351e5761351d612977565b5b600061352c848285016134f3565b91505092915050565b61353e81612c55565b82525050565b60006020820190506135596000830184613535565b92915050565b61356881612f83565b82525050565b6000602082019050613583600083018461355f565b92915050565b600080604083850312156135a05761359f612977565b5b60006135ae85828601612c7e565b92505060206135bf85828601612a87565b9150509250929050565b6000819050919050565b60006135ee6135e96135e484612c35565b6135c9565b612c35565b9050919050565b6000613600826135d3565b9050919050565b6000613612826135f5565b9050919050565b61362281613607565b82525050565b600060208201905061363d6000830184613619565b92915050565b7f476f7665726e6f723a206f6e6c79476f7665726e616e63650000000000000000600082015250565b6000613679601883612ad4565b915061368482613643565b602082019050919050565b600060208201905081810360008301526136a88161366c565b9050919050565b7f4e487b7100000000000000000000000000000000000000000000000000000000600052602260045260246000fd5b600060028204905060018216806136f657607f821691505b6020821081141561370a576137096136af565b5b50919050565b7f476f7665726e6f723a2070726f706f73616c206e6f742073756363657373667560008201527f6c00000000000000000000000000000000000000000000000000000000000000602082015250565b600061376c602183612ad4565b915061377782613710565b604082019050919050565b6000602082019050818103600083015261379b8161375f565b9050919050565b6000815190506137b181612a70565b92915050565b6000602082840312156137cd576137cc612977565b5b60006137db848285016137a2565b91505092915050565b600081519050919050565b600082825260208201905092915050565b6000819050602082019050919050565b61381981612c55565b82525050565b600061382b8383613810565b60208301905092915050565b6000602082019050919050565b600061384f826137e4565b61385981856137ef565b935061386483613800565b8060005b8381101561389557815161387c888261381f565b975061388783613837565b925050600181019050613868565b5085935050505092915050565b600081519050919050565b600082825260208201905092915050565b6000819050602082019050919050565b6138d781612a3c565b82525050565b60006138e983836138ce565b60208301905092915050565b6000602082019050919050565b600061390d826138a2565b61391781856138ad565b9350613922836138be565b8060005b8381101561395357815161393a88826138dd565b9750613945836138f5565b925050600181019050613926565b5085935050505092915050565b600081519050919050565b600082825260208201905092915050565b6000819050602082019050919050565b600081519050919050565b600082825260208201905092915050565b60006139b38261398c565b6139bd8185613997565b93506139cd818560208601612ae5565b6139d681612b18565b840191505092915050565b60006139ed83836139a8565b905092915050565b6000602082019050919050565b6000613a0d82613960565b613a17818561396b565b935083602082028501613a298561397c565b8060005b85811015613a655784840389528151613a4685826139e1565b9450613a51836139f5565b925060208a01995050600181019050613a2d565b50829750879550505050505092915050565b6000819050919050565b60008160001b9050919050565b6000613aa9613aa4613a9f84613a77565b613a81565b612f83565b9050919050565b613ab981613a8e565b82525050565b600060a0820190508181036000830152613ad98188613844565b90508181036020830152613aed8187613902565b90508181036040830152613b018186613a02565b9050613b106060830185613ab0565b613b1d608083018461355f565b9695505050505050565b600081519050613b3681612f8d565b92915050565b600060208284031215613b5257613b51612977565b5b6000613b6084828501613b27565b91505092915050565b600060c0820190508181036000830152613b838189613844565b90508181036020830152613b978188613902565b90508181036040830152613bab8187613a02565b9050613bba6060830186613ab0565b613bc7608083018561355f565b613bd460a0830184612a46565b979650505050505050565b7f4e487b7100000000000000000000000000000000000000000000000000000000600052601160045260246000fd5b6000613c1982612a3c565b9150613c2483612a3c565b9250827fffffffffffffffffffffffffffffffffffffffffffffffffffffffffffffffff03821115613c5957613c58613bdf565b5b828201905092915050565b6000604082019050613c796000830185612a46565b613c866020830184612a46565b9392505050565b613c9681613074565b82525050565b6000606082019050613cb1600083018661355f565b613cbe6020830185612a46565b613ccb6040830184613c8d565b949350505050565b7f476f7665726e6f723a20696e76616c69642070726f706f73616c206c656e677460008201527f6800000000000000000000000000000000000000000000000000000000000000602082015250565b6000613d2f602183612ad4565b9150613d3a82613cd3565b604082019050919050565b60006020820190508181036000830152613d5e81613d22565b9050919050565b7f476f7665726e6f723a20656d7074792070726f706f73616c0000000000000000600082015250565b6000613d9b601883612ad4565b9150613da682613d65565b602082019050919050565b60006020820190508181036000830152613dca81613d8e565b9050919050565b7f476f7665726e6f723a2070726f706f73616c20616c726561647920657869737460008201527f7300000000000000000000000000000000000000000000000000000000000000602082015250565b6000613e2d602183612ad4565b9150613e3882613dd1565b604082019050919050565b60006020820190508181036000830152613e5c81613e20565b9050919050565b600067ffffffffffffffff82169050919050565b6000613e8282613e63565b9150613e8d83613e63565b92508267ffffffffffffffff03821115613eaa57613ea9613bdf565b5b828201905092915050565b600081519050919050565b600082825260208201905092915050565b6000819050602082019050919050565b600082825260208201905092915050565b6000613efd82612ac9565b613f078185613ee1565b9350613f17818560208601612ae5565b613f2081612b18565b840191505092915050565b6000613f378383613ef2565b905092915050565b6000602082019050919050565b6000613f5782613eb5565b613f618185613ec0565b935083602082028501613f7385613ed1565b8060005b85811015613faf5784840389528151613f908582613f2b565b9450613f9b83613f3f565b925060208a01995050600181019050613f77565b50829750879550505050505092915050565b6000613fdc613fd7613fd284613e63565b6135c9565b612a3c565b9050919050565b613fec81613fc1565b82525050565b600061012082019050614008600083018c612a46565b614015602083018b613535565b8181036040830152614027818a613844565b9050818103606083015261403b8189613902565b9050818103608083015261404f8188613f4c565b905081810360a08301526140638187613a02565b905061407260c0830186613fe3565b61407f60e0830185613fe3565b8181036101008301526140928184612b29565b90509a9950505050505050505050565b600060808201905081810360008301526140bc8187613844565b905081810360208301526140d08186613902565b905081810360408301526140e48185613a02565b90506140f3606083018461355f565b95945050505050565b7f476f7665726e6f72566f74657351756f72756d4672616374696f6e3a2071756f60008201527f72756d4e756d657261746f72206f7665722071756f72756d44656e6f6d696e6160208201527f746f720000000000000000000000000000000000000000000000000000000000604082015250565b600061417e604383612ad4565b9150614189826140fc565b606082019050919050565b600060208201905081810360008301526141ad81614171565b9050919050565b7f476f7665726e6f723a20766f7465206e6f742063757272656e746c792061637460008201527f6976650000000000000000000000000000000000000000000000000000000000602082015250565b6000614210602383612ad4565b915061421b826141b4565b604082019050919050565b6000602082019050818103600083015261423f81614203565b9050919050565b600060808201905061425b6000830187612a46565b6142686020830186613c8d565b6142756040830185612a46565b81810360608301526142878184612b29565b905095945050505050565b61429b81612a06565b81146142a657600080fd5b50565b6000815190506142b881614292565b92915050565b6000602082840312156142d4576142d3612977565b5b60006142e2848285016142a9565b91505092915050565b7f53616665436173743a2076616c756520646f65736e27742066697420696e203660008201527f3420626974730000000000000000000000000000000000000000000000000000602082015250565b6000614347602683612ad4565b9150614352826142eb565b604082019050919050565b600060208201905081810360008301526143768161433a565b9050919050565b60006040820190506143926000830185613535565b61439f6020830184613535565b9392505050565b60006040820190506143bb6000830185613535565b6143c86020830184612a46565b9392505050565b60006143da82612a3c565b91506143e583612a3c565b9250817fffffffffffffffffffffffffffffffffffffffffffffffffffffffffffffffff048311821515161561441e5761441d613bdf565b5b828202905092915050565b7f4e487b7100000000000000000000000000000000000000000000000000000000600052601260045260246000fd5b600061446382612a3c565b915061446e83612a3c565b92508261447e5761447d614429565b5b828204905092915050565b600081905092915050565b7f1901000000000000000000000000000000000000000000000000000000000000600082015250565b60006144ca600283614489565b91506144d582614494565b600282019050919050565b6000819050919050565b6144fb6144f682612f83565b6144e0565b82525050565b600061450c826144bd565b915061451882856144ea565b60208201915061452882846144ea565b6020820191508190509392505050565b600060808201905061454d600083018761355f565b61455a6020830186613c8d565b614567604083018561355f565b614574606083018461355f565b95945050505050565b7f45434453413a20696e76616c6964207369676e61747572650000000000000000600082015250565b60006145b3601883612ad4565b91506145be8261457d565b602082019050919050565b600060208201905081810360008301526145e2816145a6565b9050919050565b7f45434453413a20696e76616c6964207369676e6174757265206c656e67746800600082015250565b600061461f601f83612ad4565b915061462a826145e9565b602082019050919050565b6000602082019050818103600083015261464e81614612565b9050919050565b7f45434453413a20696e76616c6964207369676e6174757265202773272076616c60008201527f7565000000000000000000000000000000000000000000000000000000000000602082015250565b60006146b1602283612ad4565b91506146bc82614655565b604082019050919050565b600060208201905081810360008301526146e0816146a4565b9050919050565b7f45434453413a20696e76616c6964207369676e6174757265202776272076616c60008201527f7565000000000000000000000000000000000000000000000000000000000000602082015250565b6000614743602283612ad4565b915061474e826146e7565b604082019050919050565b6000602082019050818103600083015261477281614736565b9050919050565b7f476f7665726e6f72566f74696e6753696d706c653a20766f746520616c72656160008201527f6479206361737400000000000000000000000000000000000000000000000000602082015250565b60006147d5602783612ad4565b91506147e082614779565b604082019050919050565b60006020820190508181036000830152614804816147c8565b9050919050565b7f476f7665726e6f72566f74696e6753696d706c653a20696e76616c696420766160008201527f6c756520666f7220656e756d20566f7465547970650000000000000000000000602082015250565b6000614867603583612ad4565b91506148728261480b565b604082019050919050565b600060208201905081810360008301526148968161485a565b9050919050565b7f476f7665726e6f723a20756e6b6e6f776e2070726f706f73616c206964000000600082015250565b60006148d3601d83612ad4565b91506148de8261489d565b602082019050919050565b60006020820190508181036000830152614902816148c6565b9050919050565b600060a08201905061491e600083018861355f565b61492b602083018761355f565b614938604083018661355f565b6149456060830185612a46565b6149526080830184613535565b9695505050505050565b7f476f7665726e6f723a2070726f706f73616c206e6f7420616374697665000000600082015250565b6000614992601d83612ad4565b915061499d8261495c565b602082019050919050565b600060208201905081810360008301526149c181614985565b905091905056fea264697066735822122055ccbbf13eea6356ea0ecbf3f71f614a3d2554e9806acc999d2a5bb04c4e9b5564736f6c63430008090033",
  "immutableReferences": {
    "7082": [
      {
        "length": 32,
        "start": 5560
      },
      {
        "length": 32,
        "start": 7016
      },
      {
        "length": 32,
        "start": 7213
      }
    ],
    "12597": [
      {
        "length": 32,
        "start": 3571
      }
    ],
    "12599": [
      {
        "length": 32,
        "start": 2104
      }
    ],
    "26329": [
      {
        "length": 32,
        "start": 7731
      }
    ],
    "26331": [
      {
        "length": 32,
        "start": 7691
      }
    ],
    "26333": [
      {
        "length": 32,
        "start": 7807
      }
    ],
    "26335": [
      {
        "length": 32,
        "start": 7840
      }
    ],
    "26337": [
      {
        "length": 32,
        "start": 7774
      }
    ]
  },
  "source": "// SPDX-License-Identifier: MIT\r\n\r\npragma solidity ^0.8.0;\r\n\r\nimport \"../governance/extensions/GovernorTimelockControl.sol\";\r\nimport \"../governance/extensions/GovernorCountingSimple.sol\";\r\nimport \"../governance/extensions/GovernorVotesQuorumFraction.sol\";\r\n\r\ncontract GovernorTimelockControlMock is GovernorTimelockControl, GovernorVotesQuorumFraction, GovernorCountingSimple {\r\n    uint256 immutable _votingDelay;\r\n    uint256 immutable _votingPeriod;\r\n\r\n    constructor(\r\n        string memory name_,\r\n        ERC20Votes token_,\r\n        uint256 votingDelay_,\r\n        uint256 votingPeriod_,\r\n        TimelockController timelock_,\r\n        uint256 quorumNumerator_\r\n    )\r\n        Governor(name_)\r\n        GovernorTimelockControl(timelock_)\r\n        GovernorVotes(token_)\r\n        GovernorVotesQuorumFraction(quorumNumerator_)\r\n    {\r\n        _votingDelay = votingDelay_;\r\n        _votingPeriod = votingPeriod_;\r\n    }\r\n\r\n    function supportsInterface(bytes4 interfaceId)\r\n        public\r\n        view\r\n        virtual\r\n        override(Governor, GovernorTimelockControl)\r\n        returns (bool)\r\n    {\r\n        return super.supportsInterface(interfaceId);\r\n    }\r\n\r\n    function votingDelay() public view override returns (uint256) {\r\n        return _votingDelay;\r\n    }\r\n\r\n    function votingPeriod() public view override returns (uint256) {\r\n        return _votingPeriod;\r\n    }\r\n\r\n    function quorum(uint256 blockNumber)\r\n        public\r\n        view\r\n        override(IGovernor, GovernorVotesQuorumFraction)\r\n        returns (uint256)\r\n    {\r\n        return super.quorum(blockNumber);\r\n    }\r\n\r\n    function cancel(\r\n        address[] memory targets,\r\n        uint256[] memory values,\r\n        bytes[] memory calldatas,\r\n        bytes32 descriptionHash\r\n    ) public returns (uint256 proposalId) {\r\n        return _cancel(targets, values, calldatas, descriptionHash);\r\n    }\r\n\r\n    /**\r\n     * Overriding nightmare\r\n     */\r\n    function state(uint256 proposalId)\r\n        public\r\n        view\r\n        virtual\r\n        override(Governor, GovernorTimelockControl)\r\n        returns (ProposalState)\r\n    {\r\n        return super.state(proposalId);\r\n    }\r\n\r\n    function _execute(\r\n        uint256 proposalId,\r\n        address[] memory targets,\r\n        uint256[] memory values,\r\n        bytes[] memory calldatas,\r\n        bytes32 descriptionHash\r\n    ) internal virtual override(Governor, GovernorTimelockControl) {\r\n        super._execute(proposalId, targets, values, calldatas, descriptionHash);\r\n    }\r\n\r\n    function _cancel(\r\n        address[] memory targets,\r\n        uint256[] memory values,\r\n        bytes[] memory calldatas,\r\n        bytes32 descriptionHash\r\n    ) internal virtual override(Governor, GovernorTimelockControl) returns (uint256 proposalId) {\r\n        return super._cancel(targets, values, calldatas, descriptionHash);\r\n    }\r\n\r\n    function getVotes(address account, uint256 blockNumber)\r\n        public\r\n        view\r\n        virtual\r\n        override(IGovernor, GovernorVotes)\r\n        returns (uint256)\r\n    {\r\n        return super.getVotes(account, blockNumber);\r\n    }\r\n\r\n    function _executor() internal view virtual override(Governor, GovernorTimelockControl) returns (address) {\r\n        return super._executor();\r\n    }\r\n}\r\n",
  "sourcePath": "C:\\Climax\\NFT-marketplace\\contracts\\openzeppelin-solidity\\contracts\\mocks\\GovernorTimelockControlMock.sol",
  "compiler": {
    "name": "solc",
    "version": "0.8.9+commit.e5eed63a.Emscripten.clang"
  },
  "schemaVersion": "3.4.3",
  "updatedAt": "2021-10-26T11:45:25.804Z",
  "devdoc": {
    "kind": "dev",
    "methods": {
      "COUNTING_MODE()": {
        "details": "See {IGovernor-COUNTING_MODE}."
      },
      "castVote(uint256,uint8)": {
        "details": "See {IGovernor-castVote}."
      },
      "castVoteBySig(uint256,uint8,uint8,bytes32,bytes32)": {
        "details": "See {IGovernor-castVoteBySig}."
      },
      "castVoteWithReason(uint256,uint8,string)": {
        "details": "See {IGovernor-castVoteWithReason}."
      },
      "execute(address[],uint256[],bytes[],bytes32)": {
        "details": "See {IGovernor-execute}."
      },
      "hasVoted(uint256,address)": {
        "details": "See {IGovernor-hasVoted}."
      },
      "hashProposal(address[],uint256[],bytes[],bytes32)": {
        "details": "See {IGovernor-hashProposal}. The proposal id is produced by hashing the RLC encoded `targets` array, the `values` array, the `calldatas` array and the descriptionHash (bytes32 which itself is the keccak256 hash of the description string). This proposal id can be produced from the proposal data which is part of the {ProposalCreated} event. It can even be computed in advance, before the proposal is submitted. Note that the chainId and the governor address are not part of the proposal id computation. Consequently, the same proposal (with same operation and same description) will have the same id if submitted on multiple governors accross multiple networks. This also means that in order to execute the same operation twice (on the same governor) the proposer will have to change the description in order to avoid proposal id conflicts."
      },
      "name()": {
        "details": "See {IGovernor-name}."
      },
      "proposalDeadline(uint256)": {
        "details": "See {IGovernor-proposalDeadline}."
      },
      "proposalEta(uint256)": {
        "details": "Public accessor to check the eta of a queued proposal"
      },
      "proposalSnapshot(uint256)": {
        "details": "See {IGovernor-proposalSnapshot}."
      },
      "proposalVotes(uint256)": {
        "details": "Accessor to the internal vote counts."
      },
      "propose(address[],uint256[],bytes[],string)": {
        "details": "See {IGovernor-propose}."
      },
      "queue(address[],uint256[],bytes[],bytes32)": {
        "details": "Function to queue a proposal to the timelock."
      },
      "timelock()": {
        "details": "Public accessor to check the address of the timelock"
      },
      "updateTimelock(address)": {
        "details": "Public endpoint to update the underlying timelock instance. Restricted to the timelock itself, so updates must be proposed, scheduled and executed using the {Governor} workflow."
      },
      "version()": {
        "details": "See {IGovernor-version}."
      },
      "votingDelay()": {
        "details": "delay, in number of block, between the proposal is created and the vote starts. This can be increassed to leave time for users to buy voting power, of delegate it, before the voting of a proposal starts."
      },
      "votingPeriod()": {
        "details": "delay, in number of blocks, between the vote start and vote ends. Note: the {votingDelay} can delay the start of the vote. This must be considered when setting the voting duration compared to the voting delay."
      }
    },
    "version": 1
  },
  "userdoc": {
    "kind": "user",
    "methods": {
      "state(uint256)": {
        "notice": "Overriding nightmare"
      },
      "votingDelay()": {
        "notice": "module:user-config"
      },
      "votingPeriod()": {
        "notice": "module:user-config"
      }
    },
    "version": 1
  }
}