{
  "contractName": "GovernorMock",
  "abi": [
    {
      "inputs": [
        {
          "internalType": "string",
          "name": "name_",
          "type": "string"
        },
        {
          "internalType": "contract ERC20Votes",
          "name": "token_",
          "type": "address"
        },
        {
          "internalType": "uint256",
          "name": "votingDelay_",
          "type": "uint256"
        },
        {
          "internalType": "uint256",
          "name": "votingPeriod_",
          "type": "uint256"
        },
        {
          "internalType": "uint256",
          "name": "quorumNumerator_",
          "type": "uint256"
        }
      ],
      "stateMutability": "nonpayable",
      "type": "constructor"
    },
    {
      "anonymous": false,
      "inputs": [
        {
          "indexed": false,
          "internalType": "uint256",
          "name": "proposalId",
          "type": "uint256"
        }
      ],
      "name": "ProposalCanceled",
      "type": "event"
    },
    {
      "anonymous": false,
      "inputs": [
        {
          "indexed": false,
          "internalType": "uint256",
          "name": "proposalId",
          "type": "uint256"
        },
        {
          "indexed": false,
          "internalType": "address",
          "name": "proposer",
          "type": "address"
        },
        {
          "indexed": false,
          "internalType": "address[]",
          "name": "targets",
          "type": "address[]"
        },
        {
          "indexed": false,
          "internalType": "uint256[]",
          "name": "values",
          "type": "uint256[]"
        },
        {
          "indexed": false,
          "internalType": "string[]",
          "name": "signatures",
          "type": "string[]"
        },
        {
          "indexed": false,
          "internalType": "bytes[]",
          "name": "calldatas",
          "type": "bytes[]"
        },
        {
          "indexed": false,
          "internalType": "uint256",
          "name": "startBlock",
          "type": "uint256"
        },
        {
          "indexed": false,
          "internalType": "uint256",
          "name": "endBlock",
          "type": "uint256"
        },
        {
          "indexed": false,
          "internalType": "string",
          "name": "description",
          "type": "string"
        }
      ],
      "name": "ProposalCreated",
      "type": "event"
    },
    {
      "anonymous": false,
      "inputs": [
        {
          "indexed": false,
          "internalType": "uint256",
          "name": "proposalId",
          "type": "uint256"
        }
      ],
      "name": "ProposalExecuted",
      "type": "event"
    },
    {
      "anonymous": false,
      "inputs": [
        {
          "indexed": false,
          "internalType": "uint256",
          "name": "oldQuorumNumerator",
          "type": "uint256"
        },
        {
          "indexed": false,
          "internalType": "uint256",
          "name": "newQuorumNumerator",
          "type": "uint256"
        }
      ],
      "name": "QuorumNumeratorUpdated",
      "type": "event"
    },
    {
      "anonymous": false,
      "inputs": [
        {
          "indexed": true,
          "internalType": "address",
          "name": "voter",
          "type": "address"
        },
        {
          "indexed": false,
          "internalType": "uint256",
          "name": "proposalId",
          "type": "uint256"
        },
        {
          "indexed": false,
          "internalType": "uint8",
          "name": "support",
          "type": "uint8"
        },
        {
          "indexed": false,
          "internalType": "uint256",
          "name": "weight",
          "type": "uint256"
        },
        {
          "indexed": false,
          "internalType": "string",
          "name": "reason",
          "type": "string"
        }
      ],
      "name": "VoteCast",
      "type": "event"
    },
    {
      "inputs": [],
      "name": "BALLOT_TYPEHASH",
      "outputs": [
        {
          "internalType": "bytes32",
          "name": "",
          "type": "bytes32"
        }
      ],
      "stateMutability": "view",
      "type": "function"
    },
    {
      "inputs": [],
      "name": "COUNTING_MODE",
      "outputs": [
        {
          "internalType": "string",
          "name": "",
          "type": "string"
        }
      ],
      "stateMutability": "pure",
      "type": "function"
    },
    {
      "inputs": [
        {
          "internalType": "uint256",
          "name": "proposalId",
          "type": "uint256"
        },
        {
          "internalType": "uint8",
          "name": "support",
          "type": "uint8"
        }
      ],
      "name": "castVote",
      "outputs": [
        {
          "internalType": "uint256",
          "name": "",
          "type": "uint256"
        }
      ],
      "stateMutability": "nonpayable",
      "type": "function"
    },
    {
      "inputs": [
        {
          "internalType": "uint256",
          "name": "proposalId",
          "type": "uint256"
        },
        {
          "internalType": "uint8",
          "name": "support",
          "type": "uint8"
        },
        {
          "internalType": "uint8",
          "name": "v",
          "type": "uint8"
        },
        {
          "internalType": "bytes32",
          "name": "r",
          "type": "bytes32"
        },
        {
          "internalType": "bytes32",
          "name": "s",
          "type": "bytes32"
        }
      ],
      "name": "castVoteBySig",
      "outputs": [
        {
          "internalType": "uint256",
          "name": "",
          "type": "uint256"
        }
      ],
      "stateMutability": "nonpayable",
      "type": "function"
    },
    {
      "inputs": [
        {
          "internalType": "uint256",
          "name": "proposalId",
          "type": "uint256"
        },
        {
          "internalType": "uint8",
          "name": "support",
          "type": "uint8"
        },
        {
          "internalType": "string",
          "name": "reason",
          "type": "string"
        }
      ],
      "name": "castVoteWithReason",
      "outputs": [
        {
          "internalType": "uint256",
          "name": "",
          "type": "uint256"
        }
      ],
      "stateMutability": "nonpayable",
      "type": "function"
    },
    {
      "inputs": [
        {
          "internalType": "address[]",
          "name": "targets",
          "type": "address[]"
        },
        {
          "internalType": "uint256[]",
          "name": "values",
          "type": "uint256[]"
        },
        {
          "internalType": "bytes[]",
          "name": "calldatas",
          "type": "bytes[]"
        },
        {
          "internalType": "bytes32",
          "name": "descriptionHash",
          "type": "bytes32"
        }
      ],
      "name": "execute",
      "outputs": [
        {
          "internalType": "uint256",
          "name": "",
          "type": "uint256"
        }
      ],
      "stateMutability": "payable",
      "type": "function"
    },
    {
      "inputs": [
        {
          "internalType": "uint256",
          "name": "proposalId",
          "type": "uint256"
        },
        {
          "internalType": "address",
          "name": "account",
          "type": "address"
        }
      ],
      "name": "hasVoted",
      "outputs": [
        {
          "internalType": "bool",
          "name": "",
          "type": "bool"
        }
      ],
      "stateMutability": "view",
      "type": "function"
    },
    {
      "inputs": [
        {
          "internalType": "address[]",
          "name": "targets",
          "type": "address[]"
        },
        {
          "internalType": "uint256[]",
          "name": "values",
          "type": "uint256[]"
        },
        {
          "internalType": "bytes[]",
          "name": "calldatas",
          "type": "bytes[]"
        },
        {
          "internalType": "bytes32",
          "name": "descriptionHash",
          "type": "bytes32"
        }
      ],
      "name": "hashProposal",
      "outputs": [
        {
          "internalType": "uint256",
          "name": "",
          "type": "uint256"
        }
      ],
      "stateMutability": "pure",
      "type": "function"
    },
    {
      "inputs": [],
      "name": "name",
      "outputs": [
        {
          "internalType": "string",
          "name": "",
          "type": "string"
        }
      ],
      "stateMutability": "view",
      "type": "function"
    },
    {
      "inputs": [
        {
          "internalType": "uint256",
          "name": "proposalId",
          "type": "uint256"
        }
      ],
      "name": "proposalDeadline",
      "outputs": [
        {
          "internalType": "uint256",
          "name": "",
          "type": "uint256"
        }
      ],
      "stateMutability": "view",
      "type": "function"
    },
    {
      "inputs": [
        {
          "internalType": "uint256",
          "name": "proposalId",
          "type": "uint256"
        }
      ],
      "name": "proposalSnapshot",
      "outputs": [
        {
          "internalType": "uint256",
          "name": "",
          "type": "uint256"
        }
      ],
      "stateMutability": "view",
      "type": "function"
    },
    {
      "inputs": [
        {
          "internalType": "uint256",
          "name": "proposalId",
          "type": "uint256"
        }
      ],
      "name": "proposalVotes",
      "outputs": [
        {
          "internalType": "uint256",
          "name": "againstVotes",
          "type": "uint256"
        },
        {
          "internalType": "uint256",
          "name": "forVotes",
          "type": "uint256"
        },
        {
          "internalType": "uint256",
          "name": "abstainVotes",
          "type": "uint256"
        }
      ],
      "stateMutability": "view",
      "type": "function"
    },
    {
      "inputs": [
        {
          "internalType": "address[]",
          "name": "targets",
          "type": "address[]"
        },
        {
          "internalType": "uint256[]",
          "name": "values",
          "type": "uint256[]"
        },
        {
          "internalType": "bytes[]",
          "name": "calldatas",
          "type": "bytes[]"
        },
        {
          "internalType": "string",
          "name": "description",
          "type": "string"
        }
      ],
      "name": "propose",
      "outputs": [
        {
          "internalType": "uint256",
          "name": "",
          "type": "uint256"
        }
      ],
      "stateMutability": "nonpayable",
      "type": "function"
    },
    {
      "inputs": [
        {
          "internalType": "uint256",
          "name": "blockNumber",
          "type": "uint256"
        }
      ],
      "name": "quorum",
      "outputs": [
        {
          "internalType": "uint256",
          "name": "",
          "type": "uint256"
        }
      ],
      "stateMutability": "view",
      "type": "function"
    },
    {
      "inputs": [],
      "name": "quorumDenominator",
      "outputs": [
        {
          "internalType": "uint256",
          "name": "",
          "type": "uint256"
        }
      ],
      "stateMutability": "view",
      "type": "function"
    },
    {
      "inputs": [],
      "name": "quorumNumerator",
      "outputs": [
        {
          "internalType": "uint256",
          "name": "",
          "type": "uint256"
        }
      ],
      "stateMutability": "view",
      "type": "function"
    },
    {
      "inputs": [
        {
          "internalType": "uint256",
          "name": "proposalId",
          "type": "uint256"
        }
      ],
      "name": "state",
      "outputs": [
        {
          "internalType": "enum IGovernor.ProposalState",
          "name": "",
          "type": "uint8"
        }
      ],
      "stateMutability": "view",
      "type": "function"
    },
    {
      "inputs": [
        {
          "internalType": "bytes4",
          "name": "interfaceId",
          "type": "bytes4"
        }
      ],
      "name": "supportsInterface",
      "outputs": [
        {
          "internalType": "bool",
          "name": "",
          "type": "bool"
        }
      ],
      "stateMutability": "view",
      "type": "function"
    },
    {
      "inputs": [],
      "name": "token",
      "outputs": [
        {
          "internalType": "contract ERC20Votes",
          "name": "",
          "type": "address"
        }
      ],
      "stateMutability": "view",
      "type": "function"
    },
    {
      "inputs": [
        {
          "internalType": "uint256",
          "name": "newQuorumNumerator",
          "type": "uint256"
        }
      ],
      "name": "updateQuorumNumerator",
      "outputs": [],
      "stateMutability": "nonpayable",
      "type": "function"
    },
    {
      "inputs": [],
      "name": "version",
      "outputs": [
        {
          "internalType": "string",
          "name": "",
          "type": "string"
        }
      ],
      "stateMutability": "view",
      "type": "function"
    },
    {
      "stateMutability": "payable",
      "type": "receive"
    },
    {
      "inputs": [],
      "name": "votingDelay",
      "outputs": [
        {
          "internalType": "uint256",
          "name": "",
          "type": "uint256"
        }
      ],
      "stateMutability": "view",
      "type": "function"
    },
    {
      "inputs": [],
      "name": "votingPeriod",
      "outputs": [
        {
          "internalType": "uint256",
          "name": "",
          "type": "uint256"
        }
      ],
      "stateMutability": "view",
      "type": "function"
    },
    {
      "inputs": [
        {
          "internalType": "address[]",
          "name": "targets",
          "type": "address[]"
        },
        {
          "internalType": "uint256[]",
          "name": "values",
          "type": "uint256[]"
        },
        {
          "internalType": "bytes[]",
          "name": "calldatas",
          "type": "bytes[]"
        },
        {
          "internalType": "bytes32",
          "name": "salt",
          "type": "bytes32"
        }
      ],
      "name": "cancel",
      "outputs": [
        {
          "internalType": "uint256",
          "name": "proposalId",
          "type": "uint256"
        }
      ],
      "stateMutability": "nonpayable",
      "type": "function"
    },
    {
      "inputs": [
        {
          "internalType": "address",
          "name": "account",
          "type": "address"
        },
        {
          "internalType": "uint256",
          "name": "blockNumber",
          "type": "uint256"
        }
      ],
      "name": "getVotes",
      "outputs": [
        {
          "internalType": "uint256",
          "name": "",
          "type": "uint256"
        }
      ],
      "stateMutability": "view",
      "type": "function"
    }
  ],
  "bytecode": "0x6101806040523480156200001257600080fd5b50604051620048643803806200486483398181016040528101906200003891906200056d565b808486806200004c6200014860201b60201c565b60008280519060200120905060008280519060200120905060007f8b73c3c69bb8fe3d512ecc4cf759cc79239f7b179b0ffacaa9a75d522b39400f90508260c081815250508160e081815250504660a08181525050620000b48184846200018560201b60201c565b6080818152505080610100818152505050505050508060009080519060200190620000e19291906200026c565b50508073ffffffffffffffffffffffffffffffffffffffff166101208173ffffffffffffffffffffffffffffffffffffffff1681525050506200012a81620001c160201b60201c565b5082610140818152505081610160818152505050505050506200080f565b60606040518060400160405280600181526020017f3100000000000000000000000000000000000000000000000000000000000000815250905090565b60008383834630604051602001620001a295949392919062000651565b6040516020818303038152906040528051906020012090509392505050565b620001d16200026360201b60201c565b81111562000216576040517f08c379a00000000000000000000000000000000000000000000000000000000081526004016200020d906200075b565b60405180910390fd5b60006002549050816002819055507f0553476bf02ef2726e8ce5ced78d63e26e602e4a2257b1f559418e24b46339978183604051620002579291906200077d565b60405180910390a15050565b60006064905090565b8280546200027a90620007d9565b90600052602060002090601f0160209004810192826200029e5760008555620002ea565b82601f10620002b957805160ff1916838001178555620002ea565b82800160010185558215620002ea579182015b82811115620002e9578251825591602001919060010190620002cc565b5b509050620002f99190620002fd565b5090565b5b8082111562000318576000816000905550600101620002fe565b5090565b6000604051905090565b600080fd5b600080fd5b600080fd5b600080fd5b6000601f19601f8301169050919050565b7f4e487b7100000000000000000000000000000000000000000000000000000000600052604160045260246000fd5b62000385826200033a565b810181811067ffffffffffffffff82111715620003a757620003a66200034b565b5b80604052505050565b6000620003bc6200031c565b9050620003ca82826200037a565b919050565b600067ffffffffffffffff821115620003ed57620003ec6200034b565b5b620003f8826200033a565b9050602081019050919050565b60005b838110156200042557808201518184015260208101905062000408565b8381111562000435576000848401525b50505050565b6000620004526200044c84620003cf565b620003b0565b90508281526020810184848401111562000471576200047062000335565b5b6200047e84828562000405565b509392505050565b600082601f8301126200049e576200049d62000330565b5b8151620004b08482602086016200043b565b91505092915050565b600073ffffffffffffffffffffffffffffffffffffffff82169050919050565b6000620004e682620004b9565b9050919050565b6000620004fa82620004d9565b9050919050565b6200050c81620004ed565b81146200051857600080fd5b50565b6000815190506200052c8162000501565b92915050565b6000819050919050565b620005478162000532565b81146200055357600080fd5b50565b60008151905062000567816200053c565b92915050565b600080600080600060a086880312156200058c576200058b62000326565b5b600086015167ffffffffffffffff811115620005ad57620005ac6200032b565b5b620005bb8882890162000486565b9550506020620005ce888289016200051b565b9450506040620005e18882890162000556565b9350506060620005f48882890162000556565b9250506080620006078882890162000556565b9150509295509295909350565b6000819050919050565b620006298162000614565b82525050565b6200063a8162000532565b82525050565b6200064b81620004d9565b82525050565b600060a0820190506200066860008301886200061e565b6200067760208301876200061e565b6200068660408301866200061e565b6200069560608301856200062f565b620006a4608083018462000640565b9695505050505050565b600082825260208201905092915050565b7f476f7665726e6f72566f74657351756f72756d4672616374696f6e3a2071756f60008201527f72756d4e756d657261746f72206f7665722071756f72756d44656e6f6d696e6160208201527f746f720000000000000000000000000000000000000000000000000000000000604082015250565b600062000743604383620006ae565b91506200075082620006bf565b606082019050919050565b60006020820190508181036000830152620007768162000734565b9050919050565b60006040820190506200079460008301856200062f565b620007a360208301846200062f565b9392505050565b7f4e487b7100000000000000000000000000000000000000000000000000000000600052602260045260246000fd5b60006002820490506001821680620007f257607f821691505b60208210811415620008095762000808620007aa565b5b50919050565b60805160a05160c05160e05161010051610120516101405161016051613fe162000883600039600061076f01526000610a5201526000818161123e01528181611302015261199601526000611b0501526000611b4701526000611b2601526000611ab201526000611ada0152613fe16000f3fe60806040526004361061016a5760003560e01c806354fd4d50116100d1578063c01f9e371161008a578063deaaa7cc11610064578063deaaa7cc14610619578063eb9019d414610644578063f8ce560a14610681578063fc0c546a146106be576101b0565b8063c01f9e3714610574578063c59057e4146105b1578063dd4e2ba5146105ee576101b0565b806354fd4d501461043c57806356781388146104675780637b3c71d3146104a45780637d5e81e2146104e157806397c3d3341461051e578063a7713a7014610549576101b0565b80633932abb1116101235780633932abb1146102de5780633bccf4fd146103095780633e4f49e6146103465780634385963214610383578063452115d6146103c0578063544ffc9c146103fd576101b0565b806301ffc9a7146101b557806302a251a3146101f257806306f3f9e61461021d57806306fdde03146102465780632656227d146102715780632d63f693146102a1576101b0565b366101b0573073ffffffffffffffffffffffffffffffffffffffff1661018e6106e9565b73ffffffffffffffffffffffffffffffffffffffff16146101ae57600080fd5b005b600080fd5b3480156101c157600080fd5b506101dc60048036038101906101d7919061214c565b6106f1565b6040516101e99190612194565b60405180910390f35b3480156101fe57600080fd5b5061020761076b565b60405161021491906121c8565b60405180910390f35b34801561022957600080fd5b50610244600480360381019061023f919061220f565b610793565b005b34801561025257600080fd5b5061025b61081b565b60405161026891906122d5565b60405180910390f35b61028b6004803603810190610286919061272c565b6108ad565b60405161029891906121c8565b60405180910390f35b3480156102ad57600080fd5b506102c860048036038101906102c3919061220f565b6109e0565b6040516102d591906121c8565b60405180910390f35b3480156102ea57600080fd5b506102f3610a4e565b60405161030091906121c8565b60405180910390f35b34801561031557600080fd5b50610330600480360381019061032b9190612820565b610a76565b60405161033d91906121c8565b60405180910390f35b34801561035257600080fd5b5061036d6004803603810190610368919061220f565b610b00565b60405161037a9190612912565b60405180910390f35b34801561038f57600080fd5b506103aa60048036038101906103a5919061292d565b610cc7565b6040516103b79190612194565b60405180910390f35b3480156103cc57600080fd5b506103e760048036038101906103e2919061272c565b610d32565b6040516103f491906121c8565b60405180910390f35b34801561040957600080fd5b50610424600480360381019061041f919061220f565b610d4a565b6040516104339392919061296d565b60405180910390f35b34801561044857600080fd5b50610451610d82565b60405161045e91906122d5565b60405180910390f35b34801561047357600080fd5b5061048e600480360381019061048991906129a4565b610dbf565b60405161049b91906121c8565b60405180910390f35b3480156104b057600080fd5b506104cb60048036038101906104c69190612a3f565b610df0565b6040516104d891906121c8565b60405180910390f35b3480156104ed57600080fd5b5061050860048036038101906105039190612b54565b610e58565b60405161051591906121c8565b60405180910390f35b34801561052a57600080fd5b506105336110f8565b60405161054091906121c8565b60405180910390f35b34801561055557600080fd5b5061055e611101565b60405161056b91906121c8565b60405180910390f35b34801561058057600080fd5b5061059b6004803603810190610596919061220f565b61110b565b6040516105a891906121c8565b60405180910390f35b3480156105bd57600080fd5b506105d860048036038101906105d3919061272c565b611179565b6040516105e591906121c8565b60405180910390f35b3480156105fa57600080fd5b506106036111b5565b60405161061091906122d5565b60405180910390f35b34801561062557600080fd5b5061062e6111f2565b60405161063b9190612c3a565b60405180910390f35b34801561065057600080fd5b5061066b60048036038101906106669190612c55565b611216565b60405161067891906121c8565b60405180910390f35b34801561068d57600080fd5b506106a860048036038101906106a3919061220f565b61122a565b6040516106b591906121c8565b60405180910390f35b3480156106ca57600080fd5b506106d3611300565b6040516106e09190612cf4565b60405180910390f35b600030905090565b60007fbf26d897000000000000000000000000000000000000000000000000000000007bffffffffffffffffffffffffffffffffffffffffffffffffffffffff1916827bffffffffffffffffffffffffffffffffffffffffffffffffffffffff19161480610764575061076382611324565b5b9050919050565b60007f0000000000000000000000000000000000000000000000000000000000000000905090565b61079b6106e9565b73ffffffffffffffffffffffffffffffffffffffff166107b961138e565b73ffffffffffffffffffffffffffffffffffffffff161461080f576040517f08c379a000000000000000000000000000000000000000000000000000000000815260040161080690612d5b565b60405180910390fd5b61081881611396565b50565b60606000805461082a90612daa565b80601f016020809104026020016040519081016040528092919081815260200182805461085690612daa565b80156108a35780601f10610878576101008083540402835291602001916108a3565b820191906000526020600020905b81548152906001019060200180831161088657829003601f168201915b5050505050905090565b6000806108bc86868686611179565b905060006108c982610b00565b9050600460078111156108df576108de61289b565b5b8160078111156108f2576108f161289b565b5b148061092257506005600781111561090d5761090c61289b565b5b8160078111156109205761091f61289b565b5b145b610961576040517f08c379a000000000000000000000000000000000000000000000000000000000815260040161095890612e4e565b60405180910390fd5b600180600084815260200190815260200160002060020160006101000a81548160ff0219169083151502179055507f712ae1383f79ac853f8d882153778e0260ef8f03b504e2866e0593e04d2b291f826040516109be91906121c8565b60405180910390a16109d3828888888861142b565b8192505050949350505050565b6000610a3d600160008481526020019081526020016000206000016040518060200160405290816000820160009054906101000a900467ffffffffffffffff1667ffffffffffffffff1667ffffffffffffffff168152505061153a565b67ffffffffffffffff169050919050565b60007f0000000000000000000000000000000000000000000000000000000000000000905090565b600080610ad7610acf7f150214d74d59b7d1e90c73fc22ef3d991dd0a76b046543d4d80ab92d2a50328f8989604051602001610ab493929190612e7d565b60405160208183030381529060405280519060200120611548565b868686611562565b9050610af48782886040518060200160405280600081525061158d565b91505095945050505050565b60008060016000848152602001908152602001600020604051806080016040529081600082016040518060200160405290816000820160009054906101000a900467ffffffffffffffff1667ffffffffffffffff1667ffffffffffffffff16815250508152602001600182016040518060200160405290816000820160009054906101000a900467ffffffffffffffff1667ffffffffffffffff1667ffffffffffffffff168152505081526020016002820160009054906101000a900460ff161515151581526020016002820160019054906101000a900460ff1615151515815250509050806040015115610bf9576007915050610cc2565b806060015115610c0d576002915050610cc2565b610c1a81600001516116e1565b15610c29576000915050610cc2565b610c3681602001516116e1565b15610c45576001915050610cc2565b610c5281602001516116fb565b15610c8757610c6083611727565b8015610c715750610c708361176e565b5b610c7c576003610c7f565b60045b915050610cc2565b6040517f08c379a0000000000000000000000000000000000000000000000000000000008152600401610cb990612f00565b60405180910390fd5b919050565b60006003600084815260200190815260200160002060030160008373ffffffffffffffffffffffffffffffffffffffff1673ffffffffffffffffffffffffffffffffffffffff16815260200190815260200160002060009054906101000a900460ff16905092915050565b6000610d4085858585611799565b9050949350505050565b600080600080600360008681526020019081526020016000209050806000015481600101548260020154935093509350509193909250565b60606040518060400160405280600181526020017f3100000000000000000000000000000000000000000000000000000000000000815250905090565b600080610dca61138e565b9050610de78482856040518060200160405280600081525061158d565b91505092915050565b600080610dfb61138e565b9050610e4d86828787878080601f016020809104026020016040519081016040528093929190818152602001838380828437600081840152601f19601f8201169050808301925050505050505061158d565b915050949350505050565b600080610e6e8686868680519060200120611179565b90508451865114610eb4576040517f08c379a0000000000000000000000000000000000000000000000000000000008152600401610eab90612f92565b60405180910390fd5b8351865114610ef8576040517f08c379a0000000000000000000000000000000000000000000000000000000008152600401610eef90612f92565b60405180910390fd5b6000865111610f3c576040517f08c379a0000000000000000000000000000000000000000000000000000000008152600401610f3390612ffe565b60405180910390fd5b6000600160008381526020019081526020016000209050610f9c816000016040518060200160405290816000820160009054906101000a900467ffffffffffffffff1667ffffffffffffffff1667ffffffffffffffff16815250506118f2565b610fdb576040517f08c379a0000000000000000000000000000000000000000000000000000000008152600401610fd290613090565b60405180910390fd5b6000610fed610fe8610a4e565b61190c565b610ff64361190c565b61100091906130f3565b9050600061101461100f61076b565b61190c565b8261101f91906130f3565b9050611037828460000161196390919063ffffffff16565b61104d818460010161196390919063ffffffff16565b7f7d84a6263ae0d98d3329bd7b46bb4e8d6f98cd35a7adb45c274c8b7fd5ebd5e08461107761138e565b8b8b8d5167ffffffffffffffff811115611094576110936122fc565b5b6040519080825280602002602001820160405280156110c757816020015b60608152602001906001900390816110b25790505b508c88888e6040516110e199989796959493929190613510565b60405180910390a183945050505050949350505050565b60006064905090565b6000600254905090565b6000611168600160008481526020019081526020016000206001016040518060200160405290816000820160009054906101000a900467ffffffffffffffff1667ffffffffffffffff1667ffffffffffffffff168152505061153a565b67ffffffffffffffff169050919050565b60008484848460405160200161119294939291906135c0565b6040516020818303038152906040528051906020012060001c9050949350505050565b60606040518060400160405280602081526020017f737570706f72743d627261766f2671756f72756d3d666f722c6162737461696e815250905090565b7f150214d74d59b7d1e90c73fc22ef3d991dd0a76b046543d4d80ab92d2a50328f81565b60006112228383611992565b905092915050565b60006112346110f8565b61123c611101565b7f000000000000000000000000000000000000000000000000000000000000000073ffffffffffffffffffffffffffffffffffffffff16638e539e8c856040518263ffffffff1660e01b815260040161129591906121c8565b60206040518083038186803b1580156112ad57600080fd5b505afa1580156112c1573d6000803e3d6000fd5b505050506040513d601f19601f820116820180604052508101906112e5919061362f565b6112ef919061365c565b6112f991906136e5565b9050919050565b7f000000000000000000000000000000000000000000000000000000000000000081565b60007f01ffc9a7000000000000000000000000000000000000000000000000000000007bffffffffffffffffffffffffffffffffffffffffffffffffffffffff1916827bffffffffffffffffffffffffffffffffffffffffffffffffffffffff1916149050919050565b600033905090565b61139e6110f8565b8111156113e0576040517f08c379a00000000000000000000000000000000000000000000000000000000081526004016113d7906137ae565b60405180910390fd5b60006002549050816002819055507f0553476bf02ef2726e8ce5ced78d63e26e602e4a2257b1f559418e24b4633997818360405161141f9291906137ce565b60405180910390a15050565b6000604051806060016040528060278152602001613f8560279139905060005b85518110156115315760008087838151811061146a576114696137f7565b5b602002602001015173ffffffffffffffffffffffffffffffffffffffff1687848151811061149b5761149a6137f7565b5b60200260200101518785815181106114b6576114b56137f7565b5b60200260200101516040516114cb9190613862565b60006040518083038185875af1925050503d8060008114611508576040519150601f19603f3d011682016040523d82523d6000602084013e61150d565b606091505b509150915061151d828286611a47565b5050508061152a90613879565b905061144b565b50505050505050565b600081600001519050919050565b600061155b611555611aae565b83611b71565b9050919050565b600080600061157387878787611ba4565b9150915061158081611cb1565b8192505050949350505050565b600080600160008781526020019081526020016000209050600160078111156115b9576115b861289b565b5b6115c287610b00565b60078111156115d4576115d361289b565b5b14611614576040517f08c379a000000000000000000000000000000000000000000000000000000000815260040161160b90613934565b60405180910390fd5b600061167286611663846000016040518060200160405290816000820160009054906101000a900467ffffffffffffffff1667ffffffffffffffff1667ffffffffffffffff168152505061153a565b67ffffffffffffffff16611216565b905061168087878784611e86565b8573ffffffffffffffffffffffffffffffffffffffff167fb8e138887d0aa13bab447e82de9d5c1777041ecd21ca36ba824ff1e6c07ddda4888784886040516116cc9493929190613954565b60405180910390a28092505050949350505050565b600043826000015167ffffffffffffffff16119050919050565b60006117068261208c565b8015611720575043826000015167ffffffffffffffff1611155b9050919050565b6000806003600084815260200190815260200160002090508060020154816001015461175391906139a0565b61176461175f856109e0565b61122a565b1115915050919050565b6000806003600084815260200190815260200160002090508060000154816001015411915050919050565b6000806117a886868686611179565b905060006117b582610b00565b9050600260078111156117cb576117ca61289b565b5b8160078111156117de576117dd61289b565b5b141580156118115750600660078111156117fb576117fa61289b565b5b81600781111561180e5761180d61289b565b5b14155b8015611841575060078081111561182b5761182a61289b565b5b81600781111561183e5761183d61289b565b5b14155b611880576040517f08c379a000000000000000000000000000000000000000000000000000000000815260040161187790613a42565b60405180910390fd5b600180600084815260200190815260200160002060020160016101000a81548160ff0219169083151502179055507f789cf55be980739dad1d0699b93b58e806b51c9d96619bfa8fe0a28abaa7b30c826040516118dd91906121c8565b60405180910390a18192505050949350505050565b600080826000015167ffffffffffffffff16149050919050565b600067ffffffffffffffff801682111561195b576040517f08c379a000000000000000000000000000000000000000000000000000000000815260040161195290613ad4565b60405180910390fd5b819050919050565b808260000160006101000a81548167ffffffffffffffff021916908367ffffffffffffffff1602179055505050565b60007f000000000000000000000000000000000000000000000000000000000000000073ffffffffffffffffffffffffffffffffffffffff16633a46b1a884846040518363ffffffff1660e01b81526004016119ef929190613af4565b60206040518083038186803b158015611a0757600080fd5b505afa158015611a1b573d6000803e3d6000fd5b505050506040513d601f19601f82011682018060405250810190611a3f919061362f565b905092915050565b60608315611a5757829050611aa7565b600083511115611a6a5782518084602001fd5b816040517f08c379a0000000000000000000000000000000000000000000000000000000008152600401611a9e91906122d5565b60405180910390fd5b9392505050565b60007f0000000000000000000000000000000000000000000000000000000000000000461415611b00577f00000000000000000000000000000000000000000000000000000000000000009050611b6e565b611b6b7f00000000000000000000000000000000000000000000000000000000000000007f00000000000000000000000000000000000000000000000000000000000000007f00000000000000000000000000000000000000000000000000000000000000006120a6565b90505b90565b60008282604051602001611b86929190613b95565b60405160208183030381529060405280519060200120905092915050565b6000807f7fffffffffffffffffffffffffffffff5d576e7357a4501ddfe92f46681b20a08360001c1115611bdf576000600391509150611ca8565b601b8560ff1614158015611bf75750601c8560ff1614155b15611c09576000600491509150611ca8565b600060018787878760405160008152602001604052604051611c2e9493929190613bcc565b6020604051602081039080840390855afa158015611c50573d6000803e3d6000fd5b505050602060405103519050600073ffffffffffffffffffffffffffffffffffffffff168173ffffffffffffffffffffffffffffffffffffffff161415611c9f57600060019250925050611ca8565b80600092509250505b94509492505050565b60006004811115611cc557611cc461289b565b5b816004811115611cd857611cd761289b565b5b1415611ce357611e83565b60016004811115611cf757611cf661289b565b5b816004811115611d0a57611d0961289b565b5b1415611d4b576040517f08c379a0000000000000000000000000000000000000000000000000000000008152600401611d4290613c5d565b60405180910390fd5b60026004811115611d5f57611d5e61289b565b5b816004811115611d7257611d7161289b565b5b1415611db3576040517f08c379a0000000000000000000000000000000000000000000000000000000008152600401611daa90613cc9565b60405180910390fd5b60036004811115611dc757611dc661289b565b5b816004811115611dda57611dd961289b565b5b1415611e1b576040517f08c379a0000000000000000000000000000000000000000000000000000000008152600401611e1290613d5b565b60405180910390fd5b600480811115611e2e57611e2d61289b565b5b816004811115611e4157611e4061289b565b5b1415611e82576040517f08c379a0000000000000000000000000000000000000000000000000000000008152600401611e7990613ded565b60405180910390fd5b5b50565b60006003600086815260200190815260200160002090508060030160008573ffffffffffffffffffffffffffffffffffffffff1673ffffffffffffffffffffffffffffffffffffffff16815260200190815260200160002060009054906101000a900460ff1615611f2c576040517f08c379a0000000000000000000000000000000000000000000000000000000008152600401611f2390613e7f565b60405180910390fd5b60018160030160008673ffffffffffffffffffffffffffffffffffffffff1673ffffffffffffffffffffffffffffffffffffffff16815260200190815260200160002060006101000a81548160ff02191690831515021790555060006002811115611f9a57611f9961289b565b5b60ff168360ff161415611fc75781816000016000828254611fbb91906139a0565b92505081905550612085565b60016002811115611fdb57611fda61289b565b5b60ff168360ff1614156120085781816001016000828254611ffc91906139a0565b92505081905550612084565b60028081111561201b5761201a61289b565b5b60ff168360ff161415612048578181600201600082825461203c91906139a0565b92505081905550612083565b6040517f08c379a000000000000000000000000000000000000000000000000000000000815260040161207a90613f11565b60405180910390fd5b5b5b5050505050565b600080826000015167ffffffffffffffff16119050919050565b600083838346306040516020016120c1959493929190613f31565b6040516020818303038152906040528051906020012090509392505050565b6000604051905090565b600080fd5b600080fd5b60007fffffffff0000000000000000000000000000000000000000000000000000000082169050919050565b612129816120f4565b811461213457600080fd5b50565b60008135905061214681612120565b92915050565b600060208284031215612162576121616120ea565b5b600061217084828501612137565b91505092915050565b60008115159050919050565b61218e81612179565b82525050565b60006020820190506121a96000830184612185565b92915050565b6000819050919050565b6121c2816121af565b82525050565b60006020820190506121dd60008301846121b9565b92915050565b6121ec816121af565b81146121f757600080fd5b50565b600081359050612209816121e3565b92915050565b600060208284031215612225576122246120ea565b5b6000612233848285016121fa565b91505092915050565b600081519050919050565b600082825260208201905092915050565b60005b8381101561227657808201518184015260208101905061225b565b83811115612285576000848401525b50505050565b6000601f19601f8301169050919050565b60006122a78261223c565b6122b18185612247565b93506122c1818560208601612258565b6122ca8161228b565b840191505092915050565b600060208201905081810360008301526122ef818461229c565b905092915050565b600080fd5b7f4e487b7100000000000000000000000000000000000000000000000000000000600052604160045260246000fd5b6123348261228b565b810181811067ffffffffffffffff82111715612353576123526122fc565b5b80604052505050565b60006123666120e0565b9050612372828261232b565b919050565b600067ffffffffffffffff821115612392576123916122fc565b5b602082029050602081019050919050565b600080fd5b600073ffffffffffffffffffffffffffffffffffffffff82169050919050565b60006123d3826123a8565b9050919050565b6123e3816123c8565b81146123ee57600080fd5b50565b600081359050612400816123da565b92915050565b600061241961241484612377565b61235c565b9050808382526020820190506020840283018581111561243c5761243b6123a3565b5b835b81811015612465578061245188826123f1565b84526020840193505060208101905061243e565b5050509392505050565b600082601f830112612484576124836122f7565b5b8135612494848260208601612406565b91505092915050565b600067ffffffffffffffff8211156124b8576124b76122fc565b5b602082029050602081019050919050565b60006124dc6124d78461249d565b61235c565b905080838252602082019050602084028301858111156124ff576124fe6123a3565b5b835b81811015612528578061251488826121fa565b845260208401935050602081019050612501565b5050509392505050565b600082601f830112612547576125466122f7565b5b81356125578482602086016124c9565b91505092915050565b600067ffffffffffffffff82111561257b5761257a6122fc565b5b602082029050602081019050919050565b600080fd5b600067ffffffffffffffff8211156125ac576125ab6122fc565b5b6125b58261228b565b9050602081019050919050565b82818337600083830152505050565b60006125e46125df84612591565b61235c565b905082815260208101848484011115612600576125ff61258c565b5b61260b8482856125c2565b509392505050565b600082601f830112612628576126276122f7565b5b81356126388482602086016125d1565b91505092915050565b600061265461264f84612560565b61235c565b90508083825260208201905060208402830185811115612677576126766123a3565b5b835b818110156126be57803567ffffffffffffffff81111561269c5761269b6122f7565b5b8086016126a98982612613565b85526020850194505050602081019050612679565b5050509392505050565b600082601f8301126126dd576126dc6122f7565b5b81356126ed848260208601612641565b91505092915050565b6000819050919050565b612709816126f6565b811461271457600080fd5b50565b60008135905061272681612700565b92915050565b60008060008060808587031215612746576127456120ea565b5b600085013567ffffffffffffffff811115612764576127636120ef565b5b6127708782880161246f565b945050602085013567ffffffffffffffff811115612791576127906120ef565b5b61279d87828801612532565b935050604085013567ffffffffffffffff8111156127be576127bd6120ef565b5b6127ca878288016126c8565b92505060606127db87828801612717565b91505092959194509250565b600060ff82169050919050565b6127fd816127e7565b811461280857600080fd5b50565b60008135905061281a816127f4565b92915050565b600080600080600060a0868803121561283c5761283b6120ea565b5b600061284a888289016121fa565b955050602061285b8882890161280b565b945050604061286c8882890161280b565b935050606061287d88828901612717565b925050608061288e88828901612717565b9150509295509295909350565b7f4e487b7100000000000000000000000000000000000000000000000000000000600052602160045260246000fd5b600881106128db576128da61289b565b5b50565b60008190506128ec826128ca565b919050565b60006128fc826128de565b9050919050565b61290c816128f1565b82525050565b60006020820190506129276000830184612903565b92915050565b60008060408385031215612944576129436120ea565b5b6000612952858286016121fa565b9250506020612963858286016123f1565b9150509250929050565b600060608201905061298260008301866121b9565b61298f60208301856121b9565b61299c60408301846121b9565b949350505050565b600080604083850312156129bb576129ba6120ea565b5b60006129c9858286016121fa565b92505060206129da8582860161280b565b9150509250929050565b600080fd5b60008083601f8401126129ff576129fe6122f7565b5b8235905067ffffffffffffffff811115612a1c57612a1b6129e4565b5b602083019150836001820283011115612a3857612a376123a3565b5b9250929050565b60008060008060608587031215612a5957612a586120ea565b5b6000612a67878288016121fa565b9450506020612a788782880161280b565b935050604085013567ffffffffffffffff811115612a9957612a986120ef565b5b612aa5878288016129e9565b925092505092959194509250565b600067ffffffffffffffff821115612ace57612acd6122fc565b5b612ad78261228b565b9050602081019050919050565b6000612af7612af284612ab3565b61235c565b905082815260208101848484011115612b1357612b1261258c565b5b612b1e8482856125c2565b509392505050565b600082601f830112612b3b57612b3a6122f7565b5b8135612b4b848260208601612ae4565b91505092915050565b60008060008060808587031215612b6e57612b6d6120ea565b5b600085013567ffffffffffffffff811115612b8c57612b8b6120ef565b5b612b988782880161246f565b945050602085013567ffffffffffffffff811115612bb957612bb86120ef565b5b612bc587828801612532565b935050604085013567ffffffffffffffff811115612be657612be56120ef565b5b612bf2878288016126c8565b925050606085013567ffffffffffffffff811115612c1357612c126120ef565b5b612c1f87828801612b26565b91505092959194509250565b612c34816126f6565b82525050565b6000602082019050612c4f6000830184612c2b565b92915050565b60008060408385031215612c6c57612c6b6120ea565b5b6000612c7a858286016123f1565b9250506020612c8b858286016121fa565b9150509250929050565b6000819050919050565b6000612cba612cb5612cb0846123a8565b612c95565b6123a8565b9050919050565b6000612ccc82612c9f565b9050919050565b6000612cde82612cc1565b9050919050565b612cee81612cd3565b82525050565b6000602082019050612d096000830184612ce5565b92915050565b7f476f7665726e6f723a206f6e6c79476f7665726e616e63650000000000000000600082015250565b6000612d45601883612247565b9150612d5082612d0f565b602082019050919050565b60006020820190508181036000830152612d7481612d38565b9050919050565b7f4e487b7100000000000000000000000000000000000000000000000000000000600052602260045260246000fd5b60006002820490506001821680612dc257607f821691505b60208210811415612dd657612dd5612d7b565b5b50919050565b7f476f7665726e6f723a2070726f706f73616c206e6f742073756363657373667560008201527f6c00000000000000000000000000000000000000000000000000000000000000602082015250565b6000612e38602183612247565b9150612e4382612ddc565b604082019050919050565b60006020820190508181036000830152612e6781612e2b565b9050919050565b612e77816127e7565b82525050565b6000606082019050612e926000830186612c2b565b612e9f60208301856121b9565b612eac6040830184612e6e565b949350505050565b7f476f7665726e6f723a20756e6b6e6f776e2070726f706f73616c206964000000600082015250565b6000612eea601d83612247565b9150612ef582612eb4565b602082019050919050565b60006020820190508181036000830152612f1981612edd565b9050919050565b7f476f7665726e6f723a20696e76616c69642070726f706f73616c206c656e677460008201527f6800000000000000000000000000000000000000000000000000000000000000602082015250565b6000612f7c602183612247565b9150612f8782612f20565b604082019050919050565b60006020820190508181036000830152612fab81612f6f565b9050919050565b7f476f7665726e6f723a20656d7074792070726f706f73616c0000000000000000600082015250565b6000612fe8601883612247565b9150612ff382612fb2565b602082019050919050565b6000602082019050818103600083015261301781612fdb565b9050919050565b7f476f7665726e6f723a2070726f706f73616c20616c726561647920657869737460008201527f7300000000000000000000000000000000000000000000000000000000000000602082015250565b600061307a602183612247565b91506130858261301e565b604082019050919050565b600060208201905081810360008301526130a98161306d565b9050919050565b600067ffffffffffffffff82169050919050565b7f4e487b7100000000000000000000000000000000000000000000000000000000600052601160045260246000fd5b60006130fe826130b0565b9150613109836130b0565b92508267ffffffffffffffff03821115613126576131256130c4565b5b828201905092915050565b61313a816123c8565b82525050565b600081519050919050565b600082825260208201905092915050565b6000819050602082019050919050565b613175816123c8565b82525050565b6000613187838361316c565b60208301905092915050565b6000602082019050919050565b60006131ab82613140565b6131b5818561314b565b93506131c08361315c565b8060005b838110156131f15781516131d8888261317b565b97506131e383613193565b9250506001810190506131c4565b5085935050505092915050565b600081519050919050565b600082825260208201905092915050565b6000819050602082019050919050565b613233816121af565b82525050565b6000613245838361322a565b60208301905092915050565b6000602082019050919050565b6000613269826131fe565b6132738185613209565b935061327e8361321a565b8060005b838110156132af5781516132968882613239565b97506132a183613251565b925050600181019050613282565b5085935050505092915050565b600081519050919050565b600082825260208201905092915050565b6000819050602082019050919050565b600082825260208201905092915050565b60006133048261223c565b61330e81856132e8565b935061331e818560208601612258565b6133278161228b565b840191505092915050565b600061333e83836132f9565b905092915050565b6000602082019050919050565b600061335e826132bc565b61336881856132c7565b93508360208202850161337a856132d8565b8060005b858110156133b657848403895281516133978582613332565b94506133a283613346565b925060208a0199505060018101905061337e565b50829750879550505050505092915050565b600081519050919050565b600082825260208201905092915050565b6000819050602082019050919050565b600081519050919050565b600082825260208201905092915050565b600061341b826133f4565b61342581856133ff565b9350613435818560208601612258565b61343e8161228b565b840191505092915050565b60006134558383613410565b905092915050565b6000602082019050919050565b6000613475826133c8565b61347f81856133d3565b935083602082028501613491856133e4565b8060005b858110156134cd57848403895281516134ae8582613449565b94506134b98361345d565b925060208a01995050600181019050613495565b50829750879550505050505092915050565b60006134fa6134f56134f0846130b0565b612c95565b6121af565b9050919050565b61350a816134df565b82525050565b600061012082019050613526600083018c6121b9565b613533602083018b613131565b8181036040830152613545818a6131a0565b90508181036060830152613559818961325e565b9050818103608083015261356d8188613353565b905081810360a0830152613581818761346a565b905061359060c0830186613501565b61359d60e0830185613501565b8181036101008301526135b0818461229c565b90509a9950505050505050505050565b600060808201905081810360008301526135da81876131a0565b905081810360208301526135ee818661325e565b90508181036040830152613602818561346a565b90506136116060830184612c2b565b95945050505050565b600081519050613629816121e3565b92915050565b600060208284031215613645576136446120ea565b5b60006136538482850161361a565b91505092915050565b6000613667826121af565b9150613672836121af565b9250817fffffffffffffffffffffffffffffffffffffffffffffffffffffffffffffffff04831182151516156136ab576136aa6130c4565b5b828202905092915050565b7f4e487b7100000000000000000000000000000000000000000000000000000000600052601260045260246000fd5b60006136f0826121af565b91506136fb836121af565b92508261370b5761370a6136b6565b5b828204905092915050565b7f476f7665726e6f72566f74657351756f72756d4672616374696f6e3a2071756f60008201527f72756d4e756d657261746f72206f7665722071756f72756d44656e6f6d696e6160208201527f746f720000000000000000000000000000000000000000000000000000000000604082015250565b6000613798604383612247565b91506137a382613716565b606082019050919050565b600060208201905081810360008301526137c78161378b565b9050919050565b60006040820190506137e360008301856121b9565b6137f060208301846121b9565b9392505050565b7f4e487b7100000000000000000000000000000000000000000000000000000000600052603260045260246000fd5b600081905092915050565b600061383c826133f4565b6138468185613826565b9350613856818560208601612258565b80840191505092915050565b600061386e8284613831565b915081905092915050565b6000613884826121af565b91507fffffffffffffffffffffffffffffffffffffffffffffffffffffffffffffffff8214156138b7576138b66130c4565b5b600182019050919050565b7f476f7665726e6f723a20766f7465206e6f742063757272656e746c792061637460008201527f6976650000000000000000000000000000000000000000000000000000000000602082015250565b600061391e602383612247565b9150613929826138c2565b604082019050919050565b6000602082019050818103600083015261394d81613911565b9050919050565b600060808201905061396960008301876121b9565b6139766020830186612e6e565b61398360408301856121b9565b8181036060830152613995818461229c565b905095945050505050565b60006139ab826121af565b91506139b6836121af565b9250827fffffffffffffffffffffffffffffffffffffffffffffffffffffffffffffffff038211156139eb576139ea6130c4565b5b828201905092915050565b7f476f7665726e6f723a2070726f706f73616c206e6f7420616374697665000000600082015250565b6000613a2c601d83612247565b9150613a37826139f6565b602082019050919050565b60006020820190508181036000830152613a5b81613a1f565b9050919050565b7f53616665436173743a2076616c756520646f65736e27742066697420696e203660008201527f3420626974730000000000000000000000000000000000000000000000000000602082015250565b6000613abe602683612247565b9150613ac982613a62565b604082019050919050565b60006020820190508181036000830152613aed81613ab1565b9050919050565b6000604082019050613b096000830185613131565b613b1660208301846121b9565b9392505050565b600081905092915050565b7f1901000000000000000000000000000000000000000000000000000000000000600082015250565b6000613b5e600283613b1d565b9150613b6982613b28565b600282019050919050565b6000819050919050565b613b8f613b8a826126f6565b613b74565b82525050565b6000613ba082613b51565b9150613bac8285613b7e565b602082019150613bbc8284613b7e565b6020820191508190509392505050565b6000608082019050613be16000830187612c2b565b613bee6020830186612e6e565b613bfb6040830185612c2b565b613c086060830184612c2b565b95945050505050565b7f45434453413a20696e76616c6964207369676e61747572650000000000000000600082015250565b6000613c47601883612247565b9150613c5282613c11565b602082019050919050565b60006020820190508181036000830152613c7681613c3a565b9050919050565b7f45434453413a20696e76616c6964207369676e6174757265206c656e67746800600082015250565b6000613cb3601f83612247565b9150613cbe82613c7d565b602082019050919050565b60006020820190508181036000830152613ce281613ca6565b9050919050565b7f45434453413a20696e76616c6964207369676e6174757265202773272076616c60008201527f7565000000000000000000000000000000000000000000000000000000000000602082015250565b6000613d45602283612247565b9150613d5082613ce9565b604082019050919050565b60006020820190508181036000830152613d7481613d38565b9050919050565b7f45434453413a20696e76616c6964207369676e6174757265202776272076616c60008201527f7565000000000000000000000000000000000000000000000000000000000000602082015250565b6000613dd7602283612247565b9150613de282613d7b565b604082019050919050565b60006020820190508181036000830152613e0681613dca565b9050919050565b7f476f7665726e6f72566f74696e6753696d706c653a20766f746520616c72656160008201527f6479206361737400000000000000000000000000000000000000000000000000602082015250565b6000613e69602783612247565b9150613e7482613e0d565b604082019050919050565b60006020820190508181036000830152613e9881613e5c565b9050919050565b7f476f7665726e6f72566f74696e6753696d706c653a20696e76616c696420766160008201527f6c756520666f7220656e756d20566f7465547970650000000000000000000000602082015250565b6000613efb603583612247565b9150613f0682613e9f565b604082019050919050565b60006020820190508181036000830152613f2a81613eee565b9050919050565b600060a082019050613f466000830188612c2b565b613f536020830187612c2b565b613f606040830186612c2b565b613f6d60608301856121b9565b613f7a6080830184613131565b969550505050505056fe476f7665726e6f723a2063616c6c20726576657274656420776974686f7574206d657373616765a26469706673582212208e9bf34fda6b0d06440c1321b36f988b90ed25a9dd0776c273ebaeaecba6c12964736f6c63430008090033",
  "immutableReferences": {
    "7082": [
      {
        "length": 32,
        "start": 4670
      },
      {
        "length": 32,
        "start": 4866
      },
      {
        "length": 32,
        "start": 6550
      }
    ],
    "12252": [
      {
        "length": 32,
        "start": 2642
      }
    ],
    "12254": [
      {
        "length": 32,
        "start": 1903
      }
    ],
    "26329": [
      {
        "length": 32,
        "start": 6874
      }
    ],
    "26331": [
      {
        "length": 32,
        "start": 6834
      }
    ],
    "26333": [
      {
        "length": 32,
        "start": 6950
      }
    ],
    "26335": [
      {
        "length": 32,
        "start": 6983
      }
    ],
    "26337": [
      {
        "length": 32,
        "start": 6917
      }
    ]
  },
  "source": "// SPDX-License-Identifier: MIT\r\n\r\npragma solidity ^0.8.0;\r\n\r\nimport \"../governance/Governor.sol\";\r\nimport \"../governance/extensions/GovernorCountingSimple.sol\";\r\nimport \"../governance/extensions/GovernorVotesQuorumFraction.sol\";\r\n\r\ncontract GovernorMock is Governor, GovernorVotesQuorumFraction, GovernorCountingSimple {\r\n    uint256 immutable _votingDelay;\r\n    uint256 immutable _votingPeriod;\r\n\r\n    constructor(\r\n        string memory name_,\r\n        ERC20Votes token_,\r\n        uint256 votingDelay_,\r\n        uint256 votingPeriod_,\r\n        uint256 quorumNumerator_\r\n    ) Governor(name_) GovernorVotes(token_) GovernorVotesQuorumFraction(quorumNumerator_) {\r\n        _votingDelay = votingDelay_;\r\n        _votingPeriod = votingPeriod_;\r\n    }\r\n\r\n    function votingDelay() public view override returns (uint256) {\r\n        return _votingDelay;\r\n    }\r\n\r\n    function votingPeriod() public view override returns (uint256) {\r\n        return _votingPeriod;\r\n    }\r\n\r\n    function cancel(\r\n        address[] memory targets,\r\n        uint256[] memory values,\r\n        bytes[] memory calldatas,\r\n        bytes32 salt\r\n    ) public returns (uint256 proposalId) {\r\n        return _cancel(targets, values, calldatas, salt);\r\n    }\r\n\r\n    function getVotes(address account, uint256 blockNumber)\r\n        public\r\n        view\r\n        virtual\r\n        override(IGovernor, GovernorVotes)\r\n        returns (uint256)\r\n    {\r\n        return super.getVotes(account, blockNumber);\r\n    }\r\n}\r\n",
  "sourcePath": "C:\\Climax\\NFT-marketplace\\contracts\\openzeppelin-solidity\\contracts\\mocks\\GovernorMock.sol",
  "compiler": {
    "name": "solc",
    "version": "0.8.9+commit.e5eed63a.Emscripten.clang"
  },
  "schemaVersion": "3.4.3",
  "updatedAt": "2021-10-26T11:45:25.762Z",
  "devdoc": {
    "kind": "dev",
    "methods": {
      "COUNTING_MODE()": {
        "details": "See {IGovernor-COUNTING_MODE}."
      },
      "castVote(uint256,uint8)": {
        "details": "See {IGovernor-castVote}."
      },
      "castVoteBySig(uint256,uint8,uint8,bytes32,bytes32)": {
        "details": "See {IGovernor-castVoteBySig}."
      },
      "castVoteWithReason(uint256,uint8,string)": {
        "details": "See {IGovernor-castVoteWithReason}."
      },
      "execute(address[],uint256[],bytes[],bytes32)": {
        "details": "See {IGovernor-execute}."
      },
      "hasVoted(uint256,address)": {
        "details": "See {IGovernor-hasVoted}."
      },
      "hashProposal(address[],uint256[],bytes[],bytes32)": {
        "details": "See {IGovernor-hashProposal}. The proposal id is produced by hashing the RLC encoded `targets` array, the `values` array, the `calldatas` array and the descriptionHash (bytes32 which itself is the keccak256 hash of the description string). This proposal id can be produced from the proposal data which is part of the {ProposalCreated} event. It can even be computed in advance, before the proposal is submitted. Note that the chainId and the governor address are not part of the proposal id computation. Consequently, the same proposal (with same operation and same description) will have the same id if submitted on multiple governors accross multiple networks. This also means that in order to execute the same operation twice (on the same governor) the proposer will have to change the description in order to avoid proposal id conflicts."
      },
      "name()": {
        "details": "See {IGovernor-name}."
      },
      "proposalDeadline(uint256)": {
        "details": "See {IGovernor-proposalDeadline}."
      },
      "proposalSnapshot(uint256)": {
        "details": "See {IGovernor-proposalSnapshot}."
      },
      "proposalVotes(uint256)": {
        "details": "Accessor to the internal vote counts."
      },
      "propose(address[],uint256[],bytes[],string)": {
        "details": "See {IGovernor-propose}."
      },
      "quorum(uint256)": {
        "details": "Minimum number of cast voted required for a proposal to be successful. Note: The `blockNumber` parameter corresponds to the snaphot used for counting vote. This allows to scale the quroum depending on values such as the totalSupply of a token at this block (see {ERC20Votes})."
      },
      "state(uint256)": {
        "details": "See {IGovernor-state}."
      },
      "supportsInterface(bytes4)": {
        "details": "See {IERC165-supportsInterface}."
      },
      "version()": {
        "details": "See {IGovernor-version}."
      },
      "votingDelay()": {
        "details": "delay, in number of block, between the proposal is created and the vote starts. This can be increassed to leave time for users to buy voting power, of delegate it, before the voting of a proposal starts."
      },
      "votingPeriod()": {
        "details": "delay, in number of blocks, between the vote start and vote ends. Note: the {votingDelay} can delay the start of the vote. This must be considered when setting the voting duration compared to the voting delay."
      }
    },
    "version": 1
  },
  "userdoc": {
    "kind": "user",
    "methods": {
      "quorum(uint256)": {
        "notice": "module:user-config"
      },
      "votingDelay()": {
        "notice": "module:user-config"
      },
      "votingPeriod()": {
        "notice": "module:user-config"
      }
    },
    "version": 1
  }
}