{
  "contractName": "GovernorCompMock",
  "abi": [
    {
      "inputs": [
        {
          "internalType": "string",
          "name": "name_",
          "type": "string"
        },
        {
          "internalType": "contract ERC20VotesComp",
          "name": "token_",
          "type": "address"
        },
        {
          "internalType": "uint256",
          "name": "votingDelay_",
          "type": "uint256"
        },
        {
          "internalType": "uint256",
          "name": "votingPeriod_",
          "type": "uint256"
        }
      ],
      "stateMutability": "nonpayable",
      "type": "constructor"
    },
    {
      "anonymous": false,
      "inputs": [
        {
          "indexed": false,
          "internalType": "uint256",
          "name": "proposalId",
          "type": "uint256"
        }
      ],
      "name": "ProposalCanceled",
      "type": "event"
    },
    {
      "anonymous": false,
      "inputs": [
        {
          "indexed": false,
          "internalType": "uint256",
          "name": "proposalId",
          "type": "uint256"
        },
        {
          "indexed": false,
          "internalType": "address",
          "name": "proposer",
          "type": "address"
        },
        {
          "indexed": false,
          "internalType": "address[]",
          "name": "targets",
          "type": "address[]"
        },
        {
          "indexed": false,
          "internalType": "uint256[]",
          "name": "values",
          "type": "uint256[]"
        },
        {
          "indexed": false,
          "internalType": "string[]",
          "name": "signatures",
          "type": "string[]"
        },
        {
          "indexed": false,
          "internalType": "bytes[]",
          "name": "calldatas",
          "type": "bytes[]"
        },
        {
          "indexed": false,
          "internalType": "uint256",
          "name": "startBlock",
          "type": "uint256"
        },
        {
          "indexed": false,
          "internalType": "uint256",
          "name": "endBlock",
          "type": "uint256"
        },
        {
          "indexed": false,
          "internalType": "string",
          "name": "description",
          "type": "string"
        }
      ],
      "name": "ProposalCreated",
      "type": "event"
    },
    {
      "anonymous": false,
      "inputs": [
        {
          "indexed": false,
          "internalType": "uint256",
          "name": "proposalId",
          "type": "uint256"
        }
      ],
      "name": "ProposalExecuted",
      "type": "event"
    },
    {
      "anonymous": false,
      "inputs": [
        {
          "indexed": true,
          "internalType": "address",
          "name": "voter",
          "type": "address"
        },
        {
          "indexed": false,
          "internalType": "uint256",
          "name": "proposalId",
          "type": "uint256"
        },
        {
          "indexed": false,
          "internalType": "uint8",
          "name": "support",
          "type": "uint8"
        },
        {
          "indexed": false,
          "internalType": "uint256",
          "name": "weight",
          "type": "uint256"
        },
        {
          "indexed": false,
          "internalType": "string",
          "name": "reason",
          "type": "string"
        }
      ],
      "name": "VoteCast",
      "type": "event"
    },
    {
      "inputs": [],
      "name": "BALLOT_TYPEHASH",
      "outputs": [
        {
          "internalType": "bytes32",
          "name": "",
          "type": "bytes32"
        }
      ],
      "stateMutability": "view",
      "type": "function"
    },
    {
      "inputs": [],
      "name": "COUNTING_MODE",
      "outputs": [
        {
          "internalType": "string",
          "name": "",
          "type": "string"
        }
      ],
      "stateMutability": "pure",
      "type": "function"
    },
    {
      "inputs": [
        {
          "internalType": "uint256",
          "name": "proposalId",
          "type": "uint256"
        },
        {
          "internalType": "uint8",
          "name": "support",
          "type": "uint8"
        }
      ],
      "name": "castVote",
      "outputs": [
        {
          "internalType": "uint256",
          "name": "",
          "type": "uint256"
        }
      ],
      "stateMutability": "nonpayable",
      "type": "function"
    },
    {
      "inputs": [
        {
          "internalType": "uint256",
          "name": "proposalId",
          "type": "uint256"
        },
        {
          "internalType": "uint8",
          "name": "support",
          "type": "uint8"
        },
        {
          "internalType": "uint8",
          "name": "v",
          "type": "uint8"
        },
        {
          "internalType": "bytes32",
          "name": "r",
          "type": "bytes32"
        },
        {
          "internalType": "bytes32",
          "name": "s",
          "type": "bytes32"
        }
      ],
      "name": "castVoteBySig",
      "outputs": [
        {
          "internalType": "uint256",
          "name": "",
          "type": "uint256"
        }
      ],
      "stateMutability": "nonpayable",
      "type": "function"
    },
    {
      "inputs": [
        {
          "internalType": "uint256",
          "name": "proposalId",
          "type": "uint256"
        },
        {
          "internalType": "uint8",
          "name": "support",
          "type": "uint8"
        },
        {
          "internalType": "string",
          "name": "reason",
          "type": "string"
        }
      ],
      "name": "castVoteWithReason",
      "outputs": [
        {
          "internalType": "uint256",
          "name": "",
          "type": "uint256"
        }
      ],
      "stateMutability": "nonpayable",
      "type": "function"
    },
    {
      "inputs": [
        {
          "internalType": "address[]",
          "name": "targets",
          "type": "address[]"
        },
        {
          "internalType": "uint256[]",
          "name": "values",
          "type": "uint256[]"
        },
        {
          "internalType": "bytes[]",
          "name": "calldatas",
          "type": "bytes[]"
        },
        {
          "internalType": "bytes32",
          "name": "descriptionHash",
          "type": "bytes32"
        }
      ],
      "name": "execute",
      "outputs": [
        {
          "internalType": "uint256",
          "name": "",
          "type": "uint256"
        }
      ],
      "stateMutability": "payable",
      "type": "function"
    },
    {
      "inputs": [
        {
          "internalType": "uint256",
          "name": "proposalId",
          "type": "uint256"
        },
        {
          "internalType": "address",
          "name": "account",
          "type": "address"
        }
      ],
      "name": "hasVoted",
      "outputs": [
        {
          "internalType": "bool",
          "name": "",
          "type": "bool"
        }
      ],
      "stateMutability": "view",
      "type": "function"
    },
    {
      "inputs": [
        {
          "internalType": "address[]",
          "name": "targets",
          "type": "address[]"
        },
        {
          "internalType": "uint256[]",
          "name": "values",
          "type": "uint256[]"
        },
        {
          "internalType": "bytes[]",
          "name": "calldatas",
          "type": "bytes[]"
        },
        {
          "internalType": "bytes32",
          "name": "descriptionHash",
          "type": "bytes32"
        }
      ],
      "name": "hashProposal",
      "outputs": [
        {
          "internalType": "uint256",
          "name": "",
          "type": "uint256"
        }
      ],
      "stateMutability": "pure",
      "type": "function"
    },
    {
      "inputs": [],
      "name": "name",
      "outputs": [
        {
          "internalType": "string",
          "name": "",
          "type": "string"
        }
      ],
      "stateMutability": "view",
      "type": "function"
    },
    {
      "inputs": [
        {
          "internalType": "uint256",
          "name": "proposalId",
          "type": "uint256"
        }
      ],
      "name": "proposalDeadline",
      "outputs": [
        {
          "internalType": "uint256",
          "name": "",
          "type": "uint256"
        }
      ],
      "stateMutability": "view",
      "type": "function"
    },
    {
      "inputs": [
        {
          "internalType": "uint256",
          "name": "proposalId",
          "type": "uint256"
        }
      ],
      "name": "proposalSnapshot",
      "outputs": [
        {
          "internalType": "uint256",
          "name": "",
          "type": "uint256"
        }
      ],
      "stateMutability": "view",
      "type": "function"
    },
    {
      "inputs": [
        {
          "internalType": "uint256",
          "name": "proposalId",
          "type": "uint256"
        }
      ],
      "name": "proposalVotes",
      "outputs": [
        {
          "internalType": "uint256",
          "name": "againstVotes",
          "type": "uint256"
        },
        {
          "internalType": "uint256",
          "name": "forVotes",
          "type": "uint256"
        },
        {
          "internalType": "uint256",
          "name": "abstainVotes",
          "type": "uint256"
        }
      ],
      "stateMutability": "view",
      "type": "function"
    },
    {
      "inputs": [
        {
          "internalType": "address[]",
          "name": "targets",
          "type": "address[]"
        },
        {
          "internalType": "uint256[]",
          "name": "values",
          "type": "uint256[]"
        },
        {
          "internalType": "bytes[]",
          "name": "calldatas",
          "type": "bytes[]"
        },
        {
          "internalType": "string",
          "name": "description",
          "type": "string"
        }
      ],
      "name": "propose",
      "outputs": [
        {
          "internalType": "uint256",
          "name": "",
          "type": "uint256"
        }
      ],
      "stateMutability": "nonpayable",
      "type": "function"
    },
    {
      "inputs": [
        {
          "internalType": "uint256",
          "name": "proposalId",
          "type": "uint256"
        }
      ],
      "name": "state",
      "outputs": [
        {
          "internalType": "enum IGovernor.ProposalState",
          "name": "",
          "type": "uint8"
        }
      ],
      "stateMutability": "view",
      "type": "function"
    },
    {
      "inputs": [
        {
          "internalType": "bytes4",
          "name": "interfaceId",
          "type": "bytes4"
        }
      ],
      "name": "supportsInterface",
      "outputs": [
        {
          "internalType": "bool",
          "name": "",
          "type": "bool"
        }
      ],
      "stateMutability": "view",
      "type": "function"
    },
    {
      "inputs": [],
      "name": "token",
      "outputs": [
        {
          "internalType": "contract ERC20VotesComp",
          "name": "",
          "type": "address"
        }
      ],
      "stateMutability": "view",
      "type": "function"
    },
    {
      "inputs": [],
      "name": "version",
      "outputs": [
        {
          "internalType": "string",
          "name": "",
          "type": "string"
        }
      ],
      "stateMutability": "view",
      "type": "function"
    },
    {
      "stateMutability": "payable",
      "type": "receive"
    },
    {
      "inputs": [],
      "name": "votingDelay",
      "outputs": [
        {
          "internalType": "uint256",
          "name": "",
          "type": "uint256"
        }
      ],
      "stateMutability": "view",
      "type": "function"
    },
    {
      "inputs": [],
      "name": "votingPeriod",
      "outputs": [
        {
          "internalType": "uint256",
          "name": "",
          "type": "uint256"
        }
      ],
      "stateMutability": "view",
      "type": "function"
    },
    {
      "inputs": [
        {
          "internalType": "uint256",
          "name": "",
          "type": "uint256"
        }
      ],
      "name": "quorum",
      "outputs": [
        {
          "internalType": "uint256",
          "name": "",
          "type": "uint256"
        }
      ],
      "stateMutability": "pure",
      "type": "function"
    },
    {
      "inputs": [
        {
          "internalType": "address[]",
          "name": "targets",
          "type": "address[]"
        },
        {
          "internalType": "uint256[]",
          "name": "values",
          "type": "uint256[]"
        },
        {
          "internalType": "bytes[]",
          "name": "calldatas",
          "type": "bytes[]"
        },
        {
          "internalType": "bytes32",
          "name": "salt",
          "type": "bytes32"
        }
      ],
      "name": "cancel",
      "outputs": [
        {
          "internalType": "uint256",
          "name": "proposalId",
          "type": "uint256"
        }
      ],
      "stateMutability": "nonpayable",
      "type": "function"
    },
    {
      "inputs": [
        {
          "internalType": "address",
          "name": "account",
          "type": "address"
        },
        {
          "internalType": "uint256",
          "name": "blockNumber",
          "type": "uint256"
        }
      ],
      "name": "getVotes",
      "outputs": [
        {
          "internalType": "uint256",
          "name": "",
          "type": "uint256"
        }
      ],
      "stateMutability": "view",
      "type": "function"
    }
  ],
  "bytecode": "0x6101806040523480156200001257600080fd5b5060405162004213380380620042138339818101604052810190620000389190620004ae565b8284806200004b6200013460201b60201c565b60008280519060200120905060008280519060200120905060007f8b73c3c69bb8fe3d512ecc4cf759cc79239f7b179b0ffacaa9a75d522b39400f90508260c081815250508160e081815250504660a08181525050620000b38184846200017160201b60201c565b6080818152505080610100818152505050505050508060009080519060200190620000e0929190620001ad565b50508073ffffffffffffffffffffffffffffffffffffffff166101208173ffffffffffffffffffffffffffffffffffffffff168152505050816101408181525050806101608181525050505050506200063e565b60606040518060400160405280600181526020017f3100000000000000000000000000000000000000000000000000000000000000815250905090565b600083838346306040516020016200018e9594939291906200057c565b6040516020818303038152906040528051906020012090509392505050565b828054620001bb9062000608565b90600052602060002090601f016020900481019282620001df57600085556200022b565b82601f10620001fa57805160ff19168380011785556200022b565b828001600101855582156200022b579182015b828111156200022a5782518255916020019190600101906200020d565b5b5090506200023a91906200023e565b5090565b5b80821115620002595760008160009055506001016200023f565b5090565b6000604051905090565b600080fd5b600080fd5b600080fd5b600080fd5b6000601f19601f8301169050919050565b7f4e487b7100000000000000000000000000000000000000000000000000000000600052604160045260246000fd5b620002c6826200027b565b810181811067ffffffffffffffff82111715620002e857620002e76200028c565b5b80604052505050565b6000620002fd6200025d565b90506200030b8282620002bb565b919050565b600067ffffffffffffffff8211156200032e576200032d6200028c565b5b62000339826200027b565b9050602081019050919050565b60005b838110156200036657808201518184015260208101905062000349565b8381111562000376576000848401525b50505050565b6000620003936200038d8462000310565b620002f1565b905082815260208101848484011115620003b257620003b162000276565b5b620003bf84828562000346565b509392505050565b600082601f830112620003df57620003de62000271565b5b8151620003f18482602086016200037c565b91505092915050565b600073ffffffffffffffffffffffffffffffffffffffff82169050919050565b60006200042782620003fa565b9050919050565b60006200043b826200041a565b9050919050565b6200044d816200042e565b81146200045957600080fd5b50565b6000815190506200046d8162000442565b92915050565b6000819050919050565b620004888162000473565b81146200049457600080fd5b50565b600081519050620004a8816200047d565b92915050565b60008060008060808587031215620004cb57620004ca62000267565b5b600085015167ffffffffffffffff811115620004ec57620004eb6200026c565b5b620004fa87828801620003c7565b94505060206200050d878288016200045c565b9350506040620005208782880162000497565b9250506060620005338782880162000497565b91505092959194509250565b6000819050919050565b62000554816200053f565b82525050565b620005658162000473565b82525050565b62000576816200041a565b82525050565b600060a08201905062000593600083018862000549565b620005a2602083018762000549565b620005b1604083018662000549565b620005c060608301856200055a565b620005cf60808301846200056b565b9695505050505050565b7f4e487b7100000000000000000000000000000000000000000000000000000000600052602260045260246000fd5b600060028204905060018216806200062157607f821691505b60208210811415620006385762000637620005d9565b5b50919050565b60805160a05160c05160e05161010051610120516101405161016051613b68620006ab60003960006106bf0152600061091a0152600081816110e801526116e701526000611864015260006118a60152600061188501526000611811015260006118390152613b686000f3fe6080604052600436106101395760003560e01c806354fd4d50116100ab578063c59057e41161006f578063c59057e414610501578063dd4e2ba51461053e578063deaaa7cc14610569578063eb9019d414610594578063f8ce560a146105d1578063fc0c546a1461060e5761017f565b806354fd4d50146103e2578063567813881461040d5780637b3c71d31461044a5780637d5e81e214610487578063c01f9e37146104c45761017f565b80633932abb1116100fd5780633932abb1146102845780633bccf4fd146102af5780633e4f49e6146102ec5780634385963214610329578063452115d614610366578063544ffc9c146103a35761017f565b806301ffc9a71461018457806302a251a3146101c157806306fdde03146101ec5780632656227d146102175780632d63f693146102475761017f565b3661017f573073ffffffffffffffffffffffffffffffffffffffff1661015d610639565b73ffffffffffffffffffffffffffffffffffffffff161461017d57600080fd5b005b600080fd5b34801561019057600080fd5b506101ab60048036038101906101a69190611eab565b610641565b6040516101b89190611ef3565b60405180910390f35b3480156101cd57600080fd5b506101d66106bb565b6040516101e39190611f27565b60405180910390f35b3480156101f857600080fd5b506102016106e3565b60405161020e9190611fdb565b60405180910390f35b610231600480360381019061022c919061245e565b610775565b60405161023e9190611f27565b60405180910390f35b34801561025357600080fd5b5061026e60048036038101906102699190612519565b6108a8565b60405161027b9190611f27565b60405180910390f35b34801561029057600080fd5b50610299610916565b6040516102a69190611f27565b60405180910390f35b3480156102bb57600080fd5b506102d660048036038101906102d1919061257f565b61093e565b6040516102e39190611f27565b60405180910390f35b3480156102f857600080fd5b50610313600480360381019061030e9190612519565b6109c8565b6040516103209190612671565b60405180910390f35b34801561033557600080fd5b50610350600480360381019061034b919061268c565b610b8f565b60405161035d9190611ef3565b60405180910390f35b34801561037257600080fd5b5061038d6004803603810190610388919061245e565b610bfa565b60405161039a9190611f27565b60405180910390f35b3480156103af57600080fd5b506103ca60048036038101906103c59190612519565b610c12565b6040516103d9939291906126cc565b60405180910390f35b3480156103ee57600080fd5b506103f7610c4a565b6040516104049190611fdb565b60405180910390f35b34801561041957600080fd5b50610434600480360381019061042f9190612703565b610c87565b6040516104419190611f27565b60405180910390f35b34801561045657600080fd5b50610471600480360381019061046c919061279e565b610cb8565b60405161047e9190611f27565b60405180910390f35b34801561049357600080fd5b506104ae60048036038101906104a991906128b3565b610d20565b6040516104bb9190611f27565b60405180910390f35b3480156104d057600080fd5b506104eb60048036038101906104e69190612519565b610fc0565b6040516104f89190611f27565b60405180910390f35b34801561050d57600080fd5b506105286004803603810190610523919061245e565b61102e565b6040516105359190611f27565b60405180910390f35b34801561054a57600080fd5b5061055361106a565b6040516105609190611fdb565b60405180910390f35b34801561057557600080fd5b5061057e6110a7565b60405161058b9190612999565b60405180910390f35b3480156105a057600080fd5b506105bb60048036038101906105b691906129b4565b6110cb565b6040516105c89190611f27565b60405180910390f35b3480156105dd57600080fd5b506105f860048036038101906105f39190612519565b6110df565b6040516106059190611f27565b60405180910390f35b34801561061a57600080fd5b506106236110e6565b6040516106309190612a53565b60405180910390f35b600030905090565b60007fbf26d897000000000000000000000000000000000000000000000000000000007bffffffffffffffffffffffffffffffffffffffffffffffffffffffff1916827bffffffffffffffffffffffffffffffffffffffffffffffffffffffff191614806106b457506106b38261110a565b5b9050919050565b60007f0000000000000000000000000000000000000000000000000000000000000000905090565b6060600080546106f290612a9d565b80601f016020809104026020016040519081016040528092919081815260200182805461071e90612a9d565b801561076b5780601f106107405761010080835404028352916020019161076b565b820191906000526020600020905b81548152906001019060200180831161074e57829003601f168201915b5050505050905090565b6000806107848686868661102e565b90506000610791826109c8565b9050600460078111156107a7576107a66125fa565b5b8160078111156107ba576107b96125fa565b5b14806107ea5750600560078111156107d5576107d46125fa565b5b8160078111156107e8576107e76125fa565b5b145b610829576040517f08c379a000000000000000000000000000000000000000000000000000000000815260040161082090612b41565b60405180910390fd5b600180600084815260200190815260200160002060020160006101000a81548160ff0219169083151502179055507f712ae1383f79ac853f8d882153778e0260ef8f03b504e2866e0593e04d2b291f826040516108869190611f27565b60405180910390a161089b8288888888611174565b8192505050949350505050565b6000610905600160008481526020019081526020016000206000016040518060200160405290816000820160009054906101000a900467ffffffffffffffff1667ffffffffffffffff1667ffffffffffffffff1681525050611283565b67ffffffffffffffff169050919050565b60007f0000000000000000000000000000000000000000000000000000000000000000905090565b60008061099f6109977f150214d74d59b7d1e90c73fc22ef3d991dd0a76b046543d4d80ab92d2a50328f898960405160200161097c93929190612b70565b60405160208183030381529060405280519060200120611291565b8686866112ab565b90506109bc878288604051806020016040528060008152506112d6565b91505095945050505050565b60008060016000848152602001908152602001600020604051806080016040529081600082016040518060200160405290816000820160009054906101000a900467ffffffffffffffff1667ffffffffffffffff1667ffffffffffffffff16815250508152602001600182016040518060200160405290816000820160009054906101000a900467ffffffffffffffff1667ffffffffffffffff1667ffffffffffffffff168152505081526020016002820160009054906101000a900460ff161515151581526020016002820160019054906101000a900460ff1615151515815250509050806040015115610ac1576007915050610b8a565b806060015115610ad5576002915050610b8a565b610ae2816000015161142a565b15610af1576000915050610b8a565b610afe816020015161142a565b15610b0d576001915050610b8a565b610b1a8160200151611444565b15610b4f57610b2883611470565b8015610b395750610b38836114b7565b5b610b44576003610b47565b60045b915050610b8a565b6040517f08c379a0000000000000000000000000000000000000000000000000000000008152600401610b8190612bf3565b60405180910390fd5b919050565b60006002600084815260200190815260200160002060030160008373ffffffffffffffffffffffffffffffffffffffff1673ffffffffffffffffffffffffffffffffffffffff16815260200190815260200160002060009054906101000a900460ff16905092915050565b6000610c08858585856114e2565b9050949350505050565b600080600080600260008681526020019081526020016000209050806000015481600101548260020154935093509350509193909250565b60606040518060400160405280600181526020017f3100000000000000000000000000000000000000000000000000000000000000815250905090565b600080610c9261163b565b9050610caf848285604051806020016040528060008152506112d6565b91505092915050565b600080610cc361163b565b9050610d1586828787878080601f016020809104026020016040519081016040528093929190818152602001838380828437600081840152601f19601f820116905080830192505050505050506112d6565b915050949350505050565b600080610d36868686868051906020012061102e565b90508451865114610d7c576040517f08c379a0000000000000000000000000000000000000000000000000000000008152600401610d7390612c85565b60405180910390fd5b8351865114610dc0576040517f08c379a0000000000000000000000000000000000000000000000000000000008152600401610db790612c85565b60405180910390fd5b6000865111610e04576040517f08c379a0000000000000000000000000000000000000000000000000000000008152600401610dfb90612cf1565b60405180910390fd5b6000600160008381526020019081526020016000209050610e64816000016040518060200160405290816000820160009054906101000a900467ffffffffffffffff1667ffffffffffffffff1667ffffffffffffffff1681525050611643565b610ea3576040517f08c379a0000000000000000000000000000000000000000000000000000000008152600401610e9a90612d83565b60405180910390fd5b6000610eb5610eb0610916565b61165d565b610ebe4361165d565b610ec89190612de6565b90506000610edc610ed76106bb565b61165d565b82610ee79190612de6565b9050610eff82846000016116b490919063ffffffff16565b610f1581846001016116b490919063ffffffff16565b7f7d84a6263ae0d98d3329bd7b46bb4e8d6f98cd35a7adb45c274c8b7fd5ebd5e084610f3f61163b565b8b8b8d5167ffffffffffffffff811115610f5c57610f5b612002565b5b604051908082528060200260200182016040528015610f8f57816020015b6060815260200190600190039081610f7a5790505b508c88888e604051610fa999989796959493929190613203565b60405180910390a183945050505050949350505050565b600061101d600160008481526020019081526020016000206001016040518060200160405290816000820160009054906101000a900467ffffffffffffffff1667ffffffffffffffff1667ffffffffffffffff1681525050611283565b67ffffffffffffffff169050919050565b60008484848460405160200161104794939291906132b3565b6040516020818303038152906040528051906020012060001c9050949350505050565b60606040518060400160405280602081526020017f737570706f72743d627261766f2671756f72756d3d666f722c6162737461696e815250905090565b7f150214d74d59b7d1e90c73fc22ef3d991dd0a76b046543d4d80ab92d2a50328f81565b60006110d783836116e3565b905092915050565b6000919050565b7f000000000000000000000000000000000000000000000000000000000000000081565b60007f01ffc9a7000000000000000000000000000000000000000000000000000000007bffffffffffffffffffffffffffffffffffffffffffffffffffffffff1916827bffffffffffffffffffffffffffffffffffffffffffffffffffffffff1916149050919050565b6000604051806060016040528060278152602001613b0c60279139905060005b855181101561127a576000808783815181106111b3576111b261330d565b5b602002602001015173ffffffffffffffffffffffffffffffffffffffff168784815181106111e4576111e361330d565b5b60200260200101518785815181106111ff576111fe61330d565b5b60200260200101516040516112149190613378565b60006040518083038185875af1925050503d8060008114611251576040519150601f19603f3d011682016040523d82523d6000602084013e611256565b606091505b50915091506112668282866117a6565b505050806112739061338f565b9050611194565b50505050505050565b600081600001519050919050565b60006112a461129e61180d565b836118d0565b9050919050565b60008060006112bc87878787611903565b915091506112c981611a10565b8192505050949350505050565b60008060016000878152602001908152602001600020905060016007811115611302576113016125fa565b5b61130b876109c8565b600781111561131d5761131c6125fa565b5b1461135d576040517f08c379a00000000000000000000000000000000000000000000000000000000081526004016113549061344a565b60405180910390fd5b60006113bb866113ac846000016040518060200160405290816000820160009054906101000a900467ffffffffffffffff1667ffffffffffffffff1667ffffffffffffffff1681525050611283565b67ffffffffffffffff166110cb565b90506113c987878784611be5565b8573ffffffffffffffffffffffffffffffffffffffff167fb8e138887d0aa13bab447e82de9d5c1777041ecd21ca36ba824ff1e6c07ddda488878488604051611415949392919061346a565b60405180910390a28092505050949350505050565b600043826000015167ffffffffffffffff16119050919050565b600061144f82611deb565b8015611469575043826000015167ffffffffffffffff1611155b9050919050565b6000806002600084815260200190815260200160002090508060020154816001015461149c91906134b6565b6114ad6114a8856108a8565b6110df565b1115915050919050565b6000806002600084815260200190815260200160002090508060000154816001015411915050919050565b6000806114f18686868661102e565b905060006114fe826109c8565b905060026007811115611514576115136125fa565b5b816007811115611527576115266125fa565b5b1415801561155a575060066007811115611544576115436125fa565b5b816007811115611557576115566125fa565b5b14155b801561158a5750600780811115611574576115736125fa565b5b816007811115611587576115866125fa565b5b14155b6115c9576040517f08c379a00000000000000000000000000000000000000000000000000000000081526004016115c090613558565b60405180910390fd5b600180600084815260200190815260200160002060020160016101000a81548160ff0219169083151502179055507f789cf55be980739dad1d0699b93b58e806b51c9d96619bfa8fe0a28abaa7b30c826040516116269190611f27565b60405180910390a18192505050949350505050565b600033905090565b600080826000015167ffffffffffffffff16149050919050565b600067ffffffffffffffff80168211156116ac576040517f08c379a00000000000000000000000000000000000000000000000000000000081526004016116a3906135ea565b60405180910390fd5b819050919050565b808260000160006101000a81548167ffffffffffffffff021916908367ffffffffffffffff1602179055505050565b60007f000000000000000000000000000000000000000000000000000000000000000073ffffffffffffffffffffffffffffffffffffffff1663782d6fe184846040518363ffffffff1660e01b815260040161174092919061360a565b60206040518083038186803b15801561175857600080fd5b505afa15801561176c573d6000803e3d6000fd5b505050506040513d601f19601f820116820180604052508101906117909190613677565b6bffffffffffffffffffffffff16905092915050565b606083156117b657829050611806565b6000835111156117c95782518084602001fd5b816040517f08c379a00000000000000000000000000000000000000000000000000000000081526004016117fd9190611fdb565b60405180910390fd5b9392505050565b60007f000000000000000000000000000000000000000000000000000000000000000046141561185f577f000000000000000000000000000000000000000000000000000000000000000090506118cd565b6118ca7f00000000000000000000000000000000000000000000000000000000000000007f00000000000000000000000000000000000000000000000000000000000000007f0000000000000000000000000000000000000000000000000000000000000000611e05565b90505b90565b600082826040516020016118e592919061371c565b60405160208183030381529060405280519060200120905092915050565b6000807f7fffffffffffffffffffffffffffffff5d576e7357a4501ddfe92f46681b20a08360001c111561193e576000600391509150611a07565b601b8560ff16141580156119565750601c8560ff1614155b15611968576000600491509150611a07565b60006001878787876040516000815260200160405260405161198d9493929190613753565b6020604051602081039080840390855afa1580156119af573d6000803e3d6000fd5b505050602060405103519050600073ffffffffffffffffffffffffffffffffffffffff168173ffffffffffffffffffffffffffffffffffffffff1614156119fe57600060019250925050611a07565b80600092509250505b94509492505050565b60006004811115611a2457611a236125fa565b5b816004811115611a3757611a366125fa565b5b1415611a4257611be2565b60016004811115611a5657611a556125fa565b5b816004811115611a6957611a686125fa565b5b1415611aaa576040517f08c379a0000000000000000000000000000000000000000000000000000000008152600401611aa1906137e4565b60405180910390fd5b60026004811115611abe57611abd6125fa565b5b816004811115611ad157611ad06125fa565b5b1415611b12576040517f08c379a0000000000000000000000000000000000000000000000000000000008152600401611b0990613850565b60405180910390fd5b60036004811115611b2657611b256125fa565b5b816004811115611b3957611b386125fa565b5b1415611b7a576040517f08c379a0000000000000000000000000000000000000000000000000000000008152600401611b71906138e2565b60405180910390fd5b600480811115611b8d57611b8c6125fa565b5b816004811115611ba057611b9f6125fa565b5b1415611be1576040517f08c379a0000000000000000000000000000000000000000000000000000000008152600401611bd890613974565b60405180910390fd5b5b50565b60006002600086815260200190815260200160002090508060030160008573ffffffffffffffffffffffffffffffffffffffff1673ffffffffffffffffffffffffffffffffffffffff16815260200190815260200160002060009054906101000a900460ff1615611c8b576040517f08c379a0000000000000000000000000000000000000000000000000000000008152600401611c8290613a06565b60405180910390fd5b60018160030160008673ffffffffffffffffffffffffffffffffffffffff1673ffffffffffffffffffffffffffffffffffffffff16815260200190815260200160002060006101000a81548160ff02191690831515021790555060006002811115611cf957611cf86125fa565b5b60ff168360ff161415611d265781816000016000828254611d1a91906134b6565b92505081905550611de4565b60016002811115611d3a57611d396125fa565b5b60ff168360ff161415611d675781816001016000828254611d5b91906134b6565b92505081905550611de3565b600280811115611d7a57611d796125fa565b5b60ff168360ff161415611da75781816002016000828254611d9b91906134b6565b92505081905550611de2565b6040517f08c379a0000000000000000000000000000000000000000000000000000000008152600401611dd990613a98565b60405180910390fd5b5b5b5050505050565b600080826000015167ffffffffffffffff16119050919050565b60008383834630604051602001611e20959493929190613ab8565b6040516020818303038152906040528051906020012090509392505050565b6000604051905090565b600080fd5b600080fd5b60007fffffffff0000000000000000000000000000000000000000000000000000000082169050919050565b611e8881611e53565b8114611e9357600080fd5b50565b600081359050611ea581611e7f565b92915050565b600060208284031215611ec157611ec0611e49565b5b6000611ecf84828501611e96565b91505092915050565b60008115159050919050565b611eed81611ed8565b82525050565b6000602082019050611f086000830184611ee4565b92915050565b6000819050919050565b611f2181611f0e565b82525050565b6000602082019050611f3c6000830184611f18565b92915050565b600081519050919050565b600082825260208201905092915050565b60005b83811015611f7c578082015181840152602081019050611f61565b83811115611f8b576000848401525b50505050565b6000601f19601f8301169050919050565b6000611fad82611f42565b611fb78185611f4d565b9350611fc7818560208601611f5e565b611fd081611f91565b840191505092915050565b60006020820190508181036000830152611ff58184611fa2565b905092915050565b600080fd5b7f4e487b7100000000000000000000000000000000000000000000000000000000600052604160045260246000fd5b61203a82611f91565b810181811067ffffffffffffffff8211171561205957612058612002565b5b80604052505050565b600061206c611e3f565b90506120788282612031565b919050565b600067ffffffffffffffff82111561209857612097612002565b5b602082029050602081019050919050565b600080fd5b600073ffffffffffffffffffffffffffffffffffffffff82169050919050565b60006120d9826120ae565b9050919050565b6120e9816120ce565b81146120f457600080fd5b50565b600081359050612106816120e0565b92915050565b600061211f61211a8461207d565b612062565b90508083825260208201905060208402830185811115612142576121416120a9565b5b835b8181101561216b578061215788826120f7565b845260208401935050602081019050612144565b5050509392505050565b600082601f83011261218a57612189611ffd565b5b813561219a84826020860161210c565b91505092915050565b600067ffffffffffffffff8211156121be576121bd612002565b5b602082029050602081019050919050565b6121d881611f0e565b81146121e357600080fd5b50565b6000813590506121f5816121cf565b92915050565b600061220e612209846121a3565b612062565b90508083825260208201905060208402830185811115612231576122306120a9565b5b835b8181101561225a578061224688826121e6565b845260208401935050602081019050612233565b5050509392505050565b600082601f83011261227957612278611ffd565b5b81356122898482602086016121fb565b91505092915050565b600067ffffffffffffffff8211156122ad576122ac612002565b5b602082029050602081019050919050565b600080fd5b600067ffffffffffffffff8211156122de576122dd612002565b5b6122e782611f91565b9050602081019050919050565b82818337600083830152505050565b6000612316612311846122c3565b612062565b905082815260208101848484011115612332576123316122be565b5b61233d8482856122f4565b509392505050565b600082601f83011261235a57612359611ffd565b5b813561236a848260208601612303565b91505092915050565b600061238661238184612292565b612062565b905080838252602082019050602084028301858111156123a9576123a86120a9565b5b835b818110156123f057803567ffffffffffffffff8111156123ce576123cd611ffd565b5b8086016123db8982612345565b855260208501945050506020810190506123ab565b5050509392505050565b600082601f83011261240f5761240e611ffd565b5b813561241f848260208601612373565b91505092915050565b6000819050919050565b61243b81612428565b811461244657600080fd5b50565b60008135905061245881612432565b92915050565b6000806000806080858703121561247857612477611e49565b5b600085013567ffffffffffffffff81111561249657612495611e4e565b5b6124a287828801612175565b945050602085013567ffffffffffffffff8111156124c3576124c2611e4e565b5b6124cf87828801612264565b935050604085013567ffffffffffffffff8111156124f0576124ef611e4e565b5b6124fc878288016123fa565b925050606061250d87828801612449565b91505092959194509250565b60006020828403121561252f5761252e611e49565b5b600061253d848285016121e6565b91505092915050565b600060ff82169050919050565b61255c81612546565b811461256757600080fd5b50565b60008135905061257981612553565b92915050565b600080600080600060a0868803121561259b5761259a611e49565b5b60006125a9888289016121e6565b95505060206125ba8882890161256a565b94505060406125cb8882890161256a565b93505060606125dc88828901612449565b92505060806125ed88828901612449565b9150509295509295909350565b7f4e487b7100000000000000000000000000000000000000000000000000000000600052602160045260246000fd5b6008811061263a576126396125fa565b5b50565b600081905061264b82612629565b919050565b600061265b8261263d565b9050919050565b61266b81612650565b82525050565b60006020820190506126866000830184612662565b92915050565b600080604083850312156126a3576126a2611e49565b5b60006126b1858286016121e6565b92505060206126c2858286016120f7565b9150509250929050565b60006060820190506126e16000830186611f18565b6126ee6020830185611f18565b6126fb6040830184611f18565b949350505050565b6000806040838503121561271a57612719611e49565b5b6000612728858286016121e6565b92505060206127398582860161256a565b9150509250929050565b600080fd5b60008083601f84011261275e5761275d611ffd565b5b8235905067ffffffffffffffff81111561277b5761277a612743565b5b602083019150836001820283011115612797576127966120a9565b5b9250929050565b600080600080606085870312156127b8576127b7611e49565b5b60006127c6878288016121e6565b94505060206127d78782880161256a565b935050604085013567ffffffffffffffff8111156127f8576127f7611e4e565b5b61280487828801612748565b925092505092959194509250565b600067ffffffffffffffff82111561282d5761282c612002565b5b61283682611f91565b9050602081019050919050565b600061285661285184612812565b612062565b905082815260208101848484011115612872576128716122be565b5b61287d8482856122f4565b509392505050565b600082601f83011261289a57612899611ffd565b5b81356128aa848260208601612843565b91505092915050565b600080600080608085870312156128cd576128cc611e49565b5b600085013567ffffffffffffffff8111156128eb576128ea611e4e565b5b6128f787828801612175565b945050602085013567ffffffffffffffff81111561291857612917611e4e565b5b61292487828801612264565b935050604085013567ffffffffffffffff81111561294557612944611e4e565b5b612951878288016123fa565b925050606085013567ffffffffffffffff81111561297257612971611e4e565b5b61297e87828801612885565b91505092959194509250565b61299381612428565b82525050565b60006020820190506129ae600083018461298a565b92915050565b600080604083850312156129cb576129ca611e49565b5b60006129d9858286016120f7565b92505060206129ea858286016121e6565b9150509250929050565b6000819050919050565b6000612a19612a14612a0f846120ae565b6129f4565b6120ae565b9050919050565b6000612a2b826129fe565b9050919050565b6000612a3d82612a20565b9050919050565b612a4d81612a32565b82525050565b6000602082019050612a686000830184612a44565b92915050565b7f4e487b7100000000000000000000000000000000000000000000000000000000600052602260045260246000fd5b60006002820490506001821680612ab557607f821691505b60208210811415612ac957612ac8612a6e565b5b50919050565b7f476f7665726e6f723a2070726f706f73616c206e6f742073756363657373667560008201527f6c00000000000000000000000000000000000000000000000000000000000000602082015250565b6000612b2b602183611f4d565b9150612b3682612acf565b604082019050919050565b60006020820190508181036000830152612b5a81612b1e565b9050919050565b612b6a81612546565b82525050565b6000606082019050612b85600083018661298a565b612b926020830185611f18565b612b9f6040830184612b61565b949350505050565b7f476f7665726e6f723a20756e6b6e6f776e2070726f706f73616c206964000000600082015250565b6000612bdd601d83611f4d565b9150612be882612ba7565b602082019050919050565b60006020820190508181036000830152612c0c81612bd0565b9050919050565b7f476f7665726e6f723a20696e76616c69642070726f706f73616c206c656e677460008201527f6800000000000000000000000000000000000000000000000000000000000000602082015250565b6000612c6f602183611f4d565b9150612c7a82612c13565b604082019050919050565b60006020820190508181036000830152612c9e81612c62565b9050919050565b7f476f7665726e6f723a20656d7074792070726f706f73616c0000000000000000600082015250565b6000612cdb601883611f4d565b9150612ce682612ca5565b602082019050919050565b60006020820190508181036000830152612d0a81612cce565b9050919050565b7f476f7665726e6f723a2070726f706f73616c20616c726561647920657869737460008201527f7300000000000000000000000000000000000000000000000000000000000000602082015250565b6000612d6d602183611f4d565b9150612d7882612d11565b604082019050919050565b60006020820190508181036000830152612d9c81612d60565b9050919050565b600067ffffffffffffffff82169050919050565b7f4e487b7100000000000000000000000000000000000000000000000000000000600052601160045260246000fd5b6000612df182612da3565b9150612dfc83612da3565b92508267ffffffffffffffff03821115612e1957612e18612db7565b5b828201905092915050565b612e2d816120ce565b82525050565b600081519050919050565b600082825260208201905092915050565b6000819050602082019050919050565b612e68816120ce565b82525050565b6000612e7a8383612e5f565b60208301905092915050565b6000602082019050919050565b6000612e9e82612e33565b612ea88185612e3e565b9350612eb383612e4f565b8060005b83811015612ee4578151612ecb8882612e6e565b9750612ed683612e86565b925050600181019050612eb7565b5085935050505092915050565b600081519050919050565b600082825260208201905092915050565b6000819050602082019050919050565b612f2681611f0e565b82525050565b6000612f388383612f1d565b60208301905092915050565b6000602082019050919050565b6000612f5c82612ef1565b612f668185612efc565b9350612f7183612f0d565b8060005b83811015612fa2578151612f898882612f2c565b9750612f9483612f44565b925050600181019050612f75565b5085935050505092915050565b600081519050919050565b600082825260208201905092915050565b6000819050602082019050919050565b600082825260208201905092915050565b6000612ff782611f42565b6130018185612fdb565b9350613011818560208601611f5e565b61301a81611f91565b840191505092915050565b60006130318383612fec565b905092915050565b6000602082019050919050565b600061305182612faf565b61305b8185612fba565b93508360208202850161306d85612fcb565b8060005b858110156130a9578484038952815161308a8582613025565b945061309583613039565b925060208a01995050600181019050613071565b50829750879550505050505092915050565b600081519050919050565b600082825260208201905092915050565b6000819050602082019050919050565b600081519050919050565b600082825260208201905092915050565b600061310e826130e7565b61311881856130f2565b9350613128818560208601611f5e565b61313181611f91565b840191505092915050565b60006131488383613103565b905092915050565b6000602082019050919050565b6000613168826130bb565b61317281856130c6565b935083602082028501613184856130d7565b8060005b858110156131c057848403895281516131a1858261313c565b94506131ac83613150565b925060208a01995050600181019050613188565b50829750879550505050505092915050565b60006131ed6131e86131e384612da3565b6129f4565b611f0e565b9050919050565b6131fd816131d2565b82525050565b600061012082019050613219600083018c611f18565b613226602083018b612e24565b8181036040830152613238818a612e93565b9050818103606083015261324c8189612f51565b905081810360808301526132608188613046565b905081810360a0830152613274818761315d565b905061328360c08301866131f4565b61329060e08301856131f4565b8181036101008301526132a38184611fa2565b90509a9950505050505050505050565b600060808201905081810360008301526132cd8187612e93565b905081810360208301526132e18186612f51565b905081810360408301526132f5818561315d565b9050613304606083018461298a565b95945050505050565b7f4e487b7100000000000000000000000000000000000000000000000000000000600052603260045260246000fd5b600081905092915050565b6000613352826130e7565b61335c818561333c565b935061336c818560208601611f5e565b80840191505092915050565b60006133848284613347565b915081905092915050565b600061339a82611f0e565b91507fffffffffffffffffffffffffffffffffffffffffffffffffffffffffffffffff8214156133cd576133cc612db7565b5b600182019050919050565b7f476f7665726e6f723a20766f7465206e6f742063757272656e746c792061637460008201527f6976650000000000000000000000000000000000000000000000000000000000602082015250565b6000613434602383611f4d565b915061343f826133d8565b604082019050919050565b6000602082019050818103600083015261346381613427565b9050919050565b600060808201905061347f6000830187611f18565b61348c6020830186612b61565b6134996040830185611f18565b81810360608301526134ab8184611fa2565b905095945050505050565b60006134c182611f0e565b91506134cc83611f0e565b9250827fffffffffffffffffffffffffffffffffffffffffffffffffffffffffffffffff0382111561350157613500612db7565b5b828201905092915050565b7f476f7665726e6f723a2070726f706f73616c206e6f7420616374697665000000600082015250565b6000613542601d83611f4d565b915061354d8261350c565b602082019050919050565b6000602082019050818103600083015261357181613535565b9050919050565b7f53616665436173743a2076616c756520646f65736e27742066697420696e203660008201527f3420626974730000000000000000000000000000000000000000000000000000602082015250565b60006135d4602683611f4d565b91506135df82613578565b604082019050919050565b60006020820190508181036000830152613603816135c7565b9050919050565b600060408201905061361f6000830185612e24565b61362c6020830184611f18565b9392505050565b60006bffffffffffffffffffffffff82169050919050565b61365481613633565b811461365f57600080fd5b50565b6000815190506136718161364b565b92915050565b60006020828403121561368d5761368c611e49565b5b600061369b84828501613662565b91505092915050565b600081905092915050565b7f1901000000000000000000000000000000000000000000000000000000000000600082015250565b60006136e56002836136a4565b91506136f0826136af565b600282019050919050565b6000819050919050565b61371661371182612428565b6136fb565b82525050565b6000613727826136d8565b91506137338285613705565b6020820191506137438284613705565b6020820191508190509392505050565b6000608082019050613768600083018761298a565b6137756020830186612b61565b613782604083018561298a565b61378f606083018461298a565b95945050505050565b7f45434453413a20696e76616c6964207369676e61747572650000000000000000600082015250565b60006137ce601883611f4d565b91506137d982613798565b602082019050919050565b600060208201905081810360008301526137fd816137c1565b9050919050565b7f45434453413a20696e76616c6964207369676e6174757265206c656e67746800600082015250565b600061383a601f83611f4d565b915061384582613804565b602082019050919050565b600060208201905081810360008301526138698161382d565b9050919050565b7f45434453413a20696e76616c6964207369676e6174757265202773272076616c60008201527f7565000000000000000000000000000000000000000000000000000000000000602082015250565b60006138cc602283611f4d565b91506138d782613870565b604082019050919050565b600060208201905081810360008301526138fb816138bf565b9050919050565b7f45434453413a20696e76616c6964207369676e6174757265202776272076616c60008201527f7565000000000000000000000000000000000000000000000000000000000000602082015250565b600061395e602283611f4d565b915061396982613902565b604082019050919050565b6000602082019050818103600083015261398d81613951565b9050919050565b7f476f7665726e6f72566f74696e6753696d706c653a20766f746520616c72656160008201527f6479206361737400000000000000000000000000000000000000000000000000602082015250565b60006139f0602783611f4d565b91506139fb82613994565b604082019050919050565b60006020820190508181036000830152613a1f816139e3565b9050919050565b7f476f7665726e6f72566f74696e6753696d706c653a20696e76616c696420766160008201527f6c756520666f7220656e756d20566f7465547970650000000000000000000000602082015250565b6000613a82603583611f4d565b9150613a8d82613a26565b604082019050919050565b60006020820190508181036000830152613ab181613a75565b9050919050565b600060a082019050613acd600083018861298a565b613ada602083018761298a565b613ae7604083018661298a565b613af46060830185611f18565b613b016080830184612e24565b969550505050505056fe476f7665726e6f723a2063616c6c20726576657274656420776974686f7574206d657373616765a264697066735822122055a7fc26b3379d738d947bfa6232e3805245b3e18c483963d76702081f4bac9d64736f6c63430008090033",
  "immutableReferences": {
    "7122": [
      {
        "length": 32,
        "start": 4328
      },
      {
        "length": 32,
        "start": 5863
      }
    ],
    "11791": [
      {
        "length": 32,
        "start": 2330
      }
    ],
    "11793": [
      {
        "length": 32,
        "start": 1727
      }
    ],
    "26329": [
      {
        "length": 32,
        "start": 6201
      }
    ],
    "26331": [
      {
        "length": 32,
        "start": 6161
      }
    ],
    "26333": [
      {
        "length": 32,
        "start": 6277
      }
    ],
    "26335": [
      {
        "length": 32,
        "start": 6310
      }
    ],
    "26337": [
      {
        "length": 32,
        "start": 6244
      }
    ]
  },
  "source": "// SPDX-License-Identifier: MIT\r\n\r\npragma solidity ^0.8.0;\r\n\r\nimport \"../governance/Governor.sol\";\r\nimport \"../governance/extensions/GovernorCountingSimple.sol\";\r\nimport \"../governance/extensions/GovernorVotesComp.sol\";\r\n\r\ncontract GovernorCompMock is Governor, GovernorVotesComp, GovernorCountingSimple {\r\n    uint256 immutable _votingDelay;\r\n    uint256 immutable _votingPeriod;\r\n\r\n    constructor(\r\n        string memory name_,\r\n        ERC20VotesComp token_,\r\n        uint256 votingDelay_,\r\n        uint256 votingPeriod_\r\n    ) Governor(name_) GovernorVotesComp(token_) {\r\n        _votingDelay = votingDelay_;\r\n        _votingPeriod = votingPeriod_;\r\n    }\r\n\r\n    function votingDelay() public view override returns (uint256) {\r\n        return _votingDelay;\r\n    }\r\n\r\n    function votingPeriod() public view override returns (uint256) {\r\n        return _votingPeriod;\r\n    }\r\n\r\n    function quorum(uint256) public pure override returns (uint256) {\r\n        return 0;\r\n    }\r\n\r\n    function cancel(\r\n        address[] memory targets,\r\n        uint256[] memory values,\r\n        bytes[] memory calldatas,\r\n        bytes32 salt\r\n    ) public returns (uint256 proposalId) {\r\n        return _cancel(targets, values, calldatas, salt);\r\n    }\r\n\r\n    function getVotes(address account, uint256 blockNumber)\r\n        public\r\n        view\r\n        virtual\r\n        override(IGovernor, GovernorVotesComp)\r\n        returns (uint256)\r\n    {\r\n        return super.getVotes(account, blockNumber);\r\n    }\r\n}\r\n",
  "sourcePath": "C:\\Climax\\NFT-marketplace\\contracts\\openzeppelin-solidity\\contracts\\mocks\\GovernorCompMock.sol",
  "compiler": {
    "name": "solc",
    "version": "0.8.9+commit.e5eed63a.Emscripten.clang"
  },
  "schemaVersion": "3.4.3",
  "updatedAt": "2021-10-26T11:45:25.722Z",
  "devdoc": {
    "kind": "dev",
    "methods": {
      "COUNTING_MODE()": {
        "details": "See {IGovernor-COUNTING_MODE}."
      },
      "castVote(uint256,uint8)": {
        "details": "See {IGovernor-castVote}."
      },
      "castVoteBySig(uint256,uint8,uint8,bytes32,bytes32)": {
        "details": "See {IGovernor-castVoteBySig}."
      },
      "castVoteWithReason(uint256,uint8,string)": {
        "details": "See {IGovernor-castVoteWithReason}."
      },
      "execute(address[],uint256[],bytes[],bytes32)": {
        "details": "See {IGovernor-execute}."
      },
      "hasVoted(uint256,address)": {
        "details": "See {IGovernor-hasVoted}."
      },
      "hashProposal(address[],uint256[],bytes[],bytes32)": {
        "details": "See {IGovernor-hashProposal}. The proposal id is produced by hashing the RLC encoded `targets` array, the `values` array, the `calldatas` array and the descriptionHash (bytes32 which itself is the keccak256 hash of the description string). This proposal id can be produced from the proposal data which is part of the {ProposalCreated} event. It can even be computed in advance, before the proposal is submitted. Note that the chainId and the governor address are not part of the proposal id computation. Consequently, the same proposal (with same operation and same description) will have the same id if submitted on multiple governors accross multiple networks. This also means that in order to execute the same operation twice (on the same governor) the proposer will have to change the description in order to avoid proposal id conflicts."
      },
      "name()": {
        "details": "See {IGovernor-name}."
      },
      "proposalDeadline(uint256)": {
        "details": "See {IGovernor-proposalDeadline}."
      },
      "proposalSnapshot(uint256)": {
        "details": "See {IGovernor-proposalSnapshot}."
      },
      "proposalVotes(uint256)": {
        "details": "Accessor to the internal vote counts."
      },
      "propose(address[],uint256[],bytes[],string)": {
        "details": "See {IGovernor-propose}."
      },
      "state(uint256)": {
        "details": "See {IGovernor-state}."
      },
      "supportsInterface(bytes4)": {
        "details": "See {IERC165-supportsInterface}."
      },
      "version()": {
        "details": "See {IGovernor-version}."
      },
      "votingDelay()": {
        "details": "delay, in number of block, between the proposal is created and the vote starts. This can be increassed to leave time for users to buy voting power, of delegate it, before the voting of a proposal starts."
      },
      "votingPeriod()": {
        "details": "delay, in number of blocks, between the vote start and vote ends. Note: the {votingDelay} can delay the start of the vote. This must be considered when setting the voting duration compared to the voting delay."
      }
    },
    "version": 1
  },
  "userdoc": {
    "kind": "user",
    "methods": {
      "votingDelay()": {
        "notice": "module:user-config"
      },
      "votingPeriod()": {
        "notice": "module:user-config"
      }
    },
    "version": 1
  }
}