{
  "contractName": "GovernorTimelockCompoundMock",
  "abi": [
    {
      "inputs": [
        {
          "internalType": "string",
          "name": "name_",
          "type": "string"
        },
        {
          "internalType": "contract ERC20Votes",
          "name": "token_",
          "type": "address"
        },
        {
          "internalType": "uint256",
          "name": "votingDelay_",
          "type": "uint256"
        },
        {
          "internalType": "uint256",
          "name": "votingPeriod_",
          "type": "uint256"
        },
        {
          "internalType": "contract ICompoundTimelock",
          "name": "timelock_",
          "type": "address"
        },
        {
          "internalType": "uint256",
          "name": "quorumNumerator_",
          "type": "uint256"
        }
      ],
      "stateMutability": "nonpayable",
      "type": "constructor"
    },
    {
      "anonymous": false,
      "inputs": [
        {
          "indexed": false,
          "internalType": "uint256",
          "name": "proposalId",
          "type": "uint256"
        }
      ],
      "name": "ProposalCanceled",
      "type": "event"
    },
    {
      "anonymous": false,
      "inputs": [
        {
          "indexed": false,
          "internalType": "uint256",
          "name": "proposalId",
          "type": "uint256"
        },
        {
          "indexed": false,
          "internalType": "address",
          "name": "proposer",
          "type": "address"
        },
        {
          "indexed": false,
          "internalType": "address[]",
          "name": "targets",
          "type": "address[]"
        },
        {
          "indexed": false,
          "internalType": "uint256[]",
          "name": "values",
          "type": "uint256[]"
        },
        {
          "indexed": false,
          "internalType": "string[]",
          "name": "signatures",
          "type": "string[]"
        },
        {
          "indexed": false,
          "internalType": "bytes[]",
          "name": "calldatas",
          "type": "bytes[]"
        },
        {
          "indexed": false,
          "internalType": "uint256",
          "name": "startBlock",
          "type": "uint256"
        },
        {
          "indexed": false,
          "internalType": "uint256",
          "name": "endBlock",
          "type": "uint256"
        },
        {
          "indexed": false,
          "internalType": "string",
          "name": "description",
          "type": "string"
        }
      ],
      "name": "ProposalCreated",
      "type": "event"
    },
    {
      "anonymous": false,
      "inputs": [
        {
          "indexed": false,
          "internalType": "uint256",
          "name": "proposalId",
          "type": "uint256"
        }
      ],
      "name": "ProposalExecuted",
      "type": "event"
    },
    {
      "anonymous": false,
      "inputs": [
        {
          "indexed": false,
          "internalType": "uint256",
          "name": "proposalId",
          "type": "uint256"
        },
        {
          "indexed": false,
          "internalType": "uint256",
          "name": "eta",
          "type": "uint256"
        }
      ],
      "name": "ProposalQueued",
      "type": "event"
    },
    {
      "anonymous": false,
      "inputs": [
        {
          "indexed": false,
          "internalType": "uint256",
          "name": "oldQuorumNumerator",
          "type": "uint256"
        },
        {
          "indexed": false,
          "internalType": "uint256",
          "name": "newQuorumNumerator",
          "type": "uint256"
        }
      ],
      "name": "QuorumNumeratorUpdated",
      "type": "event"
    },
    {
      "anonymous": false,
      "inputs": [
        {
          "indexed": false,
          "internalType": "address",
          "name": "oldTimelock",
          "type": "address"
        },
        {
          "indexed": false,
          "internalType": "address",
          "name": "newTimelock",
          "type": "address"
        }
      ],
      "name": "TimelockChange",
      "type": "event"
    },
    {
      "anonymous": false,
      "inputs": [
        {
          "indexed": true,
          "internalType": "address",
          "name": "voter",
          "type": "address"
        },
        {
          "indexed": false,
          "internalType": "uint256",
          "name": "proposalId",
          "type": "uint256"
        },
        {
          "indexed": false,
          "internalType": "uint8",
          "name": "support",
          "type": "uint8"
        },
        {
          "indexed": false,
          "internalType": "uint256",
          "name": "weight",
          "type": "uint256"
        },
        {
          "indexed": false,
          "internalType": "string",
          "name": "reason",
          "type": "string"
        }
      ],
      "name": "VoteCast",
      "type": "event"
    },
    {
      "inputs": [],
      "name": "BALLOT_TYPEHASH",
      "outputs": [
        {
          "internalType": "bytes32",
          "name": "",
          "type": "bytes32"
        }
      ],
      "stateMutability": "view",
      "type": "function"
    },
    {
      "inputs": [],
      "name": "COUNTING_MODE",
      "outputs": [
        {
          "internalType": "string",
          "name": "",
          "type": "string"
        }
      ],
      "stateMutability": "pure",
      "type": "function"
    },
    {
      "inputs": [],
      "name": "__acceptAdmin",
      "outputs": [],
      "stateMutability": "nonpayable",
      "type": "function"
    },
    {
      "inputs": [
        {
          "internalType": "uint256",
          "name": "proposalId",
          "type": "uint256"
        },
        {
          "internalType": "uint8",
          "name": "support",
          "type": "uint8"
        }
      ],
      "name": "castVote",
      "outputs": [
        {
          "internalType": "uint256",
          "name": "",
          "type": "uint256"
        }
      ],
      "stateMutability": "nonpayable",
      "type": "function"
    },
    {
      "inputs": [
        {
          "internalType": "uint256",
          "name": "proposalId",
          "type": "uint256"
        },
        {
          "internalType": "uint8",
          "name": "support",
          "type": "uint8"
        },
        {
          "internalType": "uint8",
          "name": "v",
          "type": "uint8"
        },
        {
          "internalType": "bytes32",
          "name": "r",
          "type": "bytes32"
        },
        {
          "internalType": "bytes32",
          "name": "s",
          "type": "bytes32"
        }
      ],
      "name": "castVoteBySig",
      "outputs": [
        {
          "internalType": "uint256",
          "name": "",
          "type": "uint256"
        }
      ],
      "stateMutability": "nonpayable",
      "type": "function"
    },
    {
      "inputs": [
        {
          "internalType": "uint256",
          "name": "proposalId",
          "type": "uint256"
        },
        {
          "internalType": "uint8",
          "name": "support",
          "type": "uint8"
        },
        {
          "internalType": "string",
          "name": "reason",
          "type": "string"
        }
      ],
      "name": "castVoteWithReason",
      "outputs": [
        {
          "internalType": "uint256",
          "name": "",
          "type": "uint256"
        }
      ],
      "stateMutability": "nonpayable",
      "type": "function"
    },
    {
      "inputs": [
        {
          "internalType": "address[]",
          "name": "targets",
          "type": "address[]"
        },
        {
          "internalType": "uint256[]",
          "name": "values",
          "type": "uint256[]"
        },
        {
          "internalType": "bytes[]",
          "name": "calldatas",
          "type": "bytes[]"
        },
        {
          "internalType": "bytes32",
          "name": "descriptionHash",
          "type": "bytes32"
        }
      ],
      "name": "execute",
      "outputs": [
        {
          "internalType": "uint256",
          "name": "",
          "type": "uint256"
        }
      ],
      "stateMutability": "payable",
      "type": "function"
    },
    {
      "inputs": [
        {
          "internalType": "uint256",
          "name": "proposalId",
          "type": "uint256"
        },
        {
          "internalType": "address",
          "name": "account",
          "type": "address"
        }
      ],
      "name": "hasVoted",
      "outputs": [
        {
          "internalType": "bool",
          "name": "",
          "type": "bool"
        }
      ],
      "stateMutability": "view",
      "type": "function"
    },
    {
      "inputs": [
        {
          "internalType": "address[]",
          "name": "targets",
          "type": "address[]"
        },
        {
          "internalType": "uint256[]",
          "name": "values",
          "type": "uint256[]"
        },
        {
          "internalType": "bytes[]",
          "name": "calldatas",
          "type": "bytes[]"
        },
        {
          "internalType": "bytes32",
          "name": "descriptionHash",
          "type": "bytes32"
        }
      ],
      "name": "hashProposal",
      "outputs": [
        {
          "internalType": "uint256",
          "name": "",
          "type": "uint256"
        }
      ],
      "stateMutability": "pure",
      "type": "function"
    },
    {
      "inputs": [],
      "name": "name",
      "outputs": [
        {
          "internalType": "string",
          "name": "",
          "type": "string"
        }
      ],
      "stateMutability": "view",
      "type": "function"
    },
    {
      "inputs": [
        {
          "internalType": "uint256",
          "name": "proposalId",
          "type": "uint256"
        }
      ],
      "name": "proposalDeadline",
      "outputs": [
        {
          "internalType": "uint256",
          "name": "",
          "type": "uint256"
        }
      ],
      "stateMutability": "view",
      "type": "function"
    },
    {
      "inputs": [
        {
          "internalType": "uint256",
          "name": "proposalId",
          "type": "uint256"
        }
      ],
      "name": "proposalEta",
      "outputs": [
        {
          "internalType": "uint256",
          "name": "",
          "type": "uint256"
        }
      ],
      "stateMutability": "view",
      "type": "function"
    },
    {
      "inputs": [
        {
          "internalType": "uint256",
          "name": "proposalId",
          "type": "uint256"
        }
      ],
      "name": "proposalSnapshot",
      "outputs": [
        {
          "internalType": "uint256",
          "name": "",
          "type": "uint256"
        }
      ],
      "stateMutability": "view",
      "type": "function"
    },
    {
      "inputs": [
        {
          "internalType": "uint256",
          "name": "proposalId",
          "type": "uint256"
        }
      ],
      "name": "proposalVotes",
      "outputs": [
        {
          "internalType": "uint256",
          "name": "againstVotes",
          "type": "uint256"
        },
        {
          "internalType": "uint256",
          "name": "forVotes",
          "type": "uint256"
        },
        {
          "internalType": "uint256",
          "name": "abstainVotes",
          "type": "uint256"
        }
      ],
      "stateMutability": "view",
      "type": "function"
    },
    {
      "inputs": [
        {
          "internalType": "address[]",
          "name": "targets",
          "type": "address[]"
        },
        {
          "internalType": "uint256[]",
          "name": "values",
          "type": "uint256[]"
        },
        {
          "internalType": "bytes[]",
          "name": "calldatas",
          "type": "bytes[]"
        },
        {
          "internalType": "string",
          "name": "description",
          "type": "string"
        }
      ],
      "name": "propose",
      "outputs": [
        {
          "internalType": "uint256",
          "name": "",
          "type": "uint256"
        }
      ],
      "stateMutability": "nonpayable",
      "type": "function"
    },
    {
      "inputs": [
        {
          "internalType": "address[]",
          "name": "targets",
          "type": "address[]"
        },
        {
          "internalType": "uint256[]",
          "name": "values",
          "type": "uint256[]"
        },
        {
          "internalType": "bytes[]",
          "name": "calldatas",
          "type": "bytes[]"
        },
        {
          "internalType": "bytes32",
          "name": "descriptionHash",
          "type": "bytes32"
        }
      ],
      "name": "queue",
      "outputs": [
        {
          "internalType": "uint256",
          "name": "",
          "type": "uint256"
        }
      ],
      "stateMutability": "nonpayable",
      "type": "function"
    },
    {
      "inputs": [],
      "name": "quorumDenominator",
      "outputs": [
        {
          "internalType": "uint256",
          "name": "",
          "type": "uint256"
        }
      ],
      "stateMutability": "view",
      "type": "function"
    },
    {
      "inputs": [],
      "name": "quorumNumerator",
      "outputs": [
        {
          "internalType": "uint256",
          "name": "",
          "type": "uint256"
        }
      ],
      "stateMutability": "view",
      "type": "function"
    },
    {
      "inputs": [],
      "name": "timelock",
      "outputs": [
        {
          "internalType": "address",
          "name": "",
          "type": "address"
        }
      ],
      "stateMutability": "view",
      "type": "function"
    },
    {
      "inputs": [],
      "name": "token",
      "outputs": [
        {
          "internalType": "contract ERC20Votes",
          "name": "",
          "type": "address"
        }
      ],
      "stateMutability": "view",
      "type": "function"
    },
    {
      "inputs": [
        {
          "internalType": "uint256",
          "name": "newQuorumNumerator",
          "type": "uint256"
        }
      ],
      "name": "updateQuorumNumerator",
      "outputs": [],
      "stateMutability": "nonpayable",
      "type": "function"
    },
    {
      "inputs": [
        {
          "internalType": "contract ICompoundTimelock",
          "name": "newTimelock",
          "type": "address"
        }
      ],
      "name": "updateTimelock",
      "outputs": [],
      "stateMutability": "nonpayable",
      "type": "function"
    },
    {
      "inputs": [],
      "name": "version",
      "outputs": [
        {
          "internalType": "string",
          "name": "",
          "type": "string"
        }
      ],
      "stateMutability": "view",
      "type": "function"
    },
    {
      "stateMutability": "payable",
      "type": "receive"
    },
    {
      "inputs": [
        {
          "internalType": "bytes4",
          "name": "interfaceId",
          "type": "bytes4"
        }
      ],
      "name": "supportsInterface",
      "outputs": [
        {
          "internalType": "bool",
          "name": "",
          "type": "bool"
        }
      ],
      "stateMutability": "view",
      "type": "function"
    },
    {
      "inputs": [],
      "name": "votingDelay",
      "outputs": [
        {
          "internalType": "uint256",
          "name": "",
          "type": "uint256"
        }
      ],
      "stateMutability": "view",
      "type": "function"
    },
    {
      "inputs": [],
      "name": "votingPeriod",
      "outputs": [
        {
          "internalType": "uint256",
          "name": "",
          "type": "uint256"
        }
      ],
      "stateMutability": "view",
      "type": "function"
    },
    {
      "inputs": [
        {
          "internalType": "uint256",
          "name": "blockNumber",
          "type": "uint256"
        }
      ],
      "name": "quorum",
      "outputs": [
        {
          "internalType": "uint256",
          "name": "",
          "type": "uint256"
        }
      ],
      "stateMutability": "view",
      "type": "function"
    },
    {
      "inputs": [
        {
          "internalType": "address[]",
          "name": "targets",
          "type": "address[]"
        },
        {
          "internalType": "uint256[]",
          "name": "values",
          "type": "uint256[]"
        },
        {
          "internalType": "bytes[]",
          "name": "calldatas",
          "type": "bytes[]"
        },
        {
          "internalType": "bytes32",
          "name": "salt",
          "type": "bytes32"
        }
      ],
      "name": "cancel",
      "outputs": [
        {
          "internalType": "uint256",
          "name": "proposalId",
          "type": "uint256"
        }
      ],
      "stateMutability": "nonpayable",
      "type": "function"
    },
    {
      "inputs": [
        {
          "internalType": "uint256",
          "name": "proposalId",
          "type": "uint256"
        }
      ],
      "name": "state",
      "outputs": [
        {
          "internalType": "enum IGovernor.ProposalState",
          "name": "",
          "type": "uint8"
        }
      ],
      "stateMutability": "view",
      "type": "function"
    },
    {
      "inputs": [
        {
          "internalType": "address",
          "name": "account",
          "type": "address"
        },
        {
          "internalType": "uint256",
          "name": "blockNumber",
          "type": "uint256"
        }
      ],
      "name": "getVotes",
      "outputs": [
        {
          "internalType": "uint256",
          "name": "",
          "type": "uint256"
        }
      ],
      "stateMutability": "view",
      "type": "function"
    }
  ],
  "bytecode": "0x6101806040523480156200001257600080fd5b5060405162005b7e38038062005b7e83398181016040528101906200003891906200067b565b80858388806200004d6200015c60201b60201c565b60008280519060200120905060008280519060200120905060007f8b73c3c69bb8fe3d512ecc4cf759cc79239f7b179b0ffacaa9a75d522b39400f90508260c081815250508160e081815250504660a08181525050620000b58184846200019960201b60201c565b6080818152505080610100818152505050505050508060009080519060200190620000e292919062000321565b5050620000f581620001d560201b60201c565b508073ffffffffffffffffffffffffffffffffffffffff166101208173ffffffffffffffffffffffffffffffffffffffff1681525050506200013d816200027660201b60201c565b508361014081815250508261016081815250505050505050506200095e565b60606040518060400160405280600181526020017f3100000000000000000000000000000000000000000000000000000000000000815250905090565b60008383834630604051602001620001b695949392919062000773565b6040516020818303038152906040528051906020012090509392505050565b7f08f74ea46ef7894f65eabfb5e6e695de773a000b47c529ab559178069b226401600260009054906101000a900473ffffffffffffffffffffffffffffffffffffffff16826040516200022a929190620007d0565b60405180910390a180600260006101000a81548173ffffffffffffffffffffffffffffffffffffffff021916908373ffffffffffffffffffffffffffffffffffffffff16021790555050565b620002866200031860201b60201c565b811115620002cb576040517f08c379a0000000000000000000000000000000000000000000000000000000008152600401620002c290620008aa565b60405180910390fd5b60006004549050816004819055507f0553476bf02ef2726e8ce5ced78d63e26e602e4a2257b1f559418e24b463399781836040516200030c929190620008cc565b60405180910390a15050565b60006064905090565b8280546200032f9062000928565b90600052602060002090601f0160209004810192826200035357600085556200039f565b82601f106200036e57805160ff19168380011785556200039f565b828001600101855582156200039f579182015b828111156200039e57825182559160200191906001019062000381565b5b509050620003ae9190620003b2565b5090565b5b80821115620003cd576000816000905550600101620003b3565b5090565b6000604051905090565b600080fd5b600080fd5b600080fd5b600080fd5b6000601f19601f8301169050919050565b7f4e487b7100000000000000000000000000000000000000000000000000000000600052604160045260246000fd5b6200043a82620003ef565b810181811067ffffffffffffffff821117156200045c576200045b62000400565b5b80604052505050565b600062000471620003d1565b90506200047f82826200042f565b919050565b600067ffffffffffffffff821115620004a257620004a162000400565b5b620004ad82620003ef565b9050602081019050919050565b60005b83811015620004da578082015181840152602081019050620004bd565b83811115620004ea576000848401525b50505050565b600062000507620005018462000484565b62000465565b905082815260208101848484011115620005265762000525620003ea565b5b62000533848285620004ba565b509392505050565b600082601f830112620005535762000552620003e5565b5b815162000565848260208601620004f0565b91505092915050565b600073ffffffffffffffffffffffffffffffffffffffff82169050919050565b60006200059b826200056e565b9050919050565b6000620005af826200058e565b9050919050565b620005c181620005a2565b8114620005cd57600080fd5b50565b600081519050620005e181620005b6565b92915050565b6000819050919050565b620005fc81620005e7565b81146200060857600080fd5b50565b6000815190506200061c81620005f1565b92915050565b60006200062f826200056e565b9050919050565b6000620006438262000622565b9050919050565b620006558162000636565b81146200066157600080fd5b50565b60008151905062000675816200064a565b92915050565b60008060008060008060c087890312156200069b576200069a620003db565b5b600087015167ffffffffffffffff811115620006bc57620006bb620003e0565b5b620006ca89828a016200053b565b9650506020620006dd89828a01620005d0565b9550506040620006f089828a016200060b565b94505060606200070389828a016200060b565b93505060806200071689828a0162000664565b92505060a06200072989828a016200060b565b9150509295509295509295565b6000819050919050565b6200074b8162000736565b82525050565b6200075c81620005e7565b82525050565b6200076d816200058e565b82525050565b600060a0820190506200078a600083018862000740565b62000799602083018762000740565b620007a8604083018662000740565b620007b7606083018562000751565b620007c6608083018462000762565b9695505050505050565b6000604082019050620007e7600083018562000762565b620007f6602083018462000762565b9392505050565b600082825260208201905092915050565b7f476f7665726e6f72566f74657351756f72756d4672616374696f6e3a2071756f60008201527f72756d4e756d657261746f72206f7665722071756f72756d44656e6f6d696e6160208201527f746f720000000000000000000000000000000000000000000000000000000000604082015250565b600062000892604383620007fd565b91506200089f826200080e565b606082019050919050565b60006020820190508181036000830152620008c58162000883565b9050919050565b6000604082019050620008e3600083018562000751565b620008f2602083018462000751565b9392505050565b7f4e487b7100000000000000000000000000000000000000000000000000000000600052602260045260246000fd5b600060028204905060018216806200094157607f821691505b60208210811415620009585762000957620008f9565b5b50919050565b60805160a05160c05160e051610100516101205161014051610160516151ac620009d2600039600061085a01526000610f6701526000818161174201528181611d230152611de8015260006121240152600061216601526000612145015260006120d1015260006120f901526151ac6000f3fe6080604052600436106101d15760003560e01c80637b3c71d3116100f7578063c01f9e3711610095578063deaaa7cc11610064578063deaaa7cc14610765578063eb9019d414610790578063f8ce560a146107cd578063fc0c546a1461080a57610217565b8063c01f9e3714610695578063c59057e4146106d2578063d33219b41461070f578063dd4e2ba51461073a57610217565b8063a7713a70116100d1578063a7713a70146105ed578063a890c91014610618578063ab58fb8e14610641578063b9a619611461067e57610217565b80637b3c71d3146105485780637d5e81e21461058557806397c3d334146105c257610217565b80633932abb11161016f578063452115d61161013e578063452115d614610464578063544ffc9c146104a157806354fd4d50146104e0578063567813881461050b57610217565b80633932abb1146103825780633bccf4fd146103ad5780633e4f49e6146103ea578063438596321461042757610217565b806306fdde03116101ab57806306fdde03146102ad578063160cbed7146102d85780632656227d146103155780632d63f6931461034557610217565b806301ffc9a71461021c57806302a251a31461025957806306f3f9e61461028457610217565b36610217573073ffffffffffffffffffffffffffffffffffffffff166101f5610835565b73ffffffffffffffffffffffffffffffffffffffff161461021557600080fd5b005b600080fd5b34801561022857600080fd5b50610243600480360381019061023e9190612e22565b610844565b6040516102509190612e6a565b60405180910390f35b34801561026557600080fd5b5061026e610856565b60405161027b9190612e9e565b60405180910390f35b34801561029057600080fd5b506102ab60048036038101906102a69190612ee5565b61087e565b005b3480156102b957600080fd5b506102c2610906565b6040516102cf9190612fab565b60405180910390f35b3480156102e457600080fd5b506102ff60048036038101906102fa9190613402565b610998565b60405161030c9190612e9e565b60405180910390f35b61032f600480360381019061032a9190613402565b610dc2565b60405161033c9190612e9e565b60405180910390f35b34801561035157600080fd5b5061036c60048036038101906103679190612ee5565b610ef5565b6040516103799190612e9e565b60405180910390f35b34801561038e57600080fd5b50610397610f63565b6040516103a49190612e9e565b60405180910390f35b3480156103b957600080fd5b506103d460048036038101906103cf91906134f6565b610f8b565b6040516103e19190612e9e565b60405180910390f35b3480156103f657600080fd5b50610411600480360381019061040c9190612ee5565b611015565b60405161041e91906135e8565b60405180910390f35b34801561043357600080fd5b5061044e60048036038101906104499190613603565b611027565b60405161045b9190612e6a565b60405180910390f35b34801561047057600080fd5b5061048b60048036038101906104869190613402565b611092565b6040516104989190612e9e565b60405180910390f35b3480156104ad57600080fd5b506104c860048036038101906104c39190612ee5565b6110aa565b6040516104d793929190613643565b60405180910390f35b3480156104ec57600080fd5b506104f56110e2565b6040516105029190612fab565b60405180910390f35b34801561051757600080fd5b50610532600480360381019061052d919061367a565b61111f565b60405161053f9190612e9e565b60405180910390f35b34801561055457600080fd5b5061056f600480360381019061056a9190613715565b611150565b60405161057c9190612e9e565b60405180910390f35b34801561059157600080fd5b506105ac60048036038101906105a7919061382a565b6111b8565b6040516105b99190612e9e565b60405180910390f35b3480156105ce57600080fd5b506105d7611458565b6040516105e49190612e9e565b60405180910390f35b3480156105f957600080fd5b50610602611461565b60405161060f9190612e9e565b60405180910390f35b34801561062457600080fd5b5061063f600480360381019061063a9190613951565b61146b565b005b34801561064d57600080fd5b5061066860048036038101906106639190612ee5565b6114f3565b6040516106759190612e9e565b60405180910390f35b34801561068a57600080fd5b50610693611561565b005b3480156106a157600080fd5b506106bc60048036038101906106b79190612ee5565b6115e5565b6040516106c99190612e9e565b60405180910390f35b3480156106de57600080fd5b506106f960048036038101906106f49190613402565b611653565b6040516107069190612e9e565b60405180910390f35b34801561071b57600080fd5b5061072461168f565b604051610731919061398d565b60405180910390f35b34801561074657600080fd5b5061074f6116b9565b60405161075c9190612fab565b60405180910390f35b34801561077157600080fd5b5061077a6116f6565b60405161078791906139b7565b60405180910390f35b34801561079c57600080fd5b506107b760048036038101906107b291906139d2565b61171a565b6040516107c49190612e9e565b60405180910390f35b3480156107d957600080fd5b506107f460048036038101906107ef9190612ee5565b61172e565b6040516108019190612e9e565b60405180910390f35b34801561081657600080fd5b5061081f611740565b60405161082c9190613a71565b60405180910390f35b600061083f611764565b905090565b600061084f8261178e565b9050919050565b60007f0000000000000000000000000000000000000000000000000000000000000000905090565b610886610835565b73ffffffffffffffffffffffffffffffffffffffff166108a4611808565b73ffffffffffffffffffffffffffffffffffffffff16146108fa576040517f08c379a00000000000000000000000000000000000000000000000000000000081526004016108f190613ad8565b60405180910390fd5b61090381611810565b50565b60606000805461091590613b27565b80601f016020809104026020016040519081016040528092919081815260200182805461094190613b27565b801561098e5780601f106109635761010080835404028352916020019161098e565b820191906000526020600020905b81548152906001019060200180831161097157829003601f168201915b5050505050905090565b6000806109a786868686611653565b9050600460078111156109bd576109bc613571565b5b6109c682611015565b60078111156109d8576109d7613571565b5b14610a18576040517f08c379a0000000000000000000000000000000000000000000000000000000008152600401610a0f90613bcb565b60405180910390fd5b6000600260009054906101000a900473ffffffffffffffffffffffffffffffffffffffff1673ffffffffffffffffffffffffffffffffffffffff16636a42b8f86040518163ffffffff1660e01b815260040160206040518083038186803b158015610a8257600080fd5b505afa158015610a96573d6000803e3d6000fd5b505050506040513d601f19601f82011682018060405250810190610aba9190613c00565b42610ac59190613c5c565b9050610af7610ad3826118a5565b600360008581526020019081526020016000206000016118fc90919063ffffffff16565b60005b8751811015610d7b57600260009054906101000a900473ffffffffffffffffffffffffffffffffffffffff1673ffffffffffffffffffffffffffffffffffffffff1663f2b06537898381518110610b5457610b53613cb2565b5b6020026020010151898481518110610b6f57610b6e613cb2565b5b6020026020010151898581518110610b8a57610b89613cb2565b5b602002602001015186604051602001610ba69493929190613d5c565b604051602081830303815290604052805190602001206040518263ffffffff1660e01b8152600401610bd891906139b7565b60206040518083038186803b158015610bf057600080fd5b505afa158015610c04573d6000803e3d6000fd5b505050506040513d601f19601f82011682018060405250810190610c289190613de7565b15610c68576040517f08c379a0000000000000000000000000000000000000000000000000000000008152600401610c5f90613eac565b60405180910390fd5b600260009054906101000a900473ffffffffffffffffffffffffffffffffffffffff1673ffffffffffffffffffffffffffffffffffffffff16633a66f901898381518110610cb957610cb8613cb2565b5b6020026020010151898481518110610cd457610cd3613cb2565b5b6020026020010151898581518110610cef57610cee613cb2565b5b6020026020010151866040518563ffffffff1660e01b8152600401610d179493929190613d5c565b602060405180830381600087803b158015610d3157600080fd5b505af1158015610d45573d6000803e3d6000fd5b505050506040513d601f19601f82011682018060405250810190610d699190613ee1565b5080610d7490613f0e565b9050610afa565b507f9a2e42fd6722813d69113e7d0079d3d940171428df7373df9c7f7617cfda28928282604051610dad929190613f57565b60405180910390a18192505050949350505050565b600080610dd186868686611653565b90506000610dde82611015565b905060046007811115610df457610df3613571565b5b816007811115610e0757610e06613571565b5b1480610e37575060056007811115610e2257610e21613571565b5b816007811115610e3557610e34613571565b5b145b610e76576040517f08c379a0000000000000000000000000000000000000000000000000000000008152600401610e6d90613bcb565b60405180910390fd5b600180600084815260200190815260200160002060020160006101000a81548160ff0219169083151502179055507f712ae1383f79ac853f8d882153778e0260ef8f03b504e2866e0593e04d2b291f82604051610ed39190612e9e565b60405180910390a1610ee8828888888861192b565b8192505050949350505050565b6000610f52600160008481526020019081526020016000206000016040518060200160405290816000820160009054906101000a900467ffffffffffffffff1667ffffffffffffffff1667ffffffffffffffff168152505061193f565b67ffffffffffffffff169050919050565b60007f0000000000000000000000000000000000000000000000000000000000000000905090565b600080610fec610fe47f150214d74d59b7d1e90c73fc22ef3d991dd0a76b046543d4d80ab92d2a50328f8989604051602001610fc993929190613f8f565b6040516020818303038152906040528051906020012061194d565b868686611967565b905061100987828860405180602001604052806000815250611992565b91505095945050505050565b600061102082611ae6565b9050919050565b60006005600084815260200190815260200160002060030160008373ffffffffffffffffffffffffffffffffffffffff1673ffffffffffffffffffffffffffffffffffffffff16815260200190815260200160002060009054906101000a900460ff16905092915050565b60006110a085858585611c11565b9050949350505050565b600080600080600560008681526020019081526020016000209050806000015481600101548260020154935093509350509193909250565b60606040518060400160405280600181526020017f3100000000000000000000000000000000000000000000000000000000000000815250905090565b60008061112a611808565b905061114784828560405180602001604052806000815250611992565b91505092915050565b60008061115b611808565b90506111ad86828787878080601f016020809104026020016040519081016040528093929190818152602001838380828437600081840152601f19601f82011690508083019250505050505050611992565b915050949350505050565b6000806111ce8686868680519060200120611653565b90508451865114611214576040517f08c379a000000000000000000000000000000000000000000000000000000000815260040161120b90614038565b60405180910390fd5b8351865114611258576040517f08c379a000000000000000000000000000000000000000000000000000000000815260040161124f90614038565b60405180910390fd5b600086511161129c576040517f08c379a0000000000000000000000000000000000000000000000000000000008152600401611293906140a4565b60405180910390fd5b60006001600083815260200190815260200160002090506112fc816000016040518060200160405290816000820160009054906101000a900467ffffffffffffffff1667ffffffffffffffff1667ffffffffffffffff1681525050611c29565b61133b576040517f08c379a000000000000000000000000000000000000000000000000000000000815260040161133290614136565b60405180910390fd5b600061134d611348610f63565b6118a5565b611356436118a5565b611360919061416a565b9050600061137461136f610856565b6118a5565b8261137f919061416a565b90506113978284600001611c4390919063ffffffff16565b6113ad8184600101611c4390919063ffffffff16565b7f7d84a6263ae0d98d3329bd7b46bb4e8d6f98cd35a7adb45c274c8b7fd5ebd5e0846113d7611808565b8b8b8d5167ffffffffffffffff8111156113f4576113f3612fd2565b5b60405190808252806020026020018201604052801561142757816020015b60608152602001906001900390816114125790505b508c88888e6040516114419998979695949392919061456d565b60405180910390a183945050505050949350505050565b60006064905090565b6000600454905090565b611473610835565b73ffffffffffffffffffffffffffffffffffffffff16611491611808565b73ffffffffffffffffffffffffffffffffffffffff16146114e7576040517f08c379a00000000000000000000000000000000000000000000000000000000081526004016114de90613ad8565b60405180910390fd5b6114f081611c72565b50565b6000611550600360008481526020019081526020016000206000016040518060200160405290816000820160009054906101000a900467ffffffffffffffff1667ffffffffffffffff1667ffffffffffffffff1681525050611d11565b67ffffffffffffffff169050919050565b600260009054906101000a900473ffffffffffffffffffffffffffffffffffffffff1673ffffffffffffffffffffffffffffffffffffffff16630e18b6816040518163ffffffff1660e01b8152600401600060405180830381600087803b1580156115cb57600080fd5b505af11580156115df573d6000803e3d6000fd5b50505050565b6000611642600160008481526020019081526020016000206001016040518060200160405290816000820160009054906101000a900467ffffffffffffffff1667ffffffffffffffff1667ffffffffffffffff168152505061193f565b67ffffffffffffffff169050919050565b60008484848460405160200161166c949392919061461d565b6040516020818303038152906040528051906020012060001c9050949350505050565b6000600260009054906101000a900473ffffffffffffffffffffffffffffffffffffffff16905090565b60606040518060400160405280602081526020017f737570706f72743d627261766f2671756f72756d3d666f722c6162737461696e815250905090565b7f150214d74d59b7d1e90c73fc22ef3d991dd0a76b046543d4d80ab92d2a50328f81565b60006117268383611d1f565b905092915050565b600061173982611dd4565b9050919050565b7f000000000000000000000000000000000000000000000000000000000000000081565b6000600260009054906101000a900473ffffffffffffffffffffffffffffffffffffffff16905090565b60007f6e665ced000000000000000000000000000000000000000000000000000000007bffffffffffffffffffffffffffffffffffffffffffffffffffffffff1916827bffffffffffffffffffffffffffffffffffffffffffffffffffffffff19161480611801575061180082611eaa565b5b9050919050565b600033905090565b611818611458565b81111561185a576040517f08c379a00000000000000000000000000000000000000000000000000000000081526004016118519061470f565b60405180910390fd5b60006004549050816004819055507f0553476bf02ef2726e8ce5ced78d63e26e602e4a2257b1f559418e24b46339978183604051611899929190613f57565b60405180910390a15050565b600067ffffffffffffffff80168211156118f4576040517f08c379a00000000000000000000000000000000000000000000000000000000081526004016118eb906147a1565b60405180910390fd5b819050919050565b808260000160006101000a81548167ffffffffffffffff021916908367ffffffffffffffff1602179055505050565b6119388585858585611f24565b5050505050565b600081600001519050919050565b600061196061195a6120cd565b83612190565b9050919050565b6000806000611978878787876121c3565b91509150611985816122d0565b8192505050949350505050565b600080600160008781526020019081526020016000209050600160078111156119be576119bd613571565b5b6119c787611015565b60078111156119d9576119d8613571565b5b14611a19576040517f08c379a0000000000000000000000000000000000000000000000000000000008152600401611a1090614833565b60405180910390fd5b6000611a7786611a68846000016040518060200160405290816000820160009054906101000a900467ffffffffffffffff1667ffffffffffffffff1667ffffffffffffffff168152505061193f565b67ffffffffffffffff1661171a565b9050611a85878787846124a5565b8573ffffffffffffffffffffffffffffffffffffffff167fb8e138887d0aa13bab447e82de9d5c1777041ecd21ca36ba824ff1e6c07ddda488878488604051611ad19493929190614853565b60405180910390a28092505050949350505050565b600080611af2836126ab565b905060046007811115611b0857611b07613571565b5b816007811115611b1b57611b1a613571565b5b14611b295780915050611c0c565b6000611b34846114f3565b90506000811415611b49578192505050611c0c565b600260009054906101000a900473ffffffffffffffffffffffffffffffffffffffff1673ffffffffffffffffffffffffffffffffffffffff1663c1a287e26040518163ffffffff1660e01b815260040160206040518083038186803b158015611bb157600080fd5b505afa158015611bc5573d6000803e3d6000fd5b505050506040513d601f19601f82011682018060405250810190611be99190613c00565b81611bf49190613c5c565b4210611c0557600692505050611c0c565b6005925050505b919050565b6000611c1f85858585612872565b9050949350505050565b600080826000015167ffffffffffffffff16149050919050565b808260000160006101000a81548167ffffffffffffffff021916908367ffffffffffffffff1602179055505050565b7f08f74ea46ef7894f65eabfb5e6e695de773a000b47c529ab559178069b226401600260009054906101000a900473ffffffffffffffffffffffffffffffffffffffff1682604051611cc592919061489f565b60405180910390a180600260006101000a81548173ffffffffffffffffffffffffffffffffffffffff021916908373ffffffffffffffffffffffffffffffffffffffff16021790555050565b600081600001519050919050565b60007f000000000000000000000000000000000000000000000000000000000000000073ffffffffffffffffffffffffffffffffffffffff16633a46b1a884846040518363ffffffff1660e01b8152600401611d7c9291906148c8565b60206040518083038186803b158015611d9457600080fd5b505afa158015611da8573d6000803e3d6000fd5b505050506040513d601f19601f82011682018060405250810190611dcc9190613c00565b905092915050565b6000611dde611458565b611de6611461565b7f000000000000000000000000000000000000000000000000000000000000000073ffffffffffffffffffffffffffffffffffffffff16638e539e8c856040518263ffffffff1660e01b8152600401611e3f9190612e9e565b60206040518083038186803b158015611e5757600080fd5b505afa158015611e6b573d6000803e3d6000fd5b505050506040513d601f19601f82011682018060405250810190611e8f9190613c00565b611e9991906148f1565b611ea3919061497a565b9050919050565b60007fbf26d897000000000000000000000000000000000000000000000000000000007bffffffffffffffffffffffffffffffffffffffffffffffffffffffff1916827bffffffffffffffffffffffffffffffffffffffffffffffffffffffff19161480611f1d5750611f1c826129c4565b5b9050919050565b6000611f2f866114f3565b905060008111611f74576040517f08c379a0000000000000000000000000000000000000000000000000000000008152600401611f6b90614a1d565b60405180910390fd5b611fa0600260009054906101000a900473ffffffffffffffffffffffffffffffffffffffff1634612a2e565b60005b85518110156120c457600260009054906101000a900473ffffffffffffffffffffffffffffffffffffffff1673ffffffffffffffffffffffffffffffffffffffff16630825f38f878381518110611ffd57611ffc613cb2565b5b602002602001015187848151811061201857612017613cb2565b5b602002602001015187858151811061203357612032613cb2565b5b6020026020010151866040518563ffffffff1660e01b815260040161205b9493929190613d5c565b600060405180830381600087803b15801561207557600080fd5b505af1158015612089573d6000803e3d6000fd5b505050506040513d6000823e3d601f19601f820116820180604052508101906120b29190614aad565b50806120bd90613f0e565b9050611fa3565b50505050505050565b60007f000000000000000000000000000000000000000000000000000000000000000046141561211f577f0000000000000000000000000000000000000000000000000000000000000000905061218d565b61218a7f00000000000000000000000000000000000000000000000000000000000000007f00000000000000000000000000000000000000000000000000000000000000007f0000000000000000000000000000000000000000000000000000000000000000612b22565b90505b90565b600082826040516020016121a5929190614b6e565b60405160208183030381529060405280519060200120905092915050565b6000807f7fffffffffffffffffffffffffffffff5d576e7357a4501ddfe92f46681b20a08360001c11156121fe5760006003915091506122c7565b601b8560ff16141580156122165750601c8560ff1614155b156122285760006004915091506122c7565b60006001878787876040516000815260200160405260405161224d9493929190614ba5565b6020604051602081039080840390855afa15801561226f573d6000803e3d6000fd5b505050602060405103519050600073ffffffffffffffffffffffffffffffffffffffff168173ffffffffffffffffffffffffffffffffffffffff1614156122be576000600192509250506122c7565b80600092509250505b94509492505050565b600060048111156122e4576122e3613571565b5b8160048111156122f7576122f6613571565b5b1415612302576124a2565b6001600481111561231657612315613571565b5b81600481111561232957612328613571565b5b141561236a576040517f08c379a000000000000000000000000000000000000000000000000000000000815260040161236190614c36565b60405180910390fd5b6002600481111561237e5761237d613571565b5b81600481111561239157612390613571565b5b14156123d2576040517f08c379a00000000000000000000000000000000000000000000000000000000081526004016123c990614ca2565b60405180910390fd5b600360048111156123e6576123e5613571565b5b8160048111156123f9576123f8613571565b5b141561243a576040517f08c379a000000000000000000000000000000000000000000000000000000000815260040161243190614d34565b60405180910390fd5b60048081111561244d5761244c613571565b5b8160048111156124605761245f613571565b5b14156124a1576040517f08c379a000000000000000000000000000000000000000000000000000000000815260040161249890614dc6565b60405180910390fd5b5b50565b60006005600086815260200190815260200160002090508060030160008573ffffffffffffffffffffffffffffffffffffffff1673ffffffffffffffffffffffffffffffffffffffff16815260200190815260200160002060009054906101000a900460ff161561254b576040517f08c379a000000000000000000000000000000000000000000000000000000000815260040161254290614e58565b60405180910390fd5b60018160030160008673ffffffffffffffffffffffffffffffffffffffff1673ffffffffffffffffffffffffffffffffffffffff16815260200190815260200160002060006101000a81548160ff021916908315150217905550600060028111156125b9576125b8613571565b5b60ff168360ff1614156125e657818160000160008282546125da9190613c5c565b925050819055506126a4565b600160028111156125fa576125f9613571565b5b60ff168360ff161415612627578181600101600082825461261b9190613c5c565b925050819055506126a3565b60028081111561263a57612639613571565b5b60ff168360ff161415612667578181600201600082825461265b9190613c5c565b925050819055506126a2565b6040517f08c379a000000000000000000000000000000000000000000000000000000000815260040161269990614eea565b60405180910390fd5b5b5b5050505050565b60008060016000848152602001908152602001600020604051806080016040529081600082016040518060200160405290816000820160009054906101000a900467ffffffffffffffff1667ffffffffffffffff1667ffffffffffffffff16815250508152602001600182016040518060200160405290816000820160009054906101000a900467ffffffffffffffff1667ffffffffffffffff1667ffffffffffffffff168152505081526020016002820160009054906101000a900460ff161515151581526020016002820160019054906101000a900460ff16151515158152505090508060400151156127a457600791505061286d565b8060600151156127b857600291505061286d565b6127c58160000151612b5c565b156127d457600091505061286d565b6127e18160200151612b5c565b156127f057600191505061286d565b6127fd8160200151612b76565b156128325761280b83612ba2565b801561281c575061281b83612be9565b5b61282757600361282a565b60045b91505061286d565b6040517f08c379a000000000000000000000000000000000000000000000000000000000815260040161286490614f56565b60405180910390fd5b919050565b60008061288186868686612c14565b9050600061288e826114f3565b905060008111156129b75760005b875181101561299757600260009054906101000a900473ffffffffffffffffffffffffffffffffffffffff1673ffffffffffffffffffffffffffffffffffffffff1663591fcdfe8983815181106128f6576128f5613cb2565b5b602002602001015189848151811061291157612910613cb2565b5b602002602001015189858151811061292c5761292b613cb2565b5b6020026020010151866040518563ffffffff1660e01b81526004016129549493929190613d5c565b600060405180830381600087803b15801561296e57600080fd5b505af1158015612982573d6000803e3d6000fd5b505050508061299090613f0e565b905061289c565b506129b660036000848152602001908152602001600020600001612d6d565b5b8192505050949350505050565b60007f01ffc9a7000000000000000000000000000000000000000000000000000000007bffffffffffffffffffffffffffffffffffffffffffffffffffffffff1916827bffffffffffffffffffffffffffffffffffffffffffffffffffffffff1916149050919050565b80471015612a71576040517f08c379a0000000000000000000000000000000000000000000000000000000008152600401612a6890614fc2565b60405180910390fd5b60008273ffffffffffffffffffffffffffffffffffffffff1682604051612a9790615010565b60006040518083038185875af1925050503d8060008114612ad4576040519150601f19603f3d011682016040523d82523d6000602084013e612ad9565b606091505b5050905080612b1d576040517f08c379a0000000000000000000000000000000000000000000000000000000008152600401612b1490615097565b60405180910390fd5b505050565b60008383834630604051602001612b3d9594939291906150b7565b6040516020818303038152906040528051906020012090509392505050565b600043826000015167ffffffffffffffff16119050919050565b6000612b8182612d9c565b8015612b9b575043826000015167ffffffffffffffff1611155b9050919050565b60008060056000848152602001908152602001600020905080600201548160010154612bce9190613c5c565b612bdf612bda85610ef5565b61172e565b1115915050919050565b6000806005600084815260200190815260200160002090508060000154816001015411915050919050565b600080612c2386868686611653565b90506000612c3082611015565b905060026007811115612c4657612c45613571565b5b816007811115612c5957612c58613571565b5b14158015612c8c575060066007811115612c7657612c75613571565b5b816007811115612c8957612c88613571565b5b14155b8015612cbc5750600780811115612ca657612ca5613571565b5b816007811115612cb957612cb8613571565b5b14155b612cfb576040517f08c379a0000000000000000000000000000000000000000000000000000000008152600401612cf290615156565b60405180910390fd5b600180600084815260200190815260200160002060020160016101000a81548160ff0219169083151502179055507f789cf55be980739dad1d0699b93b58e806b51c9d96619bfa8fe0a28abaa7b30c82604051612d589190612e9e565b60405180910390a18192505050949350505050565b60008160000160006101000a81548167ffffffffffffffff021916908367ffffffffffffffff16021790555050565b600080826000015167ffffffffffffffff16119050919050565b6000604051905090565b600080fd5b600080fd5b60007fffffffff0000000000000000000000000000000000000000000000000000000082169050919050565b612dff81612dca565b8114612e0a57600080fd5b50565b600081359050612e1c81612df6565b92915050565b600060208284031215612e3857612e37612dc0565b5b6000612e4684828501612e0d565b91505092915050565b60008115159050919050565b612e6481612e4f565b82525050565b6000602082019050612e7f6000830184612e5b565b92915050565b6000819050919050565b612e9881612e85565b82525050565b6000602082019050612eb36000830184612e8f565b92915050565b612ec281612e85565b8114612ecd57600080fd5b50565b600081359050612edf81612eb9565b92915050565b600060208284031215612efb57612efa612dc0565b5b6000612f0984828501612ed0565b91505092915050565b600081519050919050565b600082825260208201905092915050565b60005b83811015612f4c578082015181840152602081019050612f31565b83811115612f5b576000848401525b50505050565b6000601f19601f8301169050919050565b6000612f7d82612f12565b612f878185612f1d565b9350612f97818560208601612f2e565b612fa081612f61565b840191505092915050565b60006020820190508181036000830152612fc58184612f72565b905092915050565b600080fd5b7f4e487b7100000000000000000000000000000000000000000000000000000000600052604160045260246000fd5b61300a82612f61565b810181811067ffffffffffffffff8211171561302957613028612fd2565b5b80604052505050565b600061303c612db6565b90506130488282613001565b919050565b600067ffffffffffffffff82111561306857613067612fd2565b5b602082029050602081019050919050565b600080fd5b600073ffffffffffffffffffffffffffffffffffffffff82169050919050565b60006130a98261307e565b9050919050565b6130b98161309e565b81146130c457600080fd5b50565b6000813590506130d6816130b0565b92915050565b60006130ef6130ea8461304d565b613032565b9050808382526020820190506020840283018581111561311257613111613079565b5b835b8181101561313b578061312788826130c7565b845260208401935050602081019050613114565b5050509392505050565b600082601f83011261315a57613159612fcd565b5b813561316a8482602086016130dc565b91505092915050565b600067ffffffffffffffff82111561318e5761318d612fd2565b5b602082029050602081019050919050565b60006131b26131ad84613173565b613032565b905080838252602082019050602084028301858111156131d5576131d4613079565b5b835b818110156131fe57806131ea8882612ed0565b8452602084019350506020810190506131d7565b5050509392505050565b600082601f83011261321d5761321c612fcd565b5b813561322d84826020860161319f565b91505092915050565b600067ffffffffffffffff82111561325157613250612fd2565b5b602082029050602081019050919050565b600080fd5b600067ffffffffffffffff82111561328257613281612fd2565b5b61328b82612f61565b9050602081019050919050565b82818337600083830152505050565b60006132ba6132b584613267565b613032565b9050828152602081018484840111156132d6576132d5613262565b5b6132e1848285613298565b509392505050565b600082601f8301126132fe576132fd612fcd565b5b813561330e8482602086016132a7565b91505092915050565b600061332a61332584613236565b613032565b9050808382526020820190506020840283018581111561334d5761334c613079565b5b835b8181101561339457803567ffffffffffffffff81111561337257613371612fcd565b5b80860161337f89826132e9565b8552602085019450505060208101905061334f565b5050509392505050565b600082601f8301126133b3576133b2612fcd565b5b81356133c3848260208601613317565b91505092915050565b6000819050919050565b6133df816133cc565b81146133ea57600080fd5b50565b6000813590506133fc816133d6565b92915050565b6000806000806080858703121561341c5761341b612dc0565b5b600085013567ffffffffffffffff81111561343a57613439612dc5565b5b61344687828801613145565b945050602085013567ffffffffffffffff81111561346757613466612dc5565b5b61347387828801613208565b935050604085013567ffffffffffffffff81111561349457613493612dc5565b5b6134a08782880161339e565b92505060606134b1878288016133ed565b91505092959194509250565b600060ff82169050919050565b6134d3816134bd565b81146134de57600080fd5b50565b6000813590506134f0816134ca565b92915050565b600080600080600060a0868803121561351257613511612dc0565b5b600061352088828901612ed0565b9550506020613531888289016134e1565b9450506040613542888289016134e1565b9350506060613553888289016133ed565b9250506080613564888289016133ed565b9150509295509295909350565b7f4e487b7100000000000000000000000000000000000000000000000000000000600052602160045260246000fd5b600881106135b1576135b0613571565b5b50565b60008190506135c2826135a0565b919050565b60006135d2826135b4565b9050919050565b6135e2816135c7565b82525050565b60006020820190506135fd60008301846135d9565b92915050565b6000806040838503121561361a57613619612dc0565b5b600061362885828601612ed0565b9250506020613639858286016130c7565b9150509250929050565b60006060820190506136586000830186612e8f565b6136656020830185612e8f565b6136726040830184612e8f565b949350505050565b6000806040838503121561369157613690612dc0565b5b600061369f85828601612ed0565b92505060206136b0858286016134e1565b9150509250929050565b600080fd5b60008083601f8401126136d5576136d4612fcd565b5b8235905067ffffffffffffffff8111156136f2576136f16136ba565b5b60208301915083600182028301111561370e5761370d613079565b5b9250929050565b6000806000806060858703121561372f5761372e612dc0565b5b600061373d87828801612ed0565b945050602061374e878288016134e1565b935050604085013567ffffffffffffffff81111561376f5761376e612dc5565b5b61377b878288016136bf565b925092505092959194509250565b600067ffffffffffffffff8211156137a4576137a3612fd2565b5b6137ad82612f61565b9050602081019050919050565b60006137cd6137c884613789565b613032565b9050828152602081018484840111156137e9576137e8613262565b5b6137f4848285613298565b509392505050565b600082601f83011261381157613810612fcd565b5b81356138218482602086016137ba565b91505092915050565b6000806000806080858703121561384457613843612dc0565b5b600085013567ffffffffffffffff81111561386257613861612dc5565b5b61386e87828801613145565b945050602085013567ffffffffffffffff81111561388f5761388e612dc5565b5b61389b87828801613208565b935050604085013567ffffffffffffffff8111156138bc576138bb612dc5565b5b6138c88782880161339e565b925050606085013567ffffffffffffffff8111156138e9576138e8612dc5565b5b6138f5878288016137fc565b91505092959194509250565b600061390c8261307e565b9050919050565b600061391e82613901565b9050919050565b61392e81613913565b811461393957600080fd5b50565b60008135905061394b81613925565b92915050565b60006020828403121561396757613966612dc0565b5b60006139758482850161393c565b91505092915050565b6139878161309e565b82525050565b60006020820190506139a2600083018461397e565b92915050565b6139b1816133cc565b82525050565b60006020820190506139cc60008301846139a8565b92915050565b600080604083850312156139e9576139e8612dc0565b5b60006139f7858286016130c7565b9250506020613a0885828601612ed0565b9150509250929050565b6000819050919050565b6000613a37613a32613a2d8461307e565b613a12565b61307e565b9050919050565b6000613a4982613a1c565b9050919050565b6000613a5b82613a3e565b9050919050565b613a6b81613a50565b82525050565b6000602082019050613a866000830184613a62565b92915050565b7f476f7665726e6f723a206f6e6c79476f7665726e616e63650000000000000000600082015250565b6000613ac2601883612f1d565b9150613acd82613a8c565b602082019050919050565b60006020820190508181036000830152613af181613ab5565b9050919050565b7f4e487b7100000000000000000000000000000000000000000000000000000000600052602260045260246000fd5b60006002820490506001821680613b3f57607f821691505b60208210811415613b5357613b52613af8565b5b50919050565b7f476f7665726e6f723a2070726f706f73616c206e6f742073756363657373667560008201527f6c00000000000000000000000000000000000000000000000000000000000000602082015250565b6000613bb5602183612f1d565b9150613bc082613b59565b604082019050919050565b60006020820190508181036000830152613be481613ba8565b9050919050565b600081519050613bfa81612eb9565b92915050565b600060208284031215613c1657613c15612dc0565b5b6000613c2484828501613beb565b91505092915050565b7f4e487b7100000000000000000000000000000000000000000000000000000000600052601160045260246000fd5b6000613c6782612e85565b9150613c7283612e85565b9250827fffffffffffffffffffffffffffffffffffffffffffffffffffffffffffffffff03821115613ca757613ca6613c2d565b5b828201905092915050565b7f4e487b7100000000000000000000000000000000000000000000000000000000600052603260045260246000fd5b50565b6000613cf1600083612f1d565b9150613cfc82613ce1565b600082019050919050565b600081519050919050565b600082825260208201905092915050565b6000613d2e82613d07565b613d388185613d12565b9350613d48818560208601612f2e565b613d5181612f61565b840191505092915050565b600060a082019050613d71600083018761397e565b613d7e6020830186612e8f565b8181036040830152613d8f81613ce4565b90508181036060830152613da38185613d23565b9050613db26080830184612e8f565b95945050505050565b613dc481612e4f565b8114613dcf57600080fd5b50565b600081519050613de181613dbb565b92915050565b600060208284031215613dfd57613dfc612dc0565b5b6000613e0b84828501613dd2565b91505092915050565b7f476f7665726e6f7254696d656c6f636b436f6d706f756e643a206964656e746960008201527f63616c2070726f706f73616c20616374696f6e20616c7265616479207175657560208201527f6564000000000000000000000000000000000000000000000000000000000000604082015250565b6000613e96604283612f1d565b9150613ea182613e14565b606082019050919050565b60006020820190508181036000830152613ec581613e89565b9050919050565b600081519050613edb816133d6565b92915050565b600060208284031215613ef757613ef6612dc0565b5b6000613f0584828501613ecc565b91505092915050565b6000613f1982612e85565b91507fffffffffffffffffffffffffffffffffffffffffffffffffffffffffffffffff821415613f4c57613f4b613c2d565b5b600182019050919050565b6000604082019050613f6c6000830185612e8f565b613f796020830184612e8f565b9392505050565b613f89816134bd565b82525050565b6000606082019050613fa460008301866139a8565b613fb16020830185612e8f565b613fbe6040830184613f80565b949350505050565b7f476f7665726e6f723a20696e76616c69642070726f706f73616c206c656e677460008201527f6800000000000000000000000000000000000000000000000000000000000000602082015250565b6000614022602183612f1d565b915061402d82613fc6565b604082019050919050565b6000602082019050818103600083015261405181614015565b9050919050565b7f476f7665726e6f723a20656d7074792070726f706f73616c0000000000000000600082015250565b600061408e601883612f1d565b915061409982614058565b602082019050919050565b600060208201905081810360008301526140bd81614081565b9050919050565b7f476f7665726e6f723a2070726f706f73616c20616c726561647920657869737460008201527f7300000000000000000000000000000000000000000000000000000000000000602082015250565b6000614120602183612f1d565b915061412b826140c4565b604082019050919050565b6000602082019050818103600083015261414f81614113565b9050919050565b600067ffffffffffffffff82169050919050565b600061417582614156565b915061418083614156565b92508267ffffffffffffffff0382111561419d5761419c613c2d565b5b828201905092915050565b600081519050919050565b600082825260208201905092915050565b6000819050602082019050919050565b6141dd8161309e565b82525050565b60006141ef83836141d4565b60208301905092915050565b6000602082019050919050565b6000614213826141a8565b61421d81856141b3565b9350614228836141c4565b8060005b8381101561425957815161424088826141e3565b975061424b836141fb565b92505060018101905061422c565b5085935050505092915050565b600081519050919050565b600082825260208201905092915050565b6000819050602082019050919050565b61429b81612e85565b82525050565b60006142ad8383614292565b60208301905092915050565b6000602082019050919050565b60006142d182614266565b6142db8185614271565b93506142e683614282565b8060005b838110156143175781516142fe88826142a1565b9750614309836142b9565b9250506001810190506142ea565b5085935050505092915050565b600081519050919050565b600082825260208201905092915050565b6000819050602082019050919050565b600082825260208201905092915050565b600061436c82612f12565b6143768185614350565b9350614386818560208601612f2e565b61438f81612f61565b840191505092915050565b60006143a68383614361565b905092915050565b6000602082019050919050565b60006143c682614324565b6143d0818561432f565b9350836020820285016143e285614340565b8060005b8581101561441e57848403895281516143ff858261439a565b945061440a836143ae565b925060208a019950506001810190506143e6565b50829750879550505050505092915050565b600081519050919050565b600082825260208201905092915050565b6000819050602082019050919050565b600082825260208201905092915050565b600061447882613d07565b614482818561445c565b9350614492818560208601612f2e565b61449b81612f61565b840191505092915050565b60006144b2838361446d565b905092915050565b6000602082019050919050565b60006144d282614430565b6144dc818561443b565b9350836020820285016144ee8561444c565b8060005b8581101561452a578484038952815161450b85826144a6565b9450614516836144ba565b925060208a019950506001810190506144f2565b50829750879550505050505092915050565b600061455761455261454d84614156565b613a12565b612e85565b9050919050565b6145678161453c565b82525050565b600061012082019050614583600083018c612e8f565b614590602083018b61397e565b81810360408301526145a2818a614208565b905081810360608301526145b681896142c6565b905081810360808301526145ca81886143bb565b905081810360a08301526145de81876144c7565b90506145ed60c083018661455e565b6145fa60e083018561455e565b81810361010083015261460d8184612f72565b90509a9950505050505050505050565b600060808201905081810360008301526146378187614208565b9050818103602083015261464b81866142c6565b9050818103604083015261465f81856144c7565b905061466e60608301846139a8565b95945050505050565b7f476f7665726e6f72566f74657351756f72756d4672616374696f6e3a2071756f60008201527f72756d4e756d657261746f72206f7665722071756f72756d44656e6f6d696e6160208201527f746f720000000000000000000000000000000000000000000000000000000000604082015250565b60006146f9604383612f1d565b915061470482614677565b606082019050919050565b60006020820190508181036000830152614728816146ec565b9050919050565b7f53616665436173743a2076616c756520646f65736e27742066697420696e203660008201527f3420626974730000000000000000000000000000000000000000000000000000602082015250565b600061478b602683612f1d565b91506147968261472f565b604082019050919050565b600060208201905081810360008301526147ba8161477e565b9050919050565b7f476f7665726e6f723a20766f7465206e6f742063757272656e746c792061637460008201527f6976650000000000000000000000000000000000000000000000000000000000602082015250565b600061481d602383612f1d565b9150614828826147c1565b604082019050919050565b6000602082019050818103600083015261484c81614810565b9050919050565b60006080820190506148686000830187612e8f565b6148756020830186613f80565b6148826040830185612e8f565b81810360608301526148948184612f72565b905095945050505050565b60006040820190506148b4600083018561397e565b6148c1602083018461397e565b9392505050565b60006040820190506148dd600083018561397e565b6148ea6020830184612e8f565b9392505050565b60006148fc82612e85565b915061490783612e85565b9250817fffffffffffffffffffffffffffffffffffffffffffffffffffffffffffffffff04831182151516156149405761493f613c2d565b5b828202905092915050565b7f4e487b7100000000000000000000000000000000000000000000000000000000600052601260045260246000fd5b600061498582612e85565b915061499083612e85565b9250826149a05761499f61494b565b5b828204905092915050565b7f476f7665726e6f7254696d656c6f636b436f6d706f756e643a2070726f706f7360008201527f616c206e6f742079657420717565756564000000000000000000000000000000602082015250565b6000614a07603183612f1d565b9150614a12826149ab565b604082019050919050565b60006020820190508181036000830152614a36816149fa565b9050919050565b6000614a50614a4b84613267565b613032565b905082815260208101848484011115614a6c57614a6b613262565b5b614a77848285612f2e565b509392505050565b600082601f830112614a9457614a93612fcd565b5b8151614aa4848260208601614a3d565b91505092915050565b600060208284031215614ac357614ac2612dc0565b5b600082015167ffffffffffffffff811115614ae157614ae0612dc5565b5b614aed84828501614a7f565b91505092915050565b600081905092915050565b7f1901000000000000000000000000000000000000000000000000000000000000600082015250565b6000614b37600283614af6565b9150614b4282614b01565b600282019050919050565b6000819050919050565b614b68614b63826133cc565b614b4d565b82525050565b6000614b7982614b2a565b9150614b858285614b57565b602082019150614b958284614b57565b6020820191508190509392505050565b6000608082019050614bba60008301876139a8565b614bc76020830186613f80565b614bd460408301856139a8565b614be160608301846139a8565b95945050505050565b7f45434453413a20696e76616c6964207369676e61747572650000000000000000600082015250565b6000614c20601883612f1d565b9150614c2b82614bea565b602082019050919050565b60006020820190508181036000830152614c4f81614c13565b9050919050565b7f45434453413a20696e76616c6964207369676e6174757265206c656e67746800600082015250565b6000614c8c601f83612f1d565b9150614c9782614c56565b602082019050919050565b60006020820190508181036000830152614cbb81614c7f565b9050919050565b7f45434453413a20696e76616c6964207369676e6174757265202773272076616c60008201527f7565000000000000000000000000000000000000000000000000000000000000602082015250565b6000614d1e602283612f1d565b9150614d2982614cc2565b604082019050919050565b60006020820190508181036000830152614d4d81614d11565b9050919050565b7f45434453413a20696e76616c6964207369676e6174757265202776272076616c60008201527f7565000000000000000000000000000000000000000000000000000000000000602082015250565b6000614db0602283612f1d565b9150614dbb82614d54565b604082019050919050565b60006020820190508181036000830152614ddf81614da3565b9050919050565b7f476f7665726e6f72566f74696e6753696d706c653a20766f746520616c72656160008201527f6479206361737400000000000000000000000000000000000000000000000000602082015250565b6000614e42602783612f1d565b9150614e4d82614de6565b604082019050919050565b60006020820190508181036000830152614e7181614e35565b9050919050565b7f476f7665726e6f72566f74696e6753696d706c653a20696e76616c696420766160008201527f6c756520666f7220656e756d20566f7465547970650000000000000000000000602082015250565b6000614ed4603583612f1d565b9150614edf82614e78565b604082019050919050565b60006020820190508181036000830152614f0381614ec7565b9050919050565b7f476f7665726e6f723a20756e6b6e6f776e2070726f706f73616c206964000000600082015250565b6000614f40601d83612f1d565b9150614f4b82614f0a565b602082019050919050565b60006020820190508181036000830152614f6f81614f33565b9050919050565b7f416464726573733a20696e73756666696369656e742062616c616e6365000000600082015250565b6000614fac601d83612f1d565b9150614fb782614f76565b602082019050919050565b60006020820190508181036000830152614fdb81614f9f565b9050919050565b600081905092915050565b6000614ffa600083614fe2565b915061500582613ce1565b600082019050919050565b600061501b82614fed565b9150819050919050565b7f416464726573733a20756e61626c6520746f2073656e642076616c75652c207260008201527f6563697069656e74206d61792068617665207265766572746564000000000000602082015250565b6000615081603a83612f1d565b915061508c82615025565b604082019050919050565b600060208201905081810360008301526150b081615074565b9050919050565b600060a0820190506150cc60008301886139a8565b6150d960208301876139a8565b6150e660408301866139a8565b6150f36060830185612e8f565b615100608083018461397e565b9695505050505050565b7f476f7665726e6f723a2070726f706f73616c206e6f7420616374697665000000600082015250565b6000615140601d83612f1d565b915061514b8261510a565b602082019050919050565b6000602082019050818103600083015261516f81615133565b905091905056fea264697066735822122019da165a9b6ac6d93ca8bcc8c0ec24e805ce7d05ba6939fb16a2bfb3948af3fc64736f6c63430008090033",
  "immutableReferences": {
    "7082": [
      {
        "length": 32,
        "start": 5954
      },
      {
        "length": 32,
        "start": 7459
      },
      {
        "length": 32,
        "start": 7656
      }
    ],
    "12361": [
      {
        "length": 32,
        "start": 3943
      }
    ],
    "12363": [
      {
        "length": 32,
        "start": 2138
      }
    ],
    "26329": [
      {
        "length": 32,
        "start": 8441
      }
    ],
    "26331": [
      {
        "length": 32,
        "start": 8401
      }
    ],
    "26333": [
      {
        "length": 32,
        "start": 8517
      }
    ],
    "26335": [
      {
        "length": 32,
        "start": 8550
      }
    ],
    "26337": [
      {
        "length": 32,
        "start": 8484
      }
    ]
  },
  "source": "// SPDX-License-Identifier: MIT\r\n\r\npragma solidity ^0.8.0;\r\n\r\nimport \"../governance/extensions/GovernorTimelockCompound.sol\";\r\nimport \"../governance/extensions/GovernorCountingSimple.sol\";\r\nimport \"../governance/extensions/GovernorVotesQuorumFraction.sol\";\r\n\r\ncontract GovernorTimelockCompoundMock is GovernorTimelockCompound, GovernorVotesQuorumFraction, GovernorCountingSimple {\r\n    uint256 immutable _votingDelay;\r\n    uint256 immutable _votingPeriod;\r\n\r\n    constructor(\r\n        string memory name_,\r\n        ERC20Votes token_,\r\n        uint256 votingDelay_,\r\n        uint256 votingPeriod_,\r\n        ICompoundTimelock timelock_,\r\n        uint256 quorumNumerator_\r\n    )\r\n        Governor(name_)\r\n        GovernorTimelockCompound(timelock_)\r\n        GovernorVotes(token_)\r\n        GovernorVotesQuorumFraction(quorumNumerator_)\r\n    {\r\n        _votingDelay = votingDelay_;\r\n        _votingPeriod = votingPeriod_;\r\n    }\r\n\r\n    function supportsInterface(bytes4 interfaceId)\r\n        public\r\n        view\r\n        virtual\r\n        override(Governor, GovernorTimelockCompound)\r\n        returns (bool)\r\n    {\r\n        return super.supportsInterface(interfaceId);\r\n    }\r\n\r\n    function votingDelay() public view override returns (uint256) {\r\n        return _votingDelay;\r\n    }\r\n\r\n    function votingPeriod() public view override returns (uint256) {\r\n        return _votingPeriod;\r\n    }\r\n\r\n    function quorum(uint256 blockNumber)\r\n        public\r\n        view\r\n        override(IGovernor, GovernorVotesQuorumFraction)\r\n        returns (uint256)\r\n    {\r\n        return super.quorum(blockNumber);\r\n    }\r\n\r\n    function cancel(\r\n        address[] memory targets,\r\n        uint256[] memory values,\r\n        bytes[] memory calldatas,\r\n        bytes32 salt\r\n    ) public returns (uint256 proposalId) {\r\n        return _cancel(targets, values, calldatas, salt);\r\n    }\r\n\r\n    /**\r\n     * Overriding nightmare\r\n     */\r\n    function state(uint256 proposalId)\r\n        public\r\n        view\r\n        virtual\r\n        override(Governor, GovernorTimelockCompound)\r\n        returns (ProposalState)\r\n    {\r\n        return super.state(proposalId);\r\n    }\r\n\r\n    function _execute(\r\n        uint256 proposalId,\r\n        address[] memory targets,\r\n        uint256[] memory values,\r\n        bytes[] memory calldatas,\r\n        bytes32 descriptionHash\r\n    ) internal virtual override(Governor, GovernorTimelockCompound) {\r\n        super._execute(proposalId, targets, values, calldatas, descriptionHash);\r\n    }\r\n\r\n    function _cancel(\r\n        address[] memory targets,\r\n        uint256[] memory values,\r\n        bytes[] memory calldatas,\r\n        bytes32 salt\r\n    ) internal virtual override(Governor, GovernorTimelockCompound) returns (uint256 proposalId) {\r\n        return super._cancel(targets, values, calldatas, salt);\r\n    }\r\n\r\n    function getVotes(address account, uint256 blockNumber)\r\n        public\r\n        view\r\n        virtual\r\n        override(IGovernor, GovernorVotes)\r\n        returns (uint256)\r\n    {\r\n        return super.getVotes(account, blockNumber);\r\n    }\r\n\r\n    function _executor() internal view virtual override(Governor, GovernorTimelockCompound) returns (address) {\r\n        return super._executor();\r\n    }\r\n}\r\n",
  "sourcePath": "C:\\Climax\\NFT-marketplace\\contracts\\openzeppelin-solidity\\contracts\\mocks\\GovernorTimelockCompoundMock.sol",
  "compiler": {
    "name": "solc",
    "version": "0.8.9+commit.e5eed63a.Emscripten.clang"
  },
  "schemaVersion": "3.4.3",
  "updatedAt": "2021-10-26T11:45:25.780Z",
  "devdoc": {
    "kind": "dev",
    "methods": {
      "COUNTING_MODE()": {
        "details": "See {IGovernor-COUNTING_MODE}."
      },
      "__acceptAdmin()": {
        "details": "Accept admin right over the timelock."
      },
      "castVote(uint256,uint8)": {
        "details": "See {IGovernor-castVote}."
      },
      "castVoteBySig(uint256,uint8,uint8,bytes32,bytes32)": {
        "details": "See {IGovernor-castVoteBySig}."
      },
      "castVoteWithReason(uint256,uint8,string)": {
        "details": "See {IGovernor-castVoteWithReason}."
      },
      "execute(address[],uint256[],bytes[],bytes32)": {
        "details": "See {IGovernor-execute}."
      },
      "hasVoted(uint256,address)": {
        "details": "See {IGovernor-hasVoted}."
      },
      "hashProposal(address[],uint256[],bytes[],bytes32)": {
        "details": "See {IGovernor-hashProposal}. The proposal id is produced by hashing the RLC encoded `targets` array, the `values` array, the `calldatas` array and the descriptionHash (bytes32 which itself is the keccak256 hash of the description string). This proposal id can be produced from the proposal data which is part of the {ProposalCreated} event. It can even be computed in advance, before the proposal is submitted. Note that the chainId and the governor address are not part of the proposal id computation. Consequently, the same proposal (with same operation and same description) will have the same id if submitted on multiple governors accross multiple networks. This also means that in order to execute the same operation twice (on the same governor) the proposer will have to change the description in order to avoid proposal id conflicts."
      },
      "name()": {
        "details": "See {IGovernor-name}."
      },
      "proposalDeadline(uint256)": {
        "details": "See {IGovernor-proposalDeadline}."
      },
      "proposalEta(uint256)": {
        "details": "Public accessor to check the eta of a queued proposal"
      },
      "proposalSnapshot(uint256)": {
        "details": "See {IGovernor-proposalSnapshot}."
      },
      "proposalVotes(uint256)": {
        "details": "Accessor to the internal vote counts."
      },
      "propose(address[],uint256[],bytes[],string)": {
        "details": "See {IGovernor-propose}."
      },
      "queue(address[],uint256[],bytes[],bytes32)": {
        "details": "Function to queue a proposal to the timelock."
      },
      "timelock()": {
        "details": "Public accessor to check the address of the timelock"
      },
      "updateTimelock(address)": {
        "details": "Public endpoint to update the underlying timelock instance. Restricted to the timelock itself, so updates must be proposed, scheduled and executed using the {Governor} workflow. For security reason, the timelock must be handed over to another admin before setting up a new one. The two operations (hand over the timelock) and do the update can be batched in a single proposal. Note that if the timelock admin has been handed over in a previous operation, we refuse updates made through the timelock if admin of the timelock has already been accepted and the operation is executed outside the scope of governance."
      },
      "version()": {
        "details": "See {IGovernor-version}."
      },
      "votingDelay()": {
        "details": "delay, in number of block, between the proposal is created and the vote starts. This can be increassed to leave time for users to buy voting power, of delegate it, before the voting of a proposal starts."
      },
      "votingPeriod()": {
        "details": "delay, in number of blocks, between the vote start and vote ends. Note: the {votingDelay} can delay the start of the vote. This must be considered when setting the voting duration compared to the voting delay."
      }
    },
    "version": 1
  },
  "userdoc": {
    "kind": "user",
    "methods": {
      "state(uint256)": {
        "notice": "Overriding nightmare"
      },
      "votingDelay()": {
        "notice": "module:user-config"
      },
      "votingPeriod()": {
        "notice": "module:user-config"
      }
    },
    "version": 1
  }
}