{
  "contractName": "MathMock",
  "abi": [
    {
      "inputs": [
        {
          "internalType": "uint256",
          "name": "a",
          "type": "uint256"
        },
        {
          "internalType": "uint256",
          "name": "b",
          "type": "uint256"
        }
      ],
      "name": "max",
      "outputs": [
        {
          "internalType": "uint256",
          "name": "",
          "type": "uint256"
        }
      ],
      "stateMutability": "pure",
      "type": "function"
    },
    {
      "inputs": [
        {
          "internalType": "uint256",
          "name": "a",
          "type": "uint256"
        },
        {
          "internalType": "uint256",
          "name": "b",
          "type": "uint256"
        }
      ],
      "name": "min",
      "outputs": [
        {
          "internalType": "uint256",
          "name": "",
          "type": "uint256"
        }
      ],
      "stateMutability": "pure",
      "type": "function"
    },
    {
      "inputs": [
        {
          "internalType": "uint256",
          "name": "a",
          "type": "uint256"
        },
        {
          "internalType": "uint256",
          "name": "b",
          "type": "uint256"
        }
      ],
      "name": "average",
      "outputs": [
        {
          "internalType": "uint256",
          "name": "",
          "type": "uint256"
        }
      ],
      "stateMutability": "pure",
      "type": "function"
    },
    {
      "inputs": [
        {
          "internalType": "uint256",
          "name": "a",
          "type": "uint256"
        },
        {
          "internalType": "uint256",
          "name": "b",
          "type": "uint256"
        }
      ],
      "name": "ceilDiv",
      "outputs": [
        {
          "internalType": "uint256",
          "name": "",
          "type": "uint256"
        }
      ],
      "stateMutability": "pure",
      "type": "function"
    }
  ],
  "bytecode": "0x608060405234801561001057600080fd5b506103ea806100206000396000f3fe608060405234801561001057600080fd5b506004361061004c5760003560e01c80632b7423ab146100515780636d5433e6146100815780637ae2b5c7146100b15780639cb35327146100e1575b600080fd5b61006b60048036038101906100669190610234565b610111565b6040516100789190610283565b60405180910390f35b61009b60048036038101906100969190610234565b610125565b6040516100a89190610283565b60405180910390f35b6100cb60048036038101906100c69190610234565b610139565b6040516100d89190610283565b60405180910390f35b6100fb60048036038101906100f69190610234565b61014d565b6040516101089190610283565b60405180910390f35b600061011d8383610161565b905092915050565b60006101318383610187565b905092915050565b600061014583836101a1565b905092915050565b600061015983836101ba565b905092915050565b6000600282841861017291906102fc565b82841661017f919061032d565b905092915050565b6000818310156101975781610199565b825b905092915050565b60008183106101b057816101b2565b825b905092915050565b60008082846101c99190610383565b146101d55760016101d8565b60005b60ff1682846101e791906102fc565b6101f1919061032d565b905092915050565b600080fd5b6000819050919050565b610211816101fe565b811461021c57600080fd5b50565b60008135905061022e81610208565b92915050565b6000806040838503121561024b5761024a6101f9565b5b60006102598582860161021f565b925050602061026a8582860161021f565b9150509250929050565b61027d816101fe565b82525050565b60006020820190506102986000830184610274565b92915050565b7f4e487b7100000000000000000000000000000000000000000000000000000000600052601260045260246000fd5b7f4e487b7100000000000000000000000000000000000000000000000000000000600052601160045260246000fd5b6000610307826101fe565b9150610312836101fe565b9250826103225761032161029e565b5b828204905092915050565b6000610338826101fe565b9150610343836101fe565b9250827fffffffffffffffffffffffffffffffffffffffffffffffffffffffffffffffff03821115610378576103776102cd565b5b828201905092915050565b600061038e826101fe565b9150610399836101fe565b9250826103a9576103a861029e565b5b82820690509291505056fea26469706673582212208948c0f34d100bb6568bda42d34750802a4bdaf58b9c57cc787e9df5cf26c36c64736f6c63430008090033",
  "immutableReferences": {},
  "source": "// SPDX-License-Identifier: MIT\r\n\r\npragma solidity ^0.8.0;\r\n\r\nimport \"../utils/math/Math.sol\";\r\n\r\ncontract MathMock {\r\n    function max(uint256 a, uint256 b) public pure returns (uint256) {\r\n        return Math.max(a, b);\r\n    }\r\n\r\n    function min(uint256 a, uint256 b) public pure returns (uint256) {\r\n        return Math.min(a, b);\r\n    }\r\n\r\n    function average(uint256 a, uint256 b) public pure returns (uint256) {\r\n        return Math.average(a, b);\r\n    }\r\n\r\n    function ceilDiv(uint256 a, uint256 b) public pure returns (uint256) {\r\n        return Math.ceilDiv(a, b);\r\n    }\r\n}\r\n",
  "sourcePath": "C:\\Climax\\NFT-marketplace\\contracts\\openzeppelin-solidity\\contracts\\mocks\\MathMock.sol",
  "compiler": {
    "name": "solc",
    "version": "0.8.9+commit.e5eed63a.Emscripten.clang"
  },
  "schemaVersion": "3.4.3",
  "updatedAt": "2021-10-26T11:45:25.827Z",
  "devdoc": {
    "kind": "dev",
    "methods": {},
    "version": 1
  },
  "userdoc": {
    "kind": "user",
    "methods": {},
    "version": 1
  }
}