{
  "contractName": "MerkleProofWrapper",
  "abi": [
    {
      "inputs": [
        {
          "internalType": "bytes32[]",
          "name": "proof",
          "type": "bytes32[]"
        },
        {
          "internalType": "bytes32",
          "name": "root",
          "type": "bytes32"
        },
        {
          "internalType": "bytes32",
          "name": "leaf",
          "type": "bytes32"
        }
      ],
      "name": "verify",
      "outputs": [
        {
          "internalType": "bool",
          "name": "",
          "type": "bool"
        }
      ],
      "stateMutability": "pure",
      "type": "function"
    }
  ],
  "bytecode": "0x608060405234801561001057600080fd5b506104a8806100206000396000f3fe608060405234801561001057600080fd5b506004361061002b5760003560e01c80635a9a49c714610030575b600080fd5b61004a600480360381019061004591906102cf565b610060565b6040516100579190610359565b60405180910390f35b600061006d848484610076565b90509392505050565b60008082905060005b855181101561011e57600086828151811061009d5761009c610374565b5b602002602001015190508083116100de5782816040516020016100c19291906103c4565b60405160208183030381529060405280519060200120925061010a565b80836040516020016100f19291906103c4565b6040516020818303038152906040528051906020012092505b50808061011690610429565b91505061007f565b508381149150509392505050565b6000604051905090565b600080fd5b600080fd5b600080fd5b6000601f19601f8301169050919050565b7f4e487b7100000000000000000000000000000000000000000000000000000000600052604160045260246000fd5b61018e82610145565b810181811067ffffffffffffffff821117156101ad576101ac610156565b5b80604052505050565b60006101c061012c565b90506101cc8282610185565b919050565b600067ffffffffffffffff8211156101ec576101eb610156565b5b602082029050602081019050919050565b600080fd5b6000819050919050565b61021581610202565b811461022057600080fd5b50565b6000813590506102328161020c565b92915050565b600061024b610246846101d1565b6101b6565b9050808382526020820190506020840283018581111561026e5761026d6101fd565b5b835b8181101561029757806102838882610223565b845260208401935050602081019050610270565b5050509392505050565b600082601f8301126102b6576102b5610140565b5b81356102c6848260208601610238565b91505092915050565b6000806000606084860312156102e8576102e7610136565b5b600084013567ffffffffffffffff8111156103065761030561013b565b5b610312868287016102a1565b935050602061032386828701610223565b925050604061033486828701610223565b9150509250925092565b60008115159050919050565b6103538161033e565b82525050565b600060208201905061036e600083018461034a565b92915050565b7f4e487b7100000000000000000000000000000000000000000000000000000000600052603260045260246000fd5b6000819050919050565b6103be6103b982610202565b6103a3565b82525050565b60006103d082856103ad565b6020820191506103e082846103ad565b6020820191508190509392505050565b7f4e487b7100000000000000000000000000000000000000000000000000000000600052601160045260246000fd5b6000819050919050565b60006104348261041f565b91507fffffffffffffffffffffffffffffffffffffffffffffffffffffffffffffffff821415610467576104666103f0565b5b60018201905091905056fea2646970667358221220cbf50cebdf2fd13b1cf7ce0cbc00e39726b5dcf2ca46601c4635db407743c60464736f6c63430008090033",
  "immutableReferences": {},
  "source": "// SPDX-License-Identifier: MIT\r\n\r\npragma solidity ^0.8.0;\r\n\r\nimport \"../utils/cryptography/MerkleProof.sol\";\r\n\r\ncontract MerkleProofWrapper {\r\n    function verify(\r\n        bytes32[] memory proof,\r\n        bytes32 root,\r\n        bytes32 leaf\r\n    ) public pure returns (bool) {\r\n        return MerkleProof.verify(proof, root, leaf);\r\n    }\r\n}\r\n",
  "sourcePath": "C:\\Climax\\NFT-marketplace\\contracts\\openzeppelin-solidity\\contracts\\mocks\\MerkleProofWrapper.sol",
  "compiler": {
    "name": "solc",
    "version": "0.8.9+commit.e5eed63a.Emscripten.clang"
  },
  "schemaVersion": "3.4.3",
  "updatedAt": "2021-10-26T11:45:25.830Z",
  "devdoc": {
    "kind": "dev",
    "methods": {},
    "version": 1
  },
  "userdoc": {
    "kind": "user",
    "methods": {},
    "version": 1
  }
}