{
  "contractName": "MigratableMockV1",
  "abi": [
    {
      "inputs": [],
      "name": "x",
      "outputs": [
        {
          "internalType": "uint256",
          "name": "",
          "type": "uint256"
        }
      ],
      "stateMutability": "view",
      "type": "function"
    },
    {
      "inputs": [
        {
          "internalType": "uint256",
          "name": "value",
          "type": "uint256"
        }
      ],
      "name": "initialize",
      "outputs": [],
      "stateMutability": "payable",
      "type": "function"
    }
  ],
  "bytecode": "0x608060405234801561001057600080fd5b506102c7806100206000396000f3fe6080604052600436106100295760003560e01c80630c55699c1461002e578063fe4b84df14610059575b600080fd5b34801561003a57600080fd5b50610043610075565b6040516100509190610175565b60405180910390f35b610073600480360381019061006e91906101c1565b61007b565b005b60015481565b600060019054906101000a900460ff16806100a1575060008054906101000a900460ff16155b6100e0576040517f08c379a00000000000000000000000000000000000000000000000000000000081526004016100d790610271565b60405180910390fd5b60008060019054906101000a900460ff161590508015610130576001600060016101000a81548160ff02191690831515021790555060016000806101000a81548160ff0219169083151502179055505b8160018190555080156101585760008060016101000a81548160ff0219169083151502179055505b5050565b6000819050919050565b61016f8161015c565b82525050565b600060208201905061018a6000830184610166565b92915050565b600080fd5b61019e8161015c565b81146101a957600080fd5b50565b6000813590506101bb81610195565b92915050565b6000602082840312156101d7576101d6610190565b5b60006101e5848285016101ac565b91505092915050565b600082825260208201905092915050565b7f496e697469616c697a61626c653a20636f6e747261637420697320616c72656160008201527f647920696e697469616c697a6564000000000000000000000000000000000000602082015250565b600061025b602e836101ee565b9150610266826101ff565b604082019050919050565b6000602082019050818103600083015261028a8161024e565b905091905056fea2646970667358221220e378551afa57ee7e691e0d3148a856b520654a996221ef3ed63ab96f8c428ee264736f6c63430008090033",
  "immutableReferences": {},
  "source": "// SPDX-License-Identifier: MIT\r\n\r\npragma solidity ^0.8.0;\r\n\r\nimport \"../proxy/utils/Initializable.sol\";\r\n\r\n/**\r\n * @title MigratableMockV1\r\n * @dev This contract is a mock to test initializable functionality through migrations\r\n */\r\ncontract MigratableMockV1 is Initializable {\r\n    uint256 public x;\r\n\r\n    function initialize(uint256 value) public payable initializer {\r\n        x = value;\r\n    }\r\n}\r\n\r\n/**\r\n * @title MigratableMockV2\r\n * @dev This contract is a mock to test migratable functionality with params\r\n */\r\ncontract MigratableMockV2 is MigratableMockV1 {\r\n    bool internal _migratedV2;\r\n    uint256 public y;\r\n\r\n    function migrate(uint256 value, uint256 anotherValue) public payable {\r\n        require(!_migratedV2);\r\n        x = value;\r\n        y = anotherValue;\r\n        _migratedV2 = true;\r\n    }\r\n}\r\n\r\n/**\r\n * @title MigratableMockV3\r\n * @dev This contract is a mock to test migratable functionality without params\r\n */\r\ncontract MigratableMockV3 is MigratableMockV2 {\r\n    bool internal _migratedV3;\r\n\r\n    function migrate() public payable {\r\n        require(!_migratedV3);\r\n        uint256 oldX = x;\r\n        x = y;\r\n        y = oldX;\r\n        _migratedV3 = true;\r\n    }\r\n}\r\n",
  "sourcePath": "C:\\Climax\\NFT-marketplace\\contracts\\openzeppelin-solidity\\contracts\\mocks\\SingleInheritanceInitializableMocks.sol",
  "compiler": {
    "name": "solc",
    "version": "0.8.9+commit.e5eed63a.Emscripten.clang"
  },
  "schemaVersion": "3.4.3",
  "updatedAt": "2021-10-26T11:45:25.965Z",
  "devdoc": {
    "details": "This contract is a mock to test initializable functionality through migrations",
    "kind": "dev",
    "methods": {},
    "title": "MigratableMockV1",
    "version": 1
  },
  "userdoc": {
    "kind": "user",
    "methods": {},
    "version": 1
  }
}