{
  "contractName": "PhotoNFTTradable",
  "abi": [
    {
      "inputs": [
        {
          "internalType": "contract PhotoNFTData",
          "name": "_photoNFTData",
          "type": "address"
        }
      ],
      "stateMutability": "nonpayable",
      "type": "constructor"
    },
    {
      "anonymous": false,
      "inputs": [
        {
          "indexed": false,
          "internalType": "address",
          "name": "owner",
          "type": "address"
        },
        {
          "indexed": false,
          "internalType": "address",
          "name": "sender",
          "type": "address"
        }
      ],
      "name": "OpenTradeInfo",
      "type": "event"
    },
    {
      "anonymous": false,
      "inputs": [
        {
          "indexed": false,
          "internalType": "address",
          "name": "ad",
          "type": "address"
        },
        {
          "indexed": false,
          "internalType": "bool",
          "name": "status",
          "type": "bool"
        }
      ],
      "name": "TradePremiumStatusChange",
      "type": "event"
    },
    {
      "anonymous": false,
      "inputs": [
        {
          "indexed": false,
          "internalType": "address",
          "name": "ad",
          "type": "address"
        },
        {
          "indexed": false,
          "internalType": "bytes32",
          "name": "status",
          "type": "bytes32"
        }
      ],
      "name": "TradeStatusChange",
      "type": "event"
    },
    {
      "inputs": [],
      "name": "photoNFTData",
      "outputs": [
        {
          "internalType": "contract PhotoNFTData",
          "name": "",
          "type": "address"
        }
      ],
      "stateMutability": "view",
      "type": "function"
    },
    {
      "inputs": [
        {
          "internalType": "address",
          "name": "",
          "type": "address"
        }
      ],
      "name": "trades",
      "outputs": [
        {
          "internalType": "address",
          "name": "seller",
          "type": "address"
        },
        {
          "internalType": "uint256",
          "name": "photoId",
          "type": "uint256"
        },
        {
          "internalType": "uint256",
          "name": "photoPrice",
          "type": "uint256"
        },
        {
          "internalType": "bytes32",
          "name": "status",
          "type": "bytes32"
        },
        {
          "internalType": "bool",
          "name": "premiumStatus",
          "type": "bool"
        }
      ],
      "stateMutability": "view",
      "type": "function"
    },
    {
      "inputs": [
        {
          "internalType": "contract PhotoNFT",
          "name": "photoNFT",
          "type": "address"
        },
        {
          "internalType": "uint256",
          "name": "_photoId",
          "type": "uint256"
        },
        {
          "internalType": "uint256",
          "name": "_photoPrice",
          "type": "uint256"
        },
        {
          "internalType": "address",
          "name": "seller",
          "type": "address"
        }
      ],
      "name": "registerTradeWhenCreateNewPhotoNFT",
      "outputs": [],
      "stateMutability": "nonpayable",
      "type": "function"
    },
    {
      "inputs": [
        {
          "internalType": "contract PhotoNFT",
          "name": "photoNFT",
          "type": "address"
        },
        {
          "internalType": "uint256",
          "name": "_photoId",
          "type": "uint256"
        },
        {
          "internalType": "uint256",
          "name": "price",
          "type": "uint256"
        }
      ],
      "name": "openTrade",
      "outputs": [],
      "stateMutability": "nonpayable",
      "type": "function"
    },
    {
      "inputs": [
        {
          "internalType": "contract PhotoNFT",
          "name": "photoNFT",
          "type": "address"
        },
        {
          "internalType": "uint256",
          "name": "_photoId",
          "type": "uint256"
        }
      ],
      "name": "cancelTrade",
      "outputs": [],
      "stateMutability": "nonpayable",
      "type": "function"
    },
    {
      "inputs": [
        {
          "internalType": "contract PhotoNFT",
          "name": "photoNFT",
          "type": "address"
        },
        {
          "internalType": "uint256",
          "name": "_photoId",
          "type": "uint256"
        },
        {
          "internalType": "bool",
          "name": "_newState",
          "type": "bool"
        }
      ],
      "name": "updatePremiumStatus",
      "outputs": [],
      "stateMutability": "nonpayable",
      "type": "function"
    },
    {
      "inputs": [
        {
          "internalType": "contract PhotoNFT",
          "name": "_photoNFT",
          "type": "address"
        },
        {
          "internalType": "uint256",
          "name": "_photoId",
          "type": "uint256"
        },
        {
          "internalType": "address",
          "name": "_buyer",
          "type": "address"
        }
      ],
      "name": "transferOwnershipOfPhotoNFT",
      "outputs": [],
      "stateMutability": "nonpayable",
      "type": "function"
    },
    {
      "inputs": [
        {
          "internalType": "contract PhotoNFT",
          "name": "photoNFT",
          "type": "address"
        }
      ],
      "name": "getTrade",
      "outputs": [
        {
          "components": [
            {
              "internalType": "address",
              "name": "seller",
              "type": "address"
            },
            {
              "internalType": "uint256",
              "name": "photoId",
              "type": "uint256"
            },
            {
              "internalType": "uint256",
              "name": "photoPrice",
              "type": "uint256"
            },
            {
              "internalType": "bytes32",
              "name": "status",
              "type": "bytes32"
            },
            {
              "internalType": "bool",
              "name": "premiumStatus",
              "type": "bool"
            }
          ],
          "internalType": "struct PhotoNFTTradable.Trade",
          "name": "trade_",
          "type": "tuple"
        }
      ],
      "stateMutability": "view",
      "type": "function"
    }
  ],
  "bytecode": "0x60806040523480156200001157600080fd5b506040516200189338038062001893833981810160405281019062000037919062000104565b806000806101000a81548173ffffffffffffffffffffffffffffffffffffffff021916908373ffffffffffffffffffffffffffffffffffffffff16021790555060006002819055505062000136565b600080fd5b600073ffffffffffffffffffffffffffffffffffffffff82169050919050565b6000620000b8826200008b565b9050919050565b6000620000cc82620000ab565b9050919050565b620000de81620000bf565b8114620000ea57600080fd5b50565b600081519050620000fe81620000d3565b92915050565b6000602082840312156200011d576200011c62000086565b5b60006200012d84828501620000ed565b91505092915050565b61174d80620001466000396000f3fe608060405234801561001057600080fd5b50600436106100885760003560e01c8063ab7a6c3e1161005b578063ab7a6c3e14610115578063baea40e214610145578063dee98aad14610161578063ec0395141461017d57610088565b8063493c21761461008d578063759c4bf3146100a95780638d6b52f3146100c5578063a9f752e5146100e1575b600080fd5b6100a760048036038101906100a29190610e1c565b61019b565b005b6100c360048036038101906100be9190610e6f565b6102f9565b005b6100df60048036038101906100da9190610ee7565b610579565b005b6100fb60048036038101906100f69190610f3a565b610757565b60405161010c959493929190610fad565b60405180910390f35b61012f600480360381019061012a9190611000565b6107ba565b60405161013c91906110d1565b60405180910390f35b61015f600480360381019061015a91906110ec565b6108a8565b005b61017b6004803603810190610176919061113f565b610b04565b005b610185610c4b565b6040516101929190611205565b60405180910390f35b600083905060006101ab856107ba565b90507f4f70656e00000000000000000000000000000000000000000000000000000000816060015114610213576040517f08c379a000000000000000000000000000000000000000000000000000000000815260040161020a9061127d565b60405180910390fd5b61021e858585610c6f565b8173ffffffffffffffffffffffffffffffffffffffff166323b872dd308584602001516040518463ffffffff1660e01b815260040161025f9392919061129d565b600060405180830381600087803b15801561027957600080fd5b505af115801561028d573d6000803e3d6000fd5b505050507f43616e63656c6c656400000000000000000000000000000000000000000000008160600181815250507fee0bd10dbd5c2151f43ed2fa6af0584fbad842aa901d657f39fffd140822ae70856040516102ea91906112fa565b60405180910390a15050505050565b6000600160008473ffffffffffffffffffffffffffffffffffffffff1673ffffffffffffffffffffffffffffffffffffffff16815260200190815260200160002090508060000160009054906101000a900473ffffffffffffffffffffffffffffffffffffffff1673ffffffffffffffffffffffffffffffffffffffff163373ffffffffffffffffffffffffffffffffffffffff16146103ce576040517f08c379a00000000000000000000000000000000000000000000000000000000081526004016103c590611393565b60405180910390fd5b60008054906101000a900473ffffffffffffffffffffffffffffffffffffffff1673ffffffffffffffffffffffffffffffffffffffff1663bd8afa9f8460006040518363ffffffff1660e01b815260040161042a92919061145b565b602060405180830381600087803b15801561044457600080fd5b505af1158015610458573d6000803e3d6000fd5b505050506040513d601f19601f8201168201806040525081019061047c91906114ac565b508273ffffffffffffffffffffffffffffffffffffffff166323b872dd308360000160009054906101000a900473ffffffffffffffffffffffffffffffffffffffff1684600101546040518463ffffffff1660e01b81526004016104e29392919061129d565b600060405180830381600087803b1580156104fc57600080fd5b505af1158015610510573d6000803e3d6000fd5b505050507f43616e63656c6c6564000000000000000000000000000000000000000000000081600301819055507fee0bd10dbd5c2151f43ed2fa6af0584fbad842aa901d657f39fffd140822ae708360405161056c91906112fa565b60405180910390a1505050565b6000600160008573ffffffffffffffffffffffffffffffffffffffff1673ffffffffffffffffffffffffffffffffffffffff16815260200190815260200160002090508060000160009054906101000a900473ffffffffffffffffffffffffffffffffffffffff1673ffffffffffffffffffffffffffffffffffffffff163373ffffffffffffffffffffffffffffffffffffffff161461064e576040517f08c379a00000000000000000000000000000000000000000000000000000000081526004016106459061154b565b60405180910390fd5b60008054906101000a900473ffffffffffffffffffffffffffffffffffffffff1673ffffffffffffffffffffffffffffffffffffffff1663c4d55c6885846040518363ffffffff1660e01b81526004016106a992919061156b565b602060405180830381600087803b1580156106c357600080fd5b505af11580156106d7573d6000803e3d6000fd5b505050506040513d601f19601f820116820180604052508101906106fb91906114ac565b50818160040160006101000a81548160ff0219169083151502179055507ff914bff822f938e06c0aaceb42bb4ca99085426a1e493b755e716662d12163ee8483604051610749929190611594565b60405180910390a150505050565b60016020528060005260406000206000915090508060000160009054906101000a900473ffffffffffffffffffffffffffffffffffffffff16908060010154908060020154908060030154908060040160009054906101000a900460ff16905085565b6107c2610cfb565b6000600160008473ffffffffffffffffffffffffffffffffffffffff1673ffffffffffffffffffffffffffffffffffffffff1681526020019081526020016000206040518060a00160405290816000820160009054906101000a900473ffffffffffffffffffffffffffffffffffffffff1673ffffffffffffffffffffffffffffffffffffffff1673ffffffffffffffffffffffffffffffffffffffff1681526020016001820154815260200160028201548152602001600382015481526020016004820160009054906101000a900460ff161515151581525050905080915050919050565b6000600160008573ffffffffffffffffffffffffffffffffffffffff1673ffffffffffffffffffffffffffffffffffffffff16815260200190815260200160002090508060000160009054906101000a900473ffffffffffffffffffffffffffffffffffffffff1673ffffffffffffffffffffffffffffffffffffffff163373ffffffffffffffffffffffffffffffffffffffff161461097d576040517f08c379a00000000000000000000000000000000000000000000000000000000081526004016109749061154b565b60405180910390fd5b60008054906101000a900473ffffffffffffffffffffffffffffffffffffffff1673ffffffffffffffffffffffffffffffffffffffff1663bd8afa9f85846040518363ffffffff1660e01b81526004016109d8929190611609565b602060405180830381600087803b1580156109f257600080fd5b505af1158015610a06573d6000803e3d6000fd5b505050506040513d601f19601f82011682018060405250810190610a2a91906114ac565b508373ffffffffffffffffffffffffffffffffffffffff166323b872dd333084600101546040518463ffffffff1660e01b8152600401610a6c9392919061129d565b600060405180830381600087803b158015610a8657600080fd5b505af1158015610a9a573d6000803e3d6000fd5b505050507f4f70656e0000000000000000000000000000000000000000000000000000000081600301819055507fee0bd10dbd5c2151f43ed2fa6af0584fbad842aa901d657f39fffd140822ae7084604051610af6919061166b565b60405180910390a150505050565b600160026000828254610b1791906116c1565b925050819055506040518060a001604052808273ffffffffffffffffffffffffffffffffffffffff1681526020018481526020018381526020017f43616e63656c6c65640000000000000000000000000000000000000000000000815260200160001515815250600160008673ffffffffffffffffffffffffffffffffffffffff1673ffffffffffffffffffffffffffffffffffffffff16815260200190815260200160002060008201518160000160006101000a81548173ffffffffffffffffffffffffffffffffffffffff021916908373ffffffffffffffffffffffffffffffffffffffff16021790555060208201518160010155604082015181600201556060820151816003015560808201518160040160006101000a81548160ff02191690831515021790555090505050505050565b60008054906101000a900473ffffffffffffffffffffffffffffffffffffffff1681565b6000600160008573ffffffffffffffffffffffffffffffffffffffff1673ffffffffffffffffffffffffffffffffffffffff1681526020019081526020016000209050818160000160006101000a81548173ffffffffffffffffffffffffffffffffffffffff021916908373ffffffffffffffffffffffffffffffffffffffff16021790555050505050565b6040518060a00160405280600073ffffffffffffffffffffffffffffffffffffffff1681526020016000815260200160008152602001600080191681526020016000151581525090565b600080fd5b600073ffffffffffffffffffffffffffffffffffffffff82169050919050565b6000610d7582610d4a565b9050919050565b6000610d8782610d6a565b9050919050565b610d9781610d7c565b8114610da257600080fd5b50565b600081359050610db481610d8e565b92915050565b6000819050919050565b610dcd81610dba565b8114610dd857600080fd5b50565b600081359050610dea81610dc4565b92915050565b610df981610d6a565b8114610e0457600080fd5b50565b600081359050610e1681610df0565b92915050565b600080600060608486031215610e3557610e34610d45565b5b6000610e4386828701610da5565b9350506020610e5486828701610ddb565b9250506040610e6586828701610e07565b9150509250925092565b60008060408385031215610e8657610e85610d45565b5b6000610e9485828601610da5565b9250506020610ea585828601610ddb565b9150509250929050565b60008115159050919050565b610ec481610eaf565b8114610ecf57600080fd5b50565b600081359050610ee181610ebb565b92915050565b600080600060608486031215610f0057610eff610d45565b5b6000610f0e86828701610da5565b9350506020610f1f86828701610ddb565b9250506040610f3086828701610ed2565b9150509250925092565b600060208284031215610f5057610f4f610d45565b5b6000610f5e84828501610e07565b91505092915050565b610f7081610d6a565b82525050565b610f7f81610dba565b82525050565b6000819050919050565b610f9881610f85565b82525050565b610fa781610eaf565b82525050565b600060a082019050610fc26000830188610f67565b610fcf6020830187610f76565b610fdc6040830186610f76565b610fe96060830185610f8f565b610ff66080830184610f9e565b9695505050505050565b60006020828403121561101657611015610d45565b5b600061102484828501610da5565b91505092915050565b61103681610d6a565b82525050565b61104581610dba565b82525050565b61105481610f85565b82525050565b61106381610eaf565b82525050565b60a08201600082015161107f600085018261102d565b506020820151611092602085018261103c565b5060408201516110a5604085018261103c565b5060608201516110b8606085018261104b565b5060808201516110cb608085018261105a565b50505050565b600060a0820190506110e66000830184611069565b92915050565b60008060006060848603121561110557611104610d45565b5b600061111386828701610da5565b935050602061112486828701610ddb565b925050604061113586828701610ddb565b9150509250925092565b6000806000806080858703121561115957611158610d45565b5b600061116787828801610da5565b945050602061117887828801610ddb565b935050604061118987828801610ddb565b925050606061119a87828801610e07565b91505092959194509250565b6000819050919050565b60006111cb6111c66111c184610d4a565b6111a6565b610d4a565b9050919050565b60006111dd826111b0565b9050919050565b60006111ef826111d2565b9050919050565b6111ff816111e4565b82525050565b600060208201905061121a60008301846111f6565b92915050565b600082825260208201905092915050565b7f5472616465206973206e6f74204f70656e2e0000000000000000000000000000600082015250565b6000611267601283611220565b915061127282611231565b602082019050919050565b600060208201905081810360008301526112968161125a565b9050919050565b60006060820190506112b26000830186610f67565b6112bf6020830185610f67565b6112cc6040830184610f76565b949350505050565b7f43616e63656c6c65640000000000000000000000000000000000000000000000815250565b600060408201905061130f6000830184610f67565b61131b602083016112d4565b92915050565b7f54726164652063616e2062652063616e63656c6c6564206f6e6c79206279207360008201527f656c6c65722e0000000000000000000000000000000000000000000000000000602082015250565b600061137d602683611220565b915061138882611321565b604082019050919050565b600060208201905081810360008301526113ac81611370565b9050919050565b60006113be826111d2565b9050919050565b6113ce816113b3565b82525050565b7f43616e63656c6c65640000000000000000000000000000000000000000000000600082015250565b600061140a600983611220565b9150611415826113d4565b602082019050919050565b6000819050919050565b600061144561144061143b84611420565b6111a6565b610dba565b9050919050565b6114558161142a565b82525050565b600060608201905061147060008301856113c5565b8181036020830152611481816113fd565b9050611490604083018461144c565b9392505050565b6000815190506114a681610ebb565b92915050565b6000602082840312156114c2576114c1610d45565b5b60006114d084828501611497565b91505092915050565b7f54726164652063616e206265206f70656e206f6e6c792062792073656c6c657260008201527f2e00000000000000000000000000000000000000000000000000000000000000602082015250565b6000611535602183611220565b9150611540826114d9565b604082019050919050565b6000602082019050818103600083015261156481611528565b9050919050565b600060408201905061158060008301856113c5565b61158d6020830184610f9e565b9392505050565b60006040820190506115a96000830185610f67565b6115b66020830184610f9e565b9392505050565b7f4f70656e00000000000000000000000000000000000000000000000000000000600082015250565b60006115f3600483611220565b91506115fe826115bd565b602082019050919050565b600060608201905061161e60008301856113c5565b818103602083015261162f816115e6565b905061163e6040830184610f76565b9392505050565b7f4f70656e00000000000000000000000000000000000000000000000000000000815250565b60006040820190506116806000830184610f67565b61168c60208301611645565b92915050565b7f4e487b7100000000000000000000000000000000000000000000000000000000600052601160045260246000fd5b60006116cc82610dba565b91506116d783610dba565b9250827fffffffffffffffffffffffffffffffffffffffffffffffffffffffffffffffff0382111561170c5761170b611692565b5b82820190509291505056fea2646970667358221220be08c023632fa00aa8e56eecef7fce2ca9c1881042a6e96b0c423f283938bfb264736f6c63430008090033",
  "immutableReferences": {},
  "source": "// SPDX-License-Identifier: MIT\r\npragma solidity ^0.8.0;\r\npragma experimental ABIEncoderV2;\r\n\r\nimport { PhotoNFT } from \"./PhotoNFT.sol\";\r\nimport { PhotoNFTData } from \"./PhotoNFTData.sol\";\r\n\r\n\r\n/**\r\n * @title - PhotoNFTTradable contract\r\n * @notice - This contract has role that put on sale of photoNFTs\r\n */\r\ncontract PhotoNFTTradable {\r\n    event TradeStatusChange(address ad, bytes32 status);\r\n    event TradePremiumStatusChange(address ad, bool status);\r\n    event OpenTradeInfo(address owner, address sender);\r\n\r\n    //cjh \r\n    // PhotoNFT public photoNFT;\r\n    PhotoNFTData public photoNFTData;\r\n\r\n    struct Trade {\r\n        address seller;\r\n        uint256 photoId;  // PhotoNFT's token ID\r\n        uint256 photoPrice;\r\n        bytes32 status;   // Open, Executed, Cancelled\r\n        bool    premiumStatus; // false : not , true: premium\r\n    }\r\n    mapping(address => Trade) public trades;  // [Key]: PhotoNFT's token ID\r\n\r\n    uint256 tradeCounter;\r\n\r\n    constructor(PhotoNFTData _photoNFTData) public {\r\n        photoNFTData = _photoNFTData;\r\n        tradeCounter = 0;\r\n    }\r\n\r\n    /**\r\n     * @notice - This method is only executed when a seller create a new PhotoNFT\r\n     * @dev Opens a new trade. Puts _photoId in escrow.\r\n     * @param _photoId The id for the photoId to trade.\r\n     * @param _photoPrice The amount of currency for which to trade the photoId.\r\n     */\r\n    function registerTradeWhenCreateNewPhotoNFT(PhotoNFT photoNFT, uint256 _photoId, uint256 _photoPrice, address seller) public {\r\n        // photoNFT.transferFrom(msg.sender, address(this), _photoId);\r\n\r\n        tradeCounter += 1;    /// [Note]: New. Trade count is started from \"1\". This is to align photoId\r\n\r\n        //cjh\r\n        // trades[tradeCounter] = Trade({\r\n        trades[address(photoNFT)] = Trade({\r\n            seller: seller,\r\n            photoId: _photoId,\r\n            photoPrice: _photoPrice,\r\n            status: \"Cancelled\", \r\n            premiumStatus : false\r\n        });\r\n        //tradeCounter += 1;  /// [Note]: Original\r\n        // emit TradeStatusChange(address(photoNFT), \"Open\");\r\n    }\r\n\r\n    /**\r\n     * @dev Opens a trade by the seller.\r\n     */\r\n    function openTrade(PhotoNFT photoNFT, uint256 _photoId, uint price) public {\r\n\r\n        \r\n        \r\n        Trade storage trade = trades[address(photoNFT)];\r\n        require(\r\n            msg.sender == trade.seller,\r\n            \"Trade can be open only by seller.\"\r\n        );\r\n        // emit OpenTradeInfo(msg.sender, trade.seller);\r\n\r\n        photoNFTData.updateStatus(photoNFT, \"Open\", price);\r\n        photoNFT.transferFrom(msg.sender, address(this), trade.photoId);\r\n        // trades[photoNFT].status = \"Open\";\r\n        //cjh \r\n        trade.status = \"Open\";\r\n        emit TradeStatusChange(address(photoNFT), \"Open\");\r\n    }\r\n\r\n    /**\r\n     * @dev Cancels a trade by the seller.\r\n     */\r\n    function cancelTrade(PhotoNFT photoNFT, uint256 _photoId) public {\r\n        Trade storage trade = trades[address(photoNFT)];\r\n\r\n        require(\r\n            msg.sender == trade.seller,\r\n            \"Trade can be cancelled only by seller.\"\r\n        );\r\n        // require(trade.status == \"Open\", \"Trade is not Open.\");\r\n\r\n        photoNFTData.updateStatus(photoNFT, \"Cancelled\", 0);\r\n        photoNFT.transferFrom(address(this), trade.seller, trade.photoId);\r\n        trade.status = \"Cancelled\";\r\n        emit TradeStatusChange(address(photoNFT), \"Cancelled\");\r\n    }\r\n\r\n    /**\r\n     * @dev Opens a trade by the seller.\r\n     */\r\n    function updatePremiumStatus(PhotoNFT photoNFT, uint256 _photoId, bool _newState) public {\r\n        Trade storage trade = trades[address(photoNFT)];\r\n        require(\r\n            msg.sender == trade.seller,\r\n            \"Trade can be open only by seller.\"\r\n        );\r\n        photoNFTData.updatePremiumStatus(photoNFT, _newState);     \r\n         \r\n        trade.premiumStatus = _newState;\r\n        emit TradePremiumStatusChange(address(photoNFT), _newState);\r\n    }\r\n    \r\n    /**\r\n     * @dev Executes a trade. Must have approved this contract to transfer the amount of currency specified to the seller. Transfers ownership of the photoId to the filler.\r\n     */\r\n    function transferOwnershipOfPhotoNFT(PhotoNFT _photoNFT, uint256 _photoId, address _buyer) public {\r\n        PhotoNFT photoNFT = _photoNFT;\r\n\r\n        Trade memory trade = getTrade(_photoNFT);\r\n        require(trade.status == \"Open\", \"Trade is not Open.\");\r\n\r\n        _updateSeller(_photoNFT, _photoId, _buyer);\r\n\r\n        //cjh \r\n\r\n        photoNFT.transferFrom(address(this), _buyer, trade.photoId);\r\n        trade.status = \"Cancelled\";\r\n        emit TradeStatusChange(address(_photoNFT), \"Cancelled\");\r\n    }\r\n\r\n    function _updateSeller(PhotoNFT photoNFT, uint256 _photoId, address _newSeller) internal {\r\n        Trade storage trade = trades[address(photoNFT)];\r\n        trade.seller = _newSeller;\r\n    }\r\n\r\n\r\n    /**\r\n     * @dev - Returns the details for a trade.\r\n     */\r\n    function getTrade(PhotoNFT photoNFT) public view returns (Trade memory trade_) {\r\n        Trade memory trade = trades[address(photoNFT)];\r\n        return trade;\r\n        //return (trade.seller, trade.photoId, trade.photoPrice, trade.status);\r\n    }\r\n}\r\n",
  "sourcePath": "C:\\Climax\\NFT-marketplace\\contracts\\PhotoNFTTradable.sol",
  "compiler": {
    "name": "solc",
    "version": "0.8.9+commit.e5eed63a.Emscripten.clang"
  },
  "schemaVersion": "3.4.3",
  "updatedAt": "2021-10-26T11:45:25.122Z",
  "devdoc": {
    "kind": "dev",
    "methods": {
      "cancelTrade(address,uint256)": {
        "details": "Cancels a trade by the seller."
      },
      "getTrade(address)": {
        "details": "- Returns the details for a trade."
      },
      "openTrade(address,uint256,uint256)": {
        "details": "Opens a trade by the seller."
      },
      "registerTradeWhenCreateNewPhotoNFT(address,uint256,uint256,address)": {
        "details": "Opens a new trade. Puts _photoId in escrow.",
        "params": {
          "_photoId": "The id for the photoId to trade.",
          "_photoPrice": "The amount of currency for which to trade the photoId."
        }
      },
      "transferOwnershipOfPhotoNFT(address,uint256,address)": {
        "details": "Executes a trade. Must have approved this contract to transfer the amount of currency specified to the seller. Transfers ownership of the photoId to the filler."
      },
      "updatePremiumStatus(address,uint256,bool)": {
        "details": "Opens a trade by the seller."
      }
    },
    "title": "- PhotoNFTTradable contract",
    "version": 1
  },
  "userdoc": {
    "kind": "user",
    "methods": {
      "registerTradeWhenCreateNewPhotoNFT(address,uint256,uint256,address)": {
        "notice": "- This method is only executed when a seller create a new PhotoNFT"
      }
    },
    "notice": "- This contract has role that put on sale of photoNFTs",
    "version": 1
  }
}