{
  "contractName": "PhotoNFTData",
  "abi": [
    {
      "inputs": [],
      "stateMutability": "nonpayable",
      "type": "constructor"
    },
    {
      "inputs": [
        {
          "internalType": "uint256",
          "name": "",
          "type": "uint256"
        }
      ],
      "name": "photoAddresses",
      "outputs": [
        {
          "internalType": "address",
          "name": "",
          "type": "address"
        }
      ],
      "stateMutability": "view",
      "type": "function",
      "constant": true
    },
    {
      "inputs": [
        {
          "internalType": "uint256",
          "name": "",
          "type": "uint256"
        }
      ],
      "name": "photos",
      "outputs": [
        {
          "internalType": "contract PhotoNFT",
          "name": "photoNFT",
          "type": "address"
        },
        {
          "internalType": "string",
          "name": "photoNFTName",
          "type": "string"
        },
        {
          "internalType": "string",
          "name": "photoNFTSymbol",
          "type": "string"
        },
        {
          "internalType": "address",
          "name": "ownerAddress",
          "type": "address"
        },
        {
          "internalType": "uint256",
          "name": "photoPrice",
          "type": "uint256"
        },
        {
          "internalType": "string",
          "name": "ipfsHashOfPhoto",
          "type": "string"
        },
        {
          "internalType": "string",
          "name": "status",
          "type": "string"
        },
        {
          "internalType": "uint256",
          "name": "reputation",
          "type": "uint256"
        },
        {
          "internalType": "bool",
          "name": "premiumStatus",
          "type": "bool"
        },
        {
          "internalType": "string",
          "name": "photoNFTDesc",
          "type": "string"
        },
        {
          "internalType": "uint256",
          "name": "premiumTimestamp",
          "type": "uint256"
        },
        {
          "internalType": "uint256",
          "name": "createdAt",
          "type": "uint256"
        }
      ],
      "stateMutability": "view",
      "type": "function",
      "constant": true
    },
    {
      "inputs": [],
      "name": "premiumLimit",
      "outputs": [
        {
          "internalType": "uint256",
          "name": "",
          "type": "uint256"
        }
      ],
      "stateMutability": "view",
      "type": "function",
      "constant": true
    },
    {
      "inputs": [
        {
          "internalType": "address[]",
          "name": "_photoAddresses",
          "type": "address[]"
        },
        {
          "internalType": "contract PhotoNFT",
          "name": "_photoNFT",
          "type": "address"
        },
        {
          "internalType": "string",
          "name": "_photoNFTName",
          "type": "string"
        },
        {
          "internalType": "string",
          "name": "_photoNFTSymbol",
          "type": "string"
        },
        {
          "internalType": "address",
          "name": "_ownerAddress",
          "type": "address"
        },
        {
          "internalType": "uint256",
          "name": "_photoPrice",
          "type": "uint256"
        },
        {
          "internalType": "string",
          "name": "_ipfsHashOfPhoto",
          "type": "string"
        },
        {
          "internalType": "string",
          "name": "desc",
          "type": "string"
        }
      ],
      "name": "saveMetadataOfPhotoNFT",
      "outputs": [
        {
          "internalType": "bool",
          "name": "",
          "type": "bool"
        }
      ],
      "stateMutability": "nonpayable",
      "type": "function"
    },
    {
      "inputs": [
        {
          "internalType": "contract PhotoNFT",
          "name": "_photoNFT",
          "type": "address"
        },
        {
          "internalType": "address",
          "name": "_newOwner",
          "type": "address"
        }
      ],
      "name": "updateOwnerOfPhotoNFT",
      "outputs": [
        {
          "internalType": "bool",
          "name": "",
          "type": "bool"
        }
      ],
      "stateMutability": "nonpayable",
      "type": "function"
    },
    {
      "inputs": [
        {
          "internalType": "contract PhotoNFT",
          "name": "_photoNFT",
          "type": "address"
        },
        {
          "internalType": "string",
          "name": "_newStatus",
          "type": "string"
        },
        {
          "internalType": "uint256",
          "name": "price",
          "type": "uint256"
        }
      ],
      "name": "updateStatus",
      "outputs": [
        {
          "internalType": "bool",
          "name": "",
          "type": "bool"
        }
      ],
      "stateMutability": "nonpayable",
      "type": "function"
    },
    {
      "inputs": [
        {
          "internalType": "contract PhotoNFT",
          "name": "_photoNFT",
          "type": "address"
        },
        {
          "internalType": "bool",
          "name": "_newStatus",
          "type": "bool"
        }
      ],
      "name": "updatePremiumStatus",
      "outputs": [
        {
          "internalType": "bool",
          "name": "",
          "type": "bool"
        }
      ],
      "stateMutability": "nonpayable",
      "type": "function"
    },
    {
      "inputs": [
        {
          "internalType": "uint256",
          "name": "index",
          "type": "uint256"
        }
      ],
      "name": "getPhoto",
      "outputs": [
        {
          "components": [
            {
              "internalType": "contract PhotoNFT",
              "name": "photoNFT",
              "type": "address"
            },
            {
              "internalType": "string",
              "name": "photoNFTName",
              "type": "string"
            },
            {
              "internalType": "string",
              "name": "photoNFTSymbol",
              "type": "string"
            },
            {
              "internalType": "address",
              "name": "ownerAddress",
              "type": "address"
            },
            {
              "internalType": "uint256",
              "name": "photoPrice",
              "type": "uint256"
            },
            {
              "internalType": "string",
              "name": "ipfsHashOfPhoto",
              "type": "string"
            },
            {
              "internalType": "string",
              "name": "status",
              "type": "string"
            },
            {
              "internalType": "uint256",
              "name": "reputation",
              "type": "uint256"
            },
            {
              "internalType": "bool",
              "name": "premiumStatus",
              "type": "bool"
            },
            {
              "internalType": "string",
              "name": "photoNFTDesc",
              "type": "string"
            },
            {
              "internalType": "uint256",
              "name": "premiumTimestamp",
              "type": "uint256"
            },
            {
              "internalType": "uint256",
              "name": "createdAt",
              "type": "uint256"
            }
          ],
          "internalType": "struct PhotoNFTDataObjects.Photo",
          "name": "_photo",
          "type": "tuple"
        }
      ],
      "stateMutability": "view",
      "type": "function",
      "constant": true
    },
    {
      "inputs": [
        {
          "internalType": "contract PhotoNFT",
          "name": "photoNFT",
          "type": "address"
        }
      ],
      "name": "getPhotoIndex",
      "outputs": [
        {
          "internalType": "uint256",
          "name": "_photoIndex",
          "type": "uint256"
        }
      ],
      "stateMutability": "view",
      "type": "function",
      "constant": true
    },
    {
      "inputs": [
        {
          "internalType": "contract PhotoNFT",
          "name": "photoNFT",
          "type": "address"
        }
      ],
      "name": "getPhotoByNFTAddress",
      "outputs": [
        {
          "components": [
            {
              "internalType": "contract PhotoNFT",
              "name": "photoNFT",
              "type": "address"
            },
            {
              "internalType": "string",
              "name": "photoNFTName",
              "type": "string"
            },
            {
              "internalType": "string",
              "name": "photoNFTSymbol",
              "type": "string"
            },
            {
              "internalType": "address",
              "name": "ownerAddress",
              "type": "address"
            },
            {
              "internalType": "uint256",
              "name": "photoPrice",
              "type": "uint256"
            },
            {
              "internalType": "string",
              "name": "ipfsHashOfPhoto",
              "type": "string"
            },
            {
              "internalType": "string",
              "name": "status",
              "type": "string"
            },
            {
              "internalType": "uint256",
              "name": "reputation",
              "type": "uint256"
            },
            {
              "internalType": "bool",
              "name": "premiumStatus",
              "type": "bool"
            },
            {
              "internalType": "string",
              "name": "photoNFTDesc",
              "type": "string"
            },
            {
              "internalType": "uint256",
              "name": "premiumTimestamp",
              "type": "uint256"
            },
            {
              "internalType": "uint256",
              "name": "createdAt",
              "type": "uint256"
            }
          ],
          "internalType": "struct PhotoNFTDataObjects.Photo",
          "name": "_photo",
          "type": "tuple"
        }
      ],
      "stateMutability": "view",
      "type": "function",
      "constant": true
    },
    {
      "inputs": [],
      "name": "getAllPhotos",
      "outputs": [
        {
          "components": [
            {
              "internalType": "contract PhotoNFT",
              "name": "photoNFT",
              "type": "address"
            },
            {
              "internalType": "string",
              "name": "photoNFTName",
              "type": "string"
            },
            {
              "internalType": "string",
              "name": "photoNFTSymbol",
              "type": "string"
            },
            {
              "internalType": "address",
              "name": "ownerAddress",
              "type": "address"
            },
            {
              "internalType": "uint256",
              "name": "photoPrice",
              "type": "uint256"
            },
            {
              "internalType": "string",
              "name": "ipfsHashOfPhoto",
              "type": "string"
            },
            {
              "internalType": "string",
              "name": "status",
              "type": "string"
            },
            {
              "internalType": "uint256",
              "name": "reputation",
              "type": "uint256"
            },
            {
              "internalType": "bool",
              "name": "premiumStatus",
              "type": "bool"
            },
            {
              "internalType": "string",
              "name": "photoNFTDesc",
              "type": "string"
            },
            {
              "internalType": "uint256",
              "name": "premiumTimestamp",
              "type": "uint256"
            },
            {
              "internalType": "uint256",
              "name": "createdAt",
              "type": "uint256"
            }
          ],
          "internalType": "struct PhotoNFTDataObjects.Photo[]",
          "name": "_photos",
          "type": "tuple[]"
        }
      ],
      "stateMutability": "view",
      "type": "function",
      "constant": true
    }
  ],
  "bytecode": "0x608060405262278d0060025534801561001757600080fd5b50612931806100276000396000f3fe608060405234801561001057600080fd5b50600436106100a95760003560e01c8063af2a5d6f11610071578063af2a5d6f1461018c578063b6be128a146101c7578063bd8afa9f146101f7578063c359f94614610227578063c4d55c6814610245578063dc0985c314610275576100a9565b80631e11035f146100ae5780631f4342be146100de57806348c311711461010e5780637cb1479b1461012c5780637fd6c4051461015c575b600080fd5b6100c860048036038101906100c39190611e3a565b6102a5565b6040516100d59190611f97565b60405180910390f35b6100f860048036038101906100f39190611fb2565b61051f565b6040516101059190611fee565b60405180910390f35b6101166105ce565b60405161012391906122ff565b60405180910390f35b61014660048036038101906101419190612321565b610acb565b6040516101539190611f97565b60405180910390f35b61017660048036038101906101719190611fb2565b610bb9565b6040516101839190612481565b60405180910390f35b6101a660048036038101906101a191906124a3565b6110b1565b6040516101be9c9b9a99989796959493929190612538565b60405180910390f35b6101e160048036038101906101dc91906124a3565b611416565b6040516101ee9190612481565b60405180910390f35b610211600480360381019061020c9190612615565b611868565b60405161021e9190611f97565b60405180910390f35b61022f6118cf565b60405161023c9190611fee565b60405180910390f35b61025f600480360381019061025a91906126b0565b6118d5565b60405161026c9190611f97565b60405180910390f35b61028f600480360381019061028a91906124a3565b61194b565b60405161029c91906126f0565b60405180910390f35b6000806040518061018001604052808a73ffffffffffffffffffffffffffffffffffffffff1681526020018981526020018881526020018773ffffffffffffffffffffffffffffffffffffffff1681526020018681526020018581526020016040518060400160405280600981526020017f43616e63656c6c656400000000000000000000000000000000000000000000008152508152602001600081526020016000151581526020018481526020016000815260200142815250905060008190806001815401808255809150506001900390600052602060002090600c020160009091909190915060008201518160000160006101000a81548173ffffffffffffffffffffffffffffffffffffffff021916908373ffffffffffffffffffffffffffffffffffffffff16021790555060208201518160010190805190602001906103f192919061198a565b50604082015181600201908051906020019061040e92919061198a565b5060608201518160030160006101000a81548173ffffffffffffffffffffffffffffffffffffffff021916908373ffffffffffffffffffffffffffffffffffffffff1602179055506080820151816004015560a082015181600501908051906020019061047c92919061198a565b5060c082015181600601908051906020019061049992919061198a565b5060e082015181600701556101008201518160080160006101000a81548160ff0219169083151502179055506101208201518160090190805190602001906104e292919061198a565b5061014082015181600a015561016082015181600b015550508960019080519060200190610511929190611a10565b505098975050505050505050565b600080829050600080600090505b6001805490508110156105c3578273ffffffffffffffffffffffffffffffffffffffff16600182815481106105655761056461270b565b5b9060005260206000200160009054906101000a900473ffffffffffffffffffffffffffffffffffffffff1673ffffffffffffffffffffffffffffffffffffffff1614156105b0578091505b80806105bb90612769565b91505061052d565b508092505050919050565b6060806000805480602002602001604051908101604052809291908181526020016000905b828210156109ef57838290600052602060002090600c0201604051806101800160405290816000820160009054906101000a900473ffffffffffffffffffffffffffffffffffffffff1673ffffffffffffffffffffffffffffffffffffffff1673ffffffffffffffffffffffffffffffffffffffff16815260200160018201805461067d906127e1565b80601f01602080910402602001604051908101604052809291908181526020018280546106a9906127e1565b80156106f65780601f106106cb576101008083540402835291602001916106f6565b820191906000526020600020905b8154815290600101906020018083116106d957829003601f168201915b5050505050815260200160028201805461070f906127e1565b80601f016020809104026020016040519081016040528092919081815260200182805461073b906127e1565b80156107885780601f1061075d57610100808354040283529160200191610788565b820191906000526020600020905b81548152906001019060200180831161076b57829003601f168201915b505050505081526020016003820160009054906101000a900473ffffffffffffffffffffffffffffffffffffffff1673ffffffffffffffffffffffffffffffffffffffff1673ffffffffffffffffffffffffffffffffffffffff16815260200160048201548152602001600582018054610801906127e1565b80601f016020809104026020016040519081016040528092919081815260200182805461082d906127e1565b801561087a5780601f1061084f5761010080835404028352916020019161087a565b820191906000526020600020905b81548152906001019060200180831161085d57829003601f168201915b50505050508152602001600682018054610893906127e1565b80601f01602080910402602001604051908101604052809291908181526020018280546108bf906127e1565b801561090c5780601f106108e15761010080835404028352916020019161090c565b820191906000526020600020905b8154815290600101906020018083116108ef57829003601f168201915b50505050508152602001600782015481526020016008820160009054906101000a900460ff1615151515815260200160098201805461094a906127e1565b80601f0160208091040260200160405190810160405280929190818152602001828054610976906127e1565b80156109c35780601f10610998576101008083540402835291602001916109c3565b820191906000526020600020905b8154815290600101906020018083116109a657829003601f168201915b50505050508152602001600a8201548152602001600b82015481525050815260200190600101906105f3565b50505050905060005b8151811015610ac357818181518110610a1457610a1361270b565b5b602002602001015161010001518015610a58575042600254838381518110610a3f57610a3e61270b565b5b60200260200101516101400151610a569190612813565b105b15610ab0576000828281518110610a7257610a7161270b565b5b60200260200101516101000190151590811515815250506000828281518110610a9e57610a9d61270b565b5b60200260200101516101400181815250505b8080610abb90612769565b9150506109f8565b508091505090565b600080610ad78461051f565b90506000808281548110610aee57610aed61270b565b5b90600052602060002090600c02019050600073ffffffffffffffffffffffffffffffffffffffff168473ffffffffffffffffffffffffffffffffffffffff161415610b6e576040517f08c379a0000000000000000000000000000000000000000000000000000000008152600401610b65906128db565b60405180910390fd5b838160030160006101000a81548173ffffffffffffffffffffffffffffffffffffffff021916908373ffffffffffffffffffffffffffffffffffffffff160217905550505092915050565b610bc1611a9a565b6000829050600080600090505b600180549050811015610c64578273ffffffffffffffffffffffffffffffffffffffff1660018281548110610c0657610c0561270b565b5b9060005260206000200160009054906101000a900473ffffffffffffffffffffffffffffffffffffffff1673ffffffffffffffffffffffffffffffffffffffff161415610c51578091505b8080610c5c90612769565b915050610bce565b506000808281548110610c7a57610c7961270b565b5b90600052602060002090600c0201604051806101800160405290816000820160009054906101000a900473ffffffffffffffffffffffffffffffffffffffff1673ffffffffffffffffffffffffffffffffffffffff1673ffffffffffffffffffffffffffffffffffffffff168152602001600182018054610cfa906127e1565b80601f0160208091040260200160405190810160405280929190818152602001828054610d26906127e1565b8015610d735780601f10610d4857610100808354040283529160200191610d73565b820191906000526020600020905b815481529060010190602001808311610d5657829003601f168201915b50505050508152602001600282018054610d8c906127e1565b80601f0160208091040260200160405190810160405280929190818152602001828054610db8906127e1565b8015610e055780601f10610dda57610100808354040283529160200191610e05565b820191906000526020600020905b815481529060010190602001808311610de857829003601f168201915b505050505081526020016003820160009054906101000a900473ffffffffffffffffffffffffffffffffffffffff1673ffffffffffffffffffffffffffffffffffffffff1673ffffffffffffffffffffffffffffffffffffffff16815260200160048201548152602001600582018054610e7e906127e1565b80601f0160208091040260200160405190810160405280929190818152602001828054610eaa906127e1565b8015610ef75780601f10610ecc57610100808354040283529160200191610ef7565b820191906000526020600020905b815481529060010190602001808311610eda57829003601f168201915b50505050508152602001600682018054610f10906127e1565b80601f0160208091040260200160405190810160405280929190818152602001828054610f3c906127e1565b8015610f895780601f10610f5e57610100808354040283529160200191610f89565b820191906000526020600020905b815481529060010190602001808311610f6c57829003601f168201915b50505050508152602001600782015481526020016008820160009054906101000a900460ff16151515158152602001600982018054610fc7906127e1565b80601f0160208091040260200160405190810160405280929190818152602001828054610ff3906127e1565b80156110405780601f1061101557610100808354040283529160200191611040565b820191906000526020600020905b81548152906001019060200180831161102357829003601f168201915b50505050508152602001600a8201548152602001600b82015481525050905080610100015180156110825750426002548261014001516110809190612813565b115b156110a6576000816101000190151590811515815250506000816101400181815250505b809350505050919050565b600081815481106110c157600080fd5b90600052602060002090600c02016000915090508060000160009054906101000a900473ffffffffffffffffffffffffffffffffffffffff169080600101805461110a906127e1565b80601f0160208091040260200160405190810160405280929190818152602001828054611136906127e1565b80156111835780601f1061115857610100808354040283529160200191611183565b820191906000526020600020905b81548152906001019060200180831161116657829003601f168201915b505050505090806002018054611198906127e1565b80601f01602080910402602001604051908101604052809291908181526020018280546111c4906127e1565b80156112115780601f106111e657610100808354040283529160200191611211565b820191906000526020600020905b8154815290600101906020018083116111f457829003601f168201915b5050505050908060030160009054906101000a900473ffffffffffffffffffffffffffffffffffffffff1690806004015490806005018054611252906127e1565b80601f016020809104026020016040519081016040528092919081815260200182805461127e906127e1565b80156112cb5780601f106112a0576101008083540402835291602001916112cb565b820191906000526020600020905b8154815290600101906020018083116112ae57829003601f168201915b5050505050908060060180546112e0906127e1565b80601f016020809104026020016040519081016040528092919081815260200182805461130c906127e1565b80156113595780601f1061132e57610100808354040283529160200191611359565b820191906000526020600020905b81548152906001019060200180831161133c57829003601f168201915b5050505050908060070154908060080160009054906101000a900460ff1690806009018054611387906127e1565b80601f01602080910402602001604051908101604052809291908181526020018280546113b3906127e1565b80156114005780601f106113d557610100808354040283529160200191611400565b820191906000526020600020905b8154815290600101906020018083116113e357829003601f168201915b50505050509080600a01549080600b015490508c565b61141e611a9a565b60008083815481106114335761143261270b565b5b90600052602060002090600c0201604051806101800160405290816000820160009054906101000a900473ffffffffffffffffffffffffffffffffffffffff1673ffffffffffffffffffffffffffffffffffffffff1673ffffffffffffffffffffffffffffffffffffffff1681526020016001820180546114b3906127e1565b80601f01602080910402602001604051908101604052809291908181526020018280546114df906127e1565b801561152c5780601f106115015761010080835404028352916020019161152c565b820191906000526020600020905b81548152906001019060200180831161150f57829003601f168201915b50505050508152602001600282018054611545906127e1565b80601f0160208091040260200160405190810160405280929190818152602001828054611571906127e1565b80156115be5780601f10611593576101008083540402835291602001916115be565b820191906000526020600020905b8154815290600101906020018083116115a157829003601f168201915b505050505081526020016003820160009054906101000a900473ffffffffffffffffffffffffffffffffffffffff1673ffffffffffffffffffffffffffffffffffffffff1673ffffffffffffffffffffffffffffffffffffffff16815260200160048201548152602001600582018054611637906127e1565b80601f0160208091040260200160405190810160405280929190818152602001828054611663906127e1565b80156116b05780601f10611685576101008083540402835291602001916116b0565b820191906000526020600020905b81548152906001019060200180831161169357829003601f168201915b505050505081526020016006820180546116c9906127e1565b80601f01602080910402602001604051908101604052809291908181526020018280546116f5906127e1565b80156117425780601f1061171757610100808354040283529160200191611742565b820191906000526020600020905b81548152906001019060200180831161172557829003601f168201915b50505050508152602001600782015481526020016008820160009054906101000a900460ff16151515158152602001600982018054611780906127e1565b80601f01602080910402602001604051908101604052809291908181526020018280546117ac906127e1565b80156117f95780601f106117ce576101008083540402835291602001916117f9565b820191906000526020600020905b8154815290600101906020018083116117dc57829003601f168201915b50505050508152602001600a8201548152602001600b820154815250509050806101000151801561183b5750426002548261014001516118399190612813565b115b1561185f576000816101000190151590811515815250506000816101400181815250505b80915050919050565b6000806118748561051f565b9050600080828154811061188b5761188a61270b565b5b90600052602060002090600c02019050848160060190805190602001906118b392919061198a565b50600084146118c6578381600401819055505b50509392505050565b60025481565b6000806118e18461051f565b905060008082815481106118f8576118f761270b565b5b90600052602060002090600c02019050838160080160006101000a81548160ff0219169083151502179055508315611938574281600a0181905550611943565b600081600a01819055505b505092915050565b6001818154811061195b57600080fd5b906000526020600020016000915054906101000a900473ffffffffffffffffffffffffffffffffffffffff1681565b828054611996906127e1565b90600052602060002090601f0160209004810192826119b857600085556119ff565b82601f106119d157805160ff19168380011785556119ff565b828001600101855582156119ff579182015b828111156119fe5782518255916020019190600101906119e3565b5b509050611a0c9190611b29565b5090565b828054828255906000526020600020908101928215611a89579160200282015b82811115611a885782518260006101000a81548173ffffffffffffffffffffffffffffffffffffffff021916908373ffffffffffffffffffffffffffffffffffffffff16021790555091602001919060010190611a30565b5b509050611a969190611b29565b5090565b604051806101800160405280600073ffffffffffffffffffffffffffffffffffffffff1681526020016060815260200160608152602001600073ffffffffffffffffffffffffffffffffffffffff168152602001600081526020016060815260200160608152602001600081526020016000151581526020016060815260200160008152602001600081525090565b5b80821115611b42576000816000905550600101611b2a565b5090565b6000604051905090565b600080fd5b600080fd5b600080fd5b6000601f19601f8301169050919050565b7f4e487b7100000000000000000000000000000000000000000000000000000000600052604160045260246000fd5b611ba882611b5f565b810181811067ffffffffffffffff82111715611bc757611bc6611b70565b5b80604052505050565b6000611bda611b46565b9050611be68282611b9f565b919050565b600067ffffffffffffffff821115611c0657611c05611b70565b5b602082029050602081019050919050565b600080fd5b600073ffffffffffffffffffffffffffffffffffffffff82169050919050565b6000611c4782611c1c565b9050919050565b611c5781611c3c565b8114611c6257600080fd5b50565b600081359050611c7481611c4e565b92915050565b6000611c8d611c8884611beb565b611bd0565b90508083825260208201905060208402830185811115611cb057611caf611c17565b5b835b81811015611cd95780611cc58882611c65565b845260208401935050602081019050611cb2565b5050509392505050565b600082601f830112611cf857611cf7611b5a565b5b8135611d08848260208601611c7a565b91505092915050565b6000611d1c82611c3c565b9050919050565b611d2c81611d11565b8114611d3757600080fd5b50565b600081359050611d4981611d23565b92915050565b600080fd5b600067ffffffffffffffff821115611d6f57611d6e611b70565b5b611d7882611b5f565b9050602081019050919050565b82818337600083830152505050565b6000611da7611da284611d54565b611bd0565b905082815260208101848484011115611dc357611dc2611d4f565b5b611dce848285611d85565b509392505050565b600082601f830112611deb57611dea611b5a565b5b8135611dfb848260208601611d94565b91505092915050565b6000819050919050565b611e1781611e04565b8114611e2257600080fd5b50565b600081359050611e3481611e0e565b92915050565b600080600080600080600080610100898b031215611e5b57611e5a611b50565b5b600089013567ffffffffffffffff811115611e7957611e78611b55565b5b611e858b828c01611ce3565b9850506020611e968b828c01611d3a565b975050604089013567ffffffffffffffff811115611eb757611eb6611b55565b5b611ec38b828c01611dd6565b965050606089013567ffffffffffffffff811115611ee457611ee3611b55565b5b611ef08b828c01611dd6565b9550506080611f018b828c01611c65565b94505060a0611f128b828c01611e25565b93505060c089013567ffffffffffffffff811115611f3357611f32611b55565b5b611f3f8b828c01611dd6565b92505060e089013567ffffffffffffffff811115611f6057611f5f611b55565b5b611f6c8b828c01611dd6565b9150509295985092959890939650565b60008115159050919050565b611f9181611f7c565b82525050565b6000602082019050611fac6000830184611f88565b92915050565b600060208284031215611fc857611fc7611b50565b5b6000611fd684828501611d3a565b91505092915050565b611fe881611e04565b82525050565b60006020820190506120036000830184611fdf565b92915050565b600081519050919050565b600082825260208201905092915050565b6000819050602082019050919050565b6000819050919050565b600061205a61205561205084611c1c565b612035565b611c1c565b9050919050565b600061206c8261203f565b9050919050565b600061207e82612061565b9050919050565b61208e81612073565b82525050565b600081519050919050565b600082825260208201905092915050565b60005b838110156120ce5780820151818401526020810190506120b3565b838111156120dd576000848401525b50505050565b60006120ee82612094565b6120f8818561209f565b93506121088185602086016120b0565b61211181611b5f565b840191505092915050565b61212581611c3c565b82525050565b61213481611e04565b82525050565b61214381611f7c565b82525050565b6000610180830160008301516121626000860182612085565b506020830151848203602086015261217a82826120e3565b9150506040830151848203604086015261219482826120e3565b91505060608301516121a9606086018261211c565b5060808301516121bc608086018261212b565b5060a083015184820360a08601526121d482826120e3565b91505060c083015184820360c08601526121ee82826120e3565b91505060e083015161220360e086018261212b565b5061010083015161221861010086018261213a565b5061012083015184820361012086015261223282826120e3565b91505061014083015161224961014086018261212b565b5061016083015161225e61016086018261212b565b508091505092915050565b60006122758383612149565b905092915050565b6000602082019050919050565b600061229582612009565b61229f8185612014565b9350836020820285016122b185612025565b8060005b858110156122ed57848403895281516122ce8582612269565b94506122d98361227d565b925060208a019950506001810190506122b5565b50829750879550505050505092915050565b60006020820190508181036000830152612319818461228a565b905092915050565b6000806040838503121561233857612337611b50565b5b600061234685828601611d3a565b925050602061235785828601611c65565b9150509250929050565b60006101808301600083015161237a6000860182612085565b506020830151848203602086015261239282826120e3565b915050604083015184820360408601526123ac82826120e3565b91505060608301516123c1606086018261211c565b5060808301516123d4608086018261212b565b5060a083015184820360a08601526123ec82826120e3565b91505060c083015184820360c086015261240682826120e3565b91505060e083015161241b60e086018261212b565b5061010083015161243061010086018261213a565b5061012083015184820361012086015261244a82826120e3565b91505061014083015161246161014086018261212b565b5061016083015161247661016086018261212b565b508091505092915050565b6000602082019050818103600083015261249b8184612361565b905092915050565b6000602082840312156124b9576124b8611b50565b5b60006124c784828501611e25565b91505092915050565b6124d981612073565b82525050565b600082825260208201905092915050565b60006124fb82612094565b61250581856124df565b93506125158185602086016120b0565b61251e81611b5f565b840191505092915050565b61253281611c3c565b82525050565b60006101808201905061254e600083018f6124d0565b8181036020830152612560818e6124f0565b90508181036040830152612574818d6124f0565b9050612583606083018c612529565b612590608083018b611fdf565b81810360a08301526125a2818a6124f0565b905081810360c08301526125b681896124f0565b90506125c560e0830188611fdf565b6125d3610100830187611f88565b8181036101208301526125e681866124f0565b90506125f6610140830185611fdf565b612604610160830184611fdf565b9d9c50505050505050505050505050565b60008060006060848603121561262e5761262d611b50565b5b600061263c86828701611d3a565b935050602084013567ffffffffffffffff81111561265d5761265c611b55565b5b61266986828701611dd6565b925050604061267a86828701611e25565b9150509250925092565b61268d81611f7c565b811461269857600080fd5b50565b6000813590506126aa81612684565b92915050565b600080604083850312156126c7576126c6611b50565b5b60006126d585828601611d3a565b92505060206126e68582860161269b565b9150509250929050565b60006020820190506127056000830184612529565b92915050565b7f4e487b7100000000000000000000000000000000000000000000000000000000600052603260045260246000fd5b7f4e487b7100000000000000000000000000000000000000000000000000000000600052601160045260246000fd5b600061277482611e04565b91507fffffffffffffffffffffffffffffffffffffffffffffffffffffffffffffffff8214156127a7576127a661273a565b5b600182019050919050565b7f4e487b7100000000000000000000000000000000000000000000000000000000600052602260045260246000fd5b600060028204905060018216806127f957607f821691505b6020821081141561280d5761280c6127b2565b5b50919050565b600061281e82611e04565b915061282983611e04565b9250827fffffffffffffffffffffffffffffffffffffffffffffffffffffffffffffffff0382111561285e5761285d61273a565b5b828201905092915050565b7f41206e6577206f776e657220616464726573732073686f756c64206265206e6f60008201527f7420656d70747900000000000000000000000000000000000000000000000000602082015250565b60006128c56027836124df565b91506128d082612869565b604082019050919050565b600060208201905081810360008301526128f4816128b8565b905091905056fea2646970667358221220a980d808efe6f8f5968e8a0c65b0161bba623979d3cbf511400f9b33faa5893564736f6c63430008090033",
  "immutableReferences": {},
  "source": "// SPDX-License-Identifier: MIT\r\npragma solidity ^0.8.0;\r\npragma experimental ABIEncoderV2;\r\n\r\nimport { PhotoNFTDataStorages } from \"./photo-nft-data/commons/PhotoNFTDataStorages.sol\";\r\nimport { PhotoNFT } from \"./PhotoNFT.sol\";\r\n\r\n\r\n/**\r\n * @notice - This is the storage contract for photoNFTs\r\n */\r\ncontract PhotoNFTData is PhotoNFTDataStorages {\r\n\r\n    address[] public photoAddresses;\r\n\r\n    uint256 public premiumLimit = 2592000; //30 * 24 * 3600\r\n\r\n    constructor() public {}\r\n\r\n    /**\r\n     * @notice - Save metadata of a photoNFT\r\n     */\r\n    function saveMetadataOfPhotoNFT(\r\n        address[] memory _photoAddresses, \r\n        PhotoNFT _photoNFT, \r\n        string memory _photoNFTName, \r\n        string memory _photoNFTSymbol, \r\n        address _ownerAddress, \r\n        uint _photoPrice, \r\n        string memory _ipfsHashOfPhoto, \r\n        string memory desc\r\n    ) public returns (bool) {\r\n\r\n        Photo memory photo = Photo({ ///make a photo data\r\n            photoNFT: _photoNFT,\r\n            photoNFTName: _photoNFTName,\r\n            photoNFTSymbol: _photoNFTSymbol,\r\n            ownerAddress: _ownerAddress,\r\n            photoPrice: _photoPrice,\r\n            ipfsHashOfPhoto: _ipfsHashOfPhoto,\r\n            status: \"Cancelled\",\r\n            reputation: 0, \r\n            premiumStatus : false, \r\n            photoNFTDesc : desc,\r\n            premiumTimestamp : 0, \r\n            createdAt : block.timestamp\r\n        });\r\n        photos.push(photo);\r\n\r\n        /// Update photoAddresses\r\n        photoAddresses = _photoAddresses;     \r\n    }\r\n\r\n    /**\r\n     * @notice - Update owner address of a photoNFT by transferring ownership\r\n     */\r\n    function updateOwnerOfPhotoNFT(PhotoNFT _photoNFT, address _newOwner) public returns (bool) {\r\n        \r\n        uint photoIndex = getPhotoIndex(_photoNFT);  \r\n        Photo storage photo = photos[photoIndex];  \r\n        require (_newOwner != address(0), \"A new owner address should be not empty\");\r\n        photo.ownerAddress = _newOwner;  \r\n    }\r\n\r\n    /**\r\n     * @notice - Update status (\"Open\" or \"Cancelled\")\r\n     */\r\n    function updateStatus(PhotoNFT _photoNFT, string memory _newStatus, uint price) public returns (bool) {\r\n        \r\n        uint photoIndex = getPhotoIndex(_photoNFT); \r\n        Photo storage photo = photos[photoIndex]; \r\n        photo.status = _newStatus;  \r\n        if (price != 0) photo.photoPrice = price;\r\n    }\r\n\r\n    /**\r\n     * @notice - Update status (\"Open\" or \"Cancelled\")\r\n     */\r\n    function updatePremiumStatus(PhotoNFT _photoNFT, bool _newStatus) public returns (bool) {\r\n        \r\n        uint photoIndex = getPhotoIndex(_photoNFT); // Identify photo's index\r\n        \r\n        Photo storage photo = photos[photoIndex]; // Update metadata of a photoNFT of photo\r\n        photo.premiumStatus = _newStatus;  \r\n\r\n        //if _newstatus : true then save timestamp\r\n        if (_newStatus) photo.premiumTimestamp = block.timestamp;\r\n        else photo.premiumTimestamp = 0;\r\n    }\r\n    ///-----------------\r\n    /// Getter methods\r\n    ///-----------------\r\n    function getPhoto(uint index) public view returns (Photo memory _photo) {\r\n        Photo memory photo = photos[index];\r\n        if ((photo.premiumStatus) && (photo.premiumTimestamp + premiumLimit > block.timestamp)) {\r\n            photo.premiumStatus = false;\r\n            photo.premiumTimestamp = 0;\r\n        }\r\n        return photo;\r\n    }\r\n\r\n    function getPhotoIndex(PhotoNFT photoNFT) public view returns (uint _photoIndex) {\r\n        address PHOTO_NFT = address(photoNFT);\r\n\r\n        \r\n        uint photoIndex; /// Identify member's index\r\n        for (uint i=0; i < photoAddresses.length; i++) {\r\n            if (photoAddresses[i] == PHOTO_NFT) {\r\n                photoIndex = i;\r\n            }\r\n        }\r\n\r\n        return photoIndex;   \r\n    }\r\n\r\n    function getPhotoByNFTAddress(PhotoNFT photoNFT) public view returns (Photo memory _photo) {\r\n        address PHOTO_NFT = address(photoNFT);\r\n\r\n        \r\n        uint photoIndex; /// Identify member's index\r\n        for (uint i=0; i < photoAddresses.length; i++) {\r\n            if (photoAddresses[i] == PHOTO_NFT) {\r\n                photoIndex = i;\r\n            }\r\n        }\r\n\r\n        Photo memory photo = photos[photoIndex];\r\n        if ((photo.premiumStatus) && (photo.premiumTimestamp + premiumLimit > block.timestamp)) {\r\n            photo.premiumStatus = false;\r\n            photo.premiumTimestamp = 0;\r\n        }\r\n        return photo;\r\n    }\r\n\r\n    function getAllPhotos() public view returns (Photo[] memory _photos) {\r\n        Photo[] memory result;\r\n        result = photos;\r\n        for (uint i = 0; i < result.length; i++) {\r\n            if ((result[i].premiumStatus) && (result[i].premiumTimestamp + premiumLimit < block.timestamp)) {\r\n                result[i].premiumStatus = false;\r\n                result[i].premiumTimestamp = 0;\r\n            }\r\n        }\r\n        return result;\r\n    }\r\n\r\n}\r\n",
  "sourcePath": "C:\\Climax\\NFT-marketplace\\contracts\\PhotoNFTData.sol",
  "compiler": {
    "name": "solc",
    "version": "0.8.9+commit.e5eed63a.Emscripten.clang"
  },
  "schemaVersion": "3.4.3",
  "updatedAt": "2021-10-26T11:46:27.200Z",
  "networkType": "ethereum",
  "devdoc": {
    "kind": "dev",
    "methods": {},
    "version": 1
  },
  "userdoc": {
    "kind": "user",
    "methods": {
      "getPhoto(uint256)": {
        "notice": "----------------- Getter methods -----------------"
      },
      "saveMetadataOfPhotoNFT(address[],address,string,string,address,uint256,string,string)": {
        "notice": "- Save metadata of a photoNFT"
      },
      "updateOwnerOfPhotoNFT(address,address)": {
        "notice": "- Update owner address of a photoNFT by transferring ownership"
      },
      "updatePremiumStatus(address,bool)": {
        "notice": "- Update status (\"Open\" or \"Cancelled\")"
      },
      "updateStatus(address,string,uint256)": {
        "notice": "- Update status (\"Open\" or \"Cancelled\")"
      }
    },
    "notice": "- This is the storage contract for photoNFTs",
    "version": 1
  }
}