{
  "contractName": "PhotoNFTDataStorages",
  "abi": [
    {
      "inputs": [
        {
          "internalType": "uint256",
          "name": "",
          "type": "uint256"
        }
      ],
      "name": "photos",
      "outputs": [
        {
          "internalType": "contract PhotoNFT",
          "name": "photoNFT",
          "type": "address"
        },
        {
          "internalType": "string",
          "name": "photoNFTName",
          "type": "string"
        },
        {
          "internalType": "string",
          "name": "photoNFTSymbol",
          "type": "string"
        },
        {
          "internalType": "address",
          "name": "ownerAddress",
          "type": "address"
        },
        {
          "internalType": "uint256",
          "name": "photoPrice",
          "type": "uint256"
        },
        {
          "internalType": "string",
          "name": "ipfsHashOfPhoto",
          "type": "string"
        },
        {
          "internalType": "string",
          "name": "status",
          "type": "string"
        },
        {
          "internalType": "uint256",
          "name": "reputation",
          "type": "uint256"
        },
        {
          "internalType": "bool",
          "name": "premiumStatus",
          "type": "bool"
        },
        {
          "internalType": "string",
          "name": "photoNFTDesc",
          "type": "string"
        },
        {
          "internalType": "uint256",
          "name": "premiumTimestamp",
          "type": "uint256"
        },
        {
          "internalType": "uint256",
          "name": "createdAt",
          "type": "uint256"
        }
      ],
      "stateMutability": "view",
      "type": "function"
    }
  ],
  "bytecode": "0x608060405234801561001057600080fd5b5061070f806100206000396000f3fe608060405234801561001057600080fd5b506004361061002b5760003560e01c8063af2a5d6f14610030575b600080fd5b61004a6004803603810190610045919061040b565b61006b565b6040516100629c9b9a9998979695949392919061059b565b60405180910390f35b6000818154811061007b57600080fd5b90600052602060002090600c02016000915090508060000160009054906101000a900473ffffffffffffffffffffffffffffffffffffffff16908060010180546100c4906106a7565b80601f01602080910402602001604051908101604052809291908181526020018280546100f0906106a7565b801561013d5780601f106101125761010080835404028352916020019161013d565b820191906000526020600020905b81548152906001019060200180831161012057829003601f168201915b505050505090806002018054610152906106a7565b80601f016020809104026020016040519081016040528092919081815260200182805461017e906106a7565b80156101cb5780601f106101a0576101008083540402835291602001916101cb565b820191906000526020600020905b8154815290600101906020018083116101ae57829003601f168201915b5050505050908060030160009054906101000a900473ffffffffffffffffffffffffffffffffffffffff169080600401549080600501805461020c906106a7565b80601f0160208091040260200160405190810160405280929190818152602001828054610238906106a7565b80156102855780601f1061025a57610100808354040283529160200191610285565b820191906000526020600020905b81548152906001019060200180831161026857829003601f168201915b50505050509080600601805461029a906106a7565b80601f01602080910402602001604051908101604052809291908181526020018280546102c6906106a7565b80156103135780601f106102e857610100808354040283529160200191610313565b820191906000526020600020905b8154815290600101906020018083116102f657829003601f168201915b5050505050908060070154908060080160009054906101000a900460ff1690806009018054610341906106a7565b80601f016020809104026020016040519081016040528092919081815260200182805461036d906106a7565b80156103ba5780601f1061038f576101008083540402835291602001916103ba565b820191906000526020600020905b81548152906001019060200180831161039d57829003601f168201915b50505050509080600a01549080600b015490508c565b600080fd5b6000819050919050565b6103e8816103d5565b81146103f357600080fd5b50565b600081359050610405816103df565b92915050565b600060208284031215610421576104206103d0565b5b600061042f848285016103f6565b91505092915050565b600073ffffffffffffffffffffffffffffffffffffffff82169050919050565b6000819050919050565b600061047d61047861047384610438565b610458565b610438565b9050919050565b600061048f82610462565b9050919050565b60006104a182610484565b9050919050565b6104b181610496565b82525050565b600081519050919050565b600082825260208201905092915050565b60005b838110156104f15780820151818401526020810190506104d6565b83811115610500576000848401525b50505050565b6000601f19601f8301169050919050565b6000610522826104b7565b61052c81856104c2565b935061053c8185602086016104d3565b61054581610506565b840191505092915050565b600061055b82610438565b9050919050565b61056b81610550565b82525050565b61057a816103d5565b82525050565b60008115159050919050565b61059581610580565b82525050565b6000610180820190506105b1600083018f6104a8565b81810360208301526105c3818e610517565b905081810360408301526105d7818d610517565b90506105e6606083018c610562565b6105f3608083018b610571565b81810360a0830152610605818a610517565b905081810360c08301526106198189610517565b905061062860e0830188610571565b61063661010083018761058c565b8181036101208301526106498186610517565b9050610659610140830185610571565b610667610160830184610571565b9d9c50505050505050505050505050565b7f4e487b7100000000000000000000000000000000000000000000000000000000600052602260045260246000fd5b600060028204905060018216806106bf57607f821691505b602082108114156106d3576106d2610678565b5b5091905056fea264697066735822122021bfa747a19a938f3d01acccb04e017ddbbb697a79d49b7040a9a9356dbf5c3e64736f6c63430008090033",
  "immutableReferences": {},
  "source": "pragma solidity ^0.8.0;\r\n\r\nimport { PhotoNFTDataObjects } from \"./PhotoNFTDataObjects.sol\";\r\n\r\n\r\n// shared storage\r\ncontract PhotoNFTDataStorages is PhotoNFTDataObjects {\r\n\r\n    Photo[] public photos;\r\n\r\n}\r\n\r\n",
  "sourcePath": "C:\\Climax\\NFT-marketplace\\contracts\\photo-nft-data\\commons\\PhotoNFTDataStorages.sol",
  "compiler": {
    "name": "solc",
    "version": "0.8.9+commit.e5eed63a.Emscripten.clang"
  },
  "schemaVersion": "3.4.3",
  "updatedAt": "2021-10-26T11:45:26.466Z",
  "devdoc": {
    "kind": "dev",
    "methods": {},
    "version": 1
  },
  "userdoc": {
    "kind": "user",
    "methods": {},
    "version": 1
  }
}