{
  "contractName": "PhotoNFTMarketplace",
  "abi": [
    {
      "inputs": [
        {
          "internalType": "contract PhotoNFTData",
          "name": "_photoNFTData",
          "type": "address"
        },
        {
          "internalType": "address",
          "name": "owner",
          "type": "address"
        }
      ],
      "stateMutability": "nonpayable",
      "type": "constructor"
    },
    {
      "anonymous": false,
      "inputs": [
        {
          "indexed": false,
          "internalType": "address",
          "name": "owner",
          "type": "address"
        },
        {
          "indexed": false,
          "internalType": "address",
          "name": "sender",
          "type": "address"
        }
      ],
      "name": "OpenTradeInfo",
      "type": "event"
    },
    {
      "anonymous": false,
      "inputs": [
        {
          "indexed": false,
          "internalType": "contract PhotoNFT",
          "name": "photoNFT",
          "type": "address"
        },
        {
          "indexed": false,
          "internalType": "uint256",
          "name": "photoId",
          "type": "uint256"
        },
        {
          "indexed": false,
          "internalType": "address",
          "name": "ownerBeforeOwnershipTransferred",
          "type": "address"
        },
        {
          "indexed": false,
          "internalType": "address",
          "name": "ownerAfterOwnershipTransferred",
          "type": "address"
        }
      ],
      "name": "PhotoNFTOwnershipChanged",
      "type": "event"
    },
    {
      "anonymous": false,
      "inputs": [
        {
          "indexed": false,
          "internalType": "address",
          "name": "ad",
          "type": "address"
        },
        {
          "indexed": false,
          "internalType": "bool",
          "name": "status",
          "type": "bool"
        }
      ],
      "name": "TradePremiumStatusChange",
      "type": "event"
    },
    {
      "anonymous": false,
      "inputs": [
        {
          "indexed": false,
          "internalType": "address",
          "name": "ad",
          "type": "address"
        },
        {
          "indexed": false,
          "internalType": "bytes32",
          "name": "status",
          "type": "bytes32"
        }
      ],
      "name": "TradeStatusChange",
      "type": "event"
    },
    {
      "inputs": [],
      "name": "PHOTO_NFT_MARKETPLACE",
      "outputs": [
        {
          "internalType": "address",
          "name": "",
          "type": "address"
        }
      ],
      "stateMutability": "view",
      "type": "function",
      "constant": true
    },
    {
      "inputs": [],
      "name": "_market_owner",
      "outputs": [
        {
          "internalType": "address",
          "name": "",
          "type": "address"
        }
      ],
      "stateMutability": "view",
      "type": "function",
      "constant": true
    },
    {
      "inputs": [
        {
          "internalType": "contract PhotoNFT",
          "name": "photoNFT",
          "type": "address"
        },
        {
          "internalType": "uint256",
          "name": "_photoId",
          "type": "uint256"
        }
      ],
      "name": "cancelTrade",
      "outputs": [],
      "stateMutability": "nonpayable",
      "type": "function"
    },
    {
      "inputs": [
        {
          "internalType": "contract PhotoNFT",
          "name": "photoNFT",
          "type": "address"
        }
      ],
      "name": "getTrade",
      "outputs": [
        {
          "components": [
            {
              "internalType": "address",
              "name": "seller",
              "type": "address"
            },
            {
              "internalType": "uint256",
              "name": "photoId",
              "type": "uint256"
            },
            {
              "internalType": "uint256",
              "name": "photoPrice",
              "type": "uint256"
            },
            {
              "internalType": "bytes32",
              "name": "status",
              "type": "bytes32"
            },
            {
              "internalType": "bool",
              "name": "premiumStatus",
              "type": "bool"
            }
          ],
          "internalType": "struct PhotoNFTTradable.Trade",
          "name": "trade_",
          "type": "tuple"
        }
      ],
      "stateMutability": "view",
      "type": "function",
      "constant": true
    },
    {
      "inputs": [
        {
          "internalType": "contract PhotoNFT",
          "name": "photoNFT",
          "type": "address"
        },
        {
          "internalType": "uint256",
          "name": "_photoId",
          "type": "uint256"
        },
        {
          "internalType": "uint256",
          "name": "price",
          "type": "uint256"
        }
      ],
      "name": "openTrade",
      "outputs": [],
      "stateMutability": "nonpayable",
      "type": "function"
    },
    {
      "inputs": [],
      "name": "photoNFTData",
      "outputs": [
        {
          "internalType": "contract PhotoNFTData",
          "name": "",
          "type": "address"
        }
      ],
      "stateMutability": "view",
      "type": "function",
      "constant": true
    },
    {
      "inputs": [
        {
          "internalType": "contract PhotoNFT",
          "name": "photoNFT",
          "type": "address"
        },
        {
          "internalType": "uint256",
          "name": "_photoId",
          "type": "uint256"
        },
        {
          "internalType": "uint256",
          "name": "_photoPrice",
          "type": "uint256"
        },
        {
          "internalType": "address",
          "name": "seller",
          "type": "address"
        }
      ],
      "name": "registerTradeWhenCreateNewPhotoNFT",
      "outputs": [],
      "stateMutability": "nonpayable",
      "type": "function"
    },
    {
      "inputs": [
        {
          "internalType": "address",
          "name": "",
          "type": "address"
        }
      ],
      "name": "trades",
      "outputs": [
        {
          "internalType": "address",
          "name": "seller",
          "type": "address"
        },
        {
          "internalType": "uint256",
          "name": "photoId",
          "type": "uint256"
        },
        {
          "internalType": "uint256",
          "name": "photoPrice",
          "type": "uint256"
        },
        {
          "internalType": "bytes32",
          "name": "status",
          "type": "bytes32"
        },
        {
          "internalType": "bool",
          "name": "premiumStatus",
          "type": "bool"
        }
      ],
      "stateMutability": "view",
      "type": "function",
      "constant": true
    },
    {
      "inputs": [
        {
          "internalType": "contract PhotoNFT",
          "name": "_photoNFT",
          "type": "address"
        },
        {
          "internalType": "uint256",
          "name": "_photoId",
          "type": "uint256"
        },
        {
          "internalType": "address",
          "name": "_buyer",
          "type": "address"
        }
      ],
      "name": "transferOwnershipOfPhotoNFT",
      "outputs": [],
      "stateMutability": "nonpayable",
      "type": "function"
    },
    {
      "inputs": [
        {
          "internalType": "contract PhotoNFT",
          "name": "photoNFT",
          "type": "address"
        },
        {
          "internalType": "uint256",
          "name": "_photoId",
          "type": "uint256"
        },
        {
          "internalType": "bool",
          "name": "_newState",
          "type": "bool"
        }
      ],
      "name": "updatePremiumStatus",
      "outputs": [],
      "stateMutability": "nonpayable",
      "type": "function"
    },
    {
      "inputs": [],
      "name": "getOwnerPayableAddress",
      "outputs": [
        {
          "internalType": "address payable",
          "name": "",
          "type": "address"
        }
      ],
      "stateMutability": "nonpayable",
      "type": "function"
    },
    {
      "inputs": [
        {
          "internalType": "contract PhotoNFT",
          "name": "_photoNFT",
          "type": "address"
        }
      ],
      "name": "buyPhotoNFT",
      "outputs": [
        {
          "internalType": "bool",
          "name": "",
          "type": "bool"
        }
      ],
      "stateMutability": "payable",
      "type": "function",
      "payable": true
    },
    {
      "inputs": [
        {
          "internalType": "address",
          "name": "newOwner",
          "type": "address"
        }
      ],
      "name": "transferMarketplaceOwnership",
      "outputs": [
        {
          "internalType": "bool",
          "name": "",
          "type": "bool"
        }
      ],
      "stateMutability": "nonpayable",
      "type": "function"
    },
    {
      "inputs": [
        {
          "internalType": "address",
          "name": "from",
          "type": "address"
        },
        {
          "internalType": "address",
          "name": "to",
          "type": "address"
        },
        {
          "internalType": "uint256",
          "name": "photoId",
          "type": "uint256"
        }
      ],
      "name": "reputation",
      "outputs": [
        {
          "internalType": "uint256",
          "name": "",
          "type": "uint256"
        },
        {
          "internalType": "uint256",
          "name": "",
          "type": "uint256"
        }
      ],
      "stateMutability": "nonpayable",
      "type": "function"
    },
    {
      "inputs": [
        {
          "internalType": "uint256",
          "name": "photoId",
          "type": "uint256"
        }
      ],
      "name": "getReputationCount",
      "outputs": [
        {
          "internalType": "uint256",
          "name": "",
          "type": "uint256"
        }
      ],
      "stateMutability": "view",
      "type": "function",
      "constant": true
    }
  ],
  "bytecode": "0x60806040523480156200001157600080fd5b5060405162002bb938038062002bb98339818101604052810190620000379190620001bf565b81806000806101000a81548173ffffffffffffffffffffffffffffffffffffffff021916908373ffffffffffffffffffffffffffffffffffffffff160217905550600060028190555050816000806101000a81548173ffffffffffffffffffffffffffffffffffffffff021916908373ffffffffffffffffffffffffffffffffffffffff160217905550600030905081600460006101000a81548173ffffffffffffffffffffffffffffffffffffffff021916908373ffffffffffffffffffffffffffffffffffffffff16021790555050505062000206565b600080fd5b600073ffffffffffffffffffffffffffffffffffffffff82169050919050565b6000620001428262000115565b9050919050565b6000620001568262000135565b9050919050565b620001688162000149565b81146200017457600080fd5b50565b60008151905062000188816200015d565b92915050565b620001998162000135565b8114620001a557600080fd5b50565b600081519050620001b9816200018e565b92915050565b60008060408385031215620001d957620001d862000110565b5b6000620001e98582860162000177565b9250506020620001fc85828601620001a8565b9150509250929050565b6129a380620002166000396000f3fe6080604052600436106100e85760003560e01c8063a2793daf1161008a578063c6175d8b11610059578063c6175d8b14610322578063dee98aad1461034d578063ec03951414610376578063f41fc1bb146103a1576100e8565b8063a2793daf1461023d578063a9f752e51461027b578063ab7a6c3e146102bc578063baea40e2146102f9576100e8565b80634fe71d13116100c65780634fe71d1314610183578063759c4bf3146101ae5780637cc0c9bd146101d75780638d6b52f314610214576100e8565b80631206dc5f146100ed57806316f946ef1461012a578063493c21761461015a575b600080fd5b3480156100f957600080fd5b50610114600480360381019061010f9190611834565b6103cc565b604051610121919061187c565b60405180910390f35b610144600480360381019061013f91906118d5565b6104a4565b604051610151919061187c565b60405180910390f35b34801561016657600080fd5b50610181600480360381019061017c9190611938565b610b84565b005b34801561018f57600080fd5b50610198610ce2565b6040516101a5919061199a565b60405180910390f35b3480156101ba57600080fd5b506101d560048036038101906101d091906119b5565b610d08565b005b3480156101e357600080fd5b506101fe60048036038101906101f991906119f5565b610f88565b60405161020b9190611a31565b60405180910390f35b34801561022057600080fd5b5061023b60048036038101906102369190611a78565b610f94565b005b34801561024957600080fd5b50610264600480360381019061025f9190611acb565b611172565b604051610272929190611b1e565b60405180910390f35b34801561028757600080fd5b506102a2600480360381019061029d9190611834565b611184565b6040516102b3959493929190611b60565b60405180910390f35b3480156102c857600080fd5b506102e360048036038101906102de91906118d5565b6111e7565b6040516102f09190611c57565b60405180910390f35b34801561030557600080fd5b50610320600480360381019061031b9190611c72565b6112d5565b005b34801561032e57600080fd5b50610337611531565b604051610344919061199a565b60405180910390f35b34801561035957600080fd5b50610374600480360381019061036f9190611cc5565b611557565b005b34801561038257600080fd5b5061038b61169e565b6040516103989190611d8b565b60405180910390f35b3480156103ad57600080fd5b506103b66116c2565b6040516103c39190611dc7565b60405180910390f35b6000600460009054906101000a900473ffffffffffffffffffffffffffffffffffffffff1673ffffffffffffffffffffffffffffffffffffffff163373ffffffffffffffffffffffffffffffffffffffff161461045e576040517f08c379a000000000000000000000000000000000000000000000000000000000815260040161045590611e65565b60405180910390fd5b81600460006101000a81548173ffffffffffffffffffffffffffffffffffffffff021916908373ffffffffffffffffffffffffffffffffffffffff160217905550919050565b60008082905060008060009054906101000a900473ffffffffffffffffffffffffffffffffffffffff1673ffffffffffffffffffffffffffffffffffffffff16637fd6c405836040518263ffffffff1660e01b81526004016105069190611ea6565b60006040518083038186803b15801561051e57600080fd5b505afa158015610532573d6000803e3d6000fd5b505050506040513d6000823e3d601f19601f8201168201806040525081019061055b9190612237565b905060008160600151905060008190506000836080015190508034146105b6576040517f08c379a00000000000000000000000000000000000000000000000000000000081526004016105ad906122f2565b60405180910390fd5b60008060009054906101000a900473ffffffffffffffffffffffffffffffffffffffff1673ffffffffffffffffffffffffffffffffffffffff16631f4342be876040518263ffffffff1660e01b81526004016106129190611ea6565b60206040518083038186803b15801561062a57600080fd5b505afa15801561063e573d6000803e3d6000fd5b505050506040513d601f19601f820116820180604052508101906106629190612312565b90506103e98110156106ba578273ffffffffffffffffffffffffffffffffffffffff166108fc839081150290604051600060405180830381858888f193505050501580156106b4573d6000803e3d6000fd5b5061083e565b84610100015115610783578273ffffffffffffffffffffffffffffffffffffffff166108fc6064605a856106ee919061236e565b6106f891906123f7565b9081150290604051600060405180830381858888f19350505050158015610723573d6000803e3d6000fd5b5061072c6116c2565b73ffffffffffffffffffffffffffffffffffffffff166108fc600a8461075291906123f7565b9081150290604051600060405180830381858888f1935050505015801561077d573d6000803e3d6000fd5b5061083d565b8273ffffffffffffffffffffffffffffffffffffffff166108fc6064605f856107ac919061236e565b6107b691906123f7565b9081150290604051600060405180830381858888f193505050501580156107e1573d6000803e3d6000fd5b506107ea6116c2565b73ffffffffffffffffffffffffffffffffffffffff166108fc60148461081091906123f7565b9081150290604051600060405180830381858888f1935050505015801561083b573d6000803e3d6000fd5b505b5b60003390506000600190508773ffffffffffffffffffffffffffffffffffffffff1663095ea7b383836040518363ffffffff1660e01b8152600401610884929190612428565b600060405180830381600087803b15801561089e57600080fd5b505af11580156108b2573d6000803e3d6000fd5b5050505060008873ffffffffffffffffffffffffffffffffffffffff16636352211e836040518263ffffffff1660e01b81526004016108f19190611a31565b60206040518083038186803b15801561090957600080fd5b505afa15801561091d573d6000803e3d6000fd5b505050506040513d601f19601f820116820180604052508101906109419190612451565b905061094e898385610b84565b60008054906101000a900473ffffffffffffffffffffffffffffffffffffffff1673ffffffffffffffffffffffffffffffffffffffff16637cb1479b8a856040518363ffffffff1660e01b81526004016109a992919061247e565b602060405180830381600087803b1580156109c357600080fd5b505af11580156109d7573d6000803e3d6000fd5b505050506040513d601f19601f820116820180604052508101906109fb91906124a7565b5060008054906101000a900473ffffffffffffffffffffffffffffffffffffffff1673ffffffffffffffffffffffffffffffffffffffff1663bd8afa9f8a60006040518363ffffffff1660e01b8152600401610a5892919061255b565b602060405180830381600087803b158015610a7257600080fd5b505af1158015610a86573d6000803e3d6000fd5b505050506040513d601f19601f82011682018060405250810190610aaa91906124a7565b5060008973ffffffffffffffffffffffffffffffffffffffff16636352211e846040518263ffffffff1660e01b8152600401610ae69190611a31565b60206040518083038186803b158015610afe57600080fd5b505afa158015610b12573d6000803e3d6000fd5b505050506040513d601f19601f82011682018060405250810190610b369190612451565b90507fa8ffd0052cf94298cdb4d728ccaebde44f94e7568e31b2129a24a8b2e10fea8c8a848484604051610b6d9493929190612597565b60405180910390a150505050505050505050919050565b60008390506000610b94856111e7565b90507f4f70656e00000000000000000000000000000000000000000000000000000000816060015114610bfc576040517f08c379a0000000000000000000000000000000000000000000000000000000008152600401610bf390612628565b60405180910390fd5b610c078585856116ec565b8173ffffffffffffffffffffffffffffffffffffffff166323b872dd308584602001516040518463ffffffff1660e01b8152600401610c4893929190612648565b600060405180830381600087803b158015610c6257600080fd5b505af1158015610c76573d6000803e3d6000fd5b505050507f43616e63656c6c656400000000000000000000000000000000000000000000008160600181815250507fee0bd10dbd5c2151f43ed2fa6af0584fbad842aa901d657f39fffd140822ae7085604051610cd391906126a5565b60405180910390a15050505050565b600360009054906101000a900473ffffffffffffffffffffffffffffffffffffffff1681565b6000600160008473ffffffffffffffffffffffffffffffffffffffff1673ffffffffffffffffffffffffffffffffffffffff16815260200190815260200160002090508060000160009054906101000a900473ffffffffffffffffffffffffffffffffffffffff1673ffffffffffffffffffffffffffffffffffffffff163373ffffffffffffffffffffffffffffffffffffffff1614610ddd576040517f08c379a0000000000000000000000000000000000000000000000000000000008152600401610dd49061273e565b60405180910390fd5b60008054906101000a900473ffffffffffffffffffffffffffffffffffffffff1673ffffffffffffffffffffffffffffffffffffffff1663bd8afa9f8460006040518363ffffffff1660e01b8152600401610e3992919061255b565b602060405180830381600087803b158015610e5357600080fd5b505af1158015610e67573d6000803e3d6000fd5b505050506040513d601f19601f82011682018060405250810190610e8b91906124a7565b508273ffffffffffffffffffffffffffffffffffffffff166323b872dd308360000160009054906101000a900473ffffffffffffffffffffffffffffffffffffffff1684600101546040518463ffffffff1660e01b8152600401610ef193929190612648565b600060405180830381600087803b158015610f0b57600080fd5b505af1158015610f1f573d6000803e3d6000fd5b505050507f43616e63656c6c6564000000000000000000000000000000000000000000000081600301819055507fee0bd10dbd5c2151f43ed2fa6af0584fbad842aa901d657f39fffd140822ae7083604051610f7b91906126a5565b60405180910390a1505050565b60008080915050919050565b6000600160008573ffffffffffffffffffffffffffffffffffffffff1673ffffffffffffffffffffffffffffffffffffffff16815260200190815260200160002090508060000160009054906101000a900473ffffffffffffffffffffffffffffffffffffffff1673ffffffffffffffffffffffffffffffffffffffff163373ffffffffffffffffffffffffffffffffffffffff1614611069576040517f08c379a0000000000000000000000000000000000000000000000000000000008152600401611060906127d0565b60405180910390fd5b60008054906101000a900473ffffffffffffffffffffffffffffffffffffffff1673ffffffffffffffffffffffffffffffffffffffff1663c4d55c6885846040518363ffffffff1660e01b81526004016110c49291906127f0565b602060405180830381600087803b1580156110de57600080fd5b505af11580156110f2573d6000803e3d6000fd5b505050506040513d601f19601f8201168201806040525081019061111691906124a7565b50818160040160006101000a81548160ff0219169083151502179055507ff914bff822f938e06c0aaceb42bb4ca99085426a1e493b755e716662d12163ee8483604051611164929190612819565b60405180910390a150505050565b60008060008091509150935093915050565b60016020528060005260406000206000915090508060000160009054906101000a900473ffffffffffffffffffffffffffffffffffffffff16908060010154908060020154908060030154908060040160009054906101000a900460ff16905085565b6111ef611778565b6000600160008473ffffffffffffffffffffffffffffffffffffffff1673ffffffffffffffffffffffffffffffffffffffff1681526020019081526020016000206040518060a00160405290816000820160009054906101000a900473ffffffffffffffffffffffffffffffffffffffff1673ffffffffffffffffffffffffffffffffffffffff1673ffffffffffffffffffffffffffffffffffffffff1681526020016001820154815260200160028201548152602001600382015481526020016004820160009054906101000a900460ff161515151581525050905080915050919050565b6000600160008573ffffffffffffffffffffffffffffffffffffffff1673ffffffffffffffffffffffffffffffffffffffff16815260200190815260200160002090508060000160009054906101000a900473ffffffffffffffffffffffffffffffffffffffff1673ffffffffffffffffffffffffffffffffffffffff163373ffffffffffffffffffffffffffffffffffffffff16146113aa576040517f08c379a00000000000000000000000000000000000000000000000000000000081526004016113a1906127d0565b60405180910390fd5b60008054906101000a900473ffffffffffffffffffffffffffffffffffffffff1673ffffffffffffffffffffffffffffffffffffffff1663bd8afa9f85846040518363ffffffff1660e01b815260040161140592919061288e565b602060405180830381600087803b15801561141f57600080fd5b505af1158015611433573d6000803e3d6000fd5b505050506040513d601f19601f8201168201806040525081019061145791906124a7565b508373ffffffffffffffffffffffffffffffffffffffff166323b872dd333084600101546040518463ffffffff1660e01b815260040161149993929190612648565b600060405180830381600087803b1580156114b357600080fd5b505af11580156114c7573d6000803e3d6000fd5b505050507f4f70656e0000000000000000000000000000000000000000000000000000000081600301819055507fee0bd10dbd5c2151f43ed2fa6af0584fbad842aa901d657f39fffd140822ae708460405161152391906128f0565b60405180910390a150505050565b600460009054906101000a900473ffffffffffffffffffffffffffffffffffffffff1681565b60016002600082825461156a9190612917565b925050819055506040518060a001604052808273ffffffffffffffffffffffffffffffffffffffff1681526020018481526020018381526020017f43616e63656c6c65640000000000000000000000000000000000000000000000815260200160001515815250600160008673ffffffffffffffffffffffffffffffffffffffff1673ffffffffffffffffffffffffffffffffffffffff16815260200190815260200160002060008201518160000160006101000a81548173ffffffffffffffffffffffffffffffffffffffff021916908373ffffffffffffffffffffffffffffffffffffffff16021790555060208201518160010155604082015181600201556060820151816003015560808201518160040160006101000a81548160ff02191690831515021790555090505050505050565b60008054906101000a900473ffffffffffffffffffffffffffffffffffffffff1681565b6000600460009054906101000a900473ffffffffffffffffffffffffffffffffffffffff16905090565b6000600160008573ffffffffffffffffffffffffffffffffffffffff1673ffffffffffffffffffffffffffffffffffffffff1681526020019081526020016000209050818160000160006101000a81548173ffffffffffffffffffffffffffffffffffffffff021916908373ffffffffffffffffffffffffffffffffffffffff16021790555050505050565b6040518060a00160405280600073ffffffffffffffffffffffffffffffffffffffff1681526020016000815260200160008152602001600080191681526020016000151581525090565b6000604051905090565b600080fd5b600080fd5b600073ffffffffffffffffffffffffffffffffffffffff82169050919050565b6000611801826117d6565b9050919050565b611811816117f6565b811461181c57600080fd5b50565b60008135905061182e81611808565b92915050565b60006020828403121561184a576118496117cc565b5b60006118588482850161181f565b91505092915050565b60008115159050919050565b61187681611861565b82525050565b6000602082019050611891600083018461186d565b92915050565b60006118a2826117f6565b9050919050565b6118b281611897565b81146118bd57600080fd5b50565b6000813590506118cf816118a9565b92915050565b6000602082840312156118eb576118ea6117cc565b5b60006118f9848285016118c0565b91505092915050565b6000819050919050565b61191581611902565b811461192057600080fd5b50565b6000813590506119328161190c565b92915050565b600080600060608486031215611951576119506117cc565b5b600061195f868287016118c0565b935050602061197086828701611923565b92505060406119818682870161181f565b9150509250925092565b611994816117f6565b82525050565b60006020820190506119af600083018461198b565b92915050565b600080604083850312156119cc576119cb6117cc565b5b60006119da858286016118c0565b92505060206119eb85828601611923565b9150509250929050565b600060208284031215611a0b57611a0a6117cc565b5b6000611a1984828501611923565b91505092915050565b611a2b81611902565b82525050565b6000602082019050611a466000830184611a22565b92915050565b611a5581611861565b8114611a6057600080fd5b50565b600081359050611a7281611a4c565b92915050565b600080600060608486031215611a9157611a906117cc565b5b6000611a9f868287016118c0565b9350506020611ab086828701611923565b9250506040611ac186828701611a63565b9150509250925092565b600080600060608486031215611ae457611ae36117cc565b5b6000611af28682870161181f565b9350506020611b038682870161181f565b9250506040611b1486828701611923565b9150509250925092565b6000604082019050611b336000830185611a22565b611b406020830184611a22565b9392505050565b6000819050919050565b611b5a81611b47565b82525050565b600060a082019050611b75600083018861198b565b611b826020830187611a22565b611b8f6040830186611a22565b611b9c6060830185611b51565b611ba9608083018461186d565b9695505050505050565b611bbc816117f6565b82525050565b611bcb81611902565b82525050565b611bda81611b47565b82525050565b611be981611861565b82525050565b60a082016000820151611c056000850182611bb3565b506020820151611c186020850182611bc2565b506040820151611c2b6040850182611bc2565b506060820151611c3e6060850182611bd1565b506080820151611c516080850182611be0565b50505050565b600060a082019050611c6c6000830184611bef565b92915050565b600080600060608486031215611c8b57611c8a6117cc565b5b6000611c99868287016118c0565b9350506020611caa86828701611923565b9250506040611cbb86828701611923565b9150509250925092565b60008060008060808587031215611cdf57611cde6117cc565b5b6000611ced878288016118c0565b9450506020611cfe87828801611923565b9350506040611d0f87828801611923565b9250506060611d208782880161181f565b91505092959194509250565b6000819050919050565b6000611d51611d4c611d47846117d6565b611d2c565b6117d6565b9050919050565b6000611d6382611d36565b9050919050565b6000611d7582611d58565b9050919050565b611d8581611d6a565b82525050565b6000602082019050611da06000830184611d7c565b92915050565b6000611db1826117d6565b9050919050565b611dc181611da6565b82525050565b6000602082019050611ddc6000830184611db8565b92915050565b600082825260208201905092915050565b7f73656e6465722073686f756c6420626520746865206d61726b6574206f776e6560008201527f7200000000000000000000000000000000000000000000000000000000000000602082015250565b6000611e4f602183611de2565b9150611e5a82611df3565b604082019050919050565b60006020820190508181036000830152611e7e81611e42565b9050919050565b6000611e9082611d58565b9050919050565b611ea081611e85565b82525050565b6000602082019050611ebb6000830184611e97565b92915050565b600080fd5b6000601f19601f8301169050919050565b7f4e487b7100000000000000000000000000000000000000000000000000000000600052604160045260246000fd5b611f0f82611ec6565b810181811067ffffffffffffffff82111715611f2e57611f2d611ed7565b5b80604052505050565b6000611f416117c2565b9050611f4d8282611f06565b919050565b600080fd5b600081519050611f66816118a9565b92915050565b600080fd5b600080fd5b600067ffffffffffffffff821115611f9157611f90611ed7565b5b611f9a82611ec6565b9050602081019050919050565b60005b83811015611fc5578082015181840152602081019050611faa565b83811115611fd4576000848401525b50505050565b6000611fed611fe884611f76565b611f37565b90508281526020810184848401111561200957612008611f71565b5b612014848285611fa7565b509392505050565b600082601f83011261203157612030611f6c565b5b8151612041848260208601611fda565b91505092915050565b60008151905061205981611808565b92915050565b60008151905061206e8161190c565b92915050565b60008151905061208381611a4c565b92915050565b600061018082840312156120a05761209f611ec1565b5b6120ab610180611f37565b905060006120bb84828501611f57565b600083015250602082015167ffffffffffffffff8111156120df576120de611f52565b5b6120eb8482850161201c565b602083015250604082015167ffffffffffffffff81111561210f5761210e611f52565b5b61211b8482850161201c565b604083015250606061212f8482850161204a565b60608301525060806121438482850161205f565b60808301525060a082015167ffffffffffffffff81111561216757612166611f52565b5b6121738482850161201c565b60a08301525060c082015167ffffffffffffffff81111561219757612196611f52565b5b6121a38482850161201c565b60c08301525060e06121b78482850161205f565b60e0830152506101006121cc84828501612074565b6101008301525061012082015167ffffffffffffffff8111156121f2576121f1611f52565b5b6121fe8482850161201c565b610120830152506101406122148482850161205f565b6101408301525061016061222a8482850161205f565b6101608301525092915050565b60006020828403121561224d5761224c6117cc565b5b600082015167ffffffffffffffff81111561226b5761226a6117d1565b5b61227784828501612089565b91505092915050565b7f6d73672e76616c75652073686f756c6420626520657175616c20746f2074686560008201527f20627579416d6f756e7400000000000000000000000000000000000000000000602082015250565b60006122dc602a83611de2565b91506122e782612280565b604082019050919050565b6000602082019050818103600083015261230b816122cf565b9050919050565b600060208284031215612328576123276117cc565b5b60006123368482850161205f565b91505092915050565b7f4e487b7100000000000000000000000000000000000000000000000000000000600052601160045260246000fd5b600061237982611902565b915061238483611902565b9250817fffffffffffffffffffffffffffffffffffffffffffffffffffffffffffffffff04831182151516156123bd576123bc61233f565b5b828202905092915050565b7f4e487b7100000000000000000000000000000000000000000000000000000000600052601260045260246000fd5b600061240282611902565b915061240d83611902565b92508261241d5761241c6123c8565b5b828204905092915050565b600060408201905061243d600083018561198b565b61244a6020830184611a22565b9392505050565b600060208284031215612467576124666117cc565b5b60006124758482850161204a565b91505092915050565b60006040820190506124936000830185611e97565b6124a0602083018461198b565b9392505050565b6000602082840312156124bd576124bc6117cc565b5b60006124cb84828501612074565b91505092915050565b7f43616e63656c6c65640000000000000000000000000000000000000000000000600082015250565b600061250a600983611de2565b9150612515826124d4565b602082019050919050565b6000819050919050565b600061254561254061253b84612520565b611d2c565b611902565b9050919050565b6125558161252a565b82525050565b60006060820190506125706000830185611e97565b8181036020830152612581816124fd565b9050612590604083018461254c565b9392505050565b60006080820190506125ac6000830187611e97565b6125b96020830186611a22565b6125c6604083018561198b565b6125d3606083018461198b565b95945050505050565b7f5472616465206973206e6f74204f70656e2e0000000000000000000000000000600082015250565b6000612612601283611de2565b915061261d826125dc565b602082019050919050565b6000602082019050818103600083015261264181612605565b9050919050565b600060608201905061265d600083018661198b565b61266a602083018561198b565b6126776040830184611a22565b949350505050565b7f43616e63656c6c65640000000000000000000000000000000000000000000000815250565b60006040820190506126ba600083018461198b565b6126c66020830161267f565b92915050565b7f54726164652063616e2062652063616e63656c6c6564206f6e6c79206279207360008201527f656c6c65722e0000000000000000000000000000000000000000000000000000602082015250565b6000612728602683611de2565b9150612733826126cc565b604082019050919050565b600060208201905081810360008301526127578161271b565b9050919050565b7f54726164652063616e206265206f70656e206f6e6c792062792073656c6c657260008201527f2e00000000000000000000000000000000000000000000000000000000000000602082015250565b60006127ba602183611de2565b91506127c58261275e565b604082019050919050565b600060208201905081810360008301526127e9816127ad565b9050919050565b60006040820190506128056000830185611e97565b612812602083018461186d565b9392505050565b600060408201905061282e600083018561198b565b61283b602083018461186d565b9392505050565b7f4f70656e00000000000000000000000000000000000000000000000000000000600082015250565b6000612878600483611de2565b915061288382612842565b602082019050919050565b60006060820190506128a36000830185611e97565b81810360208301526128b48161286b565b90506128c36040830184611a22565b9392505050565b7f4f70656e00000000000000000000000000000000000000000000000000000000815250565b6000604082019050612905600083018461198b565b612911602083016128ca565b92915050565b600061292282611902565b915061292d83611902565b9250827fffffffffffffffffffffffffffffffffffffffffffffffffffffffffffffffff038211156129625761296161233f565b5b82820190509291505056fea2646970667358221220f716a87ff22201514a91832d92c3d702e4c8b40824b9429543869c3d1ea6b7e964736f6c63430008090033",
  "immutableReferences": {},
  "source": "// SPDX-License-Identifier: MIT\r\npragma solidity ^0.8.0;\r\npragma experimental ABIEncoderV2;\r\n\r\n//import { ERC20 } from './openzeppelin-solidity/contracts/token/ERC20/ERC20.sol';\r\nimport { PhotoNFT } from \"./PhotoNFT.sol\";\r\nimport { PhotoNFTTradable } from \"./PhotoNFTTradable.sol\";\r\nimport { PhotoNFTMarketplaceEvents } from \"./photo-nft-marketplace/commons/PhotoNFTMarketplaceEvents.sol\";\r\nimport { PhotoNFTData } from \"./PhotoNFTData.sol\";\r\n\r\n\r\ncontract PhotoNFTMarketplace is PhotoNFTTradable, PhotoNFTMarketplaceEvents {\r\n\r\n    address public PHOTO_NFT_MARKETPLACE;\r\n\r\n    // address private _market_owner;\r\n    address public _market_owner;\r\n\r\n    // PhotoNFTData public photoNFTData;\r\n\r\n    constructor(PhotoNFTData _photoNFTData, address owner) public PhotoNFTTradable(_photoNFTData) {\r\n        photoNFTData = _photoNFTData;\r\n        address payable PHOTO_NFT_MARKETPLACE = payable(address(this));\r\n        _market_owner = owner;\r\n    }\r\n\r\n    function getOwnerPayableAddress() public returns(address payable) {\r\n        return payable(_market_owner);\r\n    }\r\n\r\n    /** \r\n     * @notice - Buy function is that buy NFT token and ownership transfer. (Reference from IERC721.sol)\r\n     * @notice - msg.sender buy NFT with ETH (msg.value)\r\n     * @notice - PhotoID is always 1. Because each photoNFT is unique.\r\n     */\r\n    function buyPhotoNFT(PhotoNFT _photoNFT) public payable returns (bool) {\r\n        PhotoNFT photoNFT = _photoNFT;\r\n\r\n        PhotoNFTData.Photo memory photo = photoNFTData.getPhotoByNFTAddress(photoNFT);\r\n        address _seller = photo.ownerAddress;                     // Owner\r\n        address payable seller = payable(_seller);  // Convert owner address with payable\r\n        uint buyAmount = photo.photoPrice;\r\n        require (msg.value == buyAmount, \"msg.value should be equal to the buyAmount\");\r\n\r\n        uint photoIndex = photoNFTData.getPhotoIndex(photoNFT);\r\n         \r\n        // Bought-amount is transferred into a seller wallet\r\n\r\n        if (photoIndex < 1001) {\r\n            seller.transfer(buyAmount); // send full amount to the seller\r\n        }\r\n        else {\r\n            if (photo.premiumStatus) {\r\n                seller.transfer(buyAmount * 90 / 100);\r\n                getOwnerPayableAddress().transfer(buyAmount / 10);\r\n            }\r\n            else {\r\n                seller.transfer(buyAmount * 95 / 100);\r\n                getOwnerPayableAddress().transfer(buyAmount / 20); //send fee\r\n            }\r\n        }\r\n        \r\n\r\n        // Approve a buyer address as a receiver before NFT's transferFrom method is executed\r\n        address buyer = msg.sender;\r\n        uint photoId = 1;  // [Note]: PhotoID is always 1. Because each photoNFT is unique.\r\n        photoNFT.approve(buyer, photoId);\r\n\r\n        address ownerBeforeOwnershipTransferred = photoNFT.ownerOf(photoId);\r\n\r\n        // Transfer Ownership of the PhotoNFT from a seller to a buyer\r\n        transferOwnershipOfPhotoNFT(photoNFT, photoId, buyer);    \r\n        photoNFTData.updateOwnerOfPhotoNFT(photoNFT, buyer);\r\n        photoNFTData.updateStatus(photoNFT, \"Cancelled\", 0);\r\n\r\n        // Event for checking result of transferring ownership of a photoNFT\r\n        address ownerAfterOwnershipTransferred = photoNFT.ownerOf(photoId);\r\n        emit PhotoNFTOwnershipChanged(photoNFT, photoId, ownerBeforeOwnershipTransferred, ownerAfterOwnershipTransferred);\r\n\r\n        // Mint a photo with a new photoId\r\n        //string memory tokenURI = photoNFTFactory.getTokenURI(photoData.ipfsHashOfPhoto);  // [Note]: IPFS hash + URL\r\n        //photoNFT.mint(msg.sender, tokenURI);\r\n    }\r\n\r\n    function transferMarketplaceOwnership(address newOwner) public returns (bool) {\r\n        // only the owner can send this\r\n        require(msg.sender == _market_owner, \"sender should be the market owner\");\r\n        //set the marketplace owner\r\n        _market_owner = newOwner;\r\n    }\r\n\r\n\r\n    ///-----------------------------------------------------\r\n    /// Methods below are pending methods\r\n    ///-----------------------------------------------------\r\n\r\n    /** \r\n     * @dev reputation function is that gives reputation to a user who has ownership of being posted photo.\r\n     * @dev Each user has reputation data in struct\r\n     */\r\n    function reputation(address from, address to, uint256 photoId) public returns (uint256, uint256) {\r\n\r\n        // Photo storage photo = photos[photoId];\r\n        // photo.reputation = photo.reputation.add(1);\r\n\r\n        // emit AddReputation(photoId, photo.reputation);\r\n\r\n        // return (photoId, photo.reputation);\r\n        return (0, 0);\r\n    }\r\n    \r\n\r\n    function getReputationCount(uint256 photoId) public view returns (uint256) {\r\n        uint256 curretReputationCount;\r\n\r\n        // Photo memory photo = photos[photoId];\r\n        // curretReputationCount = photo.reputation;\r\n\r\n        return curretReputationCount;\r\n    }    \r\n\r\n}\r\n",
  "sourcePath": "C:\\Climax\\NFT-marketplace\\contracts\\PhotoNFTMarketplace.sol",
  "compiler": {
    "name": "solc",
    "version": "0.8.9+commit.e5eed63a.Emscripten.clang"
  },
  "schemaVersion": "3.4.3",
  "updatedAt": "2021-10-26T11:46:27.180Z",
  "networkType": "ethereum",
  "devdoc": {
    "kind": "dev",
    "methods": {
      "cancelTrade(address,uint256)": {
        "details": "Cancels a trade by the seller."
      },
      "getTrade(address)": {
        "details": "- Returns the details for a trade."
      },
      "openTrade(address,uint256,uint256)": {
        "details": "Opens a trade by the seller."
      },
      "registerTradeWhenCreateNewPhotoNFT(address,uint256,uint256,address)": {
        "details": "Opens a new trade. Puts _photoId in escrow.",
        "params": {
          "_photoId": "The id for the photoId to trade.",
          "_photoPrice": "The amount of currency for which to trade the photoId."
        }
      },
      "reputation(address,address,uint256)": {
        "details": "reputation function is that gives reputation to a user who has ownership of being posted photo.Each user has reputation data in struct"
      },
      "transferOwnershipOfPhotoNFT(address,uint256,address)": {
        "details": "Executes a trade. Must have approved this contract to transfer the amount of currency specified to the seller. Transfers ownership of the photoId to the filler."
      },
      "updatePremiumStatus(address,uint256,bool)": {
        "details": "Opens a trade by the seller."
      }
    },
    "version": 1
  },
  "userdoc": {
    "kind": "user",
    "methods": {
      "buyPhotoNFT(address)": {
        "notice": "- Buy function is that buy NFT token and ownership transfer. (Reference from IERC721.sol)- msg.sender buy NFT with ETH (msg.value)- PhotoID is always 1. Because each photoNFT is unique."
      },
      "registerTradeWhenCreateNewPhotoNFT(address,uint256,uint256,address)": {
        "notice": "- This method is only executed when a seller create a new PhotoNFT"
      }
    },
    "version": 1
  }
}