{
  "contractName": "SafeCastMock",
  "abi": [
    {
      "inputs": [
        {
          "internalType": "int256",
          "name": "a",
          "type": "int256"
        }
      ],
      "name": "toUint256",
      "outputs": [
        {
          "internalType": "uint256",
          "name": "",
          "type": "uint256"
        }
      ],
      "stateMutability": "pure",
      "type": "function"
    },
    {
      "inputs": [
        {
          "internalType": "uint256",
          "name": "a",
          "type": "uint256"
        }
      ],
      "name": "toUint224",
      "outputs": [
        {
          "internalType": "uint224",
          "name": "",
          "type": "uint224"
        }
      ],
      "stateMutability": "pure",
      "type": "function"
    },
    {
      "inputs": [
        {
          "internalType": "uint256",
          "name": "a",
          "type": "uint256"
        }
      ],
      "name": "toUint128",
      "outputs": [
        {
          "internalType": "uint128",
          "name": "",
          "type": "uint128"
        }
      ],
      "stateMutability": "pure",
      "type": "function"
    },
    {
      "inputs": [
        {
          "internalType": "uint256",
          "name": "a",
          "type": "uint256"
        }
      ],
      "name": "toUint96",
      "outputs": [
        {
          "internalType": "uint96",
          "name": "",
          "type": "uint96"
        }
      ],
      "stateMutability": "pure",
      "type": "function"
    },
    {
      "inputs": [
        {
          "internalType": "uint256",
          "name": "a",
          "type": "uint256"
        }
      ],
      "name": "toUint64",
      "outputs": [
        {
          "internalType": "uint64",
          "name": "",
          "type": "uint64"
        }
      ],
      "stateMutability": "pure",
      "type": "function"
    },
    {
      "inputs": [
        {
          "internalType": "uint256",
          "name": "a",
          "type": "uint256"
        }
      ],
      "name": "toUint32",
      "outputs": [
        {
          "internalType": "uint32",
          "name": "",
          "type": "uint32"
        }
      ],
      "stateMutability": "pure",
      "type": "function"
    },
    {
      "inputs": [
        {
          "internalType": "uint256",
          "name": "a",
          "type": "uint256"
        }
      ],
      "name": "toUint16",
      "outputs": [
        {
          "internalType": "uint16",
          "name": "",
          "type": "uint16"
        }
      ],
      "stateMutability": "pure",
      "type": "function"
    },
    {
      "inputs": [
        {
          "internalType": "uint256",
          "name": "a",
          "type": "uint256"
        }
      ],
      "name": "toUint8",
      "outputs": [
        {
          "internalType": "uint8",
          "name": "",
          "type": "uint8"
        }
      ],
      "stateMutability": "pure",
      "type": "function"
    },
    {
      "inputs": [
        {
          "internalType": "uint256",
          "name": "a",
          "type": "uint256"
        }
      ],
      "name": "toInt256",
      "outputs": [
        {
          "internalType": "int256",
          "name": "",
          "type": "int256"
        }
      ],
      "stateMutability": "pure",
      "type": "function"
    },
    {
      "inputs": [
        {
          "internalType": "int256",
          "name": "a",
          "type": "int256"
        }
      ],
      "name": "toInt128",
      "outputs": [
        {
          "internalType": "int128",
          "name": "",
          "type": "int128"
        }
      ],
      "stateMutability": "pure",
      "type": "function"
    },
    {
      "inputs": [
        {
          "internalType": "int256",
          "name": "a",
          "type": "int256"
        }
      ],
      "name": "toInt64",
      "outputs": [
        {
          "internalType": "int64",
          "name": "",
          "type": "int64"
        }
      ],
      "stateMutability": "pure",
      "type": "function"
    },
    {
      "inputs": [
        {
          "internalType": "int256",
          "name": "a",
          "type": "int256"
        }
      ],
      "name": "toInt32",
      "outputs": [
        {
          "internalType": "int32",
          "name": "",
          "type": "int32"
        }
      ],
      "stateMutability": "pure",
      "type": "function"
    },
    {
      "inputs": [
        {
          "internalType": "int256",
          "name": "a",
          "type": "int256"
        }
      ],
      "name": "toInt16",
      "outputs": [
        {
          "internalType": "int16",
          "name": "",
          "type": "int16"
        }
      ],
      "stateMutability": "pure",
      "type": "function"
    },
    {
      "inputs": [
        {
          "internalType": "int256",
          "name": "a",
          "type": "int256"
        }
      ],
      "name": "toInt8",
      "outputs": [
        {
          "internalType": "int8",
          "name": "",
          "type": "int8"
        }
      ],
      "stateMutability": "pure",
      "type": "function"
    }
  ],
  "bytecode": "0x608060405234801561001057600080fd5b50611385806100206000396000f3fe608060405234801561001057600080fd5b50600436106100ea5760003560e01c8063c81932551161008c578063dd2a031611610066578063dd2a0316146102cf578063dfbe873b146102ff578063f136dc021461032f578063fdcf791b1461035f576100ea565b8063c81932551461023f578063cf65b4d31461026f578063d6bd32aa1461029f576100ea565b80635bb79860116100c85780635bb798601461017f578063809fdd33146101af5780639374068f146101df5780639c6f59be1461020f576100ea565b80630cc4681e146100ef5780631cf887fc1461011f5780632665fad01461014f575b600080fd5b61010960048036038101906101049190610a8a565b61038f565b6040516101169190610ad3565b60405180910390f35b61013960048036038101906101349190610a8a565b6103a1565b6040516101469190610b15565b60405180910390f35b61016960048036038101906101649190610a8a565b6103b3565b6040516101769190610b53565b60405180910390f35b61019960048036038101906101949190610a8a565b6103c5565b6040516101a69190610ba5565b60405180910390f35b6101c960048036038101906101c49190610a8a565b6103d7565b6040516101d69190610beb565b60405180910390f35b6101f960048036038101906101f49190610a8a565b6103e9565b6040516102069190610c23565b60405180910390f35b61022960048036038101906102249190610c74565b6103fb565b6040516102369190610cbd565b60405180910390f35b61025960048036038101906102549190610a8a565b61040d565b6040516102669190610cf7565b60405180910390f35b61028960048036038101906102849190610c74565b61041f565b6040516102969190610d2e565b60405180910390f35b6102b960048036038101906102b49190610c74565b610431565b6040516102c69190610d65565b60405180910390f35b6102e960048036038101906102e49190610c74565b610443565b6040516102f69190610d9c565b60405180910390f35b61031960048036038101906103149190610a8a565b610455565b6040516103269190610dc6565b60405180910390f35b61034960048036038101906103449190610c74565b610467565b6040516103569190610dfd565b60405180910390f35b61037960048036038101906103749190610c74565b610479565b6040516103869190610e27565b60405180910390f35b600061039a8261048b565b9050919050565b60006103ac826104db565b9050919050565b60006103be82610536565b9050919050565b60006103d08261058d565b9050919050565b60006103e2826105f8565b9050919050565b60006103f482610657565b9050919050565b6000610406826106a8565b9050919050565b60006104188261072b565b9050919050565b600061042a8261077e565b9050919050565b600061043c826107ff565b9050919050565b600061044e82610886565b9050919050565b600061046082610915565b9050919050565b600061047282610982565b9050919050565b600061048482610a02565b9050919050565b600060ff80168211156104d3576040517f08c379a00000000000000000000000000000000000000000000000000000000081526004016104ca90610ec5565b60405180910390fd5b819050919050565b60006bffffffffffffffffffffffff801682111561052e576040517f08c379a000000000000000000000000000000000000000000000000000000000815260040161052590610f57565b60405180910390fd5b819050919050565b600067ffffffffffffffff8016821115610585576040517f08c379a000000000000000000000000000000000000000000000000000000000815260040161057c90610fe9565b60405180910390fd5b819050919050565b60007bffffffffffffffffffffffffffffffffffffffffffffffffffffffff80168211156105f0576040517f08c379a00000000000000000000000000000000000000000000000000000000081526004016105e79061107b565b60405180910390fd5b819050919050565b60006fffffffffffffffffffffffffffffffff801682111561064f576040517f08c379a00000000000000000000000000000000000000000000000000000000081526004016106469061110d565b60405180910390fd5b819050919050565b600061ffff80168211156106a0576040517f08c379a00000000000000000000000000000000000000000000000000000000081526004016106979061119f565b60405180910390fd5b819050919050565b60007fffffffffffffffffffffffffffffffffffffffffffffffffffffffff8000000060030b82121580156106e45750637fffffff60030b8213155b610723576040517f08c379a000000000000000000000000000000000000000000000000000000000815260040161071a90611231565b60405180910390fd5b819050919050565b600063ffffffff8016821115610776576040517f08c379a000000000000000000000000000000000000000000000000000000000815260040161076d90611231565b60405180910390fd5b819050919050565b60007fffffffffffffffffffffffffffffffffffffffffffffffffffffffffffff800060010b82121580156107b85750617fff60010b8213155b6107f7576040517f08c379a00000000000000000000000000000000000000000000000000000000081526004016107ee9061119f565b60405180910390fd5b819050919050565b60007fffffffffffffffffffffffffffffffffffffffffffffffff800000000000000060070b821215801561083f5750677fffffffffffffff60070b8213155b61087e576040517f08c379a000000000000000000000000000000000000000000000000000000000815260040161087590610fe9565b60405180910390fd5b819050919050565b60007fffffffffffffffffffffffffffffffff80000000000000000000000000000000600f0b82121580156108ce57506f7fffffffffffffffffffffffffffffff600f0b8213155b61090d576040517f08c379a00000000000000000000000000000000000000000000000000000000081526004016109049061110d565b60405180910390fd5b819050919050565b60007f7fffffffffffffffffffffffffffffffffffffffffffffffffffffffffffffff82111561097a576040517f08c379a0000000000000000000000000000000000000000000000000000000008152600401610971906112c3565b60405180910390fd5b819050919050565b60007fffffffffffffffffffffffffffffffffffffffffffffffffffffffffffffff8060000b82121580156109bb5750607f60000b8213155b6109fa576040517f08c379a00000000000000000000000000000000000000000000000000000000081526004016109f190610ec5565b60405180910390fd5b819050919050565b600080821215610a47576040517f08c379a0000000000000000000000000000000000000000000000000000000008152600401610a3e9061132f565b60405180910390fd5b819050919050565b600080fd5b6000819050919050565b610a6781610a54565b8114610a7257600080fd5b50565b600081359050610a8481610a5e565b92915050565b600060208284031215610aa057610a9f610a4f565b5b6000610aae84828501610a75565b91505092915050565b600060ff82169050919050565b610acd81610ab7565b82525050565b6000602082019050610ae86000830184610ac4565b92915050565b60006bffffffffffffffffffffffff82169050919050565b610b0f81610aee565b82525050565b6000602082019050610b2a6000830184610b06565b92915050565b600067ffffffffffffffff82169050919050565b610b4d81610b30565b82525050565b6000602082019050610b686000830184610b44565b92915050565b60007bffffffffffffffffffffffffffffffffffffffffffffffffffffffff82169050919050565b610b9f81610b6e565b82525050565b6000602082019050610bba6000830184610b96565b92915050565b60006fffffffffffffffffffffffffffffffff82169050919050565b610be581610bc0565b82525050565b6000602082019050610c006000830184610bdc565b92915050565b600061ffff82169050919050565b610c1d81610c06565b82525050565b6000602082019050610c386000830184610c14565b92915050565b6000819050919050565b610c5181610c3e565b8114610c5c57600080fd5b50565b600081359050610c6e81610c48565b92915050565b600060208284031215610c8a57610c89610a4f565b5b6000610c9884828501610c5f565b91505092915050565b60008160030b9050919050565b610cb781610ca1565b82525050565b6000602082019050610cd26000830184610cae565b92915050565b600063ffffffff82169050919050565b610cf181610cd8565b82525050565b6000602082019050610d0c6000830184610ce8565b92915050565b60008160010b9050919050565b610d2881610d12565b82525050565b6000602082019050610d436000830184610d1f565b92915050565b60008160070b9050919050565b610d5f81610d49565b82525050565b6000602082019050610d7a6000830184610d56565b92915050565b600081600f0b9050919050565b610d9681610d80565b82525050565b6000602082019050610db16000830184610d8d565b92915050565b610dc081610c3e565b82525050565b6000602082019050610ddb6000830184610db7565b92915050565b60008160000b9050919050565b610df781610de1565b82525050565b6000602082019050610e126000830184610dee565b92915050565b610e2181610a54565b82525050565b6000602082019050610e3c6000830184610e18565b92915050565b600082825260208201905092915050565b7f53616665436173743a2076616c756520646f65736e27742066697420696e203860008201527f2062697473000000000000000000000000000000000000000000000000000000602082015250565b6000610eaf602583610e42565b9150610eba82610e53565b604082019050919050565b60006020820190508181036000830152610ede81610ea2565b9050919050565b7f53616665436173743a2076616c756520646f65736e27742066697420696e203960008201527f3620626974730000000000000000000000000000000000000000000000000000602082015250565b6000610f41602683610e42565b9150610f4c82610ee5565b604082019050919050565b60006020820190508181036000830152610f7081610f34565b9050919050565b7f53616665436173743a2076616c756520646f65736e27742066697420696e203660008201527f3420626974730000000000000000000000000000000000000000000000000000602082015250565b6000610fd3602683610e42565b9150610fde82610f77565b604082019050919050565b6000602082019050818103600083015261100281610fc6565b9050919050565b7f53616665436173743a2076616c756520646f65736e27742066697420696e203260008201527f3234206269747300000000000000000000000000000000000000000000000000602082015250565b6000611065602783610e42565b915061107082611009565b604082019050919050565b6000602082019050818103600083015261109481611058565b9050919050565b7f53616665436173743a2076616c756520646f65736e27742066697420696e203160008201527f3238206269747300000000000000000000000000000000000000000000000000602082015250565b60006110f7602783610e42565b91506111028261109b565b604082019050919050565b60006020820190508181036000830152611126816110ea565b9050919050565b7f53616665436173743a2076616c756520646f65736e27742066697420696e203160008201527f3620626974730000000000000000000000000000000000000000000000000000602082015250565b6000611189602683610e42565b91506111948261112d565b604082019050919050565b600060208201905081810360008301526111b88161117c565b9050919050565b7f53616665436173743a2076616c756520646f65736e27742066697420696e203360008201527f3220626974730000000000000000000000000000000000000000000000000000602082015250565b600061121b602683610e42565b9150611226826111bf565b604082019050919050565b6000602082019050818103600083015261124a8161120e565b9050919050565b7f53616665436173743a2076616c756520646f65736e27742066697420696e206160008201527f6e20696e74323536000000000000000000000000000000000000000000000000602082015250565b60006112ad602883610e42565b91506112b882611251565b604082019050919050565b600060208201905081810360008301526112dc816112a0565b9050919050565b7f53616665436173743a2076616c7565206d75737420626520706f736974697665600082015250565b6000611319602083610e42565b9150611324826112e3565b602082019050919050565b600060208201905081810360008301526113488161130c565b905091905056fea26469706673582212204bb7c1fc8252575d3ec4ba9a6d11d414ed75be45e01f0db044821c130d4d4ddb64736f6c63430008090033",
  "immutableReferences": {},
  "source": "// SPDX-License-Identifier: MIT\r\n\r\npragma solidity ^0.8.0;\r\n\r\nimport \"../utils/math/SafeCast.sol\";\r\n\r\ncontract SafeCastMock {\r\n    using SafeCast for uint256;\r\n    using SafeCast for int256;\r\n\r\n    function toUint256(int256 a) public pure returns (uint256) {\r\n        return a.toUint256();\r\n    }\r\n\r\n    function toUint224(uint256 a) public pure returns (uint224) {\r\n        return a.toUint224();\r\n    }\r\n\r\n    function toUint128(uint256 a) public pure returns (uint128) {\r\n        return a.toUint128();\r\n    }\r\n\r\n    function toUint96(uint256 a) public pure returns (uint96) {\r\n        return a.toUint96();\r\n    }\r\n\r\n    function toUint64(uint256 a) public pure returns (uint64) {\r\n        return a.toUint64();\r\n    }\r\n\r\n    function toUint32(uint256 a) public pure returns (uint32) {\r\n        return a.toUint32();\r\n    }\r\n\r\n    function toUint16(uint256 a) public pure returns (uint16) {\r\n        return a.toUint16();\r\n    }\r\n\r\n    function toUint8(uint256 a) public pure returns (uint8) {\r\n        return a.toUint8();\r\n    }\r\n\r\n    function toInt256(uint256 a) public pure returns (int256) {\r\n        return a.toInt256();\r\n    }\r\n\r\n    function toInt128(int256 a) public pure returns (int128) {\r\n        return a.toInt128();\r\n    }\r\n\r\n    function toInt64(int256 a) public pure returns (int64) {\r\n        return a.toInt64();\r\n    }\r\n\r\n    function toInt32(int256 a) public pure returns (int32) {\r\n        return a.toInt32();\r\n    }\r\n\r\n    function toInt16(int256 a) public pure returns (int16) {\r\n        return a.toInt16();\r\n    }\r\n\r\n    function toInt8(int256 a) public pure returns (int8) {\r\n        return a.toInt8();\r\n    }\r\n}\r\n",
  "sourcePath": "C:\\Climax\\NFT-marketplace\\contracts\\openzeppelin-solidity\\contracts\\mocks\\SafeCastMock.sol",
  "compiler": {
    "name": "solc",
    "version": "0.8.9+commit.e5eed63a.Emscripten.clang"
  },
  "schemaVersion": "3.4.3",
  "updatedAt": "2021-10-26T11:45:25.911Z",
  "devdoc": {
    "kind": "dev",
    "methods": {},
    "version": 1
  },
  "userdoc": {
    "kind": "user",
    "methods": {},
    "version": 1
  }
}