{
  "contractName": "SignedSafeMathMock",
  "abi": [
    {
      "inputs": [
        {
          "internalType": "int256",
          "name": "a",
          "type": "int256"
        },
        {
          "internalType": "int256",
          "name": "b",
          "type": "int256"
        }
      ],
      "name": "mul",
      "outputs": [
        {
          "internalType": "int256",
          "name": "",
          "type": "int256"
        }
      ],
      "stateMutability": "pure",
      "type": "function"
    },
    {
      "inputs": [
        {
          "internalType": "int256",
          "name": "a",
          "type": "int256"
        },
        {
          "internalType": "int256",
          "name": "b",
          "type": "int256"
        }
      ],
      "name": "div",
      "outputs": [
        {
          "internalType": "int256",
          "name": "",
          "type": "int256"
        }
      ],
      "stateMutability": "pure",
      "type": "function"
    },
    {
      "inputs": [
        {
          "internalType": "int256",
          "name": "a",
          "type": "int256"
        },
        {
          "internalType": "int256",
          "name": "b",
          "type": "int256"
        }
      ],
      "name": "sub",
      "outputs": [
        {
          "internalType": "int256",
          "name": "",
          "type": "int256"
        }
      ],
      "stateMutability": "pure",
      "type": "function"
    },
    {
      "inputs": [
        {
          "internalType": "int256",
          "name": "a",
          "type": "int256"
        },
        {
          "internalType": "int256",
          "name": "b",
          "type": "int256"
        }
      ],
      "name": "add",
      "outputs": [
        {
          "internalType": "int256",
          "name": "",
          "type": "int256"
        }
      ],
      "stateMutability": "pure",
      "type": "function"
    }
  ],
  "bytecode": "0x608060405234801561001057600080fd5b5061059b806100206000396000f3fe608060405234801561001057600080fd5b506004361061004c5760003560e01c80634350913814610051578063a5f3c23b14610081578063adefc37b146100b1578063bbe93d91146100e1575b600080fd5b61006b600480360381019061006691906101f4565b610111565b6040516100789190610243565b60405180910390f35b61009b600480360381019061009691906101f4565b610125565b6040516100a89190610243565b60405180910390f35b6100cb60048036038101906100c691906101f4565b610139565b6040516100d89190610243565b60405180910390f35b6100fb60048036038101906100f691906101f4565b61014d565b6040516101089190610243565b60405180910390f35b600061011d8383610161565b905092915050565b60006101318383610177565b905092915050565b6000610145838361018d565b905092915050565b600061015983836101a3565b905092915050565b6000818361016f91906102bc565b905092915050565b600081836101859190610326565b905092915050565b6000818361019b91906103ba565b905092915050565b600081836101b1919061044e565b905092915050565b600080fd5b6000819050919050565b6101d1816101be565b81146101dc57600080fd5b50565b6000813590506101ee816101c8565b92915050565b6000806040838503121561020b5761020a6101b9565b5b6000610219858286016101df565b925050602061022a858286016101df565b9150509250929050565b61023d816101be565b82525050565b60006020820190506102586000830184610234565b92915050565b7f4e487b7100000000000000000000000000000000000000000000000000000000600052601260045260246000fd5b7f4e487b7100000000000000000000000000000000000000000000000000000000600052601160045260246000fd5b60006102c7826101be565b91506102d2836101be565b9250826102e2576102e161025e565b5b600160000383147f80000000000000000000000000000000000000000000000000000000000000008314161561031b5761031a61028d565b5b828205905092915050565b6000610331826101be565b915061033c836101be565b9250817f7fffffffffffffffffffffffffffffffffffffffffffffffffffffffffffffff038313600083121516156103775761037661028d565b5b817f80000000000000000000000000000000000000000000000000000000000000000383126000831216156103af576103ae61028d565b5b828201905092915050565b60006103c5826101be565b91506103d0836101be565b9250827f80000000000000000000000000000000000000000000000000000000000000000182126000841215161561040b5761040a61028d565b5b827f7fffffffffffffffffffffffffffffffffffffffffffffffffffffffffffffff0182136000841216156104435761044261028d565b5b828203905092915050565b6000610459826101be565b9150610464836101be565b9250827f7fffffffffffffffffffffffffffffffffffffffffffffffffffffffffffffff04821160008413600084131616156104a3576104a261028d565b5b817f800000000000000000000000000000000000000000000000000000000000000005831260008412600084131616156104e0576104df61028d565b5b827f8000000000000000000000000000000000000000000000000000000000000000058212600084136000841216161561051d5761051c61028d565b5b827f7fffffffffffffffffffffffffffffffffffffffffffffffffffffffffffffff058212600084126000841216161561055a5761055961028d565b5b82820290509291505056fea2646970667358221220522a430ddf14199a67c01b0e123be6ed0279610ee297030304c4d0f87f423fe064736f6c63430008090033",
  "immutableReferences": {},
  "source": "// SPDX-License-Identifier: MIT\r\n\r\npragma solidity ^0.8.0;\r\n\r\nimport \"../utils/math/SignedSafeMath.sol\";\r\n\r\ncontract SignedSafeMathMock {\r\n    function mul(int256 a, int256 b) public pure returns (int256) {\r\n        return SignedSafeMath.mul(a, b);\r\n    }\r\n\r\n    function div(int256 a, int256 b) public pure returns (int256) {\r\n        return SignedSafeMath.div(a, b);\r\n    }\r\n\r\n    function sub(int256 a, int256 b) public pure returns (int256) {\r\n        return SignedSafeMath.sub(a, b);\r\n    }\r\n\r\n    function add(int256 a, int256 b) public pure returns (int256) {\r\n        return SignedSafeMath.add(a, b);\r\n    }\r\n}\r\n",
  "sourcePath": "C:\\Climax\\NFT-marketplace\\contracts\\openzeppelin-solidity\\contracts\\mocks\\SignedSafeMathMock.sol",
  "compiler": {
    "name": "solc",
    "version": "0.8.9+commit.e5eed63a.Emscripten.clang"
  },
  "schemaVersion": "3.4.3",
  "updatedAt": "2021-10-26T11:45:25.961Z",
  "devdoc": {
    "kind": "dev",
    "methods": {},
    "version": 1
  },
  "userdoc": {
    "kind": "user",
    "methods": {},
    "version": 1
  }
}